{
	"Role4/ErrorTriagePin.sol": {
		"Submission": {
			"abi": [
				{
					"inputs": [
						{
							"internalType": "uint256",
							"name": "_num",
							"type": "uint256"
						}
					],
					"name": "addToArr",
					"outputs": [],
					"stateMutability": "nonpayable",
					"type": "function"
				},
				{
					"inputs": [
						{
							"internalType": "uint256",
							"name": "_base",
							"type": "uint256"
						},
						{
							"internalType": "int256",
							"name": "_modifier",
							"type": "int256"
						}
					],
					"name": "applyModifier",
					"outputs": [
						{
							"internalType": "uint256",
							"name": "",
							"type": "uint256"
						}
					],
					"stateMutability": "pure",
					"type": "function"
				},
				{
					"inputs": [
						{
							"internalType": "uint256",
							"name": "_a",
							"type": "uint256"
						},
						{
							"internalType": "uint256",
							"name": "_b",
							"type": "uint256"
						},
						{
							"internalType": "uint256",
							"name": "_c",
							"type": "uint256"
						},
						{
							"internalType": "uint256",
							"name": "_d",
							"type": "uint256"
						}
					],
					"name": "diffWithNeighbor",
					"outputs": [
						{
							"internalType": "uint256[]",
							"name": "",
							"type": "uint256[]"
						}
					],
					"stateMutability": "pure",
					"type": "function"
				},
				{
					"inputs": [],
					"name": "getArr",
					"outputs": [
						{
							"internalType": "uint256[]",
							"name": "",
							"type": "uint256[]"
						}
					],
					"stateMutability": "view",
					"type": "function"
				},
				{
					"inputs": [],
					"name": "popWithReturn",
					"outputs": [
						{
							"internalType": "uint256",
							"name": "",
							"type": "uint256"
						}
					],
					"stateMutability": "nonpayable",
					"type": "function"
				},
				{
					"inputs": [],
					"name": "resetArr",
					"outputs": [],
					"stateMutability": "nonpayable",
					"type": "function"
				}
			],
			"devdoc": {
				"kind": "dev",
				"methods": {},
				"version": 1
			},
			"evm": {
				"assembly": "    /* \"Role4/ErrorTriagePin.sol\":539:1725  contract Submission is ISubmission {... */\n  mstore(0x40, 0x80)\n  callvalue\n  dup1\n  iszero\n  tag_1\n  jumpi\n  revert(0x00, 0x00)\ntag_1:\n  pop\n  dataSize(sub_0)\n  dup1\n  dataOffset(sub_0)\n  0x00\n  codecopy\n  0x00\n  return\nstop\n\nsub_0: assembly {\n        /* \"Role4/ErrorTriagePin.sol\":539:1725  contract Submission is ISubmission {... */\n      mstore(0x40, 0x80)\n      callvalue\n      dup1\n      iszero\n      tag_1\n      jumpi\n      revert(0x00, 0x00)\n    tag_1:\n      pop\n      jumpi(tag_2, lt(calldatasize, 0x04))\n      shr(0xe0, calldataload(0x00))\n      dup1\n      0x1abe2ac2\n      eq\n      tag_3\n      jumpi\n      dup1\n      0x29432314\n      eq\n      tag_4\n      jumpi\n      dup1\n      0x64529db5\n      eq\n      tag_5\n      jumpi\n      dup1\n      0xe1819ff9\n      eq\n      tag_6\n      jumpi\n      dup1\n      0xf74e51ea\n      eq\n      tag_7\n      jumpi\n      dup1\n      0xfb8cbced\n      eq\n      tag_8\n      jumpi\n    tag_2:\n      revert(0x00, 0x00)\n        /* \"Role4/ErrorTriagePin.sol\":1188:1458  function popWithReturn() external override returns (uint) {... */\n    tag_3:\n      tag_9\n      tag_10\n      jump\t// in\n    tag_9:\n      mload(0x40)\n      tag_11\n      swap2\n      swap1\n      tag_12\n      jump\t// in\n    tag_11:\n      mload(0x40)\n      dup1\n      swap2\n      sub\n      swap1\n      return\n        /* \"Role4/ErrorTriagePin.sol\":614:1011  function diffWithNeighbor(... */\n    tag_4:\n      tag_13\n      0x04\n      dup1\n      calldatasize\n      sub\n      dup2\n      add\n      swap1\n      tag_14\n      swap2\n      swap1\n      tag_15\n      jump\t// in\n    tag_14:\n      tag_16\n      jump\t// in\n    tag_13:\n      mload(0x40)\n      tag_17\n      swap2\n      swap1\n      tag_18\n      jump\t// in\n    tag_17:\n      mload(0x40)\n      dup1\n      swap2\n      sub\n      swap1\n      return\n        /* \"Role4/ErrorTriagePin.sol\":1654:1723  function resetArr() external override {... */\n    tag_5:\n      tag_19\n      tag_20\n      jump\t// in\n    tag_19:\n      stop\n        /* \"Role4/ErrorTriagePin.sol\":1464:1546  function addToArr(uint _num) external override {... */\n    tag_6:\n      tag_21\n      0x04\n      dup1\n      calldatasize\n      sub\n      dup2\n      add\n      swap1\n      tag_22\n      swap2\n      swap1\n      tag_23\n      jump\t// in\n    tag_22:\n      tag_24\n      jump\t// in\n    tag_21:\n      stop\n        /* \"Role4/ErrorTriagePin.sol\":1017:1182  function applyModifier(... */\n    tag_7:\n      tag_25\n      0x04\n      dup1\n      calldatasize\n      sub\n      dup2\n      add\n      swap1\n      tag_26\n      swap2\n      swap1\n      tag_27\n      jump\t// in\n    tag_26:\n      tag_28\n      jump\t// in\n    tag_25:\n      mload(0x40)\n      tag_29\n      swap2\n      swap1\n      tag_12\n      jump\t// in\n    tag_29:\n      mload(0x40)\n      dup1\n      swap2\n      sub\n      swap1\n      return\n        /* \"Role4/ErrorTriagePin.sol\":1552:1648  function getArr() external view override returns (uint[] memory) {... */\n    tag_8:\n      tag_30\n      tag_31\n      jump\t// in\n    tag_30:\n      mload(0x40)\n      tag_32\n      swap2\n      swap1\n      tag_18\n      jump\t// in\n    tag_32:\n      mload(0x40)\n      dup1\n      swap2\n      sub\n      swap1\n      return\n        /* \"Role4/ErrorTriagePin.sol\":1188:1458  function popWithReturn() external override returns (uint) {... */\n    tag_10:\n        /* \"Role4/ErrorTriagePin.sol\":1240:1244  uint */\n      0x00\n        /* \"Role4/ErrorTriagePin.sol\":1281:1282  0 */\n      0x00\n        /* \"Role4/ErrorTriagePin.sol\":1264:1271  numbers */\n      0x00\n        /* \"Role4/ErrorTriagePin.sol\":1264:1278  numbers.length */\n      dup1\n      sload\n      swap1\n      pop\n        /* \"Role4/ErrorTriagePin.sol\":1264:1282  numbers.length > 0 */\n      gt\n        /* \"Role4/ErrorTriagePin.sol\":1256:1317  require(numbers.length > 0, \"Cannot pop from an empty array\") */\n      tag_34\n      jumpi\n      mload(0x40)\n      0x08c379a000000000000000000000000000000000000000000000000000000000\n      dup2\n      mstore\n      0x04\n      add\n      tag_35\n      swap1\n      tag_36\n      jump\t// in\n    tag_35:\n      mload(0x40)\n      dup1\n      swap2\n      sub\n      swap1\n      revert\n    tag_34:\n        /* \"Role4/ErrorTriagePin.sol\":1336:1352  uint lastElement */\n      0x00\n        /* \"Role4/ErrorTriagePin.sol\":1355:1362  numbers */\n      0x00\n        /* \"Role4/ErrorTriagePin.sol\":1380:1381  1 */\n      0x01\n        /* \"Role4/ErrorTriagePin.sol\":1363:1370  numbers */\n      0x00\n        /* \"Role4/ErrorTriagePin.sol\":1363:1377  numbers.length */\n      dup1\n      sload\n      swap1\n      pop\n        /* \"Role4/ErrorTriagePin.sol\":1363:1381  numbers.length - 1 */\n      tag_37\n      swap2\n      swap1\n      tag_38\n      jump\t// in\n    tag_37:\n        /* \"Role4/ErrorTriagePin.sol\":1355:1382  numbers[numbers.length - 1] */\n      dup2\n      sload\n      dup2\n      lt\n      tag_39\n      jumpi\n      tag_40\n      tag_41\n      jump\t// in\n    tag_40:\n    tag_39:\n      swap1\n      0x00\n      mstore\n      keccak256(0x00, 0x20)\n      add\n      sload\n        /* \"Role4/ErrorTriagePin.sol\":1336:1382  uint lastElement = numbers[numbers.length - 1] */\n      swap1\n      pop\n        /* \"Role4/ErrorTriagePin.sol\":1401:1408  numbers */\n      0x00\n        /* \"Role4/ErrorTriagePin.sol\":1401:1414  numbers.pop() */\n      dup1\n      sload\n      dup1\n      tag_43\n      jumpi\n      tag_44\n      tag_45\n      jump\t// in\n    tag_44:\n    tag_43:\n      0x01\n      swap1\n      sub\n      dup2\n      dup2\n      swap1\n      0x00\n      mstore\n      keccak256(0x00, 0x20)\n      add\n      0x00\n      swap1\n      sstore\n      swap1\n      sstore\n        /* \"Role4/ErrorTriagePin.sol\":1440:1451  lastElement */\n      dup1\n        /* \"Role4/ErrorTriagePin.sol\":1433:1451  return lastElement */\n      swap2\n      pop\n      pop\n        /* \"Role4/ErrorTriagePin.sol\":1188:1458  function popWithReturn() external override returns (uint) {... */\n      swap1\n      jump\t// out\n        /* \"Role4/ErrorTriagePin.sol\":614:1011  function diffWithNeighbor(... */\n    tag_16:\n        /* \"Role4/ErrorTriagePin.sol\":746:759  uint[] memory */\n      0x60\n        /* \"Role4/ErrorTriagePin.sol\":771:796  uint[] memory differences */\n      0x00\n        /* \"Role4/ErrorTriagePin.sol\":810:811  3 */\n      0x03\n        /* \"Role4/ErrorTriagePin.sol\":799:812  new uint[](3) */\n      0xffffffffffffffff\n      dup2\n      gt\n      iszero\n      tag_48\n      jumpi\n      tag_49\n      tag_50\n      jump\t// in\n    tag_49:\n    tag_48:\n      mload(0x40)\n      swap1\n      dup1\n      dup3\n      mstore\n      dup1\n      0x20\n      mul\n      0x20\n      add\n      dup3\n      add\n      0x40\n      mstore\n      dup1\n      iszero\n      tag_51\n      jumpi\n      dup2\n      0x20\n      add\n      0x20\n      dup3\n      mul\n      dup1\n      calldatasize\n      dup4\n      calldatacopy\n      dup1\n      dup3\n      add\n      swap2\n      pop\n      pop\n      swap1\n      pop\n    tag_51:\n      pop\n        /* \"Role4/ErrorTriagePin.sol\":771:812  uint[] memory differences = new uint[](3) */\n      swap1\n      pop\n        /* \"Role4/ErrorTriagePin.sol\":845:847  _b */\n      dup5\n        /* \"Role4/ErrorTriagePin.sol\":840:842  _a */\n      dup7\n        /* \"Role4/ErrorTriagePin.sol\":840:847  _a > _b */\n      gt\n        /* \"Role4/ErrorTriagePin.sol\":840:867  _a > _b ? _a - _b : _b - _a */\n      tag_52\n      jumpi\n        /* \"Role4/ErrorTriagePin.sol\":865:867  _a */\n      dup6\n        /* \"Role4/ErrorTriagePin.sol\":860:862  _b */\n      dup6\n        /* \"Role4/ErrorTriagePin.sol\":860:867  _b - _a */\n      tag_53\n      swap2\n      swap1\n      tag_38\n      jump\t// in\n    tag_53:\n        /* \"Role4/ErrorTriagePin.sol\":840:867  _a > _b ? _a - _b : _b - _a */\n      jump(tag_54)\n    tag_52:\n        /* \"Role4/ErrorTriagePin.sol\":855:857  _b */\n      dup5\n        /* \"Role4/ErrorTriagePin.sol\":850:852  _a */\n      dup7\n        /* \"Role4/ErrorTriagePin.sol\":850:857  _a - _b */\n      tag_55\n      swap2\n      swap1\n      tag_38\n      jump\t// in\n    tag_55:\n        /* \"Role4/ErrorTriagePin.sol\":840:867  _a > _b ? _a - _b : _b - _a */\n    tag_54:\n        /* \"Role4/ErrorTriagePin.sol\":823:834  differences */\n      dup2\n        /* \"Role4/ErrorTriagePin.sol\":835:836  0 */\n      0x00\n        /* \"Role4/ErrorTriagePin.sol\":823:837  differences[0] */\n      dup2\n      mload\n      dup2\n      lt\n      tag_56\n      jumpi\n      tag_57\n      tag_41\n      jump\t// in\n    tag_57:\n    tag_56:\n      0x20\n      mul\n      0x20\n      add\n      add\n        /* \"Role4/ErrorTriagePin.sol\":823:867  differences[0] = _a > _b ? _a - _b : _b - _a */\n      dup2\n      dup2\n      mstore\n      pop\n      pop\n        /* \"Role4/ErrorTriagePin.sol\":899:901  _c */\n      dup4\n        /* \"Role4/ErrorTriagePin.sol\":894:896  _b */\n      dup6\n        /* \"Role4/ErrorTriagePin.sol\":894:901  _b > _c */\n      gt\n        /* \"Role4/ErrorTriagePin.sol\":894:921  _b > _c ? _b - _c : _c - _b */\n      tag_58\n      jumpi\n        /* \"Role4/ErrorTriagePin.sol\":919:921  _b */\n      dup5\n        /* \"Role4/ErrorTriagePin.sol\":914:916  _c */\n      dup5\n        /* \"Role4/ErrorTriagePin.sol\":914:921  _c - _b */\n      tag_59\n      swap2\n      swap1\n      tag_38\n      jump\t// in\n    tag_59:\n        /* \"Role4/ErrorTriagePin.sol\":894:921  _b > _c ? _b - _c : _c - _b */\n      jump(tag_60)\n    tag_58:\n        /* \"Role4/ErrorTriagePin.sol\":909:911  _c */\n      dup4\n        /* \"Role4/ErrorTriagePin.sol\":904:906  _b */\n      dup6\n        /* \"Role4/ErrorTriagePin.sol\":904:911  _b - _c */\n      tag_61\n      swap2\n      swap1\n      tag_38\n      jump\t// in\n    tag_61:\n        /* \"Role4/ErrorTriagePin.sol\":894:921  _b > _c ? _b - _c : _c - _b */\n    tag_60:\n        /* \"Role4/ErrorTriagePin.sol\":877:888  differences */\n      dup2\n        /* \"Role4/ErrorTriagePin.sol\":889:890  1 */\n      0x01\n        /* \"Role4/ErrorTriagePin.sol\":877:891  differences[1] */\n      dup2\n      mload\n      dup2\n      lt\n      tag_62\n      jumpi\n      tag_63\n      tag_41\n      jump\t// in\n    tag_63:\n    tag_62:\n      0x20\n      mul\n      0x20\n      add\n      add\n        /* \"Role4/ErrorTriagePin.sol\":877:921  differences[1] = _b > _c ? _b - _c : _c - _b */\n      dup2\n      dup2\n      mstore\n      pop\n      pop\n        /* \"Role4/ErrorTriagePin.sol\":953:955  _d */\n      dup3\n        /* \"Role4/ErrorTriagePin.sol\":948:950  _c */\n      dup5\n        /* \"Role4/ErrorTriagePin.sol\":948:955  _c > _d */\n      gt\n        /* \"Role4/ErrorTriagePin.sol\":948:975  _c > _d ? _c - _d : _d - _c */\n      tag_64\n      jumpi\n        /* \"Role4/ErrorTriagePin.sol\":973:975  _c */\n      dup4\n        /* \"Role4/ErrorTriagePin.sol\":968:970  _d */\n      dup4\n        /* \"Role4/ErrorTriagePin.sol\":968:975  _d - _c */\n      tag_65\n      swap2\n      swap1\n      tag_38\n      jump\t// in\n    tag_65:\n        /* \"Role4/ErrorTriagePin.sol\":948:975  _c > _d ? _c - _d : _d - _c */\n      jump(tag_66)\n    tag_64:\n        /* \"Role4/ErrorTriagePin.sol\":963:965  _d */\n      dup3\n        /* \"Role4/ErrorTriagePin.sol\":958:960  _c */\n      dup5\n        /* \"Role4/ErrorTriagePin.sol\":958:965  _c - _d */\n      tag_67\n      swap2\n      swap1\n      tag_38\n      jump\t// in\n    tag_67:\n        /* \"Role4/ErrorTriagePin.sol\":948:975  _c > _d ? _c - _d : _d - _c */\n    tag_66:\n        /* \"Role4/ErrorTriagePin.sol\":931:942  differences */\n      dup2\n        /* \"Role4/ErrorTriagePin.sol\":943:944  2 */\n      0x02\n        /* \"Role4/ErrorTriagePin.sol\":931:945  differences[2] */\n      dup2\n      mload\n      dup2\n      lt\n      tag_68\n      jumpi\n      tag_69\n      tag_41\n      jump\t// in\n    tag_69:\n    tag_68:\n      0x20\n      mul\n      0x20\n      add\n      add\n        /* \"Role4/ErrorTriagePin.sol\":931:975  differences[2] = _c > _d ? _c - _d : _d - _c */\n      dup2\n      dup2\n      mstore\n      pop\n      pop\n        /* \"Role4/ErrorTriagePin.sol\":993:1004  differences */\n      dup1\n        /* \"Role4/ErrorTriagePin.sol\":986:1004  return differences */\n      swap2\n      pop\n      pop\n        /* \"Role4/ErrorTriagePin.sol\":614:1011  function diffWithNeighbor(... */\n      swap5\n      swap4\n      pop\n      pop\n      pop\n      pop\n      jump\t// out\n        /* \"Role4/ErrorTriagePin.sol\":1654:1723  function resetArr() external override {... */\n    tag_20:\n        /* \"Role4/ErrorTriagePin.sol\":1709:1716  numbers */\n      0x00\n      0x00\n        /* \"Role4/ErrorTriagePin.sol\":1702:1716  delete numbers */\n      tag_71\n      swap2\n      swap1\n      tag_72\n      jump\t// in\n    tag_71:\n        /* \"Role4/ErrorTriagePin.sol\":1654:1723  function resetArr() external override {... */\n      jump\t// out\n        /* \"Role4/ErrorTriagePin.sol\":1464:1546  function addToArr(uint _num) external override {... */\n    tag_24:\n        /* \"Role4/ErrorTriagePin.sol\":1521:1528  numbers */\n      0x00\n        /* \"Role4/ErrorTriagePin.sol\":1534:1538  _num */\n      dup2\n        /* \"Role4/ErrorTriagePin.sol\":1521:1539  numbers.push(_num) */\n      swap1\n      dup1\n      0x01\n      dup2\n      sload\n      add\n      dup1\n      dup3\n      sstore\n      dup1\n      swap2\n      pop\n      pop\n      0x01\n      swap1\n      sub\n      swap1\n      0x00\n      mstore\n      keccak256(0x00, 0x20)\n      add\n      0x00\n      swap1\n      swap2\n      swap1\n      swap2\n      swap1\n      swap2\n      pop\n      sstore\n        /* \"Role4/ErrorTriagePin.sol\":1464:1546  function addToArr(uint _num) external override {... */\n      pop\n      jump\t// out\n        /* \"Role4/ErrorTriagePin.sol\":1017:1182  function applyModifier(... */\n    tag_28:\n        /* \"Role4/ErrorTriagePin.sol\":1121:1125  uint */\n      0x00\n        /* \"Role4/ErrorTriagePin.sol\":1165:1174  _modifier */\n      dup2\n        /* \"Role4/ErrorTriagePin.sol\":1156:1161  _base */\n      dup4\n        /* \"Role4/ErrorTriagePin.sol\":1149:1174  int256(_base) + _modifier */\n      tag_76\n      swap2\n      swap1\n      tag_77\n      jump\t// in\n    tag_76:\n        /* \"Role4/ErrorTriagePin.sol\":1137:1175  return uint(int256(_base) + _modifier) */\n      swap1\n      pop\n        /* \"Role4/ErrorTriagePin.sol\":1017:1182  function applyModifier(... */\n      swap3\n      swap2\n      pop\n      pop\n      jump\t// out\n        /* \"Role4/ErrorTriagePin.sol\":1552:1648  function getArr() external view override returns (uint[] memory) {... */\n    tag_31:\n        /* \"Role4/ErrorTriagePin.sol\":1602:1615  uint[] memory */\n      0x60\n        /* \"Role4/ErrorTriagePin.sol\":1634:1641  numbers */\n      0x00\n        /* \"Role4/ErrorTriagePin.sol\":1627:1641  return numbers */\n      dup1\n      sload\n      dup1\n      0x20\n      mul\n      0x20\n      add\n      mload(0x40)\n      swap1\n      dup2\n      add\n      0x40\n      mstore\n      dup1\n      swap3\n      swap2\n      swap1\n      dup2\n      dup2\n      mstore\n      0x20\n      add\n      dup3\n      dup1\n      sload\n      dup1\n      iszero\n      tag_79\n      jumpi\n      0x20\n      mul\n      dup3\n      add\n      swap2\n      swap1\n      0x00\n      mstore\n      keccak256(0x00, 0x20)\n      swap1\n    tag_80:\n      dup2\n      sload\n      dup2\n      mstore\n      0x20\n      add\n      swap1\n      0x01\n      add\n      swap1\n      dup1\n      dup4\n      gt\n      tag_80\n      jumpi\n    tag_79:\n      pop\n      pop\n      pop\n      pop\n      pop\n      swap1\n      pop\n        /* \"Role4/ErrorTriagePin.sol\":1552:1648  function getArr() external view override returns (uint[] memory) {... */\n      swap1\n      jump\t// out\n    tag_72:\n      pop\n      dup1\n      sload\n      0x00\n      dup3\n      sstore\n      swap1\n      0x00\n      mstore\n      keccak256(0x00, 0x20)\n      swap1\n      dup2\n      add\n      swap1\n      tag_82\n      swap2\n      swap1\n      tag_83\n      jump\t// in\n    tag_82:\n      pop\n      jump\t// out\n    tag_83:\n    tag_84:\n      dup1\n      dup3\n      gt\n      iszero\n      tag_85\n      jumpi\n      0x00\n      dup2\n      0x00\n      swap1\n      sstore\n      pop\n      0x01\n      add\n      jump(tag_84)\n    tag_85:\n      pop\n      swap1\n      jump\t// out\n        /* \"#utility.yul\":7:84   */\n    tag_86:\n        /* \"#utility.yul\":44:51   */\n      0x00\n        /* \"#utility.yul\":73:78   */\n      dup2\n        /* \"#utility.yul\":62:78   */\n      swap1\n      pop\n        /* \"#utility.yul\":7:84   */\n      swap2\n      swap1\n      pop\n      jump\t// out\n        /* \"#utility.yul\":90:208   */\n    tag_87:\n        /* \"#utility.yul\":177:201   */\n      tag_110\n        /* \"#utility.yul\":195:200   */\n      dup2\n        /* \"#utility.yul\":177:201   */\n      tag_86\n      jump\t// in\n    tag_110:\n        /* \"#utility.yul\":172:175   */\n      dup3\n        /* \"#utility.yul\":165:202   */\n      mstore\n        /* \"#utility.yul\":90:208   */\n      pop\n      pop\n      jump\t// out\n        /* \"#utility.yul\":214:436   */\n    tag_12:\n        /* \"#utility.yul\":307:311   */\n      0x00\n        /* \"#utility.yul\":345:347   */\n      0x20\n        /* \"#utility.yul\":334:343   */\n      dup3\n        /* \"#utility.yul\":330:348   */\n      add\n        /* \"#utility.yul\":322:348   */\n      swap1\n      pop\n        /* \"#utility.yul\":358:429   */\n      tag_112\n        /* \"#utility.yul\":426:427   */\n      0x00\n        /* \"#utility.yul\":415:424   */\n      dup4\n        /* \"#utility.yul\":411:428   */\n      add\n        /* \"#utility.yul\":402:408   */\n      dup5\n        /* \"#utility.yul\":358:429   */\n      tag_87\n      jump\t// in\n    tag_112:\n        /* \"#utility.yul\":214:436   */\n      swap3\n      swap2\n      pop\n      pop\n      jump\t// out\n        /* \"#utility.yul\":523:640   */\n    tag_89:\n        /* \"#utility.yul\":632:633   */\n      0x00\n        /* \"#utility.yul\":629:630   */\n      0x00\n        /* \"#utility.yul\":622:634   */\n      revert\n        /* \"#utility.yul\":769:891   */\n    tag_91:\n        /* \"#utility.yul\":842:866   */\n      tag_117\n        /* \"#utility.yul\":860:865   */\n      dup2\n        /* \"#utility.yul\":842:866   */\n      tag_86\n      jump\t// in\n    tag_117:\n        /* \"#utility.yul\":835:840   */\n      dup2\n        /* \"#utility.yul\":832:867   */\n      eq\n        /* \"#utility.yul\":822:885   */\n      tag_118\n      jumpi\n        /* \"#utility.yul\":881:882   */\n      0x00\n        /* \"#utility.yul\":878:879   */\n      0x00\n        /* \"#utility.yul\":871:883   */\n      revert\n        /* \"#utility.yul\":822:885   */\n    tag_118:\n        /* \"#utility.yul\":769:891   */\n      pop\n      jump\t// out\n        /* \"#utility.yul\":897:1036   */\n    tag_92:\n        /* \"#utility.yul\":943:948   */\n      0x00\n        /* \"#utility.yul\":981:987   */\n      dup2\n        /* \"#utility.yul\":968:988   */\n      calldataload\n        /* \"#utility.yul\":959:988   */\n      swap1\n      pop\n        /* \"#utility.yul\":997:1030   */\n      tag_120\n        /* \"#utility.yul\":1024:1029   */\n      dup2\n        /* \"#utility.yul\":997:1030   */\n      tag_91\n      jump\t// in\n    tag_120:\n        /* \"#utility.yul\":897:1036   */\n      swap3\n      swap2\n      pop\n      pop\n      jump\t// out\n        /* \"#utility.yul\":1042:1807   */\n    tag_15:\n        /* \"#utility.yul\":1128:1134   */\n      0x00\n        /* \"#utility.yul\":1136:1142   */\n      0x00\n        /* \"#utility.yul\":1144:1150   */\n      0x00\n        /* \"#utility.yul\":1152:1158   */\n      0x00\n        /* \"#utility.yul\":1201:1204   */\n      0x80\n        /* \"#utility.yul\":1189:1198   */\n      dup6\n        /* \"#utility.yul\":1180:1187   */\n      dup8\n        /* \"#utility.yul\":1176:1199   */\n      sub\n        /* \"#utility.yul\":1172:1205   */\n      slt\n        /* \"#utility.yul\":1169:1289   */\n      iszero\n      tag_122\n      jumpi\n        /* \"#utility.yul\":1208:1287   */\n      tag_123\n      tag_89\n      jump\t// in\n    tag_123:\n        /* \"#utility.yul\":1169:1289   */\n    tag_122:\n        /* \"#utility.yul\":1328:1329   */\n      0x00\n        /* \"#utility.yul\":1353:1406   */\n      tag_124\n        /* \"#utility.yul\":1398:1405   */\n      dup8\n        /* \"#utility.yul\":1389:1395   */\n      dup3\n        /* \"#utility.yul\":1378:1387   */\n      dup9\n        /* \"#utility.yul\":1374:1396   */\n      add\n        /* \"#utility.yul\":1353:1406   */\n      tag_92\n      jump\t// in\n    tag_124:\n        /* \"#utility.yul\":1343:1406   */\n      swap5\n      pop\n        /* \"#utility.yul\":1299:1416   */\n      pop\n        /* \"#utility.yul\":1455:1457   */\n      0x20\n        /* \"#utility.yul\":1481:1534   */\n      tag_125\n        /* \"#utility.yul\":1526:1533   */\n      dup8\n        /* \"#utility.yul\":1517:1523   */\n      dup3\n        /* \"#utility.yul\":1506:1515   */\n      dup9\n        /* \"#utility.yul\":1502:1524   */\n      add\n        /* \"#utility.yul\":1481:1534   */\n      tag_92\n      jump\t// in\n    tag_125:\n        /* \"#utility.yul\":1471:1534   */\n      swap4\n      pop\n        /* \"#utility.yul\":1426:1544   */\n      pop\n        /* \"#utility.yul\":1583:1585   */\n      0x40\n        /* \"#utility.yul\":1609:1662   */\n      tag_126\n        /* \"#utility.yul\":1654:1661   */\n      dup8\n        /* \"#utility.yul\":1645:1651   */\n      dup3\n        /* \"#utility.yul\":1634:1643   */\n      dup9\n        /* \"#utility.yul\":1630:1652   */\n      add\n        /* \"#utility.yul\":1609:1662   */\n      tag_92\n      jump\t// in\n    tag_126:\n        /* \"#utility.yul\":1599:1662   */\n      swap3\n      pop\n        /* \"#utility.yul\":1554:1672   */\n      pop\n        /* \"#utility.yul\":1711:1713   */\n      0x60\n        /* \"#utility.yul\":1737:1790   */\n      tag_127\n        /* \"#utility.yul\":1782:1789   */\n      dup8\n        /* \"#utility.yul\":1773:1779   */\n      dup3\n        /* \"#utility.yul\":1762:1771   */\n      dup9\n        /* \"#utility.yul\":1758:1780   */\n      add\n        /* \"#utility.yul\":1737:1790   */\n      tag_92\n      jump\t// in\n    tag_127:\n        /* \"#utility.yul\":1727:1790   */\n      swap2\n      pop\n        /* \"#utility.yul\":1682:1800   */\n      pop\n        /* \"#utility.yul\":1042:1807   */\n      swap3\n      swap6\n      swap2\n      swap5\n      pop\n      swap3\n      pop\n      jump\t// out\n        /* \"#utility.yul\":1813:1927   */\n    tag_93:\n        /* \"#utility.yul\":1880:1886   */\n      0x00\n        /* \"#utility.yul\":1914:1919   */\n      dup2\n        /* \"#utility.yul\":1908:1920   */\n      mload\n        /* \"#utility.yul\":1898:1920   */\n      swap1\n      pop\n        /* \"#utility.yul\":1813:1927   */\n      swap2\n      swap1\n      pop\n      jump\t// out\n        /* \"#utility.yul\":1933:2117   */\n    tag_94:\n        /* \"#utility.yul\":2032:2043   */\n      0x00\n        /* \"#utility.yul\":2066:2072   */\n      dup3\n        /* \"#utility.yul\":2061:2064   */\n      dup3\n        /* \"#utility.yul\":2054:2073   */\n      mstore\n        /* \"#utility.yul\":2106:2110   */\n      0x20\n        /* \"#utility.yul\":2101:2104   */\n      dup3\n        /* \"#utility.yul\":2097:2111   */\n      add\n        /* \"#utility.yul\":2082:2111   */\n      swap1\n      pop\n        /* \"#utility.yul\":1933:2117   */\n      swap3\n      swap2\n      pop\n      pop\n      jump\t// out\n        /* \"#utility.yul\":2123:2255   */\n    tag_95:\n        /* \"#utility.yul\":2190:2194   */\n      0x00\n        /* \"#utility.yul\":2213:2216   */\n      dup2\n        /* \"#utility.yul\":2205:2216   */\n      swap1\n      pop\n        /* \"#utility.yul\":2243:2247   */\n      0x20\n        /* \"#utility.yul\":2238:2241   */\n      dup3\n        /* \"#utility.yul\":2234:2248   */\n      add\n        /* \"#utility.yul\":2226:2248   */\n      swap1\n      pop\n        /* \"#utility.yul\":2123:2255   */\n      swap2\n      swap1\n      pop\n      jump\t// out\n        /* \"#utility.yul\":2261:2369   */\n    tag_96:\n        /* \"#utility.yul\":2338:2362   */\n      tag_132\n        /* \"#utility.yul\":2356:2361   */\n      dup2\n        /* \"#utility.yul\":2338:2362   */\n      tag_86\n      jump\t// in\n    tag_132:\n        /* \"#utility.yul\":2333:2336   */\n      dup3\n        /* \"#utility.yul\":2326:2363   */\n      mstore\n        /* \"#utility.yul\":2261:2369   */\n      pop\n      pop\n      jump\t// out\n        /* \"#utility.yul\":2375:2554   */\n    tag_97:\n        /* \"#utility.yul\":2444:2454   */\n      0x00\n        /* \"#utility.yul\":2465:2511   */\n      tag_134\n        /* \"#utility.yul\":2507:2510   */\n      dup4\n        /* \"#utility.yul\":2499:2505   */\n      dup4\n        /* \"#utility.yul\":2465:2511   */\n      tag_96\n      jump\t// in\n    tag_134:\n        /* \"#utility.yul\":2543:2547   */\n      0x20\n        /* \"#utility.yul\":2538:2541   */\n      dup4\n        /* \"#utility.yul\":2534:2548   */\n      add\n        /* \"#utility.yul\":2520:2548   */\n      swap1\n      pop\n        /* \"#utility.yul\":2375:2554   */\n      swap3\n      swap2\n      pop\n      pop\n      jump\t// out\n        /* \"#utility.yul\":2560:2673   */\n    tag_98:\n        /* \"#utility.yul\":2630:2634   */\n      0x00\n        /* \"#utility.yul\":2662:2666   */\n      0x20\n        /* \"#utility.yul\":2657:2660   */\n      dup3\n        /* \"#utility.yul\":2653:2667   */\n      add\n        /* \"#utility.yul\":2645:2667   */\n      swap1\n      pop\n        /* \"#utility.yul\":2560:2673   */\n      swap2\n      swap1\n      pop\n      jump\t// out\n        /* \"#utility.yul\":2709:3441   */\n    tag_99:\n        /* \"#utility.yul\":2828:2831   */\n      0x00\n        /* \"#utility.yul\":2857:2911   */\n      tag_137\n        /* \"#utility.yul\":2905:2910   */\n      dup3\n        /* \"#utility.yul\":2857:2911   */\n      tag_93\n      jump\t// in\n    tag_137:\n        /* \"#utility.yul\":2927:3013   */\n      tag_138\n        /* \"#utility.yul\":3006:3012   */\n      dup2\n        /* \"#utility.yul\":3001:3004   */\n      dup6\n        /* \"#utility.yul\":2927:3013   */\n      tag_94\n      jump\t// in\n    tag_138:\n        /* \"#utility.yul\":2920:3013   */\n      swap4\n      pop\n        /* \"#utility.yul\":3037:3093   */\n      tag_139\n        /* \"#utility.yul\":3087:3092   */\n      dup4\n        /* \"#utility.yul\":3037:3093   */\n      tag_95\n      jump\t// in\n    tag_139:\n        /* \"#utility.yul\":3116:3123   */\n      dup1\n        /* \"#utility.yul\":3147:3148   */\n      0x00\n        /* \"#utility.yul\":3132:3416   */\n    tag_140:\n        /* \"#utility.yul\":3157:3163   */\n      dup4\n        /* \"#utility.yul\":3154:3155   */\n      dup2\n        /* \"#utility.yul\":3151:3164   */\n      lt\n        /* \"#utility.yul\":3132:3416   */\n      iszero\n      tag_142\n      jumpi\n        /* \"#utility.yul\":3233:3239   */\n      dup2\n        /* \"#utility.yul\":3227:3240   */\n      mload\n        /* \"#utility.yul\":3260:3323   */\n      tag_143\n        /* \"#utility.yul\":3319:3322   */\n      dup9\n        /* \"#utility.yul\":3304:3317   */\n      dup3\n        /* \"#utility.yul\":3260:3323   */\n      tag_97\n      jump\t// in\n    tag_143:\n        /* \"#utility.yul\":3253:3323   */\n      swap8\n      pop\n        /* \"#utility.yul\":3346:3406   */\n      tag_144\n        /* \"#utility.yul\":3399:3405   */\n      dup4\n        /* \"#utility.yul\":3346:3406   */\n      tag_98\n      jump\t// in\n    tag_144:\n        /* \"#utility.yul\":3336:3406   */\n      swap3\n      pop\n        /* \"#utility.yul\":3192:3416   */\n      pop\n        /* \"#utility.yul\":3179:3180   */\n      0x01\n        /* \"#utility.yul\":3176:3177   */\n      dup2\n        /* \"#utility.yul\":3172:3181   */\n      add\n        /* \"#utility.yul\":3167:3181   */\n      swap1\n      pop\n        /* \"#utility.yul\":3132:3416   */\n      jump(tag_140)\n    tag_142:\n        /* \"#utility.yul\":3136:3150   */\n      pop\n        /* \"#utility.yul\":3432:3435   */\n      dup6\n        /* \"#utility.yul\":3425:3435   */\n      swap4\n      pop\n        /* \"#utility.yul\":2833:3441   */\n      pop\n      pop\n      pop\n        /* \"#utility.yul\":2709:3441   */\n      swap3\n      swap2\n      pop\n      pop\n      jump\t// out\n        /* \"#utility.yul\":3447:3820   */\n    tag_18:\n        /* \"#utility.yul\":3590:3594   */\n      0x00\n        /* \"#utility.yul\":3628:3630   */\n      0x20\n        /* \"#utility.yul\":3617:3626   */\n      dup3\n        /* \"#utility.yul\":3613:3631   */\n      add\n        /* \"#utility.yul\":3605:3631   */\n      swap1\n      pop\n        /* \"#utility.yul\":3677:3686   */\n      dup2\n        /* \"#utility.yul\":3671:3675   */\n      dup2\n        /* \"#utility.yul\":3667:3687   */\n      sub\n        /* \"#utility.yul\":3663:3664   */\n      0x00\n        /* \"#utility.yul\":3652:3661   */\n      dup4\n        /* \"#utility.yul\":3648:3665   */\n      add\n        /* \"#utility.yul\":3641:3688   */\n      mstore\n        /* \"#utility.yul\":3705:3813   */\n      tag_146\n        /* \"#utility.yul\":3808:3812   */\n      dup2\n        /* \"#utility.yul\":3799:3805   */\n      dup5\n        /* \"#utility.yul\":3705:3813   */\n      tag_99\n      jump\t// in\n    tag_146:\n        /* \"#utility.yul\":3697:3813   */\n      swap1\n      pop\n        /* \"#utility.yul\":3447:3820   */\n      swap3\n      swap2\n      pop\n      pop\n      jump\t// out\n        /* \"#utility.yul\":3826:4155   */\n    tag_23:\n        /* \"#utility.yul\":3885:3891   */\n      0x00\n        /* \"#utility.yul\":3934:3936   */\n      0x20\n        /* \"#utility.yul\":3922:3931   */\n      dup3\n        /* \"#utility.yul\":3913:3920   */\n      dup5\n        /* \"#utility.yul\":3909:3932   */\n      sub\n        /* \"#utility.yul\":3905:3937   */\n      slt\n        /* \"#utility.yul\":3902:4021   */\n      iszero\n      tag_148\n      jumpi\n        /* \"#utility.yul\":3940:4019   */\n      tag_149\n      tag_89\n      jump\t// in\n    tag_149:\n        /* \"#utility.yul\":3902:4021   */\n    tag_148:\n        /* \"#utility.yul\":4060:4061   */\n      0x00\n        /* \"#utility.yul\":4085:4138   */\n      tag_150\n        /* \"#utility.yul\":4130:4137   */\n      dup5\n        /* \"#utility.yul\":4121:4127   */\n      dup3\n        /* \"#utility.yul\":4110:4119   */\n      dup6\n        /* \"#utility.yul\":4106:4128   */\n      add\n        /* \"#utility.yul\":4085:4138   */\n      tag_92\n      jump\t// in\n    tag_150:\n        /* \"#utility.yul\":4075:4138   */\n      swap2\n      pop\n        /* \"#utility.yul\":4031:4148   */\n      pop\n        /* \"#utility.yul\":3826:4155   */\n      swap3\n      swap2\n      pop\n      pop\n      jump\t// out\n        /* \"#utility.yul\":4161:4237   */\n    tag_100:\n        /* \"#utility.yul\":4197:4204   */\n      0x00\n        /* \"#utility.yul\":4226:4231   */\n      dup2\n        /* \"#utility.yul\":4215:4231   */\n      swap1\n      pop\n        /* \"#utility.yul\":4161:4237   */\n      swap2\n      swap1\n      pop\n      jump\t// out\n        /* \"#utility.yul\":4243:4363   */\n    tag_101:\n        /* \"#utility.yul\":4315:4338   */\n      tag_153\n        /* \"#utility.yul\":4332:4337   */\n      dup2\n        /* \"#utility.yul\":4315:4338   */\n      tag_100\n      jump\t// in\n    tag_153:\n        /* \"#utility.yul\":4308:4313   */\n      dup2\n        /* \"#utility.yul\":4305:4339   */\n      eq\n        /* \"#utility.yul\":4295:4357   */\n      tag_154\n      jumpi\n        /* \"#utility.yul\":4353:4354   */\n      0x00\n        /* \"#utility.yul\":4350:4351   */\n      0x00\n        /* \"#utility.yul\":4343:4355   */\n      revert\n        /* \"#utility.yul\":4295:4357   */\n    tag_154:\n        /* \"#utility.yul\":4243:4363   */\n      pop\n      jump\t// out\n        /* \"#utility.yul\":4369:4506   */\n    tag_102:\n        /* \"#utility.yul\":4414:4419   */\n      0x00\n        /* \"#utility.yul\":4452:4458   */\n      dup2\n        /* \"#utility.yul\":4439:4459   */\n      calldataload\n        /* \"#utility.yul\":4430:4459   */\n      swap1\n      pop\n        /* \"#utility.yul\":4468:4500   */\n      tag_156\n        /* \"#utility.yul\":4494:4499   */\n      dup2\n        /* \"#utility.yul\":4468:4500   */\n      tag_101\n      jump\t// in\n    tag_156:\n        /* \"#utility.yul\":4369:4506   */\n      swap3\n      swap2\n      pop\n      pop\n      jump\t// out\n        /* \"#utility.yul\":4512:4984   */\n    tag_27:\n        /* \"#utility.yul\":4579:4585   */\n      0x00\n        /* \"#utility.yul\":4587:4593   */\n      0x00\n        /* \"#utility.yul\":4636:4638   */\n      0x40\n        /* \"#utility.yul\":4624:4633   */\n      dup4\n        /* \"#utility.yul\":4615:4622   */\n      dup6\n        /* \"#utility.yul\":4611:4634   */\n      sub\n        /* \"#utility.yul\":4607:4639   */\n      slt\n        /* \"#utility.yul\":4604:4723   */\n      iszero\n      tag_158\n      jumpi\n        /* \"#utility.yul\":4642:4721   */\n      tag_159\n      tag_89\n      jump\t// in\n    tag_159:\n        /* \"#utility.yul\":4604:4723   */\n    tag_158:\n        /* \"#utility.yul\":4762:4763   */\n      0x00\n        /* \"#utility.yul\":4787:4840   */\n      tag_160\n        /* \"#utility.yul\":4832:4839   */\n      dup6\n        /* \"#utility.yul\":4823:4829   */\n      dup3\n        /* \"#utility.yul\":4812:4821   */\n      dup7\n        /* \"#utility.yul\":4808:4830   */\n      add\n        /* \"#utility.yul\":4787:4840   */\n      tag_92\n      jump\t// in\n    tag_160:\n        /* \"#utility.yul\":4777:4840   */\n      swap3\n      pop\n        /* \"#utility.yul\":4733:4850   */\n      pop\n        /* \"#utility.yul\":4889:4891   */\n      0x20\n        /* \"#utility.yul\":4915:4967   */\n      tag_161\n        /* \"#utility.yul\":4959:4966   */\n      dup6\n        /* \"#utility.yul\":4950:4956   */\n      dup3\n        /* \"#utility.yul\":4939:4948   */\n      dup7\n        /* \"#utility.yul\":4935:4957   */\n      add\n        /* \"#utility.yul\":4915:4967   */\n      tag_102\n      jump\t// in\n    tag_161:\n        /* \"#utility.yul\":4905:4967   */\n      swap2\n      pop\n        /* \"#utility.yul\":4860:4977   */\n      pop\n        /* \"#utility.yul\":4512:4984   */\n      swap3\n      pop\n      swap3\n      swap1\n      pop\n      jump\t// out\n        /* \"#utility.yul\":4990:5159   */\n    tag_103:\n        /* \"#utility.yul\":5074:5085   */\n      0x00\n        /* \"#utility.yul\":5108:5114   */\n      dup3\n        /* \"#utility.yul\":5103:5106   */\n      dup3\n        /* \"#utility.yul\":5096:5115   */\n      mstore\n        /* \"#utility.yul\":5148:5152   */\n      0x20\n        /* \"#utility.yul\":5143:5146   */\n      dup3\n        /* \"#utility.yul\":5139:5153   */\n      add\n        /* \"#utility.yul\":5124:5153   */\n      swap1\n      pop\n        /* \"#utility.yul\":4990:5159   */\n      swap3\n      swap2\n      pop\n      pop\n      jump\t// out\n        /* \"#utility.yul\":5165:5345   */\n    tag_104:\n        /* \"#utility.yul\":5305:5337   */\n      0x43616e6e6f7420706f702066726f6d20616e20656d7074792061727261790000\n        /* \"#utility.yul\":5301:5302   */\n      0x00\n        /* \"#utility.yul\":5293:5299   */\n      dup3\n        /* \"#utility.yul\":5289:5303   */\n      add\n        /* \"#utility.yul\":5282:5338   */\n      mstore\n        /* \"#utility.yul\":5165:5345   */\n      pop\n      jump\t// out\n        /* \"#utility.yul\":5351:5717   */\n    tag_105:\n        /* \"#utility.yul\":5493:5496   */\n      0x00\n        /* \"#utility.yul\":5514:5581   */\n      tag_165\n        /* \"#utility.yul\":5578:5580   */\n      0x1e\n        /* \"#utility.yul\":5573:5576   */\n      dup4\n        /* \"#utility.yul\":5514:5581   */\n      tag_103\n      jump\t// in\n    tag_165:\n        /* \"#utility.yul\":5507:5581   */\n      swap2\n      pop\n        /* \"#utility.yul\":5590:5683   */\n      tag_166\n        /* \"#utility.yul\":5679:5682   */\n      dup3\n        /* \"#utility.yul\":5590:5683   */\n      tag_104\n      jump\t// in\n    tag_166:\n        /* \"#utility.yul\":5708:5710   */\n      0x20\n        /* \"#utility.yul\":5703:5706   */\n      dup3\n        /* \"#utility.yul\":5699:5711   */\n      add\n        /* \"#utility.yul\":5692:5711   */\n      swap1\n      pop\n        /* \"#utility.yul\":5351:5717   */\n      swap2\n      swap1\n      pop\n      jump\t// out\n        /* \"#utility.yul\":5723:6142   */\n    tag_36:\n        /* \"#utility.yul\":5889:5893   */\n      0x00\n        /* \"#utility.yul\":5927:5929   */\n      0x20\n        /* \"#utility.yul\":5916:5925   */\n      dup3\n        /* \"#utility.yul\":5912:5930   */\n      add\n        /* \"#utility.yul\":5904:5930   */\n      swap1\n      pop\n        /* \"#utility.yul\":5976:5985   */\n      dup2\n        /* \"#utility.yul\":5970:5974   */\n      dup2\n        /* \"#utility.yul\":5966:5986   */\n      sub\n        /* \"#utility.yul\":5962:5963   */\n      0x00\n        /* \"#utility.yul\":5951:5960   */\n      dup4\n        /* \"#utility.yul\":5947:5964   */\n      add\n        /* \"#utility.yul\":5940:5987   */\n      mstore\n        /* \"#utility.yul\":6004:6135   */\n      tag_168\n        /* \"#utility.yul\":6130:6134   */\n      dup2\n        /* \"#utility.yul\":6004:6135   */\n      tag_105\n      jump\t// in\n    tag_168:\n        /* \"#utility.yul\":5996:6135   */\n      swap1\n      pop\n        /* \"#utility.yul\":5723:6142   */\n      swap2\n      swap1\n      pop\n      jump\t// out\n        /* \"#utility.yul\":6148:6328   */\n    tag_106:\n        /* \"#utility.yul\":6196:6273   */\n      0x4e487b7100000000000000000000000000000000000000000000000000000000\n        /* \"#utility.yul\":6193:6194   */\n      0x00\n        /* \"#utility.yul\":6186:6274   */\n      mstore\n        /* \"#utility.yul\":6293:6297   */\n      0x11\n        /* \"#utility.yul\":6290:6291   */\n      0x04\n        /* \"#utility.yul\":6283:6298   */\n      mstore\n        /* \"#utility.yul\":6317:6321   */\n      0x24\n        /* \"#utility.yul\":6314:6315   */\n      0x00\n        /* \"#utility.yul\":6307:6322   */\n      revert\n        /* \"#utility.yul\":6334:6528   */\n    tag_38:\n        /* \"#utility.yul\":6374:6378   */\n      0x00\n        /* \"#utility.yul\":6394:6414   */\n      tag_171\n        /* \"#utility.yul\":6412:6413   */\n      dup3\n        /* \"#utility.yul\":6394:6414   */\n      tag_86\n      jump\t// in\n    tag_171:\n        /* \"#utility.yul\":6389:6414   */\n      swap2\n      pop\n        /* \"#utility.yul\":6428:6448   */\n      tag_172\n        /* \"#utility.yul\":6446:6447   */\n      dup4\n        /* \"#utility.yul\":6428:6448   */\n      tag_86\n      jump\t// in\n    tag_172:\n        /* \"#utility.yul\":6423:6448   */\n      swap3\n      pop\n        /* \"#utility.yul\":6472:6473   */\n      dup3\n        /* \"#utility.yul\":6469:6470   */\n      dup3\n        /* \"#utility.yul\":6465:6474   */\n      sub\n        /* \"#utility.yul\":6457:6474   */\n      swap1\n      pop\n        /* \"#utility.yul\":6496:6497   */\n      dup2\n        /* \"#utility.yul\":6490:6494   */\n      dup2\n        /* \"#utility.yul\":6487:6498   */\n      gt\n        /* \"#utility.yul\":6484:6521   */\n      iszero\n      tag_173\n      jumpi\n        /* \"#utility.yul\":6501:6519   */\n      tag_174\n      tag_106\n      jump\t// in\n    tag_174:\n        /* \"#utility.yul\":6484:6521   */\n    tag_173:\n        /* \"#utility.yul\":6334:6528   */\n      swap3\n      swap2\n      pop\n      pop\n      jump\t// out\n        /* \"#utility.yul\":6534:6714   */\n    tag_41:\n        /* \"#utility.yul\":6582:6659   */\n      0x4e487b7100000000000000000000000000000000000000000000000000000000\n        /* \"#utility.yul\":6579:6580   */\n      0x00\n        /* \"#utility.yul\":6572:6660   */\n      mstore\n        /* \"#utility.yul\":6679:6683   */\n      0x32\n        /* \"#utility.yul\":6676:6677   */\n      0x04\n        /* \"#utility.yul\":6669:6684   */\n      mstore\n        /* \"#utility.yul\":6703:6707   */\n      0x24\n        /* \"#utility.yul\":6700:6701   */\n      0x00\n        /* \"#utility.yul\":6693:6708   */\n      revert\n        /* \"#utility.yul\":6720:6900   */\n    tag_45:\n        /* \"#utility.yul\":6768:6845   */\n      0x4e487b7100000000000000000000000000000000000000000000000000000000\n        /* \"#utility.yul\":6765:6766   */\n      0x00\n        /* \"#utility.yul\":6758:6846   */\n      mstore\n        /* \"#utility.yul\":6865:6869   */\n      0x31\n        /* \"#utility.yul\":6862:6863   */\n      0x04\n        /* \"#utility.yul\":6855:6870   */\n      mstore\n        /* \"#utility.yul\":6889:6893   */\n      0x24\n        /* \"#utility.yul\":6886:6887   */\n      0x00\n        /* \"#utility.yul\":6879:6894   */\n      revert\n        /* \"#utility.yul\":6906:7086   */\n    tag_50:\n        /* \"#utility.yul\":6954:7031   */\n      0x4e487b7100000000000000000000000000000000000000000000000000000000\n        /* \"#utility.yul\":6951:6952   */\n      0x00\n        /* \"#utility.yul\":6944:7032   */\n      mstore\n        /* \"#utility.yul\":7051:7055   */\n      0x41\n        /* \"#utility.yul\":7048:7049   */\n      0x04\n        /* \"#utility.yul\":7041:7056   */\n      mstore\n        /* \"#utility.yul\":7075:7079   */\n      0x24\n        /* \"#utility.yul\":7072:7073   */\n      0x00\n        /* \"#utility.yul\":7065:7080   */\n      revert\n        /* \"#utility.yul\":7092:7467   */\n    tag_77:\n        /* \"#utility.yul\":7131:7134   */\n      0x00\n        /* \"#utility.yul\":7150:7169   */\n      tag_179\n        /* \"#utility.yul\":7167:7168   */\n      dup3\n        /* \"#utility.yul\":7150:7169   */\n      tag_100\n      jump\t// in\n    tag_179:\n        /* \"#utility.yul\":7145:7169   */\n      swap2\n      pop\n        /* \"#utility.yul\":7183:7202   */\n      tag_180\n        /* \"#utility.yul\":7200:7201   */\n      dup4\n        /* \"#utility.yul\":7183:7202   */\n      tag_100\n      jump\t// in\n    tag_180:\n        /* \"#utility.yul\":7178:7202   */\n      swap3\n      pop\n        /* \"#utility.yul\":7225:7226   */\n      dup3\n        /* \"#utility.yul\":7222:7223   */\n      dup3\n        /* \"#utility.yul\":7218:7227   */\n      add\n        /* \"#utility.yul\":7211:7227   */\n      swap1\n      pop\n        /* \"#utility.yul\":7423:7424   */\n      dup3\n        /* \"#utility.yul\":7418:7421   */\n      dup2\n        /* \"#utility.yul\":7414:7425   */\n      slt\n        /* \"#utility.yul\":7407:7426   */\n      iszero\n        /* \"#utility.yul\":7403:7404   */\n      0x00\n        /* \"#utility.yul\":7400:7401   */\n      dup4\n        /* \"#utility.yul\":7396:7405   */\n      slt\n        /* \"#utility.yul\":7392:7427   */\n      and\n        /* \"#utility.yul\":7375:7376   */\n      dup4\n        /* \"#utility.yul\":7370:7373   */\n      dup3\n        /* \"#utility.yul\":7366:7377   */\n      slt\n        /* \"#utility.yul\":7361:7362   */\n      0x00\n        /* \"#utility.yul\":7358:7359   */\n      dup5\n        /* \"#utility.yul\":7354:7363   */\n      slt\n        /* \"#utility.yul\":7347:7364   */\n      iszero\n        /* \"#utility.yul\":7343:7378   */\n      and\n        /* \"#utility.yul\":7327:7437   */\n      or\n        /* \"#utility.yul\":7324:7460   */\n      iszero\n      tag_181\n      jumpi\n        /* \"#utility.yul\":7440:7458   */\n      tag_182\n      tag_106\n      jump\t// in\n    tag_182:\n        /* \"#utility.yul\":7324:7460   */\n    tag_181:\n        /* \"#utility.yul\":7092:7467   */\n      swap3\n      swap2\n      pop\n      pop\n      jump\t// out\n\n    auxdata: 0xa26469706673582212204e5b53c25ea5711137adc7fe09266fb48a82c6de14e369ab8f67bbe544b7416264736f6c634300081e0033\n}\n",
				"bytecode": {
					"linkReferences": {},
					"object": "6080604052348015600e575f5ffd5b506107d58061001c5f395ff3fe608060405234801561000f575f5ffd5b5060043610610060575f3560e01c80631abe2ac214610064578063294323141461008257806364529db5146100b2578063e1819ff9146100bc578063f74e51ea146100d8578063fb8cbced14610108575b5f5ffd5b61006c610126565b60405161007991906103e1565b60405180910390f35b61009c60048036038101906100979190610428565b6101c7565b6040516100a99190610543565b60405180910390f35b6100ba6102f0565b005b6100d660048036038101906100d19190610563565b6102fe565b005b6100f260048036038101906100ed91906105c1565b610326565b6040516100ff91906103e1565b60405180910390f35b61011061033b565b60405161011d9190610543565b60405180910390f35b5f5f5f805490501161016d576040517f08c379a000000000000000000000000000000000000000000000000000000000815260040161016490610659565b60405180910390fd5b5f5f60015f8054905061018091906106a4565b81548110610191576101906106d7565b5b905f5260205f20015490505f8054806101ad576101ac610704565b5b600190038181905f5260205f20015f905590558091505090565b60605f600367ffffffffffffffff8111156101e5576101e4610731565b5b6040519080825280602002602001820160405280156102135781602001602082028036833780820191505090505b50905084861161022e57858561022991906106a4565b61023b565b848661023a91906106a4565b5b815f8151811061024e5761024d6106d7565b5b60200260200101818152505083851161027257848461026d91906106a4565b61027f565b838561027e91906106a4565b5b81600181518110610293576102926106d7565b5b6020026020010181815250508284116102b75783836102b291906106a4565b6102c4565b82846102c391906106a4565b5b816002815181106102d8576102d76106d7565b5b60200260200101818152505080915050949350505050565b5f5f6102fc9190610390565b565b5f81908060018154018082558091505060019003905f5260205f20015f909190919091505550565b5f8183610333919061075e565b905092915050565b60605f80548060200260200160405190810160405280929190818152602001828054801561038657602002820191905f5260205f20905b815481526020019060010190808311610372575b5050505050905090565b5080545f8255905f5260205f20908101906103ab91906103ae565b50565b5b808211156103c5575f815f9055506001016103af565b5090565b5f819050919050565b6103db816103c9565b82525050565b5f6020820190506103f45f8301846103d2565b92915050565b5f5ffd5b610407816103c9565b8114610411575f5ffd5b50565b5f81359050610422816103fe565b92915050565b5f5f5f5f608085870312156104405761043f6103fa565b5b5f61044d87828801610414565b945050602061045e87828801610414565b935050604061046f87828801610414565b925050606061048087828801610414565b91505092959194509250565b5f81519050919050565b5f82825260208201905092915050565b5f819050602082019050919050565b6104be816103c9565b82525050565b5f6104cf83836104b5565b60208301905092915050565b5f602082019050919050565b5f6104f18261048c565b6104fb8185610496565b9350610506836104a6565b805f5b8381101561053657815161051d88826104c4565b9750610528836104db565b925050600181019050610509565b5085935050505092915050565b5f6020820190508181035f83015261055b81846104e7565b905092915050565b5f60208284031215610578576105776103fa565b5b5f61058584828501610414565b91505092915050565b5f819050919050565b6105a08161058e565b81146105aa575f5ffd5b50565b5f813590506105bb81610597565b92915050565b5f5f604083850312156105d7576105d66103fa565b5b5f6105e485828601610414565b92505060206105f5858286016105ad565b9150509250929050565b5f82825260208201905092915050565b7f43616e6e6f7420706f702066726f6d20616e20656d70747920617272617900005f82015250565b5f610643601e836105ff565b915061064e8261060f565b602082019050919050565b5f6020820190508181035f83015261067081610637565b9050919050565b7f4e487b71000000000000000000000000000000000000000000000000000000005f52601160045260245ffd5b5f6106ae826103c9565b91506106b9836103c9565b92508282039050818111156106d1576106d0610677565b5b92915050565b7f4e487b71000000000000000000000000000000000000000000000000000000005f52603260045260245ffd5b7f4e487b71000000000000000000000000000000000000000000000000000000005f52603160045260245ffd5b7f4e487b71000000000000000000000000000000000000000000000000000000005f52604160045260245ffd5b5f6107688261058e565b91506107738361058e565b92508282019050828112155f8312168382125f84121516171561079957610798610677565b5b9291505056fea26469706673582212204e5b53c25ea5711137adc7fe09266fb48a82c6de14e369ab8f67bbe544b7416264736f6c634300081e0033",
					"opcodes": "PUSH1 0x80 PUSH1 0x40 MSTORE CALLVALUE DUP1 ISZERO PUSH1 0xE JUMPI PUSH0 PUSH0 REVERT JUMPDEST POP PUSH2 0x7D5 DUP1 PUSH2 0x1C PUSH0 CODECOPY PUSH0 RETURN INVALID PUSH1 0x80 PUSH1 0x40 MSTORE CALLVALUE DUP1 ISZERO PUSH2 0xF JUMPI PUSH0 PUSH0 REVERT JUMPDEST POP PUSH1 0x4 CALLDATASIZE LT PUSH2 0x60 JUMPI PUSH0 CALLDATALOAD PUSH1 0xE0 SHR DUP1 PUSH4 0x1ABE2AC2 EQ PUSH2 0x64 JUMPI DUP1 PUSH4 0x29432314 EQ PUSH2 0x82 JUMPI DUP1 PUSH4 0x64529DB5 EQ PUSH2 0xB2 JUMPI DUP1 PUSH4 0xE1819FF9 EQ PUSH2 0xBC JUMPI DUP1 PUSH4 0xF74E51EA EQ PUSH2 0xD8 JUMPI DUP1 PUSH4 0xFB8CBCED EQ PUSH2 0x108 JUMPI JUMPDEST PUSH0 PUSH0 REVERT JUMPDEST PUSH2 0x6C PUSH2 0x126 JUMP JUMPDEST PUSH1 0x40 MLOAD PUSH2 0x79 SWAP2 SWAP1 PUSH2 0x3E1 JUMP JUMPDEST PUSH1 0x40 MLOAD DUP1 SWAP2 SUB SWAP1 RETURN JUMPDEST PUSH2 0x9C PUSH1 0x4 DUP1 CALLDATASIZE SUB DUP2 ADD SWAP1 PUSH2 0x97 SWAP2 SWAP1 PUSH2 0x428 JUMP JUMPDEST PUSH2 0x1C7 JUMP JUMPDEST PUSH1 0x40 MLOAD PUSH2 0xA9 SWAP2 SWAP1 PUSH2 0x543 JUMP JUMPDEST PUSH1 0x40 MLOAD DUP1 SWAP2 SUB SWAP1 RETURN JUMPDEST PUSH2 0xBA PUSH2 0x2F0 JUMP JUMPDEST STOP JUMPDEST PUSH2 0xD6 PUSH1 0x4 DUP1 CALLDATASIZE SUB DUP2 ADD SWAP1 PUSH2 0xD1 SWAP2 SWAP1 PUSH2 0x563 JUMP JUMPDEST PUSH2 0x2FE JUMP JUMPDEST STOP JUMPDEST PUSH2 0xF2 PUSH1 0x4 DUP1 CALLDATASIZE SUB DUP2 ADD SWAP1 PUSH2 0xED SWAP2 SWAP1 PUSH2 0x5C1 JUMP JUMPDEST PUSH2 0x326 JUMP JUMPDEST PUSH1 0x40 MLOAD PUSH2 0xFF SWAP2 SWAP1 PUSH2 0x3E1 JUMP JUMPDEST PUSH1 0x40 MLOAD DUP1 SWAP2 SUB SWAP1 RETURN JUMPDEST PUSH2 0x110 PUSH2 0x33B JUMP JUMPDEST PUSH1 0x40 MLOAD PUSH2 0x11D SWAP2 SWAP1 PUSH2 0x543 JUMP JUMPDEST PUSH1 0x40 MLOAD DUP1 SWAP2 SUB SWAP1 RETURN JUMPDEST PUSH0 PUSH0 PUSH0 DUP1 SLOAD SWAP1 POP GT PUSH2 0x16D JUMPI PUSH1 0x40 MLOAD PUSH32 0x8C379A000000000000000000000000000000000000000000000000000000000 DUP2 MSTORE PUSH1 0x4 ADD PUSH2 0x164 SWAP1 PUSH2 0x659 JUMP JUMPDEST PUSH1 0x40 MLOAD DUP1 SWAP2 SUB SWAP1 REVERT JUMPDEST PUSH0 PUSH0 PUSH1 0x1 PUSH0 DUP1 SLOAD SWAP1 POP PUSH2 0x180 SWAP2 SWAP1 PUSH2 0x6A4 JUMP JUMPDEST DUP2 SLOAD DUP2 LT PUSH2 0x191 JUMPI PUSH2 0x190 PUSH2 0x6D7 JUMP JUMPDEST JUMPDEST SWAP1 PUSH0 MSTORE PUSH1 0x20 PUSH0 KECCAK256 ADD SLOAD SWAP1 POP PUSH0 DUP1 SLOAD DUP1 PUSH2 0x1AD JUMPI PUSH2 0x1AC PUSH2 0x704 JUMP JUMPDEST JUMPDEST PUSH1 0x1 SWAP1 SUB DUP2 DUP2 SWAP1 PUSH0 MSTORE PUSH1 0x20 PUSH0 KECCAK256 ADD PUSH0 SWAP1 SSTORE SWAP1 SSTORE DUP1 SWAP2 POP POP SWAP1 JUMP JUMPDEST PUSH1 0x60 PUSH0 PUSH1 0x3 PUSH8 0xFFFFFFFFFFFFFFFF DUP2 GT ISZERO PUSH2 0x1E5 JUMPI PUSH2 0x1E4 PUSH2 0x731 JUMP JUMPDEST JUMPDEST PUSH1 0x40 MLOAD SWAP1 DUP1 DUP3 MSTORE DUP1 PUSH1 0x20 MUL PUSH1 0x20 ADD DUP3 ADD PUSH1 0x40 MSTORE DUP1 ISZERO PUSH2 0x213 JUMPI DUP2 PUSH1 0x20 ADD PUSH1 0x20 DUP3 MUL DUP1 CALLDATASIZE DUP4 CALLDATACOPY DUP1 DUP3 ADD SWAP2 POP POP SWAP1 POP JUMPDEST POP SWAP1 POP DUP5 DUP7 GT PUSH2 0x22E JUMPI DUP6 DUP6 PUSH2 0x229 SWAP2 SWAP1 PUSH2 0x6A4 JUMP JUMPDEST PUSH2 0x23B JUMP JUMPDEST DUP5 DUP7 PUSH2 0x23A SWAP2 SWAP1 PUSH2 0x6A4 JUMP JUMPDEST JUMPDEST DUP2 PUSH0 DUP2 MLOAD DUP2 LT PUSH2 0x24E JUMPI PUSH2 0x24D PUSH2 0x6D7 JUMP JUMPDEST JUMPDEST PUSH1 0x20 MUL PUSH1 0x20 ADD ADD DUP2 DUP2 MSTORE POP POP DUP4 DUP6 GT PUSH2 0x272 JUMPI DUP5 DUP5 PUSH2 0x26D SWAP2 SWAP1 PUSH2 0x6A4 JUMP JUMPDEST PUSH2 0x27F JUMP JUMPDEST DUP4 DUP6 PUSH2 0x27E SWAP2 SWAP1 PUSH2 0x6A4 JUMP JUMPDEST JUMPDEST DUP2 PUSH1 0x1 DUP2 MLOAD DUP2 LT PUSH2 0x293 JUMPI PUSH2 0x292 PUSH2 0x6D7 JUMP JUMPDEST JUMPDEST PUSH1 0x20 MUL PUSH1 0x20 ADD ADD DUP2 DUP2 MSTORE POP POP DUP3 DUP5 GT PUSH2 0x2B7 JUMPI DUP4 DUP4 PUSH2 0x2B2 SWAP2 SWAP1 PUSH2 0x6A4 JUMP JUMPDEST PUSH2 0x2C4 JUMP JUMPDEST DUP3 DUP5 PUSH2 0x2C3 SWAP2 SWAP1 PUSH2 0x6A4 JUMP JUMPDEST JUMPDEST DUP2 PUSH1 0x2 DUP2 MLOAD DUP2 LT PUSH2 0x2D8 JUMPI PUSH2 0x2D7 PUSH2 0x6D7 JUMP JUMPDEST JUMPDEST PUSH1 0x20 MUL PUSH1 0x20 ADD ADD DUP2 DUP2 MSTORE POP POP DUP1 SWAP2 POP POP SWAP5 SWAP4 POP POP POP POP JUMP JUMPDEST PUSH0 PUSH0 PUSH2 0x2FC SWAP2 SWAP1 PUSH2 0x390 JUMP JUMPDEST JUMP JUMPDEST PUSH0 DUP2 SWAP1 DUP1 PUSH1 0x1 DUP2 SLOAD ADD DUP1 DUP3 SSTORE DUP1 SWAP2 POP POP PUSH1 0x1 SWAP1 SUB SWAP1 PUSH0 MSTORE PUSH1 0x20 PUSH0 KECCAK256 ADD PUSH0 SWAP1 SWAP2 SWAP1 SWAP2 SWAP1 SWAP2 POP SSTORE POP JUMP JUMPDEST PUSH0 DUP2 DUP4 PUSH2 0x333 SWAP2 SWAP1 PUSH2 0x75E JUMP JUMPDEST SWAP1 POP SWAP3 SWAP2 POP POP JUMP JUMPDEST PUSH1 0x60 PUSH0 DUP1 SLOAD DUP1 PUSH1 0x20 MUL PUSH1 0x20 ADD PUSH1 0x40 MLOAD SWAP1 DUP2 ADD PUSH1 0x40 MSTORE DUP1 SWAP3 SWAP2 SWAP1 DUP2 DUP2 MSTORE PUSH1 0x20 ADD DUP3 DUP1 SLOAD DUP1 ISZERO PUSH2 0x386 JUMPI PUSH1 0x20 MUL DUP3 ADD SWAP2 SWAP1 PUSH0 MSTORE PUSH1 0x20 PUSH0 KECCAK256 SWAP1 JUMPDEST DUP2 SLOAD DUP2 MSTORE PUSH1 0x20 ADD SWAP1 PUSH1 0x1 ADD SWAP1 DUP1 DUP4 GT PUSH2 0x372 JUMPI JUMPDEST POP POP POP POP POP SWAP1 POP SWAP1 JUMP JUMPDEST POP DUP1 SLOAD PUSH0 DUP3 SSTORE SWAP1 PUSH0 MSTORE PUSH1 0x20 PUSH0 KECCAK256 SWAP1 DUP2 ADD SWAP1 PUSH2 0x3AB SWAP2 SWAP1 PUSH2 0x3AE JUMP JUMPDEST POP JUMP JUMPDEST JUMPDEST DUP1 DUP3 GT ISZERO PUSH2 0x3C5 JUMPI PUSH0 DUP2 PUSH0 SWAP1 SSTORE POP PUSH1 0x1 ADD PUSH2 0x3AF JUMP JUMPDEST POP SWAP1 JUMP JUMPDEST PUSH0 DUP2 SWAP1 POP SWAP2 SWAP1 POP JUMP JUMPDEST PUSH2 0x3DB DUP2 PUSH2 0x3C9 JUMP JUMPDEST DUP3 MSTORE POP POP JUMP JUMPDEST PUSH0 PUSH1 0x20 DUP3 ADD SWAP1 POP PUSH2 0x3F4 PUSH0 DUP4 ADD DUP5 PUSH2 0x3D2 JUMP JUMPDEST SWAP3 SWAP2 POP POP JUMP JUMPDEST PUSH0 PUSH0 REVERT JUMPDEST PUSH2 0x407 DUP2 PUSH2 0x3C9 JUMP JUMPDEST DUP2 EQ PUSH2 0x411 JUMPI PUSH0 PUSH0 REVERT JUMPDEST POP JUMP JUMPDEST PUSH0 DUP2 CALLDATALOAD SWAP1 POP PUSH2 0x422 DUP2 PUSH2 0x3FE JUMP JUMPDEST SWAP3 SWAP2 POP POP JUMP JUMPDEST PUSH0 PUSH0 PUSH0 PUSH0 PUSH1 0x80 DUP6 DUP8 SUB SLT ISZERO PUSH2 0x440 JUMPI PUSH2 0x43F PUSH2 0x3FA JUMP JUMPDEST JUMPDEST PUSH0 PUSH2 0x44D DUP8 DUP3 DUP9 ADD PUSH2 0x414 JUMP JUMPDEST SWAP5 POP POP PUSH1 0x20 PUSH2 0x45E DUP8 DUP3 DUP9 ADD PUSH2 0x414 JUMP JUMPDEST SWAP4 POP POP PUSH1 0x40 PUSH2 0x46F DUP8 DUP3 DUP9 ADD PUSH2 0x414 JUMP JUMPDEST SWAP3 POP POP PUSH1 0x60 PUSH2 0x480 DUP8 DUP3 DUP9 ADD PUSH2 0x414 JUMP JUMPDEST SWAP2 POP POP SWAP3 SWAP6 SWAP2 SWAP5 POP SWAP3 POP JUMP JUMPDEST PUSH0 DUP2 MLOAD SWAP1 POP SWAP2 SWAP1 POP JUMP JUMPDEST PUSH0 DUP3 DUP3 MSTORE PUSH1 0x20 DUP3 ADD SWAP1 POP SWAP3 SWAP2 POP POP JUMP JUMPDEST PUSH0 DUP2 SWAP1 POP PUSH1 0x20 DUP3 ADD SWAP1 POP SWAP2 SWAP1 POP JUMP JUMPDEST PUSH2 0x4BE DUP2 PUSH2 0x3C9 JUMP JUMPDEST DUP3 MSTORE POP POP JUMP JUMPDEST PUSH0 PUSH2 0x4CF DUP4 DUP4 PUSH2 0x4B5 JUMP JUMPDEST PUSH1 0x20 DUP4 ADD SWAP1 POP SWAP3 SWAP2 POP POP JUMP JUMPDEST PUSH0 PUSH1 0x20 DUP3 ADD SWAP1 POP SWAP2 SWAP1 POP JUMP JUMPDEST PUSH0 PUSH2 0x4F1 DUP3 PUSH2 0x48C JUMP JUMPDEST PUSH2 0x4FB DUP2 DUP6 PUSH2 0x496 JUMP JUMPDEST SWAP4 POP PUSH2 0x506 DUP4 PUSH2 0x4A6 JUMP JUMPDEST DUP1 PUSH0 JUMPDEST DUP4 DUP2 LT ISZERO PUSH2 0x536 JUMPI DUP2 MLOAD PUSH2 0x51D DUP9 DUP3 PUSH2 0x4C4 JUMP JUMPDEST SWAP8 POP PUSH2 0x528 DUP4 PUSH2 0x4DB JUMP JUMPDEST SWAP3 POP POP PUSH1 0x1 DUP2 ADD SWAP1 POP PUSH2 0x509 JUMP JUMPDEST POP DUP6 SWAP4 POP POP POP POP SWAP3 SWAP2 POP POP JUMP JUMPDEST PUSH0 PUSH1 0x20 DUP3 ADD SWAP1 POP DUP2 DUP2 SUB PUSH0 DUP4 ADD MSTORE PUSH2 0x55B DUP2 DUP5 PUSH2 0x4E7 JUMP JUMPDEST SWAP1 POP SWAP3 SWAP2 POP POP JUMP JUMPDEST PUSH0 PUSH1 0x20 DUP3 DUP5 SUB SLT ISZERO PUSH2 0x578 JUMPI PUSH2 0x577 PUSH2 0x3FA JUMP JUMPDEST JUMPDEST PUSH0 PUSH2 0x585 DUP5 DUP3 DUP6 ADD PUSH2 0x414 JUMP JUMPDEST SWAP2 POP POP SWAP3 SWAP2 POP POP JUMP JUMPDEST PUSH0 DUP2 SWAP1 POP SWAP2 SWAP1 POP JUMP JUMPDEST PUSH2 0x5A0 DUP2 PUSH2 0x58E JUMP JUMPDEST DUP2 EQ PUSH2 0x5AA JUMPI PUSH0 PUSH0 REVERT JUMPDEST POP JUMP JUMPDEST PUSH0 DUP2 CALLDATALOAD SWAP1 POP PUSH2 0x5BB DUP2 PUSH2 0x597 JUMP JUMPDEST SWAP3 SWAP2 POP POP JUMP JUMPDEST PUSH0 PUSH0 PUSH1 0x40 DUP4 DUP6 SUB SLT ISZERO PUSH2 0x5D7 JUMPI PUSH2 0x5D6 PUSH2 0x3FA JUMP JUMPDEST JUMPDEST PUSH0 PUSH2 0x5E4 DUP6 DUP3 DUP7 ADD PUSH2 0x414 JUMP JUMPDEST SWAP3 POP POP PUSH1 0x20 PUSH2 0x5F5 DUP6 DUP3 DUP7 ADD PUSH2 0x5AD JUMP JUMPDEST SWAP2 POP POP SWAP3 POP SWAP3 SWAP1 POP JUMP JUMPDEST PUSH0 DUP3 DUP3 MSTORE PUSH1 0x20 DUP3 ADD SWAP1 POP SWAP3 SWAP2 POP POP JUMP JUMPDEST PUSH32 0x43616E6E6F7420706F702066726F6D20616E20656D7074792061727261790000 PUSH0 DUP3 ADD MSTORE POP JUMP JUMPDEST PUSH0 PUSH2 0x643 PUSH1 0x1E DUP4 PUSH2 0x5FF JUMP JUMPDEST SWAP2 POP PUSH2 0x64E DUP3 PUSH2 0x60F JUMP JUMPDEST PUSH1 0x20 DUP3 ADD SWAP1 POP SWAP2 SWAP1 POP JUMP JUMPDEST PUSH0 PUSH1 0x20 DUP3 ADD SWAP1 POP DUP2 DUP2 SUB PUSH0 DUP4 ADD MSTORE PUSH2 0x670 DUP2 PUSH2 0x637 JUMP JUMPDEST SWAP1 POP SWAP2 SWAP1 POP JUMP JUMPDEST PUSH32 0x4E487B7100000000000000000000000000000000000000000000000000000000 PUSH0 MSTORE PUSH1 0x11 PUSH1 0x4 MSTORE PUSH1 0x24 PUSH0 REVERT JUMPDEST PUSH0 PUSH2 0x6AE DUP3 PUSH2 0x3C9 JUMP JUMPDEST SWAP2 POP PUSH2 0x6B9 DUP4 PUSH2 0x3C9 JUMP JUMPDEST SWAP3 POP DUP3 DUP3 SUB SWAP1 POP DUP2 DUP2 GT ISZERO PUSH2 0x6D1 JUMPI PUSH2 0x6D0 PUSH2 0x677 JUMP JUMPDEST JUMPDEST SWAP3 SWAP2 POP POP JUMP JUMPDEST PUSH32 0x4E487B7100000000000000000000000000000000000000000000000000000000 PUSH0 MSTORE PUSH1 0x32 PUSH1 0x4 MSTORE PUSH1 0x24 PUSH0 REVERT JUMPDEST PUSH32 0x4E487B7100000000000000000000000000000000000000000000000000000000 PUSH0 MSTORE PUSH1 0x31 PUSH1 0x4 MSTORE PUSH1 0x24 PUSH0 REVERT JUMPDEST PUSH32 0x4E487B7100000000000000000000000000000000000000000000000000000000 PUSH0 MSTORE PUSH1 0x41 PUSH1 0x4 MSTORE PUSH1 0x24 PUSH0 REVERT JUMPDEST PUSH0 PUSH2 0x768 DUP3 PUSH2 0x58E JUMP JUMPDEST SWAP2 POP PUSH2 0x773 DUP4 PUSH2 0x58E JUMP JUMPDEST SWAP3 POP DUP3 DUP3 ADD SWAP1 POP DUP3 DUP2 SLT ISZERO PUSH0 DUP4 SLT AND DUP4 DUP3 SLT PUSH0 DUP5 SLT ISZERO AND OR ISZERO PUSH2 0x799 JUMPI PUSH2 0x798 PUSH2 0x677 JUMP JUMPDEST JUMPDEST SWAP3 SWAP2 POP POP JUMP INVALID LOG2 PUSH5 0x6970667358 0x22 SLT KECCAK256 0x4E JUMPDEST MSTORE8 0xC2 MCOPY 0xA5 PUSH18 0x1137ADC7FE09266FB48A82C6DE14E369AB8F PUSH8 0xBBE544B741626473 PUSH16 0x6C634300081E00330000000000000000 "
				},
				"gasEstimates": {
					"creation": {
						"codeDepositCost": "401000",
						"executionCost": "434",
						"totalCost": "401434"
					},
					"external": {
						"addToArr(uint256)": "46864",
						"applyModifier(uint256,int256)": "infinite",
						"diffWithNeighbor(uint256,uint256,uint256,uint256)": "infinite",
						"getArr()": "infinite",
						"popWithReturn()": "infinite",
						"resetArr()": "infinite"
					}
				},
				"methodIdentifiers": {
					"addToArr(uint256)": "e1819ff9",
					"applyModifier(uint256,int256)": "f74e51ea",
					"diffWithNeighbor(uint256,uint256,uint256,uint256)": "29432314",
					"getArr()": "fb8cbced",
					"popWithReturn()": "1abe2ac2",
					"resetArr()": "64529db5"
				}
			},
			"storageLayout": {
				"storage": [
					{
						"astId": 49,
						"contract": "Role4/ErrorTriagePin.sol:Submission",
						"label": "numbers",
						"offset": 0,
						"slot": "0",
						"type": "t_array(t_uint256)dyn_storage"
					}
				],
				"types": {
					"t_array(t_uint256)dyn_storage": {
						"base": "t_uint256",
						"encoding": "dynamic_array",
						"label": "uint256[]",
						"numberOfBytes": "32"
					},
					"t_uint256": {
						"encoding": "inplace",
						"label": "uint256",
						"numberOfBytes": "32"
					}
				}
			},
			"userdoc": {
				"kind": "user",
				"methods": {},
				"version": 1
			}
		}
	}
}