{
	"Inherite.sol": {
		"EngineeringManager": {
			"abi": [
				{
					"inputs": [],
					"name": "annualSalary",
					"outputs": [
						{
							"internalType": "uint256",
							"name": "",
							"type": "uint256"
						}
					],
					"stateMutability": "pure",
					"type": "function"
				},
				{
					"inputs": [],
					"name": "idNumber",
					"outputs": [
						{
							"internalType": "uint256",
							"name": "",
							"type": "uint256"
						}
					],
					"stateMutability": "pure",
					"type": "function"
				},
				{
					"inputs": [],
					"name": "managerId",
					"outputs": [
						{
							"internalType": "uint256",
							"name": "",
							"type": "uint256"
						}
					],
					"stateMutability": "pure",
					"type": "function"
				}
			],
			"devdoc": {
				"kind": "dev",
				"methods": {},
				"version": 1
			},
			"evm": {
				"assembly": "    /* \"Inherite.sol\":923:1258  contract EngineeringManager is IEngineeringManager {... */\n  mstore(0x40, 0x80)\n  callvalue\n  dup1\n  iszero\n  tag_1\n  jumpi\n  0x00\n  dup1\n  revert\ntag_1:\n  pop\n  dataSize(sub_0)\n  dup1\n  dataOffset(sub_0)\n  0x00\n  codecopy\n  0x00\n  return\nstop\n\nsub_0: assembly {\n        /* \"Inherite.sol\":923:1258  contract EngineeringManager is IEngineeringManager {... */\n      mstore(0x40, 0x80)\n      callvalue\n      dup1\n      iszero\n      tag_1\n      jumpi\n      0x00\n      dup1\n      revert\n    tag_1:\n      pop\n      jumpi(tag_2, lt(calldatasize, 0x04))\n      shr(0xe0, calldataload(0x00))\n      dup1\n      0x3f83ea3b\n      eq\n      tag_3\n      jumpi\n      dup1\n      0x50dca6ab\n      eq\n      tag_4\n      jumpi\n      dup1\n      0xf5895a0a\n      eq\n      tag_5\n      jumpi\n    tag_2:\n      0x00\n      dup1\n      revert\n        /* \"Inherite.sol\":1173:1256  function idNumber() external pure override returns (uint) {... */\n    tag_3:\n      tag_6\n      tag_7\n      jump\t// in\n    tag_6:\n      mload(0x40)\n      tag_8\n      swap2\n      swap1\n      tag_9\n      jump\t// in\n    tag_8:\n      mload(0x40)\n      dup1\n      swap2\n      sub\n      swap1\n      return\n        /* \"Inherite.sol\":980:1073  function annualSalary() external pure override returns (uint) {... */\n    tag_4:\n      tag_10\n      tag_11\n      jump\t// in\n    tag_10:\n      mload(0x40)\n      tag_12\n      swap2\n      swap1\n      tag_9\n      jump\t// in\n    tag_12:\n      mload(0x40)\n      dup1\n      swap2\n      sub\n      swap1\n      return\n        /* \"Inherite.sol\":1079:1167  function managerId() external pure override returns (uint) {... */\n    tag_5:\n      tag_13\n      tag_14\n      jump\t// in\n    tag_13:\n      mload(0x40)\n      tag_15\n      swap2\n      swap1\n      tag_9\n      jump\t// in\n    tag_15:\n      mload(0x40)\n      dup1\n      swap2\n      sub\n      swap1\n      return\n        /* \"Inherite.sol\":1173:1256  function idNumber() external pure override returns (uint) {... */\n    tag_7:\n        /* \"Inherite.sol\":1225:1229  uint */\n      0x00\n        /* \"Inherite.sol\":1173:1256  function idNumber() external pure override returns (uint) {... */\n      swap1\n      jump\t// out\n        /* \"Inherite.sol\":980:1073  function annualSalary() external pure override returns (uint) {... */\n    tag_11:\n        /* \"Inherite.sol\":1036:1040  uint */\n      0x00\n        /* \"Inherite.sol\":1059:1066  200_000 */\n      0x030d40\n        /* \"Inherite.sol\":1052:1066  return 200_000 */\n      swap1\n      pop\n        /* \"Inherite.sol\":980:1073  function annualSalary() external pure override returns (uint) {... */\n      swap1\n      jump\t// out\n        /* \"Inherite.sol\":1079:1167  function managerId() external pure override returns (uint) {... */\n    tag_14:\n        /* \"Inherite.sol\":1132:1136  uint */\n      0x00\n        /* \"Inherite.sol\":1155:1160  11111 */\n      0x2b67\n        /* \"Inherite.sol\":1148:1160  return 11111 */\n      swap1\n      pop\n        /* \"Inherite.sol\":1079:1167  function managerId() external pure override returns (uint) {... */\n      swap1\n      jump\t// out\n        /* \"#utility.yul\":7:84   */\n    tag_19:\n        /* \"#utility.yul\":44:51   */\n      0x00\n        /* \"#utility.yul\":73:78   */\n      dup2\n        /* \"#utility.yul\":62:78   */\n      swap1\n      pop\n        /* \"#utility.yul\":7:84   */\n      swap2\n      swap1\n      pop\n      jump\t// out\n        /* \"#utility.yul\":90:208   */\n    tag_20:\n        /* \"#utility.yul\":177:201   */\n      tag_24\n        /* \"#utility.yul\":195:200   */\n      dup2\n        /* \"#utility.yul\":177:201   */\n      tag_19\n      jump\t// in\n    tag_24:\n        /* \"#utility.yul\":172:175   */\n      dup3\n        /* \"#utility.yul\":165:202   */\n      mstore\n        /* \"#utility.yul\":90:208   */\n      pop\n      pop\n      jump\t// out\n        /* \"#utility.yul\":214:436   */\n    tag_9:\n        /* \"#utility.yul\":307:311   */\n      0x00\n        /* \"#utility.yul\":345:347   */\n      0x20\n        /* \"#utility.yul\":334:343   */\n      dup3\n        /* \"#utility.yul\":330:348   */\n      add\n        /* \"#utility.yul\":322:348   */\n      swap1\n      pop\n        /* \"#utility.yul\":358:429   */\n      tag_26\n        /* \"#utility.yul\":426:427   */\n      0x00\n        /* \"#utility.yul\":415:424   */\n      dup4\n        /* \"#utility.yul\":411:428   */\n      add\n        /* \"#utility.yul\":402:408   */\n      dup5\n        /* \"#utility.yul\":358:429   */\n      tag_20\n      jump\t// in\n    tag_26:\n        /* \"#utility.yul\":214:436   */\n      swap3\n      swap2\n      pop\n      pop\n      jump\t// out\n\n    auxdata: 0xa26469706673582212205862e434d971dac4e521a74dde33440f9a6dcf691818dc5bee33442dbba0e16664736f6c63430008170033\n}\n",
				"bytecode": {
					"linkReferences": {},
					"object": "608060405234801561000f575f80fd5b506101068061001d5f395ff3fe6080604052348015600e575f80fd5b5060043610603a575f3560e01c80633f83ea3b14603e57806350dca6ab146058578063f5895a0a146072575b5f80fd5b6044608c565b604051604f919060b9565b60405180910390f35b605e6090565b6040516069919060b9565b60405180910390f35b6078609a565b6040516083919060b9565b60405180910390f35b5f90565b5f62030d40905090565b5f612b67905090565b5f819050919050565b60b38160a3565b82525050565b5f60208201905060ca5f83018460ac565b9291505056fea26469706673582212205862e434d971dac4e521a74dde33440f9a6dcf691818dc5bee33442dbba0e16664736f6c63430008170033",
					"opcodes": "PUSH1 0x80 PUSH1 0x40 MSTORE CALLVALUE DUP1 ISZERO PUSH2 0xF JUMPI PUSH0 DUP1 REVERT JUMPDEST POP PUSH2 0x106 DUP1 PUSH2 0x1D PUSH0 CODECOPY PUSH0 RETURN INVALID PUSH1 0x80 PUSH1 0x40 MSTORE CALLVALUE DUP1 ISZERO PUSH1 0xE JUMPI PUSH0 DUP1 REVERT JUMPDEST POP PUSH1 0x4 CALLDATASIZE LT PUSH1 0x3A JUMPI PUSH0 CALLDATALOAD PUSH1 0xE0 SHR DUP1 PUSH4 0x3F83EA3B EQ PUSH1 0x3E JUMPI DUP1 PUSH4 0x50DCA6AB EQ PUSH1 0x58 JUMPI DUP1 PUSH4 0xF5895A0A EQ PUSH1 0x72 JUMPI JUMPDEST PUSH0 DUP1 REVERT JUMPDEST PUSH1 0x44 PUSH1 0x8C JUMP JUMPDEST PUSH1 0x40 MLOAD PUSH1 0x4F SWAP2 SWAP1 PUSH1 0xB9 JUMP JUMPDEST PUSH1 0x40 MLOAD DUP1 SWAP2 SUB SWAP1 RETURN JUMPDEST PUSH1 0x5E PUSH1 0x90 JUMP JUMPDEST PUSH1 0x40 MLOAD PUSH1 0x69 SWAP2 SWAP1 PUSH1 0xB9 JUMP JUMPDEST PUSH1 0x40 MLOAD DUP1 SWAP2 SUB SWAP1 RETURN JUMPDEST PUSH1 0x78 PUSH1 0x9A JUMP JUMPDEST PUSH1 0x40 MLOAD PUSH1 0x83 SWAP2 SWAP1 PUSH1 0xB9 JUMP JUMPDEST PUSH1 0x40 MLOAD DUP1 SWAP2 SUB SWAP1 RETURN JUMPDEST PUSH0 SWAP1 JUMP JUMPDEST PUSH0 PUSH3 0x30D40 SWAP1 POP SWAP1 JUMP JUMPDEST PUSH0 PUSH2 0x2B67 SWAP1 POP SWAP1 JUMP JUMPDEST PUSH0 DUP2 SWAP1 POP SWAP2 SWAP1 POP JUMP JUMPDEST PUSH1 0xB3 DUP2 PUSH1 0xA3 JUMP JUMPDEST DUP3 MSTORE POP POP JUMP JUMPDEST PUSH0 PUSH1 0x20 DUP3 ADD SWAP1 POP PUSH1 0xCA PUSH0 DUP4 ADD DUP5 PUSH1 0xAC JUMP JUMPDEST SWAP3 SWAP2 POP POP JUMP INVALID LOG2 PUSH5 0x6970667358 0x22 SLT KECCAK256 PC PUSH3 0xE434D9 PUSH18 0xDAC4E521A74DDE33440F9A6DCF691818DC5B 0xEE CALLER PREVRANDAO 0x2D 0xBB LOG0 0xE1 PUSH7 0x64736F6C634300 ADDMOD OR STOP CALLER "
				},
				"gasEstimates": {
					"creation": {
						"codeDepositCost": "52400",
						"executionCost": "103",
						"totalCost": "52503"
					},
					"external": {
						"annualSalary()": "332",
						"idNumber()": "302",
						"managerId()": "354"
					}
				},
				"methodIdentifiers": {
					"annualSalary()": "50dca6ab",
					"idNumber()": "3f83ea3b",
					"managerId()": "f5895a0a"
				}
			},
			"storageLayout": {
				"storage": [],
				"types": null
			},
			"userdoc": {
				"kind": "user",
				"methods": {},
				"version": 1
			}
		}
	}
}