{
	"Inherite.sol": {
		"InheritanceSubmission": {
			"abi": [
				{
					"inputs": [],
					"stateMutability": "nonpayable",
					"type": "constructor"
				},
				{
					"inputs": [],
					"name": "engineeringManager",
					"outputs": [
						{
							"internalType": "address",
							"name": "",
							"type": "address"
						}
					],
					"stateMutability": "view",
					"type": "function"
				},
				{
					"inputs": [],
					"name": "salesPerson",
					"outputs": [
						{
							"internalType": "address",
							"name": "",
							"type": "address"
						}
					],
					"stateMutability": "view",
					"type": "function"
				}
			],
			"devdoc": {
				"kind": "dev",
				"methods": {},
				"version": 1
			},
			"evm": {
				"assembly": "    /* \"Inherite.sol\":1260:1779  contract InheritanceSubmission is IInheritanceSubmission {... */\n  mstore(0x40, 0x80)\n    /* \"Inherite.sol\":1414:1533  constructor() {... */\n  callvalue\n  dup1\n  iszero\n  tag_1\n  jumpi\n  0x00\n  dup1\n  revert\ntag_1:\n  pop\n    /* \"Inherite.sol\":1453:1470  new SalesPerson() */\n  mload(0x40)\n  tag_4\n  swap1\n  tag_5\n  jump\t// in\ntag_4:\n  mload(0x40)\n  dup1\n  swap2\n  sub\n  swap1\n  0x00\n  create\n  dup1\n  iszero\n  dup1\n  iszero\n  tag_6\n  jumpi\n  returndatasize\n  0x00\n  dup1\n  returndatacopy\n  revert(0x00, returndatasize)\ntag_6:\n  pop\n    /* \"Inherite.sol\":1438:1450  _salesPerson */\n  0x00\n  dup1\n    /* \"Inherite.sol\":1438:1470  _salesPerson = new SalesPerson() */\n  0x0100\n  exp\n  dup2\n  sload\n  dup2\n  0xffffffffffffffffffffffffffffffffffffffff\n  mul\n  not\n  and\n  swap1\n  dup4\n  0xffffffffffffffffffffffffffffffffffffffff\n  and\n  mul\n  or\n  swap1\n  sstore\n  pop\n    /* \"Inherite.sol\":1502:1526  new EngineeringManager() */\n  mload(0x40)\n  tag_7\n  swap1\n  tag_8\n  jump\t// in\ntag_7:\n  mload(0x40)\n  dup1\n  swap2\n  sub\n  swap1\n  0x00\n  create\n  dup1\n  iszero\n  dup1\n  iszero\n  tag_9\n  jumpi\n  returndatasize\n  0x00\n  dup1\n  returndatacopy\n  revert(0x00, returndatasize)\ntag_9:\n  pop\n    /* \"Inherite.sol\":1480:1499  _engineeringManager */\n  0x01\n  0x00\n    /* \"Inherite.sol\":1480:1526  _engineeringManager = new EngineeringManager() */\n  0x0100\n  exp\n  dup2\n  sload\n  dup2\n  0xffffffffffffffffffffffffffffffffffffffff\n  mul\n  not\n  and\n  swap1\n  dup4\n  0xffffffffffffffffffffffffffffffffffffffff\n  and\n  mul\n  or\n  swap1\n  sstore\n  pop\n    /* \"Inherite.sol\":1260:1779  contract InheritanceSubmission is IInheritanceSubmission {... */\n  jump(tag_10)\ntag_5:\n  dataSize(sub_1)\n  dup1\n  dataOffset(sub_1)\n  dup4\n  codecopy\n  add\n  swap1\n  jump\t// out\ntag_8:\n  dataSize(sub_2)\n  dup1\n  dataOffset(sub_2)\n  dup4\n  codecopy\n  add\n  swap1\n  jump\t// out\ntag_10:\n  dataSize(sub_0)\n  dup1\n  dataOffset(sub_0)\n  0x00\n  codecopy\n  0x00\n  return\nstop\n\nsub_0: assembly {\n        /* \"Inherite.sol\":1260:1779  contract InheritanceSubmission is IInheritanceSubmission {... */\n      mstore(0x40, 0x80)\n      callvalue\n      dup1\n      iszero\n      tag_1\n      jumpi\n      0x00\n      dup1\n      revert\n    tag_1:\n      pop\n      jumpi(tag_2, lt(calldatasize, 0x04))\n      shr(0xe0, calldataload(0x00))\n      dup1\n      0x0f628194\n      eq\n      tag_3\n      jumpi\n      dup1\n      0x687981dd\n      eq\n      tag_4\n      jumpi\n    tag_2:\n      0x00\n      dup1\n      revert\n        /* \"Inherite.sol\":1539:1648  function salesPerson() external view override returns (address) {... */\n    tag_3:\n      tag_5\n      tag_6\n      jump\t// in\n    tag_5:\n      mload(0x40)\n      tag_7\n      swap2\n      swap1\n      tag_8\n      jump\t// in\n    tag_7:\n      mload(0x40)\n      dup1\n      swap2\n      sub\n      swap1\n      return\n        /* \"Inherite.sol\":1654:1777  function engineeringManager() external view override returns (address) {... */\n    tag_4:\n      tag_9\n      tag_10\n      jump\t// in\n    tag_9:\n      mload(0x40)\n      tag_11\n      swap2\n      swap1\n      tag_8\n      jump\t// in\n    tag_11:\n      mload(0x40)\n      dup1\n      swap2\n      sub\n      swap1\n      return\n        /* \"Inherite.sol\":1539:1648  function salesPerson() external view override returns (address) {... */\n    tag_6:\n        /* \"Inherite.sol\":1594:1601  address */\n      0x00\n        /* \"Inherite.sol\":1628:1640  _salesPerson */\n      dup1\n      0x00\n      swap1\n      sload\n      swap1\n      0x0100\n      exp\n      swap1\n      div\n      0xffffffffffffffffffffffffffffffffffffffff\n      and\n        /* \"Inherite.sol\":1613:1641  return address(_salesPerson) */\n      swap1\n      pop\n        /* \"Inherite.sol\":1539:1648  function salesPerson() external view override returns (address) {... */\n      swap1\n      jump\t// out\n        /* \"Inherite.sol\":1654:1777  function engineeringManager() external view override returns (address) {... */\n    tag_10:\n        /* \"Inherite.sol\":1716:1723  address */\n      0x00\n        /* \"Inherite.sol\":1750:1769  _engineeringManager */\n      0x01\n      0x00\n      swap1\n      sload\n      swap1\n      0x0100\n      exp\n      swap1\n      div\n      0xffffffffffffffffffffffffffffffffffffffff\n      and\n        /* \"Inherite.sol\":1735:1770  return address(_engineeringManager) */\n      swap1\n      pop\n        /* \"Inherite.sol\":1654:1777  function engineeringManager() external view override returns (address) {... */\n      swap1\n      jump\t// out\n        /* \"#utility.yul\":7:133   */\n    tag_14:\n        /* \"#utility.yul\":44:51   */\n      0x00\n        /* \"#utility.yul\":84:126   */\n      0xffffffffffffffffffffffffffffffffffffffff\n        /* \"#utility.yul\":77:82   */\n      dup3\n        /* \"#utility.yul\":73:127   */\n      and\n        /* \"#utility.yul\":62:127   */\n      swap1\n      pop\n        /* \"#utility.yul\":7:133   */\n      swap2\n      swap1\n      pop\n      jump\t// out\n        /* \"#utility.yul\":139:235   */\n    tag_15:\n        /* \"#utility.yul\":176:183   */\n      0x00\n        /* \"#utility.yul\":205:229   */\n      tag_20\n        /* \"#utility.yul\":223:228   */\n      dup3\n        /* \"#utility.yul\":205:229   */\n      tag_14\n      jump\t// in\n    tag_20:\n        /* \"#utility.yul\":194:229   */\n      swap1\n      pop\n        /* \"#utility.yul\":139:235   */\n      swap2\n      swap1\n      pop\n      jump\t// out\n        /* \"#utility.yul\":241:359   */\n    tag_16:\n        /* \"#utility.yul\":328:352   */\n      tag_22\n        /* \"#utility.yul\":346:351   */\n      dup2\n        /* \"#utility.yul\":328:352   */\n      tag_15\n      jump\t// in\n    tag_22:\n        /* \"#utility.yul\":323:326   */\n      dup3\n        /* \"#utility.yul\":316:353   */\n      mstore\n        /* \"#utility.yul\":241:359   */\n      pop\n      pop\n      jump\t// out\n        /* \"#utility.yul\":365:587   */\n    tag_8:\n        /* \"#utility.yul\":458:462   */\n      0x00\n        /* \"#utility.yul\":496:498   */\n      0x20\n        /* \"#utility.yul\":485:494   */\n      dup3\n        /* \"#utility.yul\":481:499   */\n      add\n        /* \"#utility.yul\":473:499   */\n      swap1\n      pop\n        /* \"#utility.yul\":509:580   */\n      tag_24\n        /* \"#utility.yul\":577:578   */\n      0x00\n        /* \"#utility.yul\":566:575   */\n      dup4\n        /* \"#utility.yul\":562:579   */\n      add\n        /* \"#utility.yul\":553:559   */\n      dup5\n        /* \"#utility.yul\":509:580   */\n      tag_16\n      jump\t// in\n    tag_24:\n        /* \"#utility.yul\":365:587   */\n      swap3\n      swap2\n      pop\n      pop\n      jump\t// out\n\n    auxdata: 0xa2646970667358221220ee53c948d23e9718068b50090cc1265419433824837be2cf7738f3677debd37d64736f6c63430008170033\n}\n\nsub_1: assembly {\n        /* \"Inherite.sol\":607:921  contract SalesPerson is ISalesPerson {... */\n      mstore(0x40, 0x80)\n      callvalue\n      dup1\n      iszero\n      tag_1\n      jumpi\n      0x00\n      dup1\n      revert\n    tag_1:\n      pop\n      dataSize(sub_0)\n      dup1\n      dataOffset(sub_0)\n      0x00\n      codecopy\n      0x00\n      return\n    stop\n\n    sub_0: assembly {\n            /* \"Inherite.sol\":607:921  contract SalesPerson is ISalesPerson {... */\n          mstore(0x40, 0x80)\n          callvalue\n          dup1\n          iszero\n          tag_1\n          jumpi\n          0x00\n          dup1\n          revert\n        tag_1:\n          pop\n          jumpi(tag_2, lt(calldatasize, 0x04))\n          shr(0xe0, calldataload(0x00))\n          dup1\n          0x3f83ea3b\n          eq\n          tag_3\n          jumpi\n          dup1\n          0x59a7b3fe\n          eq\n          tag_4\n          jumpi\n          dup1\n          0xf5895a0a\n          eq\n          tag_5\n          jumpi\n        tag_2:\n          0x00\n          dup1\n          revert\n            /* \"Inherite.sol\":742:829  function idNumber() external pure override returns (uint) {... */\n        tag_3:\n          tag_6\n          tag_7\n          jump\t// in\n        tag_6:\n          mload(0x40)\n          tag_8\n          swap2\n          swap1\n          tag_9\n          jump\t// in\n        tag_8:\n          mload(0x40)\n          dup1\n          swap2\n          sub\n          swap1\n          return\n            /* \"Inherite.sol\":650:736  function hourlyRate() external pure override returns (uint) {... */\n        tag_4:\n          tag_10\n          tag_11\n          jump\t// in\n        tag_10:\n          mload(0x40)\n          tag_12\n          swap2\n          swap1\n          tag_9\n          jump\t// in\n        tag_12:\n          mload(0x40)\n          dup1\n          swap2\n          sub\n          swap1\n          return\n            /* \"Inherite.sol\":835:919  function managerId() external pure override returns (uint) {... */\n        tag_5:\n          tag_13\n          tag_14\n          jump\t// in\n        tag_13:\n          mload(0x40)\n          tag_15\n          swap2\n          swap1\n          tag_9\n          jump\t// in\n        tag_15:\n          mload(0x40)\n          dup1\n          swap2\n          sub\n          swap1\n          return\n            /* \"Inherite.sol\":742:829  function idNumber() external pure override returns (uint) {... */\n        tag_7:\n            /* \"Inherite.sol\":794:798  uint */\n          0x00\n            /* \"Inherite.sol\":817:822  55555 */\n          0xd903\n            /* \"Inherite.sol\":810:822  return 55555 */\n          swap1\n          pop\n            /* \"Inherite.sol\":742:829  function idNumber() external pure override returns (uint) {... */\n          swap1\n          jump\t// out\n            /* \"Inherite.sol\":650:736  function hourlyRate() external pure override returns (uint) {... */\n        tag_11:\n            /* \"Inherite.sol\":704:708  uint */\n          0x00\n            /* \"Inherite.sol\":727:729  20 */\n          0x14\n            /* \"Inherite.sol\":720:729  return 20 */\n          swap1\n          pop\n            /* \"Inherite.sol\":650:736  function hourlyRate() external pure override returns (uint) {... */\n          swap1\n          jump\t// out\n            /* \"Inherite.sol\":835:919  function managerId() external pure override returns (uint) {... */\n        tag_14:\n            /* \"Inherite.sol\":888:892  uint */\n          0x00\n            /* \"Inherite.sol\":835:919  function managerId() external pure override returns (uint) {... */\n          swap1\n          jump\t// out\n            /* \"#utility.yul\":7:84   */\n        tag_19:\n            /* \"#utility.yul\":44:51   */\n          0x00\n            /* \"#utility.yul\":73:78   */\n          dup2\n            /* \"#utility.yul\":62:78   */\n          swap1\n          pop\n            /* \"#utility.yul\":7:84   */\n          swap2\n          swap1\n          pop\n          jump\t// out\n            /* \"#utility.yul\":90:208   */\n        tag_20:\n            /* \"#utility.yul\":177:201   */\n          tag_24\n            /* \"#utility.yul\":195:200   */\n          dup2\n            /* \"#utility.yul\":177:201   */\n          tag_19\n          jump\t// in\n        tag_24:\n            /* \"#utility.yul\":172:175   */\n          dup3\n            /* \"#utility.yul\":165:202   */\n          mstore\n            /* \"#utility.yul\":90:208   */\n          pop\n          pop\n          jump\t// out\n            /* \"#utility.yul\":214:436   */\n        tag_9:\n            /* \"#utility.yul\":307:311   */\n          0x00\n            /* \"#utility.yul\":345:347   */\n          0x20\n            /* \"#utility.yul\":334:343   */\n          dup3\n            /* \"#utility.yul\":330:348   */\n          add\n            /* \"#utility.yul\":322:348   */\n          swap1\n          pop\n            /* \"#utility.yul\":358:429   */\n          tag_26\n            /* \"#utility.yul\":426:427   */\n          0x00\n            /* \"#utility.yul\":415:424   */\n          dup4\n            /* \"#utility.yul\":411:428   */\n          add\n            /* \"#utility.yul\":402:408   */\n          dup5\n            /* \"#utility.yul\":358:429   */\n          tag_20\n          jump\t// in\n        tag_26:\n            /* \"#utility.yul\":214:436   */\n          swap3\n          swap2\n          pop\n          pop\n          jump\t// out\n\n        auxdata: 0xa26469706673582212201ea62e9e858574e36d1d174586412e9a09954056db027b8344d84676ca9e1fe364736f6c63430008170033\n    }\n}\n\nsub_2: assembly {\n        /* \"Inherite.sol\":923:1258  contract EngineeringManager is IEngineeringManager {... */\n      mstore(0x40, 0x80)\n      callvalue\n      dup1\n      iszero\n      tag_1\n      jumpi\n      0x00\n      dup1\n      revert\n    tag_1:\n      pop\n      dataSize(sub_0)\n      dup1\n      dataOffset(sub_0)\n      0x00\n      codecopy\n      0x00\n      return\n    stop\n\n    sub_0: assembly {\n            /* \"Inherite.sol\":923:1258  contract EngineeringManager is IEngineeringManager {... */\n          mstore(0x40, 0x80)\n          callvalue\n          dup1\n          iszero\n          tag_1\n          jumpi\n          0x00\n          dup1\n          revert\n        tag_1:\n          pop\n          jumpi(tag_2, lt(calldatasize, 0x04))\n          shr(0xe0, calldataload(0x00))\n          dup1\n          0x3f83ea3b\n          eq\n          tag_3\n          jumpi\n          dup1\n          0x50dca6ab\n          eq\n          tag_4\n          jumpi\n          dup1\n          0xf5895a0a\n          eq\n          tag_5\n          jumpi\n        tag_2:\n          0x00\n          dup1\n          revert\n            /* \"Inherite.sol\":1173:1256  function idNumber() external pure override returns (uint) {... */\n        tag_3:\n          tag_6\n          tag_7\n          jump\t// in\n        tag_6:\n          mload(0x40)\n          tag_8\n          swap2\n          swap1\n          tag_9\n          jump\t// in\n        tag_8:\n          mload(0x40)\n          dup1\n          swap2\n          sub\n          swap1\n          return\n            /* \"Inherite.sol\":980:1073  function annualSalary() external pure override returns (uint) {... */\n        tag_4:\n          tag_10\n          tag_11\n          jump\t// in\n        tag_10:\n          mload(0x40)\n          tag_12\n          swap2\n          swap1\n          tag_9\n          jump\t// in\n        tag_12:\n          mload(0x40)\n          dup1\n          swap2\n          sub\n          swap1\n          return\n            /* \"Inherite.sol\":1079:1167  function managerId() external pure override returns (uint) {... */\n        tag_5:\n          tag_13\n          tag_14\n          jump\t// in\n        tag_13:\n          mload(0x40)\n          tag_15\n          swap2\n          swap1\n          tag_9\n          jump\t// in\n        tag_15:\n          mload(0x40)\n          dup1\n          swap2\n          sub\n          swap1\n          return\n            /* \"Inherite.sol\":1173:1256  function idNumber() external pure override returns (uint) {... */\n        tag_7:\n            /* \"Inherite.sol\":1225:1229  uint */\n          0x00\n            /* \"Inherite.sol\":1173:1256  function idNumber() external pure override returns (uint) {... */\n          swap1\n          jump\t// out\n            /* \"Inherite.sol\":980:1073  function annualSalary() external pure override returns (uint) {... */\n        tag_11:\n            /* \"Inherite.sol\":1036:1040  uint */\n          0x00\n            /* \"Inherite.sol\":1059:1066  200_000 */\n          0x030d40\n            /* \"Inherite.sol\":1052:1066  return 200_000 */\n          swap1\n          pop\n            /* \"Inherite.sol\":980:1073  function annualSalary() external pure override returns (uint) {... */\n          swap1\n          jump\t// out\n            /* \"Inherite.sol\":1079:1167  function managerId() external pure override returns (uint) {... */\n        tag_14:\n            /* \"Inherite.sol\":1132:1136  uint */\n          0x00\n            /* \"Inherite.sol\":1155:1160  11111 */\n          0x2b67\n            /* \"Inherite.sol\":1148:1160  return 11111 */\n          swap1\n          pop\n            /* \"Inherite.sol\":1079:1167  function managerId() external pure override returns (uint) {... */\n          swap1\n          jump\t// out\n            /* \"#utility.yul\":7:84   */\n        tag_19:\n            /* \"#utility.yul\":44:51   */\n          0x00\n            /* \"#utility.yul\":73:78   */\n          dup2\n            /* \"#utility.yul\":62:78   */\n          swap1\n          pop\n            /* \"#utility.yul\":7:84   */\n          swap2\n          swap1\n          pop\n          jump\t// out\n            /* \"#utility.yul\":90:208   */\n        tag_20:\n            /* \"#utility.yul\":177:201   */\n          tag_24\n            /* \"#utility.yul\":195:200   */\n          dup2\n            /* \"#utility.yul\":177:201   */\n          tag_19\n          jump\t// in\n        tag_24:\n            /* \"#utility.yul\":172:175   */\n          dup3\n            /* \"#utility.yul\":165:202   */\n          mstore\n            /* \"#utility.yul\":90:208   */\n          pop\n          pop\n          jump\t// out\n            /* \"#utility.yul\":214:436   */\n        tag_9:\n            /* \"#utility.yul\":307:311   */\n          0x00\n            /* \"#utility.yul\":345:347   */\n          0x20\n            /* \"#utility.yul\":334:343   */\n          dup3\n            /* \"#utility.yul\":330:348   */\n          add\n            /* \"#utility.yul\":322:348   */\n          swap1\n          pop\n            /* \"#utility.yul\":358:429   */\n          tag_26\n            /* \"#utility.yul\":426:427   */\n          0x00\n            /* \"#utility.yul\":415:424   */\n          dup4\n            /* \"#utility.yul\":411:428   */\n          add\n            /* \"#utility.yul\":402:408   */\n          dup5\n            /* \"#utility.yul\":358:429   */\n          tag_20\n          jump\t// in\n        tag_26:\n            /* \"#utility.yul\":214:436   */\n          swap3\n          swap2\n          pop\n          pop\n          jump\t// out\n\n        auxdata: 0xa26469706673582212205862e434d971dac4e521a74dde33440f9a6dcf691818dc5bee33442dbba0e16664736f6c63430008170033\n    }\n}\n",
				"bytecode": {
					"linkReferences": {},
					"object": "608060405234801561000f575f80fd5b5060405161001c906100de565b604051809103905ff080158015610035573d5f803e3d5ffd5b505f806101000a81548173ffffffffffffffffffffffffffffffffffffffff021916908373ffffffffffffffffffffffffffffffffffffffff160217905550604051610080906100eb565b604051809103905ff080158015610099573d5f803e3d5ffd5b5060015f6101000a81548173ffffffffffffffffffffffffffffffffffffffff021916908373ffffffffffffffffffffffffffffffffffffffff1602179055506100f8565b6101218061025683390190565b6101238061037783390190565b610151806101055f395ff3fe608060405234801561000f575f80fd5b5060043610610034575f3560e01c80630f62819414610038578063687981dd14610056575b5f80fd5b610040610074565b60405161004d9190610102565b60405180910390f35b61005e61009b565b60405161006b9190610102565b60405180910390f35b5f805f9054906101000a900473ffffffffffffffffffffffffffffffffffffffff16905090565b5f60015f9054906101000a900473ffffffffffffffffffffffffffffffffffffffff16905090565b5f73ffffffffffffffffffffffffffffffffffffffff82169050919050565b5f6100ec826100c3565b9050919050565b6100fc816100e2565b82525050565b5f6020820190506101155f8301846100f3565b9291505056fea2646970667358221220ee53c948d23e9718068b50090cc1265419433824837be2cf7738f3677debd37d64736f6c63430008170033608060405234801561000f575f80fd5b506101048061001d5f395ff3fe6080604052348015600e575f80fd5b5060043610603a575f3560e01c80633f83ea3b14603e57806359a7b3fe146058578063f5895a0a146072575b5f80fd5b6044608c565b604051604f919060b7565b60405180910390f35b605e6095565b6040516069919060b7565b60405180910390f35b6078609d565b6040516083919060b7565b60405180910390f35b5f61d903905090565b5f6014905090565b5f90565b5f819050919050565b60b18160a1565b82525050565b5f60208201905060c85f83018460aa565b9291505056fea26469706673582212201ea62e9e858574e36d1d174586412e9a09954056db027b8344d84676ca9e1fe364736f6c63430008170033608060405234801561000f575f80fd5b506101068061001d5f395ff3fe6080604052348015600e575f80fd5b5060043610603a575f3560e01c80633f83ea3b14603e57806350dca6ab146058578063f5895a0a146072575b5f80fd5b6044608c565b604051604f919060b9565b60405180910390f35b605e6090565b6040516069919060b9565b60405180910390f35b6078609a565b6040516083919060b9565b60405180910390f35b5f90565b5f62030d40905090565b5f612b67905090565b5f819050919050565b60b38160a3565b82525050565b5f60208201905060ca5f83018460ac565b9291505056fea26469706673582212205862e434d971dac4e521a74dde33440f9a6dcf691818dc5bee33442dbba0e16664736f6c63430008170033",
					"opcodes": "PUSH1 0x80 PUSH1 0x40 MSTORE CALLVALUE DUP1 ISZERO PUSH2 0xF JUMPI PUSH0 DUP1 REVERT JUMPDEST POP PUSH1 0x40 MLOAD PUSH2 0x1C SWAP1 PUSH2 0xDE JUMP JUMPDEST PUSH1 0x40 MLOAD DUP1 SWAP2 SUB SWAP1 PUSH0 CREATE DUP1 ISZERO DUP1 ISZERO PUSH2 0x35 JUMPI RETURNDATASIZE PUSH0 DUP1 RETURNDATACOPY RETURNDATASIZE PUSH0 REVERT JUMPDEST POP PUSH0 DUP1 PUSH2 0x100 EXP DUP2 SLOAD DUP2 PUSH20 0xFFFFFFFFFFFFFFFFFFFFFFFFFFFFFFFFFFFFFFFF MUL NOT AND SWAP1 DUP4 PUSH20 0xFFFFFFFFFFFFFFFFFFFFFFFFFFFFFFFFFFFFFFFF AND MUL OR SWAP1 SSTORE POP PUSH1 0x40 MLOAD PUSH2 0x80 SWAP1 PUSH2 0xEB JUMP JUMPDEST PUSH1 0x40 MLOAD DUP1 SWAP2 SUB SWAP1 PUSH0 CREATE DUP1 ISZERO DUP1 ISZERO PUSH2 0x99 JUMPI RETURNDATASIZE PUSH0 DUP1 RETURNDATACOPY RETURNDATASIZE PUSH0 REVERT JUMPDEST POP PUSH1 0x1 PUSH0 PUSH2 0x100 EXP DUP2 SLOAD DUP2 PUSH20 0xFFFFFFFFFFFFFFFFFFFFFFFFFFFFFFFFFFFFFFFF MUL NOT AND SWAP1 DUP4 PUSH20 0xFFFFFFFFFFFFFFFFFFFFFFFFFFFFFFFFFFFFFFFF AND MUL OR SWAP1 SSTORE POP PUSH2 0xF8 JUMP JUMPDEST PUSH2 0x121 DUP1 PUSH2 0x256 DUP4 CODECOPY ADD SWAP1 JUMP JUMPDEST PUSH2 0x123 DUP1 PUSH2 0x377 DUP4 CODECOPY ADD SWAP1 JUMP JUMPDEST PUSH2 0x151 DUP1 PUSH2 0x105 PUSH0 CODECOPY PUSH0 RETURN INVALID PUSH1 0x80 PUSH1 0x40 MSTORE CALLVALUE DUP1 ISZERO PUSH2 0xF JUMPI PUSH0 DUP1 REVERT JUMPDEST POP PUSH1 0x4 CALLDATASIZE LT PUSH2 0x34 JUMPI PUSH0 CALLDATALOAD PUSH1 0xE0 SHR DUP1 PUSH4 0xF628194 EQ PUSH2 0x38 JUMPI DUP1 PUSH4 0x687981DD EQ PUSH2 0x56 JUMPI JUMPDEST PUSH0 DUP1 REVERT JUMPDEST PUSH2 0x40 PUSH2 0x74 JUMP JUMPDEST PUSH1 0x40 MLOAD PUSH2 0x4D SWAP2 SWAP1 PUSH2 0x102 JUMP JUMPDEST PUSH1 0x40 MLOAD DUP1 SWAP2 SUB SWAP1 RETURN JUMPDEST PUSH2 0x5E PUSH2 0x9B JUMP JUMPDEST PUSH1 0x40 MLOAD PUSH2 0x6B SWAP2 SWAP1 PUSH2 0x102 JUMP JUMPDEST PUSH1 0x40 MLOAD DUP1 SWAP2 SUB SWAP1 RETURN JUMPDEST PUSH0 DUP1 PUSH0 SWAP1 SLOAD SWAP1 PUSH2 0x100 EXP SWAP1 DIV PUSH20 0xFFFFFFFFFFFFFFFFFFFFFFFFFFFFFFFFFFFFFFFF AND SWAP1 POP SWAP1 JUMP JUMPDEST PUSH0 PUSH1 0x1 PUSH0 SWAP1 SLOAD SWAP1 PUSH2 0x100 EXP SWAP1 DIV PUSH20 0xFFFFFFFFFFFFFFFFFFFFFFFFFFFFFFFFFFFFFFFF AND SWAP1 POP SWAP1 JUMP JUMPDEST PUSH0 PUSH20 0xFFFFFFFFFFFFFFFFFFFFFFFFFFFFFFFFFFFFFFFF DUP3 AND SWAP1 POP SWAP2 SWAP1 POP JUMP JUMPDEST PUSH0 PUSH2 0xEC DUP3 PUSH2 0xC3 JUMP JUMPDEST SWAP1 POP SWAP2 SWAP1 POP JUMP JUMPDEST PUSH2 0xFC DUP2 PUSH2 0xE2 JUMP JUMPDEST DUP3 MSTORE POP POP JUMP JUMPDEST PUSH0 PUSH1 0x20 DUP3 ADD SWAP1 POP PUSH2 0x115 PUSH0 DUP4 ADD DUP5 PUSH2 0xF3 JUMP JUMPDEST SWAP3 SWAP2 POP POP JUMP INVALID LOG2 PUSH5 0x6970667358 0x22 SLT KECCAK256 0xEE MSTORE8 0xC9 BASEFEE 0xD2 RETURNDATACOPY SWAP8 XOR MOD DUP12 POP MULMOD 0xC 0xC1 0x26 SLOAD NOT NUMBER CODESIZE 0x24 DUP4 PUSH28 0xE2CF7738F3677DEBD37D64736F6C6343000817003360806040523480 ISZERO PUSH2 0xF JUMPI PUSH0 DUP1 REVERT JUMPDEST POP PUSH2 0x104 DUP1 PUSH2 0x1D PUSH0 CODECOPY PUSH0 RETURN INVALID PUSH1 0x80 PUSH1 0x40 MSTORE CALLVALUE DUP1 ISZERO PUSH1 0xE JUMPI PUSH0 DUP1 REVERT JUMPDEST POP PUSH1 0x4 CALLDATASIZE LT PUSH1 0x3A JUMPI PUSH0 CALLDATALOAD PUSH1 0xE0 SHR DUP1 PUSH4 0x3F83EA3B EQ PUSH1 0x3E JUMPI DUP1 PUSH4 0x59A7B3FE EQ PUSH1 0x58 JUMPI DUP1 PUSH4 0xF5895A0A EQ PUSH1 0x72 JUMPI JUMPDEST PUSH0 DUP1 REVERT JUMPDEST PUSH1 0x44 PUSH1 0x8C JUMP JUMPDEST PUSH1 0x40 MLOAD PUSH1 0x4F SWAP2 SWAP1 PUSH1 0xB7 JUMP JUMPDEST PUSH1 0x40 MLOAD DUP1 SWAP2 SUB SWAP1 RETURN JUMPDEST PUSH1 0x5E PUSH1 0x95 JUMP JUMPDEST PUSH1 0x40 MLOAD PUSH1 0x69 SWAP2 SWAP1 PUSH1 0xB7 JUMP JUMPDEST PUSH1 0x40 MLOAD DUP1 SWAP2 SUB SWAP1 RETURN JUMPDEST PUSH1 0x78 PUSH1 0x9D JUMP JUMPDEST PUSH1 0x40 MLOAD PUSH1 0x83 SWAP2 SWAP1 PUSH1 0xB7 JUMP JUMPDEST PUSH1 0x40 MLOAD DUP1 SWAP2 SUB SWAP1 RETURN JUMPDEST PUSH0 PUSH2 0xD903 SWAP1 POP SWAP1 JUMP JUMPDEST PUSH0 PUSH1 0x14 SWAP1 POP SWAP1 JUMP JUMPDEST PUSH0 SWAP1 JUMP JUMPDEST PUSH0 DUP2 SWAP1 POP SWAP2 SWAP1 POP JUMP JUMPDEST PUSH1 0xB1 DUP2 PUSH1 0xA1 JUMP JUMPDEST DUP3 MSTORE POP POP JUMP JUMPDEST PUSH0 PUSH1 0x20 DUP3 ADD SWAP1 POP PUSH1 0xC8 PUSH0 DUP4 ADD DUP5 PUSH1 0xAA JUMP JUMPDEST SWAP3 SWAP2 POP POP JUMP INVALID LOG2 PUSH5 0x6970667358 0x22 SLT KECCAK256 0x1E 0xA6 0x2E SWAP15 DUP6 DUP6 PUSH21 0xE36D1D174586412E9A09954056DB027B8344D84676 0xCA SWAP15 0x1F 0xE3 PUSH5 0x736F6C6343 STOP ADDMOD OR STOP CALLER PUSH1 0x80 PUSH1 0x40 MSTORE CALLVALUE DUP1 ISZERO PUSH2 0xF JUMPI PUSH0 DUP1 REVERT JUMPDEST POP PUSH2 0x106 DUP1 PUSH2 0x1D PUSH0 CODECOPY PUSH0 RETURN INVALID PUSH1 0x80 PUSH1 0x40 MSTORE CALLVALUE DUP1 ISZERO PUSH1 0xE JUMPI PUSH0 DUP1 REVERT JUMPDEST POP PUSH1 0x4 CALLDATASIZE LT PUSH1 0x3A JUMPI PUSH0 CALLDATALOAD PUSH1 0xE0 SHR DUP1 PUSH4 0x3F83EA3B EQ PUSH1 0x3E JUMPI DUP1 PUSH4 0x50DCA6AB EQ PUSH1 0x58 JUMPI DUP1 PUSH4 0xF5895A0A EQ PUSH1 0x72 JUMPI JUMPDEST PUSH0 DUP1 REVERT JUMPDEST PUSH1 0x44 PUSH1 0x8C JUMP JUMPDEST PUSH1 0x40 MLOAD PUSH1 0x4F SWAP2 SWAP1 PUSH1 0xB9 JUMP JUMPDEST PUSH1 0x40 MLOAD DUP1 SWAP2 SUB SWAP1 RETURN JUMPDEST PUSH1 0x5E PUSH1 0x90 JUMP JUMPDEST PUSH1 0x40 MLOAD PUSH1 0x69 SWAP2 SWAP1 PUSH1 0xB9 JUMP JUMPDEST PUSH1 0x40 MLOAD DUP1 SWAP2 SUB SWAP1 RETURN JUMPDEST PUSH1 0x78 PUSH1 0x9A JUMP JUMPDEST PUSH1 0x40 MLOAD PUSH1 0x83 SWAP2 SWAP1 PUSH1 0xB9 JUMP JUMPDEST PUSH1 0x40 MLOAD DUP1 SWAP2 SUB SWAP1 RETURN JUMPDEST PUSH0 SWAP1 JUMP JUMPDEST PUSH0 PUSH3 0x30D40 SWAP1 POP SWAP1 JUMP JUMPDEST PUSH0 PUSH2 0x2B67 SWAP1 POP SWAP1 JUMP JUMPDEST PUSH0 DUP2 SWAP1 POP SWAP2 SWAP1 POP JUMP JUMPDEST PUSH1 0xB3 DUP2 PUSH1 0xA3 JUMP JUMPDEST DUP3 MSTORE POP POP JUMP JUMPDEST PUSH0 PUSH1 0x20 DUP3 ADD SWAP1 POP PUSH1 0xCA PUSH0 DUP4 ADD DUP5 PUSH1 0xAC JUMP JUMPDEST SWAP3 SWAP2 POP POP JUMP INVALID LOG2 PUSH5 0x6970667358 0x22 SLT KECCAK256 PC PUSH3 0xE434D9 PUSH18 0xDAC4E521A74DDE33440F9A6DCF691818DC5B 0xEE CALLER PREVRANDAO 0x2D 0xBB LOG0 0xE1 PUSH7 0x64736F6C634300 ADDMOD OR STOP CALLER "
				},
				"gasEstimates": {
					"creation": {
						"codeDepositCost": "67400",
						"executionCost": "infinite",
						"totalCost": "infinite"
					},
					"external": {
						"engineeringManager()": "2515",
						"salesPerson()": "2493"
					}
				},
				"methodIdentifiers": {
					"engineeringManager()": "687981dd",
					"salesPerson()": "0f628194"
				}
			},
			"storageLayout": {
				"storage": [
					{
						"astId": 110,
						"contract": "Inherite.sol:InheritanceSubmission",
						"label": "_salesPerson",
						"offset": 0,
						"slot": "0",
						"type": "t_contract(SalesPerson)75"
					},
					{
						"astId": 113,
						"contract": "Inherite.sol:InheritanceSubmission",
						"label": "_engineeringManager",
						"offset": 0,
						"slot": "1",
						"type": "t_contract(EngineeringManager)105"
					}
				],
				"types": {
					"t_contract(EngineeringManager)105": {
						"encoding": "inplace",
						"label": "contract EngineeringManager",
						"numberOfBytes": "20"
					},
					"t_contract(SalesPerson)75": {
						"encoding": "inplace",
						"label": "contract SalesPerson",
						"numberOfBytes": "20"
					}
				}
			},
			"userdoc": {
				"kind": "user",
				"methods": {},
				"version": 1
			}
		}
	}
}