{
	"Role4/NewKeywordPin.sol": {
		"AddressBook": {
			"abi": [
				{
					"inputs": [],
					"stateMutability": "nonpayable",
					"type": "constructor"
				},
				{
					"inputs": [
						{
							"internalType": "address",
							"name": "owner",
							"type": "address"
						}
					],
					"name": "OwnableInvalidOwner",
					"type": "error"
				},
				{
					"inputs": [
						{
							"internalType": "address",
							"name": "account",
							"type": "address"
						}
					],
					"name": "OwnableUnauthorizedAccount",
					"type": "error"
				},
				{
					"anonymous": false,
					"inputs": [
						{
							"indexed": true,
							"internalType": "address",
							"name": "previousOwner",
							"type": "address"
						},
						{
							"indexed": true,
							"internalType": "address",
							"name": "newOwner",
							"type": "address"
						}
					],
					"name": "OwnershipTransferred",
					"type": "event"
				},
				{
					"inputs": [
						{
							"internalType": "string",
							"name": "_firstName",
							"type": "string"
						},
						{
							"internalType": "string",
							"name": "_lastName",
							"type": "string"
						},
						{
							"internalType": "uint256[]",
							"name": "_phoneNumbers",
							"type": "uint256[]"
						}
					],
					"name": "addContact",
					"outputs": [],
					"stateMutability": "nonpayable",
					"type": "function"
				},
				{
					"inputs": [
						{
							"internalType": "uint256",
							"name": "_id",
							"type": "uint256"
						}
					],
					"name": "deleteContact",
					"outputs": [],
					"stateMutability": "nonpayable",
					"type": "function"
				},
				{
					"inputs": [],
					"name": "getAllContacts",
					"outputs": [
						{
							"components": [
								{
									"internalType": "uint256",
									"name": "id",
									"type": "uint256"
								},
								{
									"internalType": "string",
									"name": "firstName",
									"type": "string"
								},
								{
									"internalType": "string",
									"name": "lastName",
									"type": "string"
								},
								{
									"internalType": "uint256[]",
									"name": "phoneNumbers",
									"type": "uint256[]"
								}
							],
							"internalType": "struct IAddressBook.Contact[]",
							"name": "",
							"type": "tuple[]"
						}
					],
					"stateMutability": "view",
					"type": "function"
				},
				{
					"inputs": [
						{
							"internalType": "uint256",
							"name": "_id",
							"type": "uint256"
						}
					],
					"name": "getContact",
					"outputs": [
						{
							"components": [
								{
									"internalType": "uint256",
									"name": "id",
									"type": "uint256"
								},
								{
									"internalType": "string",
									"name": "firstName",
									"type": "string"
								},
								{
									"internalType": "string",
									"name": "lastName",
									"type": "string"
								},
								{
									"internalType": "uint256[]",
									"name": "phoneNumbers",
									"type": "uint256[]"
								}
							],
							"internalType": "struct IAddressBook.Contact",
							"name": "",
							"type": "tuple"
						}
					],
					"stateMutability": "view",
					"type": "function"
				},
				{
					"inputs": [],
					"name": "owner",
					"outputs": [
						{
							"internalType": "address",
							"name": "",
							"type": "address"
						}
					],
					"stateMutability": "view",
					"type": "function"
				},
				{
					"inputs": [],
					"name": "renounceOwnership",
					"outputs": [],
					"stateMutability": "nonpayable",
					"type": "function"
				},
				{
					"inputs": [
						{
							"internalType": "address",
							"name": "newOwner",
							"type": "address"
						}
					],
					"name": "transferOwnership",
					"outputs": [],
					"stateMutability": "nonpayable",
					"type": "function"
				}
			],
			"devdoc": {
				"errors": {
					"OwnableInvalidOwner(address)": [
						{
							"details": "The owner is not a valid owner account. (eg. `address(0)`)"
						}
					],
					"OwnableUnauthorizedAccount(address)": [
						{
							"details": "The caller account is not authorized to perform an operation."
						}
					]
				},
				"kind": "dev",
				"methods": {
					"owner()": {
						"details": "Returns the address of the current owner."
					},
					"renounceOwnership()": {
						"details": "Leaves the contract without owner. It will not be possible to call `onlyOwner` functions. Can only be called by the current owner. NOTE: Renouncing ownership will leave the contract without an owner, thereby disabling any functionality that is only available to the owner."
					},
					"transferOwnership(address)": {
						"details": "Transfers ownership of the contract to a new account (`newOwner`). Can only be called by the current owner."
					}
				},
				"version": 1
			},
			"evm": {
				"assembly": "    /* \"Role4/NewKeywordPin.sol\":612:2235  contract AddressBook is IAddressBook, Ownable {... */\n  mstore(0x40, 0x80)\n    /* \"Role4/NewKeywordPin.sol\":820:856  constructor() Ownable(msg.sender) {} */\n  callvalue\n  dup1\n  iszero\n  tag_1\n  jumpi\n  revert(0x00, 0x00)\ntag_1:\n  pop\n    /* \"Role4/NewKeywordPin.sol\":842:852  msg.sender */\n  caller\n    /* \"@openzeppelin/contracts/access/Ownable.sol\":1297:1298  0 */\n  0x00\n    /* \"@openzeppelin/contracts/access/Ownable.sol\":1273:1299  initialOwner == address(0) */\n  0xffffffffffffffffffffffffffffffffffffffff\n  and\n    /* \"@openzeppelin/contracts/access/Ownable.sol\":1273:1285  initialOwner */\n  dup2\n    /* \"@openzeppelin/contracts/access/Ownable.sol\":1273:1299  initialOwner == address(0) */\n  0xffffffffffffffffffffffffffffffffffffffff\n  and\n  sub\n    /* \"@openzeppelin/contracts/access/Ownable.sol\":1269:1364  if (initialOwner == address(0)) {... */\n  tag_5\n  jumpi\n    /* \"@openzeppelin/contracts/access/Ownable.sol\":1350:1351  0 */\n  0x00\n    /* \"@openzeppelin/contracts/access/Ownable.sol\":1322:1353  OwnableInvalidOwner(address(0)) */\n  mload(0x40)\n  0x1e4fbdf700000000000000000000000000000000000000000000000000000000\n  dup2\n  mstore\n  0x04\n  add\n  tag_6\n  swap2\n  swap1\n  tag_7\n  jump\t// in\ntag_6:\n  mload(0x40)\n  dup1\n  swap2\n  sub\n  swap1\n  revert\n    /* \"@openzeppelin/contracts/access/Ownable.sol\":1269:1364  if (initialOwner == address(0)) {... */\ntag_5:\n    /* \"@openzeppelin/contracts/access/Ownable.sol\":1373:1405  _transferOwnership(initialOwner) */\n  tag_8\n    /* \"@openzeppelin/contracts/access/Ownable.sol\":1392:1404  initialOwner */\n  dup2\n    /* \"@openzeppelin/contracts/access/Ownable.sol\":1373:1391  _transferOwnership */\n  shl(0x20, tag_9)\n    /* \"@openzeppelin/contracts/access/Ownable.sol\":1373:1405  _transferOwnership(initialOwner) */\n  0x20\n  shr\n  jump\t// in\ntag_8:\n    /* \"@openzeppelin/contracts/access/Ownable.sol\":1225:1412  constructor(address initialOwner) {... */\n  pop\n    /* \"Role4/NewKeywordPin.sol\":612:2235  contract AddressBook is IAddressBook, Ownable {... */\n  jump(tag_11)\n    /* \"@openzeppelin/contracts/access/Ownable.sol\":2912:3099  function _transferOwnership(address newOwner) internal virtual {... */\ntag_9:\n    /* \"@openzeppelin/contracts/access/Ownable.sol\":2985:3001  address oldOwner */\n  0x00\n    /* \"@openzeppelin/contracts/access/Ownable.sol\":3004:3010  _owner */\n  0x00\n  0x00\n  swap1\n  sload\n  swap1\n  0x0100\n  exp\n  swap1\n  div\n  0xffffffffffffffffffffffffffffffffffffffff\n  and\n    /* \"@openzeppelin/contracts/access/Ownable.sol\":2985:3010  address oldOwner = _owner */\n  swap1\n  pop\n    /* \"@openzeppelin/contracts/access/Ownable.sol\":3029:3037  newOwner */\n  dup2\n    /* \"@openzeppelin/contracts/access/Ownable.sol\":3020:3026  _owner */\n  0x00\n  0x00\n    /* \"@openzeppelin/contracts/access/Ownable.sol\":3020:3037  _owner = newOwner */\n  0x0100\n  exp\n  dup2\n  sload\n  dup2\n  0xffffffffffffffffffffffffffffffffffffffff\n  mul\n  not\n  and\n  swap1\n  dup4\n  0xffffffffffffffffffffffffffffffffffffffff\n  and\n  mul\n  or\n  swap1\n  sstore\n  pop\n    /* \"@openzeppelin/contracts/access/Ownable.sol\":3083:3091  newOwner */\n  dup2\n    /* \"@openzeppelin/contracts/access/Ownable.sol\":3052:3092  OwnershipTransferred(oldOwner, newOwner) */\n  0xffffffffffffffffffffffffffffffffffffffff\n  and\n    /* \"@openzeppelin/contracts/access/Ownable.sol\":3073:3081  oldOwner */\n  dup2\n    /* \"@openzeppelin/contracts/access/Ownable.sol\":3052:3092  OwnershipTransferred(oldOwner, newOwner) */\n  0xffffffffffffffffffffffffffffffffffffffff\n  and\n  0x8be0079c531659141344cd1fd0a4f28419497f9722a3daafe3b4186f6b6457e0\n  mload(0x40)\n  mload(0x40)\n  dup1\n  swap2\n  sub\n  swap1\n  log3\n    /* \"@openzeppelin/contracts/access/Ownable.sol\":2975:3099  {... */\n  pop\n    /* \"@openzeppelin/contracts/access/Ownable.sol\":2912:3099  function _transferOwnership(address newOwner) internal virtual {... */\n  pop\n  jump\t// out\n    /* \"#utility.yul\":7:133   */\ntag_13:\n    /* \"#utility.yul\":44:51   */\n  0x00\n    /* \"#utility.yul\":84:126   */\n  0xffffffffffffffffffffffffffffffffffffffff\n    /* \"#utility.yul\":77:82   */\n  dup3\n    /* \"#utility.yul\":73:127   */\n  and\n    /* \"#utility.yul\":62:127   */\n  swap1\n  pop\n    /* \"#utility.yul\":7:133   */\n  swap2\n  swap1\n  pop\n  jump\t// out\n    /* \"#utility.yul\":139:235   */\ntag_14:\n    /* \"#utility.yul\":176:183   */\n  0x00\n    /* \"#utility.yul\":205:229   */\n  tag_19\n    /* \"#utility.yul\":223:228   */\n  dup3\n    /* \"#utility.yul\":205:229   */\n  tag_13\n  jump\t// in\ntag_19:\n    /* \"#utility.yul\":194:229   */\n  swap1\n  pop\n    /* \"#utility.yul\":139:235   */\n  swap2\n  swap1\n  pop\n  jump\t// out\n    /* \"#utility.yul\":241:359   */\ntag_15:\n    /* \"#utility.yul\":328:352   */\n  tag_21\n    /* \"#utility.yul\":346:351   */\n  dup2\n    /* \"#utility.yul\":328:352   */\n  tag_14\n  jump\t// in\ntag_21:\n    /* \"#utility.yul\":323:326   */\n  dup3\n    /* \"#utility.yul\":316:353   */\n  mstore\n    /* \"#utility.yul\":241:359   */\n  pop\n  pop\n  jump\t// out\n    /* \"#utility.yul\":365:587   */\ntag_7:\n    /* \"#utility.yul\":458:462   */\n  0x00\n    /* \"#utility.yul\":496:498   */\n  0x20\n    /* \"#utility.yul\":485:494   */\n  dup3\n    /* \"#utility.yul\":481:499   */\n  add\n    /* \"#utility.yul\":473:499   */\n  swap1\n  pop\n    /* \"#utility.yul\":509:580   */\n  tag_23\n    /* \"#utility.yul\":577:578   */\n  0x00\n    /* \"#utility.yul\":566:575   */\n  dup4\n    /* \"#utility.yul\":562:579   */\n  add\n    /* \"#utility.yul\":553:559   */\n  dup5\n    /* \"#utility.yul\":509:580   */\n  tag_15\n  jump\t// in\ntag_23:\n    /* \"#utility.yul\":365:587   */\n  swap3\n  swap2\n  pop\n  pop\n  jump\t// out\n    /* \"Role4/NewKeywordPin.sol\":612:2235  contract AddressBook is IAddressBook, Ownable {... */\ntag_11:\n  dataSize(sub_0)\n  dup1\n  dataOffset(sub_0)\n  0x00\n  codecopy\n  0x00\n  return\nstop\n\nsub_0: assembly {\n        /* \"Role4/NewKeywordPin.sol\":612:2235  contract AddressBook is IAddressBook, Ownable {... */\n      mstore(0x40, 0x80)\n      callvalue\n      dup1\n      iszero\n      tag_1\n      jumpi\n      revert(0x00, 0x00)\n    tag_1:\n      pop\n      jumpi(tag_2, lt(calldatasize, 0x04))\n      shr(0xe0, calldataload(0x00))\n      dup1\n      0xb9ed6fca\n      gt\n      tag_10\n      jumpi\n      dup1\n      0xb9ed6fca\n      eq\n      tag_6\n      jumpi\n      dup1\n      0xe6505e1e\n      eq\n      tag_7\n      jumpi\n      dup1\n      0xef1d6ddd\n      eq\n      tag_8\n      jumpi\n      dup1\n      0xf2fde38b\n      eq\n      tag_9\n      jumpi\n      jump(tag_2)\n    tag_10:\n      dup1\n      0x3f06f6e8\n      eq\n      tag_3\n      jumpi\n      dup1\n      0x715018a6\n      eq\n      tag_4\n      jumpi\n      dup1\n      0x8da5cb5b\n      eq\n      tag_5\n      jumpi\n    tag_2:\n      revert(0x00, 0x00)\n        /* \"Role4/NewKeywordPin.sol\":862:1383  function addContact(... */\n    tag_3:\n      tag_11\n      0x04\n      dup1\n      calldatasize\n      sub\n      dup2\n      add\n      swap1\n      tag_12\n      swap2\n      swap1\n      tag_13\n      jump\t// in\n    tag_12:\n      tag_14\n      jump\t// in\n    tag_11:\n      stop\n        /* \"@openzeppelin/contracts/access/Ownable.sol\":2293:2394  function renounceOwnership() public virtual onlyOwner {... */\n    tag_4:\n      tag_15\n      tag_16\n      jump\t// in\n    tag_15:\n      stop\n        /* \"@openzeppelin/contracts/access/Ownable.sol\":1638:1723  function owner() public view virtual returns (address) {... */\n    tag_5:\n      tag_17\n      tag_18\n      jump\t// in\n    tag_17:\n      mload(0x40)\n      tag_19\n      swap2\n      swap1\n      tag_20\n      jump\t// in\n    tag_19:\n      mload(0x40)\n      dup1\n      swap2\n      sub\n      swap1\n      return\n        /* \"Role4/NewKeywordPin.sol\":1389:1803  function deleteContact(uint _id) external override onlyOwner {... */\n    tag_6:\n      tag_21\n      0x04\n      dup1\n      calldatasize\n      sub\n      dup2\n      add\n      swap1\n      tag_22\n      swap2\n      swap1\n      tag_23\n      jump\t// in\n    tag_22:\n      tag_24\n      jump\t// in\n    tag_21:\n      stop\n        /* \"Role4/NewKeywordPin.sol\":1809:1924  function getContact(uint _id) external view override returns (Contact memory) {... */\n    tag_7:\n      tag_25\n      0x04\n      dup1\n      calldatasize\n      sub\n      dup2\n      add\n      swap1\n      tag_26\n      swap2\n      swap1\n      tag_23\n      jump\t// in\n    tag_26:\n      tag_27\n      jump\t// in\n    tag_25:\n      mload(0x40)\n      tag_28\n      swap2\n      swap1\n      tag_29\n      jump\t// in\n    tag_28:\n      mload(0x40)\n      dup1\n      swap2\n      sub\n      swap1\n      return\n        /* \"Role4/NewKeywordPin.sol\":1930:2233  function getAllContacts() external view override returns (Contact[] memory) {... */\n    tag_8:\n      tag_30\n      tag_31\n      jump\t// in\n    tag_30:\n      mload(0x40)\n      tag_32\n      swap2\n      swap1\n      tag_33\n      jump\t// in\n    tag_32:\n      mload(0x40)\n      dup1\n      swap2\n      sub\n      swap1\n      return\n        /* \"@openzeppelin/contracts/access/Ownable.sol\":2543:2758  function transferOwnership(address newOwner) public virtual onlyOwner {... */\n    tag_9:\n      tag_34\n      0x04\n      dup1\n      calldatasize\n      sub\n      dup2\n      add\n      swap1\n      tag_35\n      swap2\n      swap1\n      tag_36\n      jump\t// in\n    tag_35:\n      tag_37\n      jump\t// in\n    tag_34:\n      stop\n        /* \"Role4/NewKeywordPin.sol\":862:1383  function addContact(... */\n    tag_14:\n        /* \"@openzeppelin/contracts/access/Ownable.sol\":1531:1544  _checkOwner() */\n      tag_39\n        /* \"@openzeppelin/contracts/access/Ownable.sol\":1531:1542  _checkOwner */\n      tag_40\n        /* \"@openzeppelin/contracts/access/Ownable.sol\":1531:1544  _checkOwner() */\n      jump\t// in\n    tag_39:\n        /* \"Role4/NewKeywordPin.sol\":1030:1044  uint currentId */\n      0x00\n        /* \"Role4/NewKeywordPin.sol\":1047:1060  nextContactId */\n      sload(0x04)\n        /* \"Role4/NewKeywordPin.sol\":1030:1060  uint currentId = nextContactId */\n      swap1\n      pop\n        /* \"Role4/NewKeywordPin.sol\":1092:1247  Contact({... */\n      mload(0x40)\n      dup1\n      0x80\n      add\n      0x40\n      mstore\n      dup1\n        /* \"Role4/NewKeywordPin.sol\":1118:1127  currentId */\n      dup3\n        /* \"Role4/NewKeywordPin.sol\":1092:1247  Contact({... */\n      dup2\n      mstore\n      0x20\n      add\n        /* \"Role4/NewKeywordPin.sol\":1152:1162  _firstName */\n      dup6\n        /* \"Role4/NewKeywordPin.sol\":1092:1247  Contact({... */\n      dup2\n      mstore\n      0x20\n      add\n        /* \"Role4/NewKeywordPin.sol\":1186:1195  _lastName */\n      dup5\n        /* \"Role4/NewKeywordPin.sol\":1092:1247  Contact({... */\n      dup2\n      mstore\n      0x20\n      add\n        /* \"Role4/NewKeywordPin.sol\":1223:1236  _phoneNumbers */\n      dup4\n        /* \"Role4/NewKeywordPin.sol\":1092:1247  Contact({... */\n      dup2\n      mstore\n      pop\n        /* \"Role4/NewKeywordPin.sol\":1070:1078  contacts */\n      0x01\n        /* \"Role4/NewKeywordPin.sol\":1070:1089  contacts[currentId] */\n      0x00\n        /* \"Role4/NewKeywordPin.sol\":1079:1088  currentId */\n      dup4\n        /* \"Role4/NewKeywordPin.sol\":1070:1089  contacts[currentId] */\n      dup2\n      mstore\n      0x20\n      add\n      swap1\n      dup2\n      mstore\n      0x20\n      add\n      0x00\n      keccak256\n        /* \"Role4/NewKeywordPin.sol\":1070:1247  contacts[currentId] = Contact({... */\n      0x00\n      dup3\n      add\n      mload\n      dup2\n      0x00\n      add\n      sstore\n      0x20\n      dup3\n      add\n      mload\n      dup2\n      0x01\n      add\n      swap1\n      dup2\n      tag_42\n      swap2\n      swap1\n      tag_43\n      jump\t// in\n    tag_42:\n      pop\n      0x40\n      dup3\n      add\n      mload\n      dup2\n      0x02\n      add\n      swap1\n      dup2\n      tag_44\n      swap2\n      swap1\n      tag_43\n      jump\t// in\n    tag_44:\n      pop\n      0x60\n      dup3\n      add\n      mload\n      dup2\n      0x03\n      add\n      swap1\n      dup1\n      mload\n      swap1\n      0x20\n      add\n      swap1\n      tag_45\n      swap3\n      swap2\n      swap1\n      tag_46\n      jump\t// in\n    tag_45:\n      pop\n      swap1\n      pop\n      pop\n        /* \"Role4/NewKeywordPin.sol\":1289:1299  contactIds */\n      0x02\n        /* \"Role4/NewKeywordPin.sol\":1289:1306  contactIds.length */\n      dup1\n      sload\n      swap1\n      pop\n        /* \"Role4/NewKeywordPin.sol\":1266:1275  idToIndex */\n      0x03\n        /* \"Role4/NewKeywordPin.sol\":1266:1286  idToIndex[currentId] */\n      0x00\n        /* \"Role4/NewKeywordPin.sol\":1276:1285  currentId */\n      dup4\n        /* \"Role4/NewKeywordPin.sol\":1266:1286  idToIndex[currentId] */\n      dup2\n      mstore\n      0x20\n      add\n      swap1\n      dup2\n      mstore\n      0x20\n      add\n      0x00\n      keccak256\n        /* \"Role4/NewKeywordPin.sol\":1266:1306  idToIndex[currentId] = contactIds.length */\n      dup2\n      swap1\n      sstore\n      pop\n        /* \"Role4/NewKeywordPin.sol\":1316:1326  contactIds */\n      0x02\n        /* \"Role4/NewKeywordPin.sol\":1332:1341  currentId */\n      dup2\n        /* \"Role4/NewKeywordPin.sol\":1316:1342  contactIds.push(currentId) */\n      swap1\n      dup1\n      0x01\n      dup2\n      sload\n      add\n      dup1\n      dup3\n      sstore\n      dup1\n      swap2\n      pop\n      pop\n      0x01\n      swap1\n      sub\n      swap1\n      0x00\n      mstore\n      keccak256(0x00, 0x20)\n      add\n      0x00\n      swap1\n      swap2\n      swap1\n      swap2\n      swap1\n      swap2\n      pop\n      sstore\n        /* \"Role4/NewKeywordPin.sol\":1361:1374  nextContactId */\n      0x04\n      0x00\n        /* \"Role4/NewKeywordPin.sol\":1361:1376  nextContactId++ */\n      dup2\n      sload\n      dup1\n      swap3\n      swap2\n      swap1\n      tag_48\n      swap1\n      tag_49\n      jump\t// in\n    tag_48:\n      swap2\n      swap1\n      pop\n      sstore\n      pop\n        /* \"Role4/NewKeywordPin.sol\":1020:1383  {... */\n      pop\n        /* \"Role4/NewKeywordPin.sol\":862:1383  function addContact(... */\n      pop\n      pop\n      pop\n      jump\t// out\n        /* \"@openzeppelin/contracts/access/Ownable.sol\":2293:2394  function renounceOwnership() public virtual onlyOwner {... */\n    tag_16:\n        /* \"@openzeppelin/contracts/access/Ownable.sol\":1531:1544  _checkOwner() */\n      tag_51\n        /* \"@openzeppelin/contracts/access/Ownable.sol\":1531:1542  _checkOwner */\n      tag_40\n        /* \"@openzeppelin/contracts/access/Ownable.sol\":1531:1544  _checkOwner() */\n      jump\t// in\n    tag_51:\n        /* \"@openzeppelin/contracts/access/Ownable.sol\":2357:2387  _transferOwnership(address(0)) */\n      tag_53\n        /* \"@openzeppelin/contracts/access/Ownable.sol\":2384:2385  0 */\n      0x00\n        /* \"@openzeppelin/contracts/access/Ownable.sol\":2357:2375  _transferOwnership */\n      tag_54\n        /* \"@openzeppelin/contracts/access/Ownable.sol\":2357:2387  _transferOwnership(address(0)) */\n      jump\t// in\n    tag_53:\n        /* \"@openzeppelin/contracts/access/Ownable.sol\":2293:2394  function renounceOwnership() public virtual onlyOwner {... */\n      jump\t// out\n        /* \"@openzeppelin/contracts/access/Ownable.sol\":1638:1723  function owner() public view virtual returns (address) {... */\n    tag_18:\n        /* \"@openzeppelin/contracts/access/Ownable.sol\":1684:1691  address */\n      0x00\n        /* \"@openzeppelin/contracts/access/Ownable.sol\":1710:1716  _owner */\n      0x00\n      0x00\n      swap1\n      sload\n      swap1\n      0x0100\n      exp\n      swap1\n      div\n      0xffffffffffffffffffffffffffffffffffffffff\n      and\n        /* \"@openzeppelin/contracts/access/Ownable.sol\":1703:1716  return _owner */\n      swap1\n      pop\n        /* \"@openzeppelin/contracts/access/Ownable.sol\":1638:1723  function owner() public view virtual returns (address) {... */\n      swap1\n      jump\t// out\n        /* \"Role4/NewKeywordPin.sol\":1389:1803  function deleteContact(uint _id) external override onlyOwner {... */\n    tag_24:\n        /* \"@openzeppelin/contracts/access/Ownable.sol\":1531:1544  _checkOwner() */\n      tag_57\n        /* \"@openzeppelin/contracts/access/Ownable.sol\":1531:1542  _checkOwner */\n      tag_40\n        /* \"@openzeppelin/contracts/access/Ownable.sol\":1531:1544  _checkOwner() */\n      jump\t// in\n    tag_57:\n        /* \"Role4/NewKeywordPin.sol\":1486:1487  0 */\n      0x00\n        /* \"Role4/NewKeywordPin.sol\":1468:1477  idToIndex */\n      0x03\n        /* \"Role4/NewKeywordPin.sol\":1468:1482  idToIndex[_id] */\n      0x00\n        /* \"Role4/NewKeywordPin.sol\":1478:1481  _id */\n      dup4\n        /* \"Role4/NewKeywordPin.sol\":1468:1482  idToIndex[_id] */\n      dup2\n      mstore\n      0x20\n      add\n      swap1\n      dup2\n      mstore\n      0x20\n      add\n      0x00\n      keccak256\n      sload\n        /* \"Role4/NewKeywordPin.sol\":1468:1487  idToIndex[_id] != 0 */\n      eq\n      iszero\n        /* \"Role4/NewKeywordPin.sol\":1468:1511  idToIndex[_id] != 0 || contactIds[0] == _id */\n      dup1\n      tag_59\n      jumpi\n      pop\n        /* \"Role4/NewKeywordPin.sol\":1508:1511  _id */\n      dup1\n        /* \"Role4/NewKeywordPin.sol\":1491:1501  contactIds */\n      0x02\n        /* \"Role4/NewKeywordPin.sol\":1502:1503  0 */\n      0x00\n        /* \"Role4/NewKeywordPin.sol\":1491:1504  contactIds[0] */\n      dup2\n      sload\n      dup2\n      lt\n      tag_60\n      jumpi\n      tag_61\n      tag_62\n      jump\t// in\n    tag_61:\n    tag_60:\n      swap1\n      0x00\n      mstore\n      keccak256(0x00, 0x20)\n      add\n      sload\n        /* \"Role4/NewKeywordPin.sol\":1491:1511  contactIds[0] == _id */\n      eq\n        /* \"Role4/NewKeywordPin.sol\":1468:1511  idToIndex[_id] != 0 || contactIds[0] == _id */\n    tag_59:\n        /* \"Role4/NewKeywordPin.sol\":1460:1533  require(idToIndex[_id] != 0 || contactIds[0] == _id, \"Contact not found\") */\n      tag_64\n      jumpi\n      mload(0x40)\n      0x08c379a000000000000000000000000000000000000000000000000000000000\n      dup2\n      mstore\n      0x04\n      add\n      tag_65\n      swap1\n      tag_66\n      jump\t// in\n    tag_65:\n      mload(0x40)\n      dup1\n      swap2\n      sub\n      swap1\n      revert\n    tag_64:\n        /* \"Role4/NewKeywordPin.sol\":1544:1554  uint index */\n      0x00\n        /* \"Role4/NewKeywordPin.sol\":1557:1566  idToIndex */\n      0x03\n        /* \"Role4/NewKeywordPin.sol\":1557:1571  idToIndex[_id] */\n      0x00\n        /* \"Role4/NewKeywordPin.sol\":1567:1570  _id */\n      dup4\n        /* \"Role4/NewKeywordPin.sol\":1557:1571  idToIndex[_id] */\n      dup2\n      mstore\n      0x20\n      add\n      swap1\n      dup2\n      mstore\n      0x20\n      add\n      0x00\n      keccak256\n      sload\n        /* \"Role4/NewKeywordPin.sol\":1544:1571  uint index = idToIndex[_id] */\n      swap1\n      pop\n        /* \"Role4/NewKeywordPin.sol\":1581:1592  uint lastId */\n      0x00\n        /* \"Role4/NewKeywordPin.sol\":1595:1605  contactIds */\n      0x02\n        /* \"Role4/NewKeywordPin.sol\":1626:1627  1 */\n      0x01\n        /* \"Role4/NewKeywordPin.sol\":1606:1616  contactIds */\n      0x02\n        /* \"Role4/NewKeywordPin.sol\":1606:1623  contactIds.length */\n      dup1\n      sload\n      swap1\n      pop\n        /* \"Role4/NewKeywordPin.sol\":1606:1627  contactIds.length - 1 */\n      tag_67\n      swap2\n      swap1\n      tag_68\n      jump\t// in\n    tag_67:\n        /* \"Role4/NewKeywordPin.sol\":1595:1628  contactIds[contactIds.length - 1] */\n      dup2\n      sload\n      dup2\n      lt\n      tag_69\n      jumpi\n      tag_70\n      tag_62\n      jump\t// in\n    tag_70:\n    tag_69:\n      swap1\n      0x00\n      mstore\n      keccak256(0x00, 0x20)\n      add\n      sload\n        /* \"Role4/NewKeywordPin.sol\":1581:1628  uint lastId = contactIds[contactIds.length - 1] */\n      swap1\n      pop\n        /* \"Role4/NewKeywordPin.sol\":1667:1673  lastId */\n      dup1\n        /* \"Role4/NewKeywordPin.sol\":1647:1657  contactIds */\n      0x02\n        /* \"Role4/NewKeywordPin.sol\":1658:1663  index */\n      dup4\n        /* \"Role4/NewKeywordPin.sol\":1647:1664  contactIds[index] */\n      dup2\n      sload\n      dup2\n      lt\n      tag_72\n      jumpi\n      tag_73\n      tag_62\n      jump\t// in\n    tag_73:\n    tag_72:\n      swap1\n      0x00\n      mstore\n      keccak256(0x00, 0x20)\n      add\n        /* \"Role4/NewKeywordPin.sol\":1647:1673  contactIds[index] = lastId */\n      dup2\n      swap1\n      sstore\n      pop\n        /* \"Role4/NewKeywordPin.sol\":1703:1708  index */\n      dup2\n        /* \"Role4/NewKeywordPin.sol\":1683:1692  idToIndex */\n      0x03\n        /* \"Role4/NewKeywordPin.sol\":1683:1700  idToIndex[lastId] */\n      0x00\n        /* \"Role4/NewKeywordPin.sol\":1693:1699  lastId */\n      dup4\n        /* \"Role4/NewKeywordPin.sol\":1683:1700  idToIndex[lastId] */\n      dup2\n      mstore\n      0x20\n      add\n      swap1\n      dup2\n      mstore\n      0x20\n      add\n      0x00\n      keccak256\n        /* \"Role4/NewKeywordPin.sol\":1683:1708  idToIndex[lastId] = index */\n      dup2\n      swap1\n      sstore\n      pop\n        /* \"Role4/NewKeywordPin.sol\":1719:1729  contactIds */\n      0x02\n        /* \"Role4/NewKeywordPin.sol\":1719:1735  contactIds.pop() */\n      dup1\n      sload\n      dup1\n      tag_75\n      jumpi\n      tag_76\n      tag_77\n      jump\t// in\n    tag_76:\n    tag_75:\n      0x01\n      swap1\n      sub\n      dup2\n      dup2\n      swap1\n      0x00\n      mstore\n      keccak256(0x00, 0x20)\n      add\n      0x00\n      swap1\n      sstore\n      swap1\n      sstore\n        /* \"Role4/NewKeywordPin.sol\":1752:1760  contacts */\n      0x01\n        /* \"Role4/NewKeywordPin.sol\":1752:1765  contacts[_id] */\n      0x00\n        /* \"Role4/NewKeywordPin.sol\":1761:1764  _id */\n      dup5\n        /* \"Role4/NewKeywordPin.sol\":1752:1765  contacts[_id] */\n      dup2\n      mstore\n      0x20\n      add\n      swap1\n      dup2\n      mstore\n      0x20\n      add\n      0x00\n      keccak256\n      0x00\n        /* \"Role4/NewKeywordPin.sol\":1745:1765  delete contacts[_id] */\n      0x00\n      dup3\n      add\n      0x00\n      swap1\n      sstore\n      0x01\n      dup3\n      add\n      0x00\n      tag_79\n      swap2\n      swap1\n      tag_80\n      jump\t// in\n    tag_79:\n      0x02\n      dup3\n      add\n      0x00\n      tag_81\n      swap2\n      swap1\n      tag_80\n      jump\t// in\n    tag_81:\n      0x03\n      dup3\n      add\n      0x00\n      tag_82\n      swap2\n      swap1\n      tag_83\n      jump\t// in\n    tag_82:\n      pop\n      pop\n        /* \"Role4/NewKeywordPin.sol\":1782:1791  idToIndex */\n      0x03\n        /* \"Role4/NewKeywordPin.sol\":1782:1796  idToIndex[_id] */\n      0x00\n        /* \"Role4/NewKeywordPin.sol\":1792:1795  _id */\n      dup5\n        /* \"Role4/NewKeywordPin.sol\":1782:1796  idToIndex[_id] */\n      dup2\n      mstore\n      0x20\n      add\n      swap1\n      dup2\n      mstore\n      0x20\n      add\n      0x00\n      keccak256\n        /* \"Role4/NewKeywordPin.sol\":1775:1796  delete idToIndex[_id] */\n      0x00\n      swap1\n      sstore\n        /* \"Role4/NewKeywordPin.sol\":1450:1803  {... */\n      pop\n      pop\n        /* \"Role4/NewKeywordPin.sol\":1389:1803  function deleteContact(uint _id) external override onlyOwner {... */\n      pop\n      jump\t// out\n        /* \"Role4/NewKeywordPin.sol\":1809:1924  function getContact(uint _id) external view override returns (Contact memory) {... */\n    tag_27:\n        /* \"Role4/NewKeywordPin.sol\":1871:1885  Contact memory */\n      tag_84\n      tag_85\n      jump\t// in\n    tag_84:\n        /* \"Role4/NewKeywordPin.sol\":1904:1912  contacts */\n      0x01\n        /* \"Role4/NewKeywordPin.sol\":1904:1917  contacts[_id] */\n      0x00\n        /* \"Role4/NewKeywordPin.sol\":1913:1916  _id */\n      dup4\n        /* \"Role4/NewKeywordPin.sol\":1904:1917  contacts[_id] */\n      dup2\n      mstore\n      0x20\n      add\n      swap1\n      dup2\n      mstore\n      0x20\n      add\n      0x00\n      keccak256\n        /* \"Role4/NewKeywordPin.sol\":1897:1917  return contacts[_id] */\n      mload(0x40)\n      dup1\n      0x80\n      add\n      0x40\n      mstore\n      swap1\n      dup2\n      0x00\n      dup3\n      add\n      sload\n      dup2\n      mstore\n      0x20\n      add\n      0x01\n      dup3\n      add\n      dup1\n      sload\n      tag_87\n      swap1\n      tag_88\n      jump\t// in\n    tag_87:\n      dup1\n      0x1f\n      add\n      0x20\n      dup1\n      swap2\n      div\n      mul\n      0x20\n      add\n      mload(0x40)\n      swap1\n      dup2\n      add\n      0x40\n      mstore\n      dup1\n      swap3\n      swap2\n      swap1\n      dup2\n      dup2\n      mstore\n      0x20\n      add\n      dup3\n      dup1\n      sload\n      tag_89\n      swap1\n      tag_88\n      jump\t// in\n    tag_89:\n      dup1\n      iszero\n      tag_90\n      jumpi\n      dup1\n      0x1f\n      lt\n      tag_91\n      jumpi\n      0x0100\n      dup1\n      dup4\n      sload\n      div\n      mul\n      dup4\n      mstore\n      swap2\n      0x20\n      add\n      swap2\n      jump(tag_90)\n    tag_91:\n      dup3\n      add\n      swap2\n      swap1\n      0x00\n      mstore\n      keccak256(0x00, 0x20)\n      swap1\n    tag_92:\n      dup2\n      sload\n      dup2\n      mstore\n      swap1\n      0x01\n      add\n      swap1\n      0x20\n      add\n      dup1\n      dup4\n      gt\n      tag_92\n      jumpi\n      dup3\n      swap1\n      sub\n      0x1f\n      and\n      dup3\n      add\n      swap2\n    tag_90:\n      pop\n      pop\n      pop\n      pop\n      pop\n      dup2\n      mstore\n      0x20\n      add\n      0x02\n      dup3\n      add\n      dup1\n      sload\n      tag_93\n      swap1\n      tag_88\n      jump\t// in\n    tag_93:\n      dup1\n      0x1f\n      add\n      0x20\n      dup1\n      swap2\n      div\n      mul\n      0x20\n      add\n      mload(0x40)\n      swap1\n      dup2\n      add\n      0x40\n      mstore\n      dup1\n      swap3\n      swap2\n      swap1\n      dup2\n      dup2\n      mstore\n      0x20\n      add\n      dup3\n      dup1\n      sload\n      tag_94\n      swap1\n      tag_88\n      jump\t// in\n    tag_94:\n      dup1\n      iszero\n      tag_95\n      jumpi\n      dup1\n      0x1f\n      lt\n      tag_96\n      jumpi\n      0x0100\n      dup1\n      dup4\n      sload\n      div\n      mul\n      dup4\n      mstore\n      swap2\n      0x20\n      add\n      swap2\n      jump(tag_95)\n    tag_96:\n      dup3\n      add\n      swap2\n      swap1\n      0x00\n      mstore\n      keccak256(0x00, 0x20)\n      swap1\n    tag_97:\n      dup2\n      sload\n      dup2\n      mstore\n      swap1\n      0x01\n      add\n      swap1\n      0x20\n      add\n      dup1\n      dup4\n      gt\n      tag_97\n      jumpi\n      dup3\n      swap1\n      sub\n      0x1f\n      and\n      dup3\n      add\n      swap2\n    tag_95:\n      pop\n      pop\n      pop\n      pop\n      pop\n      dup2\n      mstore\n      0x20\n      add\n      0x03\n      dup3\n      add\n      dup1\n      sload\n      dup1\n      0x20\n      mul\n      0x20\n      add\n      mload(0x40)\n      swap1\n      dup2\n      add\n      0x40\n      mstore\n      dup1\n      swap3\n      swap2\n      swap1\n      dup2\n      dup2\n      mstore\n      0x20\n      add\n      dup3\n      dup1\n      sload\n      dup1\n      iszero\n      tag_98\n      jumpi\n      0x20\n      mul\n      dup3\n      add\n      swap2\n      swap1\n      0x00\n      mstore\n      keccak256(0x00, 0x20)\n      swap1\n    tag_99:\n      dup2\n      sload\n      dup2\n      mstore\n      0x20\n      add\n      swap1\n      0x01\n      add\n      swap1\n      dup1\n      dup4\n      gt\n      tag_99\n      jumpi\n    tag_98:\n      pop\n      pop\n      pop\n      pop\n      pop\n      dup2\n      mstore\n      pop\n      pop\n      swap1\n      pop\n        /* \"Role4/NewKeywordPin.sol\":1809:1924  function getContact(uint _id) external view override returns (Contact memory) {... */\n      swap2\n      swap1\n      pop\n      jump\t// out\n        /* \"Role4/NewKeywordPin.sol\":1930:2233  function getAllContacts() external view override returns (Contact[] memory) {... */\n    tag_31:\n        /* \"Role4/NewKeywordPin.sol\":1988:2004  Contact[] memory */\n      0x60\n        /* \"Role4/NewKeywordPin.sol\":2016:2044  Contact[] memory allContacts */\n      0x00\n        /* \"Role4/NewKeywordPin.sol\":2061:2071  contactIds */\n      0x02\n        /* \"Role4/NewKeywordPin.sol\":2061:2078  contactIds.length */\n      dup1\n      sload\n      swap1\n      pop\n        /* \"Role4/NewKeywordPin.sol\":2047:2079  new Contact[](contactIds.length) */\n      0xffffffffffffffff\n      dup2\n      gt\n      iszero\n      tag_101\n      jumpi\n      tag_102\n      tag_103\n      jump\t// in\n    tag_102:\n    tag_101:\n      mload(0x40)\n      swap1\n      dup1\n      dup3\n      mstore\n      dup1\n      0x20\n      mul\n      0x20\n      add\n      dup3\n      add\n      0x40\n      mstore\n      dup1\n      iszero\n      tag_104\n      jumpi\n      dup2\n      0x20\n      add\n    tag_105:\n      tag_106\n      tag_85\n      jump\t// in\n    tag_106:\n      dup2\n      mstore\n      0x20\n      add\n      swap1\n      0x01\n      swap1\n      sub\n      swap1\n      dup2\n      tag_105\n      jumpi\n      swap1\n      pop\n    tag_104:\n      pop\n        /* \"Role4/NewKeywordPin.sol\":2016:2079  Contact[] memory allContacts = new Contact[](contactIds.length) */\n      swap1\n      pop\n        /* \"Role4/NewKeywordPin.sol\":2094:2100  uint i */\n      0x00\n        /* \"Role4/NewKeywordPin.sol\":2103:2104  0 */\n      0x00\n        /* \"Role4/NewKeywordPin.sol\":2094:2104  uint i = 0 */\n      swap1\n      pop\n        /* \"Role4/NewKeywordPin.sol\":2089:2199  for (uint i = 0; i < contactIds.length; i++) {... */\n    tag_107:\n        /* \"Role4/NewKeywordPin.sol\":2110:2120  contactIds */\n      0x02\n        /* \"Role4/NewKeywordPin.sol\":2110:2127  contactIds.length */\n      dup1\n      sload\n      swap1\n      pop\n        /* \"Role4/NewKeywordPin.sol\":2106:2107  i */\n      dup2\n        /* \"Role4/NewKeywordPin.sol\":2106:2127  i < contactIds.length */\n      lt\n        /* \"Role4/NewKeywordPin.sol\":2089:2199  for (uint i = 0; i < contactIds.length; i++) {... */\n      iszero\n      tag_108\n      jumpi\n        /* \"Role4/NewKeywordPin.sol\":2165:2173  contacts */\n      0x01\n        /* \"Role4/NewKeywordPin.sol\":2165:2188  contacts[contactIds[i]] */\n      0x00\n        /* \"Role4/NewKeywordPin.sol\":2174:2184  contactIds */\n      0x02\n        /* \"Role4/NewKeywordPin.sol\":2185:2186  i */\n      dup4\n        /* \"Role4/NewKeywordPin.sol\":2174:2187  contactIds[i] */\n      dup2\n      sload\n      dup2\n      lt\n      tag_110\n      jumpi\n      tag_111\n      tag_62\n      jump\t// in\n    tag_111:\n    tag_110:\n      swap1\n      0x00\n      mstore\n      keccak256(0x00, 0x20)\n      add\n      sload\n        /* \"Role4/NewKeywordPin.sol\":2165:2188  contacts[contactIds[i]] */\n      dup2\n      mstore\n      0x20\n      add\n      swap1\n      dup2\n      mstore\n      0x20\n      add\n      0x00\n      keccak256\n        /* \"Role4/NewKeywordPin.sol\":2148:2188  allContacts[i] = contacts[contactIds[i]] */\n      mload(0x40)\n      dup1\n      0x80\n      add\n      0x40\n      mstore\n      swap1\n      dup2\n      0x00\n      dup3\n      add\n      sload\n      dup2\n      mstore\n      0x20\n      add\n      0x01\n      dup3\n      add\n      dup1\n      sload\n      tag_113\n      swap1\n      tag_88\n      jump\t// in\n    tag_113:\n      dup1\n      0x1f\n      add\n      0x20\n      dup1\n      swap2\n      div\n      mul\n      0x20\n      add\n      mload(0x40)\n      swap1\n      dup2\n      add\n      0x40\n      mstore\n      dup1\n      swap3\n      swap2\n      swap1\n      dup2\n      dup2\n      mstore\n      0x20\n      add\n      dup3\n      dup1\n      sload\n      tag_114\n      swap1\n      tag_88\n      jump\t// in\n    tag_114:\n      dup1\n      iszero\n      tag_115\n      jumpi\n      dup1\n      0x1f\n      lt\n      tag_116\n      jumpi\n      0x0100\n      dup1\n      dup4\n      sload\n      div\n      mul\n      dup4\n      mstore\n      swap2\n      0x20\n      add\n      swap2\n      jump(tag_115)\n    tag_116:\n      dup3\n      add\n      swap2\n      swap1\n      0x00\n      mstore\n      keccak256(0x00, 0x20)\n      swap1\n    tag_117:\n      dup2\n      sload\n      dup2\n      mstore\n      swap1\n      0x01\n      add\n      swap1\n      0x20\n      add\n      dup1\n      dup4\n      gt\n      tag_117\n      jumpi\n      dup3\n      swap1\n      sub\n      0x1f\n      and\n      dup3\n      add\n      swap2\n    tag_115:\n      pop\n      pop\n      pop\n      pop\n      pop\n      dup2\n      mstore\n      0x20\n      add\n      0x02\n      dup3\n      add\n      dup1\n      sload\n      tag_118\n      swap1\n      tag_88\n      jump\t// in\n    tag_118:\n      dup1\n      0x1f\n      add\n      0x20\n      dup1\n      swap2\n      div\n      mul\n      0x20\n      add\n      mload(0x40)\n      swap1\n      dup2\n      add\n      0x40\n      mstore\n      dup1\n      swap3\n      swap2\n      swap1\n      dup2\n      dup2\n      mstore\n      0x20\n      add\n      dup3\n      dup1\n      sload\n      tag_119\n      swap1\n      tag_88\n      jump\t// in\n    tag_119:\n      dup1\n      iszero\n      tag_120\n      jumpi\n      dup1\n      0x1f\n      lt\n      tag_121\n      jumpi\n      0x0100\n      dup1\n      dup4\n      sload\n      div\n      mul\n      dup4\n      mstore\n      swap2\n      0x20\n      add\n      swap2\n      jump(tag_120)\n    tag_121:\n      dup3\n      add\n      swap2\n      swap1\n      0x00\n      mstore\n      keccak256(0x00, 0x20)\n      swap1\n    tag_122:\n      dup2\n      sload\n      dup2\n      mstore\n      swap1\n      0x01\n      add\n      swap1\n      0x20\n      add\n      dup1\n      dup4\n      gt\n      tag_122\n      jumpi\n      dup3\n      swap1\n      sub\n      0x1f\n      and\n      dup3\n      add\n      swap2\n    tag_120:\n      pop\n      pop\n      pop\n      pop\n      pop\n      dup2\n      mstore\n      0x20\n      add\n      0x03\n      dup3\n      add\n      dup1\n      sload\n      dup1\n      0x20\n      mul\n      0x20\n      add\n      mload(0x40)\n      swap1\n      dup2\n      add\n      0x40\n      mstore\n      dup1\n      swap3\n      swap2\n      swap1\n      dup2\n      dup2\n      mstore\n      0x20\n      add\n      dup3\n      dup1\n      sload\n      dup1\n      iszero\n      tag_123\n      jumpi\n      0x20\n      mul\n      dup3\n      add\n      swap2\n      swap1\n      0x00\n      mstore\n      keccak256(0x00, 0x20)\n      swap1\n    tag_124:\n      dup2\n      sload\n      dup2\n      mstore\n      0x20\n      add\n      swap1\n      0x01\n      add\n      swap1\n      dup1\n      dup4\n      gt\n      tag_124\n      jumpi\n    tag_123:\n      pop\n      pop\n      pop\n      pop\n      pop\n      dup2\n      mstore\n      pop\n      pop\n        /* \"Role4/NewKeywordPin.sol\":2148:2159  allContacts */\n      dup3\n        /* \"Role4/NewKeywordPin.sol\":2160:2161  i */\n      dup3\n        /* \"Role4/NewKeywordPin.sol\":2148:2162  allContacts[i] */\n      dup2\n      mload\n      dup2\n      lt\n      tag_125\n      jumpi\n      tag_126\n      tag_62\n      jump\t// in\n    tag_126:\n    tag_125:\n      0x20\n      mul\n      0x20\n      add\n      add\n        /* \"Role4/NewKeywordPin.sol\":2148:2188  allContacts[i] = contacts[contactIds[i]] */\n      dup2\n      swap1\n      mstore\n      pop\n        /* \"Role4/NewKeywordPin.sol\":2129:2132  i++ */\n      dup1\n      dup1\n      0x01\n      add\n      swap2\n      pop\n      pop\n        /* \"Role4/NewKeywordPin.sol\":2089:2199  for (uint i = 0; i < contactIds.length; i++) {... */\n      jump(tag_107)\n    tag_108:\n      pop\n        /* \"Role4/NewKeywordPin.sol\":2215:2226  allContacts */\n      dup1\n        /* \"Role4/NewKeywordPin.sol\":2208:2226  return allContacts */\n      swap2\n      pop\n      pop\n        /* \"Role4/NewKeywordPin.sol\":1930:2233  function getAllContacts() external view override returns (Contact[] memory) {... */\n      swap1\n      jump\t// out\n        /* \"@openzeppelin/contracts/access/Ownable.sol\":2543:2758  function transferOwnership(address newOwner) public virtual onlyOwner {... */\n    tag_37:\n        /* \"@openzeppelin/contracts/access/Ownable.sol\":1531:1544  _checkOwner() */\n      tag_128\n        /* \"@openzeppelin/contracts/access/Ownable.sol\":1531:1542  _checkOwner */\n      tag_40\n        /* \"@openzeppelin/contracts/access/Ownable.sol\":1531:1544  _checkOwner() */\n      jump\t// in\n    tag_128:\n        /* \"@openzeppelin/contracts/access/Ownable.sol\":2647:2648  0 */\n      0x00\n        /* \"@openzeppelin/contracts/access/Ownable.sol\":2627:2649  newOwner == address(0) */\n      0xffffffffffffffffffffffffffffffffffffffff\n      and\n        /* \"@openzeppelin/contracts/access/Ownable.sol\":2627:2635  newOwner */\n      dup2\n        /* \"@openzeppelin/contracts/access/Ownable.sol\":2627:2649  newOwner == address(0) */\n      0xffffffffffffffffffffffffffffffffffffffff\n      and\n      sub\n        /* \"@openzeppelin/contracts/access/Ownable.sol\":2623:2714  if (newOwner == address(0)) {... */\n      tag_130\n      jumpi\n        /* \"@openzeppelin/contracts/access/Ownable.sol\":2700:2701  0 */\n      0x00\n        /* \"@openzeppelin/contracts/access/Ownable.sol\":2672:2703  OwnableInvalidOwner(address(0)) */\n      mload(0x40)\n      0x1e4fbdf700000000000000000000000000000000000000000000000000000000\n      dup2\n      mstore\n      0x04\n      add\n      tag_131\n      swap2\n      swap1\n      tag_20\n      jump\t// in\n    tag_131:\n      mload(0x40)\n      dup1\n      swap2\n      sub\n      swap1\n      revert\n        /* \"@openzeppelin/contracts/access/Ownable.sol\":2623:2714  if (newOwner == address(0)) {... */\n    tag_130:\n        /* \"@openzeppelin/contracts/access/Ownable.sol\":2723:2751  _transferOwnership(newOwner) */\n      tag_132\n        /* \"@openzeppelin/contracts/access/Ownable.sol\":2742:2750  newOwner */\n      dup2\n        /* \"@openzeppelin/contracts/access/Ownable.sol\":2723:2741  _transferOwnership */\n      tag_54\n        /* \"@openzeppelin/contracts/access/Ownable.sol\":2723:2751  _transferOwnership(newOwner) */\n      jump\t// in\n    tag_132:\n        /* \"@openzeppelin/contracts/access/Ownable.sol\":2543:2758  function transferOwnership(address newOwner) public virtual onlyOwner {... */\n      pop\n      jump\t// out\n        /* \"@openzeppelin/contracts/access/Ownable.sol\":1796:1958  function _checkOwner() internal view virtual {... */\n    tag_40:\n        /* \"@openzeppelin/contracts/access/Ownable.sol\":1866:1878  _msgSender() */\n      tag_134\n        /* \"@openzeppelin/contracts/access/Ownable.sol\":1866:1876  _msgSender */\n      tag_135\n        /* \"@openzeppelin/contracts/access/Ownable.sol\":1866:1878  _msgSender() */\n      jump\t// in\n    tag_134:\n        /* \"@openzeppelin/contracts/access/Ownable.sol\":1855:1878  owner() != _msgSender() */\n      0xffffffffffffffffffffffffffffffffffffffff\n      and\n        /* \"@openzeppelin/contracts/access/Ownable.sol\":1855:1862  owner() */\n      tag_136\n        /* \"@openzeppelin/contracts/access/Ownable.sol\":1855:1860  owner */\n      tag_18\n        /* \"@openzeppelin/contracts/access/Ownable.sol\":1855:1862  owner() */\n      jump\t// in\n    tag_136:\n        /* \"@openzeppelin/contracts/access/Ownable.sol\":1855:1878  owner() != _msgSender() */\n      0xffffffffffffffffffffffffffffffffffffffff\n      and\n      eq\n        /* \"@openzeppelin/contracts/access/Ownable.sol\":1851:1952  if (owner() != _msgSender()) {... */\n      tag_137\n      jumpi\n        /* \"@openzeppelin/contracts/access/Ownable.sol\":1928:1940  _msgSender() */\n      tag_138\n        /* \"@openzeppelin/contracts/access/Ownable.sol\":1928:1938  _msgSender */\n      tag_135\n        /* \"@openzeppelin/contracts/access/Ownable.sol\":1928:1940  _msgSender() */\n      jump\t// in\n    tag_138:\n        /* \"@openzeppelin/contracts/access/Ownable.sol\":1901:1941  OwnableUnauthorizedAccount(_msgSender()) */\n      mload(0x40)\n      0x118cdaa700000000000000000000000000000000000000000000000000000000\n      dup2\n      mstore\n      0x04\n      add\n      tag_139\n      swap2\n      swap1\n      tag_20\n      jump\t// in\n    tag_139:\n      mload(0x40)\n      dup1\n      swap2\n      sub\n      swap1\n      revert\n        /* \"@openzeppelin/contracts/access/Ownable.sol\":1851:1952  if (owner() != _msgSender()) {... */\n    tag_137:\n        /* \"@openzeppelin/contracts/access/Ownable.sol\":1796:1958  function _checkOwner() internal view virtual {... */\n      jump\t// out\n        /* \"@openzeppelin/contracts/access/Ownable.sol\":2912:3099  function _transferOwnership(address newOwner) internal virtual {... */\n    tag_54:\n        /* \"@openzeppelin/contracts/access/Ownable.sol\":2985:3001  address oldOwner */\n      0x00\n        /* \"@openzeppelin/contracts/access/Ownable.sol\":3004:3010  _owner */\n      0x00\n      0x00\n      swap1\n      sload\n      swap1\n      0x0100\n      exp\n      swap1\n      div\n      0xffffffffffffffffffffffffffffffffffffffff\n      and\n        /* \"@openzeppelin/contracts/access/Ownable.sol\":2985:3010  address oldOwner = _owner */\n      swap1\n      pop\n        /* \"@openzeppelin/contracts/access/Ownable.sol\":3029:3037  newOwner */\n      dup2\n        /* \"@openzeppelin/contracts/access/Ownable.sol\":3020:3026  _owner */\n      0x00\n      0x00\n        /* \"@openzeppelin/contracts/access/Ownable.sol\":3020:3037  _owner = newOwner */\n      0x0100\n      exp\n      dup2\n      sload\n      dup2\n      0xffffffffffffffffffffffffffffffffffffffff\n      mul\n      not\n      and\n      swap1\n      dup4\n      0xffffffffffffffffffffffffffffffffffffffff\n      and\n      mul\n      or\n      swap1\n      sstore\n      pop\n        /* \"@openzeppelin/contracts/access/Ownable.sol\":3083:3091  newOwner */\n      dup2\n        /* \"@openzeppelin/contracts/access/Ownable.sol\":3052:3092  OwnershipTransferred(oldOwner, newOwner) */\n      0xffffffffffffffffffffffffffffffffffffffff\n      and\n        /* \"@openzeppelin/contracts/access/Ownable.sol\":3073:3081  oldOwner */\n      dup2\n        /* \"@openzeppelin/contracts/access/Ownable.sol\":3052:3092  OwnershipTransferred(oldOwner, newOwner) */\n      0xffffffffffffffffffffffffffffffffffffffff\n      and\n      0x8be0079c531659141344cd1fd0a4f28419497f9722a3daafe3b4186f6b6457e0\n      mload(0x40)\n      mload(0x40)\n      dup1\n      swap2\n      sub\n      swap1\n      log3\n        /* \"@openzeppelin/contracts/access/Ownable.sol\":2975:3099  {... */\n      pop\n        /* \"@openzeppelin/contracts/access/Ownable.sol\":2912:3099  function _transferOwnership(address newOwner) internal virtual {... */\n      pop\n      jump\t// out\n        /* \"@openzeppelin/contracts/utils/Context.sol\":656:752  function _msgSender() internal view virtual returns (address) {... */\n    tag_135:\n        /* \"@openzeppelin/contracts/utils/Context.sol\":709:716  address */\n      0x00\n        /* \"@openzeppelin/contracts/utils/Context.sol\":735:745  msg.sender */\n      caller\n        /* \"@openzeppelin/contracts/utils/Context.sol\":728:745  return msg.sender */\n      swap1\n      pop\n        /* \"@openzeppelin/contracts/utils/Context.sol\":656:752  function _msgSender() internal view virtual returns (address) {... */\n      swap1\n      jump\t// out\n    tag_46:\n      dup3\n      dup1\n      sload\n      dup3\n      dup3\n      sstore\n      swap1\n      0x00\n      mstore\n      keccak256(0x00, 0x20)\n      swap1\n      dup2\n      add\n      swap3\n      dup3\n      iszero\n      tag_142\n      jumpi\n      swap2\n      0x20\n      mul\n      dup3\n      add\n    tag_143:\n      dup3\n      dup2\n      gt\n      iszero\n      tag_144\n      jumpi\n      dup3\n      mload\n      dup3\n      sstore\n      swap2\n      0x20\n      add\n      swap2\n      swap1\n      0x01\n      add\n      swap1\n      jump(tag_143)\n    tag_144:\n    tag_142:\n      pop\n      swap1\n      pop\n      tag_145\n      swap2\n      swap1\n      tag_146\n      jump\t// in\n    tag_145:\n      pop\n      swap1\n      jump\t// out\n    tag_80:\n      pop\n      dup1\n      sload\n      tag_147\n      swap1\n      tag_88\n      jump\t// in\n    tag_147:\n      0x00\n      dup3\n      sstore\n      dup1\n      0x1f\n      lt\n      tag_149\n      jumpi\n      pop\n      jump(tag_148)\n    tag_149:\n      0x1f\n      add\n      0x20\n      swap1\n      div\n      swap1\n      0x00\n      mstore\n      keccak256(0x00, 0x20)\n      swap1\n      dup2\n      add\n      swap1\n      tag_150\n      swap2\n      swap1\n      tag_146\n      jump\t// in\n    tag_150:\n    tag_148:\n      pop\n      jump\t// out\n    tag_83:\n      pop\n      dup1\n      sload\n      0x00\n      dup3\n      sstore\n      swap1\n      0x00\n      mstore\n      keccak256(0x00, 0x20)\n      swap1\n      dup2\n      add\n      swap1\n      tag_152\n      swap2\n      swap1\n      tag_146\n      jump\t// in\n    tag_152:\n      pop\n      jump\t// out\n    tag_85:\n      mload(0x40)\n      dup1\n      0x80\n      add\n      0x40\n      mstore\n      dup1\n      0x00\n      dup2\n      mstore\n      0x20\n      add\n      0x60\n      dup2\n      mstore\n      0x20\n      add\n      0x60\n      dup2\n      mstore\n      0x20\n      add\n      0x60\n      dup2\n      mstore\n      pop\n      swap1\n      jump\t// out\n    tag_146:\n    tag_153:\n      dup1\n      dup3\n      gt\n      iszero\n      tag_154\n      jumpi\n      0x00\n      dup2\n      0x00\n      swap1\n      sstore\n      pop\n      0x01\n      add\n      jump(tag_153)\n    tag_154:\n      pop\n      swap1\n      jump\t// out\n        /* \"#utility.yul\":7:82   */\n    tag_155:\n        /* \"#utility.yul\":40:46   */\n      0x00\n        /* \"#utility.yul\":73:75   */\n      0x40\n        /* \"#utility.yul\":67:76   */\n      mload\n        /* \"#utility.yul\":57:76   */\n      swap1\n      pop\n        /* \"#utility.yul\":7:82   */\n      swap1\n      jump\t// out\n        /* \"#utility.yul\":88:205   */\n    tag_156:\n        /* \"#utility.yul\":197:198   */\n      0x00\n        /* \"#utility.yul\":194:195   */\n      0x00\n        /* \"#utility.yul\":187:199   */\n      revert\n        /* \"#utility.yul\":211:328   */\n    tag_157:\n        /* \"#utility.yul\":320:321   */\n      0x00\n        /* \"#utility.yul\":317:318   */\n      0x00\n        /* \"#utility.yul\":310:322   */\n      revert\n        /* \"#utility.yul\":334:451   */\n    tag_158:\n        /* \"#utility.yul\":443:444   */\n      0x00\n        /* \"#utility.yul\":440:441   */\n      0x00\n        /* \"#utility.yul\":433:445   */\n      revert\n        /* \"#utility.yul\":457:574   */\n    tag_159:\n        /* \"#utility.yul\":566:567   */\n      0x00\n        /* \"#utility.yul\":563:564   */\n      0x00\n        /* \"#utility.yul\":556:568   */\n      revert\n        /* \"#utility.yul\":580:682   */\n    tag_160:\n        /* \"#utility.yul\":621:627   */\n      0x00\n        /* \"#utility.yul\":672:674   */\n      0x1f\n        /* \"#utility.yul\":668:675   */\n      not\n        /* \"#utility.yul\":663:665   */\n      0x1f\n        /* \"#utility.yul\":656:661   */\n      dup4\n        /* \"#utility.yul\":652:666   */\n      add\n        /* \"#utility.yul\":648:676   */\n      and\n        /* \"#utility.yul\":638:676   */\n      swap1\n      pop\n        /* \"#utility.yul\":580:682   */\n      swap2\n      swap1\n      pop\n      jump\t// out\n        /* \"#utility.yul\":688:868   */\n    tag_103:\n        /* \"#utility.yul\":736:813   */\n      0x4e487b7100000000000000000000000000000000000000000000000000000000\n        /* \"#utility.yul\":733:734   */\n      0x00\n        /* \"#utility.yul\":726:814   */\n      mstore\n        /* \"#utility.yul\":833:837   */\n      0x41\n        /* \"#utility.yul\":830:831   */\n      0x04\n        /* \"#utility.yul\":823:838   */\n      mstore\n        /* \"#utility.yul\":857:861   */\n      0x24\n        /* \"#utility.yul\":854:855   */\n      0x00\n        /* \"#utility.yul\":847:862   */\n      revert\n        /* \"#utility.yul\":874:1155   */\n    tag_161:\n        /* \"#utility.yul\":957:984   */\n      tag_227\n        /* \"#utility.yul\":979:983   */\n      dup3\n        /* \"#utility.yul\":957:984   */\n      tag_160\n      jump\t// in\n    tag_227:\n        /* \"#utility.yul\":949:955   */\n      dup2\n        /* \"#utility.yul\":945:985   */\n      add\n        /* \"#utility.yul\":1087:1093   */\n      dup2\n        /* \"#utility.yul\":1075:1085   */\n      dup2\n        /* \"#utility.yul\":1072:1094   */\n      lt\n        /* \"#utility.yul\":1051:1069   */\n      0xffffffffffffffff\n        /* \"#utility.yul\":1039:1049   */\n      dup3\n        /* \"#utility.yul\":1036:1070   */\n      gt\n        /* \"#utility.yul\":1033:1095   */\n      or\n        /* \"#utility.yul\":1030:1118   */\n      iszero\n      tag_228\n      jumpi\n        /* \"#utility.yul\":1098:1116   */\n      tag_229\n      tag_103\n      jump\t// in\n    tag_229:\n        /* \"#utility.yul\":1030:1118   */\n    tag_228:\n        /* \"#utility.yul\":1138:1148   */\n      dup1\n        /* \"#utility.yul\":1134:1136   */\n      0x40\n        /* \"#utility.yul\":1127:1149   */\n      mstore\n        /* \"#utility.yul\":917:1155   */\n      pop\n        /* \"#utility.yul\":874:1155   */\n      pop\n      pop\n      jump\t// out\n        /* \"#utility.yul\":1161:1290   */\n    tag_162:\n        /* \"#utility.yul\":1195:1201   */\n      0x00\n        /* \"#utility.yul\":1222:1242   */\n      tag_231\n      tag_155\n      jump\t// in\n    tag_231:\n        /* \"#utility.yul\":1212:1242   */\n      swap1\n      pop\n        /* \"#utility.yul\":1251:1284   */\n      tag_232\n        /* \"#utility.yul\":1279:1283   */\n      dup3\n        /* \"#utility.yul\":1271:1277   */\n      dup3\n        /* \"#utility.yul\":1251:1284   */\n      tag_161\n      jump\t// in\n    tag_232:\n        /* \"#utility.yul\":1161:1290   */\n      swap2\n      swap1\n      pop\n      jump\t// out\n        /* \"#utility.yul\":1296:1604   */\n    tag_163:\n        /* \"#utility.yul\":1358:1362   */\n      0x00\n        /* \"#utility.yul\":1448:1466   */\n      0xffffffffffffffff\n        /* \"#utility.yul\":1440:1446   */\n      dup3\n        /* \"#utility.yul\":1437:1467   */\n      gt\n        /* \"#utility.yul\":1434:1490   */\n      iszero\n      tag_234\n      jumpi\n        /* \"#utility.yul\":1470:1488   */\n      tag_235\n      tag_103\n      jump\t// in\n    tag_235:\n        /* \"#utility.yul\":1434:1490   */\n    tag_234:\n        /* \"#utility.yul\":1508:1537   */\n      tag_236\n        /* \"#utility.yul\":1530:1536   */\n      dup3\n        /* \"#utility.yul\":1508:1537   */\n      tag_160\n      jump\t// in\n    tag_236:\n        /* \"#utility.yul\":1500:1537   */\n      swap1\n      pop\n        /* \"#utility.yul\":1592:1596   */\n      0x20\n        /* \"#utility.yul\":1586:1590   */\n      dup2\n        /* \"#utility.yul\":1582:1597   */\n      add\n        /* \"#utility.yul\":1574:1597   */\n      swap1\n      pop\n        /* \"#utility.yul\":1296:1604   */\n      swap2\n      swap1\n      pop\n      jump\t// out\n        /* \"#utility.yul\":1610:1758   */\n    tag_164:\n        /* \"#utility.yul\":1708:1714   */\n      dup3\n        /* \"#utility.yul\":1703:1706   */\n      dup2\n        /* \"#utility.yul\":1698:1701   */\n      dup4\n        /* \"#utility.yul\":1685:1715   */\n      calldatacopy\n        /* \"#utility.yul\":1749:1750   */\n      0x00\n        /* \"#utility.yul\":1740:1746   */\n      dup4\n        /* \"#utility.yul\":1735:1738   */\n      dup4\n        /* \"#utility.yul\":1731:1747   */\n      add\n        /* \"#utility.yul\":1724:1751   */\n      mstore\n        /* \"#utility.yul\":1610:1758   */\n      pop\n      pop\n      pop\n      jump\t// out\n        /* \"#utility.yul\":1764:2189   */\n    tag_165:\n        /* \"#utility.yul\":1842:1847   */\n      0x00\n        /* \"#utility.yul\":1867:1933   */\n      tag_239\n        /* \"#utility.yul\":1883:1932   */\n      tag_240\n        /* \"#utility.yul\":1925:1931   */\n      dup5\n        /* \"#utility.yul\":1883:1932   */\n      tag_163\n      jump\t// in\n    tag_240:\n        /* \"#utility.yul\":1867:1933   */\n      tag_162\n      jump\t// in\n    tag_239:\n        /* \"#utility.yul\":1858:1933   */\n      swap1\n      pop\n        /* \"#utility.yul\":1956:1962   */\n      dup3\n        /* \"#utility.yul\":1949:1954   */\n      dup2\n        /* \"#utility.yul\":1942:1963   */\n      mstore\n        /* \"#utility.yul\":1994:1998   */\n      0x20\n        /* \"#utility.yul\":1987:1992   */\n      dup2\n        /* \"#utility.yul\":1983:1999   */\n      add\n        /* \"#utility.yul\":2032:2035   */\n      dup5\n        /* \"#utility.yul\":2023:2029   */\n      dup5\n        /* \"#utility.yul\":2018:2021   */\n      dup5\n        /* \"#utility.yul\":2014:2030   */\n      add\n        /* \"#utility.yul\":2011:2036   */\n      gt\n        /* \"#utility.yul\":2008:2120   */\n      iszero\n      tag_241\n      jumpi\n        /* \"#utility.yul\":2039:2118   */\n      tag_242\n      tag_159\n      jump\t// in\n    tag_242:\n        /* \"#utility.yul\":2008:2120   */\n    tag_241:\n        /* \"#utility.yul\":2129:2183   */\n      tag_243\n        /* \"#utility.yul\":2176:2182   */\n      dup5\n        /* \"#utility.yul\":2171:2174   */\n      dup3\n        /* \"#utility.yul\":2166:2169   */\n      dup6\n        /* \"#utility.yul\":2129:2183   */\n      tag_164\n      jump\t// in\n    tag_243:\n        /* \"#utility.yul\":1848:2189   */\n      pop\n        /* \"#utility.yul\":1764:2189   */\n      swap4\n      swap3\n      pop\n      pop\n      pop\n      jump\t// out\n        /* \"#utility.yul\":2209:2549   */\n    tag_166:\n        /* \"#utility.yul\":2265:2270   */\n      0x00\n        /* \"#utility.yul\":2314:2317   */\n      dup3\n        /* \"#utility.yul\":2307:2311   */\n      0x1f\n        /* \"#utility.yul\":2299:2305   */\n      dup4\n        /* \"#utility.yul\":2295:2312   */\n      add\n        /* \"#utility.yul\":2291:2318   */\n      slt\n        /* \"#utility.yul\":2281:2403   */\n      tag_245\n      jumpi\n        /* \"#utility.yul\":2322:2401   */\n      tag_246\n      tag_158\n      jump\t// in\n    tag_246:\n        /* \"#utility.yul\":2281:2403   */\n    tag_245:\n        /* \"#utility.yul\":2439:2445   */\n      dup2\n        /* \"#utility.yul\":2426:2446   */\n      calldataload\n        /* \"#utility.yul\":2464:2543   */\n      tag_247\n        /* \"#utility.yul\":2539:2542   */\n      dup5\n        /* \"#utility.yul\":2531:2537   */\n      dup3\n        /* \"#utility.yul\":2524:2528   */\n      0x20\n        /* \"#utility.yul\":2516:2522   */\n      dup7\n        /* \"#utility.yul\":2512:2529   */\n      add\n        /* \"#utility.yul\":2464:2543   */\n      tag_165\n      jump\t// in\n    tag_247:\n        /* \"#utility.yul\":2455:2543   */\n      swap2\n      pop\n        /* \"#utility.yul\":2271:2549   */\n      pop\n        /* \"#utility.yul\":2209:2549   */\n      swap3\n      swap2\n      pop\n      pop\n      jump\t// out\n        /* \"#utility.yul\":2555:2866   */\n    tag_167:\n        /* \"#utility.yul\":2632:2636   */\n      0x00\n        /* \"#utility.yul\":2722:2740   */\n      0xffffffffffffffff\n        /* \"#utility.yul\":2714:2720   */\n      dup3\n        /* \"#utility.yul\":2711:2741   */\n      gt\n        /* \"#utility.yul\":2708:2764   */\n      iszero\n      tag_249\n      jumpi\n        /* \"#utility.yul\":2744:2762   */\n      tag_250\n      tag_103\n      jump\t// in\n    tag_250:\n        /* \"#utility.yul\":2708:2764   */\n    tag_249:\n        /* \"#utility.yul\":2794:2798   */\n      0x20\n        /* \"#utility.yul\":2786:2792   */\n      dup3\n        /* \"#utility.yul\":2782:2799   */\n      mul\n        /* \"#utility.yul\":2774:2799   */\n      swap1\n      pop\n        /* \"#utility.yul\":2854:2858   */\n      0x20\n        /* \"#utility.yul\":2848:2852   */\n      dup2\n        /* \"#utility.yul\":2844:2859   */\n      add\n        /* \"#utility.yul\":2836:2859   */\n      swap1\n      pop\n        /* \"#utility.yul\":2555:2866   */\n      swap2\n      swap1\n      pop\n      jump\t// out\n        /* \"#utility.yul\":2872:2989   */\n    tag_168:\n        /* \"#utility.yul\":2981:2982   */\n      0x00\n        /* \"#utility.yul\":2978:2979   */\n      0x00\n        /* \"#utility.yul\":2971:2983   */\n      revert\n        /* \"#utility.yul\":2995:3072   */\n    tag_169:\n        /* \"#utility.yul\":3032:3039   */\n      0x00\n        /* \"#utility.yul\":3061:3066   */\n      dup2\n        /* \"#utility.yul\":3050:3066   */\n      swap1\n      pop\n        /* \"#utility.yul\":2995:3072   */\n      swap2\n      swap1\n      pop\n      jump\t// out\n        /* \"#utility.yul\":3078:3200   */\n    tag_170:\n        /* \"#utility.yul\":3151:3175   */\n      tag_254\n        /* \"#utility.yul\":3169:3174   */\n      dup2\n        /* \"#utility.yul\":3151:3175   */\n      tag_169\n      jump\t// in\n    tag_254:\n        /* \"#utility.yul\":3144:3149   */\n      dup2\n        /* \"#utility.yul\":3141:3176   */\n      eq\n        /* \"#utility.yul\":3131:3194   */\n      tag_255\n      jumpi\n        /* \"#utility.yul\":3190:3191   */\n      0x00\n        /* \"#utility.yul\":3187:3188   */\n      0x00\n        /* \"#utility.yul\":3180:3192   */\n      revert\n        /* \"#utility.yul\":3131:3194   */\n    tag_255:\n        /* \"#utility.yul\":3078:3200   */\n      pop\n      jump\t// out\n        /* \"#utility.yul\":3206:3345   */\n    tag_171:\n        /* \"#utility.yul\":3252:3257   */\n      0x00\n        /* \"#utility.yul\":3290:3296   */\n      dup2\n        /* \"#utility.yul\":3277:3297   */\n      calldataload\n        /* \"#utility.yul\":3268:3297   */\n      swap1\n      pop\n        /* \"#utility.yul\":3306:3339   */\n      tag_257\n        /* \"#utility.yul\":3333:3338   */\n      dup2\n        /* \"#utility.yul\":3306:3339   */\n      tag_170\n      jump\t// in\n    tag_257:\n        /* \"#utility.yul\":3206:3345   */\n      swap3\n      swap2\n      pop\n      pop\n      jump\t// out\n        /* \"#utility.yul\":3368:4078   */\n    tag_172:\n        /* \"#utility.yul\":3464:3469   */\n      0x00\n        /* \"#utility.yul\":3489:3570   */\n      tag_259\n        /* \"#utility.yul\":3505:3569   */\n      tag_260\n        /* \"#utility.yul\":3562:3568   */\n      dup5\n        /* \"#utility.yul\":3505:3569   */\n      tag_167\n      jump\t// in\n    tag_260:\n        /* \"#utility.yul\":3489:3570   */\n      tag_162\n      jump\t// in\n    tag_259:\n        /* \"#utility.yul\":3480:3570   */\n      swap1\n      pop\n        /* \"#utility.yul\":3590:3595   */\n      dup1\n        /* \"#utility.yul\":3619:3625   */\n      dup4\n        /* \"#utility.yul\":3612:3617   */\n      dup3\n        /* \"#utility.yul\":3605:3626   */\n      mstore\n        /* \"#utility.yul\":3653:3657   */\n      0x20\n        /* \"#utility.yul\":3646:3651   */\n      dup3\n        /* \"#utility.yul\":3642:3658   */\n      add\n        /* \"#utility.yul\":3635:3658   */\n      swap1\n      pop\n        /* \"#utility.yul\":3706:3710   */\n      0x20\n        /* \"#utility.yul\":3698:3704   */\n      dup5\n        /* \"#utility.yul\":3694:3711   */\n      mul\n        /* \"#utility.yul\":3686:3692   */\n      dup4\n        /* \"#utility.yul\":3682:3712   */\n      add\n        /* \"#utility.yul\":3735:3738   */\n      dup6\n        /* \"#utility.yul\":3727:3733   */\n      dup2\n        /* \"#utility.yul\":3724:3739   */\n      gt\n        /* \"#utility.yul\":3721:3843   */\n      iszero\n      tag_261\n      jumpi\n        /* \"#utility.yul\":3754:3833   */\n      tag_262\n      tag_168\n      jump\t// in\n    tag_262:\n        /* \"#utility.yul\":3721:3843   */\n    tag_261:\n        /* \"#utility.yul\":3869:3875   */\n      dup4\n        /* \"#utility.yul\":3852:4072   */\n    tag_263:\n        /* \"#utility.yul\":3886:3892   */\n      dup2\n        /* \"#utility.yul\":3881:3884   */\n      dup2\n        /* \"#utility.yul\":3878:3893   */\n      lt\n        /* \"#utility.yul\":3852:4072   */\n      iszero\n      tag_265\n      jumpi\n        /* \"#utility.yul\":3961:3964   */\n      dup1\n        /* \"#utility.yul\":3990:4027   */\n      tag_266\n        /* \"#utility.yul\":4023:4026   */\n      dup9\n        /* \"#utility.yul\":4011:4021   */\n      dup3\n        /* \"#utility.yul\":3990:4027   */\n      tag_171\n      jump\t// in\n    tag_266:\n        /* \"#utility.yul\":3985:3988   */\n      dup5\n        /* \"#utility.yul\":3978:4028   */\n      mstore\n        /* \"#utility.yul\":4057:4061   */\n      0x20\n        /* \"#utility.yul\":4052:4055   */\n      dup5\n        /* \"#utility.yul\":4048:4062   */\n      add\n        /* \"#utility.yul\":4041:4062   */\n      swap4\n      pop\n        /* \"#utility.yul\":3928:4072   */\n      pop\n        /* \"#utility.yul\":3912:3916   */\n      0x20\n        /* \"#utility.yul\":3907:3910   */\n      dup2\n        /* \"#utility.yul\":3903:3917   */\n      add\n        /* \"#utility.yul\":3896:3917   */\n      swap1\n      pop\n        /* \"#utility.yul\":3852:4072   */\n      jump(tag_263)\n    tag_265:\n        /* \"#utility.yul\":3856:3877   */\n      pop\n        /* \"#utility.yul\":3470:4078   */\n      pop\n      pop\n        /* \"#utility.yul\":3368:4078   */\n      swap4\n      swap3\n      pop\n      pop\n      pop\n      jump\t// out\n        /* \"#utility.yul\":4101:4471   */\n    tag_173:\n        /* \"#utility.yul\":4172:4177   */\n      0x00\n        /* \"#utility.yul\":4221:4224   */\n      dup3\n        /* \"#utility.yul\":4214:4218   */\n      0x1f\n        /* \"#utility.yul\":4206:4212   */\n      dup4\n        /* \"#utility.yul\":4202:4219   */\n      add\n        /* \"#utility.yul\":4198:4225   */\n      slt\n        /* \"#utility.yul\":4188:4310   */\n      tag_268\n      jumpi\n        /* \"#utility.yul\":4229:4308   */\n      tag_269\n      tag_158\n      jump\t// in\n    tag_269:\n        /* \"#utility.yul\":4188:4310   */\n    tag_268:\n        /* \"#utility.yul\":4346:4352   */\n      dup2\n        /* \"#utility.yul\":4333:4353   */\n      calldataload\n        /* \"#utility.yul\":4371:4465   */\n      tag_270\n        /* \"#utility.yul\":4461:4464   */\n      dup5\n        /* \"#utility.yul\":4453:4459   */\n      dup3\n        /* \"#utility.yul\":4446:4450   */\n      0x20\n        /* \"#utility.yul\":4438:4444   */\n      dup7\n        /* \"#utility.yul\":4434:4451   */\n      add\n        /* \"#utility.yul\":4371:4465   */\n      tag_172\n      jump\t// in\n    tag_270:\n        /* \"#utility.yul\":4362:4465   */\n      swap2\n      pop\n        /* \"#utility.yul\":4178:4471   */\n      pop\n        /* \"#utility.yul\":4101:4471   */\n      swap3\n      swap2\n      pop\n      pop\n      jump\t// out\n        /* \"#utility.yul\":4477:5666   */\n    tag_13:\n        /* \"#utility.yul\":4599:4605   */\n      0x00\n        /* \"#utility.yul\":4607:4613   */\n      0x00\n        /* \"#utility.yul\":4615:4621   */\n      0x00\n        /* \"#utility.yul\":4664:4666   */\n      0x60\n        /* \"#utility.yul\":4652:4661   */\n      dup5\n        /* \"#utility.yul\":4643:4650   */\n      dup7\n        /* \"#utility.yul\":4639:4662   */\n      sub\n        /* \"#utility.yul\":4635:4667   */\n      slt\n        /* \"#utility.yul\":4632:4751   */\n      iszero\n      tag_272\n      jumpi\n        /* \"#utility.yul\":4670:4749   */\n      tag_273\n      tag_156\n      jump\t// in\n    tag_273:\n        /* \"#utility.yul\":4632:4751   */\n    tag_272:\n        /* \"#utility.yul\":4818:4819   */\n      0x00\n        /* \"#utility.yul\":4807:4816   */\n      dup5\n        /* \"#utility.yul\":4803:4820   */\n      add\n        /* \"#utility.yul\":4790:4821   */\n      calldataload\n        /* \"#utility.yul\":4848:4866   */\n      0xffffffffffffffff\n        /* \"#utility.yul\":4840:4846   */\n      dup2\n        /* \"#utility.yul\":4837:4867   */\n      gt\n        /* \"#utility.yul\":4834:4951   */\n      iszero\n      tag_274\n      jumpi\n        /* \"#utility.yul\":4870:4949   */\n      tag_275\n      tag_157\n      jump\t// in\n    tag_275:\n        /* \"#utility.yul\":4834:4951   */\n    tag_274:\n        /* \"#utility.yul\":4975:5038   */\n      tag_276\n        /* \"#utility.yul\":5030:5037   */\n      dup7\n        /* \"#utility.yul\":5021:5027   */\n      dup3\n        /* \"#utility.yul\":5010:5019   */\n      dup8\n        /* \"#utility.yul\":5006:5028   */\n      add\n        /* \"#utility.yul\":4975:5038   */\n      tag_166\n      jump\t// in\n    tag_276:\n        /* \"#utility.yul\":4965:5038   */\n      swap4\n      pop\n        /* \"#utility.yul\":4761:5048   */\n      pop\n        /* \"#utility.yul\":5115:5117   */\n      0x20\n        /* \"#utility.yul\":5104:5113   */\n      dup5\n        /* \"#utility.yul\":5100:5118   */\n      add\n        /* \"#utility.yul\":5087:5119   */\n      calldataload\n        /* \"#utility.yul\":5146:5164   */\n      0xffffffffffffffff\n        /* \"#utility.yul\":5138:5144   */\n      dup2\n        /* \"#utility.yul\":5135:5165   */\n      gt\n        /* \"#utility.yul\":5132:5249   */\n      iszero\n      tag_277\n      jumpi\n        /* \"#utility.yul\":5168:5247   */\n      tag_278\n      tag_157\n      jump\t// in\n    tag_278:\n        /* \"#utility.yul\":5132:5249   */\n    tag_277:\n        /* \"#utility.yul\":5273:5336   */\n      tag_279\n        /* \"#utility.yul\":5328:5335   */\n      dup7\n        /* \"#utility.yul\":5319:5325   */\n      dup3\n        /* \"#utility.yul\":5308:5317   */\n      dup8\n        /* \"#utility.yul\":5304:5326   */\n      add\n        /* \"#utility.yul\":5273:5336   */\n      tag_166\n      jump\t// in\n    tag_279:\n        /* \"#utility.yul\":5263:5336   */\n      swap3\n      pop\n        /* \"#utility.yul\":5058:5346   */\n      pop\n        /* \"#utility.yul\":5413:5415   */\n      0x40\n        /* \"#utility.yul\":5402:5411   */\n      dup5\n        /* \"#utility.yul\":5398:5416   */\n      add\n        /* \"#utility.yul\":5385:5417   */\n      calldataload\n        /* \"#utility.yul\":5444:5462   */\n      0xffffffffffffffff\n        /* \"#utility.yul\":5436:5442   */\n      dup2\n        /* \"#utility.yul\":5433:5463   */\n      gt\n        /* \"#utility.yul\":5430:5547   */\n      iszero\n      tag_280\n      jumpi\n        /* \"#utility.yul\":5466:5545   */\n      tag_281\n      tag_157\n      jump\t// in\n    tag_281:\n        /* \"#utility.yul\":5430:5547   */\n    tag_280:\n        /* \"#utility.yul\":5571:5649   */\n      tag_282\n        /* \"#utility.yul\":5641:5648   */\n      dup7\n        /* \"#utility.yul\":5632:5638   */\n      dup3\n        /* \"#utility.yul\":5621:5630   */\n      dup8\n        /* \"#utility.yul\":5617:5639   */\n      add\n        /* \"#utility.yul\":5571:5649   */\n      tag_173\n      jump\t// in\n    tag_282:\n        /* \"#utility.yul\":5561:5649   */\n      swap2\n      pop\n        /* \"#utility.yul\":5356:5659   */\n      pop\n        /* \"#utility.yul\":4477:5666   */\n      swap3\n      pop\n      swap3\n      pop\n      swap3\n      jump\t// out\n        /* \"#utility.yul\":5672:5798   */\n    tag_174:\n        /* \"#utility.yul\":5709:5716   */\n      0x00\n        /* \"#utility.yul\":5749:5791   */\n      0xffffffffffffffffffffffffffffffffffffffff\n        /* \"#utility.yul\":5742:5747   */\n      dup3\n        /* \"#utility.yul\":5738:5792   */\n      and\n        /* \"#utility.yul\":5727:5792   */\n      swap1\n      pop\n        /* \"#utility.yul\":5672:5798   */\n      swap2\n      swap1\n      pop\n      jump\t// out\n        /* \"#utility.yul\":5804:5900   */\n    tag_175:\n        /* \"#utility.yul\":5841:5848   */\n      0x00\n        /* \"#utility.yul\":5870:5894   */\n      tag_285\n        /* \"#utility.yul\":5888:5893   */\n      dup3\n        /* \"#utility.yul\":5870:5894   */\n      tag_174\n      jump\t// in\n    tag_285:\n        /* \"#utility.yul\":5859:5894   */\n      swap1\n      pop\n        /* \"#utility.yul\":5804:5900   */\n      swap2\n      swap1\n      pop\n      jump\t// out\n        /* \"#utility.yul\":5906:6024   */\n    tag_176:\n        /* \"#utility.yul\":5993:6017   */\n      tag_287\n        /* \"#utility.yul\":6011:6016   */\n      dup2\n        /* \"#utility.yul\":5993:6017   */\n      tag_175\n      jump\t// in\n    tag_287:\n        /* \"#utility.yul\":5988:5991   */\n      dup3\n        /* \"#utility.yul\":5981:6018   */\n      mstore\n        /* \"#utility.yul\":5906:6024   */\n      pop\n      pop\n      jump\t// out\n        /* \"#utility.yul\":6030:6252   */\n    tag_20:\n        /* \"#utility.yul\":6123:6127   */\n      0x00\n        /* \"#utility.yul\":6161:6163   */\n      0x20\n        /* \"#utility.yul\":6150:6159   */\n      dup3\n        /* \"#utility.yul\":6146:6164   */\n      add\n        /* \"#utility.yul\":6138:6164   */\n      swap1\n      pop\n        /* \"#utility.yul\":6174:6245   */\n      tag_289\n        /* \"#utility.yul\":6242:6243   */\n      0x00\n        /* \"#utility.yul\":6231:6240   */\n      dup4\n        /* \"#utility.yul\":6227:6244   */\n      add\n        /* \"#utility.yul\":6218:6224   */\n      dup5\n        /* \"#utility.yul\":6174:6245   */\n      tag_176\n      jump\t// in\n    tag_289:\n        /* \"#utility.yul\":6030:6252   */\n      swap3\n      swap2\n      pop\n      pop\n      jump\t// out\n        /* \"#utility.yul\":6258:6587   */\n    tag_23:\n        /* \"#utility.yul\":6317:6323   */\n      0x00\n        /* \"#utility.yul\":6366:6368   */\n      0x20\n        /* \"#utility.yul\":6354:6363   */\n      dup3\n        /* \"#utility.yul\":6345:6352   */\n      dup5\n        /* \"#utility.yul\":6341:6364   */\n      sub\n        /* \"#utility.yul\":6337:6369   */\n      slt\n        /* \"#utility.yul\":6334:6453   */\n      iszero\n      tag_291\n      jumpi\n        /* \"#utility.yul\":6372:6451   */\n      tag_292\n      tag_156\n      jump\t// in\n    tag_292:\n        /* \"#utility.yul\":6334:6453   */\n    tag_291:\n        /* \"#utility.yul\":6492:6493   */\n      0x00\n        /* \"#utility.yul\":6517:6570   */\n      tag_293\n        /* \"#utility.yul\":6562:6569   */\n      dup5\n        /* \"#utility.yul\":6553:6559   */\n      dup3\n        /* \"#utility.yul\":6542:6551   */\n      dup6\n        /* \"#utility.yul\":6538:6560   */\n      add\n        /* \"#utility.yul\":6517:6570   */\n      tag_171\n      jump\t// in\n    tag_293:\n        /* \"#utility.yul\":6507:6570   */\n      swap2\n      pop\n        /* \"#utility.yul\":6463:6580   */\n      pop\n        /* \"#utility.yul\":6258:6587   */\n      swap3\n      swap2\n      pop\n      pop\n      jump\t// out\n        /* \"#utility.yul\":6593:6701   */\n    tag_177:\n        /* \"#utility.yul\":6670:6694   */\n      tag_295\n        /* \"#utility.yul\":6688:6693   */\n      dup2\n        /* \"#utility.yul\":6670:6694   */\n      tag_169\n      jump\t// in\n    tag_295:\n        /* \"#utility.yul\":6665:6668   */\n      dup3\n        /* \"#utility.yul\":6658:6695   */\n      mstore\n        /* \"#utility.yul\":6593:6701   */\n      pop\n      pop\n      jump\t// out\n        /* \"#utility.yul\":6707:6806   */\n    tag_178:\n        /* \"#utility.yul\":6759:6765   */\n      0x00\n        /* \"#utility.yul\":6793:6798   */\n      dup2\n        /* \"#utility.yul\":6787:6799   */\n      mload\n        /* \"#utility.yul\":6777:6799   */\n      swap1\n      pop\n        /* \"#utility.yul\":6707:6806   */\n      swap2\n      swap1\n      pop\n      jump\t// out\n        /* \"#utility.yul\":6812:6971   */\n    tag_179:\n        /* \"#utility.yul\":6886:6897   */\n      0x00\n        /* \"#utility.yul\":6920:6926   */\n      dup3\n        /* \"#utility.yul\":6915:6918   */\n      dup3\n        /* \"#utility.yul\":6908:6927   */\n      mstore\n        /* \"#utility.yul\":6960:6964   */\n      0x20\n        /* \"#utility.yul\":6955:6958   */\n      dup3\n        /* \"#utility.yul\":6951:6965   */\n      add\n        /* \"#utility.yul\":6936:6965   */\n      swap1\n      pop\n        /* \"#utility.yul\":6812:6971   */\n      swap3\n      swap2\n      pop\n      pop\n      jump\t// out\n        /* \"#utility.yul\":6977:7116   */\n    tag_180:\n        /* \"#utility.yul\":7066:7072   */\n      dup3\n        /* \"#utility.yul\":7061:7064   */\n      dup2\n        /* \"#utility.yul\":7056:7059   */\n      dup4\n        /* \"#utility.yul\":7050:7073   */\n      mcopy\n        /* \"#utility.yul\":7107:7108   */\n      0x00\n        /* \"#utility.yul\":7098:7104   */\n      dup4\n        /* \"#utility.yul\":7093:7096   */\n      dup4\n        /* \"#utility.yul\":7089:7105   */\n      add\n        /* \"#utility.yul\":7082:7109   */\n      mstore\n        /* \"#utility.yul\":6977:7116   */\n      pop\n      pop\n      pop\n      jump\t// out\n        /* \"#utility.yul\":7122:7479   */\n    tag_181:\n        /* \"#utility.yul\":7200:7203   */\n      0x00\n        /* \"#utility.yul\":7228:7267   */\n      tag_300\n        /* \"#utility.yul\":7261:7266   */\n      dup3\n        /* \"#utility.yul\":7228:7267   */\n      tag_178\n      jump\t// in\n    tag_300:\n        /* \"#utility.yul\":7283:7344   */\n      tag_301\n        /* \"#utility.yul\":7337:7343   */\n      dup2\n        /* \"#utility.yul\":7332:7335   */\n      dup6\n        /* \"#utility.yul\":7283:7344   */\n      tag_179\n      jump\t// in\n    tag_301:\n        /* \"#utility.yul\":7276:7344   */\n      swap4\n      pop\n        /* \"#utility.yul\":7353:7418   */\n      tag_302\n        /* \"#utility.yul\":7411:7417   */\n      dup2\n        /* \"#utility.yul\":7406:7409   */\n      dup6\n        /* \"#utility.yul\":7399:7403   */\n      0x20\n        /* \"#utility.yul\":7392:7397   */\n      dup7\n        /* \"#utility.yul\":7388:7404   */\n      add\n        /* \"#utility.yul\":7353:7418   */\n      tag_180\n      jump\t// in\n    tag_302:\n        /* \"#utility.yul\":7443:7472   */\n      tag_303\n        /* \"#utility.yul\":7465:7471   */\n      dup2\n        /* \"#utility.yul\":7443:7472   */\n      tag_160\n      jump\t// in\n    tag_303:\n        /* \"#utility.yul\":7438:7441   */\n      dup5\n        /* \"#utility.yul\":7434:7473   */\n      add\n        /* \"#utility.yul\":7427:7473   */\n      swap2\n      pop\n        /* \"#utility.yul\":7204:7479   */\n      pop\n        /* \"#utility.yul\":7122:7479   */\n      swap3\n      swap2\n      pop\n      pop\n      jump\t// out\n        /* \"#utility.yul\":7485:7599   */\n    tag_182:\n        /* \"#utility.yul\":7552:7558   */\n      0x00\n        /* \"#utility.yul\":7586:7591   */\n      dup2\n        /* \"#utility.yul\":7580:7592   */\n      mload\n        /* \"#utility.yul\":7570:7592   */\n      swap1\n      pop\n        /* \"#utility.yul\":7485:7599   */\n      swap2\n      swap1\n      pop\n      jump\t// out\n        /* \"#utility.yul\":7605:7779   */\n    tag_183:\n        /* \"#utility.yul\":7694:7705   */\n      0x00\n        /* \"#utility.yul\":7728:7734   */\n      dup3\n        /* \"#utility.yul\":7723:7726   */\n      dup3\n        /* \"#utility.yul\":7716:7735   */\n      mstore\n        /* \"#utility.yul\":7768:7772   */\n      0x20\n        /* \"#utility.yul\":7763:7766   */\n      dup3\n        /* \"#utility.yul\":7759:7773   */\n      add\n        /* \"#utility.yul\":7744:7773   */\n      swap1\n      pop\n        /* \"#utility.yul\":7605:7779   */\n      swap3\n      swap2\n      pop\n      pop\n      jump\t// out\n        /* \"#utility.yul\":7785:7917   */\n    tag_184:\n        /* \"#utility.yul\":7852:7856   */\n      0x00\n        /* \"#utility.yul\":7875:7878   */\n      dup2\n        /* \"#utility.yul\":7867:7878   */\n      swap1\n      pop\n        /* \"#utility.yul\":7905:7909   */\n      0x20\n        /* \"#utility.yul\":7900:7903   */\n      dup3\n        /* \"#utility.yul\":7896:7910   */\n      add\n        /* \"#utility.yul\":7888:7910   */\n      swap1\n      pop\n        /* \"#utility.yul\":7785:7917   */\n      swap2\n      swap1\n      pop\n      jump\t// out\n        /* \"#utility.yul\":7923:8102   */\n    tag_185:\n        /* \"#utility.yul\":7992:8002   */\n      0x00\n        /* \"#utility.yul\":8013:8059   */\n      tag_308\n        /* \"#utility.yul\":8055:8058   */\n      dup4\n        /* \"#utility.yul\":8047:8053   */\n      dup4\n        /* \"#utility.yul\":8013:8059   */\n      tag_177\n      jump\t// in\n    tag_308:\n        /* \"#utility.yul\":8091:8095   */\n      0x20\n        /* \"#utility.yul\":8086:8089   */\n      dup4\n        /* \"#utility.yul\":8082:8096   */\n      add\n        /* \"#utility.yul\":8068:8096   */\n      swap1\n      pop\n        /* \"#utility.yul\":7923:8102   */\n      swap3\n      swap2\n      pop\n      pop\n      jump\t// out\n        /* \"#utility.yul\":8108:8221   */\n    tag_186:\n        /* \"#utility.yul\":8178:8182   */\n      0x00\n        /* \"#utility.yul\":8210:8214   */\n      0x20\n        /* \"#utility.yul\":8205:8208   */\n      dup3\n        /* \"#utility.yul\":8201:8215   */\n      add\n        /* \"#utility.yul\":8193:8215   */\n      swap1\n      pop\n        /* \"#utility.yul\":8108:8221   */\n      swap2\n      swap1\n      pop\n      jump\t// out\n        /* \"#utility.yul\":8257:8969   */\n    tag_187:\n        /* \"#utility.yul\":8366:8369   */\n      0x00\n        /* \"#utility.yul\":8395:8449   */\n      tag_311\n        /* \"#utility.yul\":8443:8448   */\n      dup3\n        /* \"#utility.yul\":8395:8449   */\n      tag_182\n      jump\t// in\n    tag_311:\n        /* \"#utility.yul\":8465:8541   */\n      tag_312\n        /* \"#utility.yul\":8534:8540   */\n      dup2\n        /* \"#utility.yul\":8529:8532   */\n      dup6\n        /* \"#utility.yul\":8465:8541   */\n      tag_183\n      jump\t// in\n    tag_312:\n        /* \"#utility.yul\":8458:8541   */\n      swap4\n      pop\n        /* \"#utility.yul\":8565:8621   */\n      tag_313\n        /* \"#utility.yul\":8615:8620   */\n      dup4\n        /* \"#utility.yul\":8565:8621   */\n      tag_184\n      jump\t// in\n    tag_313:\n        /* \"#utility.yul\":8644:8651   */\n      dup1\n        /* \"#utility.yul\":8675:8676   */\n      0x00\n        /* \"#utility.yul\":8660:8944   */\n    tag_314:\n        /* \"#utility.yul\":8685:8691   */\n      dup4\n        /* \"#utility.yul\":8682:8683   */\n      dup2\n        /* \"#utility.yul\":8679:8692   */\n      lt\n        /* \"#utility.yul\":8660:8944   */\n      iszero\n      tag_316\n      jumpi\n        /* \"#utility.yul\":8761:8767   */\n      dup2\n        /* \"#utility.yul\":8755:8768   */\n      mload\n        /* \"#utility.yul\":8788:8851   */\n      tag_317\n        /* \"#utility.yul\":8847:8850   */\n      dup9\n        /* \"#utility.yul\":8832:8845   */\n      dup3\n        /* \"#utility.yul\":8788:8851   */\n      tag_185\n      jump\t// in\n    tag_317:\n        /* \"#utility.yul\":8781:8851   */\n      swap8\n      pop\n        /* \"#utility.yul\":8874:8934   */\n      tag_318\n        /* \"#utility.yul\":8927:8933   */\n      dup4\n        /* \"#utility.yul\":8874:8934   */\n      tag_186\n      jump\t// in\n    tag_318:\n        /* \"#utility.yul\":8864:8934   */\n      swap3\n      pop\n        /* \"#utility.yul\":8720:8944   */\n      pop\n        /* \"#utility.yul\":8707:8708   */\n      0x01\n        /* \"#utility.yul\":8704:8705   */\n      dup2\n        /* \"#utility.yul\":8700:8709   */\n      add\n        /* \"#utility.yul\":8695:8709   */\n      swap1\n      pop\n        /* \"#utility.yul\":8660:8944   */\n      jump(tag_314)\n    tag_316:\n        /* \"#utility.yul\":8664:8678   */\n      pop\n        /* \"#utility.yul\":8960:8963   */\n      dup6\n        /* \"#utility.yul\":8953:8963   */\n      swap4\n      pop\n        /* \"#utility.yul\":8371:8969   */\n      pop\n      pop\n      pop\n        /* \"#utility.yul\":8257:8969   */\n      swap3\n      swap2\n      pop\n      pop\n      jump\t// out\n        /* \"#utility.yul\":9041:10180   */\n    tag_188:\n        /* \"#utility.yul\":9158:9161   */\n      0x00\n        /* \"#utility.yul\":9194:9198   */\n      0x80\n        /* \"#utility.yul\":9189:9192   */\n      dup4\n        /* \"#utility.yul\":9185:9199   */\n      add\n        /* \"#utility.yul\":9279:9283   */\n      0x00\n        /* \"#utility.yul\":9272:9277   */\n      dup4\n        /* \"#utility.yul\":9268:9284   */\n      add\n        /* \"#utility.yul\":9262:9285   */\n      mload\n        /* \"#utility.yul\":9298:9361   */\n      tag_320\n        /* \"#utility.yul\":9355:9359   */\n      0x00\n        /* \"#utility.yul\":9350:9353   */\n      dup7\n        /* \"#utility.yul\":9346:9360   */\n      add\n        /* \"#utility.yul\":9332:9344   */\n      dup3\n        /* \"#utility.yul\":9298:9361   */\n      tag_177\n      jump\t// in\n    tag_320:\n        /* \"#utility.yul\":9209:9371   */\n      pop\n        /* \"#utility.yul\":9458:9462   */\n      0x20\n        /* \"#utility.yul\":9451:9456   */\n      dup4\n        /* \"#utility.yul\":9447:9463   */\n      add\n        /* \"#utility.yul\":9441:9464   */\n      mload\n        /* \"#utility.yul\":9511:9514   */\n      dup5\n        /* \"#utility.yul\":9505:9509   */\n      dup3\n        /* \"#utility.yul\":9501:9515   */\n      sub\n        /* \"#utility.yul\":9494:9498   */\n      0x20\n        /* \"#utility.yul\":9489:9492   */\n      dup7\n        /* \"#utility.yul\":9485:9499   */\n      add\n        /* \"#utility.yul\":9478:9516   */\n      mstore\n        /* \"#utility.yul\":9537:9610   */\n      tag_321\n        /* \"#utility.yul\":9605:9609   */\n      dup3\n        /* \"#utility.yul\":9591:9603   */\n      dup3\n        /* \"#utility.yul\":9537:9610   */\n      tag_181\n      jump\t// in\n    tag_321:\n        /* \"#utility.yul\":9529:9610   */\n      swap2\n      pop\n        /* \"#utility.yul\":9381:9621   */\n      pop\n        /* \"#utility.yul\":9707:9711   */\n      0x40\n        /* \"#utility.yul\":9700:9705   */\n      dup4\n        /* \"#utility.yul\":9696:9712   */\n      add\n        /* \"#utility.yul\":9690:9713   */\n      mload\n        /* \"#utility.yul\":9760:9763   */\n      dup5\n        /* \"#utility.yul\":9754:9758   */\n      dup3\n        /* \"#utility.yul\":9750:9764   */\n      sub\n        /* \"#utility.yul\":9743:9747   */\n      0x40\n        /* \"#utility.yul\":9738:9741   */\n      dup7\n        /* \"#utility.yul\":9734:9748   */\n      add\n        /* \"#utility.yul\":9727:9765   */\n      mstore\n        /* \"#utility.yul\":9786:9859   */\n      tag_322\n        /* \"#utility.yul\":9854:9858   */\n      dup3\n        /* \"#utility.yul\":9840:9852   */\n      dup3\n        /* \"#utility.yul\":9786:9859   */\n      tag_181\n      jump\t// in\n    tag_322:\n        /* \"#utility.yul\":9778:9859   */\n      swap2\n      pop\n        /* \"#utility.yul\":9631:9870   */\n      pop\n        /* \"#utility.yul\":9960:9964   */\n      0x60\n        /* \"#utility.yul\":9953:9958   */\n      dup4\n        /* \"#utility.yul\":9949:9965   */\n      add\n        /* \"#utility.yul\":9943:9966   */\n      mload\n        /* \"#utility.yul\":10013:10016   */\n      dup5\n        /* \"#utility.yul\":10007:10011   */\n      dup3\n        /* \"#utility.yul\":10003:10017   */\n      sub\n        /* \"#utility.yul\":9996:10000   */\n      0x60\n        /* \"#utility.yul\":9991:9994   */\n      dup7\n        /* \"#utility.yul\":9987:10001   */\n      add\n        /* \"#utility.yul\":9980:10018   */\n      mstore\n        /* \"#utility.yul\":10039:10142   */\n      tag_323\n        /* \"#utility.yul\":10137:10141   */\n      dup3\n        /* \"#utility.yul\":10123:10135   */\n      dup3\n        /* \"#utility.yul\":10039:10142   */\n      tag_187\n      jump\t// in\n    tag_323:\n        /* \"#utility.yul\":10031:10142   */\n      swap2\n      pop\n        /* \"#utility.yul\":9880:10153   */\n      pop\n        /* \"#utility.yul\":10170:10174   */\n      dup1\n        /* \"#utility.yul\":10163:10174   */\n      swap2\n      pop\n        /* \"#utility.yul\":9163:10180   */\n      pop\n        /* \"#utility.yul\":9041:10180   */\n      swap3\n      swap2\n      pop\n      pop\n      jump\t// out\n        /* \"#utility.yul\":10186:10555   */\n    tag_29:\n        /* \"#utility.yul\":10327:10331   */\n      0x00\n        /* \"#utility.yul\":10365:10367   */\n      0x20\n        /* \"#utility.yul\":10354:10363   */\n      dup3\n        /* \"#utility.yul\":10350:10368   */\n      add\n        /* \"#utility.yul\":10342:10368   */\n      swap1\n      pop\n        /* \"#utility.yul\":10414:10423   */\n      dup2\n        /* \"#utility.yul\":10408:10412   */\n      dup2\n        /* \"#utility.yul\":10404:10424   */\n      sub\n        /* \"#utility.yul\":10400:10401   */\n      0x00\n        /* \"#utility.yul\":10389:10398   */\n      dup4\n        /* \"#utility.yul\":10385:10402   */\n      add\n        /* \"#utility.yul\":10378:10425   */\n      mstore\n        /* \"#utility.yul\":10442:10548   */\n      tag_325\n        /* \"#utility.yul\":10543:10547   */\n      dup2\n        /* \"#utility.yul\":10534:10540   */\n      dup5\n        /* \"#utility.yul\":10442:10548   */\n      tag_188\n      jump\t// in\n    tag_325:\n        /* \"#utility.yul\":10434:10548   */\n      swap1\n      pop\n        /* \"#utility.yul\":10186:10555   */\n      swap3\n      swap2\n      pop\n      pop\n      jump\t// out\n        /* \"#utility.yul\":10561:10699   */\n    tag_189:\n        /* \"#utility.yul\":10652:10658   */\n      0x00\n        /* \"#utility.yul\":10686:10691   */\n      dup2\n        /* \"#utility.yul\":10680:10692   */\n      mload\n        /* \"#utility.yul\":10670:10692   */\n      swap1\n      pop\n        /* \"#utility.yul\":10561:10699   */\n      swap2\n      swap1\n      pop\n      jump\t// out\n        /* \"#utility.yul\":10705:10913   */\n    tag_190:\n        /* \"#utility.yul\":10828:10839   */\n      0x00\n        /* \"#utility.yul\":10862:10868   */\n      dup3\n        /* \"#utility.yul\":10857:10860   */\n      dup3\n        /* \"#utility.yul\":10850:10869   */\n      mstore\n        /* \"#utility.yul\":10902:10906   */\n      0x20\n        /* \"#utility.yul\":10897:10900   */\n      dup3\n        /* \"#utility.yul\":10893:10907   */\n      add\n        /* \"#utility.yul\":10878:10907   */\n      swap1\n      pop\n        /* \"#utility.yul\":10705:10913   */\n      swap3\n      swap2\n      pop\n      pop\n      jump\t// out\n        /* \"#utility.yul\":10919:11075   */\n    tag_191:\n        /* \"#utility.yul\":11010:11014   */\n      0x00\n        /* \"#utility.yul\":11033:11036   */\n      dup2\n        /* \"#utility.yul\":11025:11036   */\n      swap1\n      pop\n        /* \"#utility.yul\":11063:11067   */\n      0x20\n        /* \"#utility.yul\":11058:11061   */\n      dup3\n        /* \"#utility.yul\":11054:11068   */\n      add\n        /* \"#utility.yul\":11046:11068   */\n      swap1\n      pop\n        /* \"#utility.yul\":10919:11075   */\n      swap2\n      swap1\n      pop\n      jump\t// out\n        /* \"#utility.yul\":11147:12276   */\n    tag_192:\n        /* \"#utility.yul\":11254:11257   */\n      0x00\n        /* \"#utility.yul\":11290:11294   */\n      0x80\n        /* \"#utility.yul\":11285:11288   */\n      dup4\n        /* \"#utility.yul\":11281:11295   */\n      add\n        /* \"#utility.yul\":11375:11379   */\n      0x00\n        /* \"#utility.yul\":11368:11373   */\n      dup4\n        /* \"#utility.yul\":11364:11380   */\n      add\n        /* \"#utility.yul\":11358:11381   */\n      mload\n        /* \"#utility.yul\":11394:11457   */\n      tag_330\n        /* \"#utility.yul\":11451:11455   */\n      0x00\n        /* \"#utility.yul\":11446:11449   */\n      dup7\n        /* \"#utility.yul\":11442:11456   */\n      add\n        /* \"#utility.yul\":11428:11440   */\n      dup3\n        /* \"#utility.yul\":11394:11457   */\n      tag_177\n      jump\t// in\n    tag_330:\n        /* \"#utility.yul\":11305:11467   */\n      pop\n        /* \"#utility.yul\":11554:11558   */\n      0x20\n        /* \"#utility.yul\":11547:11552   */\n      dup4\n        /* \"#utility.yul\":11543:11559   */\n      add\n        /* \"#utility.yul\":11537:11560   */\n      mload\n        /* \"#utility.yul\":11607:11610   */\n      dup5\n        /* \"#utility.yul\":11601:11605   */\n      dup3\n        /* \"#utility.yul\":11597:11611   */\n      sub\n        /* \"#utility.yul\":11590:11594   */\n      0x20\n        /* \"#utility.yul\":11585:11588   */\n      dup7\n        /* \"#utility.yul\":11581:11595   */\n      add\n        /* \"#utility.yul\":11574:11612   */\n      mstore\n        /* \"#utility.yul\":11633:11706   */\n      tag_331\n        /* \"#utility.yul\":11701:11705   */\n      dup3\n        /* \"#utility.yul\":11687:11699   */\n      dup3\n        /* \"#utility.yul\":11633:11706   */\n      tag_181\n      jump\t// in\n    tag_331:\n        /* \"#utility.yul\":11625:11706   */\n      swap2\n      pop\n        /* \"#utility.yul\":11477:11717   */\n      pop\n        /* \"#utility.yul\":11803:11807   */\n      0x40\n        /* \"#utility.yul\":11796:11801   */\n      dup4\n        /* \"#utility.yul\":11792:11808   */\n      add\n        /* \"#utility.yul\":11786:11809   */\n      mload\n        /* \"#utility.yul\":11856:11859   */\n      dup5\n        /* \"#utility.yul\":11850:11854   */\n      dup3\n        /* \"#utility.yul\":11846:11860   */\n      sub\n        /* \"#utility.yul\":11839:11843   */\n      0x40\n        /* \"#utility.yul\":11834:11837   */\n      dup7\n        /* \"#utility.yul\":11830:11844   */\n      add\n        /* \"#utility.yul\":11823:11861   */\n      mstore\n        /* \"#utility.yul\":11882:11955   */\n      tag_332\n        /* \"#utility.yul\":11950:11954   */\n      dup3\n        /* \"#utility.yul\":11936:11948   */\n      dup3\n        /* \"#utility.yul\":11882:11955   */\n      tag_181\n      jump\t// in\n    tag_332:\n        /* \"#utility.yul\":11874:11955   */\n      swap2\n      pop\n        /* \"#utility.yul\":11727:11966   */\n      pop\n        /* \"#utility.yul\":12056:12060   */\n      0x60\n        /* \"#utility.yul\":12049:12054   */\n      dup4\n        /* \"#utility.yul\":12045:12061   */\n      add\n        /* \"#utility.yul\":12039:12062   */\n      mload\n        /* \"#utility.yul\":12109:12112   */\n      dup5\n        /* \"#utility.yul\":12103:12107   */\n      dup3\n        /* \"#utility.yul\":12099:12113   */\n      sub\n        /* \"#utility.yul\":12092:12096   */\n      0x60\n        /* \"#utility.yul\":12087:12090   */\n      dup7\n        /* \"#utility.yul\":12083:12097   */\n      add\n        /* \"#utility.yul\":12076:12114   */\n      mstore\n        /* \"#utility.yul\":12135:12238   */\n      tag_333\n        /* \"#utility.yul\":12233:12237   */\n      dup3\n        /* \"#utility.yul\":12219:12231   */\n      dup3\n        /* \"#utility.yul\":12135:12238   */\n      tag_187\n      jump\t// in\n    tag_333:\n        /* \"#utility.yul\":12127:12238   */\n      swap2\n      pop\n        /* \"#utility.yul\":11976:12249   */\n      pop\n        /* \"#utility.yul\":12266:12270   */\n      dup1\n        /* \"#utility.yul\":12259:12270   */\n      swap2\n      pop\n        /* \"#utility.yul\":11259:12276   */\n      pop\n        /* \"#utility.yul\":11147:12276   */\n      swap3\n      swap2\n      pop\n      pop\n      jump\t// out\n        /* \"#utility.yul\":12282:12534   */\n    tag_193:\n        /* \"#utility.yul\":12399:12409   */\n      0x00\n        /* \"#utility.yul\":12434:12528   */\n      tag_335\n        /* \"#utility.yul\":12524:12527   */\n      dup4\n        /* \"#utility.yul\":12516:12522   */\n      dup4\n        /* \"#utility.yul\":12434:12528   */\n      tag_192\n      jump\t// in\n    tag_335:\n        /* \"#utility.yul\":12420:12528   */\n      swap1\n      pop\n        /* \"#utility.yul\":12282:12534   */\n      swap3\n      swap2\n      pop\n      pop\n      jump\t// out\n        /* \"#utility.yul\":12540:12677   */\n    tag_194:\n        /* \"#utility.yul\":12634:12638   */\n      0x00\n        /* \"#utility.yul\":12666:12670   */\n      0x20\n        /* \"#utility.yul\":12661:12664   */\n      dup3\n        /* \"#utility.yul\":12657:12671   */\n      add\n        /* \"#utility.yul\":12649:12671   */\n      swap1\n      pop\n        /* \"#utility.yul\":12540:12677   */\n      swap2\n      swap1\n      pop\n      jump\t// out\n        /* \"#utility.yul\":12753:13856   */\n    tag_195:\n        /* \"#utility.yul\":12920:12923   */\n      0x00\n        /* \"#utility.yul\":12949:13027   */\n      tag_338\n        /* \"#utility.yul\":13021:13026   */\n      dup3\n        /* \"#utility.yul\":12949:13027   */\n      tag_189\n      jump\t// in\n    tag_338:\n        /* \"#utility.yul\":13043:13153   */\n      tag_339\n        /* \"#utility.yul\":13146:13152   */\n      dup2\n        /* \"#utility.yul\":13141:13144   */\n      dup6\n        /* \"#utility.yul\":13043:13153   */\n      tag_190\n      jump\t// in\n    tag_339:\n        /* \"#utility.yul\":13036:13153   */\n      swap4\n      pop\n        /* \"#utility.yul\":13179:13182   */\n      dup4\n        /* \"#utility.yul\":13224:13228   */\n      0x20\n        /* \"#utility.yul\":13216:13222   */\n      dup3\n        /* \"#utility.yul\":13212:13229   */\n      mul\n        /* \"#utility.yul\":13207:13210   */\n      dup6\n        /* \"#utility.yul\":13203:13230   */\n      add\n        /* \"#utility.yul\":13254:13334   */\n      tag_340\n        /* \"#utility.yul\":13328:13333   */\n      dup6\n        /* \"#utility.yul\":13254:13334   */\n      tag_191\n      jump\t// in\n    tag_340:\n        /* \"#utility.yul\":13357:13364   */\n      dup1\n        /* \"#utility.yul\":13388:13389   */\n      0x00\n        /* \"#utility.yul\":13373:13811   */\n    tag_341:\n        /* \"#utility.yul\":13398:13404   */\n      dup6\n        /* \"#utility.yul\":13395:13396   */\n      dup2\n        /* \"#utility.yul\":13392:13405   */\n      lt\n        /* \"#utility.yul\":13373:13811   */\n      iszero\n      tag_343\n      jumpi\n        /* \"#utility.yul\":13469:13478   */\n      dup5\n        /* \"#utility.yul\":13463:13467   */\n      dup5\n        /* \"#utility.yul\":13459:13479   */\n      sub\n        /* \"#utility.yul\":13454:13457   */\n      dup10\n        /* \"#utility.yul\":13447:13480   */\n      mstore\n        /* \"#utility.yul\":13520:13526   */\n      dup2\n        /* \"#utility.yul\":13514:13527   */\n      mload\n        /* \"#utility.yul\":13548:13660   */\n      tag_344\n        /* \"#utility.yul\":13655:13659   */\n      dup6\n        /* \"#utility.yul\":13640:13653   */\n      dup3\n        /* \"#utility.yul\":13548:13660   */\n      tag_193\n      jump\t// in\n    tag_344:\n        /* \"#utility.yul\":13540:13660   */\n      swap5\n      pop\n        /* \"#utility.yul\":13683:13767   */\n      tag_345\n        /* \"#utility.yul\":13760:13766   */\n      dup4\n        /* \"#utility.yul\":13683:13767   */\n      tag_194\n      jump\t// in\n    tag_345:\n        /* \"#utility.yul\":13673:13767   */\n      swap3\n      pop\n        /* \"#utility.yul\":13796:13800   */\n      0x20\n        /* \"#utility.yul\":13791:13794   */\n      dup11\n        /* \"#utility.yul\":13787:13801   */\n      add\n        /* \"#utility.yul\":13780:13801   */\n      swap10\n      pop\n        /* \"#utility.yul\":13433:13811   */\n      pop\n        /* \"#utility.yul\":13420:13421   */\n      0x01\n        /* \"#utility.yul\":13417:13418   */\n      dup2\n        /* \"#utility.yul\":13413:13422   */\n      add\n        /* \"#utility.yul\":13408:13422   */\n      swap1\n      pop\n        /* \"#utility.yul\":13373:13811   */\n      jump(tag_341)\n    tag_343:\n        /* \"#utility.yul\":13377:13391   */\n      pop\n        /* \"#utility.yul\":13827:13831   */\n      dup3\n        /* \"#utility.yul\":13820:13831   */\n      swap8\n      pop\n        /* \"#utility.yul\":13847:13850   */\n      dup8\n        /* \"#utility.yul\":13840:13850   */\n      swap6\n      pop\n        /* \"#utility.yul\":12925:13856   */\n      pop\n      pop\n      pop\n      pop\n      pop\n        /* \"#utility.yul\":12753:13856   */\n      swap3\n      swap2\n      pop\n      pop\n      jump\t// out\n        /* \"#utility.yul\":13862:14331   */\n    tag_33:\n        /* \"#utility.yul\":14053:14057   */\n      0x00\n        /* \"#utility.yul\":14091:14093   */\n      0x20\n        /* \"#utility.yul\":14080:14089   */\n      dup3\n        /* \"#utility.yul\":14076:14094   */\n      add\n        /* \"#utility.yul\":14068:14094   */\n      swap1\n      pop\n        /* \"#utility.yul\":14140:14149   */\n      dup2\n        /* \"#utility.yul\":14134:14138   */\n      dup2\n        /* \"#utility.yul\":14130:14150   */\n      sub\n        /* \"#utility.yul\":14126:14127   */\n      0x00\n        /* \"#utility.yul\":14115:14124   */\n      dup4\n        /* \"#utility.yul\":14111:14128   */\n      add\n        /* \"#utility.yul\":14104:14151   */\n      mstore\n        /* \"#utility.yul\":14168:14324   */\n      tag_347\n        /* \"#utility.yul\":14319:14323   */\n      dup2\n        /* \"#utility.yul\":14310:14316   */\n      dup5\n        /* \"#utility.yul\":14168:14324   */\n      tag_195\n      jump\t// in\n    tag_347:\n        /* \"#utility.yul\":14160:14324   */\n      swap1\n      pop\n        /* \"#utility.yul\":13862:14331   */\n      swap3\n      swap2\n      pop\n      pop\n      jump\t// out\n        /* \"#utility.yul\":14337:14459   */\n    tag_196:\n        /* \"#utility.yul\":14410:14434   */\n      tag_349\n        /* \"#utility.yul\":14428:14433   */\n      dup2\n        /* \"#utility.yul\":14410:14434   */\n      tag_175\n      jump\t// in\n    tag_349:\n        /* \"#utility.yul\":14403:14408   */\n      dup2\n        /* \"#utility.yul\":14400:14435   */\n      eq\n        /* \"#utility.yul\":14390:14453   */\n      tag_350\n      jumpi\n        /* \"#utility.yul\":14449:14450   */\n      0x00\n        /* \"#utility.yul\":14446:14447   */\n      0x00\n        /* \"#utility.yul\":14439:14451   */\n      revert\n        /* \"#utility.yul\":14390:14453   */\n    tag_350:\n        /* \"#utility.yul\":14337:14459   */\n      pop\n      jump\t// out\n        /* \"#utility.yul\":14465:14604   */\n    tag_197:\n        /* \"#utility.yul\":14511:14516   */\n      0x00\n        /* \"#utility.yul\":14549:14555   */\n      dup2\n        /* \"#utility.yul\":14536:14556   */\n      calldataload\n        /* \"#utility.yul\":14527:14556   */\n      swap1\n      pop\n        /* \"#utility.yul\":14565:14598   */\n      tag_352\n        /* \"#utility.yul\":14592:14597   */\n      dup2\n        /* \"#utility.yul\":14565:14598   */\n      tag_196\n      jump\t// in\n    tag_352:\n        /* \"#utility.yul\":14465:14604   */\n      swap3\n      swap2\n      pop\n      pop\n      jump\t// out\n        /* \"#utility.yul\":14610:14939   */\n    tag_36:\n        /* \"#utility.yul\":14669:14675   */\n      0x00\n        /* \"#utility.yul\":14718:14720   */\n      0x20\n        /* \"#utility.yul\":14706:14715   */\n      dup3\n        /* \"#utility.yul\":14697:14704   */\n      dup5\n        /* \"#utility.yul\":14693:14716   */\n      sub\n        /* \"#utility.yul\":14689:14721   */\n      slt\n        /* \"#utility.yul\":14686:14805   */\n      iszero\n      tag_354\n      jumpi\n        /* \"#utility.yul\":14724:14803   */\n      tag_355\n      tag_156\n      jump\t// in\n    tag_355:\n        /* \"#utility.yul\":14686:14805   */\n    tag_354:\n        /* \"#utility.yul\":14844:14845   */\n      0x00\n        /* \"#utility.yul\":14869:14922   */\n      tag_356\n        /* \"#utility.yul\":14914:14921   */\n      dup5\n        /* \"#utility.yul\":14905:14911   */\n      dup3\n        /* \"#utility.yul\":14894:14903   */\n      dup6\n        /* \"#utility.yul\":14890:14912   */\n      add\n        /* \"#utility.yul\":14869:14922   */\n      tag_197\n      jump\t// in\n    tag_356:\n        /* \"#utility.yul\":14859:14922   */\n      swap2\n      pop\n        /* \"#utility.yul\":14815:14932   */\n      pop\n        /* \"#utility.yul\":14610:14939   */\n      swap3\n      swap2\n      pop\n      pop\n      jump\t// out\n        /* \"#utility.yul\":14945:15125   */\n    tag_198:\n        /* \"#utility.yul\":14993:15070   */\n      0x4e487b7100000000000000000000000000000000000000000000000000000000\n        /* \"#utility.yul\":14990:14991   */\n      0x00\n        /* \"#utility.yul\":14983:15071   */\n      mstore\n        /* \"#utility.yul\":15090:15094   */\n      0x22\n        /* \"#utility.yul\":15087:15088   */\n      0x04\n        /* \"#utility.yul\":15080:15095   */\n      mstore\n        /* \"#utility.yul\":15114:15118   */\n      0x24\n        /* \"#utility.yul\":15111:15112   */\n      0x00\n        /* \"#utility.yul\":15104:15119   */\n      revert\n        /* \"#utility.yul\":15131:15451   */\n    tag_88:\n        /* \"#utility.yul\":15175:15181   */\n      0x00\n        /* \"#utility.yul\":15212:15213   */\n      0x02\n        /* \"#utility.yul\":15206:15210   */\n      dup3\n        /* \"#utility.yul\":15202:15214   */\n      div\n        /* \"#utility.yul\":15192:15214   */\n      swap1\n      pop\n        /* \"#utility.yul\":15259:15260   */\n      0x01\n        /* \"#utility.yul\":15253:15257   */\n      dup3\n        /* \"#utility.yul\":15249:15261   */\n      and\n        /* \"#utility.yul\":15280:15298   */\n      dup1\n        /* \"#utility.yul\":15270:15351   */\n      tag_359\n      jumpi\n        /* \"#utility.yul\":15336:15340   */\n      0x7f\n        /* \"#utility.yul\":15328:15334   */\n      dup3\n        /* \"#utility.yul\":15324:15341   */\n      and\n        /* \"#utility.yul\":15314:15341   */\n      swap2\n      pop\n        /* \"#utility.yul\":15270:15351   */\n    tag_359:\n        /* \"#utility.yul\":15398:15400   */\n      0x20\n        /* \"#utility.yul\":15390:15396   */\n      dup3\n        /* \"#utility.yul\":15387:15401   */\n      lt\n        /* \"#utility.yul\":15367:15385   */\n      dup2\n        /* \"#utility.yul\":15364:15402   */\n      sub\n        /* \"#utility.yul\":15361:15445   */\n      tag_360\n      jumpi\n        /* \"#utility.yul\":15417:15435   */\n      tag_361\n      tag_198\n      jump\t// in\n    tag_361:\n        /* \"#utility.yul\":15361:15445   */\n    tag_360:\n        /* \"#utility.yul\":15182:15451   */\n      pop\n        /* \"#utility.yul\":15131:15451   */\n      swap2\n      swap1\n      pop\n      jump\t// out\n        /* \"#utility.yul\":15457:15598   */\n    tag_199:\n        /* \"#utility.yul\":15506:15510   */\n      0x00\n        /* \"#utility.yul\":15529:15532   */\n      dup2\n        /* \"#utility.yul\":15521:15532   */\n      swap1\n      pop\n        /* \"#utility.yul\":15552:15555   */\n      dup2\n        /* \"#utility.yul\":15549:15550   */\n      0x00\n        /* \"#utility.yul\":15542:15556   */\n      mstore\n        /* \"#utility.yul\":15586:15590   */\n      0x20\n        /* \"#utility.yul\":15583:15584   */\n      0x00\n        /* \"#utility.yul\":15573:15591   */\n      keccak256\n        /* \"#utility.yul\":15565:15591   */\n      swap1\n      pop\n        /* \"#utility.yul\":15457:15598   */\n      swap2\n      swap1\n      pop\n      jump\t// out\n        /* \"#utility.yul\":15604:15697   */\n    tag_200:\n        /* \"#utility.yul\":15641:15647   */\n      0x00\n        /* \"#utility.yul\":15688:15690   */\n      0x20\n        /* \"#utility.yul\":15683:15685   */\n      0x1f\n        /* \"#utility.yul\":15676:15681   */\n      dup4\n        /* \"#utility.yul\":15672:15686   */\n      add\n        /* \"#utility.yul\":15668:15691   */\n      div\n        /* \"#utility.yul\":15658:15691   */\n      swap1\n      pop\n        /* \"#utility.yul\":15604:15697   */\n      swap2\n      swap1\n      pop\n      jump\t// out\n        /* \"#utility.yul\":15703:15810   */\n    tag_201:\n        /* \"#utility.yul\":15747:15755   */\n      0x00\n        /* \"#utility.yul\":15797:15802   */\n      dup3\n        /* \"#utility.yul\":15791:15795   */\n      dup3\n        /* \"#utility.yul\":15787:15803   */\n      shl\n        /* \"#utility.yul\":15766:15803   */\n      swap1\n      pop\n        /* \"#utility.yul\":15703:15810   */\n      swap3\n      swap2\n      pop\n      pop\n      jump\t// out\n        /* \"#utility.yul\":15816:16209   */\n    tag_202:\n        /* \"#utility.yul\":15885:15891   */\n      0x00\n        /* \"#utility.yul\":15935:15936   */\n      0x08\n        /* \"#utility.yul\":15923:15933   */\n      dup4\n        /* \"#utility.yul\":15919:15937   */\n      mul\n        /* \"#utility.yul\":15958:16055   */\n      tag_366\n        /* \"#utility.yul\":15988:16054   */\n      0xffffffffffffffffffffffffffffffffffffffffffffffffffffffffffffffff\n        /* \"#utility.yul\":15977:15986   */\n      dup3\n        /* \"#utility.yul\":15958:16055   */\n      tag_201\n      jump\t// in\n    tag_366:\n        /* \"#utility.yul\":16076:16115   */\n      tag_367\n        /* \"#utility.yul\":16106:16114   */\n      dup7\n        /* \"#utility.yul\":16095:16104   */\n      dup4\n        /* \"#utility.yul\":16076:16115   */\n      tag_201\n      jump\t// in\n    tag_367:\n        /* \"#utility.yul\":16064:16115   */\n      swap6\n      pop\n        /* \"#utility.yul\":16148:16152   */\n      dup1\n        /* \"#utility.yul\":16144:16153   */\n      not\n        /* \"#utility.yul\":16137:16142   */\n      dup5\n        /* \"#utility.yul\":16133:16154   */\n      and\n        /* \"#utility.yul\":16124:16154   */\n      swap4\n      pop\n        /* \"#utility.yul\":16197:16201   */\n      dup1\n        /* \"#utility.yul\":16187:16195   */\n      dup7\n        /* \"#utility.yul\":16183:16202   */\n      and\n        /* \"#utility.yul\":16176:16181   */\n      dup5\n        /* \"#utility.yul\":16173:16203   */\n      or\n        /* \"#utility.yul\":16163:16203   */\n      swap3\n      pop\n        /* \"#utility.yul\":15892:16209   */\n      pop\n      pop\n        /* \"#utility.yul\":15816:16209   */\n      swap4\n      swap3\n      pop\n      pop\n      pop\n      jump\t// out\n        /* \"#utility.yul\":16215:16275   */\n    tag_203:\n        /* \"#utility.yul\":16243:16246   */\n      0x00\n        /* \"#utility.yul\":16264:16269   */\n      dup2\n        /* \"#utility.yul\":16257:16269   */\n      swap1\n      pop\n        /* \"#utility.yul\":16215:16275   */\n      swap2\n      swap1\n      pop\n      jump\t// out\n        /* \"#utility.yul\":16281:16423   */\n    tag_204:\n        /* \"#utility.yul\":16331:16340   */\n      0x00\n        /* \"#utility.yul\":16364:16417   */\n      tag_370\n        /* \"#utility.yul\":16382:16416   */\n      tag_371\n        /* \"#utility.yul\":16391:16415   */\n      tag_372\n        /* \"#utility.yul\":16409:16414   */\n      dup5\n        /* \"#utility.yul\":16391:16415   */\n      tag_169\n      jump\t// in\n    tag_372:\n        /* \"#utility.yul\":16382:16416   */\n      tag_203\n      jump\t// in\n    tag_371:\n        /* \"#utility.yul\":16364:16417   */\n      tag_169\n      jump\t// in\n    tag_370:\n        /* \"#utility.yul\":16351:16417   */\n      swap1\n      pop\n        /* \"#utility.yul\":16281:16423   */\n      swap2\n      swap1\n      pop\n      jump\t// out\n        /* \"#utility.yul\":16429:16504   */\n    tag_205:\n        /* \"#utility.yul\":16472:16475   */\n      0x00\n        /* \"#utility.yul\":16493:16498   */\n      dup2\n        /* \"#utility.yul\":16486:16498   */\n      swap1\n      pop\n        /* \"#utility.yul\":16429:16504   */\n      swap2\n      swap1\n      pop\n      jump\t// out\n        /* \"#utility.yul\":16510:16779   */\n    tag_206:\n        /* \"#utility.yul\":16620:16659   */\n      tag_375\n        /* \"#utility.yul\":16651:16658   */\n      dup4\n        /* \"#utility.yul\":16620:16659   */\n      tag_204\n      jump\t// in\n    tag_375:\n        /* \"#utility.yul\":16681:16772   */\n      tag_376\n        /* \"#utility.yul\":16730:16771   */\n      tag_377\n        /* \"#utility.yul\":16754:16770   */\n      dup3\n        /* \"#utility.yul\":16730:16771   */\n      tag_205\n      jump\t// in\n    tag_377:\n        /* \"#utility.yul\":16722:16728   */\n      dup5\n        /* \"#utility.yul\":16715:16719   */\n      dup5\n        /* \"#utility.yul\":16709:16720   */\n      sload\n        /* \"#utility.yul\":16681:16772   */\n      tag_202\n      jump\t// in\n    tag_376:\n        /* \"#utility.yul\":16675:16679   */\n      dup3\n        /* \"#utility.yul\":16668:16773   */\n      sstore\n        /* \"#utility.yul\":16586:16779   */\n      pop\n        /* \"#utility.yul\":16510:16779   */\n      pop\n      pop\n      pop\n      jump\t// out\n        /* \"#utility.yul\":16785:16858   */\n    tag_207:\n        /* \"#utility.yul\":16830:16833   */\n      0x00\n        /* \"#utility.yul\":16851:16852   */\n      0x00\n        /* \"#utility.yul\":16844:16852   */\n      swap1\n      pop\n        /* \"#utility.yul\":16785:16858   */\n      swap1\n      jump\t// out\n        /* \"#utility.yul\":16864:17053   */\n    tag_208:\n        /* \"#utility.yul\":16941:16973   */\n      tag_380\n      tag_207\n      jump\t// in\n    tag_380:\n        /* \"#utility.yul\":16982:17047   */\n      tag_381\n        /* \"#utility.yul\":17040:17046   */\n      dup2\n        /* \"#utility.yul\":17032:17038   */\n      dup5\n        /* \"#utility.yul\":17026:17030   */\n      dup5\n        /* \"#utility.yul\":16982:17047   */\n      tag_206\n      jump\t// in\n    tag_381:\n        /* \"#utility.yul\":16917:17053   */\n      pop\n        /* \"#utility.yul\":16864:17053   */\n      pop\n      pop\n      jump\t// out\n        /* \"#utility.yul\":17059:17245   */\n    tag_209:\n        /* \"#utility.yul\":17119:17239   */\n    tag_383:\n        /* \"#utility.yul\":17136:17139   */\n      dup2\n        /* \"#utility.yul\":17129:17134   */\n      dup2\n        /* \"#utility.yul\":17126:17140   */\n      lt\n        /* \"#utility.yul\":17119:17239   */\n      iszero\n      tag_385\n      jumpi\n        /* \"#utility.yul\":17190:17229   */\n      tag_386\n        /* \"#utility.yul\":17227:17228   */\n      0x00\n        /* \"#utility.yul\":17220:17225   */\n      dup3\n        /* \"#utility.yul\":17190:17229   */\n      tag_208\n      jump\t// in\n    tag_386:\n        /* \"#utility.yul\":17163:17164   */\n      0x01\n        /* \"#utility.yul\":17156:17161   */\n      dup2\n        /* \"#utility.yul\":17152:17165   */\n      add\n        /* \"#utility.yul\":17143:17165   */\n      swap1\n      pop\n        /* \"#utility.yul\":17119:17239   */\n      jump(tag_383)\n    tag_385:\n        /* \"#utility.yul\":17059:17245   */\n      pop\n      pop\n      jump\t// out\n        /* \"#utility.yul\":17251:17794   */\n    tag_210:\n        /* \"#utility.yul\":17352:17354   */\n      0x1f\n        /* \"#utility.yul\":17347:17350   */\n      dup3\n        /* \"#utility.yul\":17344:17355   */\n      gt\n        /* \"#utility.yul\":17341:17787   */\n      iszero\n      tag_388\n      jumpi\n        /* \"#utility.yul\":17386:17424   */\n      tag_389\n        /* \"#utility.yul\":17418:17423   */\n      dup2\n        /* \"#utility.yul\":17386:17424   */\n      tag_199\n      jump\t// in\n    tag_389:\n        /* \"#utility.yul\":17470:17499   */\n      tag_390\n        /* \"#utility.yul\":17488:17498   */\n      dup5\n        /* \"#utility.yul\":17470:17499   */\n      tag_200\n      jump\t// in\n    tag_390:\n        /* \"#utility.yul\":17460:17468   */\n      dup2\n        /* \"#utility.yul\":17456:17500   */\n      add\n        /* \"#utility.yul\":17653:17655   */\n      0x20\n        /* \"#utility.yul\":17641:17651   */\n      dup6\n        /* \"#utility.yul\":17638:17656   */\n      lt\n        /* \"#utility.yul\":17635:17684   */\n      iszero\n      tag_391\n      jumpi\n        /* \"#utility.yul\":17674:17682   */\n      dup2\n        /* \"#utility.yul\":17659:17682   */\n      swap1\n      pop\n        /* \"#utility.yul\":17635:17684   */\n    tag_391:\n        /* \"#utility.yul\":17697:17777   */\n      tag_392\n        /* \"#utility.yul\":17753:17775   */\n      tag_393\n        /* \"#utility.yul\":17771:17774   */\n      dup6\n        /* \"#utility.yul\":17753:17775   */\n      tag_200\n      jump\t// in\n    tag_393:\n        /* \"#utility.yul\":17743:17751   */\n      dup4\n        /* \"#utility.yul\":17739:17776   */\n      add\n        /* \"#utility.yul\":17726:17737   */\n      dup3\n        /* \"#utility.yul\":17697:17777   */\n      tag_209\n      jump\t// in\n    tag_392:\n        /* \"#utility.yul\":17356:17787   */\n      pop\n      pop\n        /* \"#utility.yul\":17341:17787   */\n    tag_388:\n        /* \"#utility.yul\":17251:17794   */\n      pop\n      pop\n      pop\n      jump\t// out\n        /* \"#utility.yul\":17800:17917   */\n    tag_211:\n        /* \"#utility.yul\":17854:17862   */\n      0x00\n        /* \"#utility.yul\":17904:17909   */\n      dup3\n        /* \"#utility.yul\":17898:17902   */\n      dup3\n        /* \"#utility.yul\":17894:17910   */\n      shr\n        /* \"#utility.yul\":17873:17910   */\n      swap1\n      pop\n        /* \"#utility.yul\":17800:17917   */\n      swap3\n      swap2\n      pop\n      pop\n      jump\t// out\n        /* \"#utility.yul\":17923:18092   */\n    tag_212:\n        /* \"#utility.yul\":17967:17973   */\n      0x00\n        /* \"#utility.yul\":18000:18051   */\n      tag_396\n        /* \"#utility.yul\":18048:18049   */\n      0x00\n        /* \"#utility.yul\":18044:18050   */\n      not\n        /* \"#utility.yul\":18036:18041   */\n      dup5\n        /* \"#utility.yul\":18033:18034   */\n      0x08\n        /* \"#utility.yul\":18029:18042   */\n      mul\n        /* \"#utility.yul\":18000:18051   */\n      tag_211\n      jump\t// in\n    tag_396:\n        /* \"#utility.yul\":17996:18052   */\n      not\n        /* \"#utility.yul\":18081:18085   */\n      dup1\n        /* \"#utility.yul\":18075:18079   */\n      dup4\n        /* \"#utility.yul\":18071:18086   */\n      and\n        /* \"#utility.yul\":18061:18086   */\n      swap2\n      pop\n        /* \"#utility.yul\":17974:18092   */\n      pop\n        /* \"#utility.yul\":17923:18092   */\n      swap3\n      swap2\n      pop\n      pop\n      jump\t// out\n        /* \"#utility.yul\":18097:18392   */\n    tag_213:\n        /* \"#utility.yul\":18173:18177   */\n      0x00\n        /* \"#utility.yul\":18319:18348   */\n      tag_398\n        /* \"#utility.yul\":18344:18347   */\n      dup4\n        /* \"#utility.yul\":18338:18342   */\n      dup4\n        /* \"#utility.yul\":18319:18348   */\n      tag_212\n      jump\t// in\n    tag_398:\n        /* \"#utility.yul\":18311:18348   */\n      swap2\n      pop\n        /* \"#utility.yul\":18381:18384   */\n      dup3\n        /* \"#utility.yul\":18378:18379   */\n      0x02\n        /* \"#utility.yul\":18374:18385   */\n      mul\n        /* \"#utility.yul\":18368:18372   */\n      dup3\n        /* \"#utility.yul\":18365:18386   */\n      or\n        /* \"#utility.yul\":18357:18386   */\n      swap1\n      pop\n        /* \"#utility.yul\":18097:18392   */\n      swap3\n      swap2\n      pop\n      pop\n      jump\t// out\n        /* \"#utility.yul\":18397:19792   */\n    tag_43:\n        /* \"#utility.yul\":18514:18551   */\n      tag_400\n        /* \"#utility.yul\":18547:18550   */\n      dup3\n        /* \"#utility.yul\":18514:18551   */\n      tag_178\n      jump\t// in\n    tag_400:\n        /* \"#utility.yul\":18616:18634   */\n      0xffffffffffffffff\n        /* \"#utility.yul\":18608:18614   */\n      dup2\n        /* \"#utility.yul\":18605:18635   */\n      gt\n        /* \"#utility.yul\":18602:18658   */\n      iszero\n      tag_401\n      jumpi\n        /* \"#utility.yul\":18638:18656   */\n      tag_402\n      tag_103\n      jump\t// in\n    tag_402:\n        /* \"#utility.yul\":18602:18658   */\n    tag_401:\n        /* \"#utility.yul\":18682:18720   */\n      tag_403\n        /* \"#utility.yul\":18714:18718   */\n      dup3\n        /* \"#utility.yul\":18708:18719   */\n      sload\n        /* \"#utility.yul\":18682:18720   */\n      tag_88\n      jump\t// in\n    tag_403:\n        /* \"#utility.yul\":18767:18834   */\n      tag_404\n        /* \"#utility.yul\":18827:18833   */\n      dup3\n        /* \"#utility.yul\":18819:18825   */\n      dup3\n        /* \"#utility.yul\":18813:18817   */\n      dup6\n        /* \"#utility.yul\":18767:18834   */\n      tag_210\n      jump\t// in\n    tag_404:\n        /* \"#utility.yul\":18861:18862   */\n      0x00\n        /* \"#utility.yul\":18885:18889   */\n      0x20\n        /* \"#utility.yul\":18872:18889   */\n      swap1\n      pop\n        /* \"#utility.yul\":18917:18919   */\n      0x1f\n        /* \"#utility.yul\":18909:18915   */\n      dup4\n        /* \"#utility.yul\":18906:18920   */\n      gt\n        /* \"#utility.yul\":18934:18935   */\n      0x01\n        /* \"#utility.yul\":18929:19547   */\n      dup2\n      eq\n      tag_406\n      jumpi\n        /* \"#utility.yul\":19591:19592   */\n      0x00\n        /* \"#utility.yul\":19608:19614   */\n      dup5\n        /* \"#utility.yul\":19605:19682   */\n      iszero\n      tag_407\n      jumpi\n        /* \"#utility.yul\":19657:19666   */\n      dup3\n        /* \"#utility.yul\":19652:19655   */\n      dup8\n        /* \"#utility.yul\":19648:19667   */\n      add\n        /* \"#utility.yul\":19642:19668   */\n      mload\n        /* \"#utility.yul\":19633:19668   */\n      swap1\n      pop\n        /* \"#utility.yul\":19605:19682   */\n    tag_407:\n        /* \"#utility.yul\":19708:19775   */\n      tag_408\n        /* \"#utility.yul\":19768:19774   */\n      dup6\n        /* \"#utility.yul\":19761:19766   */\n      dup3\n        /* \"#utility.yul\":19708:19775   */\n      tag_213\n      jump\t// in\n    tag_408:\n        /* \"#utility.yul\":19702:19706   */\n      dup7\n        /* \"#utility.yul\":19695:19776   */\n      sstore\n        /* \"#utility.yul\":19564:19786   */\n      pop\n        /* \"#utility.yul\":18899:19786   */\n      jump(tag_405)\n        /* \"#utility.yul\":18929:19547   */\n    tag_406:\n        /* \"#utility.yul\":18981:18985   */\n      0x1f\n        /* \"#utility.yul\":18977:18986   */\n      not\n        /* \"#utility.yul\":18969:18975   */\n      dup5\n        /* \"#utility.yul\":18965:18987   */\n      and\n        /* \"#utility.yul\":19015:19052   */\n      tag_409\n        /* \"#utility.yul\":19047:19051   */\n      dup7\n        /* \"#utility.yul\":19015:19052   */\n      tag_199\n      jump\t// in\n    tag_409:\n        /* \"#utility.yul\":19074:19075   */\n      0x00\n        /* \"#utility.yul\":19088:19296   */\n    tag_410:\n        /* \"#utility.yul\":19102:19109   */\n      dup3\n        /* \"#utility.yul\":19099:19100   */\n      dup2\n        /* \"#utility.yul\":19096:19110   */\n      lt\n        /* \"#utility.yul\":19088:19296   */\n      iszero\n      tag_412\n      jumpi\n        /* \"#utility.yul\":19181:19190   */\n      dup5\n        /* \"#utility.yul\":19176:19179   */\n      dup10\n        /* \"#utility.yul\":19172:19191   */\n      add\n        /* \"#utility.yul\":19166:19192   */\n      mload\n        /* \"#utility.yul\":19158:19164   */\n      dup3\n        /* \"#utility.yul\":19151:19193   */\n      sstore\n        /* \"#utility.yul\":19232:19233   */\n      0x01\n        /* \"#utility.yul\":19224:19230   */\n      dup3\n        /* \"#utility.yul\":19220:19234   */\n      add\n        /* \"#utility.yul\":19210:19234   */\n      swap2\n      pop\n        /* \"#utility.yul\":19279:19281   */\n      0x20\n        /* \"#utility.yul\":19268:19277   */\n      dup6\n        /* \"#utility.yul\":19264:19282   */\n      add\n        /* \"#utility.yul\":19251:19282   */\n      swap5\n      pop\n        /* \"#utility.yul\":19125:19129   */\n      0x20\n        /* \"#utility.yul\":19122:19123   */\n      dup2\n        /* \"#utility.yul\":19118:19130   */\n      add\n        /* \"#utility.yul\":19113:19130   */\n      swap1\n      pop\n        /* \"#utility.yul\":19088:19296   */\n      jump(tag_410)\n    tag_412:\n        /* \"#utility.yul\":19324:19330   */\n      dup7\n        /* \"#utility.yul\":19315:19322   */\n      dup4\n        /* \"#utility.yul\":19312:19331   */\n      lt\n        /* \"#utility.yul\":19309:19488   */\n      iszero\n      tag_413\n      jumpi\n        /* \"#utility.yul\":19382:19391   */\n      dup5\n        /* \"#utility.yul\":19377:19380   */\n      dup10\n        /* \"#utility.yul\":19373:19392   */\n      add\n        /* \"#utility.yul\":19367:19393   */\n      mload\n        /* \"#utility.yul\":19425:19473   */\n      tag_414\n        /* \"#utility.yul\":19467:19471   */\n      0x1f\n        /* \"#utility.yul\":19459:19465   */\n      dup10\n        /* \"#utility.yul\":19455:19472   */\n      and\n        /* \"#utility.yul\":19444:19453   */\n      dup3\n        /* \"#utility.yul\":19425:19473   */\n      tag_212\n      jump\t// in\n    tag_414:\n        /* \"#utility.yul\":19417:19423   */\n      dup4\n        /* \"#utility.yul\":19410:19474   */\n      sstore\n        /* \"#utility.yul\":19332:19488   */\n      pop\n        /* \"#utility.yul\":19309:19488   */\n    tag_413:\n        /* \"#utility.yul\":19534:19535   */\n      0x01\n        /* \"#utility.yul\":19530:19531   */\n      0x02\n        /* \"#utility.yul\":19522:19528   */\n      dup9\n        /* \"#utility.yul\":19518:19532   */\n      mul\n        /* \"#utility.yul\":19514:19536   */\n      add\n        /* \"#utility.yul\":19508:19512   */\n      dup9\n        /* \"#utility.yul\":19501:19537   */\n      sstore\n        /* \"#utility.yul\":18936:19547   */\n      pop\n      pop\n      pop\n        /* \"#utility.yul\":18899:19786   */\n    tag_405:\n      pop\n        /* \"#utility.yul\":18489:19792   */\n      pop\n      pop\n      pop\n        /* \"#utility.yul\":18397:19792   */\n      pop\n      pop\n      jump\t// out\n        /* \"#utility.yul\":19798:19978   */\n    tag_214:\n        /* \"#utility.yul\":19846:19923   */\n      0x4e487b7100000000000000000000000000000000000000000000000000000000\n        /* \"#utility.yul\":19843:19844   */\n      0x00\n        /* \"#utility.yul\":19836:19924   */\n      mstore\n        /* \"#utility.yul\":19943:19947   */\n      0x11\n        /* \"#utility.yul\":19940:19941   */\n      0x04\n        /* \"#utility.yul\":19933:19948   */\n      mstore\n        /* \"#utility.yul\":19967:19971   */\n      0x24\n        /* \"#utility.yul\":19964:19965   */\n      0x00\n        /* \"#utility.yul\":19957:19972   */\n      revert\n        /* \"#utility.yul\":19984:20217   */\n    tag_49:\n        /* \"#utility.yul\":20023:20026   */\n      0x00\n        /* \"#utility.yul\":20046:20070   */\n      tag_417\n        /* \"#utility.yul\":20064:20069   */\n      dup3\n        /* \"#utility.yul\":20046:20070   */\n      tag_169\n      jump\t// in\n    tag_417:\n        /* \"#utility.yul\":20037:20070   */\n      swap2\n      pop\n        /* \"#utility.yul\":20092:20158   */\n      0xffffffffffffffffffffffffffffffffffffffffffffffffffffffffffffffff\n        /* \"#utility.yul\":20085:20090   */\n      dup3\n        /* \"#utility.yul\":20082:20159   */\n      sub\n        /* \"#utility.yul\":20079:20182   */\n      tag_418\n      jumpi\n        /* \"#utility.yul\":20162:20180   */\n      tag_419\n      tag_214\n      jump\t// in\n    tag_419:\n        /* \"#utility.yul\":20079:20182   */\n    tag_418:\n        /* \"#utility.yul\":20209:20210   */\n      0x01\n        /* \"#utility.yul\":20202:20207   */\n      dup3\n        /* \"#utility.yul\":20198:20211   */\n      add\n        /* \"#utility.yul\":20191:20211   */\n      swap1\n      pop\n        /* \"#utility.yul\":19984:20217   */\n      swap2\n      swap1\n      pop\n      jump\t// out\n        /* \"#utility.yul\":20223:20403   */\n    tag_62:\n        /* \"#utility.yul\":20271:20348   */\n      0x4e487b7100000000000000000000000000000000000000000000000000000000\n        /* \"#utility.yul\":20268:20269   */\n      0x00\n        /* \"#utility.yul\":20261:20349   */\n      mstore\n        /* \"#utility.yul\":20368:20372   */\n      0x32\n        /* \"#utility.yul\":20365:20366   */\n      0x04\n        /* \"#utility.yul\":20358:20373   */\n      mstore\n        /* \"#utility.yul\":20392:20396   */\n      0x24\n        /* \"#utility.yul\":20389:20390   */\n      0x00\n        /* \"#utility.yul\":20382:20397   */\n      revert\n        /* \"#utility.yul\":20409:20578   */\n    tag_215:\n        /* \"#utility.yul\":20493:20504   */\n      0x00\n        /* \"#utility.yul\":20527:20533   */\n      dup3\n        /* \"#utility.yul\":20522:20525   */\n      dup3\n        /* \"#utility.yul\":20515:20534   */\n      mstore\n        /* \"#utility.yul\":20567:20571   */\n      0x20\n        /* \"#utility.yul\":20562:20565   */\n      dup3\n        /* \"#utility.yul\":20558:20572   */\n      add\n        /* \"#utility.yul\":20543:20572   */\n      swap1\n      pop\n        /* \"#utility.yul\":20409:20578   */\n      swap3\n      swap2\n      pop\n      pop\n      jump\t// out\n        /* \"#utility.yul\":20584:20751   */\n    tag_216:\n        /* \"#utility.yul\":20724:20743   */\n      0x436f6e74616374206e6f7420666f756e64000000000000000000000000000000\n        /* \"#utility.yul\":20720:20721   */\n      0x00\n        /* \"#utility.yul\":20712:20718   */\n      dup3\n        /* \"#utility.yul\":20708:20722   */\n      add\n        /* \"#utility.yul\":20701:20744   */\n      mstore\n        /* \"#utility.yul\":20584:20751   */\n      pop\n      jump\t// out\n        /* \"#utility.yul\":20757:21123   */\n    tag_217:\n        /* \"#utility.yul\":20899:20902   */\n      0x00\n        /* \"#utility.yul\":20920:20987   */\n      tag_424\n        /* \"#utility.yul\":20984:20986   */\n      0x11\n        /* \"#utility.yul\":20979:20982   */\n      dup4\n        /* \"#utility.yul\":20920:20987   */\n      tag_215\n      jump\t// in\n    tag_424:\n        /* \"#utility.yul\":20913:20987   */\n      swap2\n      pop\n        /* \"#utility.yul\":20996:21089   */\n      tag_425\n        /* \"#utility.yul\":21085:21088   */\n      dup3\n        /* \"#utility.yul\":20996:21089   */\n      tag_216\n      jump\t// in\n    tag_425:\n        /* \"#utility.yul\":21114:21116   */\n      0x20\n        /* \"#utility.yul\":21109:21112   */\n      dup3\n        /* \"#utility.yul\":21105:21117   */\n      add\n        /* \"#utility.yul\":21098:21117   */\n      swap1\n      pop\n        /* \"#utility.yul\":20757:21123   */\n      swap2\n      swap1\n      pop\n      jump\t// out\n        /* \"#utility.yul\":21129:21548   */\n    tag_66:\n        /* \"#utility.yul\":21295:21299   */\n      0x00\n        /* \"#utility.yul\":21333:21335   */\n      0x20\n        /* \"#utility.yul\":21322:21331   */\n      dup3\n        /* \"#utility.yul\":21318:21336   */\n      add\n        /* \"#utility.yul\":21310:21336   */\n      swap1\n      pop\n        /* \"#utility.yul\":21382:21391   */\n      dup2\n        /* \"#utility.yul\":21376:21380   */\n      dup2\n        /* \"#utility.yul\":21372:21392   */\n      sub\n        /* \"#utility.yul\":21368:21369   */\n      0x00\n        /* \"#utility.yul\":21357:21366   */\n      dup4\n        /* \"#utility.yul\":21353:21370   */\n      add\n        /* \"#utility.yul\":21346:21393   */\n      mstore\n        /* \"#utility.yul\":21410:21541   */\n      tag_427\n        /* \"#utility.yul\":21536:21540   */\n      dup2\n        /* \"#utility.yul\":21410:21541   */\n      tag_217\n      jump\t// in\n    tag_427:\n        /* \"#utility.yul\":21402:21541   */\n      swap1\n      pop\n        /* \"#utility.yul\":21129:21548   */\n      swap2\n      swap1\n      pop\n      jump\t// out\n        /* \"#utility.yul\":21554:21748   */\n    tag_68:\n        /* \"#utility.yul\":21594:21598   */\n      0x00\n        /* \"#utility.yul\":21614:21634   */\n      tag_429\n        /* \"#utility.yul\":21632:21633   */\n      dup3\n        /* \"#utility.yul\":21614:21634   */\n      tag_169\n      jump\t// in\n    tag_429:\n        /* \"#utility.yul\":21609:21634   */\n      swap2\n      pop\n        /* \"#utility.yul\":21648:21668   */\n      tag_430\n        /* \"#utility.yul\":21666:21667   */\n      dup4\n        /* \"#utility.yul\":21648:21668   */\n      tag_169\n      jump\t// in\n    tag_430:\n        /* \"#utility.yul\":21643:21668   */\n      swap3\n      pop\n        /* \"#utility.yul\":21692:21693   */\n      dup3\n        /* \"#utility.yul\":21689:21690   */\n      dup3\n        /* \"#utility.yul\":21685:21694   */\n      sub\n        /* \"#utility.yul\":21677:21694   */\n      swap1\n      pop\n        /* \"#utility.yul\":21716:21717   */\n      dup2\n        /* \"#utility.yul\":21710:21714   */\n      dup2\n        /* \"#utility.yul\":21707:21718   */\n      gt\n        /* \"#utility.yul\":21704:21741   */\n      iszero\n      tag_431\n      jumpi\n        /* \"#utility.yul\":21721:21739   */\n      tag_432\n      tag_214\n      jump\t// in\n    tag_432:\n        /* \"#utility.yul\":21704:21741   */\n    tag_431:\n        /* \"#utility.yul\":21554:21748   */\n      swap3\n      swap2\n      pop\n      pop\n      jump\t// out\n        /* \"#utility.yul\":21754:21934   */\n    tag_77:\n        /* \"#utility.yul\":21802:21879   */\n      0x4e487b7100000000000000000000000000000000000000000000000000000000\n        /* \"#utility.yul\":21799:21800   */\n      0x00\n        /* \"#utility.yul\":21792:21880   */\n      mstore\n        /* \"#utility.yul\":21899:21903   */\n      0x31\n        /* \"#utility.yul\":21896:21897   */\n      0x04\n        /* \"#utility.yul\":21889:21904   */\n      mstore\n        /* \"#utility.yul\":21923:21927   */\n      0x24\n        /* \"#utility.yul\":21920:21921   */\n      0x00\n        /* \"#utility.yul\":21913:21928   */\n      revert\n\n    auxdata: 0xa26469706673582212205a6b6f4dd2747febd9ae3e90a3c08d271d435891173008380dee5ac6a94c217d64736f6c634300081e0033\n}\n",
				"bytecode": {
					"linkReferences": {},
					"object": "608060405234801561000f575f5ffd5b50335f73ffffffffffffffffffffffffffffffffffffffff168173ffffffffffffffffffffffffffffffffffffffff1603610081575f6040517f1e4fbdf70000000000000000000000000000000000000000000000000000000081526004016100789190610196565b60405180910390fd5b6100908161009660201b60201c565b506101af565b5f5f5f9054906101000a900473ffffffffffffffffffffffffffffffffffffffff169050815f5f6101000a81548173ffffffffffffffffffffffffffffffffffffffff021916908373ffffffffffffffffffffffffffffffffffffffff1602179055508173ffffffffffffffffffffffffffffffffffffffff168173ffffffffffffffffffffffffffffffffffffffff167f8be0079c531659141344cd1fd0a4f28419497f9722a3daafe3b4186f6b6457e060405160405180910390a35050565b5f73ffffffffffffffffffffffffffffffffffffffff82169050919050565b5f61018082610157565b9050919050565b61019081610176565b82525050565b5f6020820190506101a95f830184610187565b92915050565b6115e1806101bc5f395ff3fe608060405234801561000f575f5ffd5b506004361061007b575f3560e01c8063b9ed6fca11610059578063b9ed6fca146100c3578063e6505e1e146100df578063ef1d6ddd1461010f578063f2fde38b1461012d5761007b565b80633f06f6e81461007f578063715018a61461009b5780638da5cb5b146100a5575b5f5ffd5b61009960048036038101906100949190610cfc565b610149565b005b6100a361023b565b005b6100ad61024e565b6040516100ba9190610ddf565b60405180910390f35b6100dd60048036038101906100d89190610df8565b610275565b005b6100f960048036038101906100f49190610df8565b6103f9565b6040516101069190610fa8565b60405180910390f35b6101176105a3565b60405161012491906110f1565b60405180910390f35b6101476004803603810190610142919061113b565b6107fd565b005b610151610881565b5f600454905060405180608001604052808281526020018581526020018481526020018381525060015f8381526020019081526020015f205f820151815f015560208201518160010190816101a69190611363565b5060408201518160020190816101bc9190611363565b5060608201518160030190805190602001906101d99291906109d0565b5090505060028054905060035f8381526020019081526020015f2081905550600281908060018154018082558091505060019003905f5260205f20015f909190919091505560045f8154809291906102309061145f565b919050555050505050565b610243610881565b61024c5f610908565b565b5f5f5f9054906101000a900473ffffffffffffffffffffffffffffffffffffffff16905090565b61027d610881565b5f60035f8381526020019081526020015f20541415806102b857508060025f815481106102ad576102ac6114a6565b5b905f5260205f200154145b6102f7576040517f08c379a00000000000000000000000000000000000000000000000000000000081526004016102ee9061152d565b60405180910390fd5b5f60035f8381526020019081526020015f205490505f60026001600280549050610321919061154b565b81548110610332576103316114a6565b5b905f5260205f20015490508060028381548110610352576103516114a6565b5b905f5260205f2001819055508160035f8381526020019081526020015f208190555060028054806103865761038561157e565b5b600190038181905f5260205f20015f9055905560015f8481526020019081526020015f205f5f82015f9055600182015f6103c09190610a1b565b600282015f6103cf9190610a1b565b600382015f6103de9190610a58565b505060035f8481526020019081526020015f205f9055505050565b610401610a76565b60015f8381526020019081526020015f206040518060800160405290815f820154815260200160018201805461043690611193565b80601f016020809104026020016040519081016040528092919081815260200182805461046290611193565b80156104ad5780601f10610484576101008083540402835291602001916104ad565b820191905f5260205f20905b81548152906001019060200180831161049057829003601f168201915b505050505081526020016002820180546104c690611193565b80601f01602080910402602001604051908101604052809291908181526020018280546104f290611193565b801561053d5780601f106105145761010080835404028352916020019161053d565b820191905f5260205f20905b81548152906001019060200180831161052057829003601f168201915b505050505081526020016003820180548060200260200160405190810160405280929190818152602001828054801561059357602002820191905f5260205f20905b81548152602001906001019080831161057f575b5050505050815250509050919050565b60605f60028054905067ffffffffffffffff8111156105c5576105c4610ae1565b5b6040519080825280602002602001820160405280156105fe57816020015b6105eb610a76565b8152602001906001900390816105e35790505b5090505f5f90505b6002805490508110156107f55760015f6002838154811061062a576106296114a6565b5b905f5260205f20015481526020019081526020015f206040518060800160405290815f820154815260200160018201805461066490611193565b80601f016020809104026020016040519081016040528092919081815260200182805461069090611193565b80156106db5780601f106106b2576101008083540402835291602001916106db565b820191905f5260205f20905b8154815290600101906020018083116106be57829003601f168201915b505050505081526020016002820180546106f490611193565b80601f016020809104026020016040519081016040528092919081815260200182805461072090611193565b801561076b5780601f106107425761010080835404028352916020019161076b565b820191905f5260205f20905b81548152906001019060200180831161074e57829003601f168201915b50505050508152602001600382018054806020026020016040519081016040528092919081815260200182805480156107c157602002820191905f5260205f20905b8154815260200190600101908083116107ad575b5050505050815250508282815181106107dd576107dc6114a6565b5b60200260200101819052508080600101915050610606565b508091505090565b610805610881565b5f73ffffffffffffffffffffffffffffffffffffffff168173ffffffffffffffffffffffffffffffffffffffff1603610875575f6040517f1e4fbdf700000000000000000000000000000000000000000000000000000000815260040161086c9190610ddf565b60405180910390fd5b61087e81610908565b50565b6108896109c9565b73ffffffffffffffffffffffffffffffffffffffff166108a761024e565b73ffffffffffffffffffffffffffffffffffffffff1614610906576108ca6109c9565b6040517f118cdaa70000000000000000000000000000000000000000000000000000000081526004016108fd9190610ddf565b60405180910390fd5b565b5f5f5f9054906101000a900473ffffffffffffffffffffffffffffffffffffffff169050815f5f6101000a81548173ffffffffffffffffffffffffffffffffffffffff021916908373ffffffffffffffffffffffffffffffffffffffff1602179055508173ffffffffffffffffffffffffffffffffffffffff168173ffffffffffffffffffffffffffffffffffffffff167f8be0079c531659141344cd1fd0a4f28419497f9722a3daafe3b4186f6b6457e060405160405180910390a35050565b5f33905090565b828054828255905f5260205f20908101928215610a0a579160200282015b82811115610a095782518255916020019190600101906109ee565b5b509050610a179190610a9d565b5090565b508054610a2790611193565b5f825580601f10610a385750610a55565b601f0160209004905f5260205f2090810190610a549190610a9d565b5b50565b5080545f8255905f5260205f2090810190610a739190610a9d565b50565b60405180608001604052805f81526020016060815260200160608152602001606081525090565b5b80821115610ab4575f815f905550600101610a9e565b5090565b5f604051905090565b5f5ffd5b5f5ffd5b5f5ffd5b5f5ffd5b5f601f19601f8301169050919050565b7f4e487b71000000000000000000000000000000000000000000000000000000005f52604160045260245ffd5b610b1782610ad1565b810181811067ffffffffffffffff82111715610b3657610b35610ae1565b5b80604052505050565b5f610b48610ab8565b9050610b548282610b0e565b919050565b5f67ffffffffffffffff821115610b7357610b72610ae1565b5b610b7c82610ad1565b9050602081019050919050565b828183375f83830152505050565b5f610ba9610ba484610b59565b610b3f565b905082815260208101848484011115610bc557610bc4610acd565b5b610bd0848285610b89565b509392505050565b5f82601f830112610bec57610beb610ac9565b5b8135610bfc848260208601610b97565b91505092915050565b5f67ffffffffffffffff821115610c1f57610c1e610ae1565b5b602082029050602081019050919050565b5f5ffd5b5f819050919050565b610c4681610c34565b8114610c50575f5ffd5b50565b5f81359050610c6181610c3d565b92915050565b5f610c79610c7484610c05565b610b3f565b90508083825260208201905060208402830185811115610c9c57610c9b610c30565b5b835b81811015610cc55780610cb18882610c53565b845260208401935050602081019050610c9e565b5050509392505050565b5f82601f830112610ce357610ce2610ac9565b5b8135610cf3848260208601610c67565b91505092915050565b5f5f5f60608486031215610d1357610d12610ac1565b5b5f84013567ffffffffffffffff811115610d3057610d2f610ac5565b5b610d3c86828701610bd8565b935050602084013567ffffffffffffffff811115610d5d57610d5c610ac5565b5b610d6986828701610bd8565b925050604084013567ffffffffffffffff811115610d8a57610d89610ac5565b5b610d9686828701610ccf565b9150509250925092565b5f73ffffffffffffffffffffffffffffffffffffffff82169050919050565b5f610dc982610da0565b9050919050565b610dd981610dbf565b82525050565b5f602082019050610df25f830184610dd0565b92915050565b5f60208284031215610e0d57610e0c610ac1565b5b5f610e1a84828501610c53565b91505092915050565b610e2c81610c34565b82525050565b5f81519050919050565b5f82825260208201905092915050565b8281835e5f83830152505050565b5f610e6482610e32565b610e6e8185610e3c565b9350610e7e818560208601610e4c565b610e8781610ad1565b840191505092915050565b5f81519050919050565b5f82825260208201905092915050565b5f819050602082019050919050565b5f610ec68383610e23565b60208301905092915050565b5f602082019050919050565b5f610ee882610e92565b610ef28185610e9c565b9350610efd83610eac565b805f5b83811015610f2d578151610f148882610ebb565b9750610f1f83610ed2565b925050600181019050610f00565b5085935050505092915050565b5f608083015f830151610f4f5f860182610e23565b5060208301518482036020860152610f678282610e5a565b91505060408301518482036040860152610f818282610e5a565b91505060608301518482036060860152610f9b8282610ede565b9150508091505092915050565b5f6020820190508181035f830152610fc08184610f3a565b905092915050565b5f81519050919050565b5f82825260208201905092915050565b5f819050602082019050919050565b5f608083015f8301516110065f860182610e23565b506020830151848203602086015261101e8282610e5a565b915050604083015184820360408601526110388282610e5a565b915050606083015184820360608601526110528282610ede565b9150508091505092915050565b5f61106a8383610ff1565b905092915050565b5f602082019050919050565b5f61108882610fc8565b6110928185610fd2565b9350836020820285016110a485610fe2565b805f5b858110156110df57848403895281516110c0858261105f565b94506110cb83611072565b925060208a019950506001810190506110a7565b50829750879550505050505092915050565b5f6020820190508181035f830152611109818461107e565b905092915050565b61111a81610dbf565b8114611124575f5ffd5b50565b5f8135905061113581611111565b92915050565b5f602082840312156111505761114f610ac1565b5b5f61115d84828501611127565b91505092915050565b7f4e487b71000000000000000000000000000000000000000000000000000000005f52602260045260245ffd5b5f60028204905060018216806111aa57607f821691505b6020821081036111bd576111bc611166565b5b50919050565b5f819050815f5260205f209050919050565b5f6020601f8301049050919050565b5f82821b905092915050565b5f6008830261121f7fffffffffffffffffffffffffffffffffffffffffffffffffffffffffffffffff826111e4565b61122986836111e4565b95508019841693508086168417925050509392505050565b5f819050919050565b5f61126461125f61125a84610c34565b611241565b610c34565b9050919050565b5f819050919050565b61127d8361124a565b6112916112898261126b565b8484546111f0565b825550505050565b5f5f905090565b6112a8611299565b6112b3818484611274565b505050565b5b818110156112d6576112cb5f826112a0565b6001810190506112b9565b5050565b601f82111561131b576112ec816111c3565b6112f5846111d5565b81016020851015611304578190505b611318611310856111d5565b8301826112b8565b50505b505050565b5f82821c905092915050565b5f61133b5f1984600802611320565b1980831691505092915050565b5f611353838361132c565b9150826002028217905092915050565b61136c82610e32565b67ffffffffffffffff81111561138557611384610ae1565b5b61138f8254611193565b61139a8282856112da565b5f60209050601f8311600181146113cb575f84156113b9578287015190505b6113c38582611348565b86555061142a565b601f1984166113d9866111c3565b5f5b82811015611400578489015182556001820191506020850194506020810190506113db565b8683101561141d5784890151611419601f89168261132c565b8355505b6001600288020188555050505b505050505050565b7f4e487b71000000000000000000000000000000000000000000000000000000005f52601160045260245ffd5b5f61146982610c34565b91507fffffffffffffffffffffffffffffffffffffffffffffffffffffffffffffffff820361149b5761149a611432565b5b600182019050919050565b7f4e487b71000000000000000000000000000000000000000000000000000000005f52603260045260245ffd5b5f82825260208201905092915050565b7f436f6e74616374206e6f7420666f756e640000000000000000000000000000005f82015250565b5f6115176011836114d3565b9150611522826114e3565b602082019050919050565b5f6020820190508181035f8301526115448161150b565b9050919050565b5f61155582610c34565b915061156083610c34565b925082820390508181111561157857611577611432565b5b92915050565b7f4e487b71000000000000000000000000000000000000000000000000000000005f52603160045260245ffdfea26469706673582212205a6b6f4dd2747febd9ae3e90a3c08d271d435891173008380dee5ac6a94c217d64736f6c634300081e0033",
					"opcodes": "PUSH1 0x80 PUSH1 0x40 MSTORE CALLVALUE DUP1 ISZERO PUSH2 0xF JUMPI PUSH0 PUSH0 REVERT JUMPDEST POP CALLER PUSH0 PUSH20 0xFFFFFFFFFFFFFFFFFFFFFFFFFFFFFFFFFFFFFFFF AND DUP2 PUSH20 0xFFFFFFFFFFFFFFFFFFFFFFFFFFFFFFFFFFFFFFFF AND SUB PUSH2 0x81 JUMPI PUSH0 PUSH1 0x40 MLOAD PUSH32 0x1E4FBDF700000000000000000000000000000000000000000000000000000000 DUP2 MSTORE PUSH1 0x4 ADD PUSH2 0x78 SWAP2 SWAP1 PUSH2 0x196 JUMP JUMPDEST PUSH1 0x40 MLOAD DUP1 SWAP2 SUB SWAP1 REVERT JUMPDEST PUSH2 0x90 DUP2 PUSH2 0x96 PUSH1 0x20 SHL PUSH1 0x20 SHR JUMP JUMPDEST POP PUSH2 0x1AF JUMP JUMPDEST PUSH0 PUSH0 PUSH0 SWAP1 SLOAD SWAP1 PUSH2 0x100 EXP SWAP1 DIV PUSH20 0xFFFFFFFFFFFFFFFFFFFFFFFFFFFFFFFFFFFFFFFF AND SWAP1 POP DUP2 PUSH0 PUSH0 PUSH2 0x100 EXP DUP2 SLOAD DUP2 PUSH20 0xFFFFFFFFFFFFFFFFFFFFFFFFFFFFFFFFFFFFFFFF MUL NOT AND SWAP1 DUP4 PUSH20 0xFFFFFFFFFFFFFFFFFFFFFFFFFFFFFFFFFFFFFFFF AND MUL OR SWAP1 SSTORE POP DUP2 PUSH20 0xFFFFFFFFFFFFFFFFFFFFFFFFFFFFFFFFFFFFFFFF AND DUP2 PUSH20 0xFFFFFFFFFFFFFFFFFFFFFFFFFFFFFFFFFFFFFFFF AND PUSH32 0x8BE0079C531659141344CD1FD0A4F28419497F9722A3DAAFE3B4186F6B6457E0 PUSH1 0x40 MLOAD PUSH1 0x40 MLOAD DUP1 SWAP2 SUB SWAP1 LOG3 POP POP JUMP JUMPDEST PUSH0 PUSH20 0xFFFFFFFFFFFFFFFFFFFFFFFFFFFFFFFFFFFFFFFF DUP3 AND SWAP1 POP SWAP2 SWAP1 POP JUMP JUMPDEST PUSH0 PUSH2 0x180 DUP3 PUSH2 0x157 JUMP JUMPDEST SWAP1 POP SWAP2 SWAP1 POP JUMP JUMPDEST PUSH2 0x190 DUP2 PUSH2 0x176 JUMP JUMPDEST DUP3 MSTORE POP POP JUMP JUMPDEST PUSH0 PUSH1 0x20 DUP3 ADD SWAP1 POP PUSH2 0x1A9 PUSH0 DUP4 ADD DUP5 PUSH2 0x187 JUMP JUMPDEST SWAP3 SWAP2 POP POP JUMP JUMPDEST PUSH2 0x15E1 DUP1 PUSH2 0x1BC PUSH0 CODECOPY PUSH0 RETURN INVALID PUSH1 0x80 PUSH1 0x40 MSTORE CALLVALUE DUP1 ISZERO PUSH2 0xF JUMPI PUSH0 PUSH0 REVERT JUMPDEST POP PUSH1 0x4 CALLDATASIZE LT PUSH2 0x7B JUMPI PUSH0 CALLDATALOAD PUSH1 0xE0 SHR DUP1 PUSH4 0xB9ED6FCA GT PUSH2 0x59 JUMPI DUP1 PUSH4 0xB9ED6FCA EQ PUSH2 0xC3 JUMPI DUP1 PUSH4 0xE6505E1E EQ PUSH2 0xDF JUMPI DUP1 PUSH4 0xEF1D6DDD EQ PUSH2 0x10F JUMPI DUP1 PUSH4 0xF2FDE38B EQ PUSH2 0x12D JUMPI PUSH2 0x7B JUMP JUMPDEST DUP1 PUSH4 0x3F06F6E8 EQ PUSH2 0x7F JUMPI DUP1 PUSH4 0x715018A6 EQ PUSH2 0x9B JUMPI DUP1 PUSH4 0x8DA5CB5B EQ PUSH2 0xA5 JUMPI JUMPDEST PUSH0 PUSH0 REVERT JUMPDEST PUSH2 0x99 PUSH1 0x4 DUP1 CALLDATASIZE SUB DUP2 ADD SWAP1 PUSH2 0x94 SWAP2 SWAP1 PUSH2 0xCFC JUMP JUMPDEST PUSH2 0x149 JUMP JUMPDEST STOP JUMPDEST PUSH2 0xA3 PUSH2 0x23B JUMP JUMPDEST STOP JUMPDEST PUSH2 0xAD PUSH2 0x24E JUMP JUMPDEST PUSH1 0x40 MLOAD PUSH2 0xBA SWAP2 SWAP1 PUSH2 0xDDF JUMP JUMPDEST PUSH1 0x40 MLOAD DUP1 SWAP2 SUB SWAP1 RETURN JUMPDEST PUSH2 0xDD PUSH1 0x4 DUP1 CALLDATASIZE SUB DUP2 ADD SWAP1 PUSH2 0xD8 SWAP2 SWAP1 PUSH2 0xDF8 JUMP JUMPDEST PUSH2 0x275 JUMP JUMPDEST STOP JUMPDEST PUSH2 0xF9 PUSH1 0x4 DUP1 CALLDATASIZE SUB DUP2 ADD SWAP1 PUSH2 0xF4 SWAP2 SWAP1 PUSH2 0xDF8 JUMP JUMPDEST PUSH2 0x3F9 JUMP JUMPDEST PUSH1 0x40 MLOAD PUSH2 0x106 SWAP2 SWAP1 PUSH2 0xFA8 JUMP JUMPDEST PUSH1 0x40 MLOAD DUP1 SWAP2 SUB SWAP1 RETURN JUMPDEST PUSH2 0x117 PUSH2 0x5A3 JUMP JUMPDEST PUSH1 0x40 MLOAD PUSH2 0x124 SWAP2 SWAP1 PUSH2 0x10F1 JUMP JUMPDEST PUSH1 0x40 MLOAD DUP1 SWAP2 SUB SWAP1 RETURN JUMPDEST PUSH2 0x147 PUSH1 0x4 DUP1 CALLDATASIZE SUB DUP2 ADD SWAP1 PUSH2 0x142 SWAP2 SWAP1 PUSH2 0x113B JUMP JUMPDEST PUSH2 0x7FD JUMP JUMPDEST STOP JUMPDEST PUSH2 0x151 PUSH2 0x881 JUMP JUMPDEST PUSH0 PUSH1 0x4 SLOAD SWAP1 POP PUSH1 0x40 MLOAD DUP1 PUSH1 0x80 ADD PUSH1 0x40 MSTORE DUP1 DUP3 DUP2 MSTORE PUSH1 0x20 ADD DUP6 DUP2 MSTORE PUSH1 0x20 ADD DUP5 DUP2 MSTORE PUSH1 0x20 ADD DUP4 DUP2 MSTORE POP PUSH1 0x1 PUSH0 DUP4 DUP2 MSTORE PUSH1 0x20 ADD SWAP1 DUP2 MSTORE PUSH1 0x20 ADD PUSH0 KECCAK256 PUSH0 DUP3 ADD MLOAD DUP2 PUSH0 ADD SSTORE PUSH1 0x20 DUP3 ADD MLOAD DUP2 PUSH1 0x1 ADD SWAP1 DUP2 PUSH2 0x1A6 SWAP2 SWAP1 PUSH2 0x1363 JUMP JUMPDEST POP PUSH1 0x40 DUP3 ADD MLOAD DUP2 PUSH1 0x2 ADD SWAP1 DUP2 PUSH2 0x1BC SWAP2 SWAP1 PUSH2 0x1363 JUMP JUMPDEST POP PUSH1 0x60 DUP3 ADD MLOAD DUP2 PUSH1 0x3 ADD SWAP1 DUP1 MLOAD SWAP1 PUSH1 0x20 ADD SWAP1 PUSH2 0x1D9 SWAP3 SWAP2 SWAP1 PUSH2 0x9D0 JUMP JUMPDEST POP SWAP1 POP POP PUSH1 0x2 DUP1 SLOAD SWAP1 POP PUSH1 0x3 PUSH0 DUP4 DUP2 MSTORE PUSH1 0x20 ADD SWAP1 DUP2 MSTORE PUSH1 0x20 ADD PUSH0 KECCAK256 DUP2 SWAP1 SSTORE POP PUSH1 0x2 DUP2 SWAP1 DUP1 PUSH1 0x1 DUP2 SLOAD ADD DUP1 DUP3 SSTORE DUP1 SWAP2 POP POP PUSH1 0x1 SWAP1 SUB SWAP1 PUSH0 MSTORE PUSH1 0x20 PUSH0 KECCAK256 ADD PUSH0 SWAP1 SWAP2 SWAP1 SWAP2 SWAP1 SWAP2 POP SSTORE PUSH1 0x4 PUSH0 DUP2 SLOAD DUP1 SWAP3 SWAP2 SWAP1 PUSH2 0x230 SWAP1 PUSH2 0x145F JUMP JUMPDEST SWAP2 SWAP1 POP SSTORE POP POP POP POP POP JUMP JUMPDEST PUSH2 0x243 PUSH2 0x881 JUMP JUMPDEST PUSH2 0x24C PUSH0 PUSH2 0x908 JUMP JUMPDEST JUMP JUMPDEST PUSH0 PUSH0 PUSH0 SWAP1 SLOAD SWAP1 PUSH2 0x100 EXP SWAP1 DIV PUSH20 0xFFFFFFFFFFFFFFFFFFFFFFFFFFFFFFFFFFFFFFFF AND SWAP1 POP SWAP1 JUMP JUMPDEST PUSH2 0x27D PUSH2 0x881 JUMP JUMPDEST PUSH0 PUSH1 0x3 PUSH0 DUP4 DUP2 MSTORE PUSH1 0x20 ADD SWAP1 DUP2 MSTORE PUSH1 0x20 ADD PUSH0 KECCAK256 SLOAD EQ ISZERO DUP1 PUSH2 0x2B8 JUMPI POP DUP1 PUSH1 0x2 PUSH0 DUP2 SLOAD DUP2 LT PUSH2 0x2AD JUMPI PUSH2 0x2AC PUSH2 0x14A6 JUMP JUMPDEST JUMPDEST SWAP1 PUSH0 MSTORE PUSH1 0x20 PUSH0 KECCAK256 ADD SLOAD EQ JUMPDEST PUSH2 0x2F7 JUMPI PUSH1 0x40 MLOAD PUSH32 0x8C379A000000000000000000000000000000000000000000000000000000000 DUP2 MSTORE PUSH1 0x4 ADD PUSH2 0x2EE SWAP1 PUSH2 0x152D JUMP JUMPDEST PUSH1 0x40 MLOAD DUP1 SWAP2 SUB SWAP1 REVERT JUMPDEST PUSH0 PUSH1 0x3 PUSH0 DUP4 DUP2 MSTORE PUSH1 0x20 ADD SWAP1 DUP2 MSTORE PUSH1 0x20 ADD PUSH0 KECCAK256 SLOAD SWAP1 POP PUSH0 PUSH1 0x2 PUSH1 0x1 PUSH1 0x2 DUP1 SLOAD SWAP1 POP PUSH2 0x321 SWAP2 SWAP1 PUSH2 0x154B JUMP JUMPDEST DUP2 SLOAD DUP2 LT PUSH2 0x332 JUMPI PUSH2 0x331 PUSH2 0x14A6 JUMP JUMPDEST JUMPDEST SWAP1 PUSH0 MSTORE PUSH1 0x20 PUSH0 KECCAK256 ADD SLOAD SWAP1 POP DUP1 PUSH1 0x2 DUP4 DUP2 SLOAD DUP2 LT PUSH2 0x352 JUMPI PUSH2 0x351 PUSH2 0x14A6 JUMP JUMPDEST JUMPDEST SWAP1 PUSH0 MSTORE PUSH1 0x20 PUSH0 KECCAK256 ADD DUP2 SWAP1 SSTORE POP DUP2 PUSH1 0x3 PUSH0 DUP4 DUP2 MSTORE PUSH1 0x20 ADD SWAP1 DUP2 MSTORE PUSH1 0x20 ADD PUSH0 KECCAK256 DUP2 SWAP1 SSTORE POP PUSH1 0x2 DUP1 SLOAD DUP1 PUSH2 0x386 JUMPI PUSH2 0x385 PUSH2 0x157E JUMP JUMPDEST JUMPDEST PUSH1 0x1 SWAP1 SUB DUP2 DUP2 SWAP1 PUSH0 MSTORE PUSH1 0x20 PUSH0 KECCAK256 ADD PUSH0 SWAP1 SSTORE SWAP1 SSTORE PUSH1 0x1 PUSH0 DUP5 DUP2 MSTORE PUSH1 0x20 ADD SWAP1 DUP2 MSTORE PUSH1 0x20 ADD PUSH0 KECCAK256 PUSH0 PUSH0 DUP3 ADD PUSH0 SWAP1 SSTORE PUSH1 0x1 DUP3 ADD PUSH0 PUSH2 0x3C0 SWAP2 SWAP1 PUSH2 0xA1B JUMP JUMPDEST PUSH1 0x2 DUP3 ADD PUSH0 PUSH2 0x3CF SWAP2 SWAP1 PUSH2 0xA1B JUMP JUMPDEST PUSH1 0x3 DUP3 ADD PUSH0 PUSH2 0x3DE SWAP2 SWAP1 PUSH2 0xA58 JUMP JUMPDEST POP POP PUSH1 0x3 PUSH0 DUP5 DUP2 MSTORE PUSH1 0x20 ADD SWAP1 DUP2 MSTORE PUSH1 0x20 ADD PUSH0 KECCAK256 PUSH0 SWAP1 SSTORE POP POP POP JUMP JUMPDEST PUSH2 0x401 PUSH2 0xA76 JUMP JUMPDEST PUSH1 0x1 PUSH0 DUP4 DUP2 MSTORE PUSH1 0x20 ADD SWAP1 DUP2 MSTORE PUSH1 0x20 ADD PUSH0 KECCAK256 PUSH1 0x40 MLOAD DUP1 PUSH1 0x80 ADD PUSH1 0x40 MSTORE SWAP1 DUP2 PUSH0 DUP3 ADD SLOAD DUP2 MSTORE PUSH1 0x20 ADD PUSH1 0x1 DUP3 ADD DUP1 SLOAD PUSH2 0x436 SWAP1 PUSH2 0x1193 JUMP JUMPDEST DUP1 PUSH1 0x1F ADD PUSH1 0x20 DUP1 SWAP2 DIV MUL PUSH1 0x20 ADD PUSH1 0x40 MLOAD SWAP1 DUP2 ADD PUSH1 0x40 MSTORE DUP1 SWAP3 SWAP2 SWAP1 DUP2 DUP2 MSTORE PUSH1 0x20 ADD DUP3 DUP1 SLOAD PUSH2 0x462 SWAP1 PUSH2 0x1193 JUMP JUMPDEST DUP1 ISZERO PUSH2 0x4AD JUMPI DUP1 PUSH1 0x1F LT PUSH2 0x484 JUMPI PUSH2 0x100 DUP1 DUP4 SLOAD DIV MUL DUP4 MSTORE SWAP2 PUSH1 0x20 ADD SWAP2 PUSH2 0x4AD JUMP JUMPDEST DUP3 ADD SWAP2 SWAP1 PUSH0 MSTORE PUSH1 0x20 PUSH0 KECCAK256 SWAP1 JUMPDEST DUP2 SLOAD DUP2 MSTORE SWAP1 PUSH1 0x1 ADD SWAP1 PUSH1 0x20 ADD DUP1 DUP4 GT PUSH2 0x490 JUMPI DUP3 SWAP1 SUB PUSH1 0x1F AND DUP3 ADD SWAP2 JUMPDEST POP POP POP POP POP DUP2 MSTORE PUSH1 0x20 ADD PUSH1 0x2 DUP3 ADD DUP1 SLOAD PUSH2 0x4C6 SWAP1 PUSH2 0x1193 JUMP JUMPDEST DUP1 PUSH1 0x1F ADD PUSH1 0x20 DUP1 SWAP2 DIV MUL PUSH1 0x20 ADD PUSH1 0x40 MLOAD SWAP1 DUP2 ADD PUSH1 0x40 MSTORE DUP1 SWAP3 SWAP2 SWAP1 DUP2 DUP2 MSTORE PUSH1 0x20 ADD DUP3 DUP1 SLOAD PUSH2 0x4F2 SWAP1 PUSH2 0x1193 JUMP JUMPDEST DUP1 ISZERO PUSH2 0x53D JUMPI DUP1 PUSH1 0x1F LT PUSH2 0x514 JUMPI PUSH2 0x100 DUP1 DUP4 SLOAD DIV MUL DUP4 MSTORE SWAP2 PUSH1 0x20 ADD SWAP2 PUSH2 0x53D JUMP JUMPDEST DUP3 ADD SWAP2 SWAP1 PUSH0 MSTORE PUSH1 0x20 PUSH0 KECCAK256 SWAP1 JUMPDEST DUP2 SLOAD DUP2 MSTORE SWAP1 PUSH1 0x1 ADD SWAP1 PUSH1 0x20 ADD DUP1 DUP4 GT PUSH2 0x520 JUMPI DUP3 SWAP1 SUB PUSH1 0x1F AND DUP3 ADD SWAP2 JUMPDEST POP POP POP POP POP DUP2 MSTORE PUSH1 0x20 ADD PUSH1 0x3 DUP3 ADD DUP1 SLOAD DUP1 PUSH1 0x20 MUL PUSH1 0x20 ADD PUSH1 0x40 MLOAD SWAP1 DUP2 ADD PUSH1 0x40 MSTORE DUP1 SWAP3 SWAP2 SWAP1 DUP2 DUP2 MSTORE PUSH1 0x20 ADD DUP3 DUP1 SLOAD DUP1 ISZERO PUSH2 0x593 JUMPI PUSH1 0x20 MUL DUP3 ADD SWAP2 SWAP1 PUSH0 MSTORE PUSH1 0x20 PUSH0 KECCAK256 SWAP1 JUMPDEST DUP2 SLOAD DUP2 MSTORE PUSH1 0x20 ADD SWAP1 PUSH1 0x1 ADD SWAP1 DUP1 DUP4 GT PUSH2 0x57F JUMPI JUMPDEST POP POP POP POP POP DUP2 MSTORE POP POP SWAP1 POP SWAP2 SWAP1 POP JUMP JUMPDEST PUSH1 0x60 PUSH0 PUSH1 0x2 DUP1 SLOAD SWAP1 POP PUSH8 0xFFFFFFFFFFFFFFFF DUP2 GT ISZERO PUSH2 0x5C5 JUMPI PUSH2 0x5C4 PUSH2 0xAE1 JUMP JUMPDEST JUMPDEST PUSH1 0x40 MLOAD SWAP1 DUP1 DUP3 MSTORE DUP1 PUSH1 0x20 MUL PUSH1 0x20 ADD DUP3 ADD PUSH1 0x40 MSTORE DUP1 ISZERO PUSH2 0x5FE JUMPI DUP2 PUSH1 0x20 ADD JUMPDEST PUSH2 0x5EB PUSH2 0xA76 JUMP JUMPDEST DUP2 MSTORE PUSH1 0x20 ADD SWAP1 PUSH1 0x1 SWAP1 SUB SWAP1 DUP2 PUSH2 0x5E3 JUMPI SWAP1 POP JUMPDEST POP SWAP1 POP PUSH0 PUSH0 SWAP1 POP JUMPDEST PUSH1 0x2 DUP1 SLOAD SWAP1 POP DUP2 LT ISZERO PUSH2 0x7F5 JUMPI PUSH1 0x1 PUSH0 PUSH1 0x2 DUP4 DUP2 SLOAD DUP2 LT PUSH2 0x62A JUMPI PUSH2 0x629 PUSH2 0x14A6 JUMP JUMPDEST JUMPDEST SWAP1 PUSH0 MSTORE PUSH1 0x20 PUSH0 KECCAK256 ADD SLOAD DUP2 MSTORE PUSH1 0x20 ADD SWAP1 DUP2 MSTORE PUSH1 0x20 ADD PUSH0 KECCAK256 PUSH1 0x40 MLOAD DUP1 PUSH1 0x80 ADD PUSH1 0x40 MSTORE SWAP1 DUP2 PUSH0 DUP3 ADD SLOAD DUP2 MSTORE PUSH1 0x20 ADD PUSH1 0x1 DUP3 ADD DUP1 SLOAD PUSH2 0x664 SWAP1 PUSH2 0x1193 JUMP JUMPDEST DUP1 PUSH1 0x1F ADD PUSH1 0x20 DUP1 SWAP2 DIV MUL PUSH1 0x20 ADD PUSH1 0x40 MLOAD SWAP1 DUP2 ADD PUSH1 0x40 MSTORE DUP1 SWAP3 SWAP2 SWAP1 DUP2 DUP2 MSTORE PUSH1 0x20 ADD DUP3 DUP1 SLOAD PUSH2 0x690 SWAP1 PUSH2 0x1193 JUMP JUMPDEST DUP1 ISZERO PUSH2 0x6DB JUMPI DUP1 PUSH1 0x1F LT PUSH2 0x6B2 JUMPI PUSH2 0x100 DUP1 DUP4 SLOAD DIV MUL DUP4 MSTORE SWAP2 PUSH1 0x20 ADD SWAP2 PUSH2 0x6DB JUMP JUMPDEST DUP3 ADD SWAP2 SWAP1 PUSH0 MSTORE PUSH1 0x20 PUSH0 KECCAK256 SWAP1 JUMPDEST DUP2 SLOAD DUP2 MSTORE SWAP1 PUSH1 0x1 ADD SWAP1 PUSH1 0x20 ADD DUP1 DUP4 GT PUSH2 0x6BE JUMPI DUP3 SWAP1 SUB PUSH1 0x1F AND DUP3 ADD SWAP2 JUMPDEST POP POP POP POP POP DUP2 MSTORE PUSH1 0x20 ADD PUSH1 0x2 DUP3 ADD DUP1 SLOAD PUSH2 0x6F4 SWAP1 PUSH2 0x1193 JUMP JUMPDEST DUP1 PUSH1 0x1F ADD PUSH1 0x20 DUP1 SWAP2 DIV MUL PUSH1 0x20 ADD PUSH1 0x40 MLOAD SWAP1 DUP2 ADD PUSH1 0x40 MSTORE DUP1 SWAP3 SWAP2 SWAP1 DUP2 DUP2 MSTORE PUSH1 0x20 ADD DUP3 DUP1 SLOAD PUSH2 0x720 SWAP1 PUSH2 0x1193 JUMP JUMPDEST DUP1 ISZERO PUSH2 0x76B JUMPI DUP1 PUSH1 0x1F LT PUSH2 0x742 JUMPI PUSH2 0x100 DUP1 DUP4 SLOAD DIV MUL DUP4 MSTORE SWAP2 PUSH1 0x20 ADD SWAP2 PUSH2 0x76B JUMP JUMPDEST DUP3 ADD SWAP2 SWAP1 PUSH0 MSTORE PUSH1 0x20 PUSH0 KECCAK256 SWAP1 JUMPDEST DUP2 SLOAD DUP2 MSTORE SWAP1 PUSH1 0x1 ADD SWAP1 PUSH1 0x20 ADD DUP1 DUP4 GT PUSH2 0x74E JUMPI DUP3 SWAP1 SUB PUSH1 0x1F AND DUP3 ADD SWAP2 JUMPDEST POP POP POP POP POP DUP2 MSTORE PUSH1 0x20 ADD PUSH1 0x3 DUP3 ADD DUP1 SLOAD DUP1 PUSH1 0x20 MUL PUSH1 0x20 ADD PUSH1 0x40 MLOAD SWAP1 DUP2 ADD PUSH1 0x40 MSTORE DUP1 SWAP3 SWAP2 SWAP1 DUP2 DUP2 MSTORE PUSH1 0x20 ADD DUP3 DUP1 SLOAD DUP1 ISZERO PUSH2 0x7C1 JUMPI PUSH1 0x20 MUL DUP3 ADD SWAP2 SWAP1 PUSH0 MSTORE PUSH1 0x20 PUSH0 KECCAK256 SWAP1 JUMPDEST DUP2 SLOAD DUP2 MSTORE PUSH1 0x20 ADD SWAP1 PUSH1 0x1 ADD SWAP1 DUP1 DUP4 GT PUSH2 0x7AD JUMPI JUMPDEST POP POP POP POP POP DUP2 MSTORE POP POP DUP3 DUP3 DUP2 MLOAD DUP2 LT PUSH2 0x7DD JUMPI PUSH2 0x7DC PUSH2 0x14A6 JUMP JUMPDEST JUMPDEST PUSH1 0x20 MUL PUSH1 0x20 ADD ADD DUP2 SWAP1 MSTORE POP DUP1 DUP1 PUSH1 0x1 ADD SWAP2 POP POP PUSH2 0x606 JUMP JUMPDEST POP DUP1 SWAP2 POP POP SWAP1 JUMP JUMPDEST PUSH2 0x805 PUSH2 0x881 JUMP JUMPDEST PUSH0 PUSH20 0xFFFFFFFFFFFFFFFFFFFFFFFFFFFFFFFFFFFFFFFF AND DUP2 PUSH20 0xFFFFFFFFFFFFFFFFFFFFFFFFFFFFFFFFFFFFFFFF AND SUB PUSH2 0x875 JUMPI PUSH0 PUSH1 0x40 MLOAD PUSH32 0x1E4FBDF700000000000000000000000000000000000000000000000000000000 DUP2 MSTORE PUSH1 0x4 ADD PUSH2 0x86C SWAP2 SWAP1 PUSH2 0xDDF JUMP JUMPDEST PUSH1 0x40 MLOAD DUP1 SWAP2 SUB SWAP1 REVERT JUMPDEST PUSH2 0x87E DUP2 PUSH2 0x908 JUMP JUMPDEST POP JUMP JUMPDEST PUSH2 0x889 PUSH2 0x9C9 JUMP JUMPDEST PUSH20 0xFFFFFFFFFFFFFFFFFFFFFFFFFFFFFFFFFFFFFFFF AND PUSH2 0x8A7 PUSH2 0x24E JUMP JUMPDEST PUSH20 0xFFFFFFFFFFFFFFFFFFFFFFFFFFFFFFFFFFFFFFFF AND EQ PUSH2 0x906 JUMPI PUSH2 0x8CA PUSH2 0x9C9 JUMP JUMPDEST PUSH1 0x40 MLOAD PUSH32 0x118CDAA700000000000000000000000000000000000000000000000000000000 DUP2 MSTORE PUSH1 0x4 ADD PUSH2 0x8FD SWAP2 SWAP1 PUSH2 0xDDF JUMP JUMPDEST PUSH1 0x40 MLOAD DUP1 SWAP2 SUB SWAP1 REVERT JUMPDEST JUMP JUMPDEST PUSH0 PUSH0 PUSH0 SWAP1 SLOAD SWAP1 PUSH2 0x100 EXP SWAP1 DIV PUSH20 0xFFFFFFFFFFFFFFFFFFFFFFFFFFFFFFFFFFFFFFFF AND SWAP1 POP DUP2 PUSH0 PUSH0 PUSH2 0x100 EXP DUP2 SLOAD DUP2 PUSH20 0xFFFFFFFFFFFFFFFFFFFFFFFFFFFFFFFFFFFFFFFF MUL NOT AND SWAP1 DUP4 PUSH20 0xFFFFFFFFFFFFFFFFFFFFFFFFFFFFFFFFFFFFFFFF AND MUL OR SWAP1 SSTORE POP DUP2 PUSH20 0xFFFFFFFFFFFFFFFFFFFFFFFFFFFFFFFFFFFFFFFF AND DUP2 PUSH20 0xFFFFFFFFFFFFFFFFFFFFFFFFFFFFFFFFFFFFFFFF AND PUSH32 0x8BE0079C531659141344CD1FD0A4F28419497F9722A3DAAFE3B4186F6B6457E0 PUSH1 0x40 MLOAD PUSH1 0x40 MLOAD DUP1 SWAP2 SUB SWAP1 LOG3 POP POP JUMP JUMPDEST PUSH0 CALLER SWAP1 POP SWAP1 JUMP JUMPDEST DUP3 DUP1 SLOAD DUP3 DUP3 SSTORE SWAP1 PUSH0 MSTORE PUSH1 0x20 PUSH0 KECCAK256 SWAP1 DUP2 ADD SWAP3 DUP3 ISZERO PUSH2 0xA0A JUMPI SWAP2 PUSH1 0x20 MUL DUP3 ADD JUMPDEST DUP3 DUP2 GT ISZERO PUSH2 0xA09 JUMPI DUP3 MLOAD DUP3 SSTORE SWAP2 PUSH1 0x20 ADD SWAP2 SWAP1 PUSH1 0x1 ADD SWAP1 PUSH2 0x9EE JUMP JUMPDEST JUMPDEST POP SWAP1 POP PUSH2 0xA17 SWAP2 SWAP1 PUSH2 0xA9D JUMP JUMPDEST POP SWAP1 JUMP JUMPDEST POP DUP1 SLOAD PUSH2 0xA27 SWAP1 PUSH2 0x1193 JUMP JUMPDEST PUSH0 DUP3 SSTORE DUP1 PUSH1 0x1F LT PUSH2 0xA38 JUMPI POP PUSH2 0xA55 JUMP JUMPDEST PUSH1 0x1F ADD PUSH1 0x20 SWAP1 DIV SWAP1 PUSH0 MSTORE PUSH1 0x20 PUSH0 KECCAK256 SWAP1 DUP2 ADD SWAP1 PUSH2 0xA54 SWAP2 SWAP1 PUSH2 0xA9D JUMP JUMPDEST JUMPDEST POP JUMP JUMPDEST POP DUP1 SLOAD PUSH0 DUP3 SSTORE SWAP1 PUSH0 MSTORE PUSH1 0x20 PUSH0 KECCAK256 SWAP1 DUP2 ADD SWAP1 PUSH2 0xA73 SWAP2 SWAP1 PUSH2 0xA9D JUMP JUMPDEST POP JUMP JUMPDEST PUSH1 0x40 MLOAD DUP1 PUSH1 0x80 ADD PUSH1 0x40 MSTORE DUP1 PUSH0 DUP2 MSTORE PUSH1 0x20 ADD PUSH1 0x60 DUP2 MSTORE PUSH1 0x20 ADD PUSH1 0x60 DUP2 MSTORE PUSH1 0x20 ADD PUSH1 0x60 DUP2 MSTORE POP SWAP1 JUMP JUMPDEST JUMPDEST DUP1 DUP3 GT ISZERO PUSH2 0xAB4 JUMPI PUSH0 DUP2 PUSH0 SWAP1 SSTORE POP PUSH1 0x1 ADD PUSH2 0xA9E JUMP JUMPDEST POP SWAP1 JUMP JUMPDEST PUSH0 PUSH1 0x40 MLOAD SWAP1 POP SWAP1 JUMP JUMPDEST PUSH0 PUSH0 REVERT JUMPDEST PUSH0 PUSH0 REVERT JUMPDEST PUSH0 PUSH0 REVERT JUMPDEST PUSH0 PUSH0 REVERT JUMPDEST PUSH0 PUSH1 0x1F NOT PUSH1 0x1F DUP4 ADD AND SWAP1 POP SWAP2 SWAP1 POP JUMP JUMPDEST PUSH32 0x4E487B7100000000000000000000000000000000000000000000000000000000 PUSH0 MSTORE PUSH1 0x41 PUSH1 0x4 MSTORE PUSH1 0x24 PUSH0 REVERT JUMPDEST PUSH2 0xB17 DUP3 PUSH2 0xAD1 JUMP JUMPDEST DUP2 ADD DUP2 DUP2 LT PUSH8 0xFFFFFFFFFFFFFFFF DUP3 GT OR ISZERO PUSH2 0xB36 JUMPI PUSH2 0xB35 PUSH2 0xAE1 JUMP JUMPDEST JUMPDEST DUP1 PUSH1 0x40 MSTORE POP POP POP JUMP JUMPDEST PUSH0 PUSH2 0xB48 PUSH2 0xAB8 JUMP JUMPDEST SWAP1 POP PUSH2 0xB54 DUP3 DUP3 PUSH2 0xB0E JUMP JUMPDEST SWAP2 SWAP1 POP JUMP JUMPDEST PUSH0 PUSH8 0xFFFFFFFFFFFFFFFF DUP3 GT ISZERO PUSH2 0xB73 JUMPI PUSH2 0xB72 PUSH2 0xAE1 JUMP JUMPDEST JUMPDEST PUSH2 0xB7C DUP3 PUSH2 0xAD1 JUMP JUMPDEST SWAP1 POP PUSH1 0x20 DUP2 ADD SWAP1 POP SWAP2 SWAP1 POP JUMP JUMPDEST DUP3 DUP2 DUP4 CALLDATACOPY PUSH0 DUP4 DUP4 ADD MSTORE POP POP POP JUMP JUMPDEST PUSH0 PUSH2 0xBA9 PUSH2 0xBA4 DUP5 PUSH2 0xB59 JUMP JUMPDEST PUSH2 0xB3F JUMP JUMPDEST SWAP1 POP DUP3 DUP2 MSTORE PUSH1 0x20 DUP2 ADD DUP5 DUP5 DUP5 ADD GT ISZERO PUSH2 0xBC5 JUMPI PUSH2 0xBC4 PUSH2 0xACD JUMP JUMPDEST JUMPDEST PUSH2 0xBD0 DUP5 DUP3 DUP6 PUSH2 0xB89 JUMP JUMPDEST POP SWAP4 SWAP3 POP POP POP JUMP JUMPDEST PUSH0 DUP3 PUSH1 0x1F DUP4 ADD SLT PUSH2 0xBEC JUMPI PUSH2 0xBEB PUSH2 0xAC9 JUMP JUMPDEST JUMPDEST DUP2 CALLDATALOAD PUSH2 0xBFC DUP5 DUP3 PUSH1 0x20 DUP7 ADD PUSH2 0xB97 JUMP JUMPDEST SWAP2 POP POP SWAP3 SWAP2 POP POP JUMP JUMPDEST PUSH0 PUSH8 0xFFFFFFFFFFFFFFFF DUP3 GT ISZERO PUSH2 0xC1F JUMPI PUSH2 0xC1E PUSH2 0xAE1 JUMP JUMPDEST JUMPDEST PUSH1 0x20 DUP3 MUL SWAP1 POP PUSH1 0x20 DUP2 ADD SWAP1 POP SWAP2 SWAP1 POP JUMP JUMPDEST PUSH0 PUSH0 REVERT JUMPDEST PUSH0 DUP2 SWAP1 POP SWAP2 SWAP1 POP JUMP JUMPDEST PUSH2 0xC46 DUP2 PUSH2 0xC34 JUMP JUMPDEST DUP2 EQ PUSH2 0xC50 JUMPI PUSH0 PUSH0 REVERT JUMPDEST POP JUMP JUMPDEST PUSH0 DUP2 CALLDATALOAD SWAP1 POP PUSH2 0xC61 DUP2 PUSH2 0xC3D JUMP JUMPDEST SWAP3 SWAP2 POP POP JUMP JUMPDEST PUSH0 PUSH2 0xC79 PUSH2 0xC74 DUP5 PUSH2 0xC05 JUMP JUMPDEST PUSH2 0xB3F JUMP JUMPDEST SWAP1 POP DUP1 DUP4 DUP3 MSTORE PUSH1 0x20 DUP3 ADD SWAP1 POP PUSH1 0x20 DUP5 MUL DUP4 ADD DUP6 DUP2 GT ISZERO PUSH2 0xC9C JUMPI PUSH2 0xC9B PUSH2 0xC30 JUMP JUMPDEST JUMPDEST DUP4 JUMPDEST DUP2 DUP2 LT ISZERO PUSH2 0xCC5 JUMPI DUP1 PUSH2 0xCB1 DUP9 DUP3 PUSH2 0xC53 JUMP JUMPDEST DUP5 MSTORE PUSH1 0x20 DUP5 ADD SWAP4 POP POP PUSH1 0x20 DUP2 ADD SWAP1 POP PUSH2 0xC9E JUMP JUMPDEST POP POP POP SWAP4 SWAP3 POP POP POP JUMP JUMPDEST PUSH0 DUP3 PUSH1 0x1F DUP4 ADD SLT PUSH2 0xCE3 JUMPI PUSH2 0xCE2 PUSH2 0xAC9 JUMP JUMPDEST JUMPDEST DUP2 CALLDATALOAD PUSH2 0xCF3 DUP5 DUP3 PUSH1 0x20 DUP7 ADD PUSH2 0xC67 JUMP JUMPDEST SWAP2 POP POP SWAP3 SWAP2 POP POP JUMP JUMPDEST PUSH0 PUSH0 PUSH0 PUSH1 0x60 DUP5 DUP7 SUB SLT ISZERO PUSH2 0xD13 JUMPI PUSH2 0xD12 PUSH2 0xAC1 JUMP JUMPDEST JUMPDEST PUSH0 DUP5 ADD CALLDATALOAD PUSH8 0xFFFFFFFFFFFFFFFF DUP2 GT ISZERO PUSH2 0xD30 JUMPI PUSH2 0xD2F PUSH2 0xAC5 JUMP JUMPDEST JUMPDEST PUSH2 0xD3C DUP7 DUP3 DUP8 ADD PUSH2 0xBD8 JUMP JUMPDEST SWAP4 POP POP PUSH1 0x20 DUP5 ADD CALLDATALOAD PUSH8 0xFFFFFFFFFFFFFFFF DUP2 GT ISZERO PUSH2 0xD5D JUMPI PUSH2 0xD5C PUSH2 0xAC5 JUMP JUMPDEST JUMPDEST PUSH2 0xD69 DUP7 DUP3 DUP8 ADD PUSH2 0xBD8 JUMP JUMPDEST SWAP3 POP POP PUSH1 0x40 DUP5 ADD CALLDATALOAD PUSH8 0xFFFFFFFFFFFFFFFF DUP2 GT ISZERO PUSH2 0xD8A JUMPI PUSH2 0xD89 PUSH2 0xAC5 JUMP JUMPDEST JUMPDEST PUSH2 0xD96 DUP7 DUP3 DUP8 ADD PUSH2 0xCCF JUMP JUMPDEST SWAP2 POP POP SWAP3 POP SWAP3 POP SWAP3 JUMP JUMPDEST PUSH0 PUSH20 0xFFFFFFFFFFFFFFFFFFFFFFFFFFFFFFFFFFFFFFFF DUP3 AND SWAP1 POP SWAP2 SWAP1 POP JUMP JUMPDEST PUSH0 PUSH2 0xDC9 DUP3 PUSH2 0xDA0 JUMP JUMPDEST SWAP1 POP SWAP2 SWAP1 POP JUMP JUMPDEST PUSH2 0xDD9 DUP2 PUSH2 0xDBF JUMP JUMPDEST DUP3 MSTORE POP POP JUMP JUMPDEST PUSH0 PUSH1 0x20 DUP3 ADD SWAP1 POP PUSH2 0xDF2 PUSH0 DUP4 ADD DUP5 PUSH2 0xDD0 JUMP JUMPDEST SWAP3 SWAP2 POP POP JUMP JUMPDEST PUSH0 PUSH1 0x20 DUP3 DUP5 SUB SLT ISZERO PUSH2 0xE0D JUMPI PUSH2 0xE0C PUSH2 0xAC1 JUMP JUMPDEST JUMPDEST PUSH0 PUSH2 0xE1A DUP5 DUP3 DUP6 ADD PUSH2 0xC53 JUMP JUMPDEST SWAP2 POP POP SWAP3 SWAP2 POP POP JUMP JUMPDEST PUSH2 0xE2C DUP2 PUSH2 0xC34 JUMP JUMPDEST DUP3 MSTORE POP POP JUMP JUMPDEST PUSH0 DUP2 MLOAD SWAP1 POP SWAP2 SWAP1 POP JUMP JUMPDEST PUSH0 DUP3 DUP3 MSTORE PUSH1 0x20 DUP3 ADD SWAP1 POP SWAP3 SWAP2 POP POP JUMP JUMPDEST DUP3 DUP2 DUP4 MCOPY PUSH0 DUP4 DUP4 ADD MSTORE POP POP POP JUMP JUMPDEST PUSH0 PUSH2 0xE64 DUP3 PUSH2 0xE32 JUMP JUMPDEST PUSH2 0xE6E DUP2 DUP6 PUSH2 0xE3C JUMP JUMPDEST SWAP4 POP PUSH2 0xE7E DUP2 DUP6 PUSH1 0x20 DUP7 ADD PUSH2 0xE4C JUMP JUMPDEST PUSH2 0xE87 DUP2 PUSH2 0xAD1 JUMP JUMPDEST DUP5 ADD SWAP2 POP POP SWAP3 SWAP2 POP POP JUMP JUMPDEST PUSH0 DUP2 MLOAD SWAP1 POP SWAP2 SWAP1 POP JUMP JUMPDEST PUSH0 DUP3 DUP3 MSTORE PUSH1 0x20 DUP3 ADD SWAP1 POP SWAP3 SWAP2 POP POP JUMP JUMPDEST PUSH0 DUP2 SWAP1 POP PUSH1 0x20 DUP3 ADD SWAP1 POP SWAP2 SWAP1 POP JUMP JUMPDEST PUSH0 PUSH2 0xEC6 DUP4 DUP4 PUSH2 0xE23 JUMP JUMPDEST PUSH1 0x20 DUP4 ADD SWAP1 POP SWAP3 SWAP2 POP POP JUMP JUMPDEST PUSH0 PUSH1 0x20 DUP3 ADD SWAP1 POP SWAP2 SWAP1 POP JUMP JUMPDEST PUSH0 PUSH2 0xEE8 DUP3 PUSH2 0xE92 JUMP JUMPDEST PUSH2 0xEF2 DUP2 DUP6 PUSH2 0xE9C JUMP JUMPDEST SWAP4 POP PUSH2 0xEFD DUP4 PUSH2 0xEAC JUMP JUMPDEST DUP1 PUSH0 JUMPDEST DUP4 DUP2 LT ISZERO PUSH2 0xF2D JUMPI DUP2 MLOAD PUSH2 0xF14 DUP9 DUP3 PUSH2 0xEBB JUMP JUMPDEST SWAP8 POP PUSH2 0xF1F DUP4 PUSH2 0xED2 JUMP JUMPDEST SWAP3 POP POP PUSH1 0x1 DUP2 ADD SWAP1 POP PUSH2 0xF00 JUMP JUMPDEST POP DUP6 SWAP4 POP POP POP POP SWAP3 SWAP2 POP POP JUMP JUMPDEST PUSH0 PUSH1 0x80 DUP4 ADD PUSH0 DUP4 ADD MLOAD PUSH2 0xF4F PUSH0 DUP7 ADD DUP3 PUSH2 0xE23 JUMP JUMPDEST POP PUSH1 0x20 DUP4 ADD MLOAD DUP5 DUP3 SUB PUSH1 0x20 DUP7 ADD MSTORE PUSH2 0xF67 DUP3 DUP3 PUSH2 0xE5A JUMP JUMPDEST SWAP2 POP POP PUSH1 0x40 DUP4 ADD MLOAD DUP5 DUP3 SUB PUSH1 0x40 DUP7 ADD MSTORE PUSH2 0xF81 DUP3 DUP3 PUSH2 0xE5A JUMP JUMPDEST SWAP2 POP POP PUSH1 0x60 DUP4 ADD MLOAD DUP5 DUP3 SUB PUSH1 0x60 DUP7 ADD MSTORE PUSH2 0xF9B DUP3 DUP3 PUSH2 0xEDE JUMP JUMPDEST SWAP2 POP POP DUP1 SWAP2 POP POP SWAP3 SWAP2 POP POP JUMP JUMPDEST PUSH0 PUSH1 0x20 DUP3 ADD SWAP1 POP DUP2 DUP2 SUB PUSH0 DUP4 ADD MSTORE PUSH2 0xFC0 DUP2 DUP5 PUSH2 0xF3A JUMP JUMPDEST SWAP1 POP SWAP3 SWAP2 POP POP JUMP JUMPDEST PUSH0 DUP2 MLOAD SWAP1 POP SWAP2 SWAP1 POP JUMP JUMPDEST PUSH0 DUP3 DUP3 MSTORE PUSH1 0x20 DUP3 ADD SWAP1 POP SWAP3 SWAP2 POP POP JUMP JUMPDEST PUSH0 DUP2 SWAP1 POP PUSH1 0x20 DUP3 ADD SWAP1 POP SWAP2 SWAP1 POP JUMP JUMPDEST PUSH0 PUSH1 0x80 DUP4 ADD PUSH0 DUP4 ADD MLOAD PUSH2 0x1006 PUSH0 DUP7 ADD DUP3 PUSH2 0xE23 JUMP JUMPDEST POP PUSH1 0x20 DUP4 ADD MLOAD DUP5 DUP3 SUB PUSH1 0x20 DUP7 ADD MSTORE PUSH2 0x101E DUP3 DUP3 PUSH2 0xE5A JUMP JUMPDEST SWAP2 POP POP PUSH1 0x40 DUP4 ADD MLOAD DUP5 DUP3 SUB PUSH1 0x40 DUP7 ADD MSTORE PUSH2 0x1038 DUP3 DUP3 PUSH2 0xE5A JUMP JUMPDEST SWAP2 POP POP PUSH1 0x60 DUP4 ADD MLOAD DUP5 DUP3 SUB PUSH1 0x60 DUP7 ADD MSTORE PUSH2 0x1052 DUP3 DUP3 PUSH2 0xEDE JUMP JUMPDEST SWAP2 POP POP DUP1 SWAP2 POP POP SWAP3 SWAP2 POP POP JUMP JUMPDEST PUSH0 PUSH2 0x106A DUP4 DUP4 PUSH2 0xFF1 JUMP JUMPDEST SWAP1 POP SWAP3 SWAP2 POP POP JUMP JUMPDEST PUSH0 PUSH1 0x20 DUP3 ADD SWAP1 POP SWAP2 SWAP1 POP JUMP JUMPDEST PUSH0 PUSH2 0x1088 DUP3 PUSH2 0xFC8 JUMP JUMPDEST PUSH2 0x1092 DUP2 DUP6 PUSH2 0xFD2 JUMP JUMPDEST SWAP4 POP DUP4 PUSH1 0x20 DUP3 MUL DUP6 ADD PUSH2 0x10A4 DUP6 PUSH2 0xFE2 JUMP JUMPDEST DUP1 PUSH0 JUMPDEST DUP6 DUP2 LT ISZERO PUSH2 0x10DF JUMPI DUP5 DUP5 SUB DUP10 MSTORE DUP2 MLOAD PUSH2 0x10C0 DUP6 DUP3 PUSH2 0x105F JUMP JUMPDEST SWAP5 POP PUSH2 0x10CB DUP4 PUSH2 0x1072 JUMP JUMPDEST SWAP3 POP PUSH1 0x20 DUP11 ADD SWAP10 POP POP PUSH1 0x1 DUP2 ADD SWAP1 POP PUSH2 0x10A7 JUMP JUMPDEST POP DUP3 SWAP8 POP DUP8 SWAP6 POP POP POP POP POP POP SWAP3 SWAP2 POP POP JUMP JUMPDEST PUSH0 PUSH1 0x20 DUP3 ADD SWAP1 POP DUP2 DUP2 SUB PUSH0 DUP4 ADD MSTORE PUSH2 0x1109 DUP2 DUP5 PUSH2 0x107E JUMP JUMPDEST SWAP1 POP SWAP3 SWAP2 POP POP JUMP JUMPDEST PUSH2 0x111A DUP2 PUSH2 0xDBF JUMP JUMPDEST DUP2 EQ PUSH2 0x1124 JUMPI PUSH0 PUSH0 REVERT JUMPDEST POP JUMP JUMPDEST PUSH0 DUP2 CALLDATALOAD SWAP1 POP PUSH2 0x1135 DUP2 PUSH2 0x1111 JUMP JUMPDEST SWAP3 SWAP2 POP POP JUMP JUMPDEST PUSH0 PUSH1 0x20 DUP3 DUP5 SUB SLT ISZERO PUSH2 0x1150 JUMPI PUSH2 0x114F PUSH2 0xAC1 JUMP JUMPDEST JUMPDEST PUSH0 PUSH2 0x115D DUP5 DUP3 DUP6 ADD PUSH2 0x1127 JUMP JUMPDEST SWAP2 POP POP SWAP3 SWAP2 POP POP JUMP JUMPDEST PUSH32 0x4E487B7100000000000000000000000000000000000000000000000000000000 PUSH0 MSTORE PUSH1 0x22 PUSH1 0x4 MSTORE PUSH1 0x24 PUSH0 REVERT JUMPDEST PUSH0 PUSH1 0x2 DUP3 DIV SWAP1 POP PUSH1 0x1 DUP3 AND DUP1 PUSH2 0x11AA JUMPI PUSH1 0x7F DUP3 AND SWAP2 POP JUMPDEST PUSH1 0x20 DUP3 LT DUP2 SUB PUSH2 0x11BD JUMPI PUSH2 0x11BC PUSH2 0x1166 JUMP JUMPDEST JUMPDEST POP SWAP2 SWAP1 POP JUMP JUMPDEST PUSH0 DUP2 SWAP1 POP DUP2 PUSH0 MSTORE PUSH1 0x20 PUSH0 KECCAK256 SWAP1 POP SWAP2 SWAP1 POP JUMP JUMPDEST PUSH0 PUSH1 0x20 PUSH1 0x1F DUP4 ADD DIV SWAP1 POP SWAP2 SWAP1 POP JUMP JUMPDEST PUSH0 DUP3 DUP3 SHL SWAP1 POP SWAP3 SWAP2 POP POP JUMP JUMPDEST PUSH0 PUSH1 0x8 DUP4 MUL PUSH2 0x121F PUSH32 0xFFFFFFFFFFFFFFFFFFFFFFFFFFFFFFFFFFFFFFFFFFFFFFFFFFFFFFFFFFFFFFFF DUP3 PUSH2 0x11E4 JUMP JUMPDEST PUSH2 0x1229 DUP7 DUP4 PUSH2 0x11E4 JUMP JUMPDEST SWAP6 POP DUP1 NOT DUP5 AND SWAP4 POP DUP1 DUP7 AND DUP5 OR SWAP3 POP POP POP SWAP4 SWAP3 POP POP POP JUMP JUMPDEST PUSH0 DUP2 SWAP1 POP SWAP2 SWAP1 POP JUMP JUMPDEST PUSH0 PUSH2 0x1264 PUSH2 0x125F PUSH2 0x125A DUP5 PUSH2 0xC34 JUMP JUMPDEST PUSH2 0x1241 JUMP JUMPDEST PUSH2 0xC34 JUMP JUMPDEST SWAP1 POP SWAP2 SWAP1 POP JUMP JUMPDEST PUSH0 DUP2 SWAP1 POP SWAP2 SWAP1 POP JUMP JUMPDEST PUSH2 0x127D DUP4 PUSH2 0x124A JUMP JUMPDEST PUSH2 0x1291 PUSH2 0x1289 DUP3 PUSH2 0x126B JUMP JUMPDEST DUP5 DUP5 SLOAD PUSH2 0x11F0 JUMP JUMPDEST DUP3 SSTORE POP POP POP POP JUMP JUMPDEST PUSH0 PUSH0 SWAP1 POP SWAP1 JUMP JUMPDEST PUSH2 0x12A8 PUSH2 0x1299 JUMP JUMPDEST PUSH2 0x12B3 DUP2 DUP5 DUP5 PUSH2 0x1274 JUMP JUMPDEST POP POP POP JUMP JUMPDEST JUMPDEST DUP2 DUP2 LT ISZERO PUSH2 0x12D6 JUMPI PUSH2 0x12CB PUSH0 DUP3 PUSH2 0x12A0 JUMP JUMPDEST PUSH1 0x1 DUP2 ADD SWAP1 POP PUSH2 0x12B9 JUMP JUMPDEST POP POP JUMP JUMPDEST PUSH1 0x1F DUP3 GT ISZERO PUSH2 0x131B JUMPI PUSH2 0x12EC DUP2 PUSH2 0x11C3 JUMP JUMPDEST PUSH2 0x12F5 DUP5 PUSH2 0x11D5 JUMP JUMPDEST DUP2 ADD PUSH1 0x20 DUP6 LT ISZERO PUSH2 0x1304 JUMPI DUP2 SWAP1 POP JUMPDEST PUSH2 0x1318 PUSH2 0x1310 DUP6 PUSH2 0x11D5 JUMP JUMPDEST DUP4 ADD DUP3 PUSH2 0x12B8 JUMP JUMPDEST POP POP JUMPDEST POP POP POP JUMP JUMPDEST PUSH0 DUP3 DUP3 SHR SWAP1 POP SWAP3 SWAP2 POP POP JUMP JUMPDEST PUSH0 PUSH2 0x133B PUSH0 NOT DUP5 PUSH1 0x8 MUL PUSH2 0x1320 JUMP JUMPDEST NOT DUP1 DUP4 AND SWAP2 POP POP SWAP3 SWAP2 POP POP JUMP JUMPDEST PUSH0 PUSH2 0x1353 DUP4 DUP4 PUSH2 0x132C JUMP JUMPDEST SWAP2 POP DUP3 PUSH1 0x2 MUL DUP3 OR SWAP1 POP SWAP3 SWAP2 POP POP JUMP JUMPDEST PUSH2 0x136C DUP3 PUSH2 0xE32 JUMP JUMPDEST PUSH8 0xFFFFFFFFFFFFFFFF DUP2 GT ISZERO PUSH2 0x1385 JUMPI PUSH2 0x1384 PUSH2 0xAE1 JUMP JUMPDEST JUMPDEST PUSH2 0x138F DUP3 SLOAD PUSH2 0x1193 JUMP JUMPDEST PUSH2 0x139A DUP3 DUP3 DUP6 PUSH2 0x12DA JUMP JUMPDEST PUSH0 PUSH1 0x20 SWAP1 POP PUSH1 0x1F DUP4 GT PUSH1 0x1 DUP2 EQ PUSH2 0x13CB JUMPI PUSH0 DUP5 ISZERO PUSH2 0x13B9 JUMPI DUP3 DUP8 ADD MLOAD SWAP1 POP JUMPDEST PUSH2 0x13C3 DUP6 DUP3 PUSH2 0x1348 JUMP JUMPDEST DUP7 SSTORE POP PUSH2 0x142A JUMP JUMPDEST PUSH1 0x1F NOT DUP5 AND PUSH2 0x13D9 DUP7 PUSH2 0x11C3 JUMP JUMPDEST PUSH0 JUMPDEST DUP3 DUP2 LT ISZERO PUSH2 0x1400 JUMPI DUP5 DUP10 ADD MLOAD DUP3 SSTORE PUSH1 0x1 DUP3 ADD SWAP2 POP PUSH1 0x20 DUP6 ADD SWAP5 POP PUSH1 0x20 DUP2 ADD SWAP1 POP PUSH2 0x13DB JUMP JUMPDEST DUP7 DUP4 LT ISZERO PUSH2 0x141D JUMPI DUP5 DUP10 ADD MLOAD PUSH2 0x1419 PUSH1 0x1F DUP10 AND DUP3 PUSH2 0x132C JUMP JUMPDEST DUP4 SSTORE POP JUMPDEST PUSH1 0x1 PUSH1 0x2 DUP9 MUL ADD DUP9 SSTORE POP POP POP JUMPDEST POP POP POP POP POP POP JUMP JUMPDEST PUSH32 0x4E487B7100000000000000000000000000000000000000000000000000000000 PUSH0 MSTORE PUSH1 0x11 PUSH1 0x4 MSTORE PUSH1 0x24 PUSH0 REVERT JUMPDEST PUSH0 PUSH2 0x1469 DUP3 PUSH2 0xC34 JUMP JUMPDEST SWAP2 POP PUSH32 0xFFFFFFFFFFFFFFFFFFFFFFFFFFFFFFFFFFFFFFFFFFFFFFFFFFFFFFFFFFFFFFFF DUP3 SUB PUSH2 0x149B JUMPI PUSH2 0x149A PUSH2 0x1432 JUMP JUMPDEST JUMPDEST PUSH1 0x1 DUP3 ADD SWAP1 POP SWAP2 SWAP1 POP JUMP JUMPDEST PUSH32 0x4E487B7100000000000000000000000000000000000000000000000000000000 PUSH0 MSTORE PUSH1 0x32 PUSH1 0x4 MSTORE PUSH1 0x24 PUSH0 REVERT JUMPDEST PUSH0 DUP3 DUP3 MSTORE PUSH1 0x20 DUP3 ADD SWAP1 POP SWAP3 SWAP2 POP POP JUMP JUMPDEST PUSH32 0x436F6E74616374206E6F7420666F756E64000000000000000000000000000000 PUSH0 DUP3 ADD MSTORE POP JUMP JUMPDEST PUSH0 PUSH2 0x1517 PUSH1 0x11 DUP4 PUSH2 0x14D3 JUMP JUMPDEST SWAP2 POP PUSH2 0x1522 DUP3 PUSH2 0x14E3 JUMP JUMPDEST PUSH1 0x20 DUP3 ADD SWAP1 POP SWAP2 SWAP1 POP JUMP JUMPDEST PUSH0 PUSH1 0x20 DUP3 ADD SWAP1 POP DUP2 DUP2 SUB PUSH0 DUP4 ADD MSTORE PUSH2 0x1544 DUP2 PUSH2 0x150B JUMP JUMPDEST SWAP1 POP SWAP2 SWAP1 POP JUMP JUMPDEST PUSH0 PUSH2 0x1555 DUP3 PUSH2 0xC34 JUMP JUMPDEST SWAP2 POP PUSH2 0x1560 DUP4 PUSH2 0xC34 JUMP JUMPDEST SWAP3 POP DUP3 DUP3 SUB SWAP1 POP DUP2 DUP2 GT ISZERO PUSH2 0x1578 JUMPI PUSH2 0x1577 PUSH2 0x1432 JUMP JUMPDEST JUMPDEST SWAP3 SWAP2 POP POP JUMP JUMPDEST PUSH32 0x4E487B7100000000000000000000000000000000000000000000000000000000 PUSH0 MSTORE PUSH1 0x31 PUSH1 0x4 MSTORE PUSH1 0x24 PUSH0 REVERT INVALID LOG2 PUSH5 0x6970667358 0x22 SLT KECCAK256 GAS PUSH12 0x6F4DD2747FEBD9AE3E90A3C0 DUP14 0x27 SAR NUMBER PC SWAP2 OR ADDRESS ADDMOD CODESIZE 0xD RETURNCONTRACT 0x5A 0xC6 0xA9 0x4C 0x21 PUSH30 0x64736F6C634300081E003300000000000000000000000000000000000000 "
				},
				"gasEstimates": {
					"creation": {
						"codeDepositCost": "1120200",
						"executionCost": "infinite",
						"totalCost": "infinite"
					},
					"external": {
						"addContact(string,string,uint256[])": "infinite",
						"deleteContact(uint256)": "infinite",
						"getAllContacts()": "infinite",
						"getContact(uint256)": "infinite",
						"owner()": "2559",
						"renounceOwnership()": "infinite",
						"transferOwnership(address)": "infinite"
					}
				},
				"methodIdentifiers": {
					"addContact(string,string,uint256[])": "3f06f6e8",
					"deleteContact(uint256)": "b9ed6fca",
					"getAllContacts()": "ef1d6ddd",
					"getContact(uint256)": "e6505e1e",
					"owner()": "8da5cb5b",
					"renounceOwnership()": "715018a6",
					"transferOwnership(address)": "f2fde38b"
				}
			},
			"storageLayout": {
				"storage": [
					{
						"astId": 8,
						"contract": "Role4/NewKeywordPin.sol:AddressBook",
						"label": "_owner",
						"offset": 0,
						"slot": "0",
						"type": "t_address"
					},
					{
						"astId": 230,
						"contract": "Role4/NewKeywordPin.sol:AddressBook",
						"label": "contacts",
						"offset": 0,
						"slot": "1",
						"type": "t_mapping(t_uint256,t_struct(Contact)190_storage)"
					},
					{
						"astId": 233,
						"contract": "Role4/NewKeywordPin.sol:AddressBook",
						"label": "contactIds",
						"offset": 0,
						"slot": "2",
						"type": "t_array(t_uint256)dyn_storage"
					},
					{
						"astId": 237,
						"contract": "Role4/NewKeywordPin.sol:AddressBook",
						"label": "idToIndex",
						"offset": 0,
						"slot": "3",
						"type": "t_mapping(t_uint256,t_uint256)"
					},
					{
						"astId": 239,
						"contract": "Role4/NewKeywordPin.sol:AddressBook",
						"label": "nextContactId",
						"offset": 0,
						"slot": "4",
						"type": "t_uint256"
					}
				],
				"types": {
					"t_address": {
						"encoding": "inplace",
						"label": "address",
						"numberOfBytes": "20"
					},
					"t_array(t_uint256)dyn_storage": {
						"base": "t_uint256",
						"encoding": "dynamic_array",
						"label": "uint256[]",
						"numberOfBytes": "32"
					},
					"t_mapping(t_uint256,t_struct(Contact)190_storage)": {
						"encoding": "mapping",
						"key": "t_uint256",
						"label": "mapping(uint256 => struct IAddressBook.Contact)",
						"numberOfBytes": "32",
						"value": "t_struct(Contact)190_storage"
					},
					"t_mapping(t_uint256,t_uint256)": {
						"encoding": "mapping",
						"key": "t_uint256",
						"label": "mapping(uint256 => uint256)",
						"numberOfBytes": "32",
						"value": "t_uint256"
					},
					"t_string_storage": {
						"encoding": "bytes",
						"label": "string",
						"numberOfBytes": "32"
					},
					"t_struct(Contact)190_storage": {
						"encoding": "inplace",
						"label": "struct IAddressBook.Contact",
						"members": [
							{
								"astId": 182,
								"contract": "Role4/NewKeywordPin.sol:AddressBook",
								"label": "id",
								"offset": 0,
								"slot": "0",
								"type": "t_uint256"
							},
							{
								"astId": 184,
								"contract": "Role4/NewKeywordPin.sol:AddressBook",
								"label": "firstName",
								"offset": 0,
								"slot": "1",
								"type": "t_string_storage"
							},
							{
								"astId": 186,
								"contract": "Role4/NewKeywordPin.sol:AddressBook",
								"label": "lastName",
								"offset": 0,
								"slot": "2",
								"type": "t_string_storage"
							},
							{
								"astId": 189,
								"contract": "Role4/NewKeywordPin.sol:AddressBook",
								"label": "phoneNumbers",
								"offset": 0,
								"slot": "3",
								"type": "t_array(t_uint256)dyn_storage"
							}
						],
						"numberOfBytes": "128"
					},
					"t_uint256": {
						"encoding": "inplace",
						"label": "uint256",
						"numberOfBytes": "32"
					}
				}
			},
			"userdoc": {
				"kind": "user",
				"methods": {},
				"version": 1
			}
		}
	}
}