{
	"Role4/ImportsPin.sol": {
		"Submission": {
			"abi": [
				{
					"inputs": [],
					"name": "getHaiku",
					"outputs": [
						{
							"components": [
								{
									"internalType": "string",
									"name": "line1",
									"type": "string"
								},
								{
									"internalType": "string",
									"name": "line2",
									"type": "string"
								},
								{
									"internalType": "string",
									"name": "line3",
									"type": "string"
								}
							],
							"internalType": "struct ISubmission.Haiku",
							"name": "",
							"type": "tuple"
						}
					],
					"stateMutability": "view",
					"type": "function"
				},
				{
					"inputs": [
						{
							"internalType": "string",
							"name": "_line1",
							"type": "string"
						},
						{
							"internalType": "string",
							"name": "_line2",
							"type": "string"
						},
						{
							"internalType": "string",
							"name": "_line3",
							"type": "string"
						}
					],
					"name": "saveHaiku",
					"outputs": [],
					"stateMutability": "nonpayable",
					"type": "function"
				},
				{
					"inputs": [],
					"name": "shruggieHaiku",
					"outputs": [
						{
							"components": [
								{
									"internalType": "string",
									"name": "line1",
									"type": "string"
								},
								{
									"internalType": "string",
									"name": "line2",
									"type": "string"
								},
								{
									"internalType": "string",
									"name": "line3",
									"type": "string"
								}
							],
							"internalType": "struct ISubmission.Haiku",
							"name": "",
							"type": "tuple"
						}
					],
					"stateMutability": "view",
					"type": "function"
				}
			],
			"devdoc": {
				"kind": "dev",
				"methods": {},
				"version": 1
			},
			"evm": {
				"assembly": "    /* \"Role4/ImportsPin.sol\":444:1193  contract Submission is ISubmission {... */\n  mstore(0x40, 0x80)\n  callvalue\n  dup1\n  iszero\n  tag_1\n  jumpi\n  revert(0x00, 0x00)\ntag_1:\n  pop\n  dataSize(sub_0)\n  dup1\n  dataOffset(sub_0)\n  0x00\n  codecopy\n  0x00\n  return\nstop\n\nsub_0: assembly {\n        /* \"Role4/ImportsPin.sol\":444:1193  contract Submission is ISubmission {... */\n      mstore(0x40, 0x80)\n      callvalue\n      dup1\n      iszero\n      tag_1\n      jumpi\n      revert(0x00, 0x00)\n    tag_1:\n      pop\n      jumpi(tag_2, lt(calldatasize, 0x04))\n      shr(0xe0, calldataload(0x00))\n      dup1\n      0x25eb69a9\n      eq\n      tag_3\n      jumpi\n      dup1\n      0x583dc769\n      eq\n      tag_4\n      jumpi\n      dup1\n      0x8346cbef\n      eq\n      tag_5\n      jumpi\n    tag_2:\n      revert(0x00, 0x00)\n        /* \"Role4/ImportsPin.sol\":772:873  function getHaiku() external view override returns (Haiku memory) {... */\n    tag_3:\n      tag_6\n      tag_7\n      jump\t// in\n    tag_6:\n      mload(0x40)\n      tag_8\n      swap2\n      swap1\n      tag_9\n      jump\t// in\n    tag_8:\n      mload(0x40)\n      dup1\n      swap2\n      sub\n      swap1\n      return\n        /* \"Role4/ImportsPin.sol\":518:766  function saveHaiku(... */\n    tag_4:\n      tag_10\n      0x04\n      dup1\n      calldatasize\n      sub\n      dup2\n      add\n      swap1\n      tag_11\n      swap2\n      swap1\n      tag_12\n      jump\t// in\n    tag_11:\n      tag_13\n      jump\t// in\n    tag_10:\n      stop\n        /* \"Role4/ImportsPin.sol\":879:1191  function shruggieHaiku() external view override returns (Haiku memory) {... */\n    tag_5:\n      tag_14\n      tag_15\n      jump\t// in\n    tag_14:\n      mload(0x40)\n      tag_16\n      swap2\n      swap1\n      tag_9\n      jump\t// in\n    tag_16:\n      mload(0x40)\n      dup1\n      swap2\n      sub\n      swap1\n      return\n        /* \"Role4/ImportsPin.sol\":772:873  function getHaiku() external view override returns (Haiku memory) {... */\n    tag_7:\n        /* \"Role4/ImportsPin.sol\":824:836  Haiku memory */\n      tag_17\n      tag_18\n      jump\t// in\n    tag_17:\n        /* \"Role4/ImportsPin.sol\":855:866  storedHaiku */\n      0x00\n        /* \"Role4/ImportsPin.sol\":848:866  return storedHaiku */\n      mload(0x40)\n      dup1\n      0x60\n      add\n      0x40\n      mstore\n      swap1\n      dup2\n      0x00\n      dup3\n      add\n      dup1\n      sload\n      tag_20\n      swap1\n      tag_21\n      jump\t// in\n    tag_20:\n      dup1\n      0x1f\n      add\n      0x20\n      dup1\n      swap2\n      div\n      mul\n      0x20\n      add\n      mload(0x40)\n      swap1\n      dup2\n      add\n      0x40\n      mstore\n      dup1\n      swap3\n      swap2\n      swap1\n      dup2\n      dup2\n      mstore\n      0x20\n      add\n      dup3\n      dup1\n      sload\n      tag_22\n      swap1\n      tag_21\n      jump\t// in\n    tag_22:\n      dup1\n      iszero\n      tag_23\n      jumpi\n      dup1\n      0x1f\n      lt\n      tag_24\n      jumpi\n      0x0100\n      dup1\n      dup4\n      sload\n      div\n      mul\n      dup4\n      mstore\n      swap2\n      0x20\n      add\n      swap2\n      jump(tag_23)\n    tag_24:\n      dup3\n      add\n      swap2\n      swap1\n      0x00\n      mstore\n      keccak256(0x00, 0x20)\n      swap1\n    tag_25:\n      dup2\n      sload\n      dup2\n      mstore\n      swap1\n      0x01\n      add\n      swap1\n      0x20\n      add\n      dup1\n      dup4\n      gt\n      tag_25\n      jumpi\n      dup3\n      swap1\n      sub\n      0x1f\n      and\n      dup3\n      add\n      swap2\n    tag_23:\n      pop\n      pop\n      pop\n      pop\n      pop\n      dup2\n      mstore\n      0x20\n      add\n      0x01\n      dup3\n      add\n      dup1\n      sload\n      tag_26\n      swap1\n      tag_21\n      jump\t// in\n    tag_26:\n      dup1\n      0x1f\n      add\n      0x20\n      dup1\n      swap2\n      div\n      mul\n      0x20\n      add\n      mload(0x40)\n      swap1\n      dup2\n      add\n      0x40\n      mstore\n      dup1\n      swap3\n      swap2\n      swap1\n      dup2\n      dup2\n      mstore\n      0x20\n      add\n      dup3\n      dup1\n      sload\n      tag_27\n      swap1\n      tag_21\n      jump\t// in\n    tag_27:\n      dup1\n      iszero\n      tag_28\n      jumpi\n      dup1\n      0x1f\n      lt\n      tag_29\n      jumpi\n      0x0100\n      dup1\n      dup4\n      sload\n      div\n      mul\n      dup4\n      mstore\n      swap2\n      0x20\n      add\n      swap2\n      jump(tag_28)\n    tag_29:\n      dup3\n      add\n      swap2\n      swap1\n      0x00\n      mstore\n      keccak256(0x00, 0x20)\n      swap1\n    tag_30:\n      dup2\n      sload\n      dup2\n      mstore\n      swap1\n      0x01\n      add\n      swap1\n      0x20\n      add\n      dup1\n      dup4\n      gt\n      tag_30\n      jumpi\n      dup3\n      swap1\n      sub\n      0x1f\n      and\n      dup3\n      add\n      swap2\n    tag_28:\n      pop\n      pop\n      pop\n      pop\n      pop\n      dup2\n      mstore\n      0x20\n      add\n      0x02\n      dup3\n      add\n      dup1\n      sload\n      tag_31\n      swap1\n      tag_21\n      jump\t// in\n    tag_31:\n      dup1\n      0x1f\n      add\n      0x20\n      dup1\n      swap2\n      div\n      mul\n      0x20\n      add\n      mload(0x40)\n      swap1\n      dup2\n      add\n      0x40\n      mstore\n      dup1\n      swap3\n      swap2\n      swap1\n      dup2\n      dup2\n      mstore\n      0x20\n      add\n      dup3\n      dup1\n      sload\n      tag_32\n      swap1\n      tag_21\n      jump\t// in\n    tag_32:\n      dup1\n      iszero\n      tag_33\n      jumpi\n      dup1\n      0x1f\n      lt\n      tag_34\n      jumpi\n      0x0100\n      dup1\n      dup4\n      sload\n      div\n      mul\n      dup4\n      mstore\n      swap2\n      0x20\n      add\n      swap2\n      jump(tag_33)\n    tag_34:\n      dup3\n      add\n      swap2\n      swap1\n      0x00\n      mstore\n      keccak256(0x00, 0x20)\n      swap1\n    tag_35:\n      dup2\n      sload\n      dup2\n      mstore\n      swap1\n      0x01\n      add\n      swap1\n      0x20\n      add\n      dup1\n      dup4\n      gt\n      tag_35\n      jumpi\n      dup3\n      swap1\n      sub\n      0x1f\n      and\n      dup3\n      add\n      swap2\n    tag_33:\n      pop\n      pop\n      pop\n      pop\n      pop\n      dup2\n      mstore\n      pop\n      pop\n      swap1\n      pop\n        /* \"Role4/ImportsPin.sol\":772:873  function getHaiku() external view override returns (Haiku memory) {... */\n      swap1\n      jump\t// out\n        /* \"Role4/ImportsPin.sol\":518:766  function saveHaiku(... */\n    tag_13:\n        /* \"Role4/ImportsPin.sol\":681:687  _line1 */\n      dup3\n        /* \"Role4/ImportsPin.sol\":661:672  storedHaiku */\n      0x00\n        /* \"Role4/ImportsPin.sol\":661:678  storedHaiku.line1 */\n      0x00\n      add\n        /* \"Role4/ImportsPin.sol\":661:687  storedHaiku.line1 = _line1 */\n      swap1\n      dup2\n      tag_37\n      swap2\n      swap1\n      tag_38\n      jump\t// in\n    tag_37:\n      pop\n        /* \"Role4/ImportsPin.sol\":717:723  _line2 */\n      dup2\n        /* \"Role4/ImportsPin.sol\":697:708  storedHaiku */\n      0x00\n        /* \"Role4/ImportsPin.sol\":697:714  storedHaiku.line2 */\n      0x01\n      add\n        /* \"Role4/ImportsPin.sol\":697:723  storedHaiku.line2 = _line2 */\n      swap1\n      dup2\n      tag_39\n      swap2\n      swap1\n      tag_38\n      jump\t// in\n    tag_39:\n      pop\n        /* \"Role4/ImportsPin.sol\":753:759  _line3 */\n      dup1\n        /* \"Role4/ImportsPin.sol\":733:744  storedHaiku */\n      0x00\n        /* \"Role4/ImportsPin.sol\":733:750  storedHaiku.line3 */\n      0x02\n      add\n        /* \"Role4/ImportsPin.sol\":733:759  storedHaiku.line3 = _line3 */\n      swap1\n      dup2\n      tag_40\n      swap2\n      swap1\n      tag_38\n      jump\t// in\n    tag_40:\n      pop\n        /* \"Role4/ImportsPin.sol\":518:766  function saveHaiku(... */\n      pop\n      pop\n      pop\n      jump\t// out\n        /* \"Role4/ImportsPin.sol\":879:1191  function shruggieHaiku() external view override returns (Haiku memory) {... */\n    tag_15:\n        /* \"Role4/ImportsPin.sol\":936:948  Haiku memory */\n      tag_41\n      tag_18\n      jump\t// in\n    tag_41:\n        /* \"Role4/ImportsPin.sol\":960:982  Haiku memory tempHaiku */\n      tag_43\n      tag_18\n      jump\t// in\n    tag_43:\n        /* \"Role4/ImportsPin.sol\":1019:1030  storedHaiku */\n      0x00\n        /* \"Role4/ImportsPin.sol\":1019:1036  storedHaiku.line1 */\n      0x00\n      add\n        /* \"Role4/ImportsPin.sol\":1001:1036  tempHaiku.line1 = storedHaiku.line1 */\n      dup1\n      sload\n      tag_44\n      swap1\n      tag_21\n      jump\t// in\n    tag_44:\n      dup1\n      0x1f\n      add\n      0x20\n      dup1\n      swap2\n      div\n      mul\n      0x20\n      add\n      mload(0x40)\n      swap1\n      dup2\n      add\n      0x40\n      mstore\n      dup1\n      swap3\n      swap2\n      swap1\n      dup2\n      dup2\n      mstore\n      0x20\n      add\n      dup3\n      dup1\n      sload\n      tag_45\n      swap1\n      tag_21\n      jump\t// in\n    tag_45:\n      dup1\n      iszero\n      tag_46\n      jumpi\n      dup1\n      0x1f\n      lt\n      tag_47\n      jumpi\n      0x0100\n      dup1\n      dup4\n      sload\n      div\n      mul\n      dup4\n      mstore\n      swap2\n      0x20\n      add\n      swap2\n      jump(tag_46)\n    tag_47:\n      dup3\n      add\n      swap2\n      swap1\n      0x00\n      mstore\n      keccak256(0x00, 0x20)\n      swap1\n    tag_48:\n      dup2\n      sload\n      dup2\n      mstore\n      swap1\n      0x01\n      add\n      swap1\n      0x20\n      add\n      dup1\n      dup4\n      gt\n      tag_48\n      jumpi\n      dup3\n      swap1\n      sub\n      0x1f\n      and\n      dup3\n      add\n      swap2\n    tag_46:\n      pop\n      pop\n      pop\n      pop\n      pop\n        /* \"Role4/ImportsPin.sol\":1001:1010  tempHaiku */\n      dup2\n        /* \"Role4/ImportsPin.sol\":1001:1016  tempHaiku.line1 */\n      0x00\n      add\n        /* \"Role4/ImportsPin.sol\":1001:1036  tempHaiku.line1 = storedHaiku.line1 */\n      dup2\n      swap1\n      mstore\n      pop\n        /* \"Role4/ImportsPin.sol\":1064:1075  storedHaiku */\n      0x00\n        /* \"Role4/ImportsPin.sol\":1064:1081  storedHaiku.line2 */\n      0x01\n      add\n        /* \"Role4/ImportsPin.sol\":1046:1081  tempHaiku.line2 = storedHaiku.line2 */\n      dup1\n      sload\n      tag_49\n      swap1\n      tag_21\n      jump\t// in\n    tag_49:\n      dup1\n      0x1f\n      add\n      0x20\n      dup1\n      swap2\n      div\n      mul\n      0x20\n      add\n      mload(0x40)\n      swap1\n      dup2\n      add\n      0x40\n      mstore\n      dup1\n      swap3\n      swap2\n      swap1\n      dup2\n      dup2\n      mstore\n      0x20\n      add\n      dup3\n      dup1\n      sload\n      tag_50\n      swap1\n      tag_21\n      jump\t// in\n    tag_50:\n      dup1\n      iszero\n      tag_51\n      jumpi\n      dup1\n      0x1f\n      lt\n      tag_52\n      jumpi\n      0x0100\n      dup1\n      dup4\n      sload\n      div\n      mul\n      dup4\n      mstore\n      swap2\n      0x20\n      add\n      swap2\n      jump(tag_51)\n    tag_52:\n      dup3\n      add\n      swap2\n      swap1\n      0x00\n      mstore\n      keccak256(0x00, 0x20)\n      swap1\n    tag_53:\n      dup2\n      sload\n      dup2\n      mstore\n      swap1\n      0x01\n      add\n      swap1\n      0x20\n      add\n      dup1\n      dup4\n      gt\n      tag_53\n      jumpi\n      dup3\n      swap1\n      sub\n      0x1f\n      and\n      dup3\n      add\n      swap2\n    tag_51:\n      pop\n      pop\n      pop\n      pop\n      pop\n        /* \"Role4/ImportsPin.sol\":1046:1055  tempHaiku */\n      dup2\n        /* \"Role4/ImportsPin.sol\":1046:1061  tempHaiku.line2 */\n      0x20\n      add\n        /* \"Role4/ImportsPin.sol\":1046:1081  tempHaiku.line2 = storedHaiku.line2 */\n      dup2\n      swap1\n      mstore\n      pop\n        /* \"Role4/ImportsPin.sol\":1123:1134  storedHaiku */\n      0x00\n        /* \"Role4/ImportsPin.sol\":1123:1140  storedHaiku.line3 */\n      0x02\n      add\n        /* \"Role4/ImportsPin.sol\":1109:1157  string.concat(storedHaiku.line3, unicode\" 🤷\") */\n      add(0x20, mload(0x40))\n      tag_54\n      swap2\n      swap1\n      tag_55\n      jump\t// in\n    tag_54:\n      mload(0x40)\n      0x20\n      dup2\n      dup4\n      sub\n      sub\n      dup2\n      mstore\n      swap1\n      0x40\n      mstore\n        /* \"Role4/ImportsPin.sol\":1091:1100  tempHaiku */\n      dup2\n        /* \"Role4/ImportsPin.sol\":1091:1106  tempHaiku.line3 */\n      0x40\n      add\n        /* \"Role4/ImportsPin.sol\":1091:1157  tempHaiku.line3 = string.concat(storedHaiku.line3, unicode\" 🤷\") */\n      dup2\n      swap1\n      mstore\n      pop\n        /* \"Role4/ImportsPin.sol\":1175:1184  tempHaiku */\n      dup1\n        /* \"Role4/ImportsPin.sol\":1168:1184  return tempHaiku */\n      swap2\n      pop\n      pop\n        /* \"Role4/ImportsPin.sol\":879:1191  function shruggieHaiku() external view override returns (Haiku memory) {... */\n      swap1\n      jump\t// out\n    tag_18:\n      mload(0x40)\n      dup1\n      0x60\n      add\n      0x40\n      mstore\n      dup1\n      0x60\n      dup2\n      mstore\n      0x20\n      add\n      0x60\n      dup2\n      mstore\n      0x20\n      add\n      0x60\n      dup2\n      mstore\n      pop\n      swap1\n      jump\t// out\n        /* \"#utility.yul\":7:106   */\n    tag_56:\n        /* \"#utility.yul\":59:65   */\n      0x00\n        /* \"#utility.yul\":93:98   */\n      dup2\n        /* \"#utility.yul\":87:99   */\n      mload\n        /* \"#utility.yul\":77:99   */\n      swap1\n      pop\n        /* \"#utility.yul\":7:106   */\n      swap2\n      swap1\n      pop\n      jump\t// out\n        /* \"#utility.yul\":112:271   */\n    tag_57:\n        /* \"#utility.yul\":186:197   */\n      0x00\n        /* \"#utility.yul\":220:226   */\n      dup3\n        /* \"#utility.yul\":215:218   */\n      dup3\n        /* \"#utility.yul\":208:227   */\n      mstore\n        /* \"#utility.yul\":260:264   */\n      0x20\n        /* \"#utility.yul\":255:258   */\n      dup3\n        /* \"#utility.yul\":251:265   */\n      add\n        /* \"#utility.yul\":236:265   */\n      swap1\n      pop\n        /* \"#utility.yul\":112:271   */\n      swap3\n      swap2\n      pop\n      pop\n      jump\t// out\n        /* \"#utility.yul\":277:416   */\n    tag_58:\n        /* \"#utility.yul\":366:372   */\n      dup3\n        /* \"#utility.yul\":361:364   */\n      dup2\n        /* \"#utility.yul\":356:359   */\n      dup4\n        /* \"#utility.yul\":350:373   */\n      mcopy\n        /* \"#utility.yul\":407:408   */\n      0x00\n        /* \"#utility.yul\":398:404   */\n      dup4\n        /* \"#utility.yul\":393:396   */\n      dup4\n        /* \"#utility.yul\":389:405   */\n      add\n        /* \"#utility.yul\":382:409   */\n      mstore\n        /* \"#utility.yul\":277:416   */\n      pop\n      pop\n      pop\n      jump\t// out\n        /* \"#utility.yul\":422:524   */\n    tag_59:\n        /* \"#utility.yul\":463:469   */\n      0x00\n        /* \"#utility.yul\":514:516   */\n      0x1f\n        /* \"#utility.yul\":510:517   */\n      not\n        /* \"#utility.yul\":505:507   */\n      0x1f\n        /* \"#utility.yul\":498:503   */\n      dup4\n        /* \"#utility.yul\":494:508   */\n      add\n        /* \"#utility.yul\":490:518   */\n      and\n        /* \"#utility.yul\":480:518   */\n      swap1\n      pop\n        /* \"#utility.yul\":422:524   */\n      swap2\n      swap1\n      pop\n      jump\t// out\n        /* \"#utility.yul\":530:887   */\n    tag_60:\n        /* \"#utility.yul\":608:611   */\n      0x00\n        /* \"#utility.yul\":636:675   */\n      tag_100\n        /* \"#utility.yul\":669:674   */\n      dup3\n        /* \"#utility.yul\":636:675   */\n      tag_56\n      jump\t// in\n    tag_100:\n        /* \"#utility.yul\":691:752   */\n      tag_101\n        /* \"#utility.yul\":745:751   */\n      dup2\n        /* \"#utility.yul\":740:743   */\n      dup6\n        /* \"#utility.yul\":691:752   */\n      tag_57\n      jump\t// in\n    tag_101:\n        /* \"#utility.yul\":684:752   */\n      swap4\n      pop\n        /* \"#utility.yul\":761:826   */\n      tag_102\n        /* \"#utility.yul\":819:825   */\n      dup2\n        /* \"#utility.yul\":814:817   */\n      dup6\n        /* \"#utility.yul\":807:811   */\n      0x20\n        /* \"#utility.yul\":800:805   */\n      dup7\n        /* \"#utility.yul\":796:812   */\n      add\n        /* \"#utility.yul\":761:826   */\n      tag_58\n      jump\t// in\n    tag_102:\n        /* \"#utility.yul\":851:880   */\n      tag_103\n        /* \"#utility.yul\":873:879   */\n      dup2\n        /* \"#utility.yul\":851:880   */\n      tag_59\n      jump\t// in\n    tag_103:\n        /* \"#utility.yul\":846:849   */\n      dup5\n        /* \"#utility.yul\":842:881   */\n      add\n        /* \"#utility.yul\":835:881   */\n      swap2\n      pop\n        /* \"#utility.yul\":612:887   */\n      pop\n        /* \"#utility.yul\":530:887   */\n      swap3\n      swap2\n      pop\n      pop\n      jump\t// out\n        /* \"#utility.yul\":953:1868   */\n    tag_61:\n        /* \"#utility.yul\":1062:1065   */\n      0x00\n        /* \"#utility.yul\":1098:1102   */\n      0x60\n        /* \"#utility.yul\":1093:1096   */\n      dup4\n        /* \"#utility.yul\":1089:1103   */\n      add\n        /* \"#utility.yul\":1186:1190   */\n      0x00\n        /* \"#utility.yul\":1179:1184   */\n      dup4\n        /* \"#utility.yul\":1175:1191   */\n      add\n        /* \"#utility.yul\":1169:1192   */\n      mload\n        /* \"#utility.yul\":1239:1242   */\n      dup5\n        /* \"#utility.yul\":1233:1237   */\n      dup3\n        /* \"#utility.yul\":1229:1243   */\n      sub\n        /* \"#utility.yul\":1222:1226   */\n      0x00\n        /* \"#utility.yul\":1217:1220   */\n      dup7\n        /* \"#utility.yul\":1213:1227   */\n      add\n        /* \"#utility.yul\":1206:1244   */\n      mstore\n        /* \"#utility.yul\":1265:1338   */\n      tag_105\n        /* \"#utility.yul\":1333:1337   */\n      dup3\n        /* \"#utility.yul\":1319:1331   */\n      dup3\n        /* \"#utility.yul\":1265:1338   */\n      tag_60\n      jump\t// in\n    tag_105:\n        /* \"#utility.yul\":1257:1338   */\n      swap2\n      pop\n        /* \"#utility.yul\":1113:1349   */\n      pop\n        /* \"#utility.yul\":1432:1436   */\n      0x20\n        /* \"#utility.yul\":1425:1430   */\n      dup4\n        /* \"#utility.yul\":1421:1437   */\n      add\n        /* \"#utility.yul\":1415:1438   */\n      mload\n        /* \"#utility.yul\":1485:1488   */\n      dup5\n        /* \"#utility.yul\":1479:1483   */\n      dup3\n        /* \"#utility.yul\":1475:1489   */\n      sub\n        /* \"#utility.yul\":1468:1472   */\n      0x20\n        /* \"#utility.yul\":1463:1466   */\n      dup7\n        /* \"#utility.yul\":1459:1473   */\n      add\n        /* \"#utility.yul\":1452:1490   */\n      mstore\n        /* \"#utility.yul\":1511:1584   */\n      tag_106\n        /* \"#utility.yul\":1579:1583   */\n      dup3\n        /* \"#utility.yul\":1565:1577   */\n      dup3\n        /* \"#utility.yul\":1511:1584   */\n      tag_60\n      jump\t// in\n    tag_106:\n        /* \"#utility.yul\":1503:1584   */\n      swap2\n      pop\n        /* \"#utility.yul\":1359:1595   */\n      pop\n        /* \"#utility.yul\":1678:1682   */\n      0x40\n        /* \"#utility.yul\":1671:1676   */\n      dup4\n        /* \"#utility.yul\":1667:1683   */\n      add\n        /* \"#utility.yul\":1661:1684   */\n      mload\n        /* \"#utility.yul\":1731:1734   */\n      dup5\n        /* \"#utility.yul\":1725:1729   */\n      dup3\n        /* \"#utility.yul\":1721:1735   */\n      sub\n        /* \"#utility.yul\":1714:1718   */\n      0x40\n        /* \"#utility.yul\":1709:1712   */\n      dup7\n        /* \"#utility.yul\":1705:1719   */\n      add\n        /* \"#utility.yul\":1698:1736   */\n      mstore\n        /* \"#utility.yul\":1757:1830   */\n      tag_107\n        /* \"#utility.yul\":1825:1829   */\n      dup3\n        /* \"#utility.yul\":1811:1823   */\n      dup3\n        /* \"#utility.yul\":1757:1830   */\n      tag_60\n      jump\t// in\n    tag_107:\n        /* \"#utility.yul\":1749:1830   */\n      swap2\n      pop\n        /* \"#utility.yul\":1605:1841   */\n      pop\n        /* \"#utility.yul\":1858:1862   */\n      dup1\n        /* \"#utility.yul\":1851:1862   */\n      swap2\n      pop\n        /* \"#utility.yul\":1067:1868   */\n      pop\n        /* \"#utility.yul\":953:1868   */\n      swap3\n      swap2\n      pop\n      pop\n      jump\t// out\n        /* \"#utility.yul\":1874:2227   */\n    tag_9:\n        /* \"#utility.yul\":2007:2011   */\n      0x00\n        /* \"#utility.yul\":2045:2047   */\n      0x20\n        /* \"#utility.yul\":2034:2043   */\n      dup3\n        /* \"#utility.yul\":2030:2048   */\n      add\n        /* \"#utility.yul\":2022:2048   */\n      swap1\n      pop\n        /* \"#utility.yul\":2094:2103   */\n      dup2\n        /* \"#utility.yul\":2088:2092   */\n      dup2\n        /* \"#utility.yul\":2084:2104   */\n      sub\n        /* \"#utility.yul\":2080:2081   */\n      0x00\n        /* \"#utility.yul\":2069:2078   */\n      dup4\n        /* \"#utility.yul\":2065:2082   */\n      add\n        /* \"#utility.yul\":2058:2105   */\n      mstore\n        /* \"#utility.yul\":2122:2220   */\n      tag_109\n        /* \"#utility.yul\":2215:2219   */\n      dup2\n        /* \"#utility.yul\":2206:2212   */\n      dup5\n        /* \"#utility.yul\":2122:2220   */\n      tag_61\n      jump\t// in\n    tag_109:\n        /* \"#utility.yul\":2114:2220   */\n      swap1\n      pop\n        /* \"#utility.yul\":1874:2227   */\n      swap3\n      swap2\n      pop\n      pop\n      jump\t// out\n        /* \"#utility.yul\":2233:2308   */\n    tag_62:\n        /* \"#utility.yul\":2266:2272   */\n      0x00\n        /* \"#utility.yul\":2299:2301   */\n      0x40\n        /* \"#utility.yul\":2293:2302   */\n      mload\n        /* \"#utility.yul\":2283:2302   */\n      swap1\n      pop\n        /* \"#utility.yul\":2233:2308   */\n      swap1\n      jump\t// out\n        /* \"#utility.yul\":2314:2431   */\n    tag_63:\n        /* \"#utility.yul\":2423:2424   */\n      0x00\n        /* \"#utility.yul\":2420:2421   */\n      0x00\n        /* \"#utility.yul\":2413:2425   */\n      revert\n        /* \"#utility.yul\":2437:2554   */\n    tag_64:\n        /* \"#utility.yul\":2546:2547   */\n      0x00\n        /* \"#utility.yul\":2543:2544   */\n      0x00\n        /* \"#utility.yul\":2536:2548   */\n      revert\n        /* \"#utility.yul\":2560:2677   */\n    tag_65:\n        /* \"#utility.yul\":2669:2670   */\n      0x00\n        /* \"#utility.yul\":2666:2667   */\n      0x00\n        /* \"#utility.yul\":2659:2671   */\n      revert\n        /* \"#utility.yul\":2683:2800   */\n    tag_66:\n        /* \"#utility.yul\":2792:2793   */\n      0x00\n        /* \"#utility.yul\":2789:2790   */\n      0x00\n        /* \"#utility.yul\":2782:2794   */\n      revert\n        /* \"#utility.yul\":2806:2986   */\n    tag_67:\n        /* \"#utility.yul\":2854:2931   */\n      0x4e487b7100000000000000000000000000000000000000000000000000000000\n        /* \"#utility.yul\":2851:2852   */\n      0x00\n        /* \"#utility.yul\":2844:2932   */\n      mstore\n        /* \"#utility.yul\":2951:2955   */\n      0x41\n        /* \"#utility.yul\":2948:2949   */\n      0x04\n        /* \"#utility.yul\":2941:2956   */\n      mstore\n        /* \"#utility.yul\":2975:2979   */\n      0x24\n        /* \"#utility.yul\":2972:2973   */\n      0x00\n        /* \"#utility.yul\":2965:2980   */\n      revert\n        /* \"#utility.yul\":2992:3273   */\n    tag_68:\n        /* \"#utility.yul\":3075:3102   */\n      tag_117\n        /* \"#utility.yul\":3097:3101   */\n      dup3\n        /* \"#utility.yul\":3075:3102   */\n      tag_59\n      jump\t// in\n    tag_117:\n        /* \"#utility.yul\":3067:3073   */\n      dup2\n        /* \"#utility.yul\":3063:3103   */\n      add\n        /* \"#utility.yul\":3205:3211   */\n      dup2\n        /* \"#utility.yul\":3193:3203   */\n      dup2\n        /* \"#utility.yul\":3190:3212   */\n      lt\n        /* \"#utility.yul\":3169:3187   */\n      0xffffffffffffffff\n        /* \"#utility.yul\":3157:3167   */\n      dup3\n        /* \"#utility.yul\":3154:3188   */\n      gt\n        /* \"#utility.yul\":3151:3213   */\n      or\n        /* \"#utility.yul\":3148:3236   */\n      iszero\n      tag_118\n      jumpi\n        /* \"#utility.yul\":3216:3234   */\n      tag_119\n      tag_67\n      jump\t// in\n    tag_119:\n        /* \"#utility.yul\":3148:3236   */\n    tag_118:\n        /* \"#utility.yul\":3256:3266   */\n      dup1\n        /* \"#utility.yul\":3252:3254   */\n      0x40\n        /* \"#utility.yul\":3245:3267   */\n      mstore\n        /* \"#utility.yul\":3035:3273   */\n      pop\n        /* \"#utility.yul\":2992:3273   */\n      pop\n      pop\n      jump\t// out\n        /* \"#utility.yul\":3279:3408   */\n    tag_69:\n        /* \"#utility.yul\":3313:3319   */\n      0x00\n        /* \"#utility.yul\":3340:3360   */\n      tag_121\n      tag_62\n      jump\t// in\n    tag_121:\n        /* \"#utility.yul\":3330:3360   */\n      swap1\n      pop\n        /* \"#utility.yul\":3369:3402   */\n      tag_122\n        /* \"#utility.yul\":3397:3401   */\n      dup3\n        /* \"#utility.yul\":3389:3395   */\n      dup3\n        /* \"#utility.yul\":3369:3402   */\n      tag_68\n      jump\t// in\n    tag_122:\n        /* \"#utility.yul\":3279:3408   */\n      swap2\n      swap1\n      pop\n      jump\t// out\n        /* \"#utility.yul\":3414:3722   */\n    tag_70:\n        /* \"#utility.yul\":3476:3480   */\n      0x00\n        /* \"#utility.yul\":3566:3584   */\n      0xffffffffffffffff\n        /* \"#utility.yul\":3558:3564   */\n      dup3\n        /* \"#utility.yul\":3555:3585   */\n      gt\n        /* \"#utility.yul\":3552:3608   */\n      iszero\n      tag_124\n      jumpi\n        /* \"#utility.yul\":3588:3606   */\n      tag_125\n      tag_67\n      jump\t// in\n    tag_125:\n        /* \"#utility.yul\":3552:3608   */\n    tag_124:\n        /* \"#utility.yul\":3626:3655   */\n      tag_126\n        /* \"#utility.yul\":3648:3654   */\n      dup3\n        /* \"#utility.yul\":3626:3655   */\n      tag_59\n      jump\t// in\n    tag_126:\n        /* \"#utility.yul\":3618:3655   */\n      swap1\n      pop\n        /* \"#utility.yul\":3710:3714   */\n      0x20\n        /* \"#utility.yul\":3704:3708   */\n      dup2\n        /* \"#utility.yul\":3700:3715   */\n      add\n        /* \"#utility.yul\":3692:3715   */\n      swap1\n      pop\n        /* \"#utility.yul\":3414:3722   */\n      swap2\n      swap1\n      pop\n      jump\t// out\n        /* \"#utility.yul\":3728:3876   */\n    tag_71:\n        /* \"#utility.yul\":3826:3832   */\n      dup3\n        /* \"#utility.yul\":3821:3824   */\n      dup2\n        /* \"#utility.yul\":3816:3819   */\n      dup4\n        /* \"#utility.yul\":3803:3833   */\n      calldatacopy\n        /* \"#utility.yul\":3867:3868   */\n      0x00\n        /* \"#utility.yul\":3858:3864   */\n      dup4\n        /* \"#utility.yul\":3853:3856   */\n      dup4\n        /* \"#utility.yul\":3849:3865   */\n      add\n        /* \"#utility.yul\":3842:3869   */\n      mstore\n        /* \"#utility.yul\":3728:3876   */\n      pop\n      pop\n      pop\n      jump\t// out\n        /* \"#utility.yul\":3882:4307   */\n    tag_72:\n        /* \"#utility.yul\":3960:3965   */\n      0x00\n        /* \"#utility.yul\":3985:4051   */\n      tag_129\n        /* \"#utility.yul\":4001:4050   */\n      tag_130\n        /* \"#utility.yul\":4043:4049   */\n      dup5\n        /* \"#utility.yul\":4001:4050   */\n      tag_70\n      jump\t// in\n    tag_130:\n        /* \"#utility.yul\":3985:4051   */\n      tag_69\n      jump\t// in\n    tag_129:\n        /* \"#utility.yul\":3976:4051   */\n      swap1\n      pop\n        /* \"#utility.yul\":4074:4080   */\n      dup3\n        /* \"#utility.yul\":4067:4072   */\n      dup2\n        /* \"#utility.yul\":4060:4081   */\n      mstore\n        /* \"#utility.yul\":4112:4116   */\n      0x20\n        /* \"#utility.yul\":4105:4110   */\n      dup2\n        /* \"#utility.yul\":4101:4117   */\n      add\n        /* \"#utility.yul\":4150:4153   */\n      dup5\n        /* \"#utility.yul\":4141:4147   */\n      dup5\n        /* \"#utility.yul\":4136:4139   */\n      dup5\n        /* \"#utility.yul\":4132:4148   */\n      add\n        /* \"#utility.yul\":4129:4154   */\n      gt\n        /* \"#utility.yul\":4126:4238   */\n      iszero\n      tag_131\n      jumpi\n        /* \"#utility.yul\":4157:4236   */\n      tag_132\n      tag_66\n      jump\t// in\n    tag_132:\n        /* \"#utility.yul\":4126:4238   */\n    tag_131:\n        /* \"#utility.yul\":4247:4301   */\n      tag_133\n        /* \"#utility.yul\":4294:4300   */\n      dup5\n        /* \"#utility.yul\":4289:4292   */\n      dup3\n        /* \"#utility.yul\":4284:4287   */\n      dup6\n        /* \"#utility.yul\":4247:4301   */\n      tag_71\n      jump\t// in\n    tag_133:\n        /* \"#utility.yul\":3966:4307   */\n      pop\n        /* \"#utility.yul\":3882:4307   */\n      swap4\n      swap3\n      pop\n      pop\n      pop\n      jump\t// out\n        /* \"#utility.yul\":4327:4667   */\n    tag_73:\n        /* \"#utility.yul\":4383:4388   */\n      0x00\n        /* \"#utility.yul\":4432:4435   */\n      dup3\n        /* \"#utility.yul\":4425:4429   */\n      0x1f\n        /* \"#utility.yul\":4417:4423   */\n      dup4\n        /* \"#utility.yul\":4413:4430   */\n      add\n        /* \"#utility.yul\":4409:4436   */\n      slt\n        /* \"#utility.yul\":4399:4521   */\n      tag_135\n      jumpi\n        /* \"#utility.yul\":4440:4519   */\n      tag_136\n      tag_65\n      jump\t// in\n    tag_136:\n        /* \"#utility.yul\":4399:4521   */\n    tag_135:\n        /* \"#utility.yul\":4557:4563   */\n      dup2\n        /* \"#utility.yul\":4544:4564   */\n      calldataload\n        /* \"#utility.yul\":4582:4661   */\n      tag_137\n        /* \"#utility.yul\":4657:4660   */\n      dup5\n        /* \"#utility.yul\":4649:4655   */\n      dup3\n        /* \"#utility.yul\":4642:4646   */\n      0x20\n        /* \"#utility.yul\":4634:4640   */\n      dup7\n        /* \"#utility.yul\":4630:4647   */\n      add\n        /* \"#utility.yul\":4582:4661   */\n      tag_72\n      jump\t// in\n    tag_137:\n        /* \"#utility.yul\":4573:4661   */\n      swap2\n      pop\n        /* \"#utility.yul\":4389:4667   */\n      pop\n        /* \"#utility.yul\":4327:4667   */\n      swap3\n      swap2\n      pop\n      pop\n      jump\t// out\n        /* \"#utility.yul\":4673:5832   */\n    tag_12:\n        /* \"#utility.yul\":4780:4786   */\n      0x00\n        /* \"#utility.yul\":4788:4794   */\n      0x00\n        /* \"#utility.yul\":4796:4802   */\n      0x00\n        /* \"#utility.yul\":4845:4847   */\n      0x60\n        /* \"#utility.yul\":4833:4842   */\n      dup5\n        /* \"#utility.yul\":4824:4831   */\n      dup7\n        /* \"#utility.yul\":4820:4843   */\n      sub\n        /* \"#utility.yul\":4816:4848   */\n      slt\n        /* \"#utility.yul\":4813:4932   */\n      iszero\n      tag_139\n      jumpi\n        /* \"#utility.yul\":4851:4930   */\n      tag_140\n      tag_63\n      jump\t// in\n    tag_140:\n        /* \"#utility.yul\":4813:4932   */\n    tag_139:\n        /* \"#utility.yul\":4999:5000   */\n      0x00\n        /* \"#utility.yul\":4988:4997   */\n      dup5\n        /* \"#utility.yul\":4984:5001   */\n      add\n        /* \"#utility.yul\":4971:5002   */\n      calldataload\n        /* \"#utility.yul\":5029:5047   */\n      0xffffffffffffffff\n        /* \"#utility.yul\":5021:5027   */\n      dup2\n        /* \"#utility.yul\":5018:5048   */\n      gt\n        /* \"#utility.yul\":5015:5132   */\n      iszero\n      tag_141\n      jumpi\n        /* \"#utility.yul\":5051:5130   */\n      tag_142\n      tag_64\n      jump\t// in\n    tag_142:\n        /* \"#utility.yul\":5015:5132   */\n    tag_141:\n        /* \"#utility.yul\":5156:5219   */\n      tag_143\n        /* \"#utility.yul\":5211:5218   */\n      dup7\n        /* \"#utility.yul\":5202:5208   */\n      dup3\n        /* \"#utility.yul\":5191:5200   */\n      dup8\n        /* \"#utility.yul\":5187:5209   */\n      add\n        /* \"#utility.yul\":5156:5219   */\n      tag_73\n      jump\t// in\n    tag_143:\n        /* \"#utility.yul\":5146:5219   */\n      swap4\n      pop\n        /* \"#utility.yul\":4942:5229   */\n      pop\n        /* \"#utility.yul\":5296:5298   */\n      0x20\n        /* \"#utility.yul\":5285:5294   */\n      dup5\n        /* \"#utility.yul\":5281:5299   */\n      add\n        /* \"#utility.yul\":5268:5300   */\n      calldataload\n        /* \"#utility.yul\":5327:5345   */\n      0xffffffffffffffff\n        /* \"#utility.yul\":5319:5325   */\n      dup2\n        /* \"#utility.yul\":5316:5346   */\n      gt\n        /* \"#utility.yul\":5313:5430   */\n      iszero\n      tag_144\n      jumpi\n        /* \"#utility.yul\":5349:5428   */\n      tag_145\n      tag_64\n      jump\t// in\n    tag_145:\n        /* \"#utility.yul\":5313:5430   */\n    tag_144:\n        /* \"#utility.yul\":5454:5517   */\n      tag_146\n        /* \"#utility.yul\":5509:5516   */\n      dup7\n        /* \"#utility.yul\":5500:5506   */\n      dup3\n        /* \"#utility.yul\":5489:5498   */\n      dup8\n        /* \"#utility.yul\":5485:5507   */\n      add\n        /* \"#utility.yul\":5454:5517   */\n      tag_73\n      jump\t// in\n    tag_146:\n        /* \"#utility.yul\":5444:5517   */\n      swap3\n      pop\n        /* \"#utility.yul\":5239:5527   */\n      pop\n        /* \"#utility.yul\":5594:5596   */\n      0x40\n        /* \"#utility.yul\":5583:5592   */\n      dup5\n        /* \"#utility.yul\":5579:5597   */\n      add\n        /* \"#utility.yul\":5566:5598   */\n      calldataload\n        /* \"#utility.yul\":5625:5643   */\n      0xffffffffffffffff\n        /* \"#utility.yul\":5617:5623   */\n      dup2\n        /* \"#utility.yul\":5614:5644   */\n      gt\n        /* \"#utility.yul\":5611:5728   */\n      iszero\n      tag_147\n      jumpi\n        /* \"#utility.yul\":5647:5726   */\n      tag_148\n      tag_64\n      jump\t// in\n    tag_148:\n        /* \"#utility.yul\":5611:5728   */\n    tag_147:\n        /* \"#utility.yul\":5752:5815   */\n      tag_149\n        /* \"#utility.yul\":5807:5814   */\n      dup7\n        /* \"#utility.yul\":5798:5804   */\n      dup3\n        /* \"#utility.yul\":5787:5796   */\n      dup8\n        /* \"#utility.yul\":5783:5805   */\n      add\n        /* \"#utility.yul\":5752:5815   */\n      tag_73\n      jump\t// in\n    tag_149:\n        /* \"#utility.yul\":5742:5815   */\n      swap2\n      pop\n        /* \"#utility.yul\":5537:5825   */\n      pop\n        /* \"#utility.yul\":4673:5832   */\n      swap3\n      pop\n      swap3\n      pop\n      swap3\n      jump\t// out\n        /* \"#utility.yul\":5838:6018   */\n    tag_74:\n        /* \"#utility.yul\":5886:5963   */\n      0x4e487b7100000000000000000000000000000000000000000000000000000000\n        /* \"#utility.yul\":5883:5884   */\n      0x00\n        /* \"#utility.yul\":5876:5964   */\n      mstore\n        /* \"#utility.yul\":5983:5987   */\n      0x22\n        /* \"#utility.yul\":5980:5981   */\n      0x04\n        /* \"#utility.yul\":5973:5988   */\n      mstore\n        /* \"#utility.yul\":6007:6011   */\n      0x24\n        /* \"#utility.yul\":6004:6005   */\n      0x00\n        /* \"#utility.yul\":5997:6012   */\n      revert\n        /* \"#utility.yul\":6024:6344   */\n    tag_21:\n        /* \"#utility.yul\":6068:6074   */\n      0x00\n        /* \"#utility.yul\":6105:6106   */\n      0x02\n        /* \"#utility.yul\":6099:6103   */\n      dup3\n        /* \"#utility.yul\":6095:6107   */\n      div\n        /* \"#utility.yul\":6085:6107   */\n      swap1\n      pop\n        /* \"#utility.yul\":6152:6153   */\n      0x01\n        /* \"#utility.yul\":6146:6150   */\n      dup3\n        /* \"#utility.yul\":6142:6154   */\n      and\n        /* \"#utility.yul\":6173:6191   */\n      dup1\n        /* \"#utility.yul\":6163:6244   */\n      tag_152\n      jumpi\n        /* \"#utility.yul\":6229:6233   */\n      0x7f\n        /* \"#utility.yul\":6221:6227   */\n      dup3\n        /* \"#utility.yul\":6217:6234   */\n      and\n        /* \"#utility.yul\":6207:6234   */\n      swap2\n      pop\n        /* \"#utility.yul\":6163:6244   */\n    tag_152:\n        /* \"#utility.yul\":6291:6293   */\n      0x20\n        /* \"#utility.yul\":6283:6289   */\n      dup3\n        /* \"#utility.yul\":6280:6294   */\n      lt\n        /* \"#utility.yul\":6260:6278   */\n      dup2\n        /* \"#utility.yul\":6257:6295   */\n      sub\n        /* \"#utility.yul\":6254:6338   */\n      tag_153\n      jumpi\n        /* \"#utility.yul\":6310:6328   */\n      tag_154\n      tag_74\n      jump\t// in\n    tag_154:\n        /* \"#utility.yul\":6254:6338   */\n    tag_153:\n        /* \"#utility.yul\":6075:6344   */\n      pop\n        /* \"#utility.yul\":6024:6344   */\n      swap2\n      swap1\n      pop\n      jump\t// out\n        /* \"#utility.yul\":6350:6491   */\n    tag_75:\n        /* \"#utility.yul\":6399:6403   */\n      0x00\n        /* \"#utility.yul\":6422:6425   */\n      dup2\n        /* \"#utility.yul\":6414:6425   */\n      swap1\n      pop\n        /* \"#utility.yul\":6445:6448   */\n      dup2\n        /* \"#utility.yul\":6442:6443   */\n      0x00\n        /* \"#utility.yul\":6435:6449   */\n      mstore\n        /* \"#utility.yul\":6479:6483   */\n      0x20\n        /* \"#utility.yul\":6476:6477   */\n      0x00\n        /* \"#utility.yul\":6466:6484   */\n      keccak256\n        /* \"#utility.yul\":6458:6484   */\n      swap1\n      pop\n        /* \"#utility.yul\":6350:6491   */\n      swap2\n      swap1\n      pop\n      jump\t// out\n        /* \"#utility.yul\":6497:6590   */\n    tag_76:\n        /* \"#utility.yul\":6534:6540   */\n      0x00\n        /* \"#utility.yul\":6581:6583   */\n      0x20\n        /* \"#utility.yul\":6576:6578   */\n      0x1f\n        /* \"#utility.yul\":6569:6574   */\n      dup4\n        /* \"#utility.yul\":6565:6579   */\n      add\n        /* \"#utility.yul\":6561:6584   */\n      div\n        /* \"#utility.yul\":6551:6584   */\n      swap1\n      pop\n        /* \"#utility.yul\":6497:6590   */\n      swap2\n      swap1\n      pop\n      jump\t// out\n        /* \"#utility.yul\":6596:6703   */\n    tag_77:\n        /* \"#utility.yul\":6640:6648   */\n      0x00\n        /* \"#utility.yul\":6690:6695   */\n      dup3\n        /* \"#utility.yul\":6684:6688   */\n      dup3\n        /* \"#utility.yul\":6680:6696   */\n      shl\n        /* \"#utility.yul\":6659:6696   */\n      swap1\n      pop\n        /* \"#utility.yul\":6596:6703   */\n      swap3\n      swap2\n      pop\n      pop\n      jump\t// out\n        /* \"#utility.yul\":6709:7102   */\n    tag_78:\n        /* \"#utility.yul\":6778:6784   */\n      0x00\n        /* \"#utility.yul\":6828:6829   */\n      0x08\n        /* \"#utility.yul\":6816:6826   */\n      dup4\n        /* \"#utility.yul\":6812:6830   */\n      mul\n        /* \"#utility.yul\":6851:6948   */\n      tag_159\n        /* \"#utility.yul\":6881:6947   */\n      0xffffffffffffffffffffffffffffffffffffffffffffffffffffffffffffffff\n        /* \"#utility.yul\":6870:6879   */\n      dup3\n        /* \"#utility.yul\":6851:6948   */\n      tag_77\n      jump\t// in\n    tag_159:\n        /* \"#utility.yul\":6969:7008   */\n      tag_160\n        /* \"#utility.yul\":6999:7007   */\n      dup7\n        /* \"#utility.yul\":6988:6997   */\n      dup4\n        /* \"#utility.yul\":6969:7008   */\n      tag_77\n      jump\t// in\n    tag_160:\n        /* \"#utility.yul\":6957:7008   */\n      swap6\n      pop\n        /* \"#utility.yul\":7041:7045   */\n      dup1\n        /* \"#utility.yul\":7037:7046   */\n      not\n        /* \"#utility.yul\":7030:7035   */\n      dup5\n        /* \"#utility.yul\":7026:7047   */\n      and\n        /* \"#utility.yul\":7017:7047   */\n      swap4\n      pop\n        /* \"#utility.yul\":7090:7094   */\n      dup1\n        /* \"#utility.yul\":7080:7088   */\n      dup7\n        /* \"#utility.yul\":7076:7095   */\n      and\n        /* \"#utility.yul\":7069:7074   */\n      dup5\n        /* \"#utility.yul\":7066:7096   */\n      or\n        /* \"#utility.yul\":7056:7096   */\n      swap3\n      pop\n        /* \"#utility.yul\":6785:7102   */\n      pop\n      pop\n        /* \"#utility.yul\":6709:7102   */\n      swap4\n      swap3\n      pop\n      pop\n      pop\n      jump\t// out\n        /* \"#utility.yul\":7108:7185   */\n    tag_79:\n        /* \"#utility.yul\":7145:7152   */\n      0x00\n        /* \"#utility.yul\":7174:7179   */\n      dup2\n        /* \"#utility.yul\":7163:7179   */\n      swap1\n      pop\n        /* \"#utility.yul\":7108:7185   */\n      swap2\n      swap1\n      pop\n      jump\t// out\n        /* \"#utility.yul\":7191:7251   */\n    tag_80:\n        /* \"#utility.yul\":7219:7222   */\n      0x00\n        /* \"#utility.yul\":7240:7245   */\n      dup2\n        /* \"#utility.yul\":7233:7245   */\n      swap1\n      pop\n        /* \"#utility.yul\":7191:7251   */\n      swap2\n      swap1\n      pop\n      jump\t// out\n        /* \"#utility.yul\":7257:7399   */\n    tag_81:\n        /* \"#utility.yul\":7307:7316   */\n      0x00\n        /* \"#utility.yul\":7340:7393   */\n      tag_164\n        /* \"#utility.yul\":7358:7392   */\n      tag_165\n        /* \"#utility.yul\":7367:7391   */\n      tag_166\n        /* \"#utility.yul\":7385:7390   */\n      dup5\n        /* \"#utility.yul\":7367:7391   */\n      tag_79\n      jump\t// in\n    tag_166:\n        /* \"#utility.yul\":7358:7392   */\n      tag_80\n      jump\t// in\n    tag_165:\n        /* \"#utility.yul\":7340:7393   */\n      tag_79\n      jump\t// in\n    tag_164:\n        /* \"#utility.yul\":7327:7393   */\n      swap1\n      pop\n        /* \"#utility.yul\":7257:7399   */\n      swap2\n      swap1\n      pop\n      jump\t// out\n        /* \"#utility.yul\":7405:7480   */\n    tag_82:\n        /* \"#utility.yul\":7448:7451   */\n      0x00\n        /* \"#utility.yul\":7469:7474   */\n      dup2\n        /* \"#utility.yul\":7462:7474   */\n      swap1\n      pop\n        /* \"#utility.yul\":7405:7480   */\n      swap2\n      swap1\n      pop\n      jump\t// out\n        /* \"#utility.yul\":7486:7755   */\n    tag_83:\n        /* \"#utility.yul\":7596:7635   */\n      tag_169\n        /* \"#utility.yul\":7627:7634   */\n      dup4\n        /* \"#utility.yul\":7596:7635   */\n      tag_81\n      jump\t// in\n    tag_169:\n        /* \"#utility.yul\":7657:7748   */\n      tag_170\n        /* \"#utility.yul\":7706:7747   */\n      tag_171\n        /* \"#utility.yul\":7730:7746   */\n      dup3\n        /* \"#utility.yul\":7706:7747   */\n      tag_82\n      jump\t// in\n    tag_171:\n        /* \"#utility.yul\":7698:7704   */\n      dup5\n        /* \"#utility.yul\":7691:7695   */\n      dup5\n        /* \"#utility.yul\":7685:7696   */\n      sload\n        /* \"#utility.yul\":7657:7748   */\n      tag_78\n      jump\t// in\n    tag_170:\n        /* \"#utility.yul\":7651:7655   */\n      dup3\n        /* \"#utility.yul\":7644:7749   */\n      sstore\n        /* \"#utility.yul\":7562:7755   */\n      pop\n        /* \"#utility.yul\":7486:7755   */\n      pop\n      pop\n      pop\n      jump\t// out\n        /* \"#utility.yul\":7761:7834   */\n    tag_84:\n        /* \"#utility.yul\":7806:7809   */\n      0x00\n        /* \"#utility.yul\":7827:7828   */\n      0x00\n        /* \"#utility.yul\":7820:7828   */\n      swap1\n      pop\n        /* \"#utility.yul\":7761:7834   */\n      swap1\n      jump\t// out\n        /* \"#utility.yul\":7840:8029   */\n    tag_85:\n        /* \"#utility.yul\":7917:7949   */\n      tag_174\n      tag_84\n      jump\t// in\n    tag_174:\n        /* \"#utility.yul\":7958:8023   */\n      tag_175\n        /* \"#utility.yul\":8016:8022   */\n      dup2\n        /* \"#utility.yul\":8008:8014   */\n      dup5\n        /* \"#utility.yul\":8002:8006   */\n      dup5\n        /* \"#utility.yul\":7958:8023   */\n      tag_83\n      jump\t// in\n    tag_175:\n        /* \"#utility.yul\":7893:8029   */\n      pop\n        /* \"#utility.yul\":7840:8029   */\n      pop\n      pop\n      jump\t// out\n        /* \"#utility.yul\":8035:8221   */\n    tag_86:\n        /* \"#utility.yul\":8095:8215   */\n    tag_177:\n        /* \"#utility.yul\":8112:8115   */\n      dup2\n        /* \"#utility.yul\":8105:8110   */\n      dup2\n        /* \"#utility.yul\":8102:8116   */\n      lt\n        /* \"#utility.yul\":8095:8215   */\n      iszero\n      tag_179\n      jumpi\n        /* \"#utility.yul\":8166:8205   */\n      tag_180\n        /* \"#utility.yul\":8203:8204   */\n      0x00\n        /* \"#utility.yul\":8196:8201   */\n      dup3\n        /* \"#utility.yul\":8166:8205   */\n      tag_85\n      jump\t// in\n    tag_180:\n        /* \"#utility.yul\":8139:8140   */\n      0x01\n        /* \"#utility.yul\":8132:8137   */\n      dup2\n        /* \"#utility.yul\":8128:8141   */\n      add\n        /* \"#utility.yul\":8119:8141   */\n      swap1\n      pop\n        /* \"#utility.yul\":8095:8215   */\n      jump(tag_177)\n    tag_179:\n        /* \"#utility.yul\":8035:8221   */\n      pop\n      pop\n      jump\t// out\n        /* \"#utility.yul\":8227:8770   */\n    tag_87:\n        /* \"#utility.yul\":8328:8330   */\n      0x1f\n        /* \"#utility.yul\":8323:8326   */\n      dup3\n        /* \"#utility.yul\":8320:8331   */\n      gt\n        /* \"#utility.yul\":8317:8763   */\n      iszero\n      tag_182\n      jumpi\n        /* \"#utility.yul\":8362:8400   */\n      tag_183\n        /* \"#utility.yul\":8394:8399   */\n      dup2\n        /* \"#utility.yul\":8362:8400   */\n      tag_75\n      jump\t// in\n    tag_183:\n        /* \"#utility.yul\":8446:8475   */\n      tag_184\n        /* \"#utility.yul\":8464:8474   */\n      dup5\n        /* \"#utility.yul\":8446:8475   */\n      tag_76\n      jump\t// in\n    tag_184:\n        /* \"#utility.yul\":8436:8444   */\n      dup2\n        /* \"#utility.yul\":8432:8476   */\n      add\n        /* \"#utility.yul\":8629:8631   */\n      0x20\n        /* \"#utility.yul\":8617:8627   */\n      dup6\n        /* \"#utility.yul\":8614:8632   */\n      lt\n        /* \"#utility.yul\":8611:8660   */\n      iszero\n      tag_185\n      jumpi\n        /* \"#utility.yul\":8650:8658   */\n      dup2\n        /* \"#utility.yul\":8635:8658   */\n      swap1\n      pop\n        /* \"#utility.yul\":8611:8660   */\n    tag_185:\n        /* \"#utility.yul\":8673:8753   */\n      tag_186\n        /* \"#utility.yul\":8729:8751   */\n      tag_187\n        /* \"#utility.yul\":8747:8750   */\n      dup6\n        /* \"#utility.yul\":8729:8751   */\n      tag_76\n      jump\t// in\n    tag_187:\n        /* \"#utility.yul\":8719:8727   */\n      dup4\n        /* \"#utility.yul\":8715:8752   */\n      add\n        /* \"#utility.yul\":8702:8713   */\n      dup3\n        /* \"#utility.yul\":8673:8753   */\n      tag_86\n      jump\t// in\n    tag_186:\n        /* \"#utility.yul\":8332:8763   */\n      pop\n      pop\n        /* \"#utility.yul\":8317:8763   */\n    tag_182:\n        /* \"#utility.yul\":8227:8770   */\n      pop\n      pop\n      pop\n      jump\t// out\n        /* \"#utility.yul\":8776:8893   */\n    tag_88:\n        /* \"#utility.yul\":8830:8838   */\n      0x00\n        /* \"#utility.yul\":8880:8885   */\n      dup3\n        /* \"#utility.yul\":8874:8878   */\n      dup3\n        /* \"#utility.yul\":8870:8886   */\n      shr\n        /* \"#utility.yul\":8849:8886   */\n      swap1\n      pop\n        /* \"#utility.yul\":8776:8893   */\n      swap3\n      swap2\n      pop\n      pop\n      jump\t// out\n        /* \"#utility.yul\":8899:9068   */\n    tag_89:\n        /* \"#utility.yul\":8943:8949   */\n      0x00\n        /* \"#utility.yul\":8976:9027   */\n      tag_190\n        /* \"#utility.yul\":9024:9025   */\n      0x00\n        /* \"#utility.yul\":9020:9026   */\n      not\n        /* \"#utility.yul\":9012:9017   */\n      dup5\n        /* \"#utility.yul\":9009:9010   */\n      0x08\n        /* \"#utility.yul\":9005:9018   */\n      mul\n        /* \"#utility.yul\":8976:9027   */\n      tag_88\n      jump\t// in\n    tag_190:\n        /* \"#utility.yul\":8972:9028   */\n      not\n        /* \"#utility.yul\":9057:9061   */\n      dup1\n        /* \"#utility.yul\":9051:9055   */\n      dup4\n        /* \"#utility.yul\":9047:9062   */\n      and\n        /* \"#utility.yul\":9037:9062   */\n      swap2\n      pop\n        /* \"#utility.yul\":8950:9068   */\n      pop\n        /* \"#utility.yul\":8899:9068   */\n      swap3\n      swap2\n      pop\n      pop\n      jump\t// out\n        /* \"#utility.yul\":9073:9368   */\n    tag_90:\n        /* \"#utility.yul\":9149:9153   */\n      0x00\n        /* \"#utility.yul\":9295:9324   */\n      tag_192\n        /* \"#utility.yul\":9320:9323   */\n      dup4\n        /* \"#utility.yul\":9314:9318   */\n      dup4\n        /* \"#utility.yul\":9295:9324   */\n      tag_89\n      jump\t// in\n    tag_192:\n        /* \"#utility.yul\":9287:9324   */\n      swap2\n      pop\n        /* \"#utility.yul\":9357:9360   */\n      dup3\n        /* \"#utility.yul\":9354:9355   */\n      0x02\n        /* \"#utility.yul\":9350:9361   */\n      mul\n        /* \"#utility.yul\":9344:9348   */\n      dup3\n        /* \"#utility.yul\":9341:9362   */\n      or\n        /* \"#utility.yul\":9333:9362   */\n      swap1\n      pop\n        /* \"#utility.yul\":9073:9368   */\n      swap3\n      swap2\n      pop\n      pop\n      jump\t// out\n        /* \"#utility.yul\":9373:10768   */\n    tag_38:\n        /* \"#utility.yul\":9490:9527   */\n      tag_194\n        /* \"#utility.yul\":9523:9526   */\n      dup3\n        /* \"#utility.yul\":9490:9527   */\n      tag_56\n      jump\t// in\n    tag_194:\n        /* \"#utility.yul\":9592:9610   */\n      0xffffffffffffffff\n        /* \"#utility.yul\":9584:9590   */\n      dup2\n        /* \"#utility.yul\":9581:9611   */\n      gt\n        /* \"#utility.yul\":9578:9634   */\n      iszero\n      tag_195\n      jumpi\n        /* \"#utility.yul\":9614:9632   */\n      tag_196\n      tag_67\n      jump\t// in\n    tag_196:\n        /* \"#utility.yul\":9578:9634   */\n    tag_195:\n        /* \"#utility.yul\":9658:9696   */\n      tag_197\n        /* \"#utility.yul\":9690:9694   */\n      dup3\n        /* \"#utility.yul\":9684:9695   */\n      sload\n        /* \"#utility.yul\":9658:9696   */\n      tag_21\n      jump\t// in\n    tag_197:\n        /* \"#utility.yul\":9743:9810   */\n      tag_198\n        /* \"#utility.yul\":9803:9809   */\n      dup3\n        /* \"#utility.yul\":9795:9801   */\n      dup3\n        /* \"#utility.yul\":9789:9793   */\n      dup6\n        /* \"#utility.yul\":9743:9810   */\n      tag_87\n      jump\t// in\n    tag_198:\n        /* \"#utility.yul\":9837:9838   */\n      0x00\n        /* \"#utility.yul\":9861:9865   */\n      0x20\n        /* \"#utility.yul\":9848:9865   */\n      swap1\n      pop\n        /* \"#utility.yul\":9893:9895   */\n      0x1f\n        /* \"#utility.yul\":9885:9891   */\n      dup4\n        /* \"#utility.yul\":9882:9896   */\n      gt\n        /* \"#utility.yul\":9910:9911   */\n      0x01\n        /* \"#utility.yul\":9905:10523   */\n      dup2\n      eq\n      tag_200\n      jumpi\n        /* \"#utility.yul\":10567:10568   */\n      0x00\n        /* \"#utility.yul\":10584:10590   */\n      dup5\n        /* \"#utility.yul\":10581:10658   */\n      iszero\n      tag_201\n      jumpi\n        /* \"#utility.yul\":10633:10642   */\n      dup3\n        /* \"#utility.yul\":10628:10631   */\n      dup8\n        /* \"#utility.yul\":10624:10643   */\n      add\n        /* \"#utility.yul\":10618:10644   */\n      mload\n        /* \"#utility.yul\":10609:10644   */\n      swap1\n      pop\n        /* \"#utility.yul\":10581:10658   */\n    tag_201:\n        /* \"#utility.yul\":10684:10751   */\n      tag_202\n        /* \"#utility.yul\":10744:10750   */\n      dup6\n        /* \"#utility.yul\":10737:10742   */\n      dup3\n        /* \"#utility.yul\":10684:10751   */\n      tag_90\n      jump\t// in\n    tag_202:\n        /* \"#utility.yul\":10678:10682   */\n      dup7\n        /* \"#utility.yul\":10671:10752   */\n      sstore\n        /* \"#utility.yul\":10540:10762   */\n      pop\n        /* \"#utility.yul\":9875:10762   */\n      jump(tag_199)\n        /* \"#utility.yul\":9905:10523   */\n    tag_200:\n        /* \"#utility.yul\":9957:9961   */\n      0x1f\n        /* \"#utility.yul\":9953:9962   */\n      not\n        /* \"#utility.yul\":9945:9951   */\n      dup5\n        /* \"#utility.yul\":9941:9963   */\n      and\n        /* \"#utility.yul\":9991:10028   */\n      tag_203\n        /* \"#utility.yul\":10023:10027   */\n      dup7\n        /* \"#utility.yul\":9991:10028   */\n      tag_75\n      jump\t// in\n    tag_203:\n        /* \"#utility.yul\":10050:10051   */\n      0x00\n        /* \"#utility.yul\":10064:10272   */\n    tag_204:\n        /* \"#utility.yul\":10078:10085   */\n      dup3\n        /* \"#utility.yul\":10075:10076   */\n      dup2\n        /* \"#utility.yul\":10072:10086   */\n      lt\n        /* \"#utility.yul\":10064:10272   */\n      iszero\n      tag_206\n      jumpi\n        /* \"#utility.yul\":10157:10166   */\n      dup5\n        /* \"#utility.yul\":10152:10155   */\n      dup10\n        /* \"#utility.yul\":10148:10167   */\n      add\n        /* \"#utility.yul\":10142:10168   */\n      mload\n        /* \"#utility.yul\":10134:10140   */\n      dup3\n        /* \"#utility.yul\":10127:10169   */\n      sstore\n        /* \"#utility.yul\":10208:10209   */\n      0x01\n        /* \"#utility.yul\":10200:10206   */\n      dup3\n        /* \"#utility.yul\":10196:10210   */\n      add\n        /* \"#utility.yul\":10186:10210   */\n      swap2\n      pop\n        /* \"#utility.yul\":10255:10257   */\n      0x20\n        /* \"#utility.yul\":10244:10253   */\n      dup6\n        /* \"#utility.yul\":10240:10258   */\n      add\n        /* \"#utility.yul\":10227:10258   */\n      swap5\n      pop\n        /* \"#utility.yul\":10101:10105   */\n      0x20\n        /* \"#utility.yul\":10098:10099   */\n      dup2\n        /* \"#utility.yul\":10094:10106   */\n      add\n        /* \"#utility.yul\":10089:10106   */\n      swap1\n      pop\n        /* \"#utility.yul\":10064:10272   */\n      jump(tag_204)\n    tag_206:\n        /* \"#utility.yul\":10300:10306   */\n      dup7\n        /* \"#utility.yul\":10291:10298   */\n      dup4\n        /* \"#utility.yul\":10288:10307   */\n      lt\n        /* \"#utility.yul\":10285:10464   */\n      iszero\n      tag_207\n      jumpi\n        /* \"#utility.yul\":10358:10367   */\n      dup5\n        /* \"#utility.yul\":10353:10356   */\n      dup10\n        /* \"#utility.yul\":10349:10368   */\n      add\n        /* \"#utility.yul\":10343:10369   */\n      mload\n        /* \"#utility.yul\":10401:10449   */\n      tag_208\n        /* \"#utility.yul\":10443:10447   */\n      0x1f\n        /* \"#utility.yul\":10435:10441   */\n      dup10\n        /* \"#utility.yul\":10431:10448   */\n      and\n        /* \"#utility.yul\":10420:10429   */\n      dup3\n        /* \"#utility.yul\":10401:10449   */\n      tag_89\n      jump\t// in\n    tag_208:\n        /* \"#utility.yul\":10393:10399   */\n      dup4\n        /* \"#utility.yul\":10386:10450   */\n      sstore\n        /* \"#utility.yul\":10308:10464   */\n      pop\n        /* \"#utility.yul\":10285:10464   */\n    tag_207:\n        /* \"#utility.yul\":10510:10511   */\n      0x01\n        /* \"#utility.yul\":10506:10507   */\n      0x02\n        /* \"#utility.yul\":10498:10504   */\n      dup9\n        /* \"#utility.yul\":10494:10508   */\n      mul\n        /* \"#utility.yul\":10490:10512   */\n      add\n        /* \"#utility.yul\":10484:10488   */\n      dup9\n        /* \"#utility.yul\":10477:10513   */\n      sstore\n        /* \"#utility.yul\":9912:10523   */\n      pop\n      pop\n      pop\n        /* \"#utility.yul\":9875:10762   */\n    tag_199:\n      pop\n        /* \"#utility.yul\":9465:10768   */\n      pop\n      pop\n      pop\n        /* \"#utility.yul\":9373:10768   */\n      pop\n      pop\n      jump\t// out\n        /* \"#utility.yul\":10774:10922   */\n    tag_91:\n        /* \"#utility.yul\":10876:10887   */\n      0x00\n        /* \"#utility.yul\":10913:10916   */\n      dup2\n        /* \"#utility.yul\":10898:10916   */\n      swap1\n      pop\n        /* \"#utility.yul\":10774:10922   */\n      swap3\n      swap2\n      pop\n      pop\n      jump\t// out\n        /* \"#utility.yul\":10952:11826   */\n    tag_92:\n        /* \"#utility.yul\":11055:11058   */\n      0x00\n        /* \"#utility.yul\":11092:11097   */\n      dup2\n        /* \"#utility.yul\":11086:11098   */\n      sload\n        /* \"#utility.yul\":11121:11157   */\n      tag_211\n        /* \"#utility.yul\":11147:11156   */\n      dup2\n        /* \"#utility.yul\":11121:11157   */\n      tag_21\n      jump\t// in\n    tag_211:\n        /* \"#utility.yul\":11173:11262   */\n      tag_212\n        /* \"#utility.yul\":11255:11261   */\n      dup2\n        /* \"#utility.yul\":11250:11253   */\n      dup7\n        /* \"#utility.yul\":11173:11262   */\n      tag_91\n      jump\t// in\n    tag_212:\n        /* \"#utility.yul\":11166:11262   */\n      swap5\n      pop\n        /* \"#utility.yul\":11293:11294   */\n      0x01\n        /* \"#utility.yul\":11282:11291   */\n      dup3\n        /* \"#utility.yul\":11278:11295   */\n      and\n        /* \"#utility.yul\":11309:11310   */\n      0x00\n        /* \"#utility.yul\":11304:11470   */\n      dup2\n      eq\n      tag_214\n      jumpi\n        /* \"#utility.yul\":11484:11485   */\n      0x01\n        /* \"#utility.yul\":11479:11820   */\n      dup2\n      eq\n      tag_215\n      jumpi\n        /* \"#utility.yul\":11271:11820   */\n      jump(tag_213)\n        /* \"#utility.yul\":11304:11470   */\n    tag_214:\n        /* \"#utility.yul\":11388:11392   */\n      0xff\n        /* \"#utility.yul\":11384:11393   */\n      not\n        /* \"#utility.yul\":11373:11382   */\n      dup4\n        /* \"#utility.yul\":11369:11394   */\n      and\n        /* \"#utility.yul\":11364:11367   */\n      dup7\n        /* \"#utility.yul\":11357:11395   */\n      mstore\n        /* \"#utility.yul\":11450:11456   */\n      dup2\n        /* \"#utility.yul\":11443:11457   */\n      iszero\n        /* \"#utility.yul\":11436:11458   */\n      iszero\n        /* \"#utility.yul\":11428:11434   */\n      dup3\n        /* \"#utility.yul\":11424:11459   */\n      mul\n        /* \"#utility.yul\":11419:11422   */\n      dup7\n        /* \"#utility.yul\":11415:11460   */\n      add\n        /* \"#utility.yul\":11408:11460   */\n      swap4\n      pop\n        /* \"#utility.yul\":11304:11470   */\n      jump(tag_213)\n        /* \"#utility.yul\":11479:11820   */\n    tag_215:\n        /* \"#utility.yul\":11546:11584   */\n      tag_216\n        /* \"#utility.yul\":11578:11583   */\n      dup6\n        /* \"#utility.yul\":11546:11584   */\n      tag_75\n      jump\t// in\n    tag_216:\n        /* \"#utility.yul\":11606:11607   */\n      0x00\n        /* \"#utility.yul\":11620:11774   */\n    tag_217:\n        /* \"#utility.yul\":11634:11640   */\n      dup4\n        /* \"#utility.yul\":11631:11632   */\n      dup2\n        /* \"#utility.yul\":11628:11641   */\n      lt\n        /* \"#utility.yul\":11620:11774   */\n      iszero\n      tag_219\n      jumpi\n        /* \"#utility.yul\":11708:11715   */\n      dup2\n        /* \"#utility.yul\":11702:11716   */\n      sload\n        /* \"#utility.yul\":11698:11699   */\n      dup2\n        /* \"#utility.yul\":11693:11696   */\n      dup10\n        /* \"#utility.yul\":11689:11700   */\n      add\n        /* \"#utility.yul\":11682:11717   */\n      mstore\n        /* \"#utility.yul\":11758:11759   */\n      0x01\n        /* \"#utility.yul\":11749:11756   */\n      dup3\n        /* \"#utility.yul\":11745:11760   */\n      add\n        /* \"#utility.yul\":11734:11760   */\n      swap2\n      pop\n        /* \"#utility.yul\":11656:11660   */\n      0x20\n        /* \"#utility.yul\":11653:11654   */\n      dup2\n        /* \"#utility.yul\":11649:11661   */\n      add\n        /* \"#utility.yul\":11644:11661   */\n      swap1\n      pop\n        /* \"#utility.yul\":11620:11774   */\n      jump(tag_217)\n    tag_219:\n        /* \"#utility.yul\":11803:11809   */\n      dup4\n        /* \"#utility.yul\":11798:11801   */\n      dup9\n        /* \"#utility.yul\":11794:11810   */\n      add\n        /* \"#utility.yul\":11787:11810   */\n      swap6\n      pop\n        /* \"#utility.yul\":11486:11820   */\n      pop\n      pop\n        /* \"#utility.yul\":11271:11820   */\n    tag_213:\n      pop\n        /* \"#utility.yul\":11059:11826   */\n      pop\n      pop\n        /* \"#utility.yul\":10952:11826   */\n      swap3\n      swap2\n      pop\n      pop\n      jump\t// out\n        /* \"#utility.yul\":11832:12073   */\n    tag_93:\n        /* \"#utility.yul\":12000:12066   */\n      0x20f09fa4b7000000000000000000000000000000000000000000000000000000\n        /* \"#utility.yul\":11995:11998   */\n      dup2\n        /* \"#utility.yul\":11988:12067   */\n      mstore\n        /* \"#utility.yul\":11832:12073   */\n      pop\n      jump\t// out\n        /* \"#utility.yul\":12079:12612   */\n    tag_55:\n        /* \"#utility.yul\":12298:12301   */\n      0x00\n        /* \"#utility.yul\":12320:12412   */\n      tag_222\n        /* \"#utility.yul\":12408:12411   */\n      dup3\n        /* \"#utility.yul\":12399:12405   */\n      dup5\n        /* \"#utility.yul\":12320:12412   */\n      tag_92\n      jump\t// in\n    tag_222:\n        /* \"#utility.yul\":12313:12412   */\n      swap2\n      pop\n        /* \"#utility.yul\":12422:12559   */\n      tag_223\n        /* \"#utility.yul\":12555:12558   */\n      dup3\n        /* \"#utility.yul\":12422:12559   */\n      tag_93\n      jump\t// in\n    tag_223:\n        /* \"#utility.yul\":12584:12585   */\n      0x05\n        /* \"#utility.yul\":12579:12582   */\n      dup3\n        /* \"#utility.yul\":12575:12586   */\n      add\n        /* \"#utility.yul\":12568:12586   */\n      swap2\n      pop\n        /* \"#utility.yul\":12603:12606   */\n      dup2\n        /* \"#utility.yul\":12596:12606   */\n      swap1\n      pop\n        /* \"#utility.yul\":12079:12612   */\n      swap3\n      swap2\n      pop\n      pop\n      jump\t// out\n\n    auxdata: 0xa2646970667358221220434a87c1623bf6212129fdde93e757771dc85ad4d01ca56c488f3e1b4d9bf10764736f6c634300081e0033\n}\n",
				"bytecode": {
					"linkReferences": {},
					"object": "6080604052348015600e575f5ffd5b50610ad08061001c5f395ff3fe608060405234801561000f575f5ffd5b506004361061003f575f3560e01c806325eb69a914610043578063583dc769146100615780638346cbef1461007d575b5f5ffd5b61004b61009b565b60405161005891906104ef565b60405180910390f35b61007b6004803603810190610076919061064c565b610263565b005b61008561029d565b60405161009291906104ef565b60405180910390f35b6100a3610403565b5f6040518060600160405290815f820180546100be9061071d565b80601f01602080910402602001604051908101604052809291908181526020018280546100ea9061071d565b80156101355780601f1061010c57610100808354040283529160200191610135565b820191905f5260205f20905b81548152906001019060200180831161011857829003601f168201915b5050505050815260200160018201805461014e9061071d565b80601f016020809104026020016040519081016040528092919081815260200182805461017a9061071d565b80156101c55780601f1061019c576101008083540402835291602001916101c5565b820191905f5260205f20905b8154815290600101906020018083116101a857829003601f168201915b505050505081526020016002820180546101de9061071d565b80601f016020809104026020016040519081016040528092919081815260200182805461020a9061071d565b80156102555780601f1061022c57610100808354040283529160200191610255565b820191905f5260205f20905b81548152906001019060200180831161023857829003601f168201915b505050505081525050905090565b825f5f01908161027391906108f6565b50815f600101908161028591906108f6565b50805f600201908161029791906108f6565b50505050565b6102a5610403565b6102ad610403565b5f5f0180546102bb9061071d565b80601f01602080910402602001604051908101604052809291908181526020018280546102e79061071d565b80156103325780601f1061030957610100808354040283529160200191610332565b820191905f5260205f20905b81548152906001019060200180831161031557829003601f168201915b5050505050815f01819052505f600101805461034d9061071d565b80601f01602080910402602001604051908101604052809291908181526020018280546103799061071d565b80156103c45780601f1061039b576101008083540402835291602001916103c4565b820191905f5260205f20905b8154815290600101906020018083116103a757829003601f168201915b505050505081602001819052505f6002016040516020016103e59190610a75565b60405160208183030381529060405281604001819052508091505090565b60405180606001604052806060815260200160608152602001606081525090565b5f81519050919050565b5f82825260208201905092915050565b8281835e5f83830152505050565b5f601f19601f8301169050919050565b5f61046682610424565b610470818561042e565b935061048081856020860161043e565b6104898161044c565b840191505092915050565b5f606083015f8301518482035f8601526104ae828261045c565b915050602083015184820360208601526104c8828261045c565b915050604083015184820360408601526104e2828261045c565b9150508091505092915050565b5f6020820190508181035f8301526105078184610494565b905092915050565b5f604051905090565b5f5ffd5b5f5ffd5b5f5ffd5b5f5ffd5b7f4e487b71000000000000000000000000000000000000000000000000000000005f52604160045260245ffd5b61055e8261044c565b810181811067ffffffffffffffff8211171561057d5761057c610528565b5b80604052505050565b5f61058f61050f565b905061059b8282610555565b919050565b5f67ffffffffffffffff8211156105ba576105b9610528565b5b6105c38261044c565b9050602081019050919050565b828183375f83830152505050565b5f6105f06105eb846105a0565b610586565b90508281526020810184848401111561060c5761060b610524565b5b6106178482856105d0565b509392505050565b5f82601f83011261063357610632610520565b5b81356106438482602086016105de565b91505092915050565b5f5f5f6060848603121561066357610662610518565b5b5f84013567ffffffffffffffff8111156106805761067f61051c565b5b61068c8682870161061f565b935050602084013567ffffffffffffffff8111156106ad576106ac61051c565b5b6106b98682870161061f565b925050604084013567ffffffffffffffff8111156106da576106d961051c565b5b6106e68682870161061f565b9150509250925092565b7f4e487b71000000000000000000000000000000000000000000000000000000005f52602260045260245ffd5b5f600282049050600182168061073457607f821691505b602082108103610747576107466106f0565b5b50919050565b5f819050815f5260205f209050919050565b5f6020601f8301049050919050565b5f82821b905092915050565b5f600883026107a97fffffffffffffffffffffffffffffffffffffffffffffffffffffffffffffffff8261076e565b6107b3868361076e565b95508019841693508086168417925050509392505050565b5f819050919050565b5f819050919050565b5f6107f76107f26107ed846107cb565b6107d4565b6107cb565b9050919050565b5f819050919050565b610810836107dd565b61082461081c826107fe565b84845461077a565b825550505050565b5f5f905090565b61083b61082c565b610846818484610807565b505050565b5b818110156108695761085e5f82610833565b60018101905061084c565b5050565b601f8211156108ae5761087f8161074d565b6108888461075f565b81016020851015610897578190505b6108ab6108a38561075f565b83018261084b565b50505b505050565b5f82821c905092915050565b5f6108ce5f19846008026108b3565b1980831691505092915050565b5f6108e683836108bf565b9150826002028217905092915050565b6108ff82610424565b67ffffffffffffffff81111561091857610917610528565b5b610922825461071d565b61092d82828561086d565b5f60209050601f83116001811461095e575f841561094c578287015190505b61095685826108db565b8655506109bd565b601f19841661096c8661074d565b5f5b828110156109935784890151825560018201915060208501945060208101905061096e565b868310156109b057848901516109ac601f8916826108bf565b8355505b6001600288020188555050505b505050505050565b5f81905092915050565b5f81546109db8161071d565b6109e581866109c5565b9450600182165f81146109ff5760018114610a1457610a46565b60ff1983168652811515820286019350610a46565b610a1d8561074d565b5f5b83811015610a3e57815481890152600182019150602081019050610a1f565b838801955050505b50505092915050565b7f20f09fa4b7000000000000000000000000000000000000000000000000000000815250565b5f610a8082846109cf565b9150610a8b82610a4f565b6005820191508190509291505056fea2646970667358221220434a87c1623bf6212129fdde93e757771dc85ad4d01ca56c488f3e1b4d9bf10764736f6c634300081e0033",
					"opcodes": "PUSH1 0x80 PUSH1 0x40 MSTORE CALLVALUE DUP1 ISZERO PUSH1 0xE JUMPI PUSH0 PUSH0 REVERT JUMPDEST POP PUSH2 0xAD0 DUP1 PUSH2 0x1C PUSH0 CODECOPY PUSH0 RETURN INVALID PUSH1 0x80 PUSH1 0x40 MSTORE CALLVALUE DUP1 ISZERO PUSH2 0xF JUMPI PUSH0 PUSH0 REVERT JUMPDEST POP PUSH1 0x4 CALLDATASIZE LT PUSH2 0x3F JUMPI PUSH0 CALLDATALOAD PUSH1 0xE0 SHR DUP1 PUSH4 0x25EB69A9 EQ PUSH2 0x43 JUMPI DUP1 PUSH4 0x583DC769 EQ PUSH2 0x61 JUMPI DUP1 PUSH4 0x8346CBEF EQ PUSH2 0x7D JUMPI JUMPDEST PUSH0 PUSH0 REVERT JUMPDEST PUSH2 0x4B PUSH2 0x9B JUMP JUMPDEST PUSH1 0x40 MLOAD PUSH2 0x58 SWAP2 SWAP1 PUSH2 0x4EF JUMP JUMPDEST PUSH1 0x40 MLOAD DUP1 SWAP2 SUB SWAP1 RETURN JUMPDEST PUSH2 0x7B PUSH1 0x4 DUP1 CALLDATASIZE SUB DUP2 ADD SWAP1 PUSH2 0x76 SWAP2 SWAP1 PUSH2 0x64C JUMP JUMPDEST PUSH2 0x263 JUMP JUMPDEST STOP JUMPDEST PUSH2 0x85 PUSH2 0x29D JUMP JUMPDEST PUSH1 0x40 MLOAD PUSH2 0x92 SWAP2 SWAP1 PUSH2 0x4EF JUMP JUMPDEST PUSH1 0x40 MLOAD DUP1 SWAP2 SUB SWAP1 RETURN JUMPDEST PUSH2 0xA3 PUSH2 0x403 JUMP JUMPDEST PUSH0 PUSH1 0x40 MLOAD DUP1 PUSH1 0x60 ADD PUSH1 0x40 MSTORE SWAP1 DUP2 PUSH0 DUP3 ADD DUP1 SLOAD PUSH2 0xBE SWAP1 PUSH2 0x71D JUMP JUMPDEST DUP1 PUSH1 0x1F ADD PUSH1 0x20 DUP1 SWAP2 DIV MUL PUSH1 0x20 ADD PUSH1 0x40 MLOAD SWAP1 DUP2 ADD PUSH1 0x40 MSTORE DUP1 SWAP3 SWAP2 SWAP1 DUP2 DUP2 MSTORE PUSH1 0x20 ADD DUP3 DUP1 SLOAD PUSH2 0xEA SWAP1 PUSH2 0x71D JUMP JUMPDEST DUP1 ISZERO PUSH2 0x135 JUMPI DUP1 PUSH1 0x1F LT PUSH2 0x10C JUMPI PUSH2 0x100 DUP1 DUP4 SLOAD DIV MUL DUP4 MSTORE SWAP2 PUSH1 0x20 ADD SWAP2 PUSH2 0x135 JUMP JUMPDEST DUP3 ADD SWAP2 SWAP1 PUSH0 MSTORE PUSH1 0x20 PUSH0 KECCAK256 SWAP1 JUMPDEST DUP2 SLOAD DUP2 MSTORE SWAP1 PUSH1 0x1 ADD SWAP1 PUSH1 0x20 ADD DUP1 DUP4 GT PUSH2 0x118 JUMPI DUP3 SWAP1 SUB PUSH1 0x1F AND DUP3 ADD SWAP2 JUMPDEST POP POP POP POP POP DUP2 MSTORE PUSH1 0x20 ADD PUSH1 0x1 DUP3 ADD DUP1 SLOAD PUSH2 0x14E SWAP1 PUSH2 0x71D JUMP JUMPDEST DUP1 PUSH1 0x1F ADD PUSH1 0x20 DUP1 SWAP2 DIV MUL PUSH1 0x20 ADD PUSH1 0x40 MLOAD SWAP1 DUP2 ADD PUSH1 0x40 MSTORE DUP1 SWAP3 SWAP2 SWAP1 DUP2 DUP2 MSTORE PUSH1 0x20 ADD DUP3 DUP1 SLOAD PUSH2 0x17A SWAP1 PUSH2 0x71D JUMP JUMPDEST DUP1 ISZERO PUSH2 0x1C5 JUMPI DUP1 PUSH1 0x1F LT PUSH2 0x19C JUMPI PUSH2 0x100 DUP1 DUP4 SLOAD DIV MUL DUP4 MSTORE SWAP2 PUSH1 0x20 ADD SWAP2 PUSH2 0x1C5 JUMP JUMPDEST DUP3 ADD SWAP2 SWAP1 PUSH0 MSTORE PUSH1 0x20 PUSH0 KECCAK256 SWAP1 JUMPDEST DUP2 SLOAD DUP2 MSTORE SWAP1 PUSH1 0x1 ADD SWAP1 PUSH1 0x20 ADD DUP1 DUP4 GT PUSH2 0x1A8 JUMPI DUP3 SWAP1 SUB PUSH1 0x1F AND DUP3 ADD SWAP2 JUMPDEST POP POP POP POP POP DUP2 MSTORE PUSH1 0x20 ADD PUSH1 0x2 DUP3 ADD DUP1 SLOAD PUSH2 0x1DE SWAP1 PUSH2 0x71D JUMP JUMPDEST DUP1 PUSH1 0x1F ADD PUSH1 0x20 DUP1 SWAP2 DIV MUL PUSH1 0x20 ADD PUSH1 0x40 MLOAD SWAP1 DUP2 ADD PUSH1 0x40 MSTORE DUP1 SWAP3 SWAP2 SWAP1 DUP2 DUP2 MSTORE PUSH1 0x20 ADD DUP3 DUP1 SLOAD PUSH2 0x20A SWAP1 PUSH2 0x71D JUMP JUMPDEST DUP1 ISZERO PUSH2 0x255 JUMPI DUP1 PUSH1 0x1F LT PUSH2 0x22C JUMPI PUSH2 0x100 DUP1 DUP4 SLOAD DIV MUL DUP4 MSTORE SWAP2 PUSH1 0x20 ADD SWAP2 PUSH2 0x255 JUMP JUMPDEST DUP3 ADD SWAP2 SWAP1 PUSH0 MSTORE PUSH1 0x20 PUSH0 KECCAK256 SWAP1 JUMPDEST DUP2 SLOAD DUP2 MSTORE SWAP1 PUSH1 0x1 ADD SWAP1 PUSH1 0x20 ADD DUP1 DUP4 GT PUSH2 0x238 JUMPI DUP3 SWAP1 SUB PUSH1 0x1F AND DUP3 ADD SWAP2 JUMPDEST POP POP POP POP POP DUP2 MSTORE POP POP SWAP1 POP SWAP1 JUMP JUMPDEST DUP3 PUSH0 PUSH0 ADD SWAP1 DUP2 PUSH2 0x273 SWAP2 SWAP1 PUSH2 0x8F6 JUMP JUMPDEST POP DUP2 PUSH0 PUSH1 0x1 ADD SWAP1 DUP2 PUSH2 0x285 SWAP2 SWAP1 PUSH2 0x8F6 JUMP JUMPDEST POP DUP1 PUSH0 PUSH1 0x2 ADD SWAP1 DUP2 PUSH2 0x297 SWAP2 SWAP1 PUSH2 0x8F6 JUMP JUMPDEST POP POP POP POP JUMP JUMPDEST PUSH2 0x2A5 PUSH2 0x403 JUMP JUMPDEST PUSH2 0x2AD PUSH2 0x403 JUMP JUMPDEST PUSH0 PUSH0 ADD DUP1 SLOAD PUSH2 0x2BB SWAP1 PUSH2 0x71D JUMP JUMPDEST DUP1 PUSH1 0x1F ADD PUSH1 0x20 DUP1 SWAP2 DIV MUL PUSH1 0x20 ADD PUSH1 0x40 MLOAD SWAP1 DUP2 ADD PUSH1 0x40 MSTORE DUP1 SWAP3 SWAP2 SWAP1 DUP2 DUP2 MSTORE PUSH1 0x20 ADD DUP3 DUP1 SLOAD PUSH2 0x2E7 SWAP1 PUSH2 0x71D JUMP JUMPDEST DUP1 ISZERO PUSH2 0x332 JUMPI DUP1 PUSH1 0x1F LT PUSH2 0x309 JUMPI PUSH2 0x100 DUP1 DUP4 SLOAD DIV MUL DUP4 MSTORE SWAP2 PUSH1 0x20 ADD SWAP2 PUSH2 0x332 JUMP JUMPDEST DUP3 ADD SWAP2 SWAP1 PUSH0 MSTORE PUSH1 0x20 PUSH0 KECCAK256 SWAP1 JUMPDEST DUP2 SLOAD DUP2 MSTORE SWAP1 PUSH1 0x1 ADD SWAP1 PUSH1 0x20 ADD DUP1 DUP4 GT PUSH2 0x315 JUMPI DUP3 SWAP1 SUB PUSH1 0x1F AND DUP3 ADD SWAP2 JUMPDEST POP POP POP POP POP DUP2 PUSH0 ADD DUP2 SWAP1 MSTORE POP PUSH0 PUSH1 0x1 ADD DUP1 SLOAD PUSH2 0x34D SWAP1 PUSH2 0x71D JUMP JUMPDEST DUP1 PUSH1 0x1F ADD PUSH1 0x20 DUP1 SWAP2 DIV MUL PUSH1 0x20 ADD PUSH1 0x40 MLOAD SWAP1 DUP2 ADD PUSH1 0x40 MSTORE DUP1 SWAP3 SWAP2 SWAP1 DUP2 DUP2 MSTORE PUSH1 0x20 ADD DUP3 DUP1 SLOAD PUSH2 0x379 SWAP1 PUSH2 0x71D JUMP JUMPDEST DUP1 ISZERO PUSH2 0x3C4 JUMPI DUP1 PUSH1 0x1F LT PUSH2 0x39B JUMPI PUSH2 0x100 DUP1 DUP4 SLOAD DIV MUL DUP4 MSTORE SWAP2 PUSH1 0x20 ADD SWAP2 PUSH2 0x3C4 JUMP JUMPDEST DUP3 ADD SWAP2 SWAP1 PUSH0 MSTORE PUSH1 0x20 PUSH0 KECCAK256 SWAP1 JUMPDEST DUP2 SLOAD DUP2 MSTORE SWAP1 PUSH1 0x1 ADD SWAP1 PUSH1 0x20 ADD DUP1 DUP4 GT PUSH2 0x3A7 JUMPI DUP3 SWAP1 SUB PUSH1 0x1F AND DUP3 ADD SWAP2 JUMPDEST POP POP POP POP POP DUP2 PUSH1 0x20 ADD DUP2 SWAP1 MSTORE POP PUSH0 PUSH1 0x2 ADD PUSH1 0x40 MLOAD PUSH1 0x20 ADD PUSH2 0x3E5 SWAP2 SWAP1 PUSH2 0xA75 JUMP JUMPDEST PUSH1 0x40 MLOAD PUSH1 0x20 DUP2 DUP4 SUB SUB DUP2 MSTORE SWAP1 PUSH1 0x40 MSTORE DUP2 PUSH1 0x40 ADD DUP2 SWAP1 MSTORE POP DUP1 SWAP2 POP POP SWAP1 JUMP JUMPDEST PUSH1 0x40 MLOAD DUP1 PUSH1 0x60 ADD PUSH1 0x40 MSTORE DUP1 PUSH1 0x60 DUP2 MSTORE PUSH1 0x20 ADD PUSH1 0x60 DUP2 MSTORE PUSH1 0x20 ADD PUSH1 0x60 DUP2 MSTORE POP SWAP1 JUMP JUMPDEST PUSH0 DUP2 MLOAD SWAP1 POP SWAP2 SWAP1 POP JUMP JUMPDEST PUSH0 DUP3 DUP3 MSTORE PUSH1 0x20 DUP3 ADD SWAP1 POP SWAP3 SWAP2 POP POP JUMP JUMPDEST DUP3 DUP2 DUP4 MCOPY PUSH0 DUP4 DUP4 ADD MSTORE POP POP POP JUMP JUMPDEST PUSH0 PUSH1 0x1F NOT PUSH1 0x1F DUP4 ADD AND SWAP1 POP SWAP2 SWAP1 POP JUMP JUMPDEST PUSH0 PUSH2 0x466 DUP3 PUSH2 0x424 JUMP JUMPDEST PUSH2 0x470 DUP2 DUP6 PUSH2 0x42E JUMP JUMPDEST SWAP4 POP PUSH2 0x480 DUP2 DUP6 PUSH1 0x20 DUP7 ADD PUSH2 0x43E JUMP JUMPDEST PUSH2 0x489 DUP2 PUSH2 0x44C JUMP JUMPDEST DUP5 ADD SWAP2 POP POP SWAP3 SWAP2 POP POP JUMP JUMPDEST PUSH0 PUSH1 0x60 DUP4 ADD PUSH0 DUP4 ADD MLOAD DUP5 DUP3 SUB PUSH0 DUP7 ADD MSTORE PUSH2 0x4AE DUP3 DUP3 PUSH2 0x45C JUMP JUMPDEST SWAP2 POP POP PUSH1 0x20 DUP4 ADD MLOAD DUP5 DUP3 SUB PUSH1 0x20 DUP7 ADD MSTORE PUSH2 0x4C8 DUP3 DUP3 PUSH2 0x45C JUMP JUMPDEST SWAP2 POP POP PUSH1 0x40 DUP4 ADD MLOAD DUP5 DUP3 SUB PUSH1 0x40 DUP7 ADD MSTORE PUSH2 0x4E2 DUP3 DUP3 PUSH2 0x45C JUMP JUMPDEST SWAP2 POP POP DUP1 SWAP2 POP POP SWAP3 SWAP2 POP POP JUMP JUMPDEST PUSH0 PUSH1 0x20 DUP3 ADD SWAP1 POP DUP2 DUP2 SUB PUSH0 DUP4 ADD MSTORE PUSH2 0x507 DUP2 DUP5 PUSH2 0x494 JUMP JUMPDEST SWAP1 POP SWAP3 SWAP2 POP POP JUMP JUMPDEST PUSH0 PUSH1 0x40 MLOAD SWAP1 POP SWAP1 JUMP JUMPDEST PUSH0 PUSH0 REVERT JUMPDEST PUSH0 PUSH0 REVERT JUMPDEST PUSH0 PUSH0 REVERT JUMPDEST PUSH0 PUSH0 REVERT JUMPDEST PUSH32 0x4E487B7100000000000000000000000000000000000000000000000000000000 PUSH0 MSTORE PUSH1 0x41 PUSH1 0x4 MSTORE PUSH1 0x24 PUSH0 REVERT JUMPDEST PUSH2 0x55E DUP3 PUSH2 0x44C JUMP JUMPDEST DUP2 ADD DUP2 DUP2 LT PUSH8 0xFFFFFFFFFFFFFFFF DUP3 GT OR ISZERO PUSH2 0x57D JUMPI PUSH2 0x57C PUSH2 0x528 JUMP JUMPDEST JUMPDEST DUP1 PUSH1 0x40 MSTORE POP POP POP JUMP JUMPDEST PUSH0 PUSH2 0x58F PUSH2 0x50F JUMP JUMPDEST SWAP1 POP PUSH2 0x59B DUP3 DUP3 PUSH2 0x555 JUMP JUMPDEST SWAP2 SWAP1 POP JUMP JUMPDEST PUSH0 PUSH8 0xFFFFFFFFFFFFFFFF DUP3 GT ISZERO PUSH2 0x5BA JUMPI PUSH2 0x5B9 PUSH2 0x528 JUMP JUMPDEST JUMPDEST PUSH2 0x5C3 DUP3 PUSH2 0x44C JUMP JUMPDEST SWAP1 POP PUSH1 0x20 DUP2 ADD SWAP1 POP SWAP2 SWAP1 POP JUMP JUMPDEST DUP3 DUP2 DUP4 CALLDATACOPY PUSH0 DUP4 DUP4 ADD MSTORE POP POP POP JUMP JUMPDEST PUSH0 PUSH2 0x5F0 PUSH2 0x5EB DUP5 PUSH2 0x5A0 JUMP JUMPDEST PUSH2 0x586 JUMP JUMPDEST SWAP1 POP DUP3 DUP2 MSTORE PUSH1 0x20 DUP2 ADD DUP5 DUP5 DUP5 ADD GT ISZERO PUSH2 0x60C JUMPI PUSH2 0x60B PUSH2 0x524 JUMP JUMPDEST JUMPDEST PUSH2 0x617 DUP5 DUP3 DUP6 PUSH2 0x5D0 JUMP JUMPDEST POP SWAP4 SWAP3 POP POP POP JUMP JUMPDEST PUSH0 DUP3 PUSH1 0x1F DUP4 ADD SLT PUSH2 0x633 JUMPI PUSH2 0x632 PUSH2 0x520 JUMP JUMPDEST JUMPDEST DUP2 CALLDATALOAD PUSH2 0x643 DUP5 DUP3 PUSH1 0x20 DUP7 ADD PUSH2 0x5DE JUMP JUMPDEST SWAP2 POP POP SWAP3 SWAP2 POP POP JUMP JUMPDEST PUSH0 PUSH0 PUSH0 PUSH1 0x60 DUP5 DUP7 SUB SLT ISZERO PUSH2 0x663 JUMPI PUSH2 0x662 PUSH2 0x518 JUMP JUMPDEST JUMPDEST PUSH0 DUP5 ADD CALLDATALOAD PUSH8 0xFFFFFFFFFFFFFFFF DUP2 GT ISZERO PUSH2 0x680 JUMPI PUSH2 0x67F PUSH2 0x51C JUMP JUMPDEST JUMPDEST PUSH2 0x68C DUP7 DUP3 DUP8 ADD PUSH2 0x61F JUMP JUMPDEST SWAP4 POP POP PUSH1 0x20 DUP5 ADD CALLDATALOAD PUSH8 0xFFFFFFFFFFFFFFFF DUP2 GT ISZERO PUSH2 0x6AD JUMPI PUSH2 0x6AC PUSH2 0x51C JUMP JUMPDEST JUMPDEST PUSH2 0x6B9 DUP7 DUP3 DUP8 ADD PUSH2 0x61F JUMP JUMPDEST SWAP3 POP POP PUSH1 0x40 DUP5 ADD CALLDATALOAD PUSH8 0xFFFFFFFFFFFFFFFF DUP2 GT ISZERO PUSH2 0x6DA JUMPI PUSH2 0x6D9 PUSH2 0x51C JUMP JUMPDEST JUMPDEST PUSH2 0x6E6 DUP7 DUP3 DUP8 ADD PUSH2 0x61F JUMP JUMPDEST SWAP2 POP POP SWAP3 POP SWAP3 POP SWAP3 JUMP JUMPDEST PUSH32 0x4E487B7100000000000000000000000000000000000000000000000000000000 PUSH0 MSTORE PUSH1 0x22 PUSH1 0x4 MSTORE PUSH1 0x24 PUSH0 REVERT JUMPDEST PUSH0 PUSH1 0x2 DUP3 DIV SWAP1 POP PUSH1 0x1 DUP3 AND DUP1 PUSH2 0x734 JUMPI PUSH1 0x7F DUP3 AND SWAP2 POP JUMPDEST PUSH1 0x20 DUP3 LT DUP2 SUB PUSH2 0x747 JUMPI PUSH2 0x746 PUSH2 0x6F0 JUMP JUMPDEST JUMPDEST POP SWAP2 SWAP1 POP JUMP JUMPDEST PUSH0 DUP2 SWAP1 POP DUP2 PUSH0 MSTORE PUSH1 0x20 PUSH0 KECCAK256 SWAP1 POP SWAP2 SWAP1 POP JUMP JUMPDEST PUSH0 PUSH1 0x20 PUSH1 0x1F DUP4 ADD DIV SWAP1 POP SWAP2 SWAP1 POP JUMP JUMPDEST PUSH0 DUP3 DUP3 SHL SWAP1 POP SWAP3 SWAP2 POP POP JUMP JUMPDEST PUSH0 PUSH1 0x8 DUP4 MUL PUSH2 0x7A9 PUSH32 0xFFFFFFFFFFFFFFFFFFFFFFFFFFFFFFFFFFFFFFFFFFFFFFFFFFFFFFFFFFFFFFFF DUP3 PUSH2 0x76E JUMP JUMPDEST PUSH2 0x7B3 DUP7 DUP4 PUSH2 0x76E JUMP JUMPDEST SWAP6 POP DUP1 NOT DUP5 AND SWAP4 POP DUP1 DUP7 AND DUP5 OR SWAP3 POP POP POP SWAP4 SWAP3 POP POP POP JUMP JUMPDEST PUSH0 DUP2 SWAP1 POP SWAP2 SWAP1 POP JUMP JUMPDEST PUSH0 DUP2 SWAP1 POP SWAP2 SWAP1 POP JUMP JUMPDEST PUSH0 PUSH2 0x7F7 PUSH2 0x7F2 PUSH2 0x7ED DUP5 PUSH2 0x7CB JUMP JUMPDEST PUSH2 0x7D4 JUMP JUMPDEST PUSH2 0x7CB JUMP JUMPDEST SWAP1 POP SWAP2 SWAP1 POP JUMP JUMPDEST PUSH0 DUP2 SWAP1 POP SWAP2 SWAP1 POP JUMP JUMPDEST PUSH2 0x810 DUP4 PUSH2 0x7DD JUMP JUMPDEST PUSH2 0x824 PUSH2 0x81C DUP3 PUSH2 0x7FE JUMP JUMPDEST DUP5 DUP5 SLOAD PUSH2 0x77A JUMP JUMPDEST DUP3 SSTORE POP POP POP POP JUMP JUMPDEST PUSH0 PUSH0 SWAP1 POP SWAP1 JUMP JUMPDEST PUSH2 0x83B PUSH2 0x82C JUMP JUMPDEST PUSH2 0x846 DUP2 DUP5 DUP5 PUSH2 0x807 JUMP JUMPDEST POP POP POP JUMP JUMPDEST JUMPDEST DUP2 DUP2 LT ISZERO PUSH2 0x869 JUMPI PUSH2 0x85E PUSH0 DUP3 PUSH2 0x833 JUMP JUMPDEST PUSH1 0x1 DUP2 ADD SWAP1 POP PUSH2 0x84C JUMP JUMPDEST POP POP JUMP JUMPDEST PUSH1 0x1F DUP3 GT ISZERO PUSH2 0x8AE JUMPI PUSH2 0x87F DUP2 PUSH2 0x74D JUMP JUMPDEST PUSH2 0x888 DUP5 PUSH2 0x75F JUMP JUMPDEST DUP2 ADD PUSH1 0x20 DUP6 LT ISZERO PUSH2 0x897 JUMPI DUP2 SWAP1 POP JUMPDEST PUSH2 0x8AB PUSH2 0x8A3 DUP6 PUSH2 0x75F JUMP JUMPDEST DUP4 ADD DUP3 PUSH2 0x84B JUMP JUMPDEST POP POP JUMPDEST POP POP POP JUMP JUMPDEST PUSH0 DUP3 DUP3 SHR SWAP1 POP SWAP3 SWAP2 POP POP JUMP JUMPDEST PUSH0 PUSH2 0x8CE PUSH0 NOT DUP5 PUSH1 0x8 MUL PUSH2 0x8B3 JUMP JUMPDEST NOT DUP1 DUP4 AND SWAP2 POP POP SWAP3 SWAP2 POP POP JUMP JUMPDEST PUSH0 PUSH2 0x8E6 DUP4 DUP4 PUSH2 0x8BF JUMP JUMPDEST SWAP2 POP DUP3 PUSH1 0x2 MUL DUP3 OR SWAP1 POP SWAP3 SWAP2 POP POP JUMP JUMPDEST PUSH2 0x8FF DUP3 PUSH2 0x424 JUMP JUMPDEST PUSH8 0xFFFFFFFFFFFFFFFF DUP2 GT ISZERO PUSH2 0x918 JUMPI PUSH2 0x917 PUSH2 0x528 JUMP JUMPDEST JUMPDEST PUSH2 0x922 DUP3 SLOAD PUSH2 0x71D JUMP JUMPDEST PUSH2 0x92D DUP3 DUP3 DUP6 PUSH2 0x86D JUMP JUMPDEST PUSH0 PUSH1 0x20 SWAP1 POP PUSH1 0x1F DUP4 GT PUSH1 0x1 DUP2 EQ PUSH2 0x95E JUMPI PUSH0 DUP5 ISZERO PUSH2 0x94C JUMPI DUP3 DUP8 ADD MLOAD SWAP1 POP JUMPDEST PUSH2 0x956 DUP6 DUP3 PUSH2 0x8DB JUMP JUMPDEST DUP7 SSTORE POP PUSH2 0x9BD JUMP JUMPDEST PUSH1 0x1F NOT DUP5 AND PUSH2 0x96C DUP7 PUSH2 0x74D JUMP JUMPDEST PUSH0 JUMPDEST DUP3 DUP2 LT ISZERO PUSH2 0x993 JUMPI DUP5 DUP10 ADD MLOAD DUP3 SSTORE PUSH1 0x1 DUP3 ADD SWAP2 POP PUSH1 0x20 DUP6 ADD SWAP5 POP PUSH1 0x20 DUP2 ADD SWAP1 POP PUSH2 0x96E JUMP JUMPDEST DUP7 DUP4 LT ISZERO PUSH2 0x9B0 JUMPI DUP5 DUP10 ADD MLOAD PUSH2 0x9AC PUSH1 0x1F DUP10 AND DUP3 PUSH2 0x8BF JUMP JUMPDEST DUP4 SSTORE POP JUMPDEST PUSH1 0x1 PUSH1 0x2 DUP9 MUL ADD DUP9 SSTORE POP POP POP JUMPDEST POP POP POP POP POP POP JUMP JUMPDEST PUSH0 DUP2 SWAP1 POP SWAP3 SWAP2 POP POP JUMP JUMPDEST PUSH0 DUP2 SLOAD PUSH2 0x9DB DUP2 PUSH2 0x71D JUMP JUMPDEST PUSH2 0x9E5 DUP2 DUP7 PUSH2 0x9C5 JUMP JUMPDEST SWAP5 POP PUSH1 0x1 DUP3 AND PUSH0 DUP2 EQ PUSH2 0x9FF JUMPI PUSH1 0x1 DUP2 EQ PUSH2 0xA14 JUMPI PUSH2 0xA46 JUMP JUMPDEST PUSH1 0xFF NOT DUP4 AND DUP7 MSTORE DUP2 ISZERO ISZERO DUP3 MUL DUP7 ADD SWAP4 POP PUSH2 0xA46 JUMP JUMPDEST PUSH2 0xA1D DUP6 PUSH2 0x74D JUMP JUMPDEST PUSH0 JUMPDEST DUP4 DUP2 LT ISZERO PUSH2 0xA3E JUMPI DUP2 SLOAD DUP2 DUP10 ADD MSTORE PUSH1 0x1 DUP3 ADD SWAP2 POP PUSH1 0x20 DUP2 ADD SWAP1 POP PUSH2 0xA1F JUMP JUMPDEST DUP4 DUP9 ADD SWAP6 POP POP POP JUMPDEST POP POP POP SWAP3 SWAP2 POP POP JUMP JUMPDEST PUSH32 0x20F09FA4B7000000000000000000000000000000000000000000000000000000 DUP2 MSTORE POP JUMP JUMPDEST PUSH0 PUSH2 0xA80 DUP3 DUP5 PUSH2 0x9CF JUMP JUMPDEST SWAP2 POP PUSH2 0xA8B DUP3 PUSH2 0xA4F JUMP JUMPDEST PUSH1 0x5 DUP3 ADD SWAP2 POP DUP2 SWAP1 POP SWAP3 SWAP2 POP POP JUMP INVALID LOG2 PUSH5 0x6970667358 0x22 SLT KECCAK256 NUMBER BLOBBASEFEE DUP8 0xC1 PUSH3 0x3BF621 0x21 0x29 REVERT 0xDE SWAP4 SWAPN 0x57 PUSH24 0x1DC85AD4D01CA56C488F3E1B4D9BF10764736F6C63430008 0x1E STOP CALLER "
				},
				"gasEstimates": {
					"creation": {
						"codeDepositCost": "553600",
						"executionCost": "585",
						"totalCost": "554185"
					},
					"external": {
						"getHaiku()": "infinite",
						"saveHaiku(string,string,string)": "infinite",
						"shruggieHaiku()": "infinite"
					}
				},
				"methodIdentifiers": {
					"getHaiku()": "25eb69a9",
					"saveHaiku(string,string,string)": "583dc769",
					"shruggieHaiku()": "8346cbef"
				}
			},
			"storageLayout": {
				"storage": [
					{
						"astId": 35,
						"contract": "Role4/ImportsPin.sol:Submission",
						"label": "storedHaiku",
						"offset": 0,
						"slot": "0",
						"type": "t_struct(Haiku)8_storage"
					}
				],
				"types": {
					"t_string_storage": {
						"encoding": "bytes",
						"label": "string",
						"numberOfBytes": "32"
					},
					"t_struct(Haiku)8_storage": {
						"encoding": "inplace",
						"label": "struct ISubmission.Haiku",
						"members": [
							{
								"astId": 3,
								"contract": "Role4/ImportsPin.sol:Submission",
								"label": "line1",
								"offset": 0,
								"slot": "0",
								"type": "t_string_storage"
							},
							{
								"astId": 5,
								"contract": "Role4/ImportsPin.sol:Submission",
								"label": "line2",
								"offset": 0,
								"slot": "1",
								"type": "t_string_storage"
							},
							{
								"astId": 7,
								"contract": "Role4/ImportsPin.sol:Submission",
								"label": "line3",
								"offset": 0,
								"slot": "2",
								"type": "t_string_storage"
							}
						],
						"numberOfBytes": "96"
					}
				}
			},
			"userdoc": {
				"kind": "user",
				"methods": {},
				"version": 1
			}
		}
	}
}