{
	"Struc.sol": {
		"Submission": {
			"abi": [
				{
					"inputs": [
						{
							"internalType": "string",
							"name": "_make",
							"type": "string"
						},
						{
							"internalType": "string",
							"name": "_model",
							"type": "string"
						},
						{
							"internalType": "string",
							"name": "_color",
							"type": "string"
						},
						{
							"internalType": "uint256",
							"name": "_numberOfDoors",
							"type": "uint256"
						}
					],
					"name": "addCar",
					"outputs": [],
					"stateMutability": "nonpayable",
					"type": "function"
				},
				{
					"inputs": [],
					"name": "getMyCars",
					"outputs": [
						{
							"components": [
								{
									"internalType": "string",
									"name": "make",
									"type": "string"
								},
								{
									"internalType": "string",
									"name": "model",
									"type": "string"
								},
								{
									"internalType": "string",
									"name": "color",
									"type": "string"
								},
								{
									"internalType": "uint256",
									"name": "numberOfDoors",
									"type": "uint256"
								}
							],
							"internalType": "struct ISubmission.Car[]",
							"name": "",
							"type": "tuple[]"
						}
					],
					"stateMutability": "view",
					"type": "function"
				},
				{
					"inputs": [
						{
							"internalType": "address",
							"name": "_user",
							"type": "address"
						}
					],
					"name": "getUserCars",
					"outputs": [
						{
							"components": [
								{
									"internalType": "string",
									"name": "make",
									"type": "string"
								},
								{
									"internalType": "string",
									"name": "model",
									"type": "string"
								},
								{
									"internalType": "string",
									"name": "color",
									"type": "string"
								},
								{
									"internalType": "uint256",
									"name": "numberOfDoors",
									"type": "uint256"
								}
							],
							"internalType": "struct ISubmission.Car[]",
							"name": "",
							"type": "tuple[]"
						}
					],
					"stateMutability": "view",
					"type": "function"
				},
				{
					"inputs": [],
					"name": "resetMyGarage",
					"outputs": [],
					"stateMutability": "nonpayable",
					"type": "function"
				},
				{
					"inputs": [
						{
							"internalType": "uint256",
							"name": "_index",
							"type": "uint256"
						},
						{
							"internalType": "string",
							"name": "_make",
							"type": "string"
						},
						{
							"internalType": "string",
							"name": "_model",
							"type": "string"
						},
						{
							"internalType": "string",
							"name": "_color",
							"type": "string"
						},
						{
							"internalType": "uint256",
							"name": "_numberOfDoors",
							"type": "uint256"
						}
					],
					"name": "updateCar",
					"outputs": [],
					"stateMutability": "nonpayable",
					"type": "function"
				}
			],
			"devdoc": {
				"kind": "dev",
				"methods": {},
				"version": 1
			},
			"evm": {
				"assembly": "    /* \"Struc.sol\":737:1978  contract Submission is ISubmission {... */\n  mstore(0x40, 0x80)\n  callvalue\n  dup1\n  iszero\n  tag_1\n  jumpi\n  0x00\n  dup1\n  revert\ntag_1:\n  pop\n  dataSize(sub_0)\n  dup1\n  dataOffset(sub_0)\n  0x00\n  codecopy\n  0x00\n  return\nstop\n\nsub_0: assembly {\n        /* \"Struc.sol\":737:1978  contract Submission is ISubmission {... */\n      mstore(0x40, 0x80)\n      callvalue\n      dup1\n      iszero\n      tag_1\n      jumpi\n      0x00\n      dup1\n      revert\n    tag_1:\n      pop\n      jumpi(tag_2, lt(calldatasize, 0x04))\n      shr(0xe0, calldataload(0x00))\n      dup1\n      0x2698286c\n      eq\n      tag_3\n      jumpi\n      dup1\n      0x341fa05d\n      eq\n      tag_4\n      jumpi\n      dup1\n      0x4cd1ed3d\n      eq\n      tag_5\n      jumpi\n      dup1\n      0x6dcb7896\n      eq\n      tag_6\n      jumpi\n      dup1\n      0xd2d50bd8\n      eq\n      tag_7\n      jumpi\n    tag_2:\n      0x00\n      dup1\n      revert\n        /* \"Struc.sol\":1634:1768  function getUserCars(... */\n    tag_3:\n      tag_8\n      0x04\n      dup1\n      calldatasize\n      sub\n      dup2\n      add\n      swap1\n      tag_9\n      swap2\n      swap1\n      tag_10\n      jump\t// in\n    tag_9:\n      tag_11\n      jump\t// in\n    tag_8:\n      mload(0x40)\n      tag_12\n      swap2\n      swap1\n      tag_13\n      jump\t// in\n    tag_12:\n      mload(0x40)\n      dup1\n      swap2\n      sub\n      swap1\n      return\n        /* \"Struc.sol\":1774:1884  function getMyCars() external view override returns (Car[] memory) {... */\n    tag_4:\n      tag_14\n      tag_15\n      jump\t// in\n    tag_14:\n      mload(0x40)\n      tag_16\n      swap2\n      swap1\n      tag_13\n      jump\t// in\n    tag_16:\n      mload(0x40)\n      dup1\n      swap2\n      sub\n      swap1\n      return\n        /* \"Struc.sol\":1212:1628  function updateCar(... */\n    tag_5:\n      tag_17\n      0x04\n      dup1\n      calldatasize\n      sub\n      dup2\n      add\n      swap1\n      tag_18\n      swap2\n      swap1\n      tag_19\n      jump\t// in\n    tag_18:\n      tag_20\n      jump\t// in\n    tag_17:\n      stop\n        /* \"Struc.sol\":1890:1976  function resetMyGarage() external override {... */\n    tag_6:\n      tag_21\n      tag_22\n      jump\t// in\n    tag_21:\n      stop\n        /* \"Struc.sol\":826:1206  function addCar(... */\n    tag_7:\n      tag_23\n      0x04\n      dup1\n      calldatasize\n      sub\n      dup2\n      add\n      swap1\n      tag_24\n      swap2\n      swap1\n      tag_25\n      jump\t// in\n    tag_24:\n      tag_26\n      jump\t// in\n    tag_23:\n      stop\n        /* \"Struc.sol\":1634:1768  function getUserCars(... */\n    tag_11:\n        /* \"Struc.sol\":1716:1728  Car[] memory */\n      0x60\n        /* \"Struc.sol\":1747:1754  garages */\n      0x00\n        /* \"Struc.sol\":1747:1761  garages[_user] */\n      dup1\n        /* \"Struc.sol\":1755:1760  _user */\n      dup4\n        /* \"Struc.sol\":1747:1761  garages[_user] */\n      0xffffffffffffffffffffffffffffffffffffffff\n      and\n      0xffffffffffffffffffffffffffffffffffffffff\n      and\n      dup2\n      mstore\n      0x20\n      add\n      swap1\n      dup2\n      mstore\n      0x20\n      add\n      0x00\n      keccak256\n        /* \"Struc.sol\":1740:1761  return garages[_user] */\n      dup1\n      sload\n      dup1\n      0x20\n      mul\n      0x20\n      add\n      mload(0x40)\n      swap1\n      dup2\n      add\n      0x40\n      mstore\n      dup1\n      swap3\n      swap2\n      swap1\n      dup2\n      dup2\n      mstore\n      0x20\n      add\n      0x00\n      swap1\n    tag_28:\n      dup3\n      dup3\n      lt\n      iszero\n      tag_29\n      jumpi\n      dup4\n      dup3\n      swap1\n      0x00\n      mstore\n      keccak256(0x00, 0x20)\n      swap1\n      0x04\n      mul\n      add\n      mload(0x40)\n      dup1\n      0x80\n      add\n      0x40\n      mstore\n      swap1\n      dup2\n      0x00\n      dup3\n      add\n      dup1\n      sload\n      tag_31\n      swap1\n      tag_32\n      jump\t// in\n    tag_31:\n      dup1\n      0x1f\n      add\n      0x20\n      dup1\n      swap2\n      div\n      mul\n      0x20\n      add\n      mload(0x40)\n      swap1\n      dup2\n      add\n      0x40\n      mstore\n      dup1\n      swap3\n      swap2\n      swap1\n      dup2\n      dup2\n      mstore\n      0x20\n      add\n      dup3\n      dup1\n      sload\n      tag_33\n      swap1\n      tag_32\n      jump\t// in\n    tag_33:\n      dup1\n      iszero\n      tag_34\n      jumpi\n      dup1\n      0x1f\n      lt\n      tag_35\n      jumpi\n      0x0100\n      dup1\n      dup4\n      sload\n      div\n      mul\n      dup4\n      mstore\n      swap2\n      0x20\n      add\n      swap2\n      jump(tag_34)\n    tag_35:\n      dup3\n      add\n      swap2\n      swap1\n      0x00\n      mstore\n      keccak256(0x00, 0x20)\n      swap1\n    tag_36:\n      dup2\n      sload\n      dup2\n      mstore\n      swap1\n      0x01\n      add\n      swap1\n      0x20\n      add\n      dup1\n      dup4\n      gt\n      tag_36\n      jumpi\n      dup3\n      swap1\n      sub\n      0x1f\n      and\n      dup3\n      add\n      swap2\n    tag_34:\n      pop\n      pop\n      pop\n      pop\n      pop\n      dup2\n      mstore\n      0x20\n      add\n      0x01\n      dup3\n      add\n      dup1\n      sload\n      tag_37\n      swap1\n      tag_32\n      jump\t// in\n    tag_37:\n      dup1\n      0x1f\n      add\n      0x20\n      dup1\n      swap2\n      div\n      mul\n      0x20\n      add\n      mload(0x40)\n      swap1\n      dup2\n      add\n      0x40\n      mstore\n      dup1\n      swap3\n      swap2\n      swap1\n      dup2\n      dup2\n      mstore\n      0x20\n      add\n      dup3\n      dup1\n      sload\n      tag_38\n      swap1\n      tag_32\n      jump\t// in\n    tag_38:\n      dup1\n      iszero\n      tag_39\n      jumpi\n      dup1\n      0x1f\n      lt\n      tag_40\n      jumpi\n      0x0100\n      dup1\n      dup4\n      sload\n      div\n      mul\n      dup4\n      mstore\n      swap2\n      0x20\n      add\n      swap2\n      jump(tag_39)\n    tag_40:\n      dup3\n      add\n      swap2\n      swap1\n      0x00\n      mstore\n      keccak256(0x00, 0x20)\n      swap1\n    tag_41:\n      dup2\n      sload\n      dup2\n      mstore\n      swap1\n      0x01\n      add\n      swap1\n      0x20\n      add\n      dup1\n      dup4\n      gt\n      tag_41\n      jumpi\n      dup3\n      swap1\n      sub\n      0x1f\n      and\n      dup3\n      add\n      swap2\n    tag_39:\n      pop\n      pop\n      pop\n      pop\n      pop\n      dup2\n      mstore\n      0x20\n      add\n      0x02\n      dup3\n      add\n      dup1\n      sload\n      tag_42\n      swap1\n      tag_32\n      jump\t// in\n    tag_42:\n      dup1\n      0x1f\n      add\n      0x20\n      dup1\n      swap2\n      div\n      mul\n      0x20\n      add\n      mload(0x40)\n      swap1\n      dup2\n      add\n      0x40\n      mstore\n      dup1\n      swap3\n      swap2\n      swap1\n      dup2\n      dup2\n      mstore\n      0x20\n      add\n      dup3\n      dup1\n      sload\n      tag_43\n      swap1\n      tag_32\n      jump\t// in\n    tag_43:\n      dup1\n      iszero\n      tag_44\n      jumpi\n      dup1\n      0x1f\n      lt\n      tag_45\n      jumpi\n      0x0100\n      dup1\n      dup4\n      sload\n      div\n      mul\n      dup4\n      mstore\n      swap2\n      0x20\n      add\n      swap2\n      jump(tag_44)\n    tag_45:\n      dup3\n      add\n      swap2\n      swap1\n      0x00\n      mstore\n      keccak256(0x00, 0x20)\n      swap1\n    tag_46:\n      dup2\n      sload\n      dup2\n      mstore\n      swap1\n      0x01\n      add\n      swap1\n      0x20\n      add\n      dup1\n      dup4\n      gt\n      tag_46\n      jumpi\n      dup3\n      swap1\n      sub\n      0x1f\n      and\n      dup3\n      add\n      swap2\n    tag_44:\n      pop\n      pop\n      pop\n      pop\n      pop\n      dup2\n      mstore\n      0x20\n      add\n      0x03\n      dup3\n      add\n      sload\n      dup2\n      mstore\n      pop\n      pop\n      dup2\n      mstore\n      0x20\n      add\n      swap1\n      0x01\n      add\n      swap1\n      jump(tag_28)\n    tag_29:\n      pop\n      pop\n      pop\n      pop\n      swap1\n      pop\n        /* \"Struc.sol\":1634:1768  function getUserCars(... */\n      swap2\n      swap1\n      pop\n      jump\t// out\n        /* \"Struc.sol\":1774:1884  function getMyCars() external view override returns (Car[] memory) {... */\n    tag_15:\n        /* \"Struc.sol\":1827:1839  Car[] memory */\n      0x60\n        /* \"Struc.sol\":1858:1865  garages */\n      0x00\n        /* \"Struc.sol\":1858:1877  garages[msg.sender] */\n      dup1\n        /* \"Struc.sol\":1866:1876  msg.sender */\n      caller\n        /* \"Struc.sol\":1858:1877  garages[msg.sender] */\n      0xffffffffffffffffffffffffffffffffffffffff\n      and\n      0xffffffffffffffffffffffffffffffffffffffff\n      and\n      dup2\n      mstore\n      0x20\n      add\n      swap1\n      dup2\n      mstore\n      0x20\n      add\n      0x00\n      keccak256\n        /* \"Struc.sol\":1851:1877  return garages[msg.sender] */\n      dup1\n      sload\n      dup1\n      0x20\n      mul\n      0x20\n      add\n      mload(0x40)\n      swap1\n      dup2\n      add\n      0x40\n      mstore\n      dup1\n      swap3\n      swap2\n      swap1\n      dup2\n      dup2\n      mstore\n      0x20\n      add\n      0x00\n      swap1\n    tag_48:\n      dup3\n      dup3\n      lt\n      iszero\n      tag_49\n      jumpi\n      dup4\n      dup3\n      swap1\n      0x00\n      mstore\n      keccak256(0x00, 0x20)\n      swap1\n      0x04\n      mul\n      add\n      mload(0x40)\n      dup1\n      0x80\n      add\n      0x40\n      mstore\n      swap1\n      dup2\n      0x00\n      dup3\n      add\n      dup1\n      sload\n      tag_51\n      swap1\n      tag_32\n      jump\t// in\n    tag_51:\n      dup1\n      0x1f\n      add\n      0x20\n      dup1\n      swap2\n      div\n      mul\n      0x20\n      add\n      mload(0x40)\n      swap1\n      dup2\n      add\n      0x40\n      mstore\n      dup1\n      swap3\n      swap2\n      swap1\n      dup2\n      dup2\n      mstore\n      0x20\n      add\n      dup3\n      dup1\n      sload\n      tag_52\n      swap1\n      tag_32\n      jump\t// in\n    tag_52:\n      dup1\n      iszero\n      tag_53\n      jumpi\n      dup1\n      0x1f\n      lt\n      tag_54\n      jumpi\n      0x0100\n      dup1\n      dup4\n      sload\n      div\n      mul\n      dup4\n      mstore\n      swap2\n      0x20\n      add\n      swap2\n      jump(tag_53)\n    tag_54:\n      dup3\n      add\n      swap2\n      swap1\n      0x00\n      mstore\n      keccak256(0x00, 0x20)\n      swap1\n    tag_55:\n      dup2\n      sload\n      dup2\n      mstore\n      swap1\n      0x01\n      add\n      swap1\n      0x20\n      add\n      dup1\n      dup4\n      gt\n      tag_55\n      jumpi\n      dup3\n      swap1\n      sub\n      0x1f\n      and\n      dup3\n      add\n      swap2\n    tag_53:\n      pop\n      pop\n      pop\n      pop\n      pop\n      dup2\n      mstore\n      0x20\n      add\n      0x01\n      dup3\n      add\n      dup1\n      sload\n      tag_56\n      swap1\n      tag_32\n      jump\t// in\n    tag_56:\n      dup1\n      0x1f\n      add\n      0x20\n      dup1\n      swap2\n      div\n      mul\n      0x20\n      add\n      mload(0x40)\n      swap1\n      dup2\n      add\n      0x40\n      mstore\n      dup1\n      swap3\n      swap2\n      swap1\n      dup2\n      dup2\n      mstore\n      0x20\n      add\n      dup3\n      dup1\n      sload\n      tag_57\n      swap1\n      tag_32\n      jump\t// in\n    tag_57:\n      dup1\n      iszero\n      tag_58\n      jumpi\n      dup1\n      0x1f\n      lt\n      tag_59\n      jumpi\n      0x0100\n      dup1\n      dup4\n      sload\n      div\n      mul\n      dup4\n      mstore\n      swap2\n      0x20\n      add\n      swap2\n      jump(tag_58)\n    tag_59:\n      dup3\n      add\n      swap2\n      swap1\n      0x00\n      mstore\n      keccak256(0x00, 0x20)\n      swap1\n    tag_60:\n      dup2\n      sload\n      dup2\n      mstore\n      swap1\n      0x01\n      add\n      swap1\n      0x20\n      add\n      dup1\n      dup4\n      gt\n      tag_60\n      jumpi\n      dup3\n      swap1\n      sub\n      0x1f\n      and\n      dup3\n      add\n      swap2\n    tag_58:\n      pop\n      pop\n      pop\n      pop\n      pop\n      dup2\n      mstore\n      0x20\n      add\n      0x02\n      dup3\n      add\n      dup1\n      sload\n      tag_61\n      swap1\n      tag_32\n      jump\t// in\n    tag_61:\n      dup1\n      0x1f\n      add\n      0x20\n      dup1\n      swap2\n      div\n      mul\n      0x20\n      add\n      mload(0x40)\n      swap1\n      dup2\n      add\n      0x40\n      mstore\n      dup1\n      swap3\n      swap2\n      swap1\n      dup2\n      dup2\n      mstore\n      0x20\n      add\n      dup3\n      dup1\n      sload\n      tag_62\n      swap1\n      tag_32\n      jump\t// in\n    tag_62:\n      dup1\n      iszero\n      tag_63\n      jumpi\n      dup1\n      0x1f\n      lt\n      tag_64\n      jumpi\n      0x0100\n      dup1\n      dup4\n      sload\n      div\n      mul\n      dup4\n      mstore\n      swap2\n      0x20\n      add\n      swap2\n      jump(tag_63)\n    tag_64:\n      dup3\n      add\n      swap2\n      swap1\n      0x00\n      mstore\n      keccak256(0x00, 0x20)\n      swap1\n    tag_65:\n      dup2\n      sload\n      dup2\n      mstore\n      swap1\n      0x01\n      add\n      swap1\n      0x20\n      add\n      dup1\n      dup4\n      gt\n      tag_65\n      jumpi\n      dup3\n      swap1\n      sub\n      0x1f\n      and\n      dup3\n      add\n      swap2\n    tag_63:\n      pop\n      pop\n      pop\n      pop\n      pop\n      dup2\n      mstore\n      0x20\n      add\n      0x03\n      dup3\n      add\n      sload\n      dup2\n      mstore\n      pop\n      pop\n      dup2\n      mstore\n      0x20\n      add\n      swap1\n      0x01\n      add\n      swap1\n      jump(tag_48)\n    tag_49:\n      pop\n      pop\n      pop\n      pop\n      swap1\n      pop\n        /* \"Struc.sol\":1774:1884  function getMyCars() external view override returns (Car[] memory) {... */\n      swap1\n      jump\t// out\n        /* \"Struc.sol\":1212:1628  function updateCar(... */\n    tag_20:\n        /* \"Struc.sol\":1410:1433  Car storage carToUpdate */\n      0x00\n        /* \"Struc.sol\":1436:1443  garages */\n      dup1\n        /* \"Struc.sol\":1436:1455  garages[msg.sender] */\n      0x00\n        /* \"Struc.sol\":1444:1454  msg.sender */\n      caller\n        /* \"Struc.sol\":1436:1455  garages[msg.sender] */\n      0xffffffffffffffffffffffffffffffffffffffff\n      and\n      0xffffffffffffffffffffffffffffffffffffffff\n      and\n      dup2\n      mstore\n      0x20\n      add\n      swap1\n      dup2\n      mstore\n      0x20\n      add\n      0x00\n      keccak256\n        /* \"Struc.sol\":1456:1462  _index */\n      dup10\n        /* \"Struc.sol\":1436:1463  garages[msg.sender][_index] */\n      dup2\n      sload\n      dup2\n      lt\n      tag_67\n      jumpi\n      tag_68\n      tag_69\n      jump\t// in\n    tag_68:\n    tag_67:\n      swap1\n      0x00\n      mstore\n      keccak256(0x00, 0x20)\n      swap1\n      0x04\n      mul\n      add\n        /* \"Struc.sol\":1410:1463  Car storage carToUpdate = garages[msg.sender][_index] */\n      swap1\n      pop\n        /* \"Struc.sol\":1492:1497  _make */\n      dup8\n      dup8\n        /* \"Struc.sol\":1473:1484  carToUpdate */\n      dup3\n        /* \"Struc.sol\":1473:1489  carToUpdate.make */\n      0x00\n      add\n        /* \"Struc.sol\":1473:1497  carToUpdate.make = _make */\n      swap2\n      dup3\n      tag_71\n      swap3\n      swap2\n      swap1\n      tag_72\n      jump\t// in\n    tag_71:\n      pop\n        /* \"Struc.sol\":1527:1533  _model */\n      dup6\n      dup6\n        /* \"Struc.sol\":1507:1518  carToUpdate */\n      dup3\n        /* \"Struc.sol\":1507:1524  carToUpdate.model */\n      0x01\n      add\n        /* \"Struc.sol\":1507:1533  carToUpdate.model = _model */\n      swap2\n      dup3\n      tag_73\n      swap3\n      swap2\n      swap1\n      tag_72\n      jump\t// in\n    tag_73:\n      pop\n        /* \"Struc.sol\":1563:1569  _color */\n      dup4\n      dup4\n        /* \"Struc.sol\":1543:1554  carToUpdate */\n      dup3\n        /* \"Struc.sol\":1543:1560  carToUpdate.color */\n      0x02\n      add\n        /* \"Struc.sol\":1543:1569  carToUpdate.color = _color */\n      swap2\n      dup3\n      tag_74\n      swap3\n      swap2\n      swap1\n      tag_72\n      jump\t// in\n    tag_74:\n      pop\n        /* \"Struc.sol\":1607:1621  _numberOfDoors */\n      dup2\n        /* \"Struc.sol\":1579:1590  carToUpdate */\n      dup2\n        /* \"Struc.sol\":1579:1604  carToUpdate.numberOfDoors */\n      0x03\n      add\n        /* \"Struc.sol\":1579:1621  carToUpdate.numberOfDoors = _numberOfDoors */\n      dup2\n      swap1\n      sstore\n      pop\n        /* \"Struc.sol\":1400:1628  {... */\n      pop\n        /* \"Struc.sol\":1212:1628  function updateCar(... */\n      pop\n      pop\n      pop\n      pop\n      pop\n      pop\n      pop\n      pop\n      jump\t// out\n        /* \"Struc.sol\":1890:1976  function resetMyGarage() external override {... */\n    tag_22:\n        /* \"Struc.sol\":1950:1957  garages */\n      0x00\n        /* \"Struc.sol\":1950:1969  garages[msg.sender] */\n      dup1\n        /* \"Struc.sol\":1958:1968  msg.sender */\n      caller\n        /* \"Struc.sol\":1950:1969  garages[msg.sender] */\n      0xffffffffffffffffffffffffffffffffffffffff\n      and\n      0xffffffffffffffffffffffffffffffffffffffff\n      and\n      dup2\n      mstore\n      0x20\n      add\n      swap1\n      dup2\n      mstore\n      0x20\n      add\n      0x00\n      keccak256\n      0x00\n        /* \"Struc.sol\":1943:1969  delete garages[msg.sender] */\n      tag_76\n      swap2\n      swap1\n      tag_77\n      jump\t// in\n    tag_76:\n        /* \"Struc.sol\":1890:1976  function resetMyGarage() external override {... */\n      jump\t// out\n        /* \"Struc.sol\":826:1206  function addCar(... */\n    tag_26:\n        /* \"Struc.sol\":1000:1017  Car memory newCar */\n      0x00\n        /* \"Struc.sol\":1020:1157  Car({... */\n      mload(0x40)\n      dup1\n      0x80\n      add\n      0x40\n      mstore\n      dup1\n        /* \"Struc.sol\":1044:1049  _make */\n      dup10\n      dup10\n        /* \"Struc.sol\":1020:1157  Car({... */\n      dup1\n      dup1\n      0x1f\n      add\n      0x20\n      dup1\n      swap2\n      div\n      mul\n      0x20\n      add\n      mload(0x40)\n      swap1\n      dup2\n      add\n      0x40\n      mstore\n      dup1\n      swap4\n      swap3\n      swap2\n      swap1\n      dup2\n      dup2\n      mstore\n      0x20\n      add\n      dup4\n      dup4\n      dup1\n      dup3\n      dup5\n      calldatacopy\n      0x00\n      dup2\n      dup5\n      add\n      mstore\n      not(0x1f)\n      0x1f\n      dup3\n      add\n      and\n      swap1\n      pop\n      dup1\n      dup4\n      add\n      swap3\n      pop\n      pop\n      pop\n      pop\n      pop\n      pop\n      pop\n      dup2\n      mstore\n      0x20\n      add\n        /* \"Struc.sol\":1070:1076  _model */\n      dup8\n      dup8\n        /* \"Struc.sol\":1020:1157  Car({... */\n      dup1\n      dup1\n      0x1f\n      add\n      0x20\n      dup1\n      swap2\n      div\n      mul\n      0x20\n      add\n      mload(0x40)\n      swap1\n      dup2\n      add\n      0x40\n      mstore\n      dup1\n      swap4\n      swap3\n      swap2\n      swap1\n      dup2\n      dup2\n      mstore\n      0x20\n      add\n      dup4\n      dup4\n      dup1\n      dup3\n      dup5\n      calldatacopy\n      0x00\n      dup2\n      dup5\n      add\n      mstore\n      not(0x1f)\n      0x1f\n      dup3\n      add\n      and\n      swap1\n      pop\n      dup1\n      dup4\n      add\n      swap3\n      pop\n      pop\n      pop\n      pop\n      pop\n      pop\n      pop\n      dup2\n      mstore\n      0x20\n      add\n        /* \"Struc.sol\":1097:1103  _color */\n      dup6\n      dup6\n        /* \"Struc.sol\":1020:1157  Car({... */\n      dup1\n      dup1\n      0x1f\n      add\n      0x20\n      dup1\n      swap2\n      div\n      mul\n      0x20\n      add\n      mload(0x40)\n      swap1\n      dup2\n      add\n      0x40\n      mstore\n      dup1\n      swap4\n      swap3\n      swap2\n      swap1\n      dup2\n      dup2\n      mstore\n      0x20\n      add\n      dup4\n      dup4\n      dup1\n      dup3\n      dup5\n      calldatacopy\n      0x00\n      dup2\n      dup5\n      add\n      mstore\n      not(0x1f)\n      0x1f\n      dup3\n      add\n      and\n      swap1\n      pop\n      dup1\n      dup4\n      add\n      swap3\n      pop\n      pop\n      pop\n      pop\n      pop\n      pop\n      pop\n      dup2\n      mstore\n      0x20\n      add\n        /* \"Struc.sol\":1132:1146  _numberOfDoors */\n      dup4\n        /* \"Struc.sol\":1020:1157  Car({... */\n      dup2\n      mstore\n      pop\n        /* \"Struc.sol\":1000:1157  Car memory newCar = Car({... */\n      swap1\n      pop\n        /* \"Struc.sol\":1167:1174  garages */\n      0x00\n        /* \"Struc.sol\":1167:1186  garages[msg.sender] */\n      dup1\n        /* \"Struc.sol\":1175:1185  msg.sender */\n      caller\n        /* \"Struc.sol\":1167:1186  garages[msg.sender] */\n      0xffffffffffffffffffffffffffffffffffffffff\n      and\n      0xffffffffffffffffffffffffffffffffffffffff\n      and\n      dup2\n      mstore\n      0x20\n      add\n      swap1\n      dup2\n      mstore\n      0x20\n      add\n      0x00\n      keccak256\n        /* \"Struc.sol\":1192:1198  newCar */\n      dup2\n        /* \"Struc.sol\":1167:1199  garages[msg.sender].push(newCar) */\n      swap1\n      dup1\n      0x01\n      dup2\n      sload\n      add\n      dup1\n      dup3\n      sstore\n      dup1\n      swap2\n      pop\n      pop\n      0x01\n      swap1\n      sub\n      swap1\n      0x00\n      mstore\n      keccak256(0x00, 0x20)\n      swap1\n      0x04\n      mul\n      add\n      0x00\n      swap1\n      swap2\n      swap1\n      swap2\n      swap1\n      swap2\n      pop\n      0x00\n      dup3\n      add\n      mload\n      dup2\n      0x00\n      add\n      swap1\n      dup2\n      tag_80\n      swap2\n      swap1\n      tag_81\n      jump\t// in\n    tag_80:\n      pop\n      0x20\n      dup3\n      add\n      mload\n      dup2\n      0x01\n      add\n      swap1\n      dup2\n      tag_82\n      swap2\n      swap1\n      tag_81\n      jump\t// in\n    tag_82:\n      pop\n      0x40\n      dup3\n      add\n      mload\n      dup2\n      0x02\n      add\n      swap1\n      dup2\n      tag_83\n      swap2\n      swap1\n      tag_81\n      jump\t// in\n    tag_83:\n      pop\n      0x60\n      dup3\n      add\n      mload\n      dup2\n      0x03\n      add\n      sstore\n      pop\n      pop\n        /* \"Struc.sol\":990:1206  {... */\n      pop\n        /* \"Struc.sol\":826:1206  function addCar(... */\n      pop\n      pop\n      pop\n      pop\n      pop\n      pop\n      pop\n      jump\t// out\n    tag_77:\n      pop\n      dup1\n      sload\n      0x00\n      dup3\n      sstore\n      0x04\n      mul\n      swap1\n      0x00\n      mstore\n      keccak256(0x00, 0x20)\n      swap1\n      dup2\n      add\n      swap1\n      tag_85\n      swap2\n      swap1\n      tag_86\n      jump\t// in\n    tag_85:\n      pop\n      jump\t// out\n    tag_86:\n    tag_87:\n      dup1\n      dup3\n      gt\n      iszero\n      tag_88\n      jumpi\n      0x00\n      dup1\n      dup3\n      add\n      0x00\n      tag_89\n      swap2\n      swap1\n      tag_90\n      jump\t// in\n    tag_89:\n      0x01\n      dup3\n      add\n      0x00\n      tag_91\n      swap2\n      swap1\n      tag_90\n      jump\t// in\n    tag_91:\n      0x02\n      dup3\n      add\n      0x00\n      tag_92\n      swap2\n      swap1\n      tag_90\n      jump\t// in\n    tag_92:\n      0x03\n      dup3\n      add\n      0x00\n      swap1\n      sstore\n      pop\n      0x04\n      add\n      jump(tag_87)\n    tag_88:\n      pop\n      swap1\n      jump\t// out\n    tag_90:\n      pop\n      dup1\n      sload\n      tag_93\n      swap1\n      tag_32\n      jump\t// in\n    tag_93:\n      0x00\n      dup3\n      sstore\n      dup1\n      0x1f\n      lt\n      tag_95\n      jumpi\n      pop\n      jump(tag_94)\n    tag_95:\n      0x1f\n      add\n      0x20\n      swap1\n      div\n      swap1\n      0x00\n      mstore\n      keccak256(0x00, 0x20)\n      swap1\n      dup2\n      add\n      swap1\n      tag_96\n      swap2\n      swap1\n      tag_97\n      jump\t// in\n    tag_96:\n    tag_94:\n      pop\n      jump\t// out\n    tag_97:\n    tag_98:\n      dup1\n      dup3\n      gt\n      iszero\n      tag_99\n      jumpi\n      0x00\n      dup2\n      0x00\n      swap1\n      sstore\n      pop\n      0x01\n      add\n      jump(tag_98)\n    tag_99:\n      pop\n      swap1\n      jump\t// out\n        /* \"#utility.yul\":88:205   */\n    tag_101:\n        /* \"#utility.yul\":197:198   */\n      0x00\n        /* \"#utility.yul\":194:195   */\n      dup1\n        /* \"#utility.yul\":187:199   */\n      revert\n        /* \"#utility.yul\":211:328   */\n    tag_102:\n        /* \"#utility.yul\":320:321   */\n      0x00\n        /* \"#utility.yul\":317:318   */\n      dup1\n        /* \"#utility.yul\":310:322   */\n      revert\n        /* \"#utility.yul\":334:460   */\n    tag_103:\n        /* \"#utility.yul\":371:378   */\n      0x00\n        /* \"#utility.yul\":411:453   */\n      0xffffffffffffffffffffffffffffffffffffffff\n        /* \"#utility.yul\":404:409   */\n      dup3\n        /* \"#utility.yul\":400:454   */\n      and\n        /* \"#utility.yul\":389:454   */\n      swap1\n      pop\n        /* \"#utility.yul\":334:460   */\n      swap2\n      swap1\n      pop\n      jump\t// out\n        /* \"#utility.yul\":466:562   */\n    tag_104:\n        /* \"#utility.yul\":503:510   */\n      0x00\n        /* \"#utility.yul\":532:556   */\n      tag_151\n        /* \"#utility.yul\":550:555   */\n      dup3\n        /* \"#utility.yul\":532:556   */\n      tag_103\n      jump\t// in\n    tag_151:\n        /* \"#utility.yul\":521:556   */\n      swap1\n      pop\n        /* \"#utility.yul\":466:562   */\n      swap2\n      swap1\n      pop\n      jump\t// out\n        /* \"#utility.yul\":568:690   */\n    tag_105:\n        /* \"#utility.yul\":641:665   */\n      tag_153\n        /* \"#utility.yul\":659:664   */\n      dup2\n        /* \"#utility.yul\":641:665   */\n      tag_104\n      jump\t// in\n    tag_153:\n        /* \"#utility.yul\":634:639   */\n      dup2\n        /* \"#utility.yul\":631:666   */\n      eq\n        /* \"#utility.yul\":621:684   */\n      tag_154\n      jumpi\n        /* \"#utility.yul\":680:681   */\n      0x00\n        /* \"#utility.yul\":677:678   */\n      dup1\n        /* \"#utility.yul\":670:682   */\n      revert\n        /* \"#utility.yul\":621:684   */\n    tag_154:\n        /* \"#utility.yul\":568:690   */\n      pop\n      jump\t// out\n        /* \"#utility.yul\":696:835   */\n    tag_106:\n        /* \"#utility.yul\":742:747   */\n      0x00\n        /* \"#utility.yul\":780:786   */\n      dup2\n        /* \"#utility.yul\":767:787   */\n      calldataload\n        /* \"#utility.yul\":758:787   */\n      swap1\n      pop\n        /* \"#utility.yul\":796:829   */\n      tag_156\n        /* \"#utility.yul\":823:828   */\n      dup2\n        /* \"#utility.yul\":796:829   */\n      tag_105\n      jump\t// in\n    tag_156:\n        /* \"#utility.yul\":696:835   */\n      swap3\n      swap2\n      pop\n      pop\n      jump\t// out\n        /* \"#utility.yul\":841:1170   */\n    tag_10:\n        /* \"#utility.yul\":900:906   */\n      0x00\n        /* \"#utility.yul\":949:951   */\n      0x20\n        /* \"#utility.yul\":937:946   */\n      dup3\n        /* \"#utility.yul\":928:935   */\n      dup5\n        /* \"#utility.yul\":924:947   */\n      sub\n        /* \"#utility.yul\":920:952   */\n      slt\n        /* \"#utility.yul\":917:1036   */\n      iszero\n      tag_158\n      jumpi\n        /* \"#utility.yul\":955:1034   */\n      tag_159\n      tag_101\n      jump\t// in\n    tag_159:\n        /* \"#utility.yul\":917:1036   */\n    tag_158:\n        /* \"#utility.yul\":1075:1076   */\n      0x00\n        /* \"#utility.yul\":1100:1153   */\n      tag_160\n        /* \"#utility.yul\":1145:1152   */\n      dup5\n        /* \"#utility.yul\":1136:1142   */\n      dup3\n        /* \"#utility.yul\":1125:1134   */\n      dup6\n        /* \"#utility.yul\":1121:1143   */\n      add\n        /* \"#utility.yul\":1100:1153   */\n      tag_106\n      jump\t// in\n    tag_160:\n        /* \"#utility.yul\":1090:1153   */\n      swap2\n      pop\n        /* \"#utility.yul\":1046:1163   */\n      pop\n        /* \"#utility.yul\":841:1170   */\n      swap3\n      swap2\n      pop\n      pop\n      jump\t// out\n        /* \"#utility.yul\":1176:1309   */\n    tag_107:\n        /* \"#utility.yul\":1262:1268   */\n      0x00\n        /* \"#utility.yul\":1296:1301   */\n      dup2\n        /* \"#utility.yul\":1290:1302   */\n      mload\n        /* \"#utility.yul\":1280:1302   */\n      swap1\n      pop\n        /* \"#utility.yul\":1176:1309   */\n      swap2\n      swap1\n      pop\n      jump\t// out\n        /* \"#utility.yul\":1315:1518   */\n    tag_108:\n        /* \"#utility.yul\":1433:1444   */\n      0x00\n        /* \"#utility.yul\":1467:1473   */\n      dup3\n        /* \"#utility.yul\":1462:1465   */\n      dup3\n        /* \"#utility.yul\":1455:1474   */\n      mstore\n        /* \"#utility.yul\":1507:1511   */\n      0x20\n        /* \"#utility.yul\":1502:1505   */\n      dup3\n        /* \"#utility.yul\":1498:1512   */\n      add\n        /* \"#utility.yul\":1483:1512   */\n      swap1\n      pop\n        /* \"#utility.yul\":1315:1518   */\n      swap3\n      swap2\n      pop\n      pop\n      jump\t// out\n        /* \"#utility.yul\":1524:1675   */\n    tag_109:\n        /* \"#utility.yul\":1610:1614   */\n      0x00\n        /* \"#utility.yul\":1633:1636   */\n      dup2\n        /* \"#utility.yul\":1625:1636   */\n      swap1\n      pop\n        /* \"#utility.yul\":1663:1667   */\n      0x20\n        /* \"#utility.yul\":1658:1661   */\n      dup3\n        /* \"#utility.yul\":1654:1668   */\n      add\n        /* \"#utility.yul\":1646:1668   */\n      swap1\n      pop\n        /* \"#utility.yul\":1524:1675   */\n      swap2\n      swap1\n      pop\n      jump\t// out\n        /* \"#utility.yul\":1681:1780   */\n    tag_110:\n        /* \"#utility.yul\":1733:1739   */\n      0x00\n        /* \"#utility.yul\":1767:1772   */\n      dup2\n        /* \"#utility.yul\":1761:1773   */\n      mload\n        /* \"#utility.yul\":1751:1773   */\n      swap1\n      pop\n        /* \"#utility.yul\":1681:1780   */\n      swap2\n      swap1\n      pop\n      jump\t// out\n        /* \"#utility.yul\":1786:1945   */\n    tag_111:\n        /* \"#utility.yul\":1860:1871   */\n      0x00\n        /* \"#utility.yul\":1894:1900   */\n      dup3\n        /* \"#utility.yul\":1889:1892   */\n      dup3\n        /* \"#utility.yul\":1882:1901   */\n      mstore\n        /* \"#utility.yul\":1934:1938   */\n      0x20\n        /* \"#utility.yul\":1929:1932   */\n      dup3\n        /* \"#utility.yul\":1925:1939   */\n      add\n        /* \"#utility.yul\":1910:1939   */\n      swap1\n      pop\n        /* \"#utility.yul\":1786:1945   */\n      swap3\n      swap2\n      pop\n      pop\n      jump\t// out\n        /* \"#utility.yul\":1951:2197   */\n    tag_112:\n        /* \"#utility.yul\":2032:2033   */\n      0x00\n        /* \"#utility.yul\":2042:2155   */\n    tag_167:\n        /* \"#utility.yul\":2056:2062   */\n      dup4\n        /* \"#utility.yul\":2053:2054   */\n      dup2\n        /* \"#utility.yul\":2050:2063   */\n      lt\n        /* \"#utility.yul\":2042:2155   */\n      iszero\n      tag_169\n      jumpi\n        /* \"#utility.yul\":2141:2142   */\n      dup1\n        /* \"#utility.yul\":2136:2139   */\n      dup3\n        /* \"#utility.yul\":2132:2143   */\n      add\n        /* \"#utility.yul\":2126:2144   */\n      mload\n        /* \"#utility.yul\":2122:2123   */\n      dup2\n        /* \"#utility.yul\":2117:2120   */\n      dup5\n        /* \"#utility.yul\":2113:2124   */\n      add\n        /* \"#utility.yul\":2106:2145   */\n      mstore\n        /* \"#utility.yul\":2078:2080   */\n      0x20\n        /* \"#utility.yul\":2075:2076   */\n      dup2\n        /* \"#utility.yul\":2071:2081   */\n      add\n        /* \"#utility.yul\":2066:2081   */\n      swap1\n      pop\n        /* \"#utility.yul\":2042:2155   */\n      jump(tag_167)\n    tag_169:\n        /* \"#utility.yul\":2189:2190   */\n      0x00\n        /* \"#utility.yul\":2180:2186   */\n      dup5\n        /* \"#utility.yul\":2175:2178   */\n      dup5\n        /* \"#utility.yul\":2171:2187   */\n      add\n        /* \"#utility.yul\":2164:2191   */\n      mstore\n        /* \"#utility.yul\":2013:2197   */\n      pop\n        /* \"#utility.yul\":1951:2197   */\n      pop\n      pop\n      pop\n      jump\t// out\n        /* \"#utility.yul\":2203:2305   */\n    tag_113:\n        /* \"#utility.yul\":2244:2250   */\n      0x00\n        /* \"#utility.yul\":2295:2297   */\n      0x1f\n        /* \"#utility.yul\":2291:2298   */\n      not\n        /* \"#utility.yul\":2286:2288   */\n      0x1f\n        /* \"#utility.yul\":2279:2284   */\n      dup4\n        /* \"#utility.yul\":2275:2289   */\n      add\n        /* \"#utility.yul\":2271:2299   */\n      and\n        /* \"#utility.yul\":2261:2299   */\n      swap1\n      pop\n        /* \"#utility.yul\":2203:2305   */\n      swap2\n      swap1\n      pop\n      jump\t// out\n        /* \"#utility.yul\":2311:2668   */\n    tag_114:\n        /* \"#utility.yul\":2389:2392   */\n      0x00\n        /* \"#utility.yul\":2417:2456   */\n      tag_172\n        /* \"#utility.yul\":2450:2455   */\n      dup3\n        /* \"#utility.yul\":2417:2456   */\n      tag_110\n      jump\t// in\n    tag_172:\n        /* \"#utility.yul\":2472:2533   */\n      tag_173\n        /* \"#utility.yul\":2526:2532   */\n      dup2\n        /* \"#utility.yul\":2521:2524   */\n      dup6\n        /* \"#utility.yul\":2472:2533   */\n      tag_111\n      jump\t// in\n    tag_173:\n        /* \"#utility.yul\":2465:2533   */\n      swap4\n      pop\n        /* \"#utility.yul\":2542:2607   */\n      tag_174\n        /* \"#utility.yul\":2600:2606   */\n      dup2\n        /* \"#utility.yul\":2595:2598   */\n      dup6\n        /* \"#utility.yul\":2588:2592   */\n      0x20\n        /* \"#utility.yul\":2581:2586   */\n      dup7\n        /* \"#utility.yul\":2577:2593   */\n      add\n        /* \"#utility.yul\":2542:2607   */\n      tag_112\n      jump\t// in\n    tag_174:\n        /* \"#utility.yul\":2632:2661   */\n      tag_175\n        /* \"#utility.yul\":2654:2660   */\n      dup2\n        /* \"#utility.yul\":2632:2661   */\n      tag_113\n      jump\t// in\n    tag_175:\n        /* \"#utility.yul\":2627:2630   */\n      dup5\n        /* \"#utility.yul\":2623:2662   */\n      add\n        /* \"#utility.yul\":2616:2662   */\n      swap2\n      pop\n        /* \"#utility.yul\":2393:2668   */\n      pop\n        /* \"#utility.yul\":2311:2668   */\n      swap3\n      swap2\n      pop\n      pop\n      jump\t// out\n        /* \"#utility.yul\":2674:2751   */\n    tag_115:\n        /* \"#utility.yul\":2711:2718   */\n      0x00\n        /* \"#utility.yul\":2740:2745   */\n      dup2\n        /* \"#utility.yul\":2729:2745   */\n      swap1\n      pop\n        /* \"#utility.yul\":2674:2751   */\n      swap2\n      swap1\n      pop\n      jump\t// out\n        /* \"#utility.yul\":2757:2865   */\n    tag_116:\n        /* \"#utility.yul\":2834:2858   */\n      tag_178\n        /* \"#utility.yul\":2852:2857   */\n      dup2\n        /* \"#utility.yul\":2834:2858   */\n      tag_115\n      jump\t// in\n    tag_178:\n        /* \"#utility.yul\":2829:2832   */\n      dup3\n        /* \"#utility.yul\":2822:2859   */\n      mstore\n        /* \"#utility.yul\":2757:2865   */\n      pop\n      pop\n      jump\t// out\n        /* \"#utility.yul\":2927:4012   */\n    tag_117:\n        /* \"#utility.yul\":3024:3027   */\n      0x00\n        /* \"#utility.yul\":3060:3064   */\n      0x80\n        /* \"#utility.yul\":3055:3058   */\n      dup4\n        /* \"#utility.yul\":3051:3065   */\n      add\n        /* \"#utility.yul\":3147:3151   */\n      0x00\n        /* \"#utility.yul\":3140:3145   */\n      dup4\n        /* \"#utility.yul\":3136:3152   */\n      add\n        /* \"#utility.yul\":3130:3153   */\n      mload\n        /* \"#utility.yul\":3200:3203   */\n      dup5\n        /* \"#utility.yul\":3194:3198   */\n      dup3\n        /* \"#utility.yul\":3190:3204   */\n      sub\n        /* \"#utility.yul\":3183:3187   */\n      0x00\n        /* \"#utility.yul\":3178:3181   */\n      dup7\n        /* \"#utility.yul\":3174:3188   */\n      add\n        /* \"#utility.yul\":3167:3205   */\n      mstore\n        /* \"#utility.yul\":3226:3299   */\n      tag_180\n        /* \"#utility.yul\":3294:3298   */\n      dup3\n        /* \"#utility.yul\":3280:3292   */\n      dup3\n        /* \"#utility.yul\":3226:3299   */\n      tag_114\n      jump\t// in\n    tag_180:\n        /* \"#utility.yul\":3218:3299   */\n      swap2\n      pop\n        /* \"#utility.yul\":3075:3310   */\n      pop\n        /* \"#utility.yul\":3393:3397   */\n      0x20\n        /* \"#utility.yul\":3386:3391   */\n      dup4\n        /* \"#utility.yul\":3382:3398   */\n      add\n        /* \"#utility.yul\":3376:3399   */\n      mload\n        /* \"#utility.yul\":3446:3449   */\n      dup5\n        /* \"#utility.yul\":3440:3444   */\n      dup3\n        /* \"#utility.yul\":3436:3450   */\n      sub\n        /* \"#utility.yul\":3429:3433   */\n      0x20\n        /* \"#utility.yul\":3424:3427   */\n      dup7\n        /* \"#utility.yul\":3420:3434   */\n      add\n        /* \"#utility.yul\":3413:3451   */\n      mstore\n        /* \"#utility.yul\":3472:3545   */\n      tag_181\n        /* \"#utility.yul\":3540:3544   */\n      dup3\n        /* \"#utility.yul\":3526:3538   */\n      dup3\n        /* \"#utility.yul\":3472:3545   */\n      tag_114\n      jump\t// in\n    tag_181:\n        /* \"#utility.yul\":3464:3545   */\n      swap2\n      pop\n        /* \"#utility.yul\":3320:3556   */\n      pop\n        /* \"#utility.yul\":3639:3643   */\n      0x40\n        /* \"#utility.yul\":3632:3637   */\n      dup4\n        /* \"#utility.yul\":3628:3644   */\n      add\n        /* \"#utility.yul\":3622:3645   */\n      mload\n        /* \"#utility.yul\":3692:3695   */\n      dup5\n        /* \"#utility.yul\":3686:3690   */\n      dup3\n        /* \"#utility.yul\":3682:3696   */\n      sub\n        /* \"#utility.yul\":3675:3679   */\n      0x40\n        /* \"#utility.yul\":3670:3673   */\n      dup7\n        /* \"#utility.yul\":3666:3680   */\n      add\n        /* \"#utility.yul\":3659:3697   */\n      mstore\n        /* \"#utility.yul\":3718:3791   */\n      tag_182\n        /* \"#utility.yul\":3786:3790   */\n      dup3\n        /* \"#utility.yul\":3772:3784   */\n      dup3\n        /* \"#utility.yul\":3718:3791   */\n      tag_114\n      jump\t// in\n    tag_182:\n        /* \"#utility.yul\":3710:3791   */\n      swap2\n      pop\n        /* \"#utility.yul\":3566:3802   */\n      pop\n        /* \"#utility.yul\":3893:3897   */\n      0x60\n        /* \"#utility.yul\":3886:3891   */\n      dup4\n        /* \"#utility.yul\":3882:3898   */\n      add\n        /* \"#utility.yul\":3876:3899   */\n      mload\n        /* \"#utility.yul\":3912:3975   */\n      tag_183\n        /* \"#utility.yul\":3969:3973   */\n      0x60\n        /* \"#utility.yul\":3964:3967   */\n      dup7\n        /* \"#utility.yul\":3960:3974   */\n      add\n        /* \"#utility.yul\":3946:3958   */\n      dup3\n        /* \"#utility.yul\":3912:3975   */\n      tag_116\n      jump\t// in\n    tag_183:\n        /* \"#utility.yul\":3812:3985   */\n      pop\n        /* \"#utility.yul\":4002:4006   */\n      dup1\n        /* \"#utility.yul\":3995:4006   */\n      swap2\n      pop\n        /* \"#utility.yul\":3029:4012   */\n      pop\n        /* \"#utility.yul\":2927:4012   */\n      swap3\n      swap2\n      pop\n      pop\n      jump\t// out\n        /* \"#utility.yul\":4018:4250   */\n    tag_118:\n        /* \"#utility.yul\":4125:4135   */\n      0x00\n        /* \"#utility.yul\":4160:4244   */\n      tag_185\n        /* \"#utility.yul\":4240:4243   */\n      dup4\n        /* \"#utility.yul\":4232:4238   */\n      dup4\n        /* \"#utility.yul\":4160:4244   */\n      tag_117\n      jump\t// in\n    tag_185:\n        /* \"#utility.yul\":4146:4244   */\n      swap1\n      pop\n        /* \"#utility.yul\":4018:4250   */\n      swap3\n      swap2\n      pop\n      pop\n      jump\t// out\n        /* \"#utility.yul\":4256:4388   */\n    tag_119:\n        /* \"#utility.yul\":4345:4349   */\n      0x00\n        /* \"#utility.yul\":4377:4381   */\n      0x20\n        /* \"#utility.yul\":4372:4375   */\n      dup3\n        /* \"#utility.yul\":4368:4382   */\n      add\n        /* \"#utility.yul\":4360:4382   */\n      swap1\n      pop\n        /* \"#utility.yul\":4256:4388   */\n      swap2\n      swap1\n      pop\n      jump\t// out\n        /* \"#utility.yul\":4454:5517   */\n    tag_120:\n        /* \"#utility.yul\":4611:4614   */\n      0x00\n        /* \"#utility.yul\":4640:4713   */\n      tag_188\n        /* \"#utility.yul\":4707:4712   */\n      dup3\n        /* \"#utility.yul\":4640:4713   */\n      tag_107\n      jump\t// in\n    tag_188:\n        /* \"#utility.yul\":4729:4834   */\n      tag_189\n        /* \"#utility.yul\":4827:4833   */\n      dup2\n        /* \"#utility.yul\":4822:4825   */\n      dup6\n        /* \"#utility.yul\":4729:4834   */\n      tag_108\n      jump\t// in\n    tag_189:\n        /* \"#utility.yul\":4722:4834   */\n      swap4\n      pop\n        /* \"#utility.yul\":4860:4863   */\n      dup4\n        /* \"#utility.yul\":4905:4909   */\n      0x20\n        /* \"#utility.yul\":4897:4903   */\n      dup3\n        /* \"#utility.yul\":4893:4910   */\n      mul\n        /* \"#utility.yul\":4888:4891   */\n      dup6\n        /* \"#utility.yul\":4884:4911   */\n      add\n        /* \"#utility.yul\":4935:5010   */\n      tag_190\n        /* \"#utility.yul\":5004:5009   */\n      dup6\n        /* \"#utility.yul\":4935:5010   */\n      tag_109\n      jump\t// in\n    tag_190:\n        /* \"#utility.yul\":5033:5040   */\n      dup1\n        /* \"#utility.yul\":5064:5065   */\n      0x00\n        /* \"#utility.yul\":5049:5472   */\n    tag_191:\n        /* \"#utility.yul\":5074:5080   */\n      dup6\n        /* \"#utility.yul\":5071:5072   */\n      dup2\n        /* \"#utility.yul\":5068:5081   */\n      lt\n        /* \"#utility.yul\":5049:5472   */\n      iszero\n      tag_193\n      jumpi\n        /* \"#utility.yul\":5145:5154   */\n      dup5\n        /* \"#utility.yul\":5139:5143   */\n      dup5\n        /* \"#utility.yul\":5135:5155   */\n      sub\n        /* \"#utility.yul\":5130:5133   */\n      dup10\n        /* \"#utility.yul\":5123:5156   */\n      mstore\n        /* \"#utility.yul\":5196:5202   */\n      dup2\n        /* \"#utility.yul\":5190:5203   */\n      mload\n        /* \"#utility.yul\":5224:5326   */\n      tag_194\n        /* \"#utility.yul\":5321:5325   */\n      dup6\n        /* \"#utility.yul\":5306:5319   */\n      dup3\n        /* \"#utility.yul\":5224:5326   */\n      tag_118\n      jump\t// in\n    tag_194:\n        /* \"#utility.yul\":5216:5326   */\n      swap5\n      pop\n        /* \"#utility.yul\":5349:5428   */\n      tag_195\n        /* \"#utility.yul\":5421:5427   */\n      dup4\n        /* \"#utility.yul\":5349:5428   */\n      tag_119\n      jump\t// in\n    tag_195:\n        /* \"#utility.yul\":5339:5428   */\n      swap3\n      pop\n        /* \"#utility.yul\":5457:5461   */\n      0x20\n        /* \"#utility.yul\":5452:5455   */\n      dup11\n        /* \"#utility.yul\":5448:5462   */\n      add\n        /* \"#utility.yul\":5441:5462   */\n      swap10\n      pop\n        /* \"#utility.yul\":5109:5472   */\n      pop\n        /* \"#utility.yul\":5096:5097   */\n      0x01\n        /* \"#utility.yul\":5093:5094   */\n      dup2\n        /* \"#utility.yul\":5089:5098   */\n      add\n        /* \"#utility.yul\":5084:5098   */\n      swap1\n      pop\n        /* \"#utility.yul\":5049:5472   */\n      jump(tag_191)\n    tag_193:\n        /* \"#utility.yul\":5053:5067   */\n      pop\n        /* \"#utility.yul\":5488:5492   */\n      dup3\n        /* \"#utility.yul\":5481:5492   */\n      swap8\n      pop\n        /* \"#utility.yul\":5508:5511   */\n      dup8\n        /* \"#utility.yul\":5501:5511   */\n      swap6\n      pop\n        /* \"#utility.yul\":4616:5517   */\n      pop\n      pop\n      pop\n      pop\n      pop\n        /* \"#utility.yul\":4454:5517   */\n      swap3\n      swap2\n      pop\n      pop\n      jump\t// out\n        /* \"#utility.yul\":5523:5972   */\n    tag_13:\n        /* \"#utility.yul\":5704:5708   */\n      0x00\n        /* \"#utility.yul\":5742:5744   */\n      0x20\n        /* \"#utility.yul\":5731:5740   */\n      dup3\n        /* \"#utility.yul\":5727:5745   */\n      add\n        /* \"#utility.yul\":5719:5745   */\n      swap1\n      pop\n        /* \"#utility.yul\":5791:5800   */\n      dup2\n        /* \"#utility.yul\":5785:5789   */\n      dup2\n        /* \"#utility.yul\":5781:5801   */\n      sub\n        /* \"#utility.yul\":5777:5778   */\n      0x00\n        /* \"#utility.yul\":5766:5775   */\n      dup4\n        /* \"#utility.yul\":5762:5779   */\n      add\n        /* \"#utility.yul\":5755:5802   */\n      mstore\n        /* \"#utility.yul\":5819:5965   */\n      tag_197\n        /* \"#utility.yul\":5960:5964   */\n      dup2\n        /* \"#utility.yul\":5951:5957   */\n      dup5\n        /* \"#utility.yul\":5819:5965   */\n      tag_120\n      jump\t// in\n    tag_197:\n        /* \"#utility.yul\":5811:5965   */\n      swap1\n      pop\n        /* \"#utility.yul\":5523:5972   */\n      swap3\n      swap2\n      pop\n      pop\n      jump\t// out\n        /* \"#utility.yul\":5978:6100   */\n    tag_121:\n        /* \"#utility.yul\":6051:6075   */\n      tag_199\n        /* \"#utility.yul\":6069:6074   */\n      dup2\n        /* \"#utility.yul\":6051:6075   */\n      tag_115\n      jump\t// in\n    tag_199:\n        /* \"#utility.yul\":6044:6049   */\n      dup2\n        /* \"#utility.yul\":6041:6076   */\n      eq\n        /* \"#utility.yul\":6031:6094   */\n      tag_200\n      jumpi\n        /* \"#utility.yul\":6090:6091   */\n      0x00\n        /* \"#utility.yul\":6087:6088   */\n      dup1\n        /* \"#utility.yul\":6080:6092   */\n      revert\n        /* \"#utility.yul\":6031:6094   */\n    tag_200:\n        /* \"#utility.yul\":5978:6100   */\n      pop\n      jump\t// out\n        /* \"#utility.yul\":6106:6245   */\n    tag_122:\n        /* \"#utility.yul\":6152:6157   */\n      0x00\n        /* \"#utility.yul\":6190:6196   */\n      dup2\n        /* \"#utility.yul\":6177:6197   */\n      calldataload\n        /* \"#utility.yul\":6168:6197   */\n      swap1\n      pop\n        /* \"#utility.yul\":6206:6239   */\n      tag_202\n        /* \"#utility.yul\":6233:6238   */\n      dup2\n        /* \"#utility.yul\":6206:6239   */\n      tag_121\n      jump\t// in\n    tag_202:\n        /* \"#utility.yul\":6106:6245   */\n      swap3\n      swap2\n      pop\n      pop\n      jump\t// out\n        /* \"#utility.yul\":6251:6368   */\n    tag_123:\n        /* \"#utility.yul\":6360:6361   */\n      0x00\n        /* \"#utility.yul\":6357:6358   */\n      dup1\n        /* \"#utility.yul\":6350:6362   */\n      revert\n        /* \"#utility.yul\":6374:6491   */\n    tag_124:\n        /* \"#utility.yul\":6483:6484   */\n      0x00\n        /* \"#utility.yul\":6480:6481   */\n      dup1\n        /* \"#utility.yul\":6473:6485   */\n      revert\n        /* \"#utility.yul\":6497:6614   */\n    tag_125:\n        /* \"#utility.yul\":6606:6607   */\n      0x00\n        /* \"#utility.yul\":6603:6604   */\n      dup1\n        /* \"#utility.yul\":6596:6608   */\n      revert\n        /* \"#utility.yul\":6634:7187   */\n    tag_126:\n        /* \"#utility.yul\":6692:6700   */\n      0x00\n        /* \"#utility.yul\":6702:6708   */\n      dup1\n        /* \"#utility.yul\":6752:6755   */\n      dup4\n        /* \"#utility.yul\":6745:6749   */\n      0x1f\n        /* \"#utility.yul\":6737:6743   */\n      dup5\n        /* \"#utility.yul\":6733:6750   */\n      add\n        /* \"#utility.yul\":6729:6756   */\n      slt\n        /* \"#utility.yul\":6719:6841   */\n      tag_207\n      jumpi\n        /* \"#utility.yul\":6760:6839   */\n      tag_208\n      tag_123\n      jump\t// in\n    tag_208:\n        /* \"#utility.yul\":6719:6841   */\n    tag_207:\n        /* \"#utility.yul\":6873:6879   */\n      dup3\n        /* \"#utility.yul\":6860:6880   */\n      calldataload\n        /* \"#utility.yul\":6850:6880   */\n      swap1\n      pop\n        /* \"#utility.yul\":6903:6921   */\n      0xffffffffffffffff\n        /* \"#utility.yul\":6895:6901   */\n      dup2\n        /* \"#utility.yul\":6892:6922   */\n      gt\n        /* \"#utility.yul\":6889:7006   */\n      iszero\n      tag_209\n      jumpi\n        /* \"#utility.yul\":6925:7004   */\n      tag_210\n      tag_124\n      jump\t// in\n    tag_210:\n        /* \"#utility.yul\":6889:7006   */\n    tag_209:\n        /* \"#utility.yul\":7039:7043   */\n      0x20\n        /* \"#utility.yul\":7031:7037   */\n      dup4\n        /* \"#utility.yul\":7027:7044   */\n      add\n        /* \"#utility.yul\":7015:7044   */\n      swap2\n      pop\n        /* \"#utility.yul\":7093:7096   */\n      dup4\n        /* \"#utility.yul\":7085:7089   */\n      0x01\n        /* \"#utility.yul\":7077:7083   */\n      dup3\n        /* \"#utility.yul\":7073:7090   */\n      mul\n        /* \"#utility.yul\":7063:7071   */\n      dup4\n        /* \"#utility.yul\":7059:7091   */\n      add\n        /* \"#utility.yul\":7056:7097   */\n      gt\n        /* \"#utility.yul\":7053:7181   */\n      iszero\n      tag_211\n      jumpi\n        /* \"#utility.yul\":7100:7179   */\n      tag_212\n      tag_125\n      jump\t// in\n    tag_212:\n        /* \"#utility.yul\":7053:7181   */\n    tag_211:\n        /* \"#utility.yul\":6634:7187   */\n      swap3\n      pop\n      swap3\n      swap1\n      pop\n      jump\t// out\n        /* \"#utility.yul\":7193:8704   */\n    tag_19:\n        /* \"#utility.yul\":7324:7330   */\n      0x00\n        /* \"#utility.yul\":7332:7338   */\n      dup1\n        /* \"#utility.yul\":7340:7346   */\n      0x00\n        /* \"#utility.yul\":7348:7354   */\n      dup1\n        /* \"#utility.yul\":7356:7362   */\n      0x00\n        /* \"#utility.yul\":7364:7370   */\n      dup1\n        /* \"#utility.yul\":7372:7378   */\n      0x00\n        /* \"#utility.yul\":7380:7386   */\n      dup1\n        /* \"#utility.yul\":7429:7432   */\n      0xa0\n        /* \"#utility.yul\":7417:7426   */\n      dup10\n        /* \"#utility.yul\":7408:7415   */\n      dup12\n        /* \"#utility.yul\":7404:7427   */\n      sub\n        /* \"#utility.yul\":7400:7433   */\n      slt\n        /* \"#utility.yul\":7397:7517   */\n      iszero\n      tag_214\n      jumpi\n        /* \"#utility.yul\":7436:7515   */\n      tag_215\n      tag_101\n      jump\t// in\n    tag_215:\n        /* \"#utility.yul\":7397:7517   */\n    tag_214:\n        /* \"#utility.yul\":7556:7557   */\n      0x00\n        /* \"#utility.yul\":7581:7634   */\n      tag_216\n        /* \"#utility.yul\":7626:7633   */\n      dup12\n        /* \"#utility.yul\":7617:7623   */\n      dup3\n        /* \"#utility.yul\":7606:7615   */\n      dup13\n        /* \"#utility.yul\":7602:7624   */\n      add\n        /* \"#utility.yul\":7581:7634   */\n      tag_122\n      jump\t// in\n    tag_216:\n        /* \"#utility.yul\":7571:7634   */\n      swap9\n      pop\n        /* \"#utility.yul\":7527:7644   */\n      pop\n        /* \"#utility.yul\":7711:7713   */\n      0x20\n        /* \"#utility.yul\":7700:7709   */\n      dup10\n        /* \"#utility.yul\":7696:7714   */\n      add\n        /* \"#utility.yul\":7683:7715   */\n      calldataload\n        /* \"#utility.yul\":7742:7760   */\n      0xffffffffffffffff\n        /* \"#utility.yul\":7734:7740   */\n      dup2\n        /* \"#utility.yul\":7731:7761   */\n      gt\n        /* \"#utility.yul\":7728:7845   */\n      iszero\n      tag_217\n      jumpi\n        /* \"#utility.yul\":7764:7843   */\n      tag_218\n      tag_102\n      jump\t// in\n    tag_218:\n        /* \"#utility.yul\":7728:7845   */\n    tag_217:\n        /* \"#utility.yul\":7877:7942   */\n      tag_219\n        /* \"#utility.yul\":7934:7941   */\n      dup12\n        /* \"#utility.yul\":7925:7931   */\n      dup3\n        /* \"#utility.yul\":7914:7923   */\n      dup13\n        /* \"#utility.yul\":7910:7932   */\n      add\n        /* \"#utility.yul\":7877:7942   */\n      tag_126\n      jump\t// in\n    tag_219:\n        /* \"#utility.yul\":7859:7942   */\n      swap8\n      pop\n      swap8\n      pop\n        /* \"#utility.yul\":7654:7952   */\n      pop\n        /* \"#utility.yul\":8019:8021   */\n      0x40\n        /* \"#utility.yul\":8008:8017   */\n      dup10\n        /* \"#utility.yul\":8004:8022   */\n      add\n        /* \"#utility.yul\":7991:8023   */\n      calldataload\n        /* \"#utility.yul\":8050:8068   */\n      0xffffffffffffffff\n        /* \"#utility.yul\":8042:8048   */\n      dup2\n        /* \"#utility.yul\":8039:8069   */\n      gt\n        /* \"#utility.yul\":8036:8153   */\n      iszero\n      tag_220\n      jumpi\n        /* \"#utility.yul\":8072:8151   */\n      tag_221\n      tag_102\n      jump\t// in\n    tag_221:\n        /* \"#utility.yul\":8036:8153   */\n    tag_220:\n        /* \"#utility.yul\":8185:8250   */\n      tag_222\n        /* \"#utility.yul\":8242:8249   */\n      dup12\n        /* \"#utility.yul\":8233:8239   */\n      dup3\n        /* \"#utility.yul\":8222:8231   */\n      dup13\n        /* \"#utility.yul\":8218:8240   */\n      add\n        /* \"#utility.yul\":8185:8250   */\n      tag_126\n      jump\t// in\n    tag_222:\n        /* \"#utility.yul\":8167:8250   */\n      swap6\n      pop\n      swap6\n      pop\n        /* \"#utility.yul\":7962:8260   */\n      pop\n        /* \"#utility.yul\":8327:8329   */\n      0x60\n        /* \"#utility.yul\":8316:8325   */\n      dup10\n        /* \"#utility.yul\":8312:8330   */\n      add\n        /* \"#utility.yul\":8299:8331   */\n      calldataload\n        /* \"#utility.yul\":8358:8376   */\n      0xffffffffffffffff\n        /* \"#utility.yul\":8350:8356   */\n      dup2\n        /* \"#utility.yul\":8347:8377   */\n      gt\n        /* \"#utility.yul\":8344:8461   */\n      iszero\n      tag_223\n      jumpi\n        /* \"#utility.yul\":8380:8459   */\n      tag_224\n      tag_102\n      jump\t// in\n    tag_224:\n        /* \"#utility.yul\":8344:8461   */\n    tag_223:\n        /* \"#utility.yul\":8493:8558   */\n      tag_225\n        /* \"#utility.yul\":8550:8557   */\n      dup12\n        /* \"#utility.yul\":8541:8547   */\n      dup3\n        /* \"#utility.yul\":8530:8539   */\n      dup13\n        /* \"#utility.yul\":8526:8548   */\n      add\n        /* \"#utility.yul\":8493:8558   */\n      tag_126\n      jump\t// in\n    tag_225:\n        /* \"#utility.yul\":8475:8558   */\n      swap4\n      pop\n      swap4\n      pop\n        /* \"#utility.yul\":8270:8568   */\n      pop\n        /* \"#utility.yul\":8607:8610   */\n      0x80\n        /* \"#utility.yul\":8634:8687   */\n      tag_226\n        /* \"#utility.yul\":8679:8686   */\n      dup12\n        /* \"#utility.yul\":8670:8676   */\n      dup3\n        /* \"#utility.yul\":8659:8668   */\n      dup13\n        /* \"#utility.yul\":8655:8677   */\n      add\n        /* \"#utility.yul\":8634:8687   */\n      tag_122\n      jump\t// in\n    tag_226:\n        /* \"#utility.yul\":8624:8687   */\n      swap2\n      pop\n        /* \"#utility.yul\":8578:8697   */\n      pop\n        /* \"#utility.yul\":7193:8704   */\n      swap3\n      swap6\n      swap9\n      pop\n      swap3\n      swap6\n      swap9\n      swap1\n      swap4\n      swap7\n      pop\n      jump\t// out\n        /* \"#utility.yul\":8710:10075   */\n    tag_25:\n        /* \"#utility.yul\":8832:8838   */\n      0x00\n        /* \"#utility.yul\":8840:8846   */\n      dup1\n        /* \"#utility.yul\":8848:8854   */\n      0x00\n        /* \"#utility.yul\":8856:8862   */\n      dup1\n        /* \"#utility.yul\":8864:8870   */\n      0x00\n        /* \"#utility.yul\":8872:8878   */\n      dup1\n        /* \"#utility.yul\":8880:8886   */\n      0x00\n        /* \"#utility.yul\":8929:8932   */\n      0x80\n        /* \"#utility.yul\":8917:8926   */\n      dup9\n        /* \"#utility.yul\":8908:8915   */\n      dup11\n        /* \"#utility.yul\":8904:8927   */\n      sub\n        /* \"#utility.yul\":8900:8933   */\n      slt\n        /* \"#utility.yul\":8897:9017   */\n      iszero\n      tag_228\n      jumpi\n        /* \"#utility.yul\":8936:9015   */\n      tag_229\n      tag_101\n      jump\t// in\n    tag_229:\n        /* \"#utility.yul\":8897:9017   */\n    tag_228:\n        /* \"#utility.yul\":9084:9085   */\n      0x00\n        /* \"#utility.yul\":9073:9082   */\n      dup9\n        /* \"#utility.yul\":9069:9086   */\n      add\n        /* \"#utility.yul\":9056:9087   */\n      calldataload\n        /* \"#utility.yul\":9114:9132   */\n      0xffffffffffffffff\n        /* \"#utility.yul\":9106:9112   */\n      dup2\n        /* \"#utility.yul\":9103:9133   */\n      gt\n        /* \"#utility.yul\":9100:9217   */\n      iszero\n      tag_230\n      jumpi\n        /* \"#utility.yul\":9136:9215   */\n      tag_231\n      tag_102\n      jump\t// in\n    tag_231:\n        /* \"#utility.yul\":9100:9217   */\n    tag_230:\n        /* \"#utility.yul\":9249:9314   */\n      tag_232\n        /* \"#utility.yul\":9306:9313   */\n      dup11\n        /* \"#utility.yul\":9297:9303   */\n      dup3\n        /* \"#utility.yul\":9286:9295   */\n      dup12\n        /* \"#utility.yul\":9282:9304   */\n      add\n        /* \"#utility.yul\":9249:9314   */\n      tag_126\n      jump\t// in\n    tag_232:\n        /* \"#utility.yul\":9231:9314   */\n      swap8\n      pop\n      swap8\n      pop\n        /* \"#utility.yul\":9027:9324   */\n      pop\n        /* \"#utility.yul\":9391:9393   */\n      0x20\n        /* \"#utility.yul\":9380:9389   */\n      dup9\n        /* \"#utility.yul\":9376:9394   */\n      add\n        /* \"#utility.yul\":9363:9395   */\n      calldataload\n        /* \"#utility.yul\":9422:9440   */\n      0xffffffffffffffff\n        /* \"#utility.yul\":9414:9420   */\n      dup2\n        /* \"#utility.yul\":9411:9441   */\n      gt\n        /* \"#utility.yul\":9408:9525   */\n      iszero\n      tag_233\n      jumpi\n        /* \"#utility.yul\":9444:9523   */\n      tag_234\n      tag_102\n      jump\t// in\n    tag_234:\n        /* \"#utility.yul\":9408:9525   */\n    tag_233:\n        /* \"#utility.yul\":9557:9622   */\n      tag_235\n        /* \"#utility.yul\":9614:9621   */\n      dup11\n        /* \"#utility.yul\":9605:9611   */\n      dup3\n        /* \"#utility.yul\":9594:9603   */\n      dup12\n        /* \"#utility.yul\":9590:9612   */\n      add\n        /* \"#utility.yul\":9557:9622   */\n      tag_126\n      jump\t// in\n    tag_235:\n        /* \"#utility.yul\":9539:9622   */\n      swap6\n      pop\n      swap6\n      pop\n        /* \"#utility.yul\":9334:9632   */\n      pop\n        /* \"#utility.yul\":9699:9701   */\n      0x40\n        /* \"#utility.yul\":9688:9697   */\n      dup9\n        /* \"#utility.yul\":9684:9702   */\n      add\n        /* \"#utility.yul\":9671:9703   */\n      calldataload\n        /* \"#utility.yul\":9730:9748   */\n      0xffffffffffffffff\n        /* \"#utility.yul\":9722:9728   */\n      dup2\n        /* \"#utility.yul\":9719:9749   */\n      gt\n        /* \"#utility.yul\":9716:9833   */\n      iszero\n      tag_236\n      jumpi\n        /* \"#utility.yul\":9752:9831   */\n      tag_237\n      tag_102\n      jump\t// in\n    tag_237:\n        /* \"#utility.yul\":9716:9833   */\n    tag_236:\n        /* \"#utility.yul\":9865:9930   */\n      tag_238\n        /* \"#utility.yul\":9922:9929   */\n      dup11\n        /* \"#utility.yul\":9913:9919   */\n      dup3\n        /* \"#utility.yul\":9902:9911   */\n      dup12\n        /* \"#utility.yul\":9898:9920   */\n      add\n        /* \"#utility.yul\":9865:9930   */\n      tag_126\n      jump\t// in\n    tag_238:\n        /* \"#utility.yul\":9847:9930   */\n      swap4\n      pop\n      swap4\n      pop\n        /* \"#utility.yul\":9642:9940   */\n      pop\n        /* \"#utility.yul\":9979:9981   */\n      0x60\n        /* \"#utility.yul\":10005:10058   */\n      tag_239\n        /* \"#utility.yul\":10050:10057   */\n      dup11\n        /* \"#utility.yul\":10041:10047   */\n      dup3\n        /* \"#utility.yul\":10030:10039   */\n      dup12\n        /* \"#utility.yul\":10026:10048   */\n      add\n        /* \"#utility.yul\":10005:10058   */\n      tag_122\n      jump\t// in\n    tag_239:\n        /* \"#utility.yul\":9995:10058   */\n      swap2\n      pop\n        /* \"#utility.yul\":9950:10068   */\n      pop\n        /* \"#utility.yul\":8710:10075   */\n      swap3\n      swap6\n      swap9\n      swap2\n      swap5\n      swap8\n      pop\n      swap3\n      swap6\n      pop\n      jump\t// out\n        /* \"#utility.yul\":10081:10261   */\n    tag_127:\n        /* \"#utility.yul\":10129:10206   */\n      0x4e487b7100000000000000000000000000000000000000000000000000000000\n        /* \"#utility.yul\":10126:10127   */\n      0x00\n        /* \"#utility.yul\":10119:10207   */\n      mstore\n        /* \"#utility.yul\":10226:10230   */\n      0x22\n        /* \"#utility.yul\":10223:10224   */\n      0x04\n        /* \"#utility.yul\":10216:10231   */\n      mstore\n        /* \"#utility.yul\":10250:10254   */\n      0x24\n        /* \"#utility.yul\":10247:10248   */\n      0x00\n        /* \"#utility.yul\":10240:10255   */\n      revert\n        /* \"#utility.yul\":10267:10587   */\n    tag_32:\n        /* \"#utility.yul\":10311:10317   */\n      0x00\n        /* \"#utility.yul\":10348:10349   */\n      0x02\n        /* \"#utility.yul\":10342:10346   */\n      dup3\n        /* \"#utility.yul\":10338:10350   */\n      div\n        /* \"#utility.yul\":10328:10350   */\n      swap1\n      pop\n        /* \"#utility.yul\":10395:10396   */\n      0x01\n        /* \"#utility.yul\":10389:10393   */\n      dup3\n        /* \"#utility.yul\":10385:10397   */\n      and\n        /* \"#utility.yul\":10416:10434   */\n      dup1\n        /* \"#utility.yul\":10406:10487   */\n      tag_242\n      jumpi\n        /* \"#utility.yul\":10472:10476   */\n      0x7f\n        /* \"#utility.yul\":10464:10470   */\n      dup3\n        /* \"#utility.yul\":10460:10477   */\n      and\n        /* \"#utility.yul\":10450:10477   */\n      swap2\n      pop\n        /* \"#utility.yul\":10406:10487   */\n    tag_242:\n        /* \"#utility.yul\":10534:10536   */\n      0x20\n        /* \"#utility.yul\":10526:10532   */\n      dup3\n        /* \"#utility.yul\":10523:10537   */\n      lt\n        /* \"#utility.yul\":10503:10521   */\n      dup2\n        /* \"#utility.yul\":10500:10538   */\n      sub\n        /* \"#utility.yul\":10497:10581   */\n      tag_243\n      jumpi\n        /* \"#utility.yul\":10553:10571   */\n      tag_244\n      tag_127\n      jump\t// in\n    tag_244:\n        /* \"#utility.yul\":10497:10581   */\n    tag_243:\n        /* \"#utility.yul\":10318:10587   */\n      pop\n        /* \"#utility.yul\":10267:10587   */\n      swap2\n      swap1\n      pop\n      jump\t// out\n        /* \"#utility.yul\":10593:10773   */\n    tag_69:\n        /* \"#utility.yul\":10641:10718   */\n      0x4e487b7100000000000000000000000000000000000000000000000000000000\n        /* \"#utility.yul\":10638:10639   */\n      0x00\n        /* \"#utility.yul\":10631:10719   */\n      mstore\n        /* \"#utility.yul\":10738:10742   */\n      0x32\n        /* \"#utility.yul\":10735:10736   */\n      0x04\n        /* \"#utility.yul\":10728:10743   */\n      mstore\n        /* \"#utility.yul\":10762:10766   */\n      0x24\n        /* \"#utility.yul\":10759:10760   */\n      0x00\n        /* \"#utility.yul\":10752:10767   */\n      revert\n        /* \"#utility.yul\":10779:10876   */\n    tag_128:\n        /* \"#utility.yul\":10838:10844   */\n      0x00\n        /* \"#utility.yul\":10866:10869   */\n      dup3\n        /* \"#utility.yul\":10856:10869   */\n      swap1\n      pop\n        /* \"#utility.yul\":10779:10876   */\n      swap3\n      swap2\n      pop\n      pop\n      jump\t// out\n        /* \"#utility.yul\":10882:11062   */\n    tag_129:\n        /* \"#utility.yul\":10930:11007   */\n      0x4e487b7100000000000000000000000000000000000000000000000000000000\n        /* \"#utility.yul\":10927:10928   */\n      0x00\n        /* \"#utility.yul\":10920:11008   */\n      mstore\n        /* \"#utility.yul\":11027:11031   */\n      0x41\n        /* \"#utility.yul\":11024:11025   */\n      0x04\n        /* \"#utility.yul\":11017:11032   */\n      mstore\n        /* \"#utility.yul\":11051:11055   */\n      0x24\n        /* \"#utility.yul\":11048:11049   */\n      0x00\n        /* \"#utility.yul\":11041:11056   */\n      revert\n        /* \"#utility.yul\":11068:11209   */\n    tag_130:\n        /* \"#utility.yul\":11117:11121   */\n      0x00\n        /* \"#utility.yul\":11140:11143   */\n      dup2\n        /* \"#utility.yul\":11132:11143   */\n      swap1\n      pop\n        /* \"#utility.yul\":11163:11166   */\n      dup2\n        /* \"#utility.yul\":11160:11161   */\n      0x00\n        /* \"#utility.yul\":11153:11167   */\n      mstore\n        /* \"#utility.yul\":11197:11201   */\n      0x20\n        /* \"#utility.yul\":11194:11195   */\n      0x00\n        /* \"#utility.yul\":11184:11202   */\n      keccak256\n        /* \"#utility.yul\":11176:11202   */\n      swap1\n      pop\n        /* \"#utility.yul\":11068:11209   */\n      swap2\n      swap1\n      pop\n      jump\t// out\n        /* \"#utility.yul\":11215:11308   */\n    tag_131:\n        /* \"#utility.yul\":11252:11258   */\n      0x00\n        /* \"#utility.yul\":11299:11301   */\n      0x20\n        /* \"#utility.yul\":11294:11296   */\n      0x1f\n        /* \"#utility.yul\":11287:11292   */\n      dup4\n        /* \"#utility.yul\":11283:11297   */\n      add\n        /* \"#utility.yul\":11279:11302   */\n      div\n        /* \"#utility.yul\":11269:11302   */\n      swap1\n      pop\n        /* \"#utility.yul\":11215:11308   */\n      swap2\n      swap1\n      pop\n      jump\t// out\n        /* \"#utility.yul\":11314:11421   */\n    tag_132:\n        /* \"#utility.yul\":11358:11366   */\n      0x00\n        /* \"#utility.yul\":11408:11413   */\n      dup3\n        /* \"#utility.yul\":11402:11406   */\n      dup3\n        /* \"#utility.yul\":11398:11414   */\n      shl\n        /* \"#utility.yul\":11377:11414   */\n      swap1\n      pop\n        /* \"#utility.yul\":11314:11421   */\n      swap3\n      swap2\n      pop\n      pop\n      jump\t// out\n        /* \"#utility.yul\":11427:11820   */\n    tag_133:\n        /* \"#utility.yul\":11496:11502   */\n      0x00\n        /* \"#utility.yul\":11546:11547   */\n      0x08\n        /* \"#utility.yul\":11534:11544   */\n      dup4\n        /* \"#utility.yul\":11530:11548   */\n      mul\n        /* \"#utility.yul\":11569:11666   */\n      tag_252\n        /* \"#utility.yul\":11599:11665   */\n      0xffffffffffffffffffffffffffffffffffffffffffffffffffffffffffffffff\n        /* \"#utility.yul\":11588:11597   */\n      dup3\n        /* \"#utility.yul\":11569:11666   */\n      tag_132\n      jump\t// in\n    tag_252:\n        /* \"#utility.yul\":11687:11726   */\n      tag_253\n        /* \"#utility.yul\":11717:11725   */\n      dup7\n        /* \"#utility.yul\":11706:11715   */\n      dup4\n        /* \"#utility.yul\":11687:11726   */\n      tag_132\n      jump\t// in\n    tag_253:\n        /* \"#utility.yul\":11675:11726   */\n      swap6\n      pop\n        /* \"#utility.yul\":11759:11763   */\n      dup1\n        /* \"#utility.yul\":11755:11764   */\n      not\n        /* \"#utility.yul\":11748:11753   */\n      dup5\n        /* \"#utility.yul\":11744:11765   */\n      and\n        /* \"#utility.yul\":11735:11765   */\n      swap4\n      pop\n        /* \"#utility.yul\":11808:11812   */\n      dup1\n        /* \"#utility.yul\":11798:11806   */\n      dup7\n        /* \"#utility.yul\":11794:11813   */\n      and\n        /* \"#utility.yul\":11787:11792   */\n      dup5\n        /* \"#utility.yul\":11784:11814   */\n      or\n        /* \"#utility.yul\":11774:11814   */\n      swap3\n      pop\n        /* \"#utility.yul\":11503:11820   */\n      pop\n      pop\n        /* \"#utility.yul\":11427:11820   */\n      swap4\n      swap3\n      pop\n      pop\n      pop\n      jump\t// out\n        /* \"#utility.yul\":11826:11886   */\n    tag_134:\n        /* \"#utility.yul\":11854:11857   */\n      0x00\n        /* \"#utility.yul\":11875:11880   */\n      dup2\n        /* \"#utility.yul\":11868:11880   */\n      swap1\n      pop\n        /* \"#utility.yul\":11826:11886   */\n      swap2\n      swap1\n      pop\n      jump\t// out\n        /* \"#utility.yul\":11892:12034   */\n    tag_135:\n        /* \"#utility.yul\":11942:11951   */\n      0x00\n        /* \"#utility.yul\":11975:12028   */\n      tag_256\n        /* \"#utility.yul\":11993:12027   */\n      tag_257\n        /* \"#utility.yul\":12002:12026   */\n      tag_258\n        /* \"#utility.yul\":12020:12025   */\n      dup5\n        /* \"#utility.yul\":12002:12026   */\n      tag_115\n      jump\t// in\n    tag_258:\n        /* \"#utility.yul\":11993:12027   */\n      tag_134\n      jump\t// in\n    tag_257:\n        /* \"#utility.yul\":11975:12028   */\n      tag_115\n      jump\t// in\n    tag_256:\n        /* \"#utility.yul\":11962:12028   */\n      swap1\n      pop\n        /* \"#utility.yul\":11892:12034   */\n      swap2\n      swap1\n      pop\n      jump\t// out\n        /* \"#utility.yul\":12040:12115   */\n    tag_136:\n        /* \"#utility.yul\":12083:12086   */\n      0x00\n        /* \"#utility.yul\":12104:12109   */\n      dup2\n        /* \"#utility.yul\":12097:12109   */\n      swap1\n      pop\n        /* \"#utility.yul\":12040:12115   */\n      swap2\n      swap1\n      pop\n      jump\t// out\n        /* \"#utility.yul\":12121:12390   */\n    tag_137:\n        /* \"#utility.yul\":12231:12270   */\n      tag_261\n        /* \"#utility.yul\":12262:12269   */\n      dup4\n        /* \"#utility.yul\":12231:12270   */\n      tag_135\n      jump\t// in\n    tag_261:\n        /* \"#utility.yul\":12292:12383   */\n      tag_262\n        /* \"#utility.yul\":12341:12382   */\n      tag_263\n        /* \"#utility.yul\":12365:12381   */\n      dup3\n        /* \"#utility.yul\":12341:12382   */\n      tag_136\n      jump\t// in\n    tag_263:\n        /* \"#utility.yul\":12333:12339   */\n      dup5\n        /* \"#utility.yul\":12326:12330   */\n      dup5\n        /* \"#utility.yul\":12320:12331   */\n      sload\n        /* \"#utility.yul\":12292:12383   */\n      tag_133\n      jump\t// in\n    tag_262:\n        /* \"#utility.yul\":12286:12290   */\n      dup3\n        /* \"#utility.yul\":12279:12384   */\n      sstore\n        /* \"#utility.yul\":12197:12390   */\n      pop\n        /* \"#utility.yul\":12121:12390   */\n      pop\n      pop\n      pop\n      jump\t// out\n        /* \"#utility.yul\":12396:12469   */\n    tag_138:\n        /* \"#utility.yul\":12441:12444   */\n      0x00\n        /* \"#utility.yul\":12396:12469   */\n      swap1\n      jump\t// out\n        /* \"#utility.yul\":12475:12664   */\n    tag_139:\n        /* \"#utility.yul\":12552:12584   */\n      tag_266\n      tag_138\n      jump\t// in\n    tag_266:\n        /* \"#utility.yul\":12593:12658   */\n      tag_267\n        /* \"#utility.yul\":12651:12657   */\n      dup2\n        /* \"#utility.yul\":12643:12649   */\n      dup5\n        /* \"#utility.yul\":12637:12641   */\n      dup5\n        /* \"#utility.yul\":12593:12658   */\n      tag_137\n      jump\t// in\n    tag_267:\n        /* \"#utility.yul\":12528:12664   */\n      pop\n        /* \"#utility.yul\":12475:12664   */\n      pop\n      pop\n      jump\t// out\n        /* \"#utility.yul\":12670:12856   */\n    tag_140:\n        /* \"#utility.yul\":12730:12850   */\n    tag_269:\n        /* \"#utility.yul\":12747:12750   */\n      dup2\n        /* \"#utility.yul\":12740:12745   */\n      dup2\n        /* \"#utility.yul\":12737:12751   */\n      lt\n        /* \"#utility.yul\":12730:12850   */\n      iszero\n      tag_271\n      jumpi\n        /* \"#utility.yul\":12801:12840   */\n      tag_272\n        /* \"#utility.yul\":12838:12839   */\n      0x00\n        /* \"#utility.yul\":12831:12836   */\n      dup3\n        /* \"#utility.yul\":12801:12840   */\n      tag_139\n      jump\t// in\n    tag_272:\n        /* \"#utility.yul\":12774:12775   */\n      0x01\n        /* \"#utility.yul\":12767:12772   */\n      dup2\n        /* \"#utility.yul\":12763:12776   */\n      add\n        /* \"#utility.yul\":12754:12776   */\n      swap1\n      pop\n        /* \"#utility.yul\":12730:12850   */\n      jump(tag_269)\n    tag_271:\n        /* \"#utility.yul\":12670:12856   */\n      pop\n      pop\n      jump\t// out\n        /* \"#utility.yul\":12862:13405   */\n    tag_141:\n        /* \"#utility.yul\":12963:12965   */\n      0x1f\n        /* \"#utility.yul\":12958:12961   */\n      dup3\n        /* \"#utility.yul\":12955:12966   */\n      gt\n        /* \"#utility.yul\":12952:13398   */\n      iszero\n      tag_274\n      jumpi\n        /* \"#utility.yul\":12997:13035   */\n      tag_275\n        /* \"#utility.yul\":13029:13034   */\n      dup2\n        /* \"#utility.yul\":12997:13035   */\n      tag_130\n      jump\t// in\n    tag_275:\n        /* \"#utility.yul\":13081:13110   */\n      tag_276\n        /* \"#utility.yul\":13099:13109   */\n      dup5\n        /* \"#utility.yul\":13081:13110   */\n      tag_131\n      jump\t// in\n    tag_276:\n        /* \"#utility.yul\":13071:13079   */\n      dup2\n        /* \"#utility.yul\":13067:13111   */\n      add\n        /* \"#utility.yul\":13264:13266   */\n      0x20\n        /* \"#utility.yul\":13252:13262   */\n      dup6\n        /* \"#utility.yul\":13249:13267   */\n      lt\n        /* \"#utility.yul\":13246:13295   */\n      iszero\n      tag_277\n      jumpi\n        /* \"#utility.yul\":13285:13293   */\n      dup2\n        /* \"#utility.yul\":13270:13293   */\n      swap1\n      pop\n        /* \"#utility.yul\":13246:13295   */\n    tag_277:\n        /* \"#utility.yul\":13308:13388   */\n      tag_278\n        /* \"#utility.yul\":13364:13386   */\n      tag_279\n        /* \"#utility.yul\":13382:13385   */\n      dup6\n        /* \"#utility.yul\":13364:13386   */\n      tag_131\n      jump\t// in\n    tag_279:\n        /* \"#utility.yul\":13354:13362   */\n      dup4\n        /* \"#utility.yul\":13350:13387   */\n      add\n        /* \"#utility.yul\":13337:13348   */\n      dup3\n        /* \"#utility.yul\":13308:13388   */\n      tag_140\n      jump\t// in\n    tag_278:\n        /* \"#utility.yul\":12967:13398   */\n      pop\n      pop\n        /* \"#utility.yul\":12952:13398   */\n    tag_274:\n        /* \"#utility.yul\":12862:13405   */\n      pop\n      pop\n      pop\n      jump\t// out\n        /* \"#utility.yul\":13411:13528   */\n    tag_142:\n        /* \"#utility.yul\":13465:13473   */\n      0x00\n        /* \"#utility.yul\":13515:13520   */\n      dup3\n        /* \"#utility.yul\":13509:13513   */\n      dup3\n        /* \"#utility.yul\":13505:13521   */\n      shr\n        /* \"#utility.yul\":13484:13521   */\n      swap1\n      pop\n        /* \"#utility.yul\":13411:13528   */\n      swap3\n      swap2\n      pop\n      pop\n      jump\t// out\n        /* \"#utility.yul\":13534:13703   */\n    tag_143:\n        /* \"#utility.yul\":13578:13584   */\n      0x00\n        /* \"#utility.yul\":13611:13662   */\n      tag_282\n        /* \"#utility.yul\":13659:13660   */\n      0x00\n        /* \"#utility.yul\":13655:13661   */\n      not\n        /* \"#utility.yul\":13647:13652   */\n      dup5\n        /* \"#utility.yul\":13644:13645   */\n      0x08\n        /* \"#utility.yul\":13640:13653   */\n      mul\n        /* \"#utility.yul\":13611:13662   */\n      tag_142\n      jump\t// in\n    tag_282:\n        /* \"#utility.yul\":13607:13663   */\n      not\n        /* \"#utility.yul\":13692:13696   */\n      dup1\n        /* \"#utility.yul\":13686:13690   */\n      dup4\n        /* \"#utility.yul\":13682:13697   */\n      and\n        /* \"#utility.yul\":13672:13697   */\n      swap2\n      pop\n        /* \"#utility.yul\":13585:13703   */\n      pop\n        /* \"#utility.yul\":13534:13703   */\n      swap3\n      swap2\n      pop\n      pop\n      jump\t// out\n        /* \"#utility.yul\":13708:14003   */\n    tag_144:\n        /* \"#utility.yul\":13784:13788   */\n      0x00\n        /* \"#utility.yul\":13930:13959   */\n      tag_284\n        /* \"#utility.yul\":13955:13958   */\n      dup4\n        /* \"#utility.yul\":13949:13953   */\n      dup4\n        /* \"#utility.yul\":13930:13959   */\n      tag_143\n      jump\t// in\n    tag_284:\n        /* \"#utility.yul\":13922:13959   */\n      swap2\n      pop\n        /* \"#utility.yul\":13992:13995   */\n      dup3\n        /* \"#utility.yul\":13989:13990   */\n      0x02\n        /* \"#utility.yul\":13985:13996   */\n      mul\n        /* \"#utility.yul\":13979:13983   */\n      dup3\n        /* \"#utility.yul\":13976:13997   */\n      or\n        /* \"#utility.yul\":13968:13997   */\n      swap1\n      pop\n        /* \"#utility.yul\":13708:14003   */\n      swap3\n      swap2\n      pop\n      pop\n      jump\t// out\n        /* \"#utility.yul\":14008:15411   */\n    tag_72:\n        /* \"#utility.yul\":14132:14176   */\n      tag_286\n        /* \"#utility.yul\":14172:14175   */\n      dup4\n        /* \"#utility.yul\":14167:14170   */\n      dup4\n        /* \"#utility.yul\":14132:14176   */\n      tag_128\n      jump\t// in\n    tag_286:\n        /* \"#utility.yul\":14241:14259   */\n      0xffffffffffffffff\n        /* \"#utility.yul\":14233:14239   */\n      dup2\n        /* \"#utility.yul\":14230:14260   */\n      gt\n        /* \"#utility.yul\":14227:14283   */\n      iszero\n      tag_287\n      jumpi\n        /* \"#utility.yul\":14263:14281   */\n      tag_288\n      tag_129\n      jump\t// in\n    tag_288:\n        /* \"#utility.yul\":14227:14283   */\n    tag_287:\n        /* \"#utility.yul\":14307:14345   */\n      tag_289\n        /* \"#utility.yul\":14339:14343   */\n      dup3\n        /* \"#utility.yul\":14333:14344   */\n      sload\n        /* \"#utility.yul\":14307:14345   */\n      tag_32\n      jump\t// in\n    tag_289:\n        /* \"#utility.yul\":14392:14459   */\n      tag_290\n        /* \"#utility.yul\":14452:14458   */\n      dup3\n        /* \"#utility.yul\":14444:14450   */\n      dup3\n        /* \"#utility.yul\":14438:14442   */\n      dup6\n        /* \"#utility.yul\":14392:14459   */\n      tag_141\n      jump\t// in\n    tag_290:\n        /* \"#utility.yul\":14486:14487   */\n      0x00\n        /* \"#utility.yul\":14515:14517   */\n      0x1f\n        /* \"#utility.yul\":14507:14513   */\n      dup4\n        /* \"#utility.yul\":14504:14518   */\n      gt\n        /* \"#utility.yul\":14532:14533   */\n      0x01\n        /* \"#utility.yul\":14527:15159   */\n      dup2\n      eq\n      tag_292\n      jumpi\n        /* \"#utility.yul\":15203:15204   */\n      0x00\n        /* \"#utility.yul\":15220:15226   */\n      dup5\n        /* \"#utility.yul\":15217:15301   */\n      iszero\n      tag_293\n      jumpi\n        /* \"#utility.yul\":15276:15285   */\n      dup3\n        /* \"#utility.yul\":15271:15274   */\n      dup8\n        /* \"#utility.yul\":15267:15286   */\n      add\n        /* \"#utility.yul\":15254:15287   */\n      calldataload\n        /* \"#utility.yul\":15245:15287   */\n      swap1\n      pop\n        /* \"#utility.yul\":15217:15301   */\n    tag_293:\n        /* \"#utility.yul\":15327:15394   */\n      tag_294\n        /* \"#utility.yul\":15387:15393   */\n      dup6\n        /* \"#utility.yul\":15380:15385   */\n      dup3\n        /* \"#utility.yul\":15327:15394   */\n      tag_144\n      jump\t// in\n    tag_294:\n        /* \"#utility.yul\":15321:15325   */\n      dup7\n        /* \"#utility.yul\":15314:15395   */\n      sstore\n        /* \"#utility.yul\":15176:15405   */\n      pop\n        /* \"#utility.yul\":14497:15405   */\n      jump(tag_291)\n        /* \"#utility.yul\":14527:15159   */\n    tag_292:\n        /* \"#utility.yul\":14579:14583   */\n      0x1f\n        /* \"#utility.yul\":14575:14584   */\n      not\n        /* \"#utility.yul\":14567:14573   */\n      dup5\n        /* \"#utility.yul\":14563:14585   */\n      and\n        /* \"#utility.yul\":14613:14650   */\n      tag_295\n        /* \"#utility.yul\":14645:14649   */\n      dup7\n        /* \"#utility.yul\":14613:14650   */\n      tag_130\n      jump\t// in\n    tag_295:\n        /* \"#utility.yul\":14672:14673   */\n      0x00\n        /* \"#utility.yul\":14686:14901   */\n    tag_296:\n        /* \"#utility.yul\":14700:14707   */\n      dup3\n        /* \"#utility.yul\":14697:14698   */\n      dup2\n        /* \"#utility.yul\":14694:14708   */\n      lt\n        /* \"#utility.yul\":14686:14901   */\n      iszero\n      tag_298\n      jumpi\n        /* \"#utility.yul\":14786:14795   */\n      dup5\n        /* \"#utility.yul\":14781:14784   */\n      dup10\n        /* \"#utility.yul\":14777:14796   */\n      add\n        /* \"#utility.yul\":14764:14797   */\n      calldataload\n        /* \"#utility.yul\":14756:14762   */\n      dup3\n        /* \"#utility.yul\":14749:14798   */\n      sstore\n        /* \"#utility.yul\":14837:14838   */\n      0x01\n        /* \"#utility.yul\":14829:14835   */\n      dup3\n        /* \"#utility.yul\":14825:14839   */\n      add\n        /* \"#utility.yul\":14815:14839   */\n      swap2\n      pop\n        /* \"#utility.yul\":14884:14886   */\n      0x20\n        /* \"#utility.yul\":14873:14882   */\n      dup6\n        /* \"#utility.yul\":14869:14887   */\n      add\n        /* \"#utility.yul\":14856:14887   */\n      swap5\n      pop\n        /* \"#utility.yul\":14723:14727   */\n      0x20\n        /* \"#utility.yul\":14720:14721   */\n      dup2\n        /* \"#utility.yul\":14716:14728   */\n      add\n        /* \"#utility.yul\":14711:14728   */\n      swap1\n      pop\n        /* \"#utility.yul\":14686:14901   */\n      jump(tag_296)\n    tag_298:\n        /* \"#utility.yul\":14929:14935   */\n      dup7\n        /* \"#utility.yul\":14920:14927   */\n      dup4\n        /* \"#utility.yul\":14917:14936   */\n      lt\n        /* \"#utility.yul\":14914:15100   */\n      iszero\n      tag_299\n      jumpi\n        /* \"#utility.yul\":14994:15003   */\n      dup5\n        /* \"#utility.yul\":14989:14992   */\n      dup10\n        /* \"#utility.yul\":14985:15004   */\n      add\n        /* \"#utility.yul\":14972:15005   */\n      calldataload\n        /* \"#utility.yul\":15037:15085   */\n      tag_300\n        /* \"#utility.yul\":15079:15083   */\n      0x1f\n        /* \"#utility.yul\":15071:15077   */\n      dup10\n        /* \"#utility.yul\":15067:15084   */\n      and\n        /* \"#utility.yul\":15056:15065   */\n      dup3\n        /* \"#utility.yul\":15037:15085   */\n      tag_143\n      jump\t// in\n    tag_300:\n        /* \"#utility.yul\":15029:15035   */\n      dup4\n        /* \"#utility.yul\":15022:15086   */\n      sstore\n        /* \"#utility.yul\":14937:15100   */\n      pop\n        /* \"#utility.yul\":14914:15100   */\n    tag_299:\n        /* \"#utility.yul\":15146:15147   */\n      0x01\n        /* \"#utility.yul\":15142:15143   */\n      0x02\n        /* \"#utility.yul\":15134:15140   */\n      dup9\n        /* \"#utility.yul\":15130:15144   */\n      mul\n        /* \"#utility.yul\":15126:15148   */\n      add\n        /* \"#utility.yul\":15120:15124   */\n      dup9\n        /* \"#utility.yul\":15113:15149   */\n      sstore\n        /* \"#utility.yul\":14534:15159   */\n      pop\n      pop\n      pop\n        /* \"#utility.yul\":14497:15405   */\n    tag_291:\n      pop\n        /* \"#utility.yul\":14107:15411   */\n      pop\n      pop\n      pop\n        /* \"#utility.yul\":14008:15411   */\n      pop\n      pop\n      pop\n      jump\t// out\n        /* \"#utility.yul\":15417:16812   */\n    tag_81:\n        /* \"#utility.yul\":15534:15571   */\n      tag_302\n        /* \"#utility.yul\":15567:15570   */\n      dup3\n        /* \"#utility.yul\":15534:15571   */\n      tag_110\n      jump\t// in\n    tag_302:\n        /* \"#utility.yul\":15636:15654   */\n      0xffffffffffffffff\n        /* \"#utility.yul\":15628:15634   */\n      dup2\n        /* \"#utility.yul\":15625:15655   */\n      gt\n        /* \"#utility.yul\":15622:15678   */\n      iszero\n      tag_303\n      jumpi\n        /* \"#utility.yul\":15658:15676   */\n      tag_304\n      tag_129\n      jump\t// in\n    tag_304:\n        /* \"#utility.yul\":15622:15678   */\n    tag_303:\n        /* \"#utility.yul\":15702:15740   */\n      tag_305\n        /* \"#utility.yul\":15734:15738   */\n      dup3\n        /* \"#utility.yul\":15728:15739   */\n      sload\n        /* \"#utility.yul\":15702:15740   */\n      tag_32\n      jump\t// in\n    tag_305:\n        /* \"#utility.yul\":15787:15854   */\n      tag_306\n        /* \"#utility.yul\":15847:15853   */\n      dup3\n        /* \"#utility.yul\":15839:15845   */\n      dup3\n        /* \"#utility.yul\":15833:15837   */\n      dup6\n        /* \"#utility.yul\":15787:15854   */\n      tag_141\n      jump\t// in\n    tag_306:\n        /* \"#utility.yul\":15881:15882   */\n      0x00\n        /* \"#utility.yul\":15905:15909   */\n      0x20\n        /* \"#utility.yul\":15892:15909   */\n      swap1\n      pop\n        /* \"#utility.yul\":15937:15939   */\n      0x1f\n        /* \"#utility.yul\":15929:15935   */\n      dup4\n        /* \"#utility.yul\":15926:15940   */\n      gt\n        /* \"#utility.yul\":15954:15955   */\n      0x01\n        /* \"#utility.yul\":15949:16567   */\n      dup2\n      eq\n      tag_308\n      jumpi\n        /* \"#utility.yul\":16611:16612   */\n      0x00\n        /* \"#utility.yul\":16628:16634   */\n      dup5\n        /* \"#utility.yul\":16625:16702   */\n      iszero\n      tag_309\n      jumpi\n        /* \"#utility.yul\":16677:16686   */\n      dup3\n        /* \"#utility.yul\":16672:16675   */\n      dup8\n        /* \"#utility.yul\":16668:16687   */\n      add\n        /* \"#utility.yul\":16662:16688   */\n      mload\n        /* \"#utility.yul\":16653:16688   */\n      swap1\n      pop\n        /* \"#utility.yul\":16625:16702   */\n    tag_309:\n        /* \"#utility.yul\":16728:16795   */\n      tag_310\n        /* \"#utility.yul\":16788:16794   */\n      dup6\n        /* \"#utility.yul\":16781:16786   */\n      dup3\n        /* \"#utility.yul\":16728:16795   */\n      tag_144\n      jump\t// in\n    tag_310:\n        /* \"#utility.yul\":16722:16726   */\n      dup7\n        /* \"#utility.yul\":16715:16796   */\n      sstore\n        /* \"#utility.yul\":16584:16806   */\n      pop\n        /* \"#utility.yul\":15919:16806   */\n      jump(tag_307)\n        /* \"#utility.yul\":15949:16567   */\n    tag_308:\n        /* \"#utility.yul\":16001:16005   */\n      0x1f\n        /* \"#utility.yul\":15997:16006   */\n      not\n        /* \"#utility.yul\":15989:15995   */\n      dup5\n        /* \"#utility.yul\":15985:16007   */\n      and\n        /* \"#utility.yul\":16035:16072   */\n      tag_311\n        /* \"#utility.yul\":16067:16071   */\n      dup7\n        /* \"#utility.yul\":16035:16072   */\n      tag_130\n      jump\t// in\n    tag_311:\n        /* \"#utility.yul\":16094:16095   */\n      0x00\n        /* \"#utility.yul\":16108:16316   */\n    tag_312:\n        /* \"#utility.yul\":16122:16129   */\n      dup3\n        /* \"#utility.yul\":16119:16120   */\n      dup2\n        /* \"#utility.yul\":16116:16130   */\n      lt\n        /* \"#utility.yul\":16108:16316   */\n      iszero\n      tag_314\n      jumpi\n        /* \"#utility.yul\":16201:16210   */\n      dup5\n        /* \"#utility.yul\":16196:16199   */\n      dup10\n        /* \"#utility.yul\":16192:16211   */\n      add\n        /* \"#utility.yul\":16186:16212   */\n      mload\n        /* \"#utility.yul\":16178:16184   */\n      dup3\n        /* \"#utility.yul\":16171:16213   */\n      sstore\n        /* \"#utility.yul\":16252:16253   */\n      0x01\n        /* \"#utility.yul\":16244:16250   */\n      dup3\n        /* \"#utility.yul\":16240:16254   */\n      add\n        /* \"#utility.yul\":16230:16254   */\n      swap2\n      pop\n        /* \"#utility.yul\":16299:16301   */\n      0x20\n        /* \"#utility.yul\":16288:16297   */\n      dup6\n        /* \"#utility.yul\":16284:16302   */\n      add\n        /* \"#utility.yul\":16271:16302   */\n      swap5\n      pop\n        /* \"#utility.yul\":16145:16149   */\n      0x20\n        /* \"#utility.yul\":16142:16143   */\n      dup2\n        /* \"#utility.yul\":16138:16150   */\n      add\n        /* \"#utility.yul\":16133:16150   */\n      swap1\n      pop\n        /* \"#utility.yul\":16108:16316   */\n      jump(tag_312)\n    tag_314:\n        /* \"#utility.yul\":16344:16350   */\n      dup7\n        /* \"#utility.yul\":16335:16342   */\n      dup4\n        /* \"#utility.yul\":16332:16351   */\n      lt\n        /* \"#utility.yul\":16329:16508   */\n      iszero\n      tag_315\n      jumpi\n        /* \"#utility.yul\":16402:16411   */\n      dup5\n        /* \"#utility.yul\":16397:16400   */\n      dup10\n        /* \"#utility.yul\":16393:16412   */\n      add\n        /* \"#utility.yul\":16387:16413   */\n      mload\n        /* \"#utility.yul\":16445:16493   */\n      tag_316\n        /* \"#utility.yul\":16487:16491   */\n      0x1f\n        /* \"#utility.yul\":16479:16485   */\n      dup10\n        /* \"#utility.yul\":16475:16492   */\n      and\n        /* \"#utility.yul\":16464:16473   */\n      dup3\n        /* \"#utility.yul\":16445:16493   */\n      tag_143\n      jump\t// in\n    tag_316:\n        /* \"#utility.yul\":16437:16443   */\n      dup4\n        /* \"#utility.yul\":16430:16494   */\n      sstore\n        /* \"#utility.yul\":16352:16508   */\n      pop\n        /* \"#utility.yul\":16329:16508   */\n    tag_315:\n        /* \"#utility.yul\":16554:16555   */\n      0x01\n        /* \"#utility.yul\":16550:16551   */\n      0x02\n        /* \"#utility.yul\":16542:16548   */\n      dup9\n        /* \"#utility.yul\":16538:16552   */\n      mul\n        /* \"#utility.yul\":16534:16556   */\n      add\n        /* \"#utility.yul\":16528:16532   */\n      dup9\n        /* \"#utility.yul\":16521:16557   */\n      sstore\n        /* \"#utility.yul\":15956:16567   */\n      pop\n      pop\n      pop\n        /* \"#utility.yul\":15919:16806   */\n    tag_307:\n      pop\n        /* \"#utility.yul\":15509:16812   */\n      pop\n      pop\n      pop\n        /* \"#utility.yul\":15417:16812   */\n      pop\n      pop\n      jump\t// out\n\n    auxdata: 0xa2646970667358221220c6c4a4f6de9a6f4466a9875b2011c30df15adac02150718fb91ccfc51d951c4464736f6c63430008170033\n}\n",
				"bytecode": {
					"linkReferences": {},
					"object": "608060405234801561000f575f80fd5b506111b58061001d5f395ff3fe608060405234801561000f575f80fd5b5060043610610055575f3560e01c80632698286c14610059578063341fa05d146100895780634cd1ed3d146100a75780636dcb7896146100c3578063d2d50bd8146100cd575b5f80fd5b610073600480360381019061006e9190610949565b6100e9565b6040516100809190610b3f565b60405180910390f35b61009161033a565b60405161009e9190610b3f565b60405180910390f35b6100c160048036038101906100bc9190610bea565b610589565b005b6100cb610635565b005b6100e760048036038101906100e29190610cc1565b61067e565b005b60605f808373ffffffffffffffffffffffffffffffffffffffff1673ffffffffffffffffffffffffffffffffffffffff1681526020019081526020015f20805480602002602001604051908101604052809291908181526020015f905b8282101561032f578382905f5260205f2090600402016040518060800160405290815f8201805461017690610db2565b80601f01602080910402602001604051908101604052809291908181526020018280546101a290610db2565b80156101ed5780601f106101c4576101008083540402835291602001916101ed565b820191905f5260205f20905b8154815290600101906020018083116101d057829003601f168201915b5050505050815260200160018201805461020690610db2565b80601f016020809104026020016040519081016040528092919081815260200182805461023290610db2565b801561027d5780601f106102545761010080835404028352916020019161027d565b820191905f5260205f20905b81548152906001019060200180831161026057829003601f168201915b5050505050815260200160028201805461029690610db2565b80601f01602080910402602001604051908101604052809291908181526020018280546102c290610db2565b801561030d5780601f106102e45761010080835404028352916020019161030d565b820191905f5260205f20905b8154815290600101906020018083116102f057829003601f168201915b5050505050815260200160038201548152505081526020019060010190610146565b505050509050919050565b60605f803373ffffffffffffffffffffffffffffffffffffffff1673ffffffffffffffffffffffffffffffffffffffff1681526020019081526020015f20805480602002602001604051908101604052809291908181526020015f905b82821015610580578382905f5260205f2090600402016040518060800160405290815f820180546103c790610db2565b80601f01602080910402602001604051908101604052809291908181526020018280546103f390610db2565b801561043e5780601f106104155761010080835404028352916020019161043e565b820191905f5260205f20905b81548152906001019060200180831161042157829003601f168201915b5050505050815260200160018201805461045790610db2565b80601f016020809104026020016040519081016040528092919081815260200182805461048390610db2565b80156104ce5780601f106104a5576101008083540402835291602001916104ce565b820191905f5260205f20905b8154815290600101906020018083116104b157829003601f168201915b505050505081526020016002820180546104e790610db2565b80601f016020809104026020016040519081016040528092919081815260200182805461051390610db2565b801561055e5780601f106105355761010080835404028352916020019161055e565b820191905f5260205f20905b81548152906001019060200180831161054157829003601f168201915b5050505050815260200160038201548152505081526020019060010190610397565b50505050905090565b5f805f3373ffffffffffffffffffffffffffffffffffffffff1673ffffffffffffffffffffffffffffffffffffffff1681526020019081526020015f2089815481106105d8576105d7610de2565b5b905f5260205f20906004020190508787825f0191826105f8929190610fe3565b50858582600101918261060c929190610fe3565b508383826002019182610620929190610fe3565b50818160030181905550505050505050505050565b5f803373ffffffffffffffffffffffffffffffffffffffff1673ffffffffffffffffffffffffffffffffffffffff1681526020019081526020015f205f61067c9190610824565b565b5f604051806080016040528089898080601f0160208091040260200160405190810160405280939291908181526020018383808284375f81840152601f19601f82011690508083019250505050505050815260200187878080601f0160208091040260200160405190810160405280939291908181526020018383808284375f81840152601f19601f82011690508083019250505050505050815260200185858080601f0160208091040260200160405190810160405280939291908181526020018383808284375f81840152601f19601f8201169050808301925050505050505081526020018381525090505f803373ffffffffffffffffffffffffffffffffffffffff1673ffffffffffffffffffffffffffffffffffffffff1681526020019081526020015f2081908060018154018082558091505060019003905f5260205f2090600402015f909190919091505f820151815f0190816107e191906110b0565b5060208201518160010190816107f791906110b0565b50604082015181600201908161080d91906110b0565b506060820151816003015550505050505050505050565b5080545f8255600402905f5260205f20908101906108429190610845565b50565b5b8082111561088b575f8082015f61085d919061088f565b600182015f61086c919061088f565b600282015f61087b919061088f565b600382015f905550600401610846565b5090565b50805461089b90610db2565b5f825580601f106108ac57506108c9565b601f0160209004905f5260205f20908101906108c891906108cc565b5b50565b5b808211156108e3575f815f9055506001016108cd565b5090565b5f80fd5b5f80fd5b5f73ffffffffffffffffffffffffffffffffffffffff82169050919050565b5f610918826108ef565b9050919050565b6109288161090e565b8114610932575f80fd5b50565b5f813590506109438161091f565b92915050565b5f6020828403121561095e5761095d6108e7565b5b5f61096b84828501610935565b91505092915050565b5f81519050919050565b5f82825260208201905092915050565b5f819050602082019050919050565b5f81519050919050565b5f82825260208201905092915050565b5f5b838110156109d45780820151818401526020810190506109b9565b5f8484015250505050565b5f601f19601f8301169050919050565b5f6109f98261099d565b610a0381856109a7565b9350610a138185602086016109b7565b610a1c816109df565b840191505092915050565b5f819050919050565b610a3981610a27565b82525050565b5f608083015f8301518482035f860152610a5982826109ef565b91505060208301518482036020860152610a7382826109ef565b91505060408301518482036040860152610a8d82826109ef565b9150506060830151610aa26060860182610a30565b508091505092915050565b5f610ab88383610a3f565b905092915050565b5f602082019050919050565b5f610ad682610974565b610ae0818561097e565b935083602082028501610af28561098e565b805f5b85811015610b2d5784840389528151610b0e8582610aad565b9450610b1983610ac0565b925060208a01995050600181019050610af5565b50829750879550505050505092915050565b5f6020820190508181035f830152610b578184610acc565b905092915050565b610b6881610a27565b8114610b72575f80fd5b50565b5f81359050610b8381610b5f565b92915050565b5f80fd5b5f80fd5b5f80fd5b5f8083601f840112610baa57610ba9610b89565b5b8235905067ffffffffffffffff811115610bc757610bc6610b8d565b5b602083019150836001820283011115610be357610be2610b91565b5b9250929050565b5f805f805f805f8060a0898b031215610c0657610c056108e7565b5b5f610c138b828c01610b75565b985050602089013567ffffffffffffffff811115610c3457610c336108eb565b5b610c408b828c01610b95565b9750975050604089013567ffffffffffffffff811115610c6357610c626108eb565b5b610c6f8b828c01610b95565b9550955050606089013567ffffffffffffffff811115610c9257610c916108eb565b5b610c9e8b828c01610b95565b93509350506080610cb18b828c01610b75565b9150509295985092959890939650565b5f805f805f805f6080888a031215610cdc57610cdb6108e7565b5b5f88013567ffffffffffffffff811115610cf957610cf86108eb565b5b610d058a828b01610b95565b9750975050602088013567ffffffffffffffff811115610d2857610d276108eb565b5b610d348a828b01610b95565b9550955050604088013567ffffffffffffffff811115610d5757610d566108eb565b5b610d638a828b01610b95565b93509350506060610d768a828b01610b75565b91505092959891949750929550565b7f4e487b71000000000000000000000000000000000000000000000000000000005f52602260045260245ffd5b5f6002820490506001821680610dc957607f821691505b602082108103610ddc57610ddb610d85565b5b50919050565b7f4e487b71000000000000000000000000000000000000000000000000000000005f52603260045260245ffd5b5f82905092915050565b7f4e487b71000000000000000000000000000000000000000000000000000000005f52604160045260245ffd5b5f819050815f5260205f209050919050565b5f6020601f8301049050919050565b5f82821b905092915050565b5f60088302610ea27fffffffffffffffffffffffffffffffffffffffffffffffffffffffffffffffff82610e67565b610eac8683610e67565b95508019841693508086168417925050509392505050565b5f819050919050565b5f610ee7610ee2610edd84610a27565b610ec4565b610a27565b9050919050565b5f819050919050565b610f0083610ecd565b610f14610f0c82610eee565b848454610e73565b825550505050565b5f90565b610f28610f1c565b610f33818484610ef7565b505050565b5b81811015610f5657610f4b5f82610f20565b600181019050610f39565b5050565b601f821115610f9b57610f6c81610e46565b610f7584610e58565b81016020851015610f84578190505b610f98610f9085610e58565b830182610f38565b50505b505050565b5f82821c905092915050565b5f610fbb5f1984600802610fa0565b1980831691505092915050565b5f610fd38383610fac565b9150826002028217905092915050565b610fed8383610e0f565b67ffffffffffffffff81111561100657611005610e19565b5b6110108254610db2565b61101b828285610f5a565b5f601f831160018114611048575f8415611036578287013590505b6110408582610fc8565b8655506110a7565b601f19841661105686610e46565b5f5b8281101561107d57848901358255600182019150602085019450602081019050611058565b8683101561109a5784890135611096601f891682610fac565b8355505b6001600288020188555050505b50505050505050565b6110b98261099d565b67ffffffffffffffff8111156110d2576110d1610e19565b5b6110dc8254610db2565b6110e7828285610f5a565b5f60209050601f831160018114611118575f8415611106578287015190505b6111108582610fc8565b865550611177565b601f19841661112686610e46565b5f5b8281101561114d57848901518255600182019150602085019450602081019050611128565b8683101561116a5784890151611166601f891682610fac565b8355505b6001600288020188555050505b50505050505056fea2646970667358221220c6c4a4f6de9a6f4466a9875b2011c30df15adac02150718fb91ccfc51d951c4464736f6c63430008170033",
					"opcodes": "PUSH1 0x80 PUSH1 0x40 MSTORE CALLVALUE DUP1 ISZERO PUSH2 0xF JUMPI PUSH0 DUP1 REVERT JUMPDEST POP PUSH2 0x11B5 DUP1 PUSH2 0x1D PUSH0 CODECOPY PUSH0 RETURN INVALID PUSH1 0x80 PUSH1 0x40 MSTORE CALLVALUE DUP1 ISZERO PUSH2 0xF JUMPI PUSH0 DUP1 REVERT JUMPDEST POP PUSH1 0x4 CALLDATASIZE LT PUSH2 0x55 JUMPI PUSH0 CALLDATALOAD PUSH1 0xE0 SHR DUP1 PUSH4 0x2698286C EQ PUSH2 0x59 JUMPI DUP1 PUSH4 0x341FA05D EQ PUSH2 0x89 JUMPI DUP1 PUSH4 0x4CD1ED3D EQ PUSH2 0xA7 JUMPI DUP1 PUSH4 0x6DCB7896 EQ PUSH2 0xC3 JUMPI DUP1 PUSH4 0xD2D50BD8 EQ PUSH2 0xCD JUMPI JUMPDEST PUSH0 DUP1 REVERT JUMPDEST PUSH2 0x73 PUSH1 0x4 DUP1 CALLDATASIZE SUB DUP2 ADD SWAP1 PUSH2 0x6E SWAP2 SWAP1 PUSH2 0x949 JUMP JUMPDEST PUSH2 0xE9 JUMP JUMPDEST PUSH1 0x40 MLOAD PUSH2 0x80 SWAP2 SWAP1 PUSH2 0xB3F JUMP JUMPDEST PUSH1 0x40 MLOAD DUP1 SWAP2 SUB SWAP1 RETURN JUMPDEST PUSH2 0x91 PUSH2 0x33A JUMP JUMPDEST PUSH1 0x40 MLOAD PUSH2 0x9E SWAP2 SWAP1 PUSH2 0xB3F JUMP JUMPDEST PUSH1 0x40 MLOAD DUP1 SWAP2 SUB SWAP1 RETURN JUMPDEST PUSH2 0xC1 PUSH1 0x4 DUP1 CALLDATASIZE SUB DUP2 ADD SWAP1 PUSH2 0xBC SWAP2 SWAP1 PUSH2 0xBEA JUMP JUMPDEST PUSH2 0x589 JUMP JUMPDEST STOP JUMPDEST PUSH2 0xCB PUSH2 0x635 JUMP JUMPDEST STOP JUMPDEST PUSH2 0xE7 PUSH1 0x4 DUP1 CALLDATASIZE SUB DUP2 ADD SWAP1 PUSH2 0xE2 SWAP2 SWAP1 PUSH2 0xCC1 JUMP JUMPDEST PUSH2 0x67E JUMP JUMPDEST STOP JUMPDEST PUSH1 0x60 PUSH0 DUP1 DUP4 PUSH20 0xFFFFFFFFFFFFFFFFFFFFFFFFFFFFFFFFFFFFFFFF AND PUSH20 0xFFFFFFFFFFFFFFFFFFFFFFFFFFFFFFFFFFFFFFFF AND DUP2 MSTORE PUSH1 0x20 ADD SWAP1 DUP2 MSTORE PUSH1 0x20 ADD PUSH0 KECCAK256 DUP1 SLOAD DUP1 PUSH1 0x20 MUL PUSH1 0x20 ADD PUSH1 0x40 MLOAD SWAP1 DUP2 ADD PUSH1 0x40 MSTORE DUP1 SWAP3 SWAP2 SWAP1 DUP2 DUP2 MSTORE PUSH1 0x20 ADD PUSH0 SWAP1 JUMPDEST DUP3 DUP3 LT ISZERO PUSH2 0x32F JUMPI DUP4 DUP3 SWAP1 PUSH0 MSTORE PUSH1 0x20 PUSH0 KECCAK256 SWAP1 PUSH1 0x4 MUL ADD PUSH1 0x40 MLOAD DUP1 PUSH1 0x80 ADD PUSH1 0x40 MSTORE SWAP1 DUP2 PUSH0 DUP3 ADD DUP1 SLOAD PUSH2 0x176 SWAP1 PUSH2 0xDB2 JUMP JUMPDEST DUP1 PUSH1 0x1F ADD PUSH1 0x20 DUP1 SWAP2 DIV MUL PUSH1 0x20 ADD PUSH1 0x40 MLOAD SWAP1 DUP2 ADD PUSH1 0x40 MSTORE DUP1 SWAP3 SWAP2 SWAP1 DUP2 DUP2 MSTORE PUSH1 0x20 ADD DUP3 DUP1 SLOAD PUSH2 0x1A2 SWAP1 PUSH2 0xDB2 JUMP JUMPDEST DUP1 ISZERO PUSH2 0x1ED JUMPI DUP1 PUSH1 0x1F LT PUSH2 0x1C4 JUMPI PUSH2 0x100 DUP1 DUP4 SLOAD DIV MUL DUP4 MSTORE SWAP2 PUSH1 0x20 ADD SWAP2 PUSH2 0x1ED JUMP JUMPDEST DUP3 ADD SWAP2 SWAP1 PUSH0 MSTORE PUSH1 0x20 PUSH0 KECCAK256 SWAP1 JUMPDEST DUP2 SLOAD DUP2 MSTORE SWAP1 PUSH1 0x1 ADD SWAP1 PUSH1 0x20 ADD DUP1 DUP4 GT PUSH2 0x1D0 JUMPI DUP3 SWAP1 SUB PUSH1 0x1F AND DUP3 ADD SWAP2 JUMPDEST POP POP POP POP POP DUP2 MSTORE PUSH1 0x20 ADD PUSH1 0x1 DUP3 ADD DUP1 SLOAD PUSH2 0x206 SWAP1 PUSH2 0xDB2 JUMP JUMPDEST DUP1 PUSH1 0x1F ADD PUSH1 0x20 DUP1 SWAP2 DIV MUL PUSH1 0x20 ADD PUSH1 0x40 MLOAD SWAP1 DUP2 ADD PUSH1 0x40 MSTORE DUP1 SWAP3 SWAP2 SWAP1 DUP2 DUP2 MSTORE PUSH1 0x20 ADD DUP3 DUP1 SLOAD PUSH2 0x232 SWAP1 PUSH2 0xDB2 JUMP JUMPDEST DUP1 ISZERO PUSH2 0x27D JUMPI DUP1 PUSH1 0x1F LT PUSH2 0x254 JUMPI PUSH2 0x100 DUP1 DUP4 SLOAD DIV MUL DUP4 MSTORE SWAP2 PUSH1 0x20 ADD SWAP2 PUSH2 0x27D JUMP JUMPDEST DUP3 ADD SWAP2 SWAP1 PUSH0 MSTORE PUSH1 0x20 PUSH0 KECCAK256 SWAP1 JUMPDEST DUP2 SLOAD DUP2 MSTORE SWAP1 PUSH1 0x1 ADD SWAP1 PUSH1 0x20 ADD DUP1 DUP4 GT PUSH2 0x260 JUMPI DUP3 SWAP1 SUB PUSH1 0x1F AND DUP3 ADD SWAP2 JUMPDEST POP POP POP POP POP DUP2 MSTORE PUSH1 0x20 ADD PUSH1 0x2 DUP3 ADD DUP1 SLOAD PUSH2 0x296 SWAP1 PUSH2 0xDB2 JUMP JUMPDEST DUP1 PUSH1 0x1F ADD PUSH1 0x20 DUP1 SWAP2 DIV MUL PUSH1 0x20 ADD PUSH1 0x40 MLOAD SWAP1 DUP2 ADD PUSH1 0x40 MSTORE DUP1 SWAP3 SWAP2 SWAP1 DUP2 DUP2 MSTORE PUSH1 0x20 ADD DUP3 DUP1 SLOAD PUSH2 0x2C2 SWAP1 PUSH2 0xDB2 JUMP JUMPDEST DUP1 ISZERO PUSH2 0x30D JUMPI DUP1 PUSH1 0x1F LT PUSH2 0x2E4 JUMPI PUSH2 0x100 DUP1 DUP4 SLOAD DIV MUL DUP4 MSTORE SWAP2 PUSH1 0x20 ADD SWAP2 PUSH2 0x30D JUMP JUMPDEST DUP3 ADD SWAP2 SWAP1 PUSH0 MSTORE PUSH1 0x20 PUSH0 KECCAK256 SWAP1 JUMPDEST DUP2 SLOAD DUP2 MSTORE SWAP1 PUSH1 0x1 ADD SWAP1 PUSH1 0x20 ADD DUP1 DUP4 GT PUSH2 0x2F0 JUMPI DUP3 SWAP1 SUB PUSH1 0x1F AND DUP3 ADD SWAP2 JUMPDEST POP POP POP POP POP DUP2 MSTORE PUSH1 0x20 ADD PUSH1 0x3 DUP3 ADD SLOAD DUP2 MSTORE POP POP DUP2 MSTORE PUSH1 0x20 ADD SWAP1 PUSH1 0x1 ADD SWAP1 PUSH2 0x146 JUMP JUMPDEST POP POP POP POP SWAP1 POP SWAP2 SWAP1 POP JUMP JUMPDEST PUSH1 0x60 PUSH0 DUP1 CALLER PUSH20 0xFFFFFFFFFFFFFFFFFFFFFFFFFFFFFFFFFFFFFFFF AND PUSH20 0xFFFFFFFFFFFFFFFFFFFFFFFFFFFFFFFFFFFFFFFF AND DUP2 MSTORE PUSH1 0x20 ADD SWAP1 DUP2 MSTORE PUSH1 0x20 ADD PUSH0 KECCAK256 DUP1 SLOAD DUP1 PUSH1 0x20 MUL PUSH1 0x20 ADD PUSH1 0x40 MLOAD SWAP1 DUP2 ADD PUSH1 0x40 MSTORE DUP1 SWAP3 SWAP2 SWAP1 DUP2 DUP2 MSTORE PUSH1 0x20 ADD PUSH0 SWAP1 JUMPDEST DUP3 DUP3 LT ISZERO PUSH2 0x580 JUMPI DUP4 DUP3 SWAP1 PUSH0 MSTORE PUSH1 0x20 PUSH0 KECCAK256 SWAP1 PUSH1 0x4 MUL ADD PUSH1 0x40 MLOAD DUP1 PUSH1 0x80 ADD PUSH1 0x40 MSTORE SWAP1 DUP2 PUSH0 DUP3 ADD DUP1 SLOAD PUSH2 0x3C7 SWAP1 PUSH2 0xDB2 JUMP JUMPDEST DUP1 PUSH1 0x1F ADD PUSH1 0x20 DUP1 SWAP2 DIV MUL PUSH1 0x20 ADD PUSH1 0x40 MLOAD SWAP1 DUP2 ADD PUSH1 0x40 MSTORE DUP1 SWAP3 SWAP2 SWAP1 DUP2 DUP2 MSTORE PUSH1 0x20 ADD DUP3 DUP1 SLOAD PUSH2 0x3F3 SWAP1 PUSH2 0xDB2 JUMP JUMPDEST DUP1 ISZERO PUSH2 0x43E JUMPI DUP1 PUSH1 0x1F LT PUSH2 0x415 JUMPI PUSH2 0x100 DUP1 DUP4 SLOAD DIV MUL DUP4 MSTORE SWAP2 PUSH1 0x20 ADD SWAP2 PUSH2 0x43E JUMP JUMPDEST DUP3 ADD SWAP2 SWAP1 PUSH0 MSTORE PUSH1 0x20 PUSH0 KECCAK256 SWAP1 JUMPDEST DUP2 SLOAD DUP2 MSTORE SWAP1 PUSH1 0x1 ADD SWAP1 PUSH1 0x20 ADD DUP1 DUP4 GT PUSH2 0x421 JUMPI DUP3 SWAP1 SUB PUSH1 0x1F AND DUP3 ADD SWAP2 JUMPDEST POP POP POP POP POP DUP2 MSTORE PUSH1 0x20 ADD PUSH1 0x1 DUP3 ADD DUP1 SLOAD PUSH2 0x457 SWAP1 PUSH2 0xDB2 JUMP JUMPDEST DUP1 PUSH1 0x1F ADD PUSH1 0x20 DUP1 SWAP2 DIV MUL PUSH1 0x20 ADD PUSH1 0x40 MLOAD SWAP1 DUP2 ADD PUSH1 0x40 MSTORE DUP1 SWAP3 SWAP2 SWAP1 DUP2 DUP2 MSTORE PUSH1 0x20 ADD DUP3 DUP1 SLOAD PUSH2 0x483 SWAP1 PUSH2 0xDB2 JUMP JUMPDEST DUP1 ISZERO PUSH2 0x4CE JUMPI DUP1 PUSH1 0x1F LT PUSH2 0x4A5 JUMPI PUSH2 0x100 DUP1 DUP4 SLOAD DIV MUL DUP4 MSTORE SWAP2 PUSH1 0x20 ADD SWAP2 PUSH2 0x4CE JUMP JUMPDEST DUP3 ADD SWAP2 SWAP1 PUSH0 MSTORE PUSH1 0x20 PUSH0 KECCAK256 SWAP1 JUMPDEST DUP2 SLOAD DUP2 MSTORE SWAP1 PUSH1 0x1 ADD SWAP1 PUSH1 0x20 ADD DUP1 DUP4 GT PUSH2 0x4B1 JUMPI DUP3 SWAP1 SUB PUSH1 0x1F AND DUP3 ADD SWAP2 JUMPDEST POP POP POP POP POP DUP2 MSTORE PUSH1 0x20 ADD PUSH1 0x2 DUP3 ADD DUP1 SLOAD PUSH2 0x4E7 SWAP1 PUSH2 0xDB2 JUMP JUMPDEST DUP1 PUSH1 0x1F ADD PUSH1 0x20 DUP1 SWAP2 DIV MUL PUSH1 0x20 ADD PUSH1 0x40 MLOAD SWAP1 DUP2 ADD PUSH1 0x40 MSTORE DUP1 SWAP3 SWAP2 SWAP1 DUP2 DUP2 MSTORE PUSH1 0x20 ADD DUP3 DUP1 SLOAD PUSH2 0x513 SWAP1 PUSH2 0xDB2 JUMP JUMPDEST DUP1 ISZERO PUSH2 0x55E JUMPI DUP1 PUSH1 0x1F LT PUSH2 0x535 JUMPI PUSH2 0x100 DUP1 DUP4 SLOAD DIV MUL DUP4 MSTORE SWAP2 PUSH1 0x20 ADD SWAP2 PUSH2 0x55E JUMP JUMPDEST DUP3 ADD SWAP2 SWAP1 PUSH0 MSTORE PUSH1 0x20 PUSH0 KECCAK256 SWAP1 JUMPDEST DUP2 SLOAD DUP2 MSTORE SWAP1 PUSH1 0x1 ADD SWAP1 PUSH1 0x20 ADD DUP1 DUP4 GT PUSH2 0x541 JUMPI DUP3 SWAP1 SUB PUSH1 0x1F AND DUP3 ADD SWAP2 JUMPDEST POP POP POP POP POP DUP2 MSTORE PUSH1 0x20 ADD PUSH1 0x3 DUP3 ADD SLOAD DUP2 MSTORE POP POP DUP2 MSTORE PUSH1 0x20 ADD SWAP1 PUSH1 0x1 ADD SWAP1 PUSH2 0x397 JUMP JUMPDEST POP POP POP POP SWAP1 POP SWAP1 JUMP JUMPDEST PUSH0 DUP1 PUSH0 CALLER PUSH20 0xFFFFFFFFFFFFFFFFFFFFFFFFFFFFFFFFFFFFFFFF AND PUSH20 0xFFFFFFFFFFFFFFFFFFFFFFFFFFFFFFFFFFFFFFFF AND DUP2 MSTORE PUSH1 0x20 ADD SWAP1 DUP2 MSTORE PUSH1 0x20 ADD PUSH0 KECCAK256 DUP10 DUP2 SLOAD DUP2 LT PUSH2 0x5D8 JUMPI PUSH2 0x5D7 PUSH2 0xDE2 JUMP JUMPDEST JUMPDEST SWAP1 PUSH0 MSTORE PUSH1 0x20 PUSH0 KECCAK256 SWAP1 PUSH1 0x4 MUL ADD SWAP1 POP DUP8 DUP8 DUP3 PUSH0 ADD SWAP2 DUP3 PUSH2 0x5F8 SWAP3 SWAP2 SWAP1 PUSH2 0xFE3 JUMP JUMPDEST POP DUP6 DUP6 DUP3 PUSH1 0x1 ADD SWAP2 DUP3 PUSH2 0x60C SWAP3 SWAP2 SWAP1 PUSH2 0xFE3 JUMP JUMPDEST POP DUP4 DUP4 DUP3 PUSH1 0x2 ADD SWAP2 DUP3 PUSH2 0x620 SWAP3 SWAP2 SWAP1 PUSH2 0xFE3 JUMP JUMPDEST POP DUP2 DUP2 PUSH1 0x3 ADD DUP2 SWAP1 SSTORE POP POP POP POP POP POP POP POP POP POP JUMP JUMPDEST PUSH0 DUP1 CALLER PUSH20 0xFFFFFFFFFFFFFFFFFFFFFFFFFFFFFFFFFFFFFFFF AND PUSH20 0xFFFFFFFFFFFFFFFFFFFFFFFFFFFFFFFFFFFFFFFF AND DUP2 MSTORE PUSH1 0x20 ADD SWAP1 DUP2 MSTORE PUSH1 0x20 ADD PUSH0 KECCAK256 PUSH0 PUSH2 0x67C SWAP2 SWAP1 PUSH2 0x824 JUMP JUMPDEST JUMP JUMPDEST PUSH0 PUSH1 0x40 MLOAD DUP1 PUSH1 0x80 ADD PUSH1 0x40 MSTORE DUP1 DUP10 DUP10 DUP1 DUP1 PUSH1 0x1F ADD PUSH1 0x20 DUP1 SWAP2 DIV MUL PUSH1 0x20 ADD PUSH1 0x40 MLOAD SWAP1 DUP2 ADD PUSH1 0x40 MSTORE DUP1 SWAP4 SWAP3 SWAP2 SWAP1 DUP2 DUP2 MSTORE PUSH1 0x20 ADD DUP4 DUP4 DUP1 DUP3 DUP5 CALLDATACOPY PUSH0 DUP2 DUP5 ADD MSTORE PUSH1 0x1F NOT PUSH1 0x1F DUP3 ADD AND SWAP1 POP DUP1 DUP4 ADD SWAP3 POP POP POP POP POP POP POP DUP2 MSTORE PUSH1 0x20 ADD DUP8 DUP8 DUP1 DUP1 PUSH1 0x1F ADD PUSH1 0x20 DUP1 SWAP2 DIV MUL PUSH1 0x20 ADD PUSH1 0x40 MLOAD SWAP1 DUP2 ADD PUSH1 0x40 MSTORE DUP1 SWAP4 SWAP3 SWAP2 SWAP1 DUP2 DUP2 MSTORE PUSH1 0x20 ADD DUP4 DUP4 DUP1 DUP3 DUP5 CALLDATACOPY PUSH0 DUP2 DUP5 ADD MSTORE PUSH1 0x1F NOT PUSH1 0x1F DUP3 ADD AND SWAP1 POP DUP1 DUP4 ADD SWAP3 POP POP POP POP POP POP POP DUP2 MSTORE PUSH1 0x20 ADD DUP6 DUP6 DUP1 DUP1 PUSH1 0x1F ADD PUSH1 0x20 DUP1 SWAP2 DIV MUL PUSH1 0x20 ADD PUSH1 0x40 MLOAD SWAP1 DUP2 ADD PUSH1 0x40 MSTORE DUP1 SWAP4 SWAP3 SWAP2 SWAP1 DUP2 DUP2 MSTORE PUSH1 0x20 ADD DUP4 DUP4 DUP1 DUP3 DUP5 CALLDATACOPY PUSH0 DUP2 DUP5 ADD MSTORE PUSH1 0x1F NOT PUSH1 0x1F DUP3 ADD AND SWAP1 POP DUP1 DUP4 ADD SWAP3 POP POP POP POP POP POP POP DUP2 MSTORE PUSH1 0x20 ADD DUP4 DUP2 MSTORE POP SWAP1 POP PUSH0 DUP1 CALLER PUSH20 0xFFFFFFFFFFFFFFFFFFFFFFFFFFFFFFFFFFFFFFFF AND PUSH20 0xFFFFFFFFFFFFFFFFFFFFFFFFFFFFFFFFFFFFFFFF AND DUP2 MSTORE PUSH1 0x20 ADD SWAP1 DUP2 MSTORE PUSH1 0x20 ADD PUSH0 KECCAK256 DUP2 SWAP1 DUP1 PUSH1 0x1 DUP2 SLOAD ADD DUP1 DUP3 SSTORE DUP1 SWAP2 POP POP PUSH1 0x1 SWAP1 SUB SWAP1 PUSH0 MSTORE PUSH1 0x20 PUSH0 KECCAK256 SWAP1 PUSH1 0x4 MUL ADD PUSH0 SWAP1 SWAP2 SWAP1 SWAP2 SWAP1 SWAP2 POP PUSH0 DUP3 ADD MLOAD DUP2 PUSH0 ADD SWAP1 DUP2 PUSH2 0x7E1 SWAP2 SWAP1 PUSH2 0x10B0 JUMP JUMPDEST POP PUSH1 0x20 DUP3 ADD MLOAD DUP2 PUSH1 0x1 ADD SWAP1 DUP2 PUSH2 0x7F7 SWAP2 SWAP1 PUSH2 0x10B0 JUMP JUMPDEST POP PUSH1 0x40 DUP3 ADD MLOAD DUP2 PUSH1 0x2 ADD SWAP1 DUP2 PUSH2 0x80D SWAP2 SWAP1 PUSH2 0x10B0 JUMP JUMPDEST POP PUSH1 0x60 DUP3 ADD MLOAD DUP2 PUSH1 0x3 ADD SSTORE POP POP POP POP POP POP POP POP POP POP JUMP JUMPDEST POP DUP1 SLOAD PUSH0 DUP3 SSTORE PUSH1 0x4 MUL SWAP1 PUSH0 MSTORE PUSH1 0x20 PUSH0 KECCAK256 SWAP1 DUP2 ADD SWAP1 PUSH2 0x842 SWAP2 SWAP1 PUSH2 0x845 JUMP JUMPDEST POP JUMP JUMPDEST JUMPDEST DUP1 DUP3 GT ISZERO PUSH2 0x88B JUMPI PUSH0 DUP1 DUP3 ADD PUSH0 PUSH2 0x85D SWAP2 SWAP1 PUSH2 0x88F JUMP JUMPDEST PUSH1 0x1 DUP3 ADD PUSH0 PUSH2 0x86C SWAP2 SWAP1 PUSH2 0x88F JUMP JUMPDEST PUSH1 0x2 DUP3 ADD PUSH0 PUSH2 0x87B SWAP2 SWAP1 PUSH2 0x88F JUMP JUMPDEST PUSH1 0x3 DUP3 ADD PUSH0 SWAP1 SSTORE POP PUSH1 0x4 ADD PUSH2 0x846 JUMP JUMPDEST POP SWAP1 JUMP JUMPDEST POP DUP1 SLOAD PUSH2 0x89B SWAP1 PUSH2 0xDB2 JUMP JUMPDEST PUSH0 DUP3 SSTORE DUP1 PUSH1 0x1F LT PUSH2 0x8AC JUMPI POP PUSH2 0x8C9 JUMP JUMPDEST PUSH1 0x1F ADD PUSH1 0x20 SWAP1 DIV SWAP1 PUSH0 MSTORE PUSH1 0x20 PUSH0 KECCAK256 SWAP1 DUP2 ADD SWAP1 PUSH2 0x8C8 SWAP2 SWAP1 PUSH2 0x8CC JUMP JUMPDEST JUMPDEST POP JUMP JUMPDEST JUMPDEST DUP1 DUP3 GT ISZERO PUSH2 0x8E3 JUMPI PUSH0 DUP2 PUSH0 SWAP1 SSTORE POP PUSH1 0x1 ADD PUSH2 0x8CD JUMP JUMPDEST POP SWAP1 JUMP JUMPDEST PUSH0 DUP1 REVERT JUMPDEST PUSH0 DUP1 REVERT JUMPDEST PUSH0 PUSH20 0xFFFFFFFFFFFFFFFFFFFFFFFFFFFFFFFFFFFFFFFF DUP3 AND SWAP1 POP SWAP2 SWAP1 POP JUMP JUMPDEST PUSH0 PUSH2 0x918 DUP3 PUSH2 0x8EF JUMP JUMPDEST SWAP1 POP SWAP2 SWAP1 POP JUMP JUMPDEST PUSH2 0x928 DUP2 PUSH2 0x90E JUMP JUMPDEST DUP2 EQ PUSH2 0x932 JUMPI PUSH0 DUP1 REVERT JUMPDEST POP JUMP JUMPDEST PUSH0 DUP2 CALLDATALOAD SWAP1 POP PUSH2 0x943 DUP2 PUSH2 0x91F JUMP JUMPDEST SWAP3 SWAP2 POP POP JUMP JUMPDEST PUSH0 PUSH1 0x20 DUP3 DUP5 SUB SLT ISZERO PUSH2 0x95E JUMPI PUSH2 0x95D PUSH2 0x8E7 JUMP JUMPDEST JUMPDEST PUSH0 PUSH2 0x96B DUP5 DUP3 DUP6 ADD PUSH2 0x935 JUMP JUMPDEST SWAP2 POP POP SWAP3 SWAP2 POP POP JUMP JUMPDEST PUSH0 DUP2 MLOAD SWAP1 POP SWAP2 SWAP1 POP JUMP JUMPDEST PUSH0 DUP3 DUP3 MSTORE PUSH1 0x20 DUP3 ADD SWAP1 POP SWAP3 SWAP2 POP POP JUMP JUMPDEST PUSH0 DUP2 SWAP1 POP PUSH1 0x20 DUP3 ADD SWAP1 POP SWAP2 SWAP1 POP JUMP JUMPDEST PUSH0 DUP2 MLOAD SWAP1 POP SWAP2 SWAP1 POP JUMP JUMPDEST PUSH0 DUP3 DUP3 MSTORE PUSH1 0x20 DUP3 ADD SWAP1 POP SWAP3 SWAP2 POP POP JUMP JUMPDEST PUSH0 JUMPDEST DUP4 DUP2 LT ISZERO PUSH2 0x9D4 JUMPI DUP1 DUP3 ADD MLOAD DUP2 DUP5 ADD MSTORE PUSH1 0x20 DUP2 ADD SWAP1 POP PUSH2 0x9B9 JUMP JUMPDEST PUSH0 DUP5 DUP5 ADD MSTORE POP POP POP POP JUMP JUMPDEST PUSH0 PUSH1 0x1F NOT PUSH1 0x1F DUP4 ADD AND SWAP1 POP SWAP2 SWAP1 POP JUMP JUMPDEST PUSH0 PUSH2 0x9F9 DUP3 PUSH2 0x99D JUMP JUMPDEST PUSH2 0xA03 DUP2 DUP6 PUSH2 0x9A7 JUMP JUMPDEST SWAP4 POP PUSH2 0xA13 DUP2 DUP6 PUSH1 0x20 DUP7 ADD PUSH2 0x9B7 JUMP JUMPDEST PUSH2 0xA1C DUP2 PUSH2 0x9DF JUMP JUMPDEST DUP5 ADD SWAP2 POP POP SWAP3 SWAP2 POP POP JUMP JUMPDEST PUSH0 DUP2 SWAP1 POP SWAP2 SWAP1 POP JUMP JUMPDEST PUSH2 0xA39 DUP2 PUSH2 0xA27 JUMP JUMPDEST DUP3 MSTORE POP POP JUMP JUMPDEST PUSH0 PUSH1 0x80 DUP4 ADD PUSH0 DUP4 ADD MLOAD DUP5 DUP3 SUB PUSH0 DUP7 ADD MSTORE PUSH2 0xA59 DUP3 DUP3 PUSH2 0x9EF JUMP JUMPDEST SWAP2 POP POP PUSH1 0x20 DUP4 ADD MLOAD DUP5 DUP3 SUB PUSH1 0x20 DUP7 ADD MSTORE PUSH2 0xA73 DUP3 DUP3 PUSH2 0x9EF JUMP JUMPDEST SWAP2 POP POP PUSH1 0x40 DUP4 ADD MLOAD DUP5 DUP3 SUB PUSH1 0x40 DUP7 ADD MSTORE PUSH2 0xA8D DUP3 DUP3 PUSH2 0x9EF JUMP JUMPDEST SWAP2 POP POP PUSH1 0x60 DUP4 ADD MLOAD PUSH2 0xAA2 PUSH1 0x60 DUP7 ADD DUP3 PUSH2 0xA30 JUMP JUMPDEST POP DUP1 SWAP2 POP POP SWAP3 SWAP2 POP POP JUMP JUMPDEST PUSH0 PUSH2 0xAB8 DUP4 DUP4 PUSH2 0xA3F JUMP JUMPDEST SWAP1 POP SWAP3 SWAP2 POP POP JUMP JUMPDEST PUSH0 PUSH1 0x20 DUP3 ADD SWAP1 POP SWAP2 SWAP1 POP JUMP JUMPDEST PUSH0 PUSH2 0xAD6 DUP3 PUSH2 0x974 JUMP JUMPDEST PUSH2 0xAE0 DUP2 DUP6 PUSH2 0x97E JUMP JUMPDEST SWAP4 POP DUP4 PUSH1 0x20 DUP3 MUL DUP6 ADD PUSH2 0xAF2 DUP6 PUSH2 0x98E JUMP JUMPDEST DUP1 PUSH0 JUMPDEST DUP6 DUP2 LT ISZERO PUSH2 0xB2D JUMPI DUP5 DUP5 SUB DUP10 MSTORE DUP2 MLOAD PUSH2 0xB0E DUP6 DUP3 PUSH2 0xAAD JUMP JUMPDEST SWAP5 POP PUSH2 0xB19 DUP4 PUSH2 0xAC0 JUMP JUMPDEST SWAP3 POP PUSH1 0x20 DUP11 ADD SWAP10 POP POP PUSH1 0x1 DUP2 ADD SWAP1 POP PUSH2 0xAF5 JUMP JUMPDEST POP DUP3 SWAP8 POP DUP8 SWAP6 POP POP POP POP POP POP SWAP3 SWAP2 POP POP JUMP JUMPDEST PUSH0 PUSH1 0x20 DUP3 ADD SWAP1 POP DUP2 DUP2 SUB PUSH0 DUP4 ADD MSTORE PUSH2 0xB57 DUP2 DUP5 PUSH2 0xACC JUMP JUMPDEST SWAP1 POP SWAP3 SWAP2 POP POP JUMP JUMPDEST PUSH2 0xB68 DUP2 PUSH2 0xA27 JUMP JUMPDEST DUP2 EQ PUSH2 0xB72 JUMPI PUSH0 DUP1 REVERT JUMPDEST POP JUMP JUMPDEST PUSH0 DUP2 CALLDATALOAD SWAP1 POP PUSH2 0xB83 DUP2 PUSH2 0xB5F JUMP JUMPDEST SWAP3 SWAP2 POP POP JUMP JUMPDEST PUSH0 DUP1 REVERT JUMPDEST PUSH0 DUP1 REVERT JUMPDEST PUSH0 DUP1 REVERT JUMPDEST PUSH0 DUP1 DUP4 PUSH1 0x1F DUP5 ADD SLT PUSH2 0xBAA JUMPI PUSH2 0xBA9 PUSH2 0xB89 JUMP JUMPDEST JUMPDEST DUP3 CALLDATALOAD SWAP1 POP PUSH8 0xFFFFFFFFFFFFFFFF DUP2 GT ISZERO PUSH2 0xBC7 JUMPI PUSH2 0xBC6 PUSH2 0xB8D JUMP JUMPDEST JUMPDEST PUSH1 0x20 DUP4 ADD SWAP2 POP DUP4 PUSH1 0x1 DUP3 MUL DUP4 ADD GT ISZERO PUSH2 0xBE3 JUMPI PUSH2 0xBE2 PUSH2 0xB91 JUMP JUMPDEST JUMPDEST SWAP3 POP SWAP3 SWAP1 POP JUMP JUMPDEST PUSH0 DUP1 PUSH0 DUP1 PUSH0 DUP1 PUSH0 DUP1 PUSH1 0xA0 DUP10 DUP12 SUB SLT ISZERO PUSH2 0xC06 JUMPI PUSH2 0xC05 PUSH2 0x8E7 JUMP JUMPDEST JUMPDEST PUSH0 PUSH2 0xC13 DUP12 DUP3 DUP13 ADD PUSH2 0xB75 JUMP JUMPDEST SWAP9 POP POP PUSH1 0x20 DUP10 ADD CALLDATALOAD PUSH8 0xFFFFFFFFFFFFFFFF DUP2 GT ISZERO PUSH2 0xC34 JUMPI PUSH2 0xC33 PUSH2 0x8EB JUMP JUMPDEST JUMPDEST PUSH2 0xC40 DUP12 DUP3 DUP13 ADD PUSH2 0xB95 JUMP JUMPDEST SWAP8 POP SWAP8 POP POP PUSH1 0x40 DUP10 ADD CALLDATALOAD PUSH8 0xFFFFFFFFFFFFFFFF DUP2 GT ISZERO PUSH2 0xC63 JUMPI PUSH2 0xC62 PUSH2 0x8EB JUMP JUMPDEST JUMPDEST PUSH2 0xC6F DUP12 DUP3 DUP13 ADD PUSH2 0xB95 JUMP JUMPDEST SWAP6 POP SWAP6 POP POP PUSH1 0x60 DUP10 ADD CALLDATALOAD PUSH8 0xFFFFFFFFFFFFFFFF DUP2 GT ISZERO PUSH2 0xC92 JUMPI PUSH2 0xC91 PUSH2 0x8EB JUMP JUMPDEST JUMPDEST PUSH2 0xC9E DUP12 DUP3 DUP13 ADD PUSH2 0xB95 JUMP JUMPDEST SWAP4 POP SWAP4 POP POP PUSH1 0x80 PUSH2 0xCB1 DUP12 DUP3 DUP13 ADD PUSH2 0xB75 JUMP JUMPDEST SWAP2 POP POP SWAP3 SWAP6 SWAP9 POP SWAP3 SWAP6 SWAP9 SWAP1 SWAP4 SWAP7 POP JUMP JUMPDEST PUSH0 DUP1 PUSH0 DUP1 PUSH0 DUP1 PUSH0 PUSH1 0x80 DUP9 DUP11 SUB SLT ISZERO PUSH2 0xCDC JUMPI PUSH2 0xCDB PUSH2 0x8E7 JUMP JUMPDEST JUMPDEST PUSH0 DUP9 ADD CALLDATALOAD PUSH8 0xFFFFFFFFFFFFFFFF DUP2 GT ISZERO PUSH2 0xCF9 JUMPI PUSH2 0xCF8 PUSH2 0x8EB JUMP JUMPDEST JUMPDEST PUSH2 0xD05 DUP11 DUP3 DUP12 ADD PUSH2 0xB95 JUMP JUMPDEST SWAP8 POP SWAP8 POP POP PUSH1 0x20 DUP9 ADD CALLDATALOAD PUSH8 0xFFFFFFFFFFFFFFFF DUP2 GT ISZERO PUSH2 0xD28 JUMPI PUSH2 0xD27 PUSH2 0x8EB JUMP JUMPDEST JUMPDEST PUSH2 0xD34 DUP11 DUP3 DUP12 ADD PUSH2 0xB95 JUMP JUMPDEST SWAP6 POP SWAP6 POP POP PUSH1 0x40 DUP9 ADD CALLDATALOAD PUSH8 0xFFFFFFFFFFFFFFFF DUP2 GT ISZERO PUSH2 0xD57 JUMPI PUSH2 0xD56 PUSH2 0x8EB JUMP JUMPDEST JUMPDEST PUSH2 0xD63 DUP11 DUP3 DUP12 ADD PUSH2 0xB95 JUMP JUMPDEST SWAP4 POP SWAP4 POP POP PUSH1 0x60 PUSH2 0xD76 DUP11 DUP3 DUP12 ADD PUSH2 0xB75 JUMP JUMPDEST SWAP2 POP POP SWAP3 SWAP6 SWAP9 SWAP2 SWAP5 SWAP8 POP SWAP3 SWAP6 POP JUMP JUMPDEST PUSH32 0x4E487B7100000000000000000000000000000000000000000000000000000000 PUSH0 MSTORE PUSH1 0x22 PUSH1 0x4 MSTORE PUSH1 0x24 PUSH0 REVERT JUMPDEST PUSH0 PUSH1 0x2 DUP3 DIV SWAP1 POP PUSH1 0x1 DUP3 AND DUP1 PUSH2 0xDC9 JUMPI PUSH1 0x7F DUP3 AND SWAP2 POP JUMPDEST PUSH1 0x20 DUP3 LT DUP2 SUB PUSH2 0xDDC JUMPI PUSH2 0xDDB PUSH2 0xD85 JUMP JUMPDEST JUMPDEST POP SWAP2 SWAP1 POP JUMP JUMPDEST PUSH32 0x4E487B7100000000000000000000000000000000000000000000000000000000 PUSH0 MSTORE PUSH1 0x32 PUSH1 0x4 MSTORE PUSH1 0x24 PUSH0 REVERT JUMPDEST PUSH0 DUP3 SWAP1 POP SWAP3 SWAP2 POP POP JUMP JUMPDEST PUSH32 0x4E487B7100000000000000000000000000000000000000000000000000000000 PUSH0 MSTORE PUSH1 0x41 PUSH1 0x4 MSTORE PUSH1 0x24 PUSH0 REVERT JUMPDEST PUSH0 DUP2 SWAP1 POP DUP2 PUSH0 MSTORE PUSH1 0x20 PUSH0 KECCAK256 SWAP1 POP SWAP2 SWAP1 POP JUMP JUMPDEST PUSH0 PUSH1 0x20 PUSH1 0x1F DUP4 ADD DIV SWAP1 POP SWAP2 SWAP1 POP JUMP JUMPDEST PUSH0 DUP3 DUP3 SHL SWAP1 POP SWAP3 SWAP2 POP POP JUMP JUMPDEST PUSH0 PUSH1 0x8 DUP4 MUL PUSH2 0xEA2 PUSH32 0xFFFFFFFFFFFFFFFFFFFFFFFFFFFFFFFFFFFFFFFFFFFFFFFFFFFFFFFFFFFFFFFF DUP3 PUSH2 0xE67 JUMP JUMPDEST PUSH2 0xEAC DUP7 DUP4 PUSH2 0xE67 JUMP JUMPDEST SWAP6 POP DUP1 NOT DUP5 AND SWAP4 POP DUP1 DUP7 AND DUP5 OR SWAP3 POP POP POP SWAP4 SWAP3 POP POP POP JUMP JUMPDEST PUSH0 DUP2 SWAP1 POP SWAP2 SWAP1 POP JUMP JUMPDEST PUSH0 PUSH2 0xEE7 PUSH2 0xEE2 PUSH2 0xEDD DUP5 PUSH2 0xA27 JUMP JUMPDEST PUSH2 0xEC4 JUMP JUMPDEST PUSH2 0xA27 JUMP JUMPDEST SWAP1 POP SWAP2 SWAP1 POP JUMP JUMPDEST PUSH0 DUP2 SWAP1 POP SWAP2 SWAP1 POP JUMP JUMPDEST PUSH2 0xF00 DUP4 PUSH2 0xECD JUMP JUMPDEST PUSH2 0xF14 PUSH2 0xF0C DUP3 PUSH2 0xEEE JUMP JUMPDEST DUP5 DUP5 SLOAD PUSH2 0xE73 JUMP JUMPDEST DUP3 SSTORE POP POP POP POP JUMP JUMPDEST PUSH0 SWAP1 JUMP JUMPDEST PUSH2 0xF28 PUSH2 0xF1C JUMP JUMPDEST PUSH2 0xF33 DUP2 DUP5 DUP5 PUSH2 0xEF7 JUMP JUMPDEST POP POP POP JUMP JUMPDEST JUMPDEST DUP2 DUP2 LT ISZERO PUSH2 0xF56 JUMPI PUSH2 0xF4B PUSH0 DUP3 PUSH2 0xF20 JUMP JUMPDEST PUSH1 0x1 DUP2 ADD SWAP1 POP PUSH2 0xF39 JUMP JUMPDEST POP POP JUMP JUMPDEST PUSH1 0x1F DUP3 GT ISZERO PUSH2 0xF9B JUMPI PUSH2 0xF6C DUP2 PUSH2 0xE46 JUMP JUMPDEST PUSH2 0xF75 DUP5 PUSH2 0xE58 JUMP JUMPDEST DUP2 ADD PUSH1 0x20 DUP6 LT ISZERO PUSH2 0xF84 JUMPI DUP2 SWAP1 POP JUMPDEST PUSH2 0xF98 PUSH2 0xF90 DUP6 PUSH2 0xE58 JUMP JUMPDEST DUP4 ADD DUP3 PUSH2 0xF38 JUMP JUMPDEST POP POP JUMPDEST POP POP POP JUMP JUMPDEST PUSH0 DUP3 DUP3 SHR SWAP1 POP SWAP3 SWAP2 POP POP JUMP JUMPDEST PUSH0 PUSH2 0xFBB PUSH0 NOT DUP5 PUSH1 0x8 MUL PUSH2 0xFA0 JUMP JUMPDEST NOT DUP1 DUP4 AND SWAP2 POP POP SWAP3 SWAP2 POP POP JUMP JUMPDEST PUSH0 PUSH2 0xFD3 DUP4 DUP4 PUSH2 0xFAC JUMP JUMPDEST SWAP2 POP DUP3 PUSH1 0x2 MUL DUP3 OR SWAP1 POP SWAP3 SWAP2 POP POP JUMP JUMPDEST PUSH2 0xFED DUP4 DUP4 PUSH2 0xE0F JUMP JUMPDEST PUSH8 0xFFFFFFFFFFFFFFFF DUP2 GT ISZERO PUSH2 0x1006 JUMPI PUSH2 0x1005 PUSH2 0xE19 JUMP JUMPDEST JUMPDEST PUSH2 0x1010 DUP3 SLOAD PUSH2 0xDB2 JUMP JUMPDEST PUSH2 0x101B DUP3 DUP3 DUP6 PUSH2 0xF5A JUMP JUMPDEST PUSH0 PUSH1 0x1F DUP4 GT PUSH1 0x1 DUP2 EQ PUSH2 0x1048 JUMPI PUSH0 DUP5 ISZERO PUSH2 0x1036 JUMPI DUP3 DUP8 ADD CALLDATALOAD SWAP1 POP JUMPDEST PUSH2 0x1040 DUP6 DUP3 PUSH2 0xFC8 JUMP JUMPDEST DUP7 SSTORE POP PUSH2 0x10A7 JUMP JUMPDEST PUSH1 0x1F NOT DUP5 AND PUSH2 0x1056 DUP7 PUSH2 0xE46 JUMP JUMPDEST PUSH0 JUMPDEST DUP3 DUP2 LT ISZERO PUSH2 0x107D JUMPI DUP5 DUP10 ADD CALLDATALOAD DUP3 SSTORE PUSH1 0x1 DUP3 ADD SWAP2 POP PUSH1 0x20 DUP6 ADD SWAP5 POP PUSH1 0x20 DUP2 ADD SWAP1 POP PUSH2 0x1058 JUMP JUMPDEST DUP7 DUP4 LT ISZERO PUSH2 0x109A JUMPI DUP5 DUP10 ADD CALLDATALOAD PUSH2 0x1096 PUSH1 0x1F DUP10 AND DUP3 PUSH2 0xFAC JUMP JUMPDEST DUP4 SSTORE POP JUMPDEST PUSH1 0x1 PUSH1 0x2 DUP9 MUL ADD DUP9 SSTORE POP POP POP JUMPDEST POP POP POP POP POP POP POP JUMP JUMPDEST PUSH2 0x10B9 DUP3 PUSH2 0x99D JUMP JUMPDEST PUSH8 0xFFFFFFFFFFFFFFFF DUP2 GT ISZERO PUSH2 0x10D2 JUMPI PUSH2 0x10D1 PUSH2 0xE19 JUMP JUMPDEST JUMPDEST PUSH2 0x10DC DUP3 SLOAD PUSH2 0xDB2 JUMP JUMPDEST PUSH2 0x10E7 DUP3 DUP3 DUP6 PUSH2 0xF5A JUMP JUMPDEST PUSH0 PUSH1 0x20 SWAP1 POP PUSH1 0x1F DUP4 GT PUSH1 0x1 DUP2 EQ PUSH2 0x1118 JUMPI PUSH0 DUP5 ISZERO PUSH2 0x1106 JUMPI DUP3 DUP8 ADD MLOAD SWAP1 POP JUMPDEST PUSH2 0x1110 DUP6 DUP3 PUSH2 0xFC8 JUMP JUMPDEST DUP7 SSTORE POP PUSH2 0x1177 JUMP JUMPDEST PUSH1 0x1F NOT DUP5 AND PUSH2 0x1126 DUP7 PUSH2 0xE46 JUMP JUMPDEST PUSH0 JUMPDEST DUP3 DUP2 LT ISZERO PUSH2 0x114D JUMPI DUP5 DUP10 ADD MLOAD DUP3 SSTORE PUSH1 0x1 DUP3 ADD SWAP2 POP PUSH1 0x20 DUP6 ADD SWAP5 POP PUSH1 0x20 DUP2 ADD SWAP1 POP PUSH2 0x1128 JUMP JUMPDEST DUP7 DUP4 LT ISZERO PUSH2 0x116A JUMPI DUP5 DUP10 ADD MLOAD PUSH2 0x1166 PUSH1 0x1F DUP10 AND DUP3 PUSH2 0xFAC JUMP JUMPDEST DUP4 SSTORE POP JUMPDEST PUSH1 0x1 PUSH1 0x2 DUP9 MUL ADD DUP9 SSTORE POP POP POP JUMPDEST POP POP POP POP POP POP JUMP INVALID LOG2 PUSH5 0x6970667358 0x22 SLT KECCAK256 0xC6 0xC4 LOG4 0xF6 0xDE SWAP11 PUSH16 0x4466A9875B2011C30DF15ADAC0215071 DUP16 0xB9 SHR 0xCF 0xC5 SAR SWAP6 SHR PREVRANDAO PUSH5 0x736F6C6343 STOP ADDMOD OR STOP CALLER "
				},
				"gasEstimates": {
					"creation": {
						"codeDepositCost": "906600",
						"executionCost": "940",
						"totalCost": "907540"
					},
					"external": {
						"addCar(string,string,string,uint256)": "infinite",
						"getMyCars()": "infinite",
						"getUserCars(address)": "infinite",
						"resetMyGarage()": "infinite",
						"updateCar(uint256,string,string,string,uint256)": "infinite"
					}
				},
				"methodIdentifiers": {
					"addCar(string,string,string,uint256)": "d2d50bd8",
					"getMyCars()": "341fa05d",
					"getUserCars(address)": "2698286c",
					"resetMyGarage()": "6dcb7896",
					"updateCar(uint256,string,string,string,uint256)": "4cd1ed3d"
				}
			},
			"storageLayout": {
				"storage": [
					{
						"astId": 62,
						"contract": "Struc.sol:Submission",
						"label": "garages",
						"offset": 0,
						"slot": "0",
						"type": "t_mapping(t_address,t_array(t_struct(Car)10_storage)dyn_storage)"
					}
				],
				"types": {
					"t_address": {
						"encoding": "inplace",
						"label": "address",
						"numberOfBytes": "20"
					},
					"t_array(t_struct(Car)10_storage)dyn_storage": {
						"base": "t_struct(Car)10_storage",
						"encoding": "dynamic_array",
						"label": "struct ISubmission.Car[]",
						"numberOfBytes": "32"
					},
					"t_mapping(t_address,t_array(t_struct(Car)10_storage)dyn_storage)": {
						"encoding": "mapping",
						"key": "t_address",
						"label": "mapping(address => struct ISubmission.Car[])",
						"numberOfBytes": "32",
						"value": "t_array(t_struct(Car)10_storage)dyn_storage"
					},
					"t_string_storage": {
						"encoding": "bytes",
						"label": "string",
						"numberOfBytes": "32"
					},
					"t_struct(Car)10_storage": {
						"encoding": "inplace",
						"label": "struct ISubmission.Car",
						"members": [
							{
								"astId": 3,
								"contract": "Struc.sol:Submission",
								"label": "make",
								"offset": 0,
								"slot": "0",
								"type": "t_string_storage"
							},
							{
								"astId": 5,
								"contract": "Struc.sol:Submission",
								"label": "model",
								"offset": 0,
								"slot": "1",
								"type": "t_string_storage"
							},
							{
								"astId": 7,
								"contract": "Struc.sol:Submission",
								"label": "color",
								"offset": 0,
								"slot": "2",
								"type": "t_string_storage"
							},
							{
								"astId": 9,
								"contract": "Struc.sol:Submission",
								"label": "numberOfDoors",
								"offset": 0,
								"slot": "3",
								"type": "t_uint256"
							}
						],
						"numberOfBytes": "128"
					},
					"t_uint256": {
						"encoding": "inplace",
						"label": "uint256",
						"numberOfBytes": "32"
					}
				}
			},
			"userdoc": {
				"kind": "user",
				"methods": {},
				"version": 1
			}
		}
	}
}