{
	"newkey.sol": {
		"Submission": {
			"abi": [
				{
					"inputs": [],
					"name": "deploy",
					"outputs": [
						{
							"internalType": "address",
							"name": "",
							"type": "address"
						}
					],
					"stateMutability": "nonpayable",
					"type": "function"
				}
			],
			"devdoc": {
				"kind": "dev",
				"methods": {},
				"version": 1
			},
			"evm": {
				"assembly": "    /* \"newkey.sol\":2315:2515  contract Submission is ISubmission {... */\n  mstore(0x40, 0x80)\n  callvalue\n  dup1\n  iszero\n  tag_1\n  jumpi\n  0x00\n  dup1\n  revert\ntag_1:\n  pop\n  dataSize(sub_0)\n  dup1\n  dataOffset(sub_0)\n  0x00\n  codecopy\n  0x00\n  return\nstop\n\nsub_0: assembly {\n        /* \"newkey.sol\":2315:2515  contract Submission is ISubmission {... */\n      mstore(0x40, 0x80)\n      callvalue\n      dup1\n      iszero\n      tag_1\n      jumpi\n      0x00\n      dup1\n      revert\n    tag_1:\n      pop\n      jumpi(tag_2, lt(calldatasize, 0x04))\n      shr(0xe0, calldataload(0x00))\n      dup1\n      0x775c300c\n      eq\n      tag_3\n      jumpi\n    tag_2:\n      0x00\n      dup1\n      revert\n        /* \"newkey.sol\":2356:2513  function deploy() external override returns (address) {... */\n    tag_3:\n      tag_4\n      tag_5\n      jump\t// in\n    tag_4:\n      mload(0x40)\n      tag_6\n      swap2\n      swap1\n      tag_7\n      jump\t// in\n    tag_6:\n      mload(0x40)\n      dup1\n      swap2\n      sub\n      swap1\n      return\n    tag_5:\n        /* \"newkey.sol\":2401:2408  address */\n      0x00\n        /* \"newkey.sol\":2420:2446  AddressBook newAddressBook */\n      dup1\n        /* \"newkey.sol\":2449:2466  new AddressBook() */\n      mload(0x40)\n      tag_9\n      swap1\n      tag_10\n      jump\t// in\n    tag_9:\n      mload(0x40)\n      dup1\n      swap2\n      sub\n      swap1\n      0x00\n      create\n      dup1\n      iszero\n      dup1\n      iszero\n      tag_11\n      jumpi\n      returndatasize\n      0x00\n      dup1\n      returndatacopy\n      revert(0x00, returndatasize)\n    tag_11:\n      pop\n        /* \"newkey.sol\":2420:2466  AddressBook newAddressBook = new AddressBook() */\n      swap1\n      pop\n        /* \"newkey.sol\":2491:2505  newAddressBook */\n      dup1\n        /* \"newkey.sol\":2476:2506  return address(newAddressBook) */\n      swap2\n      pop\n      pop\n        /* \"newkey.sol\":2356:2513  function deploy() external override returns (address) {... */\n      swap1\n      jump\t// out\n    tag_10:\n      dataSize(sub_0)\n      dup1\n      dataOffset(sub_0)\n      dup4\n      codecopy\n      add\n      swap1\n      jump\t// out\n        /* \"#utility.yul\":7:133   */\n    tag_12:\n        /* \"#utility.yul\":44:51   */\n      0x00\n        /* \"#utility.yul\":84:126   */\n      0xffffffffffffffffffffffffffffffffffffffff\n        /* \"#utility.yul\":77:82   */\n      dup3\n        /* \"#utility.yul\":73:127   */\n      and\n        /* \"#utility.yul\":62:127   */\n      swap1\n      pop\n        /* \"#utility.yul\":7:133   */\n      swap2\n      swap1\n      pop\n      jump\t// out\n        /* \"#utility.yul\":139:235   */\n    tag_13:\n        /* \"#utility.yul\":176:183   */\n      0x00\n        /* \"#utility.yul\":205:229   */\n      tag_18\n        /* \"#utility.yul\":223:228   */\n      dup3\n        /* \"#utility.yul\":205:229   */\n      tag_12\n      jump\t// in\n    tag_18:\n        /* \"#utility.yul\":194:229   */\n      swap1\n      pop\n        /* \"#utility.yul\":139:235   */\n      swap2\n      swap1\n      pop\n      jump\t// out\n        /* \"#utility.yul\":241:359   */\n    tag_14:\n        /* \"#utility.yul\":328:352   */\n      tag_20\n        /* \"#utility.yul\":346:351   */\n      dup2\n        /* \"#utility.yul\":328:352   */\n      tag_13\n      jump\t// in\n    tag_20:\n        /* \"#utility.yul\":323:326   */\n      dup3\n        /* \"#utility.yul\":316:353   */\n      mstore\n        /* \"#utility.yul\":241:359   */\n      pop\n      pop\n      jump\t// out\n        /* \"#utility.yul\":365:587   */\n    tag_7:\n        /* \"#utility.yul\":458:462   */\n      0x00\n        /* \"#utility.yul\":496:498   */\n      0x20\n        /* \"#utility.yul\":485:494   */\n      dup3\n        /* \"#utility.yul\":481:499   */\n      add\n        /* \"#utility.yul\":473:499   */\n      swap1\n      pop\n        /* \"#utility.yul\":509:580   */\n      tag_22\n        /* \"#utility.yul\":577:578   */\n      0x00\n        /* \"#utility.yul\":566:575   */\n      dup4\n        /* \"#utility.yul\":562:579   */\n      add\n        /* \"#utility.yul\":553:559   */\n      dup5\n        /* \"#utility.yul\":509:580   */\n      tag_14\n      jump\t// in\n    tag_22:\n        /* \"#utility.yul\":365:587   */\n      swap3\n      swap2\n      pop\n      pop\n      jump\t// out\n    stop\n\n    sub_0: assembly {\n            /* \"newkey.sol\":612:2235  contract AddressBook is IAddressBook, Ownable {... */\n          mstore(0x40, 0x80)\n            /* \"newkey.sol\":820:856  constructor() Ownable(msg.sender) {} */\n          callvalue\n          dup1\n          iszero\n          tag_1\n          jumpi\n          0x00\n          dup1\n          revert\n        tag_1:\n          pop\n            /* \"newkey.sol\":842:852  msg.sender */\n          caller\n            /* \"@openzeppelin/contracts/access/Ownable.sol\":1297:1298  0 */\n          0x00\n            /* \"@openzeppelin/contracts/access/Ownable.sol\":1273:1299  initialOwner == address(0) */\n          0xffffffffffffffffffffffffffffffffffffffff\n          and\n            /* \"@openzeppelin/contracts/access/Ownable.sol\":1273:1285  initialOwner */\n          dup2\n            /* \"@openzeppelin/contracts/access/Ownable.sol\":1273:1299  initialOwner == address(0) */\n          0xffffffffffffffffffffffffffffffffffffffff\n          and\n          sub\n            /* \"@openzeppelin/contracts/access/Ownable.sol\":1269:1364  if (initialOwner == address(0)) {... */\n          tag_5\n          jumpi\n            /* \"@openzeppelin/contracts/access/Ownable.sol\":1350:1351  0 */\n          0x00\n            /* \"@openzeppelin/contracts/access/Ownable.sol\":1322:1353  OwnableInvalidOwner(address(0)) */\n          mload(0x40)\n          0x1e4fbdf700000000000000000000000000000000000000000000000000000000\n          dup2\n          mstore\n          0x04\n          add\n          tag_6\n          swap2\n          swap1\n          tag_7\n          jump\t// in\n        tag_6:\n          mload(0x40)\n          dup1\n          swap2\n          sub\n          swap1\n          revert\n            /* \"@openzeppelin/contracts/access/Ownable.sol\":1269:1364  if (initialOwner == address(0)) {... */\n        tag_5:\n            /* \"@openzeppelin/contracts/access/Ownable.sol\":1373:1405  _transferOwnership(initialOwner) */\n          tag_8\n            /* \"@openzeppelin/contracts/access/Ownable.sol\":1392:1404  initialOwner */\n          dup2\n            /* \"@openzeppelin/contracts/access/Ownable.sol\":1373:1391  _transferOwnership */\n          shl(0x20, tag_9)\n            /* \"@openzeppelin/contracts/access/Ownable.sol\":1373:1405  _transferOwnership(initialOwner) */\n          0x20\n          shr\n          jump\t// in\n        tag_8:\n            /* \"@openzeppelin/contracts/access/Ownable.sol\":1225:1412  constructor(address initialOwner) {... */\n          pop\n            /* \"newkey.sol\":612:2235  contract AddressBook is IAddressBook, Ownable {... */\n          jump(tag_11)\n            /* \"@openzeppelin/contracts/access/Ownable.sol\":2912:3099  function _transferOwnership(address newOwner) internal virtual {... */\n        tag_9:\n            /* \"@openzeppelin/contracts/access/Ownable.sol\":2985:3001  address oldOwner */\n          0x00\n            /* \"@openzeppelin/contracts/access/Ownable.sol\":3004:3010  _owner */\n          dup1\n          0x00\n          swap1\n          sload\n          swap1\n          0x0100\n          exp\n          swap1\n          div\n          0xffffffffffffffffffffffffffffffffffffffff\n          and\n            /* \"@openzeppelin/contracts/access/Ownable.sol\":2985:3010  address oldOwner = _owner */\n          swap1\n          pop\n            /* \"@openzeppelin/contracts/access/Ownable.sol\":3029:3037  newOwner */\n          dup2\n            /* \"@openzeppelin/contracts/access/Ownable.sol\":3020:3026  _owner */\n          0x00\n          dup1\n            /* \"@openzeppelin/contracts/access/Ownable.sol\":3020:3037  _owner = newOwner */\n          0x0100\n          exp\n          dup2\n          sload\n          dup2\n          0xffffffffffffffffffffffffffffffffffffffff\n          mul\n          not\n          and\n          swap1\n          dup4\n          0xffffffffffffffffffffffffffffffffffffffff\n          and\n          mul\n          or\n          swap1\n          sstore\n          pop\n            /* \"@openzeppelin/contracts/access/Ownable.sol\":3083:3091  newOwner */\n          dup2\n            /* \"@openzeppelin/contracts/access/Ownable.sol\":3052:3092  OwnershipTransferred(oldOwner, newOwner) */\n          0xffffffffffffffffffffffffffffffffffffffff\n          and\n            /* \"@openzeppelin/contracts/access/Ownable.sol\":3073:3081  oldOwner */\n          dup2\n            /* \"@openzeppelin/contracts/access/Ownable.sol\":3052:3092  OwnershipTransferred(oldOwner, newOwner) */\n          0xffffffffffffffffffffffffffffffffffffffff\n          and\n          0x8be0079c531659141344cd1fd0a4f28419497f9722a3daafe3b4186f6b6457e0\n          mload(0x40)\n          mload(0x40)\n          dup1\n          swap2\n          sub\n          swap1\n          log3\n            /* \"@openzeppelin/contracts/access/Ownable.sol\":2975:3099  {... */\n          pop\n            /* \"@openzeppelin/contracts/access/Ownable.sol\":2912:3099  function _transferOwnership(address newOwner) internal virtual {... */\n          pop\n          jump\t// out\n            /* \"#utility.yul\":7:133   */\n        tag_13:\n            /* \"#utility.yul\":44:51   */\n          0x00\n            /* \"#utility.yul\":84:126   */\n          0xffffffffffffffffffffffffffffffffffffffff\n            /* \"#utility.yul\":77:82   */\n          dup3\n            /* \"#utility.yul\":73:127   */\n          and\n            /* \"#utility.yul\":62:127   */\n          swap1\n          pop\n            /* \"#utility.yul\":7:133   */\n          swap2\n          swap1\n          pop\n          jump\t// out\n            /* \"#utility.yul\":139:235   */\n        tag_14:\n            /* \"#utility.yul\":176:183   */\n          0x00\n            /* \"#utility.yul\":205:229   */\n          tag_19\n            /* \"#utility.yul\":223:228   */\n          dup3\n            /* \"#utility.yul\":205:229   */\n          tag_13\n          jump\t// in\n        tag_19:\n            /* \"#utility.yul\":194:229   */\n          swap1\n          pop\n            /* \"#utility.yul\":139:235   */\n          swap2\n          swap1\n          pop\n          jump\t// out\n            /* \"#utility.yul\":241:359   */\n        tag_15:\n            /* \"#utility.yul\":328:352   */\n          tag_21\n            /* \"#utility.yul\":346:351   */\n          dup2\n            /* \"#utility.yul\":328:352   */\n          tag_14\n          jump\t// in\n        tag_21:\n            /* \"#utility.yul\":323:326   */\n          dup3\n            /* \"#utility.yul\":316:353   */\n          mstore\n            /* \"#utility.yul\":241:359   */\n          pop\n          pop\n          jump\t// out\n            /* \"#utility.yul\":365:587   */\n        tag_7:\n            /* \"#utility.yul\":458:462   */\n          0x00\n            /* \"#utility.yul\":496:498   */\n          0x20\n            /* \"#utility.yul\":485:494   */\n          dup3\n            /* \"#utility.yul\":481:499   */\n          add\n            /* \"#utility.yul\":473:499   */\n          swap1\n          pop\n            /* \"#utility.yul\":509:580   */\n          tag_23\n            /* \"#utility.yul\":577:578   */\n          0x00\n            /* \"#utility.yul\":566:575   */\n          dup4\n            /* \"#utility.yul\":562:579   */\n          add\n            /* \"#utility.yul\":553:559   */\n          dup5\n            /* \"#utility.yul\":509:580   */\n          tag_15\n          jump\t// in\n        tag_23:\n            /* \"#utility.yul\":365:587   */\n          swap3\n          swap2\n          pop\n          pop\n          jump\t// out\n            /* \"newkey.sol\":612:2235  contract AddressBook is IAddressBook, Ownable {... */\n        tag_11:\n          dataSize(sub_0)\n          dup1\n          dataOffset(sub_0)\n          0x00\n          codecopy\n          0x00\n          return\n        stop\n\n        sub_0: assembly {\n                /* \"newkey.sol\":612:2235  contract AddressBook is IAddressBook, Ownable {... */\n              mstore(0x40, 0x80)\n              callvalue\n              dup1\n              iszero\n              tag_1\n              jumpi\n              0x00\n              dup1\n              revert\n            tag_1:\n              pop\n              jumpi(tag_2, lt(calldatasize, 0x04))\n              shr(0xe0, calldataload(0x00))\n              dup1\n              0xb9ed6fca\n              gt\n              tag_10\n              jumpi\n              dup1\n              0xb9ed6fca\n              eq\n              tag_6\n              jumpi\n              dup1\n              0xe6505e1e\n              eq\n              tag_7\n              jumpi\n              dup1\n              0xef1d6ddd\n              eq\n              tag_8\n              jumpi\n              dup1\n              0xf2fde38b\n              eq\n              tag_9\n              jumpi\n              jump(tag_2)\n            tag_10:\n              dup1\n              0x3f06f6e8\n              eq\n              tag_3\n              jumpi\n              dup1\n              0x715018a6\n              eq\n              tag_4\n              jumpi\n              dup1\n              0x8da5cb5b\n              eq\n              tag_5\n              jumpi\n            tag_2:\n              0x00\n              dup1\n              revert\n                /* \"newkey.sol\":862:1383  function addContact(... */\n            tag_3:\n              tag_11\n              0x04\n              dup1\n              calldatasize\n              sub\n              dup2\n              add\n              swap1\n              tag_12\n              swap2\n              swap1\n              tag_13\n              jump\t// in\n            tag_12:\n              tag_14\n              jump\t// in\n            tag_11:\n              stop\n                /* \"@openzeppelin/contracts/access/Ownable.sol\":2293:2394  function renounceOwnership() public virtual onlyOwner {... */\n            tag_4:\n              tag_15\n              tag_16\n              jump\t// in\n            tag_15:\n              stop\n                /* \"@openzeppelin/contracts/access/Ownable.sol\":1638:1723  function owner() public view virtual returns (address) {... */\n            tag_5:\n              tag_17\n              tag_18\n              jump\t// in\n            tag_17:\n              mload(0x40)\n              tag_19\n              swap2\n              swap1\n              tag_20\n              jump\t// in\n            tag_19:\n              mload(0x40)\n              dup1\n              swap2\n              sub\n              swap1\n              return\n                /* \"newkey.sol\":1389:1803  function deleteContact(uint _id) external override onlyOwner {... */\n            tag_6:\n              tag_21\n              0x04\n              dup1\n              calldatasize\n              sub\n              dup2\n              add\n              swap1\n              tag_22\n              swap2\n              swap1\n              tag_23\n              jump\t// in\n            tag_22:\n              tag_24\n              jump\t// in\n            tag_21:\n              stop\n                /* \"newkey.sol\":1809:1924  function getContact(uint _id) external view override returns (Contact memory) {... */\n            tag_7:\n              tag_25\n              0x04\n              dup1\n              calldatasize\n              sub\n              dup2\n              add\n              swap1\n              tag_26\n              swap2\n              swap1\n              tag_23\n              jump\t// in\n            tag_26:\n              tag_27\n              jump\t// in\n            tag_25:\n              mload(0x40)\n              tag_28\n              swap2\n              swap1\n              tag_29\n              jump\t// in\n            tag_28:\n              mload(0x40)\n              dup1\n              swap2\n              sub\n              swap1\n              return\n                /* \"newkey.sol\":1930:2233  function getAllContacts() external view override returns (Contact[] memory) {... */\n            tag_8:\n              tag_30\n              tag_31\n              jump\t// in\n            tag_30:\n              mload(0x40)\n              tag_32\n              swap2\n              swap1\n              tag_33\n              jump\t// in\n            tag_32:\n              mload(0x40)\n              dup1\n              swap2\n              sub\n              swap1\n              return\n                /* \"@openzeppelin/contracts/access/Ownable.sol\":2543:2758  function transferOwnership(address newOwner) public virtual onlyOwner {... */\n            tag_9:\n              tag_34\n              0x04\n              dup1\n              calldatasize\n              sub\n              dup2\n              add\n              swap1\n              tag_35\n              swap2\n              swap1\n              tag_36\n              jump\t// in\n            tag_35:\n              tag_37\n              jump\t// in\n            tag_34:\n              stop\n                /* \"newkey.sol\":862:1383  function addContact(... */\n            tag_14:\n                /* \"@openzeppelin/contracts/access/Ownable.sol\":1531:1544  _checkOwner() */\n              tag_39\n                /* \"@openzeppelin/contracts/access/Ownable.sol\":1531:1542  _checkOwner */\n              tag_40\n                /* \"@openzeppelin/contracts/access/Ownable.sol\":1531:1544  _checkOwner() */\n              jump\t// in\n            tag_39:\n                /* \"newkey.sol\":1030:1044  uint currentId */\n              0x00\n                /* \"newkey.sol\":1047:1060  nextContactId */\n              sload(0x04)\n                /* \"newkey.sol\":1030:1060  uint currentId = nextContactId */\n              swap1\n              pop\n                /* \"newkey.sol\":1092:1247  Contact({... */\n              mload(0x40)\n              dup1\n              0x80\n              add\n              0x40\n              mstore\n              dup1\n                /* \"newkey.sol\":1118:1127  currentId */\n              dup3\n                /* \"newkey.sol\":1092:1247  Contact({... */\n              dup2\n              mstore\n              0x20\n              add\n                /* \"newkey.sol\":1152:1162  _firstName */\n              dup6\n                /* \"newkey.sol\":1092:1247  Contact({... */\n              dup2\n              mstore\n              0x20\n              add\n                /* \"newkey.sol\":1186:1195  _lastName */\n              dup5\n                /* \"newkey.sol\":1092:1247  Contact({... */\n              dup2\n              mstore\n              0x20\n              add\n                /* \"newkey.sol\":1223:1236  _phoneNumbers */\n              dup4\n                /* \"newkey.sol\":1092:1247  Contact({... */\n              dup2\n              mstore\n              pop\n                /* \"newkey.sol\":1070:1078  contacts */\n              0x01\n                /* \"newkey.sol\":1070:1089  contacts[currentId] */\n              0x00\n                /* \"newkey.sol\":1079:1088  currentId */\n              dup4\n                /* \"newkey.sol\":1070:1089  contacts[currentId] */\n              dup2\n              mstore\n              0x20\n              add\n              swap1\n              dup2\n              mstore\n              0x20\n              add\n              0x00\n              keccak256\n                /* \"newkey.sol\":1070:1247  contacts[currentId] = Contact({... */\n              0x00\n              dup3\n              add\n              mload\n              dup2\n              0x00\n              add\n              sstore\n              0x20\n              dup3\n              add\n              mload\n              dup2\n              0x01\n              add\n              swap1\n              dup2\n              tag_42\n              swap2\n              swap1\n              tag_43\n              jump\t// in\n            tag_42:\n              pop\n              0x40\n              dup3\n              add\n              mload\n              dup2\n              0x02\n              add\n              swap1\n              dup2\n              tag_44\n              swap2\n              swap1\n              tag_43\n              jump\t// in\n            tag_44:\n              pop\n              0x60\n              dup3\n              add\n              mload\n              dup2\n              0x03\n              add\n              swap1\n              dup1\n              mload\n              swap1\n              0x20\n              add\n              swap1\n              tag_45\n              swap3\n              swap2\n              swap1\n              tag_46\n              jump\t// in\n            tag_45:\n              pop\n              swap1\n              pop\n              pop\n                /* \"newkey.sol\":1289:1299  contactIds */\n              0x02\n                /* \"newkey.sol\":1289:1306  contactIds.length */\n              dup1\n              sload\n              swap1\n              pop\n                /* \"newkey.sol\":1266:1275  idToIndex */\n              0x03\n                /* \"newkey.sol\":1266:1286  idToIndex[currentId] */\n              0x00\n                /* \"newkey.sol\":1276:1285  currentId */\n              dup4\n                /* \"newkey.sol\":1266:1286  idToIndex[currentId] */\n              dup2\n              mstore\n              0x20\n              add\n              swap1\n              dup2\n              mstore\n              0x20\n              add\n              0x00\n              keccak256\n                /* \"newkey.sol\":1266:1306  idToIndex[currentId] = contactIds.length */\n              dup2\n              swap1\n              sstore\n              pop\n                /* \"newkey.sol\":1316:1326  contactIds */\n              0x02\n                /* \"newkey.sol\":1332:1341  currentId */\n              dup2\n                /* \"newkey.sol\":1316:1342  contactIds.push(currentId) */\n              swap1\n              dup1\n              0x01\n              dup2\n              sload\n              add\n              dup1\n              dup3\n              sstore\n              dup1\n              swap2\n              pop\n              pop\n              0x01\n              swap1\n              sub\n              swap1\n              0x00\n              mstore\n              keccak256(0x00, 0x20)\n              add\n              0x00\n              swap1\n              swap2\n              swap1\n              swap2\n              swap1\n              swap2\n              pop\n              sstore\n                /* \"newkey.sol\":1361:1374  nextContactId */\n              0x04\n              0x00\n                /* \"newkey.sol\":1361:1376  nextContactId++ */\n              dup2\n              sload\n              dup1\n              swap3\n              swap2\n              swap1\n              tag_48\n              swap1\n              tag_49\n              jump\t// in\n            tag_48:\n              swap2\n              swap1\n              pop\n              sstore\n              pop\n                /* \"newkey.sol\":1020:1383  {... */\n              pop\n                /* \"newkey.sol\":862:1383  function addContact(... */\n              pop\n              pop\n              pop\n              jump\t// out\n                /* \"@openzeppelin/contracts/access/Ownable.sol\":2293:2394  function renounceOwnership() public virtual onlyOwner {... */\n            tag_16:\n                /* \"@openzeppelin/contracts/access/Ownable.sol\":1531:1544  _checkOwner() */\n              tag_51\n                /* \"@openzeppelin/contracts/access/Ownable.sol\":1531:1542  _checkOwner */\n              tag_40\n                /* \"@openzeppelin/contracts/access/Ownable.sol\":1531:1544  _checkOwner() */\n              jump\t// in\n            tag_51:\n                /* \"@openzeppelin/contracts/access/Ownable.sol\":2357:2387  _transferOwnership(address(0)) */\n              tag_53\n                /* \"@openzeppelin/contracts/access/Ownable.sol\":2384:2385  0 */\n              0x00\n                /* \"@openzeppelin/contracts/access/Ownable.sol\":2357:2375  _transferOwnership */\n              tag_54\n                /* \"@openzeppelin/contracts/access/Ownable.sol\":2357:2387  _transferOwnership(address(0)) */\n              jump\t// in\n            tag_53:\n                /* \"@openzeppelin/contracts/access/Ownable.sol\":2293:2394  function renounceOwnership() public virtual onlyOwner {... */\n              jump\t// out\n                /* \"@openzeppelin/contracts/access/Ownable.sol\":1638:1723  function owner() public view virtual returns (address) {... */\n            tag_18:\n                /* \"@openzeppelin/contracts/access/Ownable.sol\":1684:1691  address */\n              0x00\n                /* \"@openzeppelin/contracts/access/Ownable.sol\":1710:1716  _owner */\n              dup1\n              0x00\n              swap1\n              sload\n              swap1\n              0x0100\n              exp\n              swap1\n              div\n              0xffffffffffffffffffffffffffffffffffffffff\n              and\n                /* \"@openzeppelin/contracts/access/Ownable.sol\":1703:1716  return _owner */\n              swap1\n              pop\n                /* \"@openzeppelin/contracts/access/Ownable.sol\":1638:1723  function owner() public view virtual returns (address) {... */\n              swap1\n              jump\t// out\n                /* \"newkey.sol\":1389:1803  function deleteContact(uint _id) external override onlyOwner {... */\n            tag_24:\n                /* \"@openzeppelin/contracts/access/Ownable.sol\":1531:1544  _checkOwner() */\n              tag_57\n                /* \"@openzeppelin/contracts/access/Ownable.sol\":1531:1542  _checkOwner */\n              tag_40\n                /* \"@openzeppelin/contracts/access/Ownable.sol\":1531:1544  _checkOwner() */\n              jump\t// in\n            tag_57:\n                /* \"newkey.sol\":1486:1487  0 */\n              0x00\n                /* \"newkey.sol\":1468:1477  idToIndex */\n              0x03\n                /* \"newkey.sol\":1468:1482  idToIndex[_id] */\n              0x00\n                /* \"newkey.sol\":1478:1481  _id */\n              dup4\n                /* \"newkey.sol\":1468:1482  idToIndex[_id] */\n              dup2\n              mstore\n              0x20\n              add\n              swap1\n              dup2\n              mstore\n              0x20\n              add\n              0x00\n              keccak256\n              sload\n                /* \"newkey.sol\":1468:1487  idToIndex[_id] != 0 */\n              eq\n              iszero\n                /* \"newkey.sol\":1468:1511  idToIndex[_id] != 0 || contactIds[0] == _id */\n              dup1\n              tag_59\n              jumpi\n              pop\n                /* \"newkey.sol\":1508:1511  _id */\n              dup1\n                /* \"newkey.sol\":1491:1501  contactIds */\n              0x02\n                /* \"newkey.sol\":1502:1503  0 */\n              0x00\n                /* \"newkey.sol\":1491:1504  contactIds[0] */\n              dup2\n              sload\n              dup2\n              lt\n              tag_60\n              jumpi\n              tag_61\n              tag_62\n              jump\t// in\n            tag_61:\n            tag_60:\n              swap1\n              0x00\n              mstore\n              keccak256(0x00, 0x20)\n              add\n              sload\n                /* \"newkey.sol\":1491:1511  contactIds[0] == _id */\n              eq\n                /* \"newkey.sol\":1468:1511  idToIndex[_id] != 0 || contactIds[0] == _id */\n            tag_59:\n                /* \"newkey.sol\":1460:1533  require(idToIndex[_id] != 0 || contactIds[0] == _id, \"Contact not found\") */\n              tag_64\n              jumpi\n              mload(0x40)\n              0x08c379a000000000000000000000000000000000000000000000000000000000\n              dup2\n              mstore\n              0x04\n              add\n              tag_65\n              swap1\n              tag_66\n              jump\t// in\n            tag_65:\n              mload(0x40)\n              dup1\n              swap2\n              sub\n              swap1\n              revert\n            tag_64:\n                /* \"newkey.sol\":1544:1554  uint index */\n              0x00\n                /* \"newkey.sol\":1557:1566  idToIndex */\n              0x03\n                /* \"newkey.sol\":1557:1571  idToIndex[_id] */\n              0x00\n                /* \"newkey.sol\":1567:1570  _id */\n              dup4\n                /* \"newkey.sol\":1557:1571  idToIndex[_id] */\n              dup2\n              mstore\n              0x20\n              add\n              swap1\n              dup2\n              mstore\n              0x20\n              add\n              0x00\n              keccak256\n              sload\n                /* \"newkey.sol\":1544:1571  uint index = idToIndex[_id] */\n              swap1\n              pop\n                /* \"newkey.sol\":1581:1592  uint lastId */\n              0x00\n                /* \"newkey.sol\":1595:1605  contactIds */\n              0x02\n                /* \"newkey.sol\":1626:1627  1 */\n              0x01\n                /* \"newkey.sol\":1606:1616  contactIds */\n              0x02\n                /* \"newkey.sol\":1606:1623  contactIds.length */\n              dup1\n              sload\n              swap1\n              pop\n                /* \"newkey.sol\":1606:1627  contactIds.length - 1 */\n              tag_67\n              swap2\n              swap1\n              tag_68\n              jump\t// in\n            tag_67:\n                /* \"newkey.sol\":1595:1628  contactIds[contactIds.length - 1] */\n              dup2\n              sload\n              dup2\n              lt\n              tag_69\n              jumpi\n              tag_70\n              tag_62\n              jump\t// in\n            tag_70:\n            tag_69:\n              swap1\n              0x00\n              mstore\n              keccak256(0x00, 0x20)\n              add\n              sload\n                /* \"newkey.sol\":1581:1628  uint lastId = contactIds[contactIds.length - 1] */\n              swap1\n              pop\n                /* \"newkey.sol\":1667:1673  lastId */\n              dup1\n                /* \"newkey.sol\":1647:1657  contactIds */\n              0x02\n                /* \"newkey.sol\":1658:1663  index */\n              dup4\n                /* \"newkey.sol\":1647:1664  contactIds[index] */\n              dup2\n              sload\n              dup2\n              lt\n              tag_72\n              jumpi\n              tag_73\n              tag_62\n              jump\t// in\n            tag_73:\n            tag_72:\n              swap1\n              0x00\n              mstore\n              keccak256(0x00, 0x20)\n              add\n                /* \"newkey.sol\":1647:1673  contactIds[index] = lastId */\n              dup2\n              swap1\n              sstore\n              pop\n                /* \"newkey.sol\":1703:1708  index */\n              dup2\n                /* \"newkey.sol\":1683:1692  idToIndex */\n              0x03\n                /* \"newkey.sol\":1683:1700  idToIndex[lastId] */\n              0x00\n                /* \"newkey.sol\":1693:1699  lastId */\n              dup4\n                /* \"newkey.sol\":1683:1700  idToIndex[lastId] */\n              dup2\n              mstore\n              0x20\n              add\n              swap1\n              dup2\n              mstore\n              0x20\n              add\n              0x00\n              keccak256\n                /* \"newkey.sol\":1683:1708  idToIndex[lastId] = index */\n              dup2\n              swap1\n              sstore\n              pop\n                /* \"newkey.sol\":1719:1729  contactIds */\n              0x02\n                /* \"newkey.sol\":1719:1735  contactIds.pop() */\n              dup1\n              sload\n              dup1\n              tag_75\n              jumpi\n              tag_76\n              tag_77\n              jump\t// in\n            tag_76:\n            tag_75:\n              0x01\n              swap1\n              sub\n              dup2\n              dup2\n              swap1\n              0x00\n              mstore\n              keccak256(0x00, 0x20)\n              add\n              0x00\n              swap1\n              sstore\n              swap1\n              sstore\n                /* \"newkey.sol\":1752:1760  contacts */\n              0x01\n                /* \"newkey.sol\":1752:1765  contacts[_id] */\n              0x00\n                /* \"newkey.sol\":1761:1764  _id */\n              dup5\n                /* \"newkey.sol\":1752:1765  contacts[_id] */\n              dup2\n              mstore\n              0x20\n              add\n              swap1\n              dup2\n              mstore\n              0x20\n              add\n              0x00\n              keccak256\n              0x00\n                /* \"newkey.sol\":1745:1765  delete contacts[_id] */\n              dup1\n              dup3\n              add\n              0x00\n              swap1\n              sstore\n              0x01\n              dup3\n              add\n              0x00\n              tag_79\n              swap2\n              swap1\n              tag_80\n              jump\t// in\n            tag_79:\n              0x02\n              dup3\n              add\n              0x00\n              tag_81\n              swap2\n              swap1\n              tag_80\n              jump\t// in\n            tag_81:\n              0x03\n              dup3\n              add\n              0x00\n              tag_82\n              swap2\n              swap1\n              tag_83\n              jump\t// in\n            tag_82:\n              pop\n              pop\n                /* \"newkey.sol\":1782:1791  idToIndex */\n              0x03\n                /* \"newkey.sol\":1782:1796  idToIndex[_id] */\n              0x00\n                /* \"newkey.sol\":1792:1795  _id */\n              dup5\n                /* \"newkey.sol\":1782:1796  idToIndex[_id] */\n              dup2\n              mstore\n              0x20\n              add\n              swap1\n              dup2\n              mstore\n              0x20\n              add\n              0x00\n              keccak256\n                /* \"newkey.sol\":1775:1796  delete idToIndex[_id] */\n              0x00\n              swap1\n              sstore\n                /* \"newkey.sol\":1450:1803  {... */\n              pop\n              pop\n                /* \"newkey.sol\":1389:1803  function deleteContact(uint _id) external override onlyOwner {... */\n              pop\n              jump\t// out\n                /* \"newkey.sol\":1809:1924  function getContact(uint _id) external view override returns (Contact memory) {... */\n            tag_27:\n                /* \"newkey.sol\":1871:1885  Contact memory */\n              tag_84\n              tag_85\n              jump\t// in\n            tag_84:\n                /* \"newkey.sol\":1904:1912  contacts */\n              0x01\n                /* \"newkey.sol\":1904:1917  contacts[_id] */\n              0x00\n                /* \"newkey.sol\":1913:1916  _id */\n              dup4\n                /* \"newkey.sol\":1904:1917  contacts[_id] */\n              dup2\n              mstore\n              0x20\n              add\n              swap1\n              dup2\n              mstore\n              0x20\n              add\n              0x00\n              keccak256\n                /* \"newkey.sol\":1897:1917  return contacts[_id] */\n              mload(0x40)\n              dup1\n              0x80\n              add\n              0x40\n              mstore\n              swap1\n              dup2\n              0x00\n              dup3\n              add\n              sload\n              dup2\n              mstore\n              0x20\n              add\n              0x01\n              dup3\n              add\n              dup1\n              sload\n              tag_87\n              swap1\n              tag_88\n              jump\t// in\n            tag_87:\n              dup1\n              0x1f\n              add\n              0x20\n              dup1\n              swap2\n              div\n              mul\n              0x20\n              add\n              mload(0x40)\n              swap1\n              dup2\n              add\n              0x40\n              mstore\n              dup1\n              swap3\n              swap2\n              swap1\n              dup2\n              dup2\n              mstore\n              0x20\n              add\n              dup3\n              dup1\n              sload\n              tag_89\n              swap1\n              tag_88\n              jump\t// in\n            tag_89:\n              dup1\n              iszero\n              tag_90\n              jumpi\n              dup1\n              0x1f\n              lt\n              tag_91\n              jumpi\n              0x0100\n              dup1\n              dup4\n              sload\n              div\n              mul\n              dup4\n              mstore\n              swap2\n              0x20\n              add\n              swap2\n              jump(tag_90)\n            tag_91:\n              dup3\n              add\n              swap2\n              swap1\n              0x00\n              mstore\n              keccak256(0x00, 0x20)\n              swap1\n            tag_92:\n              dup2\n              sload\n              dup2\n              mstore\n              swap1\n              0x01\n              add\n              swap1\n              0x20\n              add\n              dup1\n              dup4\n              gt\n              tag_92\n              jumpi\n              dup3\n              swap1\n              sub\n              0x1f\n              and\n              dup3\n              add\n              swap2\n            tag_90:\n              pop\n              pop\n              pop\n              pop\n              pop\n              dup2\n              mstore\n              0x20\n              add\n              0x02\n              dup3\n              add\n              dup1\n              sload\n              tag_93\n              swap1\n              tag_88\n              jump\t// in\n            tag_93:\n              dup1\n              0x1f\n              add\n              0x20\n              dup1\n              swap2\n              div\n              mul\n              0x20\n              add\n              mload(0x40)\n              swap1\n              dup2\n              add\n              0x40\n              mstore\n              dup1\n              swap3\n              swap2\n              swap1\n              dup2\n              dup2\n              mstore\n              0x20\n              add\n              dup3\n              dup1\n              sload\n              tag_94\n              swap1\n              tag_88\n              jump\t// in\n            tag_94:\n              dup1\n              iszero\n              tag_95\n              jumpi\n              dup1\n              0x1f\n              lt\n              tag_96\n              jumpi\n              0x0100\n              dup1\n              dup4\n              sload\n              div\n              mul\n              dup4\n              mstore\n              swap2\n              0x20\n              add\n              swap2\n              jump(tag_95)\n            tag_96:\n              dup3\n              add\n              swap2\n              swap1\n              0x00\n              mstore\n              keccak256(0x00, 0x20)\n              swap1\n            tag_97:\n              dup2\n              sload\n              dup2\n              mstore\n              swap1\n              0x01\n              add\n              swap1\n              0x20\n              add\n              dup1\n              dup4\n              gt\n              tag_97\n              jumpi\n              dup3\n              swap1\n              sub\n              0x1f\n              and\n              dup3\n              add\n              swap2\n            tag_95:\n              pop\n              pop\n              pop\n              pop\n              pop\n              dup2\n              mstore\n              0x20\n              add\n              0x03\n              dup3\n              add\n              dup1\n              sload\n              dup1\n              0x20\n              mul\n              0x20\n              add\n              mload(0x40)\n              swap1\n              dup2\n              add\n              0x40\n              mstore\n              dup1\n              swap3\n              swap2\n              swap1\n              dup2\n              dup2\n              mstore\n              0x20\n              add\n              dup3\n              dup1\n              sload\n              dup1\n              iszero\n              tag_98\n              jumpi\n              0x20\n              mul\n              dup3\n              add\n              swap2\n              swap1\n              0x00\n              mstore\n              keccak256(0x00, 0x20)\n              swap1\n            tag_99:\n              dup2\n              sload\n              dup2\n              mstore\n              0x20\n              add\n              swap1\n              0x01\n              add\n              swap1\n              dup1\n              dup4\n              gt\n              tag_99\n              jumpi\n            tag_98:\n              pop\n              pop\n              pop\n              pop\n              pop\n              dup2\n              mstore\n              pop\n              pop\n              swap1\n              pop\n                /* \"newkey.sol\":1809:1924  function getContact(uint _id) external view override returns (Contact memory) {... */\n              swap2\n              swap1\n              pop\n              jump\t// out\n                /* \"newkey.sol\":1930:2233  function getAllContacts() external view override returns (Contact[] memory) {... */\n            tag_31:\n                /* \"newkey.sol\":1988:2004  Contact[] memory */\n              0x60\n                /* \"newkey.sol\":2016:2044  Contact[] memory allContacts */\n              0x00\n                /* \"newkey.sol\":2061:2071  contactIds */\n              0x02\n                /* \"newkey.sol\":2061:2078  contactIds.length */\n              dup1\n              sload\n              swap1\n              pop\n                /* \"newkey.sol\":2047:2079  new Contact[](contactIds.length) */\n              0xffffffffffffffff\n              dup2\n              gt\n              iszero\n              tag_101\n              jumpi\n              tag_102\n              tag_103\n              jump\t// in\n            tag_102:\n            tag_101:\n              mload(0x40)\n              swap1\n              dup1\n              dup3\n              mstore\n              dup1\n              0x20\n              mul\n              0x20\n              add\n              dup3\n              add\n              0x40\n              mstore\n              dup1\n              iszero\n              tag_104\n              jumpi\n              dup2\n              0x20\n              add\n            tag_105:\n              tag_106\n              tag_85\n              jump\t// in\n            tag_106:\n              dup2\n              mstore\n              0x20\n              add\n              swap1\n              0x01\n              swap1\n              sub\n              swap1\n              dup2\n              tag_105\n              jumpi\n              swap1\n              pop\n            tag_104:\n              pop\n                /* \"newkey.sol\":2016:2079  Contact[] memory allContacts = new Contact[](contactIds.length) */\n              swap1\n              pop\n                /* \"newkey.sol\":2094:2100  uint i */\n              0x00\n                /* \"newkey.sol\":2089:2199  for (uint i = 0; i < contactIds.length; i++) {... */\n            tag_107:\n                /* \"newkey.sol\":2110:2120  contactIds */\n              0x02\n                /* \"newkey.sol\":2110:2127  contactIds.length */\n              dup1\n              sload\n              swap1\n              pop\n                /* \"newkey.sol\":2106:2107  i */\n              dup2\n                /* \"newkey.sol\":2106:2127  i < contactIds.length */\n              lt\n                /* \"newkey.sol\":2089:2199  for (uint i = 0; i < contactIds.length; i++) {... */\n              iszero\n              tag_108\n              jumpi\n                /* \"newkey.sol\":2165:2173  contacts */\n              0x01\n                /* \"newkey.sol\":2165:2188  contacts[contactIds[i]] */\n              0x00\n                /* \"newkey.sol\":2174:2184  contactIds */\n              0x02\n                /* \"newkey.sol\":2185:2186  i */\n              dup4\n                /* \"newkey.sol\":2174:2187  contactIds[i] */\n              dup2\n              sload\n              dup2\n              lt\n              tag_110\n              jumpi\n              tag_111\n              tag_62\n              jump\t// in\n            tag_111:\n            tag_110:\n              swap1\n              0x00\n              mstore\n              keccak256(0x00, 0x20)\n              add\n              sload\n                /* \"newkey.sol\":2165:2188  contacts[contactIds[i]] */\n              dup2\n              mstore\n              0x20\n              add\n              swap1\n              dup2\n              mstore\n              0x20\n              add\n              0x00\n              keccak256\n                /* \"newkey.sol\":2148:2188  allContacts[i] = contacts[contactIds[i]] */\n              mload(0x40)\n              dup1\n              0x80\n              add\n              0x40\n              mstore\n              swap1\n              dup2\n              0x00\n              dup3\n              add\n              sload\n              dup2\n              mstore\n              0x20\n              add\n              0x01\n              dup3\n              add\n              dup1\n              sload\n              tag_113\n              swap1\n              tag_88\n              jump\t// in\n            tag_113:\n              dup1\n              0x1f\n              add\n              0x20\n              dup1\n              swap2\n              div\n              mul\n              0x20\n              add\n              mload(0x40)\n              swap1\n              dup2\n              add\n              0x40\n              mstore\n              dup1\n              swap3\n              swap2\n              swap1\n              dup2\n              dup2\n              mstore\n              0x20\n              add\n              dup3\n              dup1\n              sload\n              tag_114\n              swap1\n              tag_88\n              jump\t// in\n            tag_114:\n              dup1\n              iszero\n              tag_115\n              jumpi\n              dup1\n              0x1f\n              lt\n              tag_116\n              jumpi\n              0x0100\n              dup1\n              dup4\n              sload\n              div\n              mul\n              dup4\n              mstore\n              swap2\n              0x20\n              add\n              swap2\n              jump(tag_115)\n            tag_116:\n              dup3\n              add\n              swap2\n              swap1\n              0x00\n              mstore\n              keccak256(0x00, 0x20)\n              swap1\n            tag_117:\n              dup2\n              sload\n              dup2\n              mstore\n              swap1\n              0x01\n              add\n              swap1\n              0x20\n              add\n              dup1\n              dup4\n              gt\n              tag_117\n              jumpi\n              dup3\n              swap1\n              sub\n              0x1f\n              and\n              dup3\n              add\n              swap2\n            tag_115:\n              pop\n              pop\n              pop\n              pop\n              pop\n              dup2\n              mstore\n              0x20\n              add\n              0x02\n              dup3\n              add\n              dup1\n              sload\n              tag_118\n              swap1\n              tag_88\n              jump\t// in\n            tag_118:\n              dup1\n              0x1f\n              add\n              0x20\n              dup1\n              swap2\n              div\n              mul\n              0x20\n              add\n              mload(0x40)\n              swap1\n              dup2\n              add\n              0x40\n              mstore\n              dup1\n              swap3\n              swap2\n              swap1\n              dup2\n              dup2\n              mstore\n              0x20\n              add\n              dup3\n              dup1\n              sload\n              tag_119\n              swap1\n              tag_88\n              jump\t// in\n            tag_119:\n              dup1\n              iszero\n              tag_120\n              jumpi\n              dup1\n              0x1f\n              lt\n              tag_121\n              jumpi\n              0x0100\n              dup1\n              dup4\n              sload\n              div\n              mul\n              dup4\n              mstore\n              swap2\n              0x20\n              add\n              swap2\n              jump(tag_120)\n            tag_121:\n              dup3\n              add\n              swap2\n              swap1\n              0x00\n              mstore\n              keccak256(0x00, 0x20)\n              swap1\n            tag_122:\n              dup2\n              sload\n              dup2\n              mstore\n              swap1\n              0x01\n              add\n              swap1\n              0x20\n              add\n              dup1\n              dup4\n              gt\n              tag_122\n              jumpi\n              dup3\n              swap1\n              sub\n              0x1f\n              and\n              dup3\n              add\n              swap2\n            tag_120:\n              pop\n              pop\n              pop\n              pop\n              pop\n              dup2\n              mstore\n              0x20\n              add\n              0x03\n              dup3\n              add\n              dup1\n              sload\n              dup1\n              0x20\n              mul\n              0x20\n              add\n              mload(0x40)\n              swap1\n              dup2\n              add\n              0x40\n              mstore\n              dup1\n              swap3\n              swap2\n              swap1\n              dup2\n              dup2\n              mstore\n              0x20\n              add\n              dup3\n              dup1\n              sload\n              dup1\n              iszero\n              tag_123\n              jumpi\n              0x20\n              mul\n              dup3\n              add\n              swap2\n              swap1\n              0x00\n              mstore\n              keccak256(0x00, 0x20)\n              swap1\n            tag_124:\n              dup2\n              sload\n              dup2\n              mstore\n              0x20\n              add\n              swap1\n              0x01\n              add\n              swap1\n              dup1\n              dup4\n              gt\n              tag_124\n              jumpi\n            tag_123:\n              pop\n              pop\n              pop\n              pop\n              pop\n              dup2\n              mstore\n              pop\n              pop\n                /* \"newkey.sol\":2148:2159  allContacts */\n              dup3\n                /* \"newkey.sol\":2160:2161  i */\n              dup3\n                /* \"newkey.sol\":2148:2162  allContacts[i] */\n              dup2\n              mload\n              dup2\n              lt\n              tag_125\n              jumpi\n              tag_126\n              tag_62\n              jump\t// in\n            tag_126:\n            tag_125:\n              0x20\n              mul\n              0x20\n              add\n              add\n                /* \"newkey.sol\":2148:2188  allContacts[i] = contacts[contactIds[i]] */\n              dup2\n              swap1\n              mstore\n              pop\n                /* \"newkey.sol\":2129:2132  i++ */\n              dup1\n              dup1\n              0x01\n              add\n              swap2\n              pop\n              pop\n                /* \"newkey.sol\":2089:2199  for (uint i = 0; i < contactIds.length; i++) {... */\n              jump(tag_107)\n            tag_108:\n              pop\n                /* \"newkey.sol\":2215:2226  allContacts */\n              dup1\n                /* \"newkey.sol\":2208:2226  return allContacts */\n              swap2\n              pop\n              pop\n                /* \"newkey.sol\":1930:2233  function getAllContacts() external view override returns (Contact[] memory) {... */\n              swap1\n              jump\t// out\n                /* \"@openzeppelin/contracts/access/Ownable.sol\":2543:2758  function transferOwnership(address newOwner) public virtual onlyOwner {... */\n            tag_37:\n                /* \"@openzeppelin/contracts/access/Ownable.sol\":1531:1544  _checkOwner() */\n              tag_128\n                /* \"@openzeppelin/contracts/access/Ownable.sol\":1531:1542  _checkOwner */\n              tag_40\n                /* \"@openzeppelin/contracts/access/Ownable.sol\":1531:1544  _checkOwner() */\n              jump\t// in\n            tag_128:\n                /* \"@openzeppelin/contracts/access/Ownable.sol\":2647:2648  0 */\n              0x00\n                /* \"@openzeppelin/contracts/access/Ownable.sol\":2627:2649  newOwner == address(0) */\n              0xffffffffffffffffffffffffffffffffffffffff\n              and\n                /* \"@openzeppelin/contracts/access/Ownable.sol\":2627:2635  newOwner */\n              dup2\n                /* \"@openzeppelin/contracts/access/Ownable.sol\":2627:2649  newOwner == address(0) */\n              0xffffffffffffffffffffffffffffffffffffffff\n              and\n              sub\n                /* \"@openzeppelin/contracts/access/Ownable.sol\":2623:2714  if (newOwner == address(0)) {... */\n              tag_130\n              jumpi\n                /* \"@openzeppelin/contracts/access/Ownable.sol\":2700:2701  0 */\n              0x00\n                /* \"@openzeppelin/contracts/access/Ownable.sol\":2672:2703  OwnableInvalidOwner(address(0)) */\n              mload(0x40)\n              0x1e4fbdf700000000000000000000000000000000000000000000000000000000\n              dup2\n              mstore\n              0x04\n              add\n              tag_131\n              swap2\n              swap1\n              tag_20\n              jump\t// in\n            tag_131:\n              mload(0x40)\n              dup1\n              swap2\n              sub\n              swap1\n              revert\n                /* \"@openzeppelin/contracts/access/Ownable.sol\":2623:2714  if (newOwner == address(0)) {... */\n            tag_130:\n                /* \"@openzeppelin/contracts/access/Ownable.sol\":2723:2751  _transferOwnership(newOwner) */\n              tag_132\n                /* \"@openzeppelin/contracts/access/Ownable.sol\":2742:2750  newOwner */\n              dup2\n                /* \"@openzeppelin/contracts/access/Ownable.sol\":2723:2741  _transferOwnership */\n              tag_54\n                /* \"@openzeppelin/contracts/access/Ownable.sol\":2723:2751  _transferOwnership(newOwner) */\n              jump\t// in\n            tag_132:\n                /* \"@openzeppelin/contracts/access/Ownable.sol\":2543:2758  function transferOwnership(address newOwner) public virtual onlyOwner {... */\n              pop\n              jump\t// out\n                /* \"@openzeppelin/contracts/access/Ownable.sol\":1796:1958  function _checkOwner() internal view virtual {... */\n            tag_40:\n                /* \"@openzeppelin/contracts/access/Ownable.sol\":1866:1878  _msgSender() */\n              tag_134\n                /* \"@openzeppelin/contracts/access/Ownable.sol\":1866:1876  _msgSender */\n              tag_135\n                /* \"@openzeppelin/contracts/access/Ownable.sol\":1866:1878  _msgSender() */\n              jump\t// in\n            tag_134:\n                /* \"@openzeppelin/contracts/access/Ownable.sol\":1855:1878  owner() != _msgSender() */\n              0xffffffffffffffffffffffffffffffffffffffff\n              and\n                /* \"@openzeppelin/contracts/access/Ownable.sol\":1855:1862  owner() */\n              tag_136\n                /* \"@openzeppelin/contracts/access/Ownable.sol\":1855:1860  owner */\n              tag_18\n                /* \"@openzeppelin/contracts/access/Ownable.sol\":1855:1862  owner() */\n              jump\t// in\n            tag_136:\n                /* \"@openzeppelin/contracts/access/Ownable.sol\":1855:1878  owner() != _msgSender() */\n              0xffffffffffffffffffffffffffffffffffffffff\n              and\n              eq\n                /* \"@openzeppelin/contracts/access/Ownable.sol\":1851:1952  if (owner() != _msgSender()) {... */\n              tag_137\n              jumpi\n                /* \"@openzeppelin/contracts/access/Ownable.sol\":1928:1940  _msgSender() */\n              tag_138\n                /* \"@openzeppelin/contracts/access/Ownable.sol\":1928:1938  _msgSender */\n              tag_135\n                /* \"@openzeppelin/contracts/access/Ownable.sol\":1928:1940  _msgSender() */\n              jump\t// in\n            tag_138:\n                /* \"@openzeppelin/contracts/access/Ownable.sol\":1901:1941  OwnableUnauthorizedAccount(_msgSender()) */\n              mload(0x40)\n              0x118cdaa700000000000000000000000000000000000000000000000000000000\n              dup2\n              mstore\n              0x04\n              add\n              tag_139\n              swap2\n              swap1\n              tag_20\n              jump\t// in\n            tag_139:\n              mload(0x40)\n              dup1\n              swap2\n              sub\n              swap1\n              revert\n                /* \"@openzeppelin/contracts/access/Ownable.sol\":1851:1952  if (owner() != _msgSender()) {... */\n            tag_137:\n                /* \"@openzeppelin/contracts/access/Ownable.sol\":1796:1958  function _checkOwner() internal view virtual {... */\n              jump\t// out\n                /* \"@openzeppelin/contracts/access/Ownable.sol\":2912:3099  function _transferOwnership(address newOwner) internal virtual {... */\n            tag_54:\n                /* \"@openzeppelin/contracts/access/Ownable.sol\":2985:3001  address oldOwner */\n              0x00\n                /* \"@openzeppelin/contracts/access/Ownable.sol\":3004:3010  _owner */\n              dup1\n              0x00\n              swap1\n              sload\n              swap1\n              0x0100\n              exp\n              swap1\n              div\n              0xffffffffffffffffffffffffffffffffffffffff\n              and\n                /* \"@openzeppelin/contracts/access/Ownable.sol\":2985:3010  address oldOwner = _owner */\n              swap1\n              pop\n                /* \"@openzeppelin/contracts/access/Ownable.sol\":3029:3037  newOwner */\n              dup2\n                /* \"@openzeppelin/contracts/access/Ownable.sol\":3020:3026  _owner */\n              0x00\n              dup1\n                /* \"@openzeppelin/contracts/access/Ownable.sol\":3020:3037  _owner = newOwner */\n              0x0100\n              exp\n              dup2\n              sload\n              dup2\n              0xffffffffffffffffffffffffffffffffffffffff\n              mul\n              not\n              and\n              swap1\n              dup4\n              0xffffffffffffffffffffffffffffffffffffffff\n              and\n              mul\n              or\n              swap1\n              sstore\n              pop\n                /* \"@openzeppelin/contracts/access/Ownable.sol\":3083:3091  newOwner */\n              dup2\n                /* \"@openzeppelin/contracts/access/Ownable.sol\":3052:3092  OwnershipTransferred(oldOwner, newOwner) */\n              0xffffffffffffffffffffffffffffffffffffffff\n              and\n                /* \"@openzeppelin/contracts/access/Ownable.sol\":3073:3081  oldOwner */\n              dup2\n                /* \"@openzeppelin/contracts/access/Ownable.sol\":3052:3092  OwnershipTransferred(oldOwner, newOwner) */\n              0xffffffffffffffffffffffffffffffffffffffff\n              and\n              0x8be0079c531659141344cd1fd0a4f28419497f9722a3daafe3b4186f6b6457e0\n              mload(0x40)\n              mload(0x40)\n              dup1\n              swap2\n              sub\n              swap1\n              log3\n                /* \"@openzeppelin/contracts/access/Ownable.sol\":2975:3099  {... */\n              pop\n                /* \"@openzeppelin/contracts/access/Ownable.sol\":2912:3099  function _transferOwnership(address newOwner) internal virtual {... */\n              pop\n              jump\t// out\n                /* \"@openzeppelin/contracts/utils/Context.sol\":656:752  function _msgSender() internal view virtual returns (address) {... */\n            tag_135:\n                /* \"@openzeppelin/contracts/utils/Context.sol\":709:716  address */\n              0x00\n                /* \"@openzeppelin/contracts/utils/Context.sol\":735:745  msg.sender */\n              caller\n                /* \"@openzeppelin/contracts/utils/Context.sol\":728:745  return msg.sender */\n              swap1\n              pop\n                /* \"@openzeppelin/contracts/utils/Context.sol\":656:752  function _msgSender() internal view virtual returns (address) {... */\n              swap1\n              jump\t// out\n            tag_46:\n              dup3\n              dup1\n              sload\n              dup3\n              dup3\n              sstore\n              swap1\n              0x00\n              mstore\n              keccak256(0x00, 0x20)\n              swap1\n              dup2\n              add\n              swap3\n              dup3\n              iszero\n              tag_142\n              jumpi\n              swap2\n              0x20\n              mul\n              dup3\n              add\n            tag_143:\n              dup3\n              dup2\n              gt\n              iszero\n              tag_144\n              jumpi\n              dup3\n              mload\n              dup3\n              sstore\n              swap2\n              0x20\n              add\n              swap2\n              swap1\n              0x01\n              add\n              swap1\n              jump(tag_143)\n            tag_144:\n            tag_142:\n              pop\n              swap1\n              pop\n              tag_145\n              swap2\n              swap1\n              tag_146\n              jump\t// in\n            tag_145:\n              pop\n              swap1\n              jump\t// out\n            tag_80:\n              pop\n              dup1\n              sload\n              tag_147\n              swap1\n              tag_88\n              jump\t// in\n            tag_147:\n              0x00\n              dup3\n              sstore\n              dup1\n              0x1f\n              lt\n              tag_149\n              jumpi\n              pop\n              jump(tag_148)\n            tag_149:\n              0x1f\n              add\n              0x20\n              swap1\n              div\n              swap1\n              0x00\n              mstore\n              keccak256(0x00, 0x20)\n              swap1\n              dup2\n              add\n              swap1\n              tag_150\n              swap2\n              swap1\n              tag_146\n              jump\t// in\n            tag_150:\n            tag_148:\n              pop\n              jump\t// out\n            tag_83:\n              pop\n              dup1\n              sload\n              0x00\n              dup3\n              sstore\n              swap1\n              0x00\n              mstore\n              keccak256(0x00, 0x20)\n              swap1\n              dup2\n              add\n              swap1\n              tag_152\n              swap2\n              swap1\n              tag_146\n              jump\t// in\n            tag_152:\n              pop\n              jump\t// out\n            tag_85:\n              mload(0x40)\n              dup1\n              0x80\n              add\n              0x40\n              mstore\n              dup1\n              0x00\n              dup2\n              mstore\n              0x20\n              add\n              0x60\n              dup2\n              mstore\n              0x20\n              add\n              0x60\n              dup2\n              mstore\n              0x20\n              add\n              0x60\n              dup2\n              mstore\n              pop\n              swap1\n              jump\t// out\n            tag_146:\n            tag_153:\n              dup1\n              dup3\n              gt\n              iszero\n              tag_154\n              jumpi\n              0x00\n              dup2\n              0x00\n              swap1\n              sstore\n              pop\n              0x01\n              add\n              jump(tag_153)\n            tag_154:\n              pop\n              swap1\n              jump\t// out\n                /* \"#utility.yul\":7:82   */\n            tag_155:\n                /* \"#utility.yul\":40:46   */\n              0x00\n                /* \"#utility.yul\":73:75   */\n              0x40\n                /* \"#utility.yul\":67:76   */\n              mload\n                /* \"#utility.yul\":57:76   */\n              swap1\n              pop\n                /* \"#utility.yul\":7:82   */\n              swap1\n              jump\t// out\n                /* \"#utility.yul\":88:205   */\n            tag_156:\n                /* \"#utility.yul\":197:198   */\n              0x00\n                /* \"#utility.yul\":194:195   */\n              dup1\n                /* \"#utility.yul\":187:199   */\n              revert\n                /* \"#utility.yul\":211:328   */\n            tag_157:\n                /* \"#utility.yul\":320:321   */\n              0x00\n                /* \"#utility.yul\":317:318   */\n              dup1\n                /* \"#utility.yul\":310:322   */\n              revert\n                /* \"#utility.yul\":334:451   */\n            tag_158:\n                /* \"#utility.yul\":443:444   */\n              0x00\n                /* \"#utility.yul\":440:441   */\n              dup1\n                /* \"#utility.yul\":433:445   */\n              revert\n                /* \"#utility.yul\":457:574   */\n            tag_159:\n                /* \"#utility.yul\":566:567   */\n              0x00\n                /* \"#utility.yul\":563:564   */\n              dup1\n                /* \"#utility.yul\":556:568   */\n              revert\n                /* \"#utility.yul\":580:682   */\n            tag_160:\n                /* \"#utility.yul\":621:627   */\n              0x00\n                /* \"#utility.yul\":672:674   */\n              0x1f\n                /* \"#utility.yul\":668:675   */\n              not\n                /* \"#utility.yul\":663:665   */\n              0x1f\n                /* \"#utility.yul\":656:661   */\n              dup4\n                /* \"#utility.yul\":652:666   */\n              add\n                /* \"#utility.yul\":648:676   */\n              and\n                /* \"#utility.yul\":638:676   */\n              swap1\n              pop\n                /* \"#utility.yul\":580:682   */\n              swap2\n              swap1\n              pop\n              jump\t// out\n                /* \"#utility.yul\":688:868   */\n            tag_103:\n                /* \"#utility.yul\":736:813   */\n              0x4e487b7100000000000000000000000000000000000000000000000000000000\n                /* \"#utility.yul\":733:734   */\n              0x00\n                /* \"#utility.yul\":726:814   */\n              mstore\n                /* \"#utility.yul\":833:837   */\n              0x41\n                /* \"#utility.yul\":830:831   */\n              0x04\n                /* \"#utility.yul\":823:838   */\n              mstore\n                /* \"#utility.yul\":857:861   */\n              0x24\n                /* \"#utility.yul\":854:855   */\n              0x00\n                /* \"#utility.yul\":847:862   */\n              revert\n                /* \"#utility.yul\":874:1155   */\n            tag_161:\n                /* \"#utility.yul\":957:984   */\n              tag_227\n                /* \"#utility.yul\":979:983   */\n              dup3\n                /* \"#utility.yul\":957:984   */\n              tag_160\n              jump\t// in\n            tag_227:\n                /* \"#utility.yul\":949:955   */\n              dup2\n                /* \"#utility.yul\":945:985   */\n              add\n                /* \"#utility.yul\":1087:1093   */\n              dup2\n                /* \"#utility.yul\":1075:1085   */\n              dup2\n                /* \"#utility.yul\":1072:1094   */\n              lt\n                /* \"#utility.yul\":1051:1069   */\n              0xffffffffffffffff\n                /* \"#utility.yul\":1039:1049   */\n              dup3\n                /* \"#utility.yul\":1036:1070   */\n              gt\n                /* \"#utility.yul\":1033:1095   */\n              or\n                /* \"#utility.yul\":1030:1118   */\n              iszero\n              tag_228\n              jumpi\n                /* \"#utility.yul\":1098:1116   */\n              tag_229\n              tag_103\n              jump\t// in\n            tag_229:\n                /* \"#utility.yul\":1030:1118   */\n            tag_228:\n                /* \"#utility.yul\":1138:1148   */\n              dup1\n                /* \"#utility.yul\":1134:1136   */\n              0x40\n                /* \"#utility.yul\":1127:1149   */\n              mstore\n                /* \"#utility.yul\":917:1155   */\n              pop\n                /* \"#utility.yul\":874:1155   */\n              pop\n              pop\n              jump\t// out\n                /* \"#utility.yul\":1161:1290   */\n            tag_162:\n                /* \"#utility.yul\":1195:1201   */\n              0x00\n                /* \"#utility.yul\":1222:1242   */\n              tag_231\n              tag_155\n              jump\t// in\n            tag_231:\n                /* \"#utility.yul\":1212:1242   */\n              swap1\n              pop\n                /* \"#utility.yul\":1251:1284   */\n              tag_232\n                /* \"#utility.yul\":1279:1283   */\n              dup3\n                /* \"#utility.yul\":1271:1277   */\n              dup3\n                /* \"#utility.yul\":1251:1284   */\n              tag_161\n              jump\t// in\n            tag_232:\n                /* \"#utility.yul\":1161:1290   */\n              swap2\n              swap1\n              pop\n              jump\t// out\n                /* \"#utility.yul\":1296:1604   */\n            tag_163:\n                /* \"#utility.yul\":1358:1362   */\n              0x00\n                /* \"#utility.yul\":1448:1466   */\n              0xffffffffffffffff\n                /* \"#utility.yul\":1440:1446   */\n              dup3\n                /* \"#utility.yul\":1437:1467   */\n              gt\n                /* \"#utility.yul\":1434:1490   */\n              iszero\n              tag_234\n              jumpi\n                /* \"#utility.yul\":1470:1488   */\n              tag_235\n              tag_103\n              jump\t// in\n            tag_235:\n                /* \"#utility.yul\":1434:1490   */\n            tag_234:\n                /* \"#utility.yul\":1508:1537   */\n              tag_236\n                /* \"#utility.yul\":1530:1536   */\n              dup3\n                /* \"#utility.yul\":1508:1537   */\n              tag_160\n              jump\t// in\n            tag_236:\n                /* \"#utility.yul\":1500:1537   */\n              swap1\n              pop\n                /* \"#utility.yul\":1592:1596   */\n              0x20\n                /* \"#utility.yul\":1586:1590   */\n              dup2\n                /* \"#utility.yul\":1582:1597   */\n              add\n                /* \"#utility.yul\":1574:1597   */\n              swap1\n              pop\n                /* \"#utility.yul\":1296:1604   */\n              swap2\n              swap1\n              pop\n              jump\t// out\n                /* \"#utility.yul\":1610:1756   */\n            tag_164:\n                /* \"#utility.yul\":1707:1713   */\n              dup3\n                /* \"#utility.yul\":1702:1705   */\n              dup2\n                /* \"#utility.yul\":1697:1700   */\n              dup4\n                /* \"#utility.yul\":1684:1714   */\n              calldatacopy\n                /* \"#utility.yul\":1748:1749   */\n              0x00\n                /* \"#utility.yul\":1739:1745   */\n              dup4\n                /* \"#utility.yul\":1734:1737   */\n              dup4\n                /* \"#utility.yul\":1730:1746   */\n              add\n                /* \"#utility.yul\":1723:1750   */\n              mstore\n                /* \"#utility.yul\":1610:1756   */\n              pop\n              pop\n              pop\n              jump\t// out\n                /* \"#utility.yul\":1762:2187   */\n            tag_165:\n                /* \"#utility.yul\":1840:1845   */\n              0x00\n                /* \"#utility.yul\":1865:1931   */\n              tag_239\n                /* \"#utility.yul\":1881:1930   */\n              tag_240\n                /* \"#utility.yul\":1923:1929   */\n              dup5\n                /* \"#utility.yul\":1881:1930   */\n              tag_163\n              jump\t// in\n            tag_240:\n                /* \"#utility.yul\":1865:1931   */\n              tag_162\n              jump\t// in\n            tag_239:\n                /* \"#utility.yul\":1856:1931   */\n              swap1\n              pop\n                /* \"#utility.yul\":1954:1960   */\n              dup3\n                /* \"#utility.yul\":1947:1952   */\n              dup2\n                /* \"#utility.yul\":1940:1961   */\n              mstore\n                /* \"#utility.yul\":1992:1996   */\n              0x20\n                /* \"#utility.yul\":1985:1990   */\n              dup2\n                /* \"#utility.yul\":1981:1997   */\n              add\n                /* \"#utility.yul\":2030:2033   */\n              dup5\n                /* \"#utility.yul\":2021:2027   */\n              dup5\n                /* \"#utility.yul\":2016:2019   */\n              dup5\n                /* \"#utility.yul\":2012:2028   */\n              add\n                /* \"#utility.yul\":2009:2034   */\n              gt\n                /* \"#utility.yul\":2006:2118   */\n              iszero\n              tag_241\n              jumpi\n                /* \"#utility.yul\":2037:2116   */\n              tag_242\n              tag_159\n              jump\t// in\n            tag_242:\n                /* \"#utility.yul\":2006:2118   */\n            tag_241:\n                /* \"#utility.yul\":2127:2181   */\n              tag_243\n                /* \"#utility.yul\":2174:2180   */\n              dup5\n                /* \"#utility.yul\":2169:2172   */\n              dup3\n                /* \"#utility.yul\":2164:2167   */\n              dup6\n                /* \"#utility.yul\":2127:2181   */\n              tag_164\n              jump\t// in\n            tag_243:\n                /* \"#utility.yul\":1846:2187   */\n              pop\n                /* \"#utility.yul\":1762:2187   */\n              swap4\n              swap3\n              pop\n              pop\n              pop\n              jump\t// out\n                /* \"#utility.yul\":2207:2547   */\n            tag_166:\n                /* \"#utility.yul\":2263:2268   */\n              0x00\n                /* \"#utility.yul\":2312:2315   */\n              dup3\n                /* \"#utility.yul\":2305:2309   */\n              0x1f\n                /* \"#utility.yul\":2297:2303   */\n              dup4\n                /* \"#utility.yul\":2293:2310   */\n              add\n                /* \"#utility.yul\":2289:2316   */\n              slt\n                /* \"#utility.yul\":2279:2401   */\n              tag_245\n              jumpi\n                /* \"#utility.yul\":2320:2399   */\n              tag_246\n              tag_158\n              jump\t// in\n            tag_246:\n                /* \"#utility.yul\":2279:2401   */\n            tag_245:\n                /* \"#utility.yul\":2437:2443   */\n              dup2\n                /* \"#utility.yul\":2424:2444   */\n              calldataload\n                /* \"#utility.yul\":2462:2541   */\n              tag_247\n                /* \"#utility.yul\":2537:2540   */\n              dup5\n                /* \"#utility.yul\":2529:2535   */\n              dup3\n                /* \"#utility.yul\":2522:2526   */\n              0x20\n                /* \"#utility.yul\":2514:2520   */\n              dup7\n                /* \"#utility.yul\":2510:2527   */\n              add\n                /* \"#utility.yul\":2462:2541   */\n              tag_165\n              jump\t// in\n            tag_247:\n                /* \"#utility.yul\":2453:2541   */\n              swap2\n              pop\n                /* \"#utility.yul\":2269:2547   */\n              pop\n                /* \"#utility.yul\":2207:2547   */\n              swap3\n              swap2\n              pop\n              pop\n              jump\t// out\n                /* \"#utility.yul\":2553:2864   */\n            tag_167:\n                /* \"#utility.yul\":2630:2634   */\n              0x00\n                /* \"#utility.yul\":2720:2738   */\n              0xffffffffffffffff\n                /* \"#utility.yul\":2712:2718   */\n              dup3\n                /* \"#utility.yul\":2709:2739   */\n              gt\n                /* \"#utility.yul\":2706:2762   */\n              iszero\n              tag_249\n              jumpi\n                /* \"#utility.yul\":2742:2760   */\n              tag_250\n              tag_103\n              jump\t// in\n            tag_250:\n                /* \"#utility.yul\":2706:2762   */\n            tag_249:\n                /* \"#utility.yul\":2792:2796   */\n              0x20\n                /* \"#utility.yul\":2784:2790   */\n              dup3\n                /* \"#utility.yul\":2780:2797   */\n              mul\n                /* \"#utility.yul\":2772:2797   */\n              swap1\n              pop\n                /* \"#utility.yul\":2852:2856   */\n              0x20\n                /* \"#utility.yul\":2846:2850   */\n              dup2\n                /* \"#utility.yul\":2842:2857   */\n              add\n                /* \"#utility.yul\":2834:2857   */\n              swap1\n              pop\n                /* \"#utility.yul\":2553:2864   */\n              swap2\n              swap1\n              pop\n              jump\t// out\n                /* \"#utility.yul\":2870:2987   */\n            tag_168:\n                /* \"#utility.yul\":2979:2980   */\n              0x00\n                /* \"#utility.yul\":2976:2977   */\n              dup1\n                /* \"#utility.yul\":2969:2981   */\n              revert\n                /* \"#utility.yul\":2993:3070   */\n            tag_169:\n                /* \"#utility.yul\":3030:3037   */\n              0x00\n                /* \"#utility.yul\":3059:3064   */\n              dup2\n                /* \"#utility.yul\":3048:3064   */\n              swap1\n              pop\n                /* \"#utility.yul\":2993:3070   */\n              swap2\n              swap1\n              pop\n              jump\t// out\n                /* \"#utility.yul\":3076:3198   */\n            tag_170:\n                /* \"#utility.yul\":3149:3173   */\n              tag_254\n                /* \"#utility.yul\":3167:3172   */\n              dup2\n                /* \"#utility.yul\":3149:3173   */\n              tag_169\n              jump\t// in\n            tag_254:\n                /* \"#utility.yul\":3142:3147   */\n              dup2\n                /* \"#utility.yul\":3139:3174   */\n              eq\n                /* \"#utility.yul\":3129:3192   */\n              tag_255\n              jumpi\n                /* \"#utility.yul\":3188:3189   */\n              0x00\n                /* \"#utility.yul\":3185:3186   */\n              dup1\n                /* \"#utility.yul\":3178:3190   */\n              revert\n                /* \"#utility.yul\":3129:3192   */\n            tag_255:\n                /* \"#utility.yul\":3076:3198   */\n              pop\n              jump\t// out\n                /* \"#utility.yul\":3204:3343   */\n            tag_171:\n                /* \"#utility.yul\":3250:3255   */\n              0x00\n                /* \"#utility.yul\":3288:3294   */\n              dup2\n                /* \"#utility.yul\":3275:3295   */\n              calldataload\n                /* \"#utility.yul\":3266:3295   */\n              swap1\n              pop\n                /* \"#utility.yul\":3304:3337   */\n              tag_257\n                /* \"#utility.yul\":3331:3336   */\n              dup2\n                /* \"#utility.yul\":3304:3337   */\n              tag_170\n              jump\t// in\n            tag_257:\n                /* \"#utility.yul\":3204:3343   */\n              swap3\n              swap2\n              pop\n              pop\n              jump\t// out\n                /* \"#utility.yul\":3366:4076   */\n            tag_172:\n                /* \"#utility.yul\":3462:3467   */\n              0x00\n                /* \"#utility.yul\":3487:3568   */\n              tag_259\n                /* \"#utility.yul\":3503:3567   */\n              tag_260\n                /* \"#utility.yul\":3560:3566   */\n              dup5\n                /* \"#utility.yul\":3503:3567   */\n              tag_167\n              jump\t// in\n            tag_260:\n                /* \"#utility.yul\":3487:3568   */\n              tag_162\n              jump\t// in\n            tag_259:\n                /* \"#utility.yul\":3478:3568   */\n              swap1\n              pop\n                /* \"#utility.yul\":3588:3593   */\n              dup1\n                /* \"#utility.yul\":3617:3623   */\n              dup4\n                /* \"#utility.yul\":3610:3615   */\n              dup3\n                /* \"#utility.yul\":3603:3624   */\n              mstore\n                /* \"#utility.yul\":3651:3655   */\n              0x20\n                /* \"#utility.yul\":3644:3649   */\n              dup3\n                /* \"#utility.yul\":3640:3656   */\n              add\n                /* \"#utility.yul\":3633:3656   */\n              swap1\n              pop\n                /* \"#utility.yul\":3704:3708   */\n              0x20\n                /* \"#utility.yul\":3696:3702   */\n              dup5\n                /* \"#utility.yul\":3692:3709   */\n              mul\n                /* \"#utility.yul\":3684:3690   */\n              dup4\n                /* \"#utility.yul\":3680:3710   */\n              add\n                /* \"#utility.yul\":3733:3736   */\n              dup6\n                /* \"#utility.yul\":3725:3731   */\n              dup2\n                /* \"#utility.yul\":3722:3737   */\n              gt\n                /* \"#utility.yul\":3719:3841   */\n              iszero\n              tag_261\n              jumpi\n                /* \"#utility.yul\":3752:3831   */\n              tag_262\n              tag_168\n              jump\t// in\n            tag_262:\n                /* \"#utility.yul\":3719:3841   */\n            tag_261:\n                /* \"#utility.yul\":3867:3873   */\n              dup4\n                /* \"#utility.yul\":3850:4070   */\n            tag_263:\n                /* \"#utility.yul\":3884:3890   */\n              dup2\n                /* \"#utility.yul\":3879:3882   */\n              dup2\n                /* \"#utility.yul\":3876:3891   */\n              lt\n                /* \"#utility.yul\":3850:4070   */\n              iszero\n              tag_265\n              jumpi\n                /* \"#utility.yul\":3959:3962   */\n              dup1\n                /* \"#utility.yul\":3988:4025   */\n              tag_266\n                /* \"#utility.yul\":4021:4024   */\n              dup9\n                /* \"#utility.yul\":4009:4019   */\n              dup3\n                /* \"#utility.yul\":3988:4025   */\n              tag_171\n              jump\t// in\n            tag_266:\n                /* \"#utility.yul\":3983:3986   */\n              dup5\n                /* \"#utility.yul\":3976:4026   */\n              mstore\n                /* \"#utility.yul\":4055:4059   */\n              0x20\n                /* \"#utility.yul\":4050:4053   */\n              dup5\n                /* \"#utility.yul\":4046:4060   */\n              add\n                /* \"#utility.yul\":4039:4060   */\n              swap4\n              pop\n                /* \"#utility.yul\":3926:4070   */\n              pop\n                /* \"#utility.yul\":3910:3914   */\n              0x20\n                /* \"#utility.yul\":3905:3908   */\n              dup2\n                /* \"#utility.yul\":3901:3915   */\n              add\n                /* \"#utility.yul\":3894:3915   */\n              swap1\n              pop\n                /* \"#utility.yul\":3850:4070   */\n              jump(tag_263)\n            tag_265:\n                /* \"#utility.yul\":3854:3875   */\n              pop\n                /* \"#utility.yul\":3468:4076   */\n              pop\n              pop\n                /* \"#utility.yul\":3366:4076   */\n              swap4\n              swap3\n              pop\n              pop\n              pop\n              jump\t// out\n                /* \"#utility.yul\":4099:4469   */\n            tag_173:\n                /* \"#utility.yul\":4170:4175   */\n              0x00\n                /* \"#utility.yul\":4219:4222   */\n              dup3\n                /* \"#utility.yul\":4212:4216   */\n              0x1f\n                /* \"#utility.yul\":4204:4210   */\n              dup4\n                /* \"#utility.yul\":4200:4217   */\n              add\n                /* \"#utility.yul\":4196:4223   */\n              slt\n                /* \"#utility.yul\":4186:4308   */\n              tag_268\n              jumpi\n                /* \"#utility.yul\":4227:4306   */\n              tag_269\n              tag_158\n              jump\t// in\n            tag_269:\n                /* \"#utility.yul\":4186:4308   */\n            tag_268:\n                /* \"#utility.yul\":4344:4350   */\n              dup2\n                /* \"#utility.yul\":4331:4351   */\n              calldataload\n                /* \"#utility.yul\":4369:4463   */\n              tag_270\n                /* \"#utility.yul\":4459:4462   */\n              dup5\n                /* \"#utility.yul\":4451:4457   */\n              dup3\n                /* \"#utility.yul\":4444:4448   */\n              0x20\n                /* \"#utility.yul\":4436:4442   */\n              dup7\n                /* \"#utility.yul\":4432:4449   */\n              add\n                /* \"#utility.yul\":4369:4463   */\n              tag_172\n              jump\t// in\n            tag_270:\n                /* \"#utility.yul\":4360:4463   */\n              swap2\n              pop\n                /* \"#utility.yul\":4176:4469   */\n              pop\n                /* \"#utility.yul\":4099:4469   */\n              swap3\n              swap2\n              pop\n              pop\n              jump\t// out\n                /* \"#utility.yul\":4475:5664   */\n            tag_13:\n                /* \"#utility.yul\":4597:4603   */\n              0x00\n                /* \"#utility.yul\":4605:4611   */\n              dup1\n                /* \"#utility.yul\":4613:4619   */\n              0x00\n                /* \"#utility.yul\":4662:4664   */\n              0x60\n                /* \"#utility.yul\":4650:4659   */\n              dup5\n                /* \"#utility.yul\":4641:4648   */\n              dup7\n                /* \"#utility.yul\":4637:4660   */\n              sub\n                /* \"#utility.yul\":4633:4665   */\n              slt\n                /* \"#utility.yul\":4630:4749   */\n              iszero\n              tag_272\n              jumpi\n                /* \"#utility.yul\":4668:4747   */\n              tag_273\n              tag_156\n              jump\t// in\n            tag_273:\n                /* \"#utility.yul\":4630:4749   */\n            tag_272:\n                /* \"#utility.yul\":4816:4817   */\n              0x00\n                /* \"#utility.yul\":4805:4814   */\n              dup5\n                /* \"#utility.yul\":4801:4818   */\n              add\n                /* \"#utility.yul\":4788:4819   */\n              calldataload\n                /* \"#utility.yul\":4846:4864   */\n              0xffffffffffffffff\n                /* \"#utility.yul\":4838:4844   */\n              dup2\n                /* \"#utility.yul\":4835:4865   */\n              gt\n                /* \"#utility.yul\":4832:4949   */\n              iszero\n              tag_274\n              jumpi\n                /* \"#utility.yul\":4868:4947   */\n              tag_275\n              tag_157\n              jump\t// in\n            tag_275:\n                /* \"#utility.yul\":4832:4949   */\n            tag_274:\n                /* \"#utility.yul\":4973:5036   */\n              tag_276\n                /* \"#utility.yul\":5028:5035   */\n              dup7\n                /* \"#utility.yul\":5019:5025   */\n              dup3\n                /* \"#utility.yul\":5008:5017   */\n              dup8\n                /* \"#utility.yul\":5004:5026   */\n              add\n                /* \"#utility.yul\":4973:5036   */\n              tag_166\n              jump\t// in\n            tag_276:\n                /* \"#utility.yul\":4963:5036   */\n              swap4\n              pop\n                /* \"#utility.yul\":4759:5046   */\n              pop\n                /* \"#utility.yul\":5113:5115   */\n              0x20\n                /* \"#utility.yul\":5102:5111   */\n              dup5\n                /* \"#utility.yul\":5098:5116   */\n              add\n                /* \"#utility.yul\":5085:5117   */\n              calldataload\n                /* \"#utility.yul\":5144:5162   */\n              0xffffffffffffffff\n                /* \"#utility.yul\":5136:5142   */\n              dup2\n                /* \"#utility.yul\":5133:5163   */\n              gt\n                /* \"#utility.yul\":5130:5247   */\n              iszero\n              tag_277\n              jumpi\n                /* \"#utility.yul\":5166:5245   */\n              tag_278\n              tag_157\n              jump\t// in\n            tag_278:\n                /* \"#utility.yul\":5130:5247   */\n            tag_277:\n                /* \"#utility.yul\":5271:5334   */\n              tag_279\n                /* \"#utility.yul\":5326:5333   */\n              dup7\n                /* \"#utility.yul\":5317:5323   */\n              dup3\n                /* \"#utility.yul\":5306:5315   */\n              dup8\n                /* \"#utility.yul\":5302:5324   */\n              add\n                /* \"#utility.yul\":5271:5334   */\n              tag_166\n              jump\t// in\n            tag_279:\n                /* \"#utility.yul\":5261:5334   */\n              swap3\n              pop\n                /* \"#utility.yul\":5056:5344   */\n              pop\n                /* \"#utility.yul\":5411:5413   */\n              0x40\n                /* \"#utility.yul\":5400:5409   */\n              dup5\n                /* \"#utility.yul\":5396:5414   */\n              add\n                /* \"#utility.yul\":5383:5415   */\n              calldataload\n                /* \"#utility.yul\":5442:5460   */\n              0xffffffffffffffff\n                /* \"#utility.yul\":5434:5440   */\n              dup2\n                /* \"#utility.yul\":5431:5461   */\n              gt\n                /* \"#utility.yul\":5428:5545   */\n              iszero\n              tag_280\n              jumpi\n                /* \"#utility.yul\":5464:5543   */\n              tag_281\n              tag_157\n              jump\t// in\n            tag_281:\n                /* \"#utility.yul\":5428:5545   */\n            tag_280:\n                /* \"#utility.yul\":5569:5647   */\n              tag_282\n                /* \"#utility.yul\":5639:5646   */\n              dup7\n                /* \"#utility.yul\":5630:5636   */\n              dup3\n                /* \"#utility.yul\":5619:5628   */\n              dup8\n                /* \"#utility.yul\":5615:5637   */\n              add\n                /* \"#utility.yul\":5569:5647   */\n              tag_173\n              jump\t// in\n            tag_282:\n                /* \"#utility.yul\":5559:5647   */\n              swap2\n              pop\n                /* \"#utility.yul\":5354:5657   */\n              pop\n                /* \"#utility.yul\":4475:5664   */\n              swap3\n              pop\n              swap3\n              pop\n              swap3\n              jump\t// out\n                /* \"#utility.yul\":5670:5796   */\n            tag_174:\n                /* \"#utility.yul\":5707:5714   */\n              0x00\n                /* \"#utility.yul\":5747:5789   */\n              0xffffffffffffffffffffffffffffffffffffffff\n                /* \"#utility.yul\":5740:5745   */\n              dup3\n                /* \"#utility.yul\":5736:5790   */\n              and\n                /* \"#utility.yul\":5725:5790   */\n              swap1\n              pop\n                /* \"#utility.yul\":5670:5796   */\n              swap2\n              swap1\n              pop\n              jump\t// out\n                /* \"#utility.yul\":5802:5898   */\n            tag_175:\n                /* \"#utility.yul\":5839:5846   */\n              0x00\n                /* \"#utility.yul\":5868:5892   */\n              tag_285\n                /* \"#utility.yul\":5886:5891   */\n              dup3\n                /* \"#utility.yul\":5868:5892   */\n              tag_174\n              jump\t// in\n            tag_285:\n                /* \"#utility.yul\":5857:5892   */\n              swap1\n              pop\n                /* \"#utility.yul\":5802:5898   */\n              swap2\n              swap1\n              pop\n              jump\t// out\n                /* \"#utility.yul\":5904:6022   */\n            tag_176:\n                /* \"#utility.yul\":5991:6015   */\n              tag_287\n                /* \"#utility.yul\":6009:6014   */\n              dup2\n                /* \"#utility.yul\":5991:6015   */\n              tag_175\n              jump\t// in\n            tag_287:\n                /* \"#utility.yul\":5986:5989   */\n              dup3\n                /* \"#utility.yul\":5979:6016   */\n              mstore\n                /* \"#utility.yul\":5904:6022   */\n              pop\n              pop\n              jump\t// out\n                /* \"#utility.yul\":6028:6250   */\n            tag_20:\n                /* \"#utility.yul\":6121:6125   */\n              0x00\n                /* \"#utility.yul\":6159:6161   */\n              0x20\n                /* \"#utility.yul\":6148:6157   */\n              dup3\n                /* \"#utility.yul\":6144:6162   */\n              add\n                /* \"#utility.yul\":6136:6162   */\n              swap1\n              pop\n                /* \"#utility.yul\":6172:6243   */\n              tag_289\n                /* \"#utility.yul\":6240:6241   */\n              0x00\n                /* \"#utility.yul\":6229:6238   */\n              dup4\n                /* \"#utility.yul\":6225:6242   */\n              add\n                /* \"#utility.yul\":6216:6222   */\n              dup5\n                /* \"#utility.yul\":6172:6243   */\n              tag_176\n              jump\t// in\n            tag_289:\n                /* \"#utility.yul\":6028:6250   */\n              swap3\n              swap2\n              pop\n              pop\n              jump\t// out\n                /* \"#utility.yul\":6256:6585   */\n            tag_23:\n                /* \"#utility.yul\":6315:6321   */\n              0x00\n                /* \"#utility.yul\":6364:6366   */\n              0x20\n                /* \"#utility.yul\":6352:6361   */\n              dup3\n                /* \"#utility.yul\":6343:6350   */\n              dup5\n                /* \"#utility.yul\":6339:6362   */\n              sub\n                /* \"#utility.yul\":6335:6367   */\n              slt\n                /* \"#utility.yul\":6332:6451   */\n              iszero\n              tag_291\n              jumpi\n                /* \"#utility.yul\":6370:6449   */\n              tag_292\n              tag_156\n              jump\t// in\n            tag_292:\n                /* \"#utility.yul\":6332:6451   */\n            tag_291:\n                /* \"#utility.yul\":6490:6491   */\n              0x00\n                /* \"#utility.yul\":6515:6568   */\n              tag_293\n                /* \"#utility.yul\":6560:6567   */\n              dup5\n                /* \"#utility.yul\":6551:6557   */\n              dup3\n                /* \"#utility.yul\":6540:6549   */\n              dup6\n                /* \"#utility.yul\":6536:6558   */\n              add\n                /* \"#utility.yul\":6515:6568   */\n              tag_171\n              jump\t// in\n            tag_293:\n                /* \"#utility.yul\":6505:6568   */\n              swap2\n              pop\n                /* \"#utility.yul\":6461:6578   */\n              pop\n                /* \"#utility.yul\":6256:6585   */\n              swap3\n              swap2\n              pop\n              pop\n              jump\t// out\n                /* \"#utility.yul\":6591:6699   */\n            tag_177:\n                /* \"#utility.yul\":6668:6692   */\n              tag_295\n                /* \"#utility.yul\":6686:6691   */\n              dup2\n                /* \"#utility.yul\":6668:6692   */\n              tag_169\n              jump\t// in\n            tag_295:\n                /* \"#utility.yul\":6663:6666   */\n              dup3\n                /* \"#utility.yul\":6656:6693   */\n              mstore\n                /* \"#utility.yul\":6591:6699   */\n              pop\n              pop\n              jump\t// out\n                /* \"#utility.yul\":6705:6804   */\n            tag_178:\n                /* \"#utility.yul\":6757:6763   */\n              0x00\n                /* \"#utility.yul\":6791:6796   */\n              dup2\n                /* \"#utility.yul\":6785:6797   */\n              mload\n                /* \"#utility.yul\":6775:6797   */\n              swap1\n              pop\n                /* \"#utility.yul\":6705:6804   */\n              swap2\n              swap1\n              pop\n              jump\t// out\n                /* \"#utility.yul\":6810:6969   */\n            tag_179:\n                /* \"#utility.yul\":6884:6895   */\n              0x00\n                /* \"#utility.yul\":6918:6924   */\n              dup3\n                /* \"#utility.yul\":6913:6916   */\n              dup3\n                /* \"#utility.yul\":6906:6925   */\n              mstore\n                /* \"#utility.yul\":6958:6962   */\n              0x20\n                /* \"#utility.yul\":6953:6956   */\n              dup3\n                /* \"#utility.yul\":6949:6963   */\n              add\n                /* \"#utility.yul\":6934:6963   */\n              swap1\n              pop\n                /* \"#utility.yul\":6810:6969   */\n              swap3\n              swap2\n              pop\n              pop\n              jump\t// out\n                /* \"#utility.yul\":6975:7221   */\n            tag_180:\n                /* \"#utility.yul\":7056:7057   */\n              0x00\n                /* \"#utility.yul\":7066:7179   */\n            tag_299:\n                /* \"#utility.yul\":7080:7086   */\n              dup4\n                /* \"#utility.yul\":7077:7078   */\n              dup2\n                /* \"#utility.yul\":7074:7087   */\n              lt\n                /* \"#utility.yul\":7066:7179   */\n              iszero\n              tag_301\n              jumpi\n                /* \"#utility.yul\":7165:7166   */\n              dup1\n                /* \"#utility.yul\":7160:7163   */\n              dup3\n                /* \"#utility.yul\":7156:7167   */\n              add\n                /* \"#utility.yul\":7150:7168   */\n              mload\n                /* \"#utility.yul\":7146:7147   */\n              dup2\n                /* \"#utility.yul\":7141:7144   */\n              dup5\n                /* \"#utility.yul\":7137:7148   */\n              add\n                /* \"#utility.yul\":7130:7169   */\n              mstore\n                /* \"#utility.yul\":7102:7104   */\n              0x20\n                /* \"#utility.yul\":7099:7100   */\n              dup2\n                /* \"#utility.yul\":7095:7105   */\n              add\n                /* \"#utility.yul\":7090:7105   */\n              swap1\n              pop\n                /* \"#utility.yul\":7066:7179   */\n              jump(tag_299)\n            tag_301:\n                /* \"#utility.yul\":7213:7214   */\n              0x00\n                /* \"#utility.yul\":7204:7210   */\n              dup5\n                /* \"#utility.yul\":7199:7202   */\n              dup5\n                /* \"#utility.yul\":7195:7211   */\n              add\n                /* \"#utility.yul\":7188:7215   */\n              mstore\n                /* \"#utility.yul\":7037:7221   */\n              pop\n                /* \"#utility.yul\":6975:7221   */\n              pop\n              pop\n              pop\n              jump\t// out\n                /* \"#utility.yul\":7227:7584   */\n            tag_181:\n                /* \"#utility.yul\":7305:7308   */\n              0x00\n                /* \"#utility.yul\":7333:7372   */\n              tag_303\n                /* \"#utility.yul\":7366:7371   */\n              dup3\n                /* \"#utility.yul\":7333:7372   */\n              tag_178\n              jump\t// in\n            tag_303:\n                /* \"#utility.yul\":7388:7449   */\n              tag_304\n                /* \"#utility.yul\":7442:7448   */\n              dup2\n                /* \"#utility.yul\":7437:7440   */\n              dup6\n                /* \"#utility.yul\":7388:7449   */\n              tag_179\n              jump\t// in\n            tag_304:\n                /* \"#utility.yul\":7381:7449   */\n              swap4\n              pop\n                /* \"#utility.yul\":7458:7523   */\n              tag_305\n                /* \"#utility.yul\":7516:7522   */\n              dup2\n                /* \"#utility.yul\":7511:7514   */\n              dup6\n                /* \"#utility.yul\":7504:7508   */\n              0x20\n                /* \"#utility.yul\":7497:7502   */\n              dup7\n                /* \"#utility.yul\":7493:7509   */\n              add\n                /* \"#utility.yul\":7458:7523   */\n              tag_180\n              jump\t// in\n            tag_305:\n                /* \"#utility.yul\":7548:7577   */\n              tag_306\n                /* \"#utility.yul\":7570:7576   */\n              dup2\n                /* \"#utility.yul\":7548:7577   */\n              tag_160\n              jump\t// in\n            tag_306:\n                /* \"#utility.yul\":7543:7546   */\n              dup5\n                /* \"#utility.yul\":7539:7578   */\n              add\n                /* \"#utility.yul\":7532:7578   */\n              swap2\n              pop\n                /* \"#utility.yul\":7309:7584   */\n              pop\n                /* \"#utility.yul\":7227:7584   */\n              swap3\n              swap2\n              pop\n              pop\n              jump\t// out\n                /* \"#utility.yul\":7590:7704   */\n            tag_182:\n                /* \"#utility.yul\":7657:7663   */\n              0x00\n                /* \"#utility.yul\":7691:7696   */\n              dup2\n                /* \"#utility.yul\":7685:7697   */\n              mload\n                /* \"#utility.yul\":7675:7697   */\n              swap1\n              pop\n                /* \"#utility.yul\":7590:7704   */\n              swap2\n              swap1\n              pop\n              jump\t// out\n                /* \"#utility.yul\":7710:7884   */\n            tag_183:\n                /* \"#utility.yul\":7799:7810   */\n              0x00\n                /* \"#utility.yul\":7833:7839   */\n              dup3\n                /* \"#utility.yul\":7828:7831   */\n              dup3\n                /* \"#utility.yul\":7821:7840   */\n              mstore\n                /* \"#utility.yul\":7873:7877   */\n              0x20\n                /* \"#utility.yul\":7868:7871   */\n              dup3\n                /* \"#utility.yul\":7864:7878   */\n              add\n                /* \"#utility.yul\":7849:7878   */\n              swap1\n              pop\n                /* \"#utility.yul\":7710:7884   */\n              swap3\n              swap2\n              pop\n              pop\n              jump\t// out\n                /* \"#utility.yul\":7890:8022   */\n            tag_184:\n                /* \"#utility.yul\":7957:7961   */\n              0x00\n                /* \"#utility.yul\":7980:7983   */\n              dup2\n                /* \"#utility.yul\":7972:7983   */\n              swap1\n              pop\n                /* \"#utility.yul\":8010:8014   */\n              0x20\n                /* \"#utility.yul\":8005:8008   */\n              dup3\n                /* \"#utility.yul\":8001:8015   */\n              add\n                /* \"#utility.yul\":7993:8015   */\n              swap1\n              pop\n                /* \"#utility.yul\":7890:8022   */\n              swap2\n              swap1\n              pop\n              jump\t// out\n                /* \"#utility.yul\":8028:8207   */\n            tag_185:\n                /* \"#utility.yul\":8097:8107   */\n              0x00\n                /* \"#utility.yul\":8118:8164   */\n              tag_311\n                /* \"#utility.yul\":8160:8163   */\n              dup4\n                /* \"#utility.yul\":8152:8158   */\n              dup4\n                /* \"#utility.yul\":8118:8164   */\n              tag_177\n              jump\t// in\n            tag_311:\n                /* \"#utility.yul\":8196:8200   */\n              0x20\n                /* \"#utility.yul\":8191:8194   */\n              dup4\n                /* \"#utility.yul\":8187:8201   */\n              add\n                /* \"#utility.yul\":8173:8201   */\n              swap1\n              pop\n                /* \"#utility.yul\":8028:8207   */\n              swap3\n              swap2\n              pop\n              pop\n              jump\t// out\n                /* \"#utility.yul\":8213:8326   */\n            tag_186:\n                /* \"#utility.yul\":8283:8287   */\n              0x00\n                /* \"#utility.yul\":8315:8319   */\n              0x20\n                /* \"#utility.yul\":8310:8313   */\n              dup3\n                /* \"#utility.yul\":8306:8320   */\n              add\n                /* \"#utility.yul\":8298:8320   */\n              swap1\n              pop\n                /* \"#utility.yul\":8213:8326   */\n              swap2\n              swap1\n              pop\n              jump\t// out\n                /* \"#utility.yul\":8362:9074   */\n            tag_187:\n                /* \"#utility.yul\":8471:8474   */\n              0x00\n                /* \"#utility.yul\":8500:8554   */\n              tag_314\n                /* \"#utility.yul\":8548:8553   */\n              dup3\n                /* \"#utility.yul\":8500:8554   */\n              tag_182\n              jump\t// in\n            tag_314:\n                /* \"#utility.yul\":8570:8646   */\n              tag_315\n                /* \"#utility.yul\":8639:8645   */\n              dup2\n                /* \"#utility.yul\":8634:8637   */\n              dup6\n                /* \"#utility.yul\":8570:8646   */\n              tag_183\n              jump\t// in\n            tag_315:\n                /* \"#utility.yul\":8563:8646   */\n              swap4\n              pop\n                /* \"#utility.yul\":8670:8726   */\n              tag_316\n                /* \"#utility.yul\":8720:8725   */\n              dup4\n                /* \"#utility.yul\":8670:8726   */\n              tag_184\n              jump\t// in\n            tag_316:\n                /* \"#utility.yul\":8749:8756   */\n              dup1\n                /* \"#utility.yul\":8780:8781   */\n              0x00\n                /* \"#utility.yul\":8765:9049   */\n            tag_317:\n                /* \"#utility.yul\":8790:8796   */\n              dup4\n                /* \"#utility.yul\":8787:8788   */\n              dup2\n                /* \"#utility.yul\":8784:8797   */\n              lt\n                /* \"#utility.yul\":8765:9049   */\n              iszero\n              tag_319\n              jumpi\n                /* \"#utility.yul\":8866:8872   */\n              dup2\n                /* \"#utility.yul\":8860:8873   */\n              mload\n                /* \"#utility.yul\":8893:8956   */\n              tag_320\n                /* \"#utility.yul\":8952:8955   */\n              dup9\n                /* \"#utility.yul\":8937:8950   */\n              dup3\n                /* \"#utility.yul\":8893:8956   */\n              tag_185\n              jump\t// in\n            tag_320:\n                /* \"#utility.yul\":8886:8956   */\n              swap8\n              pop\n                /* \"#utility.yul\":8979:9039   */\n              tag_321\n                /* \"#utility.yul\":9032:9038   */\n              dup4\n                /* \"#utility.yul\":8979:9039   */\n              tag_186\n              jump\t// in\n            tag_321:\n                /* \"#utility.yul\":8969:9039   */\n              swap3\n              pop\n                /* \"#utility.yul\":8825:9049   */\n              pop\n                /* \"#utility.yul\":8812:8813   */\n              0x01\n                /* \"#utility.yul\":8809:8810   */\n              dup2\n                /* \"#utility.yul\":8805:8814   */\n              add\n                /* \"#utility.yul\":8800:8814   */\n              swap1\n              pop\n                /* \"#utility.yul\":8765:9049   */\n              jump(tag_317)\n            tag_319:\n                /* \"#utility.yul\":8769:8783   */\n              pop\n                /* \"#utility.yul\":9065:9068   */\n              dup6\n                /* \"#utility.yul\":9058:9068   */\n              swap4\n              pop\n                /* \"#utility.yul\":8476:9074   */\n              pop\n              pop\n              pop\n                /* \"#utility.yul\":8362:9074   */\n              swap3\n              swap2\n              pop\n              pop\n              jump\t// out\n                /* \"#utility.yul\":9146:10285   */\n            tag_188:\n                /* \"#utility.yul\":9263:9266   */\n              0x00\n                /* \"#utility.yul\":9299:9303   */\n              0x80\n                /* \"#utility.yul\":9294:9297   */\n              dup4\n                /* \"#utility.yul\":9290:9304   */\n              add\n                /* \"#utility.yul\":9384:9388   */\n              0x00\n                /* \"#utility.yul\":9377:9382   */\n              dup4\n                /* \"#utility.yul\":9373:9389   */\n              add\n                /* \"#utility.yul\":9367:9390   */\n              mload\n                /* \"#utility.yul\":9403:9466   */\n              tag_323\n                /* \"#utility.yul\":9460:9464   */\n              0x00\n                /* \"#utility.yul\":9455:9458   */\n              dup7\n                /* \"#utility.yul\":9451:9465   */\n              add\n                /* \"#utility.yul\":9437:9449   */\n              dup3\n                /* \"#utility.yul\":9403:9466   */\n              tag_177\n              jump\t// in\n            tag_323:\n                /* \"#utility.yul\":9314:9476   */\n              pop\n                /* \"#utility.yul\":9563:9567   */\n              0x20\n                /* \"#utility.yul\":9556:9561   */\n              dup4\n                /* \"#utility.yul\":9552:9568   */\n              add\n                /* \"#utility.yul\":9546:9569   */\n              mload\n                /* \"#utility.yul\":9616:9619   */\n              dup5\n                /* \"#utility.yul\":9610:9614   */\n              dup3\n                /* \"#utility.yul\":9606:9620   */\n              sub\n                /* \"#utility.yul\":9599:9603   */\n              0x20\n                /* \"#utility.yul\":9594:9597   */\n              dup7\n                /* \"#utility.yul\":9590:9604   */\n              add\n                /* \"#utility.yul\":9583:9621   */\n              mstore\n                /* \"#utility.yul\":9642:9715   */\n              tag_324\n                /* \"#utility.yul\":9710:9714   */\n              dup3\n                /* \"#utility.yul\":9696:9708   */\n              dup3\n                /* \"#utility.yul\":9642:9715   */\n              tag_181\n              jump\t// in\n            tag_324:\n                /* \"#utility.yul\":9634:9715   */\n              swap2\n              pop\n                /* \"#utility.yul\":9486:9726   */\n              pop\n                /* \"#utility.yul\":9812:9816   */\n              0x40\n                /* \"#utility.yul\":9805:9810   */\n              dup4\n                /* \"#utility.yul\":9801:9817   */\n              add\n                /* \"#utility.yul\":9795:9818   */\n              mload\n                /* \"#utility.yul\":9865:9868   */\n              dup5\n                /* \"#utility.yul\":9859:9863   */\n              dup3\n                /* \"#utility.yul\":9855:9869   */\n              sub\n                /* \"#utility.yul\":9848:9852   */\n              0x40\n                /* \"#utility.yul\":9843:9846   */\n              dup7\n                /* \"#utility.yul\":9839:9853   */\n              add\n                /* \"#utility.yul\":9832:9870   */\n              mstore\n                /* \"#utility.yul\":9891:9964   */\n              tag_325\n                /* \"#utility.yul\":9959:9963   */\n              dup3\n                /* \"#utility.yul\":9945:9957   */\n              dup3\n                /* \"#utility.yul\":9891:9964   */\n              tag_181\n              jump\t// in\n            tag_325:\n                /* \"#utility.yul\":9883:9964   */\n              swap2\n              pop\n                /* \"#utility.yul\":9736:9975   */\n              pop\n                /* \"#utility.yul\":10065:10069   */\n              0x60\n                /* \"#utility.yul\":10058:10063   */\n              dup4\n                /* \"#utility.yul\":10054:10070   */\n              add\n                /* \"#utility.yul\":10048:10071   */\n              mload\n                /* \"#utility.yul\":10118:10121   */\n              dup5\n                /* \"#utility.yul\":10112:10116   */\n              dup3\n                /* \"#utility.yul\":10108:10122   */\n              sub\n                /* \"#utility.yul\":10101:10105   */\n              0x60\n                /* \"#utility.yul\":10096:10099   */\n              dup7\n                /* \"#utility.yul\":10092:10106   */\n              add\n                /* \"#utility.yul\":10085:10123   */\n              mstore\n                /* \"#utility.yul\":10144:10247   */\n              tag_326\n                /* \"#utility.yul\":10242:10246   */\n              dup3\n                /* \"#utility.yul\":10228:10240   */\n              dup3\n                /* \"#utility.yul\":10144:10247   */\n              tag_187\n              jump\t// in\n            tag_326:\n                /* \"#utility.yul\":10136:10247   */\n              swap2\n              pop\n                /* \"#utility.yul\":9985:10258   */\n              pop\n                /* \"#utility.yul\":10275:10279   */\n              dup1\n                /* \"#utility.yul\":10268:10279   */\n              swap2\n              pop\n                /* \"#utility.yul\":9268:10285   */\n              pop\n                /* \"#utility.yul\":9146:10285   */\n              swap3\n              swap2\n              pop\n              pop\n              jump\t// out\n                /* \"#utility.yul\":10291:10660   */\n            tag_29:\n                /* \"#utility.yul\":10432:10436   */\n              0x00\n                /* \"#utility.yul\":10470:10472   */\n              0x20\n                /* \"#utility.yul\":10459:10468   */\n              dup3\n                /* \"#utility.yul\":10455:10473   */\n              add\n                /* \"#utility.yul\":10447:10473   */\n              swap1\n              pop\n                /* \"#utility.yul\":10519:10528   */\n              dup2\n                /* \"#utility.yul\":10513:10517   */\n              dup2\n                /* \"#utility.yul\":10509:10529   */\n              sub\n                /* \"#utility.yul\":10505:10506   */\n              0x00\n                /* \"#utility.yul\":10494:10503   */\n              dup4\n                /* \"#utility.yul\":10490:10507   */\n              add\n                /* \"#utility.yul\":10483:10530   */\n              mstore\n                /* \"#utility.yul\":10547:10653   */\n              tag_328\n                /* \"#utility.yul\":10648:10652   */\n              dup2\n                /* \"#utility.yul\":10639:10645   */\n              dup5\n                /* \"#utility.yul\":10547:10653   */\n              tag_188\n              jump\t// in\n            tag_328:\n                /* \"#utility.yul\":10539:10653   */\n              swap1\n              pop\n                /* \"#utility.yul\":10291:10660   */\n              swap3\n              swap2\n              pop\n              pop\n              jump\t// out\n                /* \"#utility.yul\":10666:10804   */\n            tag_189:\n                /* \"#utility.yul\":10757:10763   */\n              0x00\n                /* \"#utility.yul\":10791:10796   */\n              dup2\n                /* \"#utility.yul\":10785:10797   */\n              mload\n                /* \"#utility.yul\":10775:10797   */\n              swap1\n              pop\n                /* \"#utility.yul\":10666:10804   */\n              swap2\n              swap1\n              pop\n              jump\t// out\n                /* \"#utility.yul\":10810:11018   */\n            tag_190:\n                /* \"#utility.yul\":10933:10944   */\n              0x00\n                /* \"#utility.yul\":10967:10973   */\n              dup3\n                /* \"#utility.yul\":10962:10965   */\n              dup3\n                /* \"#utility.yul\":10955:10974   */\n              mstore\n                /* \"#utility.yul\":11007:11011   */\n              0x20\n                /* \"#utility.yul\":11002:11005   */\n              dup3\n                /* \"#utility.yul\":10998:11012   */\n              add\n                /* \"#utility.yul\":10983:11012   */\n              swap1\n              pop\n                /* \"#utility.yul\":10810:11018   */\n              swap3\n              swap2\n              pop\n              pop\n              jump\t// out\n                /* \"#utility.yul\":11024:11180   */\n            tag_191:\n                /* \"#utility.yul\":11115:11119   */\n              0x00\n                /* \"#utility.yul\":11138:11141   */\n              dup2\n                /* \"#utility.yul\":11130:11141   */\n              swap1\n              pop\n                /* \"#utility.yul\":11168:11172   */\n              0x20\n                /* \"#utility.yul\":11163:11166   */\n              dup3\n                /* \"#utility.yul\":11159:11173   */\n              add\n                /* \"#utility.yul\":11151:11173   */\n              swap1\n              pop\n                /* \"#utility.yul\":11024:11180   */\n              swap2\n              swap1\n              pop\n              jump\t// out\n                /* \"#utility.yul\":11252:12381   */\n            tag_192:\n                /* \"#utility.yul\":11359:11362   */\n              0x00\n                /* \"#utility.yul\":11395:11399   */\n              0x80\n                /* \"#utility.yul\":11390:11393   */\n              dup4\n                /* \"#utility.yul\":11386:11400   */\n              add\n                /* \"#utility.yul\":11480:11484   */\n              0x00\n                /* \"#utility.yul\":11473:11478   */\n              dup4\n                /* \"#utility.yul\":11469:11485   */\n              add\n                /* \"#utility.yul\":11463:11486   */\n              mload\n                /* \"#utility.yul\":11499:11562   */\n              tag_333\n                /* \"#utility.yul\":11556:11560   */\n              0x00\n                /* \"#utility.yul\":11551:11554   */\n              dup7\n                /* \"#utility.yul\":11547:11561   */\n              add\n                /* \"#utility.yul\":11533:11545   */\n              dup3\n                /* \"#utility.yul\":11499:11562   */\n              tag_177\n              jump\t// in\n            tag_333:\n                /* \"#utility.yul\":11410:11572   */\n              pop\n                /* \"#utility.yul\":11659:11663   */\n              0x20\n                /* \"#utility.yul\":11652:11657   */\n              dup4\n                /* \"#utility.yul\":11648:11664   */\n              add\n                /* \"#utility.yul\":11642:11665   */\n              mload\n                /* \"#utility.yul\":11712:11715   */\n              dup5\n                /* \"#utility.yul\":11706:11710   */\n              dup3\n                /* \"#utility.yul\":11702:11716   */\n              sub\n                /* \"#utility.yul\":11695:11699   */\n              0x20\n                /* \"#utility.yul\":11690:11693   */\n              dup7\n                /* \"#utility.yul\":11686:11700   */\n              add\n                /* \"#utility.yul\":11679:11717   */\n              mstore\n                /* \"#utility.yul\":11738:11811   */\n              tag_334\n                /* \"#utility.yul\":11806:11810   */\n              dup3\n                /* \"#utility.yul\":11792:11804   */\n              dup3\n                /* \"#utility.yul\":11738:11811   */\n              tag_181\n              jump\t// in\n            tag_334:\n                /* \"#utility.yul\":11730:11811   */\n              swap2\n              pop\n                /* \"#utility.yul\":11582:11822   */\n              pop\n                /* \"#utility.yul\":11908:11912   */\n              0x40\n                /* \"#utility.yul\":11901:11906   */\n              dup4\n                /* \"#utility.yul\":11897:11913   */\n              add\n                /* \"#utility.yul\":11891:11914   */\n              mload\n                /* \"#utility.yul\":11961:11964   */\n              dup5\n                /* \"#utility.yul\":11955:11959   */\n              dup3\n                /* \"#utility.yul\":11951:11965   */\n              sub\n                /* \"#utility.yul\":11944:11948   */\n              0x40\n                /* \"#utility.yul\":11939:11942   */\n              dup7\n                /* \"#utility.yul\":11935:11949   */\n              add\n                /* \"#utility.yul\":11928:11966   */\n              mstore\n                /* \"#utility.yul\":11987:12060   */\n              tag_335\n                /* \"#utility.yul\":12055:12059   */\n              dup3\n                /* \"#utility.yul\":12041:12053   */\n              dup3\n                /* \"#utility.yul\":11987:12060   */\n              tag_181\n              jump\t// in\n            tag_335:\n                /* \"#utility.yul\":11979:12060   */\n              swap2\n              pop\n                /* \"#utility.yul\":11832:12071   */\n              pop\n                /* \"#utility.yul\":12161:12165   */\n              0x60\n                /* \"#utility.yul\":12154:12159   */\n              dup4\n                /* \"#utility.yul\":12150:12166   */\n              add\n                /* \"#utility.yul\":12144:12167   */\n              mload\n                /* \"#utility.yul\":12214:12217   */\n              dup5\n                /* \"#utility.yul\":12208:12212   */\n              dup3\n                /* \"#utility.yul\":12204:12218   */\n              sub\n                /* \"#utility.yul\":12197:12201   */\n              0x60\n                /* \"#utility.yul\":12192:12195   */\n              dup7\n                /* \"#utility.yul\":12188:12202   */\n              add\n                /* \"#utility.yul\":12181:12219   */\n              mstore\n                /* \"#utility.yul\":12240:12343   */\n              tag_336\n                /* \"#utility.yul\":12338:12342   */\n              dup3\n                /* \"#utility.yul\":12324:12336   */\n              dup3\n                /* \"#utility.yul\":12240:12343   */\n              tag_187\n              jump\t// in\n            tag_336:\n                /* \"#utility.yul\":12232:12343   */\n              swap2\n              pop\n                /* \"#utility.yul\":12081:12354   */\n              pop\n                /* \"#utility.yul\":12371:12375   */\n              dup1\n                /* \"#utility.yul\":12364:12375   */\n              swap2\n              pop\n                /* \"#utility.yul\":11364:12381   */\n              pop\n                /* \"#utility.yul\":11252:12381   */\n              swap3\n              swap2\n              pop\n              pop\n              jump\t// out\n                /* \"#utility.yul\":12387:12639   */\n            tag_193:\n                /* \"#utility.yul\":12504:12514   */\n              0x00\n                /* \"#utility.yul\":12539:12633   */\n              tag_338\n                /* \"#utility.yul\":12629:12632   */\n              dup4\n                /* \"#utility.yul\":12621:12627   */\n              dup4\n                /* \"#utility.yul\":12539:12633   */\n              tag_192\n              jump\t// in\n            tag_338:\n                /* \"#utility.yul\":12525:12633   */\n              swap1\n              pop\n                /* \"#utility.yul\":12387:12639   */\n              swap3\n              swap2\n              pop\n              pop\n              jump\t// out\n                /* \"#utility.yul\":12645:12782   */\n            tag_194:\n                /* \"#utility.yul\":12739:12743   */\n              0x00\n                /* \"#utility.yul\":12771:12775   */\n              0x20\n                /* \"#utility.yul\":12766:12769   */\n              dup3\n                /* \"#utility.yul\":12762:12776   */\n              add\n                /* \"#utility.yul\":12754:12776   */\n              swap1\n              pop\n                /* \"#utility.yul\":12645:12782   */\n              swap2\n              swap1\n              pop\n              jump\t// out\n                /* \"#utility.yul\":12858:13961   */\n            tag_195:\n                /* \"#utility.yul\":13025:13028   */\n              0x00\n                /* \"#utility.yul\":13054:13132   */\n              tag_341\n                /* \"#utility.yul\":13126:13131   */\n              dup3\n                /* \"#utility.yul\":13054:13132   */\n              tag_189\n              jump\t// in\n            tag_341:\n                /* \"#utility.yul\":13148:13258   */\n              tag_342\n                /* \"#utility.yul\":13251:13257   */\n              dup2\n                /* \"#utility.yul\":13246:13249   */\n              dup6\n                /* \"#utility.yul\":13148:13258   */\n              tag_190\n              jump\t// in\n            tag_342:\n                /* \"#utility.yul\":13141:13258   */\n              swap4\n              pop\n                /* \"#utility.yul\":13284:13287   */\n              dup4\n                /* \"#utility.yul\":13329:13333   */\n              0x20\n                /* \"#utility.yul\":13321:13327   */\n              dup3\n                /* \"#utility.yul\":13317:13334   */\n              mul\n                /* \"#utility.yul\":13312:13315   */\n              dup6\n                /* \"#utility.yul\":13308:13335   */\n              add\n                /* \"#utility.yul\":13359:13439   */\n              tag_343\n                /* \"#utility.yul\":13433:13438   */\n              dup6\n                /* \"#utility.yul\":13359:13439   */\n              tag_191\n              jump\t// in\n            tag_343:\n                /* \"#utility.yul\":13462:13469   */\n              dup1\n                /* \"#utility.yul\":13493:13494   */\n              0x00\n                /* \"#utility.yul\":13478:13916   */\n            tag_344:\n                /* \"#utility.yul\":13503:13509   */\n              dup6\n                /* \"#utility.yul\":13500:13501   */\n              dup2\n                /* \"#utility.yul\":13497:13510   */\n              lt\n                /* \"#utility.yul\":13478:13916   */\n              iszero\n              tag_346\n              jumpi\n                /* \"#utility.yul\":13574:13583   */\n              dup5\n                /* \"#utility.yul\":13568:13572   */\n              dup5\n                /* \"#utility.yul\":13564:13584   */\n              sub\n                /* \"#utility.yul\":13559:13562   */\n              dup10\n                /* \"#utility.yul\":13552:13585   */\n              mstore\n                /* \"#utility.yul\":13625:13631   */\n              dup2\n                /* \"#utility.yul\":13619:13632   */\n              mload\n                /* \"#utility.yul\":13653:13765   */\n              tag_347\n                /* \"#utility.yul\":13760:13764   */\n              dup6\n                /* \"#utility.yul\":13745:13758   */\n              dup3\n                /* \"#utility.yul\":13653:13765   */\n              tag_193\n              jump\t// in\n            tag_347:\n                /* \"#utility.yul\":13645:13765   */\n              swap5\n              pop\n                /* \"#utility.yul\":13788:13872   */\n              tag_348\n                /* \"#utility.yul\":13865:13871   */\n              dup4\n                /* \"#utility.yul\":13788:13872   */\n              tag_194\n              jump\t// in\n            tag_348:\n                /* \"#utility.yul\":13778:13872   */\n              swap3\n              pop\n                /* \"#utility.yul\":13901:13905   */\n              0x20\n                /* \"#utility.yul\":13896:13899   */\n              dup11\n                /* \"#utility.yul\":13892:13906   */\n              add\n                /* \"#utility.yul\":13885:13906   */\n              swap10\n              pop\n                /* \"#utility.yul\":13538:13916   */\n              pop\n                /* \"#utility.yul\":13525:13526   */\n              0x01\n                /* \"#utility.yul\":13522:13523   */\n              dup2\n                /* \"#utility.yul\":13518:13527   */\n              add\n                /* \"#utility.yul\":13513:13527   */\n              swap1\n              pop\n                /* \"#utility.yul\":13478:13916   */\n              jump(tag_344)\n            tag_346:\n                /* \"#utility.yul\":13482:13496   */\n              pop\n                /* \"#utility.yul\":13932:13936   */\n              dup3\n                /* \"#utility.yul\":13925:13936   */\n              swap8\n              pop\n                /* \"#utility.yul\":13952:13955   */\n              dup8\n                /* \"#utility.yul\":13945:13955   */\n              swap6\n              pop\n                /* \"#utility.yul\":13030:13961   */\n              pop\n              pop\n              pop\n              pop\n              pop\n                /* \"#utility.yul\":12858:13961   */\n              swap3\n              swap2\n              pop\n              pop\n              jump\t// out\n                /* \"#utility.yul\":13967:14436   */\n            tag_33:\n                /* \"#utility.yul\":14158:14162   */\n              0x00\n                /* \"#utility.yul\":14196:14198   */\n              0x20\n                /* \"#utility.yul\":14185:14194   */\n              dup3\n                /* \"#utility.yul\":14181:14199   */\n              add\n                /* \"#utility.yul\":14173:14199   */\n              swap1\n              pop\n                /* \"#utility.yul\":14245:14254   */\n              dup2\n                /* \"#utility.yul\":14239:14243   */\n              dup2\n                /* \"#utility.yul\":14235:14255   */\n              sub\n                /* \"#utility.yul\":14231:14232   */\n              0x00\n                /* \"#utility.yul\":14220:14229   */\n              dup4\n                /* \"#utility.yul\":14216:14233   */\n              add\n                /* \"#utility.yul\":14209:14256   */\n              mstore\n                /* \"#utility.yul\":14273:14429   */\n              tag_350\n                /* \"#utility.yul\":14424:14428   */\n              dup2\n                /* \"#utility.yul\":14415:14421   */\n              dup5\n                /* \"#utility.yul\":14273:14429   */\n              tag_195\n              jump\t// in\n            tag_350:\n                /* \"#utility.yul\":14265:14429   */\n              swap1\n              pop\n                /* \"#utility.yul\":13967:14436   */\n              swap3\n              swap2\n              pop\n              pop\n              jump\t// out\n                /* \"#utility.yul\":14442:14564   */\n            tag_196:\n                /* \"#utility.yul\":14515:14539   */\n              tag_352\n                /* \"#utility.yul\":14533:14538   */\n              dup2\n                /* \"#utility.yul\":14515:14539   */\n              tag_175\n              jump\t// in\n            tag_352:\n                /* \"#utility.yul\":14508:14513   */\n              dup2\n                /* \"#utility.yul\":14505:14540   */\n              eq\n                /* \"#utility.yul\":14495:14558   */\n              tag_353\n              jumpi\n                /* \"#utility.yul\":14554:14555   */\n              0x00\n                /* \"#utility.yul\":14551:14552   */\n              dup1\n                /* \"#utility.yul\":14544:14556   */\n              revert\n                /* \"#utility.yul\":14495:14558   */\n            tag_353:\n                /* \"#utility.yul\":14442:14564   */\n              pop\n              jump\t// out\n                /* \"#utility.yul\":14570:14709   */\n            tag_197:\n                /* \"#utility.yul\":14616:14621   */\n              0x00\n                /* \"#utility.yul\":14654:14660   */\n              dup2\n                /* \"#utility.yul\":14641:14661   */\n              calldataload\n                /* \"#utility.yul\":14632:14661   */\n              swap1\n              pop\n                /* \"#utility.yul\":14670:14703   */\n              tag_355\n                /* \"#utility.yul\":14697:14702   */\n              dup2\n                /* \"#utility.yul\":14670:14703   */\n              tag_196\n              jump\t// in\n            tag_355:\n                /* \"#utility.yul\":14570:14709   */\n              swap3\n              swap2\n              pop\n              pop\n              jump\t// out\n                /* \"#utility.yul\":14715:15044   */\n            tag_36:\n                /* \"#utility.yul\":14774:14780   */\n              0x00\n                /* \"#utility.yul\":14823:14825   */\n              0x20\n                /* \"#utility.yul\":14811:14820   */\n              dup3\n                /* \"#utility.yul\":14802:14809   */\n              dup5\n                /* \"#utility.yul\":14798:14821   */\n              sub\n                /* \"#utility.yul\":14794:14826   */\n              slt\n                /* \"#utility.yul\":14791:14910   */\n              iszero\n              tag_357\n              jumpi\n                /* \"#utility.yul\":14829:14908   */\n              tag_358\n              tag_156\n              jump\t// in\n            tag_358:\n                /* \"#utility.yul\":14791:14910   */\n            tag_357:\n                /* \"#utility.yul\":14949:14950   */\n              0x00\n                /* \"#utility.yul\":14974:15027   */\n              tag_359\n                /* \"#utility.yul\":15019:15026   */\n              dup5\n                /* \"#utility.yul\":15010:15016   */\n              dup3\n                /* \"#utility.yul\":14999:15008   */\n              dup6\n                /* \"#utility.yul\":14995:15017   */\n              add\n                /* \"#utility.yul\":14974:15027   */\n              tag_197\n              jump\t// in\n            tag_359:\n                /* \"#utility.yul\":14964:15027   */\n              swap2\n              pop\n                /* \"#utility.yul\":14920:15037   */\n              pop\n                /* \"#utility.yul\":14715:15044   */\n              swap3\n              swap2\n              pop\n              pop\n              jump\t// out\n                /* \"#utility.yul\":15050:15230   */\n            tag_198:\n                /* \"#utility.yul\":15098:15175   */\n              0x4e487b7100000000000000000000000000000000000000000000000000000000\n                /* \"#utility.yul\":15095:15096   */\n              0x00\n                /* \"#utility.yul\":15088:15176   */\n              mstore\n                /* \"#utility.yul\":15195:15199   */\n              0x22\n                /* \"#utility.yul\":15192:15193   */\n              0x04\n                /* \"#utility.yul\":15185:15200   */\n              mstore\n                /* \"#utility.yul\":15219:15223   */\n              0x24\n                /* \"#utility.yul\":15216:15217   */\n              0x00\n                /* \"#utility.yul\":15209:15224   */\n              revert\n                /* \"#utility.yul\":15236:15556   */\n            tag_88:\n                /* \"#utility.yul\":15280:15286   */\n              0x00\n                /* \"#utility.yul\":15317:15318   */\n              0x02\n                /* \"#utility.yul\":15311:15315   */\n              dup3\n                /* \"#utility.yul\":15307:15319   */\n              div\n                /* \"#utility.yul\":15297:15319   */\n              swap1\n              pop\n                /* \"#utility.yul\":15364:15365   */\n              0x01\n                /* \"#utility.yul\":15358:15362   */\n              dup3\n                /* \"#utility.yul\":15354:15366   */\n              and\n                /* \"#utility.yul\":15385:15403   */\n              dup1\n                /* \"#utility.yul\":15375:15456   */\n              tag_362\n              jumpi\n                /* \"#utility.yul\":15441:15445   */\n              0x7f\n                /* \"#utility.yul\":15433:15439   */\n              dup3\n                /* \"#utility.yul\":15429:15446   */\n              and\n                /* \"#utility.yul\":15419:15446   */\n              swap2\n              pop\n                /* \"#utility.yul\":15375:15456   */\n            tag_362:\n                /* \"#utility.yul\":15503:15505   */\n              0x20\n                /* \"#utility.yul\":15495:15501   */\n              dup3\n                /* \"#utility.yul\":15492:15506   */\n              lt\n                /* \"#utility.yul\":15472:15490   */\n              dup2\n                /* \"#utility.yul\":15469:15507   */\n              sub\n                /* \"#utility.yul\":15466:15550   */\n              tag_363\n              jumpi\n                /* \"#utility.yul\":15522:15540   */\n              tag_364\n              tag_198\n              jump\t// in\n            tag_364:\n                /* \"#utility.yul\":15466:15550   */\n            tag_363:\n                /* \"#utility.yul\":15287:15556   */\n              pop\n                /* \"#utility.yul\":15236:15556   */\n              swap2\n              swap1\n              pop\n              jump\t// out\n                /* \"#utility.yul\":15562:15703   */\n            tag_199:\n                /* \"#utility.yul\":15611:15615   */\n              0x00\n                /* \"#utility.yul\":15634:15637   */\n              dup2\n                /* \"#utility.yul\":15626:15637   */\n              swap1\n              pop\n                /* \"#utility.yul\":15657:15660   */\n              dup2\n                /* \"#utility.yul\":15654:15655   */\n              0x00\n                /* \"#utility.yul\":15647:15661   */\n              mstore\n                /* \"#utility.yul\":15691:15695   */\n              0x20\n                /* \"#utility.yul\":15688:15689   */\n              0x00\n                /* \"#utility.yul\":15678:15696   */\n              keccak256\n                /* \"#utility.yul\":15670:15696   */\n              swap1\n              pop\n                /* \"#utility.yul\":15562:15703   */\n              swap2\n              swap1\n              pop\n              jump\t// out\n                /* \"#utility.yul\":15709:15802   */\n            tag_200:\n                /* \"#utility.yul\":15746:15752   */\n              0x00\n                /* \"#utility.yul\":15793:15795   */\n              0x20\n                /* \"#utility.yul\":15788:15790   */\n              0x1f\n                /* \"#utility.yul\":15781:15786   */\n              dup4\n                /* \"#utility.yul\":15777:15791   */\n              add\n                /* \"#utility.yul\":15773:15796   */\n              div\n                /* \"#utility.yul\":15763:15796   */\n              swap1\n              pop\n                /* \"#utility.yul\":15709:15802   */\n              swap2\n              swap1\n              pop\n              jump\t// out\n                /* \"#utility.yul\":15808:15915   */\n            tag_201:\n                /* \"#utility.yul\":15852:15860   */\n              0x00\n                /* \"#utility.yul\":15902:15907   */\n              dup3\n                /* \"#utility.yul\":15896:15900   */\n              dup3\n                /* \"#utility.yul\":15892:15908   */\n              shl\n                /* \"#utility.yul\":15871:15908   */\n              swap1\n              pop\n                /* \"#utility.yul\":15808:15915   */\n              swap3\n              swap2\n              pop\n              pop\n              jump\t// out\n                /* \"#utility.yul\":15921:16314   */\n            tag_202:\n                /* \"#utility.yul\":15990:15996   */\n              0x00\n                /* \"#utility.yul\":16040:16041   */\n              0x08\n                /* \"#utility.yul\":16028:16038   */\n              dup4\n                /* \"#utility.yul\":16024:16042   */\n              mul\n                /* \"#utility.yul\":16063:16160   */\n              tag_369\n                /* \"#utility.yul\":16093:16159   */\n              0xffffffffffffffffffffffffffffffffffffffffffffffffffffffffffffffff\n                /* \"#utility.yul\":16082:16091   */\n              dup3\n                /* \"#utility.yul\":16063:16160   */\n              tag_201\n              jump\t// in\n            tag_369:\n                /* \"#utility.yul\":16181:16220   */\n              tag_370\n                /* \"#utility.yul\":16211:16219   */\n              dup7\n                /* \"#utility.yul\":16200:16209   */\n              dup4\n                /* \"#utility.yul\":16181:16220   */\n              tag_201\n              jump\t// in\n            tag_370:\n                /* \"#utility.yul\":16169:16220   */\n              swap6\n              pop\n                /* \"#utility.yul\":16253:16257   */\n              dup1\n                /* \"#utility.yul\":16249:16258   */\n              not\n                /* \"#utility.yul\":16242:16247   */\n              dup5\n                /* \"#utility.yul\":16238:16259   */\n              and\n                /* \"#utility.yul\":16229:16259   */\n              swap4\n              pop\n                /* \"#utility.yul\":16302:16306   */\n              dup1\n                /* \"#utility.yul\":16292:16300   */\n              dup7\n                /* \"#utility.yul\":16288:16307   */\n              and\n                /* \"#utility.yul\":16281:16286   */\n              dup5\n                /* \"#utility.yul\":16278:16308   */\n              or\n                /* \"#utility.yul\":16268:16308   */\n              swap3\n              pop\n                /* \"#utility.yul\":15997:16314   */\n              pop\n              pop\n                /* \"#utility.yul\":15921:16314   */\n              swap4\n              swap3\n              pop\n              pop\n              pop\n              jump\t// out\n                /* \"#utility.yul\":16320:16380   */\n            tag_203:\n                /* \"#utility.yul\":16348:16351   */\n              0x00\n                /* \"#utility.yul\":16369:16374   */\n              dup2\n                /* \"#utility.yul\":16362:16374   */\n              swap1\n              pop\n                /* \"#utility.yul\":16320:16380   */\n              swap2\n              swap1\n              pop\n              jump\t// out\n                /* \"#utility.yul\":16386:16528   */\n            tag_204:\n                /* \"#utility.yul\":16436:16445   */\n              0x00\n                /* \"#utility.yul\":16469:16522   */\n              tag_373\n                /* \"#utility.yul\":16487:16521   */\n              tag_374\n                /* \"#utility.yul\":16496:16520   */\n              tag_375\n                /* \"#utility.yul\":16514:16519   */\n              dup5\n                /* \"#utility.yul\":16496:16520   */\n              tag_169\n              jump\t// in\n            tag_375:\n                /* \"#utility.yul\":16487:16521   */\n              tag_203\n              jump\t// in\n            tag_374:\n                /* \"#utility.yul\":16469:16522   */\n              tag_169\n              jump\t// in\n            tag_373:\n                /* \"#utility.yul\":16456:16522   */\n              swap1\n              pop\n                /* \"#utility.yul\":16386:16528   */\n              swap2\n              swap1\n              pop\n              jump\t// out\n                /* \"#utility.yul\":16534:16609   */\n            tag_205:\n                /* \"#utility.yul\":16577:16580   */\n              0x00\n                /* \"#utility.yul\":16598:16603   */\n              dup2\n                /* \"#utility.yul\":16591:16603   */\n              swap1\n              pop\n                /* \"#utility.yul\":16534:16609   */\n              swap2\n              swap1\n              pop\n              jump\t// out\n                /* \"#utility.yul\":16615:16884   */\n            tag_206:\n                /* \"#utility.yul\":16725:16764   */\n              tag_378\n                /* \"#utility.yul\":16756:16763   */\n              dup4\n                /* \"#utility.yul\":16725:16764   */\n              tag_204\n              jump\t// in\n            tag_378:\n                /* \"#utility.yul\":16786:16877   */\n              tag_379\n                /* \"#utility.yul\":16835:16876   */\n              tag_380\n                /* \"#utility.yul\":16859:16875   */\n              dup3\n                /* \"#utility.yul\":16835:16876   */\n              tag_205\n              jump\t// in\n            tag_380:\n                /* \"#utility.yul\":16827:16833   */\n              dup5\n                /* \"#utility.yul\":16820:16824   */\n              dup5\n                /* \"#utility.yul\":16814:16825   */\n              sload\n                /* \"#utility.yul\":16786:16877   */\n              tag_202\n              jump\t// in\n            tag_379:\n                /* \"#utility.yul\":16780:16784   */\n              dup3\n                /* \"#utility.yul\":16773:16878   */\n              sstore\n                /* \"#utility.yul\":16691:16884   */\n              pop\n                /* \"#utility.yul\":16615:16884   */\n              pop\n              pop\n              pop\n              jump\t// out\n                /* \"#utility.yul\":16890:16963   */\n            tag_207:\n                /* \"#utility.yul\":16935:16938   */\n              0x00\n                /* \"#utility.yul\":16890:16963   */\n              swap1\n              jump\t// out\n                /* \"#utility.yul\":16969:17158   */\n            tag_208:\n                /* \"#utility.yul\":17046:17078   */\n              tag_383\n              tag_207\n              jump\t// in\n            tag_383:\n                /* \"#utility.yul\":17087:17152   */\n              tag_384\n                /* \"#utility.yul\":17145:17151   */\n              dup2\n                /* \"#utility.yul\":17137:17143   */\n              dup5\n                /* \"#utility.yul\":17131:17135   */\n              dup5\n                /* \"#utility.yul\":17087:17152   */\n              tag_206\n              jump\t// in\n            tag_384:\n                /* \"#utility.yul\":17022:17158   */\n              pop\n                /* \"#utility.yul\":16969:17158   */\n              pop\n              pop\n              jump\t// out\n                /* \"#utility.yul\":17164:17350   */\n            tag_209:\n                /* \"#utility.yul\":17224:17344   */\n            tag_386:\n                /* \"#utility.yul\":17241:17244   */\n              dup2\n                /* \"#utility.yul\":17234:17239   */\n              dup2\n                /* \"#utility.yul\":17231:17245   */\n              lt\n                /* \"#utility.yul\":17224:17344   */\n              iszero\n              tag_388\n              jumpi\n                /* \"#utility.yul\":17295:17334   */\n              tag_389\n                /* \"#utility.yul\":17332:17333   */\n              0x00\n                /* \"#utility.yul\":17325:17330   */\n              dup3\n                /* \"#utility.yul\":17295:17334   */\n              tag_208\n              jump\t// in\n            tag_389:\n                /* \"#utility.yul\":17268:17269   */\n              0x01\n                /* \"#utility.yul\":17261:17266   */\n              dup2\n                /* \"#utility.yul\":17257:17270   */\n              add\n                /* \"#utility.yul\":17248:17270   */\n              swap1\n              pop\n                /* \"#utility.yul\":17224:17344   */\n              jump(tag_386)\n            tag_388:\n                /* \"#utility.yul\":17164:17350   */\n              pop\n              pop\n              jump\t// out\n                /* \"#utility.yul\":17356:17899   */\n            tag_210:\n                /* \"#utility.yul\":17457:17459   */\n              0x1f\n                /* \"#utility.yul\":17452:17455   */\n              dup3\n                /* \"#utility.yul\":17449:17460   */\n              gt\n                /* \"#utility.yul\":17446:17892   */\n              iszero\n              tag_391\n              jumpi\n                /* \"#utility.yul\":17491:17529   */\n              tag_392\n                /* \"#utility.yul\":17523:17528   */\n              dup2\n                /* \"#utility.yul\":17491:17529   */\n              tag_199\n              jump\t// in\n            tag_392:\n                /* \"#utility.yul\":17575:17604   */\n              tag_393\n                /* \"#utility.yul\":17593:17603   */\n              dup5\n                /* \"#utility.yul\":17575:17604   */\n              tag_200\n              jump\t// in\n            tag_393:\n                /* \"#utility.yul\":17565:17573   */\n              dup2\n                /* \"#utility.yul\":17561:17605   */\n              add\n                /* \"#utility.yul\":17758:17760   */\n              0x20\n                /* \"#utility.yul\":17746:17756   */\n              dup6\n                /* \"#utility.yul\":17743:17761   */\n              lt\n                /* \"#utility.yul\":17740:17789   */\n              iszero\n              tag_394\n              jumpi\n                /* \"#utility.yul\":17779:17787   */\n              dup2\n                /* \"#utility.yul\":17764:17787   */\n              swap1\n              pop\n                /* \"#utility.yul\":17740:17789   */\n            tag_394:\n                /* \"#utility.yul\":17802:17882   */\n              tag_395\n                /* \"#utility.yul\":17858:17880   */\n              tag_396\n                /* \"#utility.yul\":17876:17879   */\n              dup6\n                /* \"#utility.yul\":17858:17880   */\n              tag_200\n              jump\t// in\n            tag_396:\n                /* \"#utility.yul\":17848:17856   */\n              dup4\n                /* \"#utility.yul\":17844:17881   */\n              add\n                /* \"#utility.yul\":17831:17842   */\n              dup3\n                /* \"#utility.yul\":17802:17882   */\n              tag_209\n              jump\t// in\n            tag_395:\n                /* \"#utility.yul\":17461:17892   */\n              pop\n              pop\n                /* \"#utility.yul\":17446:17892   */\n            tag_391:\n                /* \"#utility.yul\":17356:17899   */\n              pop\n              pop\n              pop\n              jump\t// out\n                /* \"#utility.yul\":17905:18022   */\n            tag_211:\n                /* \"#utility.yul\":17959:17967   */\n              0x00\n                /* \"#utility.yul\":18009:18014   */\n              dup3\n                /* \"#utility.yul\":18003:18007   */\n              dup3\n                /* \"#utility.yul\":17999:18015   */\n              shr\n                /* \"#utility.yul\":17978:18015   */\n              swap1\n              pop\n                /* \"#utility.yul\":17905:18022   */\n              swap3\n              swap2\n              pop\n              pop\n              jump\t// out\n                /* \"#utility.yul\":18028:18197   */\n            tag_212:\n                /* \"#utility.yul\":18072:18078   */\n              0x00\n                /* \"#utility.yul\":18105:18156   */\n              tag_399\n                /* \"#utility.yul\":18153:18154   */\n              0x00\n                /* \"#utility.yul\":18149:18155   */\n              not\n                /* \"#utility.yul\":18141:18146   */\n              dup5\n                /* \"#utility.yul\":18138:18139   */\n              0x08\n                /* \"#utility.yul\":18134:18147   */\n              mul\n                /* \"#utility.yul\":18105:18156   */\n              tag_211\n              jump\t// in\n            tag_399:\n                /* \"#utility.yul\":18101:18157   */\n              not\n                /* \"#utility.yul\":18186:18190   */\n              dup1\n                /* \"#utility.yul\":18180:18184   */\n              dup4\n                /* \"#utility.yul\":18176:18191   */\n              and\n                /* \"#utility.yul\":18166:18191   */\n              swap2\n              pop\n                /* \"#utility.yul\":18079:18197   */\n              pop\n                /* \"#utility.yul\":18028:18197   */\n              swap3\n              swap2\n              pop\n              pop\n              jump\t// out\n                /* \"#utility.yul\":18202:18497   */\n            tag_213:\n                /* \"#utility.yul\":18278:18282   */\n              0x00\n                /* \"#utility.yul\":18424:18453   */\n              tag_401\n                /* \"#utility.yul\":18449:18452   */\n              dup4\n                /* \"#utility.yul\":18443:18447   */\n              dup4\n                /* \"#utility.yul\":18424:18453   */\n              tag_212\n              jump\t// in\n            tag_401:\n                /* \"#utility.yul\":18416:18453   */\n              swap2\n              pop\n                /* \"#utility.yul\":18486:18489   */\n              dup3\n                /* \"#utility.yul\":18483:18484   */\n              0x02\n                /* \"#utility.yul\":18479:18490   */\n              mul\n                /* \"#utility.yul\":18473:18477   */\n              dup3\n                /* \"#utility.yul\":18470:18491   */\n              or\n                /* \"#utility.yul\":18462:18491   */\n              swap1\n              pop\n                /* \"#utility.yul\":18202:18497   */\n              swap3\n              swap2\n              pop\n              pop\n              jump\t// out\n                /* \"#utility.yul\":18502:19897   */\n            tag_43:\n                /* \"#utility.yul\":18619:18656   */\n              tag_403\n                /* \"#utility.yul\":18652:18655   */\n              dup3\n                /* \"#utility.yul\":18619:18656   */\n              tag_178\n              jump\t// in\n            tag_403:\n                /* \"#utility.yul\":18721:18739   */\n              0xffffffffffffffff\n                /* \"#utility.yul\":18713:18719   */\n              dup2\n                /* \"#utility.yul\":18710:18740   */\n              gt\n                /* \"#utility.yul\":18707:18763   */\n              iszero\n              tag_404\n              jumpi\n                /* \"#utility.yul\":18743:18761   */\n              tag_405\n              tag_103\n              jump\t// in\n            tag_405:\n                /* \"#utility.yul\":18707:18763   */\n            tag_404:\n                /* \"#utility.yul\":18787:18825   */\n              tag_406\n                /* \"#utility.yul\":18819:18823   */\n              dup3\n                /* \"#utility.yul\":18813:18824   */\n              sload\n                /* \"#utility.yul\":18787:18825   */\n              tag_88\n              jump\t// in\n            tag_406:\n                /* \"#utility.yul\":18872:18939   */\n              tag_407\n                /* \"#utility.yul\":18932:18938   */\n              dup3\n                /* \"#utility.yul\":18924:18930   */\n              dup3\n                /* \"#utility.yul\":18918:18922   */\n              dup6\n                /* \"#utility.yul\":18872:18939   */\n              tag_210\n              jump\t// in\n            tag_407:\n                /* \"#utility.yul\":18966:18967   */\n              0x00\n                /* \"#utility.yul\":18990:18994   */\n              0x20\n                /* \"#utility.yul\":18977:18994   */\n              swap1\n              pop\n                /* \"#utility.yul\":19022:19024   */\n              0x1f\n                /* \"#utility.yul\":19014:19020   */\n              dup4\n                /* \"#utility.yul\":19011:19025   */\n              gt\n                /* \"#utility.yul\":19039:19040   */\n              0x01\n                /* \"#utility.yul\":19034:19652   */\n              dup2\n              eq\n              tag_409\n              jumpi\n                /* \"#utility.yul\":19696:19697   */\n              0x00\n                /* \"#utility.yul\":19713:19719   */\n              dup5\n                /* \"#utility.yul\":19710:19787   */\n              iszero\n              tag_410\n              jumpi\n                /* \"#utility.yul\":19762:19771   */\n              dup3\n                /* \"#utility.yul\":19757:19760   */\n              dup8\n                /* \"#utility.yul\":19753:19772   */\n              add\n                /* \"#utility.yul\":19747:19773   */\n              mload\n                /* \"#utility.yul\":19738:19773   */\n              swap1\n              pop\n                /* \"#utility.yul\":19710:19787   */\n            tag_410:\n                /* \"#utility.yul\":19813:19880   */\n              tag_411\n                /* \"#utility.yul\":19873:19879   */\n              dup6\n                /* \"#utility.yul\":19866:19871   */\n              dup3\n                /* \"#utility.yul\":19813:19880   */\n              tag_213\n              jump\t// in\n            tag_411:\n                /* \"#utility.yul\":19807:19811   */\n              dup7\n                /* \"#utility.yul\":19800:19881   */\n              sstore\n                /* \"#utility.yul\":19669:19891   */\n              pop\n                /* \"#utility.yul\":19004:19891   */\n              jump(tag_408)\n                /* \"#utility.yul\":19034:19652   */\n            tag_409:\n                /* \"#utility.yul\":19086:19090   */\n              0x1f\n                /* \"#utility.yul\":19082:19091   */\n              not\n                /* \"#utility.yul\":19074:19080   */\n              dup5\n                /* \"#utility.yul\":19070:19092   */\n              and\n                /* \"#utility.yul\":19120:19157   */\n              tag_412\n                /* \"#utility.yul\":19152:19156   */\n              dup7\n                /* \"#utility.yul\":19120:19157   */\n              tag_199\n              jump\t// in\n            tag_412:\n                /* \"#utility.yul\":19179:19180   */\n              0x00\n                /* \"#utility.yul\":19193:19401   */\n            tag_413:\n                /* \"#utility.yul\":19207:19214   */\n              dup3\n                /* \"#utility.yul\":19204:19205   */\n              dup2\n                /* \"#utility.yul\":19201:19215   */\n              lt\n                /* \"#utility.yul\":19193:19401   */\n              iszero\n              tag_415\n              jumpi\n                /* \"#utility.yul\":19286:19295   */\n              dup5\n                /* \"#utility.yul\":19281:19284   */\n              dup10\n                /* \"#utility.yul\":19277:19296   */\n              add\n                /* \"#utility.yul\":19271:19297   */\n              mload\n                /* \"#utility.yul\":19263:19269   */\n              dup3\n                /* \"#utility.yul\":19256:19298   */\n              sstore\n                /* \"#utility.yul\":19337:19338   */\n              0x01\n                /* \"#utility.yul\":19329:19335   */\n              dup3\n                /* \"#utility.yul\":19325:19339   */\n              add\n                /* \"#utility.yul\":19315:19339   */\n              swap2\n              pop\n                /* \"#utility.yul\":19384:19386   */\n              0x20\n                /* \"#utility.yul\":19373:19382   */\n              dup6\n                /* \"#utility.yul\":19369:19387   */\n              add\n                /* \"#utility.yul\":19356:19387   */\n              swap5\n              pop\n                /* \"#utility.yul\":19230:19234   */\n              0x20\n                /* \"#utility.yul\":19227:19228   */\n              dup2\n                /* \"#utility.yul\":19223:19235   */\n              add\n                /* \"#utility.yul\":19218:19235   */\n              swap1\n              pop\n                /* \"#utility.yul\":19193:19401   */\n              jump(tag_413)\n            tag_415:\n                /* \"#utility.yul\":19429:19435   */\n              dup7\n                /* \"#utility.yul\":19420:19427   */\n              dup4\n                /* \"#utility.yul\":19417:19436   */\n              lt\n                /* \"#utility.yul\":19414:19593   */\n              iszero\n              tag_416\n              jumpi\n                /* \"#utility.yul\":19487:19496   */\n              dup5\n                /* \"#utility.yul\":19482:19485   */\n              dup10\n                /* \"#utility.yul\":19478:19497   */\n              add\n                /* \"#utility.yul\":19472:19498   */\n              mload\n                /* \"#utility.yul\":19530:19578   */\n              tag_417\n                /* \"#utility.yul\":19572:19576   */\n              0x1f\n                /* \"#utility.yul\":19564:19570   */\n              dup10\n                /* \"#utility.yul\":19560:19577   */\n              and\n                /* \"#utility.yul\":19549:19558   */\n              dup3\n                /* \"#utility.yul\":19530:19578   */\n              tag_212\n              jump\t// in\n            tag_417:\n                /* \"#utility.yul\":19522:19528   */\n              dup4\n                /* \"#utility.yul\":19515:19579   */\n              sstore\n                /* \"#utility.yul\":19437:19593   */\n              pop\n                /* \"#utility.yul\":19414:19593   */\n            tag_416:\n                /* \"#utility.yul\":19639:19640   */\n              0x01\n                /* \"#utility.yul\":19635:19636   */\n              0x02\n                /* \"#utility.yul\":19627:19633   */\n              dup9\n                /* \"#utility.yul\":19623:19637   */\n              mul\n                /* \"#utility.yul\":19619:19641   */\n              add\n                /* \"#utility.yul\":19613:19617   */\n              dup9\n                /* \"#utility.yul\":19606:19642   */\n              sstore\n                /* \"#utility.yul\":19041:19652   */\n              pop\n              pop\n              pop\n                /* \"#utility.yul\":19004:19891   */\n            tag_408:\n              pop\n                /* \"#utility.yul\":18594:19897   */\n              pop\n              pop\n              pop\n                /* \"#utility.yul\":18502:19897   */\n              pop\n              pop\n              jump\t// out\n                /* \"#utility.yul\":19903:20083   */\n            tag_214:\n                /* \"#utility.yul\":19951:20028   */\n              0x4e487b7100000000000000000000000000000000000000000000000000000000\n                /* \"#utility.yul\":19948:19949   */\n              0x00\n                /* \"#utility.yul\":19941:20029   */\n              mstore\n                /* \"#utility.yul\":20048:20052   */\n              0x11\n                /* \"#utility.yul\":20045:20046   */\n              0x04\n                /* \"#utility.yul\":20038:20053   */\n              mstore\n                /* \"#utility.yul\":20072:20076   */\n              0x24\n                /* \"#utility.yul\":20069:20070   */\n              0x00\n                /* \"#utility.yul\":20062:20077   */\n              revert\n                /* \"#utility.yul\":20089:20322   */\n            tag_49:\n                /* \"#utility.yul\":20128:20131   */\n              0x00\n                /* \"#utility.yul\":20151:20175   */\n              tag_420\n                /* \"#utility.yul\":20169:20174   */\n              dup3\n                /* \"#utility.yul\":20151:20175   */\n              tag_169\n              jump\t// in\n            tag_420:\n                /* \"#utility.yul\":20142:20175   */\n              swap2\n              pop\n                /* \"#utility.yul\":20197:20263   */\n              0xffffffffffffffffffffffffffffffffffffffffffffffffffffffffffffffff\n                /* \"#utility.yul\":20190:20195   */\n              dup3\n                /* \"#utility.yul\":20187:20264   */\n              sub\n                /* \"#utility.yul\":20184:20287   */\n              tag_421\n              jumpi\n                /* \"#utility.yul\":20267:20285   */\n              tag_422\n              tag_214\n              jump\t// in\n            tag_422:\n                /* \"#utility.yul\":20184:20287   */\n            tag_421:\n                /* \"#utility.yul\":20314:20315   */\n              0x01\n                /* \"#utility.yul\":20307:20312   */\n              dup3\n                /* \"#utility.yul\":20303:20316   */\n              add\n                /* \"#utility.yul\":20296:20316   */\n              swap1\n              pop\n                /* \"#utility.yul\":20089:20322   */\n              swap2\n              swap1\n              pop\n              jump\t// out\n                /* \"#utility.yul\":20328:20508   */\n            tag_62:\n                /* \"#utility.yul\":20376:20453   */\n              0x4e487b7100000000000000000000000000000000000000000000000000000000\n                /* \"#utility.yul\":20373:20374   */\n              0x00\n                /* \"#utility.yul\":20366:20454   */\n              mstore\n                /* \"#utility.yul\":20473:20477   */\n              0x32\n                /* \"#utility.yul\":20470:20471   */\n              0x04\n                /* \"#utility.yul\":20463:20478   */\n              mstore\n                /* \"#utility.yul\":20497:20501   */\n              0x24\n                /* \"#utility.yul\":20494:20495   */\n              0x00\n                /* \"#utility.yul\":20487:20502   */\n              revert\n                /* \"#utility.yul\":20514:20683   */\n            tag_215:\n                /* \"#utility.yul\":20598:20609   */\n              0x00\n                /* \"#utility.yul\":20632:20638   */\n              dup3\n                /* \"#utility.yul\":20627:20630   */\n              dup3\n                /* \"#utility.yul\":20620:20639   */\n              mstore\n                /* \"#utility.yul\":20672:20676   */\n              0x20\n                /* \"#utility.yul\":20667:20670   */\n              dup3\n                /* \"#utility.yul\":20663:20677   */\n              add\n                /* \"#utility.yul\":20648:20677   */\n              swap1\n              pop\n                /* \"#utility.yul\":20514:20683   */\n              swap3\n              swap2\n              pop\n              pop\n              jump\t// out\n                /* \"#utility.yul\":20689:20856   */\n            tag_216:\n                /* \"#utility.yul\":20829:20848   */\n              0x436f6e74616374206e6f7420666f756e64000000000000000000000000000000\n                /* \"#utility.yul\":20825:20826   */\n              0x00\n                /* \"#utility.yul\":20817:20823   */\n              dup3\n                /* \"#utility.yul\":20813:20827   */\n              add\n                /* \"#utility.yul\":20806:20849   */\n              mstore\n                /* \"#utility.yul\":20689:20856   */\n              pop\n              jump\t// out\n                /* \"#utility.yul\":20862:21228   */\n            tag_217:\n                /* \"#utility.yul\":21004:21007   */\n              0x00\n                /* \"#utility.yul\":21025:21092   */\n              tag_427\n                /* \"#utility.yul\":21089:21091   */\n              0x11\n                /* \"#utility.yul\":21084:21087   */\n              dup4\n                /* \"#utility.yul\":21025:21092   */\n              tag_215\n              jump\t// in\n            tag_427:\n                /* \"#utility.yul\":21018:21092   */\n              swap2\n              pop\n                /* \"#utility.yul\":21101:21194   */\n              tag_428\n                /* \"#utility.yul\":21190:21193   */\n              dup3\n                /* \"#utility.yul\":21101:21194   */\n              tag_216\n              jump\t// in\n            tag_428:\n                /* \"#utility.yul\":21219:21221   */\n              0x20\n                /* \"#utility.yul\":21214:21217   */\n              dup3\n                /* \"#utility.yul\":21210:21222   */\n              add\n                /* \"#utility.yul\":21203:21222   */\n              swap1\n              pop\n                /* \"#utility.yul\":20862:21228   */\n              swap2\n              swap1\n              pop\n              jump\t// out\n                /* \"#utility.yul\":21234:21653   */\n            tag_66:\n                /* \"#utility.yul\":21400:21404   */\n              0x00\n                /* \"#utility.yul\":21438:21440   */\n              0x20\n                /* \"#utility.yul\":21427:21436   */\n              dup3\n                /* \"#utility.yul\":21423:21441   */\n              add\n                /* \"#utility.yul\":21415:21441   */\n              swap1\n              pop\n                /* \"#utility.yul\":21487:21496   */\n              dup2\n                /* \"#utility.yul\":21481:21485   */\n              dup2\n                /* \"#utility.yul\":21477:21497   */\n              sub\n                /* \"#utility.yul\":21473:21474   */\n              0x00\n                /* \"#utility.yul\":21462:21471   */\n              dup4\n                /* \"#utility.yul\":21458:21475   */\n              add\n                /* \"#utility.yul\":21451:21498   */\n              mstore\n                /* \"#utility.yul\":21515:21646   */\n              tag_430\n                /* \"#utility.yul\":21641:21645   */\n              dup2\n                /* \"#utility.yul\":21515:21646   */\n              tag_217\n              jump\t// in\n            tag_430:\n                /* \"#utility.yul\":21507:21646   */\n              swap1\n              pop\n                /* \"#utility.yul\":21234:21653   */\n              swap2\n              swap1\n              pop\n              jump\t// out\n                /* \"#utility.yul\":21659:21853   */\n            tag_68:\n                /* \"#utility.yul\":21699:21703   */\n              0x00\n                /* \"#utility.yul\":21719:21739   */\n              tag_432\n                /* \"#utility.yul\":21737:21738   */\n              dup3\n                /* \"#utility.yul\":21719:21739   */\n              tag_169\n              jump\t// in\n            tag_432:\n                /* \"#utility.yul\":21714:21739   */\n              swap2\n              pop\n                /* \"#utility.yul\":21753:21773   */\n              tag_433\n                /* \"#utility.yul\":21771:21772   */\n              dup4\n                /* \"#utility.yul\":21753:21773   */\n              tag_169\n              jump\t// in\n            tag_433:\n                /* \"#utility.yul\":21748:21773   */\n              swap3\n              pop\n                /* \"#utility.yul\":21797:21798   */\n              dup3\n                /* \"#utility.yul\":21794:21795   */\n              dup3\n                /* \"#utility.yul\":21790:21799   */\n              sub\n                /* \"#utility.yul\":21782:21799   */\n              swap1\n              pop\n                /* \"#utility.yul\":21821:21822   */\n              dup2\n                /* \"#utility.yul\":21815:21819   */\n              dup2\n                /* \"#utility.yul\":21812:21823   */\n              gt\n                /* \"#utility.yul\":21809:21846   */\n              iszero\n              tag_434\n              jumpi\n                /* \"#utility.yul\":21826:21844   */\n              tag_435\n              tag_214\n              jump\t// in\n            tag_435:\n                /* \"#utility.yul\":21809:21846   */\n            tag_434:\n                /* \"#utility.yul\":21659:21853   */\n              swap3\n              swap2\n              pop\n              pop\n              jump\t// out\n                /* \"#utility.yul\":21859:22039   */\n            tag_77:\n                /* \"#utility.yul\":21907:21984   */\n              0x4e487b7100000000000000000000000000000000000000000000000000000000\n                /* \"#utility.yul\":21904:21905   */\n              0x00\n                /* \"#utility.yul\":21897:21985   */\n              mstore\n                /* \"#utility.yul\":22004:22008   */\n              0x31\n                /* \"#utility.yul\":22001:22002   */\n              0x04\n                /* \"#utility.yul\":21994:22009   */\n              mstore\n                /* \"#utility.yul\":22028:22032   */\n              0x24\n                /* \"#utility.yul\":22025:22026   */\n              0x00\n                /* \"#utility.yul\":22018:22033   */\n              revert\n\n            auxdata: 0xa26469706673582212207da6ba0e031e3acf945d9b30d3a9c08fa53263b0123e3791fce2b9c7fdd1bc8064736f6c63430008170033\n        }\n    }\n\n    auxdata: 0xa2646970667358221220887e402bf8c922bdb52daeb58811e04592f2e47a36bf06960aa6305627c6607164736f6c63430008170033\n}\n",
				"bytecode": {
					"linkReferences": {},
					"object": "608060405234801561000f575f80fd5b506118d68061001d5f395ff3fe608060405234801561000f575f80fd5b5060043610610029575f3560e01c8063775c300c1461002d575b5f80fd5b61003561004b565b60405161004291906100c8565b60405180910390f35b5f806040516100599061007c565b604051809103905ff080158015610072573d5f803e3d5ffd5b5090508091505090565b6117bf806100e283390190565b5f73ffffffffffffffffffffffffffffffffffffffff82169050919050565b5f6100b282610089565b9050919050565b6100c2816100a8565b82525050565b5f6020820190506100db5f8301846100b9565b9291505056fe608060405234801562000010575f80fd5b50335f73ffffffffffffffffffffffffffffffffffffffff168173ffffffffffffffffffffffffffffffffffffffff160362000085575f6040517f1e4fbdf70000000000000000000000000000000000000000000000000000000081526004016200007c9190620001a1565b60405180910390fd5b62000096816200009d60201b60201c565b50620001bc565b5f805f9054906101000a900473ffffffffffffffffffffffffffffffffffffffff169050815f806101000a81548173ffffffffffffffffffffffffffffffffffffffff021916908373ffffffffffffffffffffffffffffffffffffffff1602179055508173ffffffffffffffffffffffffffffffffffffffff168173ffffffffffffffffffffffffffffffffffffffff167f8be0079c531659141344cd1fd0a4f28419497f9722a3daafe3b4186f6b6457e060405160405180910390a35050565b5f73ffffffffffffffffffffffffffffffffffffffff82169050919050565b5f62000189826200015e565b9050919050565b6200019b816200017d565b82525050565b5f602082019050620001b65f83018462000190565b92915050565b6115f580620001ca5f395ff3fe608060405234801561000f575f80fd5b506004361061007b575f3560e01c8063b9ed6fca11610059578063b9ed6fca146100c3578063e6505e1e146100df578063ef1d6ddd1461010f578063f2fde38b1461012d5761007b565b80633f06f6e81461007f578063715018a61461009b5780638da5cb5b146100a5575b5f80fd5b61009960048036038101906100949190610cf9565b610149565b005b6100a361023b565b005b6100ad61024e565b6040516100ba9190610ddc565b60405180910390f35b6100dd60048036038101906100d89190610df5565b610275565b005b6100f960048036038101906100f49190610df5565b6103f9565b6040516101069190610fbf565b60405180910390f35b6101176105a3565b6040516101249190611108565b60405180910390f35b61014760048036038101906101429190611152565b6107fa565b005b61015161087e565b5f600454905060405180608001604052808281526020018581526020018481526020018381525060015f8381526020019081526020015f205f820151815f015560208201518160010190816101a69190611377565b5060408201518160020190816101bc9190611377565b5060608201518160030190805190602001906101d99291906109cd565b5090505060028054905060035f8381526020019081526020015f2081905550600281908060018154018082558091505060019003905f5260205f20015f909190919091505560045f81548092919061023090611473565b919050555050505050565b61024361087e565b61024c5f610905565b565b5f805f9054906101000a900473ffffffffffffffffffffffffffffffffffffffff16905090565b61027d61087e565b5f60035f8381526020019081526020015f20541415806102b857508060025f815481106102ad576102ac6114ba565b5b905f5260205f200154145b6102f7576040517f08c379a00000000000000000000000000000000000000000000000000000000081526004016102ee90611541565b60405180910390fd5b5f60035f8381526020019081526020015f205490505f60026001600280549050610321919061155f565b81548110610332576103316114ba565b5b905f5260205f20015490508060028381548110610352576103516114ba565b5b905f5260205f2001819055508160035f8381526020019081526020015f2081905550600280548061038657610385611592565b5b600190038181905f5260205f20015f9055905560015f8481526020019081526020015f205f8082015f9055600182015f6103c09190610a18565b600282015f6103cf9190610a18565b600382015f6103de9190610a55565b505060035f8481526020019081526020015f205f9055505050565b610401610a73565b60015f8381526020019081526020015f206040518060800160405290815f8201548152602001600182018054610436906111aa565b80601f0160208091040260200160405190810160405280929190818152602001828054610462906111aa565b80156104ad5780601f10610484576101008083540402835291602001916104ad565b820191905f5260205f20905b81548152906001019060200180831161049057829003601f168201915b505050505081526020016002820180546104c6906111aa565b80601f01602080910402602001604051908101604052809291908181526020018280546104f2906111aa565b801561053d5780601f106105145761010080835404028352916020019161053d565b820191905f5260205f20905b81548152906001019060200180831161052057829003601f168201915b505050505081526020016003820180548060200260200160405190810160405280929190818152602001828054801561059357602002820191905f5260205f20905b81548152602001906001019080831161057f575b5050505050815250509050919050565b60605f60028054905067ffffffffffffffff8111156105c5576105c4610ade565b5b6040519080825280602002602001820160405280156105fe57816020015b6105eb610a73565b8152602001906001900390816105e35790505b5090505f5b6002805490508110156107f25760015f60028381548110610627576106266114ba565b5b905f5260205f20015481526020019081526020015f206040518060800160405290815f8201548152602001600182018054610661906111aa565b80601f016020809104026020016040519081016040528092919081815260200182805461068d906111aa565b80156106d85780601f106106af576101008083540402835291602001916106d8565b820191905f5260205f20905b8154815290600101906020018083116106bb57829003601f168201915b505050505081526020016002820180546106f1906111aa565b80601f016020809104026020016040519081016040528092919081815260200182805461071d906111aa565b80156107685780601f1061073f57610100808354040283529160200191610768565b820191905f5260205f20905b81548152906001019060200180831161074b57829003601f168201915b50505050508152602001600382018054806020026020016040519081016040528092919081815260200182805480156107be57602002820191905f5260205f20905b8154815260200190600101908083116107aa575b5050505050815250508282815181106107da576107d96114ba565b5b60200260200101819052508080600101915050610603565b508091505090565b61080261087e565b5f73ffffffffffffffffffffffffffffffffffffffff168173ffffffffffffffffffffffffffffffffffffffff1603610872575f6040517f1e4fbdf70000000000000000000000000000000000000000000000000000000081526004016108699190610ddc565b60405180910390fd5b61087b81610905565b50565b6108866109c6565b73ffffffffffffffffffffffffffffffffffffffff166108a461024e565b73ffffffffffffffffffffffffffffffffffffffff1614610903576108c76109c6565b6040517f118cdaa70000000000000000000000000000000000000000000000000000000081526004016108fa9190610ddc565b60405180910390fd5b565b5f805f9054906101000a900473ffffffffffffffffffffffffffffffffffffffff169050815f806101000a81548173ffffffffffffffffffffffffffffffffffffffff021916908373ffffffffffffffffffffffffffffffffffffffff1602179055508173ffffffffffffffffffffffffffffffffffffffff168173ffffffffffffffffffffffffffffffffffffffff167f8be0079c531659141344cd1fd0a4f28419497f9722a3daafe3b4186f6b6457e060405160405180910390a35050565b5f33905090565b828054828255905f5260205f20908101928215610a07579160200282015b82811115610a065782518255916020019190600101906109eb565b5b509050610a149190610a9a565b5090565b508054610a24906111aa565b5f825580601f10610a355750610a52565b601f0160209004905f5260205f2090810190610a519190610a9a565b5b50565b5080545f8255905f5260205f2090810190610a709190610a9a565b50565b60405180608001604052805f81526020016060815260200160608152602001606081525090565b5b80821115610ab1575f815f905550600101610a9b565b5090565b5f604051905090565b5f80fd5b5f80fd5b5f80fd5b5f80fd5b5f601f19601f8301169050919050565b7f4e487b71000000000000000000000000000000000000000000000000000000005f52604160045260245ffd5b610b1482610ace565b810181811067ffffffffffffffff82111715610b3357610b32610ade565b5b80604052505050565b5f610b45610ab5565b9050610b518282610b0b565b919050565b5f67ffffffffffffffff821115610b7057610b6f610ade565b5b610b7982610ace565b9050602081019050919050565b828183375f83830152505050565b5f610ba6610ba184610b56565b610b3c565b905082815260208101848484011115610bc257610bc1610aca565b5b610bcd848285610b86565b509392505050565b5f82601f830112610be957610be8610ac6565b5b8135610bf9848260208601610b94565b91505092915050565b5f67ffffffffffffffff821115610c1c57610c1b610ade565b5b602082029050602081019050919050565b5f80fd5b5f819050919050565b610c4381610c31565b8114610c4d575f80fd5b50565b5f81359050610c5e81610c3a565b92915050565b5f610c76610c7184610c02565b610b3c565b90508083825260208201905060208402830185811115610c9957610c98610c2d565b5b835b81811015610cc25780610cae8882610c50565b845260208401935050602081019050610c9b565b5050509392505050565b5f82601f830112610ce057610cdf610ac6565b5b8135610cf0848260208601610c64565b91505092915050565b5f805f60608486031215610d1057610d0f610abe565b5b5f84013567ffffffffffffffff811115610d2d57610d2c610ac2565b5b610d3986828701610bd5565b935050602084013567ffffffffffffffff811115610d5a57610d59610ac2565b5b610d6686828701610bd5565b925050604084013567ffffffffffffffff811115610d8757610d86610ac2565b5b610d9386828701610ccc565b9150509250925092565b5f73ffffffffffffffffffffffffffffffffffffffff82169050919050565b5f610dc682610d9d565b9050919050565b610dd681610dbc565b82525050565b5f602082019050610def5f830184610dcd565b92915050565b5f60208284031215610e0a57610e09610abe565b5b5f610e1784828501610c50565b91505092915050565b610e2981610c31565b82525050565b5f81519050919050565b5f82825260208201905092915050565b5f5b83811015610e66578082015181840152602081019050610e4b565b5f8484015250505050565b5f610e7b82610e2f565b610e858185610e39565b9350610e95818560208601610e49565b610e9e81610ace565b840191505092915050565b5f81519050919050565b5f82825260208201905092915050565b5f819050602082019050919050565b5f610edd8383610e20565b60208301905092915050565b5f602082019050919050565b5f610eff82610ea9565b610f098185610eb3565b9350610f1483610ec3565b805f5b83811015610f44578151610f2b8882610ed2565b9750610f3683610ee9565b925050600181019050610f17565b5085935050505092915050565b5f608083015f830151610f665f860182610e20565b5060208301518482036020860152610f7e8282610e71565b91505060408301518482036040860152610f988282610e71565b91505060608301518482036060860152610fb28282610ef5565b9150508091505092915050565b5f6020820190508181035f830152610fd78184610f51565b905092915050565b5f81519050919050565b5f82825260208201905092915050565b5f819050602082019050919050565b5f608083015f83015161101d5f860182610e20565b50602083015184820360208601526110358282610e71565b9150506040830151848203604086015261104f8282610e71565b915050606083015184820360608601526110698282610ef5565b9150508091505092915050565b5f6110818383611008565b905092915050565b5f602082019050919050565b5f61109f82610fdf565b6110a98185610fe9565b9350836020820285016110bb85610ff9565b805f5b858110156110f657848403895281516110d78582611076565b94506110e283611089565b925060208a019950506001810190506110be565b50829750879550505050505092915050565b5f6020820190508181035f8301526111208184611095565b905092915050565b61113181610dbc565b811461113b575f80fd5b50565b5f8135905061114c81611128565b92915050565b5f6020828403121561116757611166610abe565b5b5f6111748482850161113e565b91505092915050565b7f4e487b71000000000000000000000000000000000000000000000000000000005f52602260045260245ffd5b5f60028204905060018216806111c157607f821691505b6020821081036111d4576111d361117d565b5b50919050565b5f819050815f5260205f209050919050565b5f6020601f8301049050919050565b5f82821b905092915050565b5f600883026112367fffffffffffffffffffffffffffffffffffffffffffffffffffffffffffffffff826111fb565b61124086836111fb565b95508019841693508086168417925050509392505050565b5f819050919050565b5f61127b61127661127184610c31565b611258565b610c31565b9050919050565b5f819050919050565b61129483611261565b6112a86112a082611282565b848454611207565b825550505050565b5f90565b6112bc6112b0565b6112c781848461128b565b505050565b5b818110156112ea576112df5f826112b4565b6001810190506112cd565b5050565b601f82111561132f57611300816111da565b611309846111ec565b81016020851015611318578190505b61132c611324856111ec565b8301826112cc565b50505b505050565b5f82821c905092915050565b5f61134f5f1984600802611334565b1980831691505092915050565b5f6113678383611340565b9150826002028217905092915050565b61138082610e2f565b67ffffffffffffffff81111561139957611398610ade565b5b6113a382546111aa565b6113ae8282856112ee565b5f60209050601f8311600181146113df575f84156113cd578287015190505b6113d7858261135c565b86555061143e565b601f1984166113ed866111da565b5f5b82811015611414578489015182556001820191506020850194506020810190506113ef565b86831015611431578489015161142d601f891682611340565b8355505b6001600288020188555050505b505050505050565b7f4e487b71000000000000000000000000000000000000000000000000000000005f52601160045260245ffd5b5f61147d82610c31565b91507fffffffffffffffffffffffffffffffffffffffffffffffffffffffffffffffff82036114af576114ae611446565b5b600182019050919050565b7f4e487b71000000000000000000000000000000000000000000000000000000005f52603260045260245ffd5b5f82825260208201905092915050565b7f436f6e74616374206e6f7420666f756e640000000000000000000000000000005f82015250565b5f61152b6011836114e7565b9150611536826114f7565b602082019050919050565b5f6020820190508181035f8301526115588161151f565b9050919050565b5f61156982610c31565b915061157483610c31565b925082820390508181111561158c5761158b611446565b5b92915050565b7f4e487b71000000000000000000000000000000000000000000000000000000005f52603160045260245ffdfea26469706673582212207da6ba0e031e3acf945d9b30d3a9c08fa53263b0123e3791fce2b9c7fdd1bc8064736f6c63430008170033a2646970667358221220887e402bf8c922bdb52daeb58811e04592f2e47a36bf06960aa6305627c6607164736f6c63430008170033",
					"opcodes": "PUSH1 0x80 PUSH1 0x40 MSTORE CALLVALUE DUP1 ISZERO PUSH2 0xF JUMPI PUSH0 DUP1 REVERT JUMPDEST POP PUSH2 0x18D6 DUP1 PUSH2 0x1D PUSH0 CODECOPY PUSH0 RETURN INVALID PUSH1 0x80 PUSH1 0x40 MSTORE CALLVALUE DUP1 ISZERO PUSH2 0xF JUMPI PUSH0 DUP1 REVERT JUMPDEST POP PUSH1 0x4 CALLDATASIZE LT PUSH2 0x29 JUMPI PUSH0 CALLDATALOAD PUSH1 0xE0 SHR DUP1 PUSH4 0x775C300C EQ PUSH2 0x2D JUMPI JUMPDEST PUSH0 DUP1 REVERT JUMPDEST PUSH2 0x35 PUSH2 0x4B JUMP JUMPDEST PUSH1 0x40 MLOAD PUSH2 0x42 SWAP2 SWAP1 PUSH2 0xC8 JUMP JUMPDEST PUSH1 0x40 MLOAD DUP1 SWAP2 SUB SWAP1 RETURN JUMPDEST PUSH0 DUP1 PUSH1 0x40 MLOAD PUSH2 0x59 SWAP1 PUSH2 0x7C JUMP JUMPDEST PUSH1 0x40 MLOAD DUP1 SWAP2 SUB SWAP1 PUSH0 CREATE DUP1 ISZERO DUP1 ISZERO PUSH2 0x72 JUMPI RETURNDATASIZE PUSH0 DUP1 RETURNDATACOPY RETURNDATASIZE PUSH0 REVERT JUMPDEST POP SWAP1 POP DUP1 SWAP2 POP POP SWAP1 JUMP JUMPDEST PUSH2 0x17BF DUP1 PUSH2 0xE2 DUP4 CODECOPY ADD SWAP1 JUMP JUMPDEST PUSH0 PUSH20 0xFFFFFFFFFFFFFFFFFFFFFFFFFFFFFFFFFFFFFFFF DUP3 AND SWAP1 POP SWAP2 SWAP1 POP JUMP JUMPDEST PUSH0 PUSH2 0xB2 DUP3 PUSH2 0x89 JUMP JUMPDEST SWAP1 POP SWAP2 SWAP1 POP JUMP JUMPDEST PUSH2 0xC2 DUP2 PUSH2 0xA8 JUMP JUMPDEST DUP3 MSTORE POP POP JUMP JUMPDEST PUSH0 PUSH1 0x20 DUP3 ADD SWAP1 POP PUSH2 0xDB PUSH0 DUP4 ADD DUP5 PUSH2 0xB9 JUMP JUMPDEST SWAP3 SWAP2 POP POP JUMP INVALID PUSH1 0x80 PUSH1 0x40 MSTORE CALLVALUE DUP1 ISZERO PUSH3 0x10 JUMPI PUSH0 DUP1 REVERT JUMPDEST POP CALLER PUSH0 PUSH20 0xFFFFFFFFFFFFFFFFFFFFFFFFFFFFFFFFFFFFFFFF AND DUP2 PUSH20 0xFFFFFFFFFFFFFFFFFFFFFFFFFFFFFFFFFFFFFFFF AND SUB PUSH3 0x85 JUMPI PUSH0 PUSH1 0x40 MLOAD PUSH32 0x1E4FBDF700000000000000000000000000000000000000000000000000000000 DUP2 MSTORE PUSH1 0x4 ADD PUSH3 0x7C SWAP2 SWAP1 PUSH3 0x1A1 JUMP JUMPDEST PUSH1 0x40 MLOAD DUP1 SWAP2 SUB SWAP1 REVERT JUMPDEST PUSH3 0x96 DUP2 PUSH3 0x9D PUSH1 0x20 SHL PUSH1 0x20 SHR JUMP JUMPDEST POP PUSH3 0x1BC JUMP JUMPDEST PUSH0 DUP1 PUSH0 SWAP1 SLOAD SWAP1 PUSH2 0x100 EXP SWAP1 DIV PUSH20 0xFFFFFFFFFFFFFFFFFFFFFFFFFFFFFFFFFFFFFFFF AND SWAP1 POP DUP2 PUSH0 DUP1 PUSH2 0x100 EXP DUP2 SLOAD DUP2 PUSH20 0xFFFFFFFFFFFFFFFFFFFFFFFFFFFFFFFFFFFFFFFF MUL NOT AND SWAP1 DUP4 PUSH20 0xFFFFFFFFFFFFFFFFFFFFFFFFFFFFFFFFFFFFFFFF AND MUL OR SWAP1 SSTORE POP DUP2 PUSH20 0xFFFFFFFFFFFFFFFFFFFFFFFFFFFFFFFFFFFFFFFF AND DUP2 PUSH20 0xFFFFFFFFFFFFFFFFFFFFFFFFFFFFFFFFFFFFFFFF AND PUSH32 0x8BE0079C531659141344CD1FD0A4F28419497F9722A3DAAFE3B4186F6B6457E0 PUSH1 0x40 MLOAD PUSH1 0x40 MLOAD DUP1 SWAP2 SUB SWAP1 LOG3 POP POP JUMP JUMPDEST PUSH0 PUSH20 0xFFFFFFFFFFFFFFFFFFFFFFFFFFFFFFFFFFFFFFFF DUP3 AND SWAP1 POP SWAP2 SWAP1 POP JUMP JUMPDEST PUSH0 PUSH3 0x189 DUP3 PUSH3 0x15E JUMP JUMPDEST SWAP1 POP SWAP2 SWAP1 POP JUMP JUMPDEST PUSH3 0x19B DUP2 PUSH3 0x17D JUMP JUMPDEST DUP3 MSTORE POP POP JUMP JUMPDEST PUSH0 PUSH1 0x20 DUP3 ADD SWAP1 POP PUSH3 0x1B6 PUSH0 DUP4 ADD DUP5 PUSH3 0x190 JUMP JUMPDEST SWAP3 SWAP2 POP POP JUMP JUMPDEST PUSH2 0x15F5 DUP1 PUSH3 0x1CA PUSH0 CODECOPY PUSH0 RETURN INVALID PUSH1 0x80 PUSH1 0x40 MSTORE CALLVALUE DUP1 ISZERO PUSH2 0xF JUMPI PUSH0 DUP1 REVERT JUMPDEST POP PUSH1 0x4 CALLDATASIZE LT PUSH2 0x7B JUMPI PUSH0 CALLDATALOAD PUSH1 0xE0 SHR DUP1 PUSH4 0xB9ED6FCA GT PUSH2 0x59 JUMPI DUP1 PUSH4 0xB9ED6FCA EQ PUSH2 0xC3 JUMPI DUP1 PUSH4 0xE6505E1E EQ PUSH2 0xDF JUMPI DUP1 PUSH4 0xEF1D6DDD EQ PUSH2 0x10F JUMPI DUP1 PUSH4 0xF2FDE38B EQ PUSH2 0x12D JUMPI PUSH2 0x7B JUMP JUMPDEST DUP1 PUSH4 0x3F06F6E8 EQ PUSH2 0x7F JUMPI DUP1 PUSH4 0x715018A6 EQ PUSH2 0x9B JUMPI DUP1 PUSH4 0x8DA5CB5B EQ PUSH2 0xA5 JUMPI JUMPDEST PUSH0 DUP1 REVERT JUMPDEST PUSH2 0x99 PUSH1 0x4 DUP1 CALLDATASIZE SUB DUP2 ADD SWAP1 PUSH2 0x94 SWAP2 SWAP1 PUSH2 0xCF9 JUMP JUMPDEST PUSH2 0x149 JUMP JUMPDEST STOP JUMPDEST PUSH2 0xA3 PUSH2 0x23B JUMP JUMPDEST STOP JUMPDEST PUSH2 0xAD PUSH2 0x24E JUMP JUMPDEST PUSH1 0x40 MLOAD PUSH2 0xBA SWAP2 SWAP1 PUSH2 0xDDC JUMP JUMPDEST PUSH1 0x40 MLOAD DUP1 SWAP2 SUB SWAP1 RETURN JUMPDEST PUSH2 0xDD PUSH1 0x4 DUP1 CALLDATASIZE SUB DUP2 ADD SWAP1 PUSH2 0xD8 SWAP2 SWAP1 PUSH2 0xDF5 JUMP JUMPDEST PUSH2 0x275 JUMP JUMPDEST STOP JUMPDEST PUSH2 0xF9 PUSH1 0x4 DUP1 CALLDATASIZE SUB DUP2 ADD SWAP1 PUSH2 0xF4 SWAP2 SWAP1 PUSH2 0xDF5 JUMP JUMPDEST PUSH2 0x3F9 JUMP JUMPDEST PUSH1 0x40 MLOAD PUSH2 0x106 SWAP2 SWAP1 PUSH2 0xFBF JUMP JUMPDEST PUSH1 0x40 MLOAD DUP1 SWAP2 SUB SWAP1 RETURN JUMPDEST PUSH2 0x117 PUSH2 0x5A3 JUMP JUMPDEST PUSH1 0x40 MLOAD PUSH2 0x124 SWAP2 SWAP1 PUSH2 0x1108 JUMP JUMPDEST PUSH1 0x40 MLOAD DUP1 SWAP2 SUB SWAP1 RETURN JUMPDEST PUSH2 0x147 PUSH1 0x4 DUP1 CALLDATASIZE SUB DUP2 ADD SWAP1 PUSH2 0x142 SWAP2 SWAP1 PUSH2 0x1152 JUMP JUMPDEST PUSH2 0x7FA JUMP JUMPDEST STOP JUMPDEST PUSH2 0x151 PUSH2 0x87E JUMP JUMPDEST PUSH0 PUSH1 0x4 SLOAD SWAP1 POP PUSH1 0x40 MLOAD DUP1 PUSH1 0x80 ADD PUSH1 0x40 MSTORE DUP1 DUP3 DUP2 MSTORE PUSH1 0x20 ADD DUP6 DUP2 MSTORE PUSH1 0x20 ADD DUP5 DUP2 MSTORE PUSH1 0x20 ADD DUP4 DUP2 MSTORE POP PUSH1 0x1 PUSH0 DUP4 DUP2 MSTORE PUSH1 0x20 ADD SWAP1 DUP2 MSTORE PUSH1 0x20 ADD PUSH0 KECCAK256 PUSH0 DUP3 ADD MLOAD DUP2 PUSH0 ADD SSTORE PUSH1 0x20 DUP3 ADD MLOAD DUP2 PUSH1 0x1 ADD SWAP1 DUP2 PUSH2 0x1A6 SWAP2 SWAP1 PUSH2 0x1377 JUMP JUMPDEST POP PUSH1 0x40 DUP3 ADD MLOAD DUP2 PUSH1 0x2 ADD SWAP1 DUP2 PUSH2 0x1BC SWAP2 SWAP1 PUSH2 0x1377 JUMP JUMPDEST POP PUSH1 0x60 DUP3 ADD MLOAD DUP2 PUSH1 0x3 ADD SWAP1 DUP1 MLOAD SWAP1 PUSH1 0x20 ADD SWAP1 PUSH2 0x1D9 SWAP3 SWAP2 SWAP1 PUSH2 0x9CD JUMP JUMPDEST POP SWAP1 POP POP PUSH1 0x2 DUP1 SLOAD SWAP1 POP PUSH1 0x3 PUSH0 DUP4 DUP2 MSTORE PUSH1 0x20 ADD SWAP1 DUP2 MSTORE PUSH1 0x20 ADD PUSH0 KECCAK256 DUP2 SWAP1 SSTORE POP PUSH1 0x2 DUP2 SWAP1 DUP1 PUSH1 0x1 DUP2 SLOAD ADD DUP1 DUP3 SSTORE DUP1 SWAP2 POP POP PUSH1 0x1 SWAP1 SUB SWAP1 PUSH0 MSTORE PUSH1 0x20 PUSH0 KECCAK256 ADD PUSH0 SWAP1 SWAP2 SWAP1 SWAP2 SWAP1 SWAP2 POP SSTORE PUSH1 0x4 PUSH0 DUP2 SLOAD DUP1 SWAP3 SWAP2 SWAP1 PUSH2 0x230 SWAP1 PUSH2 0x1473 JUMP JUMPDEST SWAP2 SWAP1 POP SSTORE POP POP POP POP POP JUMP JUMPDEST PUSH2 0x243 PUSH2 0x87E JUMP JUMPDEST PUSH2 0x24C PUSH0 PUSH2 0x905 JUMP JUMPDEST JUMP JUMPDEST PUSH0 DUP1 PUSH0 SWAP1 SLOAD SWAP1 PUSH2 0x100 EXP SWAP1 DIV PUSH20 0xFFFFFFFFFFFFFFFFFFFFFFFFFFFFFFFFFFFFFFFF AND SWAP1 POP SWAP1 JUMP JUMPDEST PUSH2 0x27D PUSH2 0x87E JUMP JUMPDEST PUSH0 PUSH1 0x3 PUSH0 DUP4 DUP2 MSTORE PUSH1 0x20 ADD SWAP1 DUP2 MSTORE PUSH1 0x20 ADD PUSH0 KECCAK256 SLOAD EQ ISZERO DUP1 PUSH2 0x2B8 JUMPI POP DUP1 PUSH1 0x2 PUSH0 DUP2 SLOAD DUP2 LT PUSH2 0x2AD JUMPI PUSH2 0x2AC PUSH2 0x14BA JUMP JUMPDEST JUMPDEST SWAP1 PUSH0 MSTORE PUSH1 0x20 PUSH0 KECCAK256 ADD SLOAD EQ JUMPDEST PUSH2 0x2F7 JUMPI PUSH1 0x40 MLOAD PUSH32 0x8C379A000000000000000000000000000000000000000000000000000000000 DUP2 MSTORE PUSH1 0x4 ADD PUSH2 0x2EE SWAP1 PUSH2 0x1541 JUMP JUMPDEST PUSH1 0x40 MLOAD DUP1 SWAP2 SUB SWAP1 REVERT JUMPDEST PUSH0 PUSH1 0x3 PUSH0 DUP4 DUP2 MSTORE PUSH1 0x20 ADD SWAP1 DUP2 MSTORE PUSH1 0x20 ADD PUSH0 KECCAK256 SLOAD SWAP1 POP PUSH0 PUSH1 0x2 PUSH1 0x1 PUSH1 0x2 DUP1 SLOAD SWAP1 POP PUSH2 0x321 SWAP2 SWAP1 PUSH2 0x155F JUMP JUMPDEST DUP2 SLOAD DUP2 LT PUSH2 0x332 JUMPI PUSH2 0x331 PUSH2 0x14BA JUMP JUMPDEST JUMPDEST SWAP1 PUSH0 MSTORE PUSH1 0x20 PUSH0 KECCAK256 ADD SLOAD SWAP1 POP DUP1 PUSH1 0x2 DUP4 DUP2 SLOAD DUP2 LT PUSH2 0x352 JUMPI PUSH2 0x351 PUSH2 0x14BA JUMP JUMPDEST JUMPDEST SWAP1 PUSH0 MSTORE PUSH1 0x20 PUSH0 KECCAK256 ADD DUP2 SWAP1 SSTORE POP DUP2 PUSH1 0x3 PUSH0 DUP4 DUP2 MSTORE PUSH1 0x20 ADD SWAP1 DUP2 MSTORE PUSH1 0x20 ADD PUSH0 KECCAK256 DUP2 SWAP1 SSTORE POP PUSH1 0x2 DUP1 SLOAD DUP1 PUSH2 0x386 JUMPI PUSH2 0x385 PUSH2 0x1592 JUMP JUMPDEST JUMPDEST PUSH1 0x1 SWAP1 SUB DUP2 DUP2 SWAP1 PUSH0 MSTORE PUSH1 0x20 PUSH0 KECCAK256 ADD PUSH0 SWAP1 SSTORE SWAP1 SSTORE PUSH1 0x1 PUSH0 DUP5 DUP2 MSTORE PUSH1 0x20 ADD SWAP1 DUP2 MSTORE PUSH1 0x20 ADD PUSH0 KECCAK256 PUSH0 DUP1 DUP3 ADD PUSH0 SWAP1 SSTORE PUSH1 0x1 DUP3 ADD PUSH0 PUSH2 0x3C0 SWAP2 SWAP1 PUSH2 0xA18 JUMP JUMPDEST PUSH1 0x2 DUP3 ADD PUSH0 PUSH2 0x3CF SWAP2 SWAP1 PUSH2 0xA18 JUMP JUMPDEST PUSH1 0x3 DUP3 ADD PUSH0 PUSH2 0x3DE SWAP2 SWAP1 PUSH2 0xA55 JUMP JUMPDEST POP POP PUSH1 0x3 PUSH0 DUP5 DUP2 MSTORE PUSH1 0x20 ADD SWAP1 DUP2 MSTORE PUSH1 0x20 ADD PUSH0 KECCAK256 PUSH0 SWAP1 SSTORE POP POP POP JUMP JUMPDEST PUSH2 0x401 PUSH2 0xA73 JUMP JUMPDEST PUSH1 0x1 PUSH0 DUP4 DUP2 MSTORE PUSH1 0x20 ADD SWAP1 DUP2 MSTORE PUSH1 0x20 ADD PUSH0 KECCAK256 PUSH1 0x40 MLOAD DUP1 PUSH1 0x80 ADD PUSH1 0x40 MSTORE SWAP1 DUP2 PUSH0 DUP3 ADD SLOAD DUP2 MSTORE PUSH1 0x20 ADD PUSH1 0x1 DUP3 ADD DUP1 SLOAD PUSH2 0x436 SWAP1 PUSH2 0x11AA JUMP JUMPDEST DUP1 PUSH1 0x1F ADD PUSH1 0x20 DUP1 SWAP2 DIV MUL PUSH1 0x20 ADD PUSH1 0x40 MLOAD SWAP1 DUP2 ADD PUSH1 0x40 MSTORE DUP1 SWAP3 SWAP2 SWAP1 DUP2 DUP2 MSTORE PUSH1 0x20 ADD DUP3 DUP1 SLOAD PUSH2 0x462 SWAP1 PUSH2 0x11AA JUMP JUMPDEST DUP1 ISZERO PUSH2 0x4AD JUMPI DUP1 PUSH1 0x1F LT PUSH2 0x484 JUMPI PUSH2 0x100 DUP1 DUP4 SLOAD DIV MUL DUP4 MSTORE SWAP2 PUSH1 0x20 ADD SWAP2 PUSH2 0x4AD JUMP JUMPDEST DUP3 ADD SWAP2 SWAP1 PUSH0 MSTORE PUSH1 0x20 PUSH0 KECCAK256 SWAP1 JUMPDEST DUP2 SLOAD DUP2 MSTORE SWAP1 PUSH1 0x1 ADD SWAP1 PUSH1 0x20 ADD DUP1 DUP4 GT PUSH2 0x490 JUMPI DUP3 SWAP1 SUB PUSH1 0x1F AND DUP3 ADD SWAP2 JUMPDEST POP POP POP POP POP DUP2 MSTORE PUSH1 0x20 ADD PUSH1 0x2 DUP3 ADD DUP1 SLOAD PUSH2 0x4C6 SWAP1 PUSH2 0x11AA JUMP JUMPDEST DUP1 PUSH1 0x1F ADD PUSH1 0x20 DUP1 SWAP2 DIV MUL PUSH1 0x20 ADD PUSH1 0x40 MLOAD SWAP1 DUP2 ADD PUSH1 0x40 MSTORE DUP1 SWAP3 SWAP2 SWAP1 DUP2 DUP2 MSTORE PUSH1 0x20 ADD DUP3 DUP1 SLOAD PUSH2 0x4F2 SWAP1 PUSH2 0x11AA JUMP JUMPDEST DUP1 ISZERO PUSH2 0x53D JUMPI DUP1 PUSH1 0x1F LT PUSH2 0x514 JUMPI PUSH2 0x100 DUP1 DUP4 SLOAD DIV MUL DUP4 MSTORE SWAP2 PUSH1 0x20 ADD SWAP2 PUSH2 0x53D JUMP JUMPDEST DUP3 ADD SWAP2 SWAP1 PUSH0 MSTORE PUSH1 0x20 PUSH0 KECCAK256 SWAP1 JUMPDEST DUP2 SLOAD DUP2 MSTORE SWAP1 PUSH1 0x1 ADD SWAP1 PUSH1 0x20 ADD DUP1 DUP4 GT PUSH2 0x520 JUMPI DUP3 SWAP1 SUB PUSH1 0x1F AND DUP3 ADD SWAP2 JUMPDEST POP POP POP POP POP DUP2 MSTORE PUSH1 0x20 ADD PUSH1 0x3 DUP3 ADD DUP1 SLOAD DUP1 PUSH1 0x20 MUL PUSH1 0x20 ADD PUSH1 0x40 MLOAD SWAP1 DUP2 ADD PUSH1 0x40 MSTORE DUP1 SWAP3 SWAP2 SWAP1 DUP2 DUP2 MSTORE PUSH1 0x20 ADD DUP3 DUP1 SLOAD DUP1 ISZERO PUSH2 0x593 JUMPI PUSH1 0x20 MUL DUP3 ADD SWAP2 SWAP1 PUSH0 MSTORE PUSH1 0x20 PUSH0 KECCAK256 SWAP1 JUMPDEST DUP2 SLOAD DUP2 MSTORE PUSH1 0x20 ADD SWAP1 PUSH1 0x1 ADD SWAP1 DUP1 DUP4 GT PUSH2 0x57F JUMPI JUMPDEST POP POP POP POP POP DUP2 MSTORE POP POP SWAP1 POP SWAP2 SWAP1 POP JUMP JUMPDEST PUSH1 0x60 PUSH0 PUSH1 0x2 DUP1 SLOAD SWAP1 POP PUSH8 0xFFFFFFFFFFFFFFFF DUP2 GT ISZERO PUSH2 0x5C5 JUMPI PUSH2 0x5C4 PUSH2 0xADE JUMP JUMPDEST JUMPDEST PUSH1 0x40 MLOAD SWAP1 DUP1 DUP3 MSTORE DUP1 PUSH1 0x20 MUL PUSH1 0x20 ADD DUP3 ADD PUSH1 0x40 MSTORE DUP1 ISZERO PUSH2 0x5FE JUMPI DUP2 PUSH1 0x20 ADD JUMPDEST PUSH2 0x5EB PUSH2 0xA73 JUMP JUMPDEST DUP2 MSTORE PUSH1 0x20 ADD SWAP1 PUSH1 0x1 SWAP1 SUB SWAP1 DUP2 PUSH2 0x5E3 JUMPI SWAP1 POP JUMPDEST POP SWAP1 POP PUSH0 JUMPDEST PUSH1 0x2 DUP1 SLOAD SWAP1 POP DUP2 LT ISZERO PUSH2 0x7F2 JUMPI PUSH1 0x1 PUSH0 PUSH1 0x2 DUP4 DUP2 SLOAD DUP2 LT PUSH2 0x627 JUMPI PUSH2 0x626 PUSH2 0x14BA JUMP JUMPDEST JUMPDEST SWAP1 PUSH0 MSTORE PUSH1 0x20 PUSH0 KECCAK256 ADD SLOAD DUP2 MSTORE PUSH1 0x20 ADD SWAP1 DUP2 MSTORE PUSH1 0x20 ADD PUSH0 KECCAK256 PUSH1 0x40 MLOAD DUP1 PUSH1 0x80 ADD PUSH1 0x40 MSTORE SWAP1 DUP2 PUSH0 DUP3 ADD SLOAD DUP2 MSTORE PUSH1 0x20 ADD PUSH1 0x1 DUP3 ADD DUP1 SLOAD PUSH2 0x661 SWAP1 PUSH2 0x11AA JUMP JUMPDEST DUP1 PUSH1 0x1F ADD PUSH1 0x20 DUP1 SWAP2 DIV MUL PUSH1 0x20 ADD PUSH1 0x40 MLOAD SWAP1 DUP2 ADD PUSH1 0x40 MSTORE DUP1 SWAP3 SWAP2 SWAP1 DUP2 DUP2 MSTORE PUSH1 0x20 ADD DUP3 DUP1 SLOAD PUSH2 0x68D SWAP1 PUSH2 0x11AA JUMP JUMPDEST DUP1 ISZERO PUSH2 0x6D8 JUMPI DUP1 PUSH1 0x1F LT PUSH2 0x6AF JUMPI PUSH2 0x100 DUP1 DUP4 SLOAD DIV MUL DUP4 MSTORE SWAP2 PUSH1 0x20 ADD SWAP2 PUSH2 0x6D8 JUMP JUMPDEST DUP3 ADD SWAP2 SWAP1 PUSH0 MSTORE PUSH1 0x20 PUSH0 KECCAK256 SWAP1 JUMPDEST DUP2 SLOAD DUP2 MSTORE SWAP1 PUSH1 0x1 ADD SWAP1 PUSH1 0x20 ADD DUP1 DUP4 GT PUSH2 0x6BB JUMPI DUP3 SWAP1 SUB PUSH1 0x1F AND DUP3 ADD SWAP2 JUMPDEST POP POP POP POP POP DUP2 MSTORE PUSH1 0x20 ADD PUSH1 0x2 DUP3 ADD DUP1 SLOAD PUSH2 0x6F1 SWAP1 PUSH2 0x11AA JUMP JUMPDEST DUP1 PUSH1 0x1F ADD PUSH1 0x20 DUP1 SWAP2 DIV MUL PUSH1 0x20 ADD PUSH1 0x40 MLOAD SWAP1 DUP2 ADD PUSH1 0x40 MSTORE DUP1 SWAP3 SWAP2 SWAP1 DUP2 DUP2 MSTORE PUSH1 0x20 ADD DUP3 DUP1 SLOAD PUSH2 0x71D SWAP1 PUSH2 0x11AA JUMP JUMPDEST DUP1 ISZERO PUSH2 0x768 JUMPI DUP1 PUSH1 0x1F LT PUSH2 0x73F JUMPI PUSH2 0x100 DUP1 DUP4 SLOAD DIV MUL DUP4 MSTORE SWAP2 PUSH1 0x20 ADD SWAP2 PUSH2 0x768 JUMP JUMPDEST DUP3 ADD SWAP2 SWAP1 PUSH0 MSTORE PUSH1 0x20 PUSH0 KECCAK256 SWAP1 JUMPDEST DUP2 SLOAD DUP2 MSTORE SWAP1 PUSH1 0x1 ADD SWAP1 PUSH1 0x20 ADD DUP1 DUP4 GT PUSH2 0x74B JUMPI DUP3 SWAP1 SUB PUSH1 0x1F AND DUP3 ADD SWAP2 JUMPDEST POP POP POP POP POP DUP2 MSTORE PUSH1 0x20 ADD PUSH1 0x3 DUP3 ADD DUP1 SLOAD DUP1 PUSH1 0x20 MUL PUSH1 0x20 ADD PUSH1 0x40 MLOAD SWAP1 DUP2 ADD PUSH1 0x40 MSTORE DUP1 SWAP3 SWAP2 SWAP1 DUP2 DUP2 MSTORE PUSH1 0x20 ADD DUP3 DUP1 SLOAD DUP1 ISZERO PUSH2 0x7BE JUMPI PUSH1 0x20 MUL DUP3 ADD SWAP2 SWAP1 PUSH0 MSTORE PUSH1 0x20 PUSH0 KECCAK256 SWAP1 JUMPDEST DUP2 SLOAD DUP2 MSTORE PUSH1 0x20 ADD SWAP1 PUSH1 0x1 ADD SWAP1 DUP1 DUP4 GT PUSH2 0x7AA JUMPI JUMPDEST POP POP POP POP POP DUP2 MSTORE POP POP DUP3 DUP3 DUP2 MLOAD DUP2 LT PUSH2 0x7DA JUMPI PUSH2 0x7D9 PUSH2 0x14BA JUMP JUMPDEST JUMPDEST PUSH1 0x20 MUL PUSH1 0x20 ADD ADD DUP2 SWAP1 MSTORE POP DUP1 DUP1 PUSH1 0x1 ADD SWAP2 POP POP PUSH2 0x603 JUMP JUMPDEST POP DUP1 SWAP2 POP POP SWAP1 JUMP JUMPDEST PUSH2 0x802 PUSH2 0x87E JUMP JUMPDEST PUSH0 PUSH20 0xFFFFFFFFFFFFFFFFFFFFFFFFFFFFFFFFFFFFFFFF AND DUP2 PUSH20 0xFFFFFFFFFFFFFFFFFFFFFFFFFFFFFFFFFFFFFFFF AND SUB PUSH2 0x872 JUMPI PUSH0 PUSH1 0x40 MLOAD PUSH32 0x1E4FBDF700000000000000000000000000000000000000000000000000000000 DUP2 MSTORE PUSH1 0x4 ADD PUSH2 0x869 SWAP2 SWAP1 PUSH2 0xDDC JUMP JUMPDEST PUSH1 0x40 MLOAD DUP1 SWAP2 SUB SWAP1 REVERT JUMPDEST PUSH2 0x87B DUP2 PUSH2 0x905 JUMP JUMPDEST POP JUMP JUMPDEST PUSH2 0x886 PUSH2 0x9C6 JUMP JUMPDEST PUSH20 0xFFFFFFFFFFFFFFFFFFFFFFFFFFFFFFFFFFFFFFFF AND PUSH2 0x8A4 PUSH2 0x24E JUMP JUMPDEST PUSH20 0xFFFFFFFFFFFFFFFFFFFFFFFFFFFFFFFFFFFFFFFF AND EQ PUSH2 0x903 JUMPI PUSH2 0x8C7 PUSH2 0x9C6 JUMP JUMPDEST PUSH1 0x40 MLOAD PUSH32 0x118CDAA700000000000000000000000000000000000000000000000000000000 DUP2 MSTORE PUSH1 0x4 ADD PUSH2 0x8FA SWAP2 SWAP1 PUSH2 0xDDC JUMP JUMPDEST PUSH1 0x40 MLOAD DUP1 SWAP2 SUB SWAP1 REVERT JUMPDEST JUMP JUMPDEST PUSH0 DUP1 PUSH0 SWAP1 SLOAD SWAP1 PUSH2 0x100 EXP SWAP1 DIV PUSH20 0xFFFFFFFFFFFFFFFFFFFFFFFFFFFFFFFFFFFFFFFF AND SWAP1 POP DUP2 PUSH0 DUP1 PUSH2 0x100 EXP DUP2 SLOAD DUP2 PUSH20 0xFFFFFFFFFFFFFFFFFFFFFFFFFFFFFFFFFFFFFFFF MUL NOT AND SWAP1 DUP4 PUSH20 0xFFFFFFFFFFFFFFFFFFFFFFFFFFFFFFFFFFFFFFFF AND MUL OR SWAP1 SSTORE POP DUP2 PUSH20 0xFFFFFFFFFFFFFFFFFFFFFFFFFFFFFFFFFFFFFFFF AND DUP2 PUSH20 0xFFFFFFFFFFFFFFFFFFFFFFFFFFFFFFFFFFFFFFFF AND PUSH32 0x8BE0079C531659141344CD1FD0A4F28419497F9722A3DAAFE3B4186F6B6457E0 PUSH1 0x40 MLOAD PUSH1 0x40 MLOAD DUP1 SWAP2 SUB SWAP1 LOG3 POP POP JUMP JUMPDEST PUSH0 CALLER SWAP1 POP SWAP1 JUMP JUMPDEST DUP3 DUP1 SLOAD DUP3 DUP3 SSTORE SWAP1 PUSH0 MSTORE PUSH1 0x20 PUSH0 KECCAK256 SWAP1 DUP2 ADD SWAP3 DUP3 ISZERO PUSH2 0xA07 JUMPI SWAP2 PUSH1 0x20 MUL DUP3 ADD JUMPDEST DUP3 DUP2 GT ISZERO PUSH2 0xA06 JUMPI DUP3 MLOAD DUP3 SSTORE SWAP2 PUSH1 0x20 ADD SWAP2 SWAP1 PUSH1 0x1 ADD SWAP1 PUSH2 0x9EB JUMP JUMPDEST JUMPDEST POP SWAP1 POP PUSH2 0xA14 SWAP2 SWAP1 PUSH2 0xA9A JUMP JUMPDEST POP SWAP1 JUMP JUMPDEST POP DUP1 SLOAD PUSH2 0xA24 SWAP1 PUSH2 0x11AA JUMP JUMPDEST PUSH0 DUP3 SSTORE DUP1 PUSH1 0x1F LT PUSH2 0xA35 JUMPI POP PUSH2 0xA52 JUMP JUMPDEST PUSH1 0x1F ADD PUSH1 0x20 SWAP1 DIV SWAP1 PUSH0 MSTORE PUSH1 0x20 PUSH0 KECCAK256 SWAP1 DUP2 ADD SWAP1 PUSH2 0xA51 SWAP2 SWAP1 PUSH2 0xA9A JUMP JUMPDEST JUMPDEST POP JUMP JUMPDEST POP DUP1 SLOAD PUSH0 DUP3 SSTORE SWAP1 PUSH0 MSTORE PUSH1 0x20 PUSH0 KECCAK256 SWAP1 DUP2 ADD SWAP1 PUSH2 0xA70 SWAP2 SWAP1 PUSH2 0xA9A JUMP JUMPDEST POP JUMP JUMPDEST PUSH1 0x40 MLOAD DUP1 PUSH1 0x80 ADD PUSH1 0x40 MSTORE DUP1 PUSH0 DUP2 MSTORE PUSH1 0x20 ADD PUSH1 0x60 DUP2 MSTORE PUSH1 0x20 ADD PUSH1 0x60 DUP2 MSTORE PUSH1 0x20 ADD PUSH1 0x60 DUP2 MSTORE POP SWAP1 JUMP JUMPDEST JUMPDEST DUP1 DUP3 GT ISZERO PUSH2 0xAB1 JUMPI PUSH0 DUP2 PUSH0 SWAP1 SSTORE POP PUSH1 0x1 ADD PUSH2 0xA9B JUMP JUMPDEST POP SWAP1 JUMP JUMPDEST PUSH0 PUSH1 0x40 MLOAD SWAP1 POP SWAP1 JUMP JUMPDEST PUSH0 DUP1 REVERT JUMPDEST PUSH0 DUP1 REVERT JUMPDEST PUSH0 DUP1 REVERT JUMPDEST PUSH0 DUP1 REVERT JUMPDEST PUSH0 PUSH1 0x1F NOT PUSH1 0x1F DUP4 ADD AND SWAP1 POP SWAP2 SWAP1 POP JUMP JUMPDEST PUSH32 0x4E487B7100000000000000000000000000000000000000000000000000000000 PUSH0 MSTORE PUSH1 0x41 PUSH1 0x4 MSTORE PUSH1 0x24 PUSH0 REVERT JUMPDEST PUSH2 0xB14 DUP3 PUSH2 0xACE JUMP JUMPDEST DUP2 ADD DUP2 DUP2 LT PUSH8 0xFFFFFFFFFFFFFFFF DUP3 GT OR ISZERO PUSH2 0xB33 JUMPI PUSH2 0xB32 PUSH2 0xADE JUMP JUMPDEST JUMPDEST DUP1 PUSH1 0x40 MSTORE POP POP POP JUMP JUMPDEST PUSH0 PUSH2 0xB45 PUSH2 0xAB5 JUMP JUMPDEST SWAP1 POP PUSH2 0xB51 DUP3 DUP3 PUSH2 0xB0B JUMP JUMPDEST SWAP2 SWAP1 POP JUMP JUMPDEST PUSH0 PUSH8 0xFFFFFFFFFFFFFFFF DUP3 GT ISZERO PUSH2 0xB70 JUMPI PUSH2 0xB6F PUSH2 0xADE JUMP JUMPDEST JUMPDEST PUSH2 0xB79 DUP3 PUSH2 0xACE JUMP JUMPDEST SWAP1 POP PUSH1 0x20 DUP2 ADD SWAP1 POP SWAP2 SWAP1 POP JUMP JUMPDEST DUP3 DUP2 DUP4 CALLDATACOPY PUSH0 DUP4 DUP4 ADD MSTORE POP POP POP JUMP JUMPDEST PUSH0 PUSH2 0xBA6 PUSH2 0xBA1 DUP5 PUSH2 0xB56 JUMP JUMPDEST PUSH2 0xB3C JUMP JUMPDEST SWAP1 POP DUP3 DUP2 MSTORE PUSH1 0x20 DUP2 ADD DUP5 DUP5 DUP5 ADD GT ISZERO PUSH2 0xBC2 JUMPI PUSH2 0xBC1 PUSH2 0xACA JUMP JUMPDEST JUMPDEST PUSH2 0xBCD DUP5 DUP3 DUP6 PUSH2 0xB86 JUMP JUMPDEST POP SWAP4 SWAP3 POP POP POP JUMP JUMPDEST PUSH0 DUP3 PUSH1 0x1F DUP4 ADD SLT PUSH2 0xBE9 JUMPI PUSH2 0xBE8 PUSH2 0xAC6 JUMP JUMPDEST JUMPDEST DUP2 CALLDATALOAD PUSH2 0xBF9 DUP5 DUP3 PUSH1 0x20 DUP7 ADD PUSH2 0xB94 JUMP JUMPDEST SWAP2 POP POP SWAP3 SWAP2 POP POP JUMP JUMPDEST PUSH0 PUSH8 0xFFFFFFFFFFFFFFFF DUP3 GT ISZERO PUSH2 0xC1C JUMPI PUSH2 0xC1B PUSH2 0xADE JUMP JUMPDEST JUMPDEST PUSH1 0x20 DUP3 MUL SWAP1 POP PUSH1 0x20 DUP2 ADD SWAP1 POP SWAP2 SWAP1 POP JUMP JUMPDEST PUSH0 DUP1 REVERT JUMPDEST PUSH0 DUP2 SWAP1 POP SWAP2 SWAP1 POP JUMP JUMPDEST PUSH2 0xC43 DUP2 PUSH2 0xC31 JUMP JUMPDEST DUP2 EQ PUSH2 0xC4D JUMPI PUSH0 DUP1 REVERT JUMPDEST POP JUMP JUMPDEST PUSH0 DUP2 CALLDATALOAD SWAP1 POP PUSH2 0xC5E DUP2 PUSH2 0xC3A JUMP JUMPDEST SWAP3 SWAP2 POP POP JUMP JUMPDEST PUSH0 PUSH2 0xC76 PUSH2 0xC71 DUP5 PUSH2 0xC02 JUMP JUMPDEST PUSH2 0xB3C JUMP JUMPDEST SWAP1 POP DUP1 DUP4 DUP3 MSTORE PUSH1 0x20 DUP3 ADD SWAP1 POP PUSH1 0x20 DUP5 MUL DUP4 ADD DUP6 DUP2 GT ISZERO PUSH2 0xC99 JUMPI PUSH2 0xC98 PUSH2 0xC2D JUMP JUMPDEST JUMPDEST DUP4 JUMPDEST DUP2 DUP2 LT ISZERO PUSH2 0xCC2 JUMPI DUP1 PUSH2 0xCAE DUP9 DUP3 PUSH2 0xC50 JUMP JUMPDEST DUP5 MSTORE PUSH1 0x20 DUP5 ADD SWAP4 POP POP PUSH1 0x20 DUP2 ADD SWAP1 POP PUSH2 0xC9B JUMP JUMPDEST POP POP POP SWAP4 SWAP3 POP POP POP JUMP JUMPDEST PUSH0 DUP3 PUSH1 0x1F DUP4 ADD SLT PUSH2 0xCE0 JUMPI PUSH2 0xCDF PUSH2 0xAC6 JUMP JUMPDEST JUMPDEST DUP2 CALLDATALOAD PUSH2 0xCF0 DUP5 DUP3 PUSH1 0x20 DUP7 ADD PUSH2 0xC64 JUMP JUMPDEST SWAP2 POP POP SWAP3 SWAP2 POP POP JUMP JUMPDEST PUSH0 DUP1 PUSH0 PUSH1 0x60 DUP5 DUP7 SUB SLT ISZERO PUSH2 0xD10 JUMPI PUSH2 0xD0F PUSH2 0xABE JUMP JUMPDEST JUMPDEST PUSH0 DUP5 ADD CALLDATALOAD PUSH8 0xFFFFFFFFFFFFFFFF DUP2 GT ISZERO PUSH2 0xD2D JUMPI PUSH2 0xD2C PUSH2 0xAC2 JUMP JUMPDEST JUMPDEST PUSH2 0xD39 DUP7 DUP3 DUP8 ADD PUSH2 0xBD5 JUMP JUMPDEST SWAP4 POP POP PUSH1 0x20 DUP5 ADD CALLDATALOAD PUSH8 0xFFFFFFFFFFFFFFFF DUP2 GT ISZERO PUSH2 0xD5A JUMPI PUSH2 0xD59 PUSH2 0xAC2 JUMP JUMPDEST JUMPDEST PUSH2 0xD66 DUP7 DUP3 DUP8 ADD PUSH2 0xBD5 JUMP JUMPDEST SWAP3 POP POP PUSH1 0x40 DUP5 ADD CALLDATALOAD PUSH8 0xFFFFFFFFFFFFFFFF DUP2 GT ISZERO PUSH2 0xD87 JUMPI PUSH2 0xD86 PUSH2 0xAC2 JUMP JUMPDEST JUMPDEST PUSH2 0xD93 DUP7 DUP3 DUP8 ADD PUSH2 0xCCC JUMP JUMPDEST SWAP2 POP POP SWAP3 POP SWAP3 POP SWAP3 JUMP JUMPDEST PUSH0 PUSH20 0xFFFFFFFFFFFFFFFFFFFFFFFFFFFFFFFFFFFFFFFF DUP3 AND SWAP1 POP SWAP2 SWAP1 POP JUMP JUMPDEST PUSH0 PUSH2 0xDC6 DUP3 PUSH2 0xD9D JUMP JUMPDEST SWAP1 POP SWAP2 SWAP1 POP JUMP JUMPDEST PUSH2 0xDD6 DUP2 PUSH2 0xDBC JUMP JUMPDEST DUP3 MSTORE POP POP JUMP JUMPDEST PUSH0 PUSH1 0x20 DUP3 ADD SWAP1 POP PUSH2 0xDEF PUSH0 DUP4 ADD DUP5 PUSH2 0xDCD JUMP JUMPDEST SWAP3 SWAP2 POP POP JUMP JUMPDEST PUSH0 PUSH1 0x20 DUP3 DUP5 SUB SLT ISZERO PUSH2 0xE0A JUMPI PUSH2 0xE09 PUSH2 0xABE JUMP JUMPDEST JUMPDEST PUSH0 PUSH2 0xE17 DUP5 DUP3 DUP6 ADD PUSH2 0xC50 JUMP JUMPDEST SWAP2 POP POP SWAP3 SWAP2 POP POP JUMP JUMPDEST PUSH2 0xE29 DUP2 PUSH2 0xC31 JUMP JUMPDEST DUP3 MSTORE POP POP JUMP JUMPDEST PUSH0 DUP2 MLOAD SWAP1 POP SWAP2 SWAP1 POP JUMP JUMPDEST PUSH0 DUP3 DUP3 MSTORE PUSH1 0x20 DUP3 ADD SWAP1 POP SWAP3 SWAP2 POP POP JUMP JUMPDEST PUSH0 JUMPDEST DUP4 DUP2 LT ISZERO PUSH2 0xE66 JUMPI DUP1 DUP3 ADD MLOAD DUP2 DUP5 ADD MSTORE PUSH1 0x20 DUP2 ADD SWAP1 POP PUSH2 0xE4B JUMP JUMPDEST PUSH0 DUP5 DUP5 ADD MSTORE POP POP POP POP JUMP JUMPDEST PUSH0 PUSH2 0xE7B DUP3 PUSH2 0xE2F JUMP JUMPDEST PUSH2 0xE85 DUP2 DUP6 PUSH2 0xE39 JUMP JUMPDEST SWAP4 POP PUSH2 0xE95 DUP2 DUP6 PUSH1 0x20 DUP7 ADD PUSH2 0xE49 JUMP JUMPDEST PUSH2 0xE9E DUP2 PUSH2 0xACE JUMP JUMPDEST DUP5 ADD SWAP2 POP POP SWAP3 SWAP2 POP POP JUMP JUMPDEST PUSH0 DUP2 MLOAD SWAP1 POP SWAP2 SWAP1 POP JUMP JUMPDEST PUSH0 DUP3 DUP3 MSTORE PUSH1 0x20 DUP3 ADD SWAP1 POP SWAP3 SWAP2 POP POP JUMP JUMPDEST PUSH0 DUP2 SWAP1 POP PUSH1 0x20 DUP3 ADD SWAP1 POP SWAP2 SWAP1 POP JUMP JUMPDEST PUSH0 PUSH2 0xEDD DUP4 DUP4 PUSH2 0xE20 JUMP JUMPDEST PUSH1 0x20 DUP4 ADD SWAP1 POP SWAP3 SWAP2 POP POP JUMP JUMPDEST PUSH0 PUSH1 0x20 DUP3 ADD SWAP1 POP SWAP2 SWAP1 POP JUMP JUMPDEST PUSH0 PUSH2 0xEFF DUP3 PUSH2 0xEA9 JUMP JUMPDEST PUSH2 0xF09 DUP2 DUP6 PUSH2 0xEB3 JUMP JUMPDEST SWAP4 POP PUSH2 0xF14 DUP4 PUSH2 0xEC3 JUMP JUMPDEST DUP1 PUSH0 JUMPDEST DUP4 DUP2 LT ISZERO PUSH2 0xF44 JUMPI DUP2 MLOAD PUSH2 0xF2B DUP9 DUP3 PUSH2 0xED2 JUMP JUMPDEST SWAP8 POP PUSH2 0xF36 DUP4 PUSH2 0xEE9 JUMP JUMPDEST SWAP3 POP POP PUSH1 0x1 DUP2 ADD SWAP1 POP PUSH2 0xF17 JUMP JUMPDEST POP DUP6 SWAP4 POP POP POP POP SWAP3 SWAP2 POP POP JUMP JUMPDEST PUSH0 PUSH1 0x80 DUP4 ADD PUSH0 DUP4 ADD MLOAD PUSH2 0xF66 PUSH0 DUP7 ADD DUP3 PUSH2 0xE20 JUMP JUMPDEST POP PUSH1 0x20 DUP4 ADD MLOAD DUP5 DUP3 SUB PUSH1 0x20 DUP7 ADD MSTORE PUSH2 0xF7E DUP3 DUP3 PUSH2 0xE71 JUMP JUMPDEST SWAP2 POP POP PUSH1 0x40 DUP4 ADD MLOAD DUP5 DUP3 SUB PUSH1 0x40 DUP7 ADD MSTORE PUSH2 0xF98 DUP3 DUP3 PUSH2 0xE71 JUMP JUMPDEST SWAP2 POP POP PUSH1 0x60 DUP4 ADD MLOAD DUP5 DUP3 SUB PUSH1 0x60 DUP7 ADD MSTORE PUSH2 0xFB2 DUP3 DUP3 PUSH2 0xEF5 JUMP JUMPDEST SWAP2 POP POP DUP1 SWAP2 POP POP SWAP3 SWAP2 POP POP JUMP JUMPDEST PUSH0 PUSH1 0x20 DUP3 ADD SWAP1 POP DUP2 DUP2 SUB PUSH0 DUP4 ADD MSTORE PUSH2 0xFD7 DUP2 DUP5 PUSH2 0xF51 JUMP JUMPDEST SWAP1 POP SWAP3 SWAP2 POP POP JUMP JUMPDEST PUSH0 DUP2 MLOAD SWAP1 POP SWAP2 SWAP1 POP JUMP JUMPDEST PUSH0 DUP3 DUP3 MSTORE PUSH1 0x20 DUP3 ADD SWAP1 POP SWAP3 SWAP2 POP POP JUMP JUMPDEST PUSH0 DUP2 SWAP1 POP PUSH1 0x20 DUP3 ADD SWAP1 POP SWAP2 SWAP1 POP JUMP JUMPDEST PUSH0 PUSH1 0x80 DUP4 ADD PUSH0 DUP4 ADD MLOAD PUSH2 0x101D PUSH0 DUP7 ADD DUP3 PUSH2 0xE20 JUMP JUMPDEST POP PUSH1 0x20 DUP4 ADD MLOAD DUP5 DUP3 SUB PUSH1 0x20 DUP7 ADD MSTORE PUSH2 0x1035 DUP3 DUP3 PUSH2 0xE71 JUMP JUMPDEST SWAP2 POP POP PUSH1 0x40 DUP4 ADD MLOAD DUP5 DUP3 SUB PUSH1 0x40 DUP7 ADD MSTORE PUSH2 0x104F DUP3 DUP3 PUSH2 0xE71 JUMP JUMPDEST SWAP2 POP POP PUSH1 0x60 DUP4 ADD MLOAD DUP5 DUP3 SUB PUSH1 0x60 DUP7 ADD MSTORE PUSH2 0x1069 DUP3 DUP3 PUSH2 0xEF5 JUMP JUMPDEST SWAP2 POP POP DUP1 SWAP2 POP POP SWAP3 SWAP2 POP POP JUMP JUMPDEST PUSH0 PUSH2 0x1081 DUP4 DUP4 PUSH2 0x1008 JUMP JUMPDEST SWAP1 POP SWAP3 SWAP2 POP POP JUMP JUMPDEST PUSH0 PUSH1 0x20 DUP3 ADD SWAP1 POP SWAP2 SWAP1 POP JUMP JUMPDEST PUSH0 PUSH2 0x109F DUP3 PUSH2 0xFDF JUMP JUMPDEST PUSH2 0x10A9 DUP2 DUP6 PUSH2 0xFE9 JUMP JUMPDEST SWAP4 POP DUP4 PUSH1 0x20 DUP3 MUL DUP6 ADD PUSH2 0x10BB DUP6 PUSH2 0xFF9 JUMP JUMPDEST DUP1 PUSH0 JUMPDEST DUP6 DUP2 LT ISZERO PUSH2 0x10F6 JUMPI DUP5 DUP5 SUB DUP10 MSTORE DUP2 MLOAD PUSH2 0x10D7 DUP6 DUP3 PUSH2 0x1076 JUMP JUMPDEST SWAP5 POP PUSH2 0x10E2 DUP4 PUSH2 0x1089 JUMP JUMPDEST SWAP3 POP PUSH1 0x20 DUP11 ADD SWAP10 POP POP PUSH1 0x1 DUP2 ADD SWAP1 POP PUSH2 0x10BE JUMP JUMPDEST POP DUP3 SWAP8 POP DUP8 SWAP6 POP POP POP POP POP POP SWAP3 SWAP2 POP POP JUMP JUMPDEST PUSH0 PUSH1 0x20 DUP3 ADD SWAP1 POP DUP2 DUP2 SUB PUSH0 DUP4 ADD MSTORE PUSH2 0x1120 DUP2 DUP5 PUSH2 0x1095 JUMP JUMPDEST SWAP1 POP SWAP3 SWAP2 POP POP JUMP JUMPDEST PUSH2 0x1131 DUP2 PUSH2 0xDBC JUMP JUMPDEST DUP2 EQ PUSH2 0x113B JUMPI PUSH0 DUP1 REVERT JUMPDEST POP JUMP JUMPDEST PUSH0 DUP2 CALLDATALOAD SWAP1 POP PUSH2 0x114C DUP2 PUSH2 0x1128 JUMP JUMPDEST SWAP3 SWAP2 POP POP JUMP JUMPDEST PUSH0 PUSH1 0x20 DUP3 DUP5 SUB SLT ISZERO PUSH2 0x1167 JUMPI PUSH2 0x1166 PUSH2 0xABE JUMP JUMPDEST JUMPDEST PUSH0 PUSH2 0x1174 DUP5 DUP3 DUP6 ADD PUSH2 0x113E JUMP JUMPDEST SWAP2 POP POP SWAP3 SWAP2 POP POP JUMP JUMPDEST PUSH32 0x4E487B7100000000000000000000000000000000000000000000000000000000 PUSH0 MSTORE PUSH1 0x22 PUSH1 0x4 MSTORE PUSH1 0x24 PUSH0 REVERT JUMPDEST PUSH0 PUSH1 0x2 DUP3 DIV SWAP1 POP PUSH1 0x1 DUP3 AND DUP1 PUSH2 0x11C1 JUMPI PUSH1 0x7F DUP3 AND SWAP2 POP JUMPDEST PUSH1 0x20 DUP3 LT DUP2 SUB PUSH2 0x11D4 JUMPI PUSH2 0x11D3 PUSH2 0x117D JUMP JUMPDEST JUMPDEST POP SWAP2 SWAP1 POP JUMP JUMPDEST PUSH0 DUP2 SWAP1 POP DUP2 PUSH0 MSTORE PUSH1 0x20 PUSH0 KECCAK256 SWAP1 POP SWAP2 SWAP1 POP JUMP JUMPDEST PUSH0 PUSH1 0x20 PUSH1 0x1F DUP4 ADD DIV SWAP1 POP SWAP2 SWAP1 POP JUMP JUMPDEST PUSH0 DUP3 DUP3 SHL SWAP1 POP SWAP3 SWAP2 POP POP JUMP JUMPDEST PUSH0 PUSH1 0x8 DUP4 MUL PUSH2 0x1236 PUSH32 0xFFFFFFFFFFFFFFFFFFFFFFFFFFFFFFFFFFFFFFFFFFFFFFFFFFFFFFFFFFFFFFFF DUP3 PUSH2 0x11FB JUMP JUMPDEST PUSH2 0x1240 DUP7 DUP4 PUSH2 0x11FB JUMP JUMPDEST SWAP6 POP DUP1 NOT DUP5 AND SWAP4 POP DUP1 DUP7 AND DUP5 OR SWAP3 POP POP POP SWAP4 SWAP3 POP POP POP JUMP JUMPDEST PUSH0 DUP2 SWAP1 POP SWAP2 SWAP1 POP JUMP JUMPDEST PUSH0 PUSH2 0x127B PUSH2 0x1276 PUSH2 0x1271 DUP5 PUSH2 0xC31 JUMP JUMPDEST PUSH2 0x1258 JUMP JUMPDEST PUSH2 0xC31 JUMP JUMPDEST SWAP1 POP SWAP2 SWAP1 POP JUMP JUMPDEST PUSH0 DUP2 SWAP1 POP SWAP2 SWAP1 POP JUMP JUMPDEST PUSH2 0x1294 DUP4 PUSH2 0x1261 JUMP JUMPDEST PUSH2 0x12A8 PUSH2 0x12A0 DUP3 PUSH2 0x1282 JUMP JUMPDEST DUP5 DUP5 SLOAD PUSH2 0x1207 JUMP JUMPDEST DUP3 SSTORE POP POP POP POP JUMP JUMPDEST PUSH0 SWAP1 JUMP JUMPDEST PUSH2 0x12BC PUSH2 0x12B0 JUMP JUMPDEST PUSH2 0x12C7 DUP2 DUP5 DUP5 PUSH2 0x128B JUMP JUMPDEST POP POP POP JUMP JUMPDEST JUMPDEST DUP2 DUP2 LT ISZERO PUSH2 0x12EA JUMPI PUSH2 0x12DF PUSH0 DUP3 PUSH2 0x12B4 JUMP JUMPDEST PUSH1 0x1 DUP2 ADD SWAP1 POP PUSH2 0x12CD JUMP JUMPDEST POP POP JUMP JUMPDEST PUSH1 0x1F DUP3 GT ISZERO PUSH2 0x132F JUMPI PUSH2 0x1300 DUP2 PUSH2 0x11DA JUMP JUMPDEST PUSH2 0x1309 DUP5 PUSH2 0x11EC JUMP JUMPDEST DUP2 ADD PUSH1 0x20 DUP6 LT ISZERO PUSH2 0x1318 JUMPI DUP2 SWAP1 POP JUMPDEST PUSH2 0x132C PUSH2 0x1324 DUP6 PUSH2 0x11EC JUMP JUMPDEST DUP4 ADD DUP3 PUSH2 0x12CC JUMP JUMPDEST POP POP JUMPDEST POP POP POP JUMP JUMPDEST PUSH0 DUP3 DUP3 SHR SWAP1 POP SWAP3 SWAP2 POP POP JUMP JUMPDEST PUSH0 PUSH2 0x134F PUSH0 NOT DUP5 PUSH1 0x8 MUL PUSH2 0x1334 JUMP JUMPDEST NOT DUP1 DUP4 AND SWAP2 POP POP SWAP3 SWAP2 POP POP JUMP JUMPDEST PUSH0 PUSH2 0x1367 DUP4 DUP4 PUSH2 0x1340 JUMP JUMPDEST SWAP2 POP DUP3 PUSH1 0x2 MUL DUP3 OR SWAP1 POP SWAP3 SWAP2 POP POP JUMP JUMPDEST PUSH2 0x1380 DUP3 PUSH2 0xE2F JUMP JUMPDEST PUSH8 0xFFFFFFFFFFFFFFFF DUP2 GT ISZERO PUSH2 0x1399 JUMPI PUSH2 0x1398 PUSH2 0xADE JUMP JUMPDEST JUMPDEST PUSH2 0x13A3 DUP3 SLOAD PUSH2 0x11AA JUMP JUMPDEST PUSH2 0x13AE DUP3 DUP3 DUP6 PUSH2 0x12EE JUMP JUMPDEST PUSH0 PUSH1 0x20 SWAP1 POP PUSH1 0x1F DUP4 GT PUSH1 0x1 DUP2 EQ PUSH2 0x13DF JUMPI PUSH0 DUP5 ISZERO PUSH2 0x13CD JUMPI DUP3 DUP8 ADD MLOAD SWAP1 POP JUMPDEST PUSH2 0x13D7 DUP6 DUP3 PUSH2 0x135C JUMP JUMPDEST DUP7 SSTORE POP PUSH2 0x143E JUMP JUMPDEST PUSH1 0x1F NOT DUP5 AND PUSH2 0x13ED DUP7 PUSH2 0x11DA JUMP JUMPDEST PUSH0 JUMPDEST DUP3 DUP2 LT ISZERO PUSH2 0x1414 JUMPI DUP5 DUP10 ADD MLOAD DUP3 SSTORE PUSH1 0x1 DUP3 ADD SWAP2 POP PUSH1 0x20 DUP6 ADD SWAP5 POP PUSH1 0x20 DUP2 ADD SWAP1 POP PUSH2 0x13EF JUMP JUMPDEST DUP7 DUP4 LT ISZERO PUSH2 0x1431 JUMPI DUP5 DUP10 ADD MLOAD PUSH2 0x142D PUSH1 0x1F DUP10 AND DUP3 PUSH2 0x1340 JUMP JUMPDEST DUP4 SSTORE POP JUMPDEST PUSH1 0x1 PUSH1 0x2 DUP9 MUL ADD DUP9 SSTORE POP POP POP JUMPDEST POP POP POP POP POP POP JUMP JUMPDEST PUSH32 0x4E487B7100000000000000000000000000000000000000000000000000000000 PUSH0 MSTORE PUSH1 0x11 PUSH1 0x4 MSTORE PUSH1 0x24 PUSH0 REVERT JUMPDEST PUSH0 PUSH2 0x147D DUP3 PUSH2 0xC31 JUMP JUMPDEST SWAP2 POP PUSH32 0xFFFFFFFFFFFFFFFFFFFFFFFFFFFFFFFFFFFFFFFFFFFFFFFFFFFFFFFFFFFFFFFF DUP3 SUB PUSH2 0x14AF JUMPI PUSH2 0x14AE PUSH2 0x1446 JUMP JUMPDEST JUMPDEST PUSH1 0x1 DUP3 ADD SWAP1 POP SWAP2 SWAP1 POP JUMP JUMPDEST PUSH32 0x4E487B7100000000000000000000000000000000000000000000000000000000 PUSH0 MSTORE PUSH1 0x32 PUSH1 0x4 MSTORE PUSH1 0x24 PUSH0 REVERT JUMPDEST PUSH0 DUP3 DUP3 MSTORE PUSH1 0x20 DUP3 ADD SWAP1 POP SWAP3 SWAP2 POP POP JUMP JUMPDEST PUSH32 0x436F6E74616374206E6F7420666F756E64000000000000000000000000000000 PUSH0 DUP3 ADD MSTORE POP JUMP JUMPDEST PUSH0 PUSH2 0x152B PUSH1 0x11 DUP4 PUSH2 0x14E7 JUMP JUMPDEST SWAP2 POP PUSH2 0x1536 DUP3 PUSH2 0x14F7 JUMP JUMPDEST PUSH1 0x20 DUP3 ADD SWAP1 POP SWAP2 SWAP1 POP JUMP JUMPDEST PUSH0 PUSH1 0x20 DUP3 ADD SWAP1 POP DUP2 DUP2 SUB PUSH0 DUP4 ADD MSTORE PUSH2 0x1558 DUP2 PUSH2 0x151F JUMP JUMPDEST SWAP1 POP SWAP2 SWAP1 POP JUMP JUMPDEST PUSH0 PUSH2 0x1569 DUP3 PUSH2 0xC31 JUMP JUMPDEST SWAP2 POP PUSH2 0x1574 DUP4 PUSH2 0xC31 JUMP JUMPDEST SWAP3 POP DUP3 DUP3 SUB SWAP1 POP DUP2 DUP2 GT ISZERO PUSH2 0x158C JUMPI PUSH2 0x158B PUSH2 0x1446 JUMP JUMPDEST JUMPDEST SWAP3 SWAP2 POP POP JUMP JUMPDEST PUSH32 0x4E487B7100000000000000000000000000000000000000000000000000000000 PUSH0 MSTORE PUSH1 0x31 PUSH1 0x4 MSTORE PUSH1 0x24 PUSH0 REVERT INVALID LOG2 PUSH5 0x6970667358 0x22 SLT KECCAK256 PUSH30 0xA6BA0E031E3ACF945D9B30D3A9C08FA53263B0123E3791FCE2B9C7FDD1BC DUP1 PUSH5 0x736F6C6343 STOP ADDMOD OR STOP CALLER LOG2 PUSH5 0x6970667358 0x22 SLT KECCAK256 DUP9 PUSH31 0x402BF8C922BDB52DAEB58811E04592F2E47A36BF06960AA6305627C6607164 PUSH20 0x6F6C634300081700330000000000000000000000 "
				},
				"gasEstimates": {
					"creation": {
						"codeDepositCost": "1271600",
						"executionCost": "1320",
						"totalCost": "1272920"
					},
					"external": {
						"deploy()": "infinite"
					}
				},
				"methodIdentifiers": {
					"deploy()": "775c300c"
				}
			},
			"storageLayout": {
				"storage": [],
				"types": null
			},
			"userdoc": {
				"kind": "user",
				"methods": {},
				"version": 1
			}
		}
	}
}