{
	"Mapping.sol": {
		"Submission": {
			"abi": [
				{
					"inputs": [
						{
							"internalType": "string",
							"name": "_albumName",
							"type": "string"
						}
					],
					"name": "addRecord",
					"outputs": [],
					"stateMutability": "nonpayable",
					"type": "function"
				},
				{
					"inputs": [],
					"name": "getApprovedRecords",
					"outputs": [
						{
							"internalType": "string[]",
							"name": "",
							"type": "string[]"
						}
					],
					"stateMutability": "pure",
					"type": "function"
				},
				{
					"inputs": [
						{
							"internalType": "address",
							"name": "_address",
							"type": "address"
						}
					],
					"name": "getUserFavorites",
					"outputs": [
						{
							"internalType": "string[]",
							"name": "",
							"type": "string[]"
						}
					],
					"stateMutability": "view",
					"type": "function"
				},
				{
					"inputs": [],
					"name": "resetUserFavorites",
					"outputs": [],
					"stateMutability": "nonpayable",
					"type": "function"
				},
				{
					"inputs": [
						{
							"internalType": "address",
							"name": "",
							"type": "address"
						},
						{
							"internalType": "uint256",
							"name": "",
							"type": "uint256"
						}
					],
					"name": "userFavorites",
					"outputs": [
						{
							"internalType": "string",
							"name": "",
							"type": "string"
						}
					],
					"stateMutability": "view",
					"type": "function"
				}
			],
			"devdoc": {
				"kind": "dev",
				"methods": {},
				"version": 1
			},
			"evm": {
				"assembly": "    /* \"Mapping.sol\":376:1444  contract Submission is ISubmission {... */\n  mstore(0x40, 0x80)\n  callvalue\n  dup1\n  iszero\n  tag_1\n  jumpi\n  0x00\n  dup1\n  revert\ntag_1:\n  pop\n  dataSize(sub_0)\n  dup1\n  dataOffset(sub_0)\n  0x00\n  codecopy\n  0x00\n  return\nstop\n\nsub_0: assembly {\n        /* \"Mapping.sol\":376:1444  contract Submission is ISubmission {... */\n      mstore(0x40, 0x80)\n      callvalue\n      dup1\n      iszero\n      tag_1\n      jumpi\n      0x00\n      dup1\n      revert\n    tag_1:\n      pop\n      jumpi(tag_2, lt(calldatasize, 0x04))\n      shr(0xe0, calldataload(0x00))\n      dup1\n      0x1cf0830b\n      eq\n      tag_3\n      jumpi\n      dup1\n      0x837f8878\n      eq\n      tag_4\n      jumpi\n      dup1\n      0xaa070fb5\n      eq\n      tag_5\n      jumpi\n      dup1\n      0xc7853148\n      eq\n      tag_6\n      jumpi\n      dup1\n      0xd81aa8c4\n      eq\n      tag_7\n      jumpi\n    tag_2:\n      0x00\n      dup1\n      revert\n        /* \"Mapping.sol\":473:1051  function getApprovedRecords()... */\n    tag_3:\n      tag_8\n      tag_9\n      jump\t// in\n    tag_8:\n      mload(0x40)\n      tag_10\n      swap2\n      swap1\n      tag_11\n      jump\t// in\n    tag_10:\n      mload(0x40)\n      dup1\n      swap2\n      sub\n      swap1\n      return\n        /* \"Mapping.sol\":1345:1442  function resetUserFavorites() external override {... */\n    tag_4:\n      tag_12\n      tag_13\n      jump\t// in\n    tag_12:\n      stop\n        /* \"Mapping.sol\":417:466  mapping(address => string[]) public userFavorites */\n    tag_5:\n      tag_14\n      0x04\n      dup1\n      calldatasize\n      sub\n      dup2\n      add\n      swap1\n      tag_15\n      swap2\n      swap1\n      tag_16\n      jump\t// in\n    tag_15:\n      tag_17\n      jump\t// in\n    tag_14:\n      mload(0x40)\n      tag_18\n      swap2\n      swap1\n      tag_19\n      jump\t// in\n    tag_18:\n      mload(0x40)\n      dup1\n      swap2\n      sub\n      swap1\n      return\n        /* \"Mapping.sol\":1185:1339  function getUserFavorites(... */\n    tag_6:\n      tag_20\n      0x04\n      dup1\n      calldatasize\n      sub\n      dup2\n      add\n      swap1\n      tag_21\n      swap2\n      swap1\n      tag_22\n      jump\t// in\n    tag_21:\n      tag_23\n      jump\t// in\n    tag_20:\n      mload(0x40)\n      tag_24\n      swap2\n      swap1\n      tag_11\n      jump\t// in\n    tag_24:\n      mload(0x40)\n      dup1\n      swap2\n      sub\n      swap1\n      return\n        /* \"Mapping.sol\":1057:1179  function addRecord(string memory _albumName) external override {... */\n    tag_7:\n      tag_25\n      0x04\n      dup1\n      calldatasize\n      sub\n      dup2\n      add\n      swap1\n      tag_26\n      swap2\n      swap1\n      tag_27\n      jump\t// in\n    tag_26:\n      tag_28\n      jump\t// in\n    tag_25:\n      stop\n        /* \"Mapping.sol\":473:1051  function getApprovedRecords()... */\n    tag_9:\n        /* \"Mapping.sol\":567:582  string[] memory */\n      0x60\n        /* \"Mapping.sol\":598:622  string[] memory approved */\n      0x00\n        /* \"Mapping.sol\":638:639  9 */\n      0x09\n        /* \"Mapping.sol\":625:640  new string[](9) */\n      0xffffffffffffffff\n      dup2\n      gt\n      iszero\n      tag_30\n      jumpi\n      tag_31\n      tag_32\n      jump\t// in\n    tag_31:\n    tag_30:\n      mload(0x40)\n      swap1\n      dup1\n      dup3\n      mstore\n      dup1\n      0x20\n      mul\n      0x20\n      add\n      dup3\n      add\n      0x40\n      mstore\n      dup1\n      iszero\n      tag_33\n      jumpi\n      dup2\n      0x20\n      add\n    tag_34:\n      0x60\n      dup2\n      mstore\n      0x20\n      add\n      swap1\n      0x01\n      swap1\n      sub\n      swap1\n      dup2\n      tag_34\n      jumpi\n      swap1\n      pop\n    tag_33:\n      pop\n        /* \"Mapping.sol\":598:640  string[] memory approved = new string[](9) */\n      swap1\n      pop\n        /* \"Mapping.sol\":650:674  approved[0] = \"Thriller\" */\n      mload(0x40)\n      dup1\n      0x40\n      add\n      0x40\n      mstore\n      dup1\n      0x08\n      dup2\n      mstore\n      0x20\n      add\n      0x546872696c6c6572000000000000000000000000000000000000000000000000\n      dup2\n      mstore\n      pop\n        /* \"Mapping.sol\":650:658  approved */\n      dup2\n        /* \"Mapping.sol\":659:660  0 */\n      0x00\n        /* \"Mapping.sol\":650:661  approved[0] */\n      dup2\n      mload\n      dup2\n      lt\n      tag_35\n      jumpi\n      tag_36\n      tag_37\n      jump\t// in\n    tag_36:\n    tag_35:\n      0x20\n      mul\n      0x20\n      add\n      add\n        /* \"Mapping.sol\":650:674  approved[0] = \"Thriller\" */\n      dup2\n      swap1\n      mstore\n      pop\n        /* \"Mapping.sol\":684:713  approved[1] = \"Back in Black\" */\n      mload(0x40)\n      dup1\n      0x40\n      add\n      0x40\n      mstore\n      dup1\n      0x0d\n      dup2\n      mstore\n      0x20\n      add\n      0x4261636b20696e20426c61636b00000000000000000000000000000000000000\n      dup2\n      mstore\n      pop\n        /* \"Mapping.sol\":684:692  approved */\n      dup2\n        /* \"Mapping.sol\":693:694  1 */\n      0x01\n        /* \"Mapping.sol\":684:695  approved[1] */\n      dup2\n      mload\n      dup2\n      lt\n      tag_38\n      jumpi\n      tag_39\n      tag_37\n      jump\t// in\n    tag_39:\n    tag_38:\n      0x20\n      mul\n      0x20\n      add\n      add\n        /* \"Mapping.sol\":684:713  approved[1] = \"Back in Black\" */\n      dup2\n      swap1\n      mstore\n      pop\n        /* \"Mapping.sol\":723:752  approved[2] = \"The Bodyguard\" */\n      mload(0x40)\n      dup1\n      0x40\n      add\n      0x40\n      mstore\n      dup1\n      0x0d\n      dup2\n      mstore\n      0x20\n      add\n      0x54686520426f6479677561726400000000000000000000000000000000000000\n      dup2\n      mstore\n      pop\n        /* \"Mapping.sol\":723:731  approved */\n      dup2\n        /* \"Mapping.sol\":732:733  2 */\n      0x02\n        /* \"Mapping.sol\":723:734  approved[2] */\n      dup2\n      mload\n      dup2\n      lt\n      tag_40\n      jumpi\n      tag_41\n      tag_37\n      jump\t// in\n    tag_41:\n    tag_40:\n      0x20\n      mul\n      0x20\n      add\n      add\n        /* \"Mapping.sol\":723:752  approved[2] = \"The Bodyguard\" */\n      dup2\n      swap1\n      mstore\n      pop\n        /* \"Mapping.sol\":762:803  approved[3] = \"The Dark Side of the Moon\" */\n      mload(0x40)\n      dup1\n      0x40\n      add\n      0x40\n      mstore\n      dup1\n      0x19\n      dup2\n      mstore\n      0x20\n      add\n      0x546865204461726b2053696465206f6620746865204d6f6f6e00000000000000\n      dup2\n      mstore\n      pop\n        /* \"Mapping.sol\":762:770  approved */\n      dup2\n        /* \"Mapping.sol\":771:772  3 */\n      0x03\n        /* \"Mapping.sol\":762:773  approved[3] */\n      dup2\n      mload\n      dup2\n      lt\n      tag_42\n      jumpi\n      tag_43\n      tag_37\n      jump\t// in\n    tag_43:\n    tag_42:\n      0x20\n      mul\n      0x20\n      add\n      add\n        /* \"Mapping.sol\":762:803  approved[3] = \"The Dark Side of the Moon\" */\n      dup2\n      swap1\n      mstore\n      pop\n        /* \"Mapping.sol\":813:860  approved[4] = \"Their Greatest Hits (1971-1975)\" */\n      mload(0x40)\n      dup1\n      0x40\n      add\n      0x40\n      mstore\n      dup1\n      0x1f\n      dup2\n      mstore\n      0x20\n      add\n      0x546865697220477265617465737420486974732028313937312d313937352900\n      dup2\n      mstore\n      pop\n        /* \"Mapping.sol\":813:821  approved */\n      dup2\n        /* \"Mapping.sol\":822:823  4 */\n      0x04\n        /* \"Mapping.sol\":813:824  approved[4] */\n      dup2\n      mload\n      dup2\n      lt\n      tag_44\n      jumpi\n      tag_45\n      tag_37\n      jump\t// in\n    tag_45:\n    tag_44:\n      0x20\n      mul\n      0x20\n      add\n      add\n        /* \"Mapping.sol\":813:860  approved[4] = \"Their Greatest Hits (1971-1975)\" */\n      dup2\n      swap1\n      mstore\n      pop\n        /* \"Mapping.sol\":870:902  approved[5] = \"Hotel California\" */\n      mload(0x40)\n      dup1\n      0x40\n      add\n      0x40\n      mstore\n      dup1\n      0x10\n      dup2\n      mstore\n      0x20\n      add\n      0x486f74656c2043616c69666f726e696100000000000000000000000000000000\n      dup2\n      mstore\n      pop\n        /* \"Mapping.sol\":870:878  approved */\n      dup2\n        /* \"Mapping.sol\":879:880  5 */\n      0x05\n        /* \"Mapping.sol\":870:881  approved[5] */\n      dup2\n      mload\n      dup2\n      lt\n      tag_46\n      jumpi\n      tag_47\n      tag_37\n      jump\t// in\n    tag_47:\n    tag_46:\n      0x20\n      mul\n      0x20\n      add\n      add\n        /* \"Mapping.sol\":870:902  approved[5] = \"Hotel California\" */\n      dup2\n      swap1\n      mstore\n      pop\n        /* \"Mapping.sol\":912:940  approved[6] = \"Come On Over\" */\n      mload(0x40)\n      dup1\n      0x40\n      add\n      0x40\n      mstore\n      dup1\n      0x0c\n      dup2\n      mstore\n      0x20\n      add\n      0x436f6d65204f6e204f7665720000000000000000000000000000000000000000\n      dup2\n      mstore\n      pop\n        /* \"Mapping.sol\":912:920  approved */\n      dup2\n        /* \"Mapping.sol\":921:922  6 */\n      0x06\n        /* \"Mapping.sol\":912:923  approved[6] */\n      dup2\n      mload\n      dup2\n      lt\n      tag_48\n      jumpi\n      tag_49\n      tag_37\n      jump\t// in\n    tag_49:\n    tag_48:\n      0x20\n      mul\n      0x20\n      add\n      add\n        /* \"Mapping.sol\":912:940  approved[6] = \"Come On Over\" */\n      dup2\n      swap1\n      mstore\n      pop\n        /* \"Mapping.sol\":950:973  approved[7] = \"Rumours\" */\n      mload(0x40)\n      dup1\n      0x40\n      add\n      0x40\n      mstore\n      dup1\n      0x07\n      dup2\n      mstore\n      0x20\n      add\n      0x52756d6f75727300000000000000000000000000000000000000000000000000\n      dup2\n      mstore\n      pop\n        /* \"Mapping.sol\":950:958  approved */\n      dup2\n        /* \"Mapping.sol\":959:960  7 */\n      0x07\n        /* \"Mapping.sol\":950:961  approved[7] */\n      dup2\n      mload\n      dup2\n      lt\n      tag_50\n      jumpi\n      tag_51\n      tag_37\n      jump\t// in\n    tag_51:\n    tag_50:\n      0x20\n      mul\n      0x20\n      add\n      add\n        /* \"Mapping.sol\":950:973  approved[7] = \"Rumours\" */\n      dup2\n      swap1\n      mstore\n      pop\n        /* \"Mapping.sol\":983:1019  approved[8] = \"Saturday Night Fever\" */\n      mload(0x40)\n      dup1\n      0x40\n      add\n      0x40\n      mstore\n      dup1\n      0x14\n      dup2\n      mstore\n      0x20\n      add\n      0x5361747572646179204e69676874204665766572000000000000000000000000\n      dup2\n      mstore\n      pop\n        /* \"Mapping.sol\":983:991  approved */\n      dup2\n        /* \"Mapping.sol\":992:993  8 */\n      0x08\n        /* \"Mapping.sol\":983:994  approved[8] */\n      dup2\n      mload\n      dup2\n      lt\n      tag_52\n      jumpi\n      tag_53\n      tag_37\n      jump\t// in\n    tag_53:\n    tag_52:\n      0x20\n      mul\n      0x20\n      add\n      add\n        /* \"Mapping.sol\":983:1019  approved[8] = \"Saturday Night Fever\" */\n      dup2\n      swap1\n      mstore\n      pop\n        /* \"Mapping.sol\":1036:1044  approved */\n      dup1\n        /* \"Mapping.sol\":1029:1044  return approved */\n      swap2\n      pop\n      pop\n        /* \"Mapping.sol\":473:1051  function getApprovedRecords()... */\n      swap1\n      jump\t// out\n        /* \"Mapping.sol\":1345:1442  function resetUserFavorites() external override {... */\n    tag_13:\n        /* \"Mapping.sol\":1410:1423  userFavorites */\n      0x00\n        /* \"Mapping.sol\":1410:1435  userFavorites[msg.sender] */\n      dup1\n        /* \"Mapping.sol\":1424:1434  msg.sender */\n      caller\n        /* \"Mapping.sol\":1410:1435  userFavorites[msg.sender] */\n      0xffffffffffffffffffffffffffffffffffffffff\n      and\n      0xffffffffffffffffffffffffffffffffffffffff\n      and\n      dup2\n      mstore\n      0x20\n      add\n      swap1\n      dup2\n      mstore\n      0x20\n      add\n      0x00\n      keccak256\n      0x00\n        /* \"Mapping.sol\":1403:1435  delete userFavorites[msg.sender] */\n      tag_55\n      swap2\n      swap1\n      tag_56\n      jump\t// in\n    tag_55:\n        /* \"Mapping.sol\":1345:1442  function resetUserFavorites() external override {... */\n      jump\t// out\n        /* \"Mapping.sol\":417:466  mapping(address => string[]) public userFavorites */\n    tag_17:\n      mstore(0x20, 0x00)\n      dup2\n      0x00\n      mstore\n      keccak256(0x00, 0x40)\n      dup2\n      dup2\n      sload\n      dup2\n      lt\n      tag_57\n      jumpi\n      0x00\n      dup1\n      revert\n    tag_57:\n      swap1\n      0x00\n      mstore\n      keccak256(0x00, 0x20)\n      add\n      0x00\n      swap2\n      pop\n      swap2\n      pop\n      pop\n      dup1\n      sload\n      tag_59\n      swap1\n      tag_60\n      jump\t// in\n    tag_59:\n      dup1\n      0x1f\n      add\n      0x20\n      dup1\n      swap2\n      div\n      mul\n      0x20\n      add\n      mload(0x40)\n      swap1\n      dup2\n      add\n      0x40\n      mstore\n      dup1\n      swap3\n      swap2\n      swap1\n      dup2\n      dup2\n      mstore\n      0x20\n      add\n      dup3\n      dup1\n      sload\n      tag_61\n      swap1\n      tag_60\n      jump\t// in\n    tag_61:\n      dup1\n      iszero\n      tag_62\n      jumpi\n      dup1\n      0x1f\n      lt\n      tag_63\n      jumpi\n      0x0100\n      dup1\n      dup4\n      sload\n      div\n      mul\n      dup4\n      mstore\n      swap2\n      0x20\n      add\n      swap2\n      jump(tag_62)\n    tag_63:\n      dup3\n      add\n      swap2\n      swap1\n      0x00\n      mstore\n      keccak256(0x00, 0x20)\n      swap1\n    tag_64:\n      dup2\n      sload\n      dup2\n      mstore\n      swap1\n      0x01\n      add\n      swap1\n      0x20\n      add\n      dup1\n      dup4\n      gt\n      tag_64\n      jumpi\n      dup3\n      swap1\n      sub\n      0x1f\n      and\n      dup3\n      add\n      swap2\n    tag_62:\n      pop\n      pop\n      pop\n      pop\n      pop\n      dup2\n      jump\t// out\n        /* \"Mapping.sol\":1185:1339  function getUserFavorites(... */\n    tag_23:\n        /* \"Mapping.sol\":1275:1290  string[] memory */\n      0x60\n        /* \"Mapping.sol\":1309:1322  userFavorites */\n      0x00\n        /* \"Mapping.sol\":1309:1332  userFavorites[_address] */\n      dup1\n        /* \"Mapping.sol\":1323:1331  _address */\n      dup4\n        /* \"Mapping.sol\":1309:1332  userFavorites[_address] */\n      0xffffffffffffffffffffffffffffffffffffffff\n      and\n      0xffffffffffffffffffffffffffffffffffffffff\n      and\n      dup2\n      mstore\n      0x20\n      add\n      swap1\n      dup2\n      mstore\n      0x20\n      add\n      0x00\n      keccak256\n        /* \"Mapping.sol\":1302:1332  return userFavorites[_address] */\n      dup1\n      sload\n      dup1\n      0x20\n      mul\n      0x20\n      add\n      mload(0x40)\n      swap1\n      dup2\n      add\n      0x40\n      mstore\n      dup1\n      swap3\n      swap2\n      swap1\n      dup2\n      dup2\n      mstore\n      0x20\n      add\n      0x00\n      swap1\n    tag_66:\n      dup3\n      dup3\n      lt\n      iszero\n      tag_67\n      jumpi\n      dup4\n      dup3\n      swap1\n      0x00\n      mstore\n      keccak256(0x00, 0x20)\n      add\n      dup1\n      sload\n      tag_69\n      swap1\n      tag_60\n      jump\t// in\n    tag_69:\n      dup1\n      0x1f\n      add\n      0x20\n      dup1\n      swap2\n      div\n      mul\n      0x20\n      add\n      mload(0x40)\n      swap1\n      dup2\n      add\n      0x40\n      mstore\n      dup1\n      swap3\n      swap2\n      swap1\n      dup2\n      dup2\n      mstore\n      0x20\n      add\n      dup3\n      dup1\n      sload\n      tag_70\n      swap1\n      tag_60\n      jump\t// in\n    tag_70:\n      dup1\n      iszero\n      tag_71\n      jumpi\n      dup1\n      0x1f\n      lt\n      tag_72\n      jumpi\n      0x0100\n      dup1\n      dup4\n      sload\n      div\n      mul\n      dup4\n      mstore\n      swap2\n      0x20\n      add\n      swap2\n      jump(tag_71)\n    tag_72:\n      dup3\n      add\n      swap2\n      swap1\n      0x00\n      mstore\n      keccak256(0x00, 0x20)\n      swap1\n    tag_73:\n      dup2\n      sload\n      dup2\n      mstore\n      swap1\n      0x01\n      add\n      swap1\n      0x20\n      add\n      dup1\n      dup4\n      gt\n      tag_73\n      jumpi\n      dup3\n      swap1\n      sub\n      0x1f\n      and\n      dup3\n      add\n      swap2\n    tag_71:\n      pop\n      pop\n      pop\n      pop\n      pop\n      dup2\n      mstore\n      0x20\n      add\n      swap1\n      0x01\n      add\n      swap1\n      jump(tag_66)\n    tag_67:\n      pop\n      pop\n      pop\n      pop\n      swap1\n      pop\n        /* \"Mapping.sol\":1185:1339  function getUserFavorites(... */\n      swap2\n      swap1\n      pop\n      jump\t// out\n        /* \"Mapping.sol\":1057:1179  function addRecord(string memory _albumName) external override {... */\n    tag_28:\n        /* \"Mapping.sol\":1130:1143  userFavorites */\n      0x00\n        /* \"Mapping.sol\":1130:1155  userFavorites[msg.sender] */\n      dup1\n        /* \"Mapping.sol\":1144:1154  msg.sender */\n      caller\n        /* \"Mapping.sol\":1130:1155  userFavorites[msg.sender] */\n      0xffffffffffffffffffffffffffffffffffffffff\n      and\n      0xffffffffffffffffffffffffffffffffffffffff\n      and\n      dup2\n      mstore\n      0x20\n      add\n      swap1\n      dup2\n      mstore\n      0x20\n      add\n      0x00\n      keccak256\n        /* \"Mapping.sol\":1161:1171  _albumName */\n      dup2\n        /* \"Mapping.sol\":1130:1172  userFavorites[msg.sender].push(_albumName) */\n      swap1\n      dup1\n      0x01\n      dup2\n      sload\n      add\n      dup1\n      dup3\n      sstore\n      dup1\n      swap2\n      pop\n      pop\n      0x01\n      swap1\n      sub\n      swap1\n      0x00\n      mstore\n      keccak256(0x00, 0x20)\n      add\n      0x00\n      swap1\n      swap2\n      swap1\n      swap2\n      swap1\n      swap2\n      pop\n      swap1\n      dup2\n      tag_76\n      swap2\n      swap1\n      tag_77\n      jump\t// in\n    tag_76:\n      pop\n        /* \"Mapping.sol\":1057:1179  function addRecord(string memory _albumName) external override {... */\n      pop\n      jump\t// out\n    tag_56:\n      pop\n      dup1\n      sload\n      0x00\n      dup3\n      sstore\n      swap1\n      0x00\n      mstore\n      keccak256(0x00, 0x20)\n      swap1\n      dup2\n      add\n      swap1\n      tag_79\n      swap2\n      swap1\n      tag_80\n      jump\t// in\n    tag_79:\n      pop\n      jump\t// out\n    tag_80:\n    tag_81:\n      dup1\n      dup3\n      gt\n      iszero\n      tag_82\n      jumpi\n      0x00\n      dup2\n      dup2\n      tag_83\n      swap2\n      swap1\n      tag_84\n      jump\t// in\n    tag_83:\n      pop\n      0x01\n      add\n      jump(tag_81)\n    tag_82:\n      pop\n      swap1\n      jump\t// out\n    tag_84:\n      pop\n      dup1\n      sload\n      tag_85\n      swap1\n      tag_60\n      jump\t// in\n    tag_85:\n      0x00\n      dup3\n      sstore\n      dup1\n      0x1f\n      lt\n      tag_87\n      jumpi\n      pop\n      jump(tag_86)\n    tag_87:\n      0x1f\n      add\n      0x20\n      swap1\n      div\n      swap1\n      0x00\n      mstore\n      keccak256(0x00, 0x20)\n      swap1\n      dup2\n      add\n      swap1\n      tag_88\n      swap2\n      swap1\n      tag_89\n      jump\t// in\n    tag_88:\n    tag_86:\n      pop\n      jump\t// out\n    tag_89:\n    tag_90:\n      dup1\n      dup3\n      gt\n      iszero\n      tag_91\n      jumpi\n      0x00\n      dup2\n      0x00\n      swap1\n      sstore\n      pop\n      0x01\n      add\n      jump(tag_90)\n    tag_91:\n      pop\n      swap1\n      jump\t// out\n        /* \"#utility.yul\":7:131   */\n    tag_92:\n        /* \"#utility.yul\":84:90   */\n      0x00\n        /* \"#utility.yul\":118:123   */\n      dup2\n        /* \"#utility.yul\":112:124   */\n      mload\n        /* \"#utility.yul\":102:124   */\n      swap1\n      pop\n        /* \"#utility.yul\":7:131   */\n      swap2\n      swap1\n      pop\n      jump\t// out\n        /* \"#utility.yul\":137:331   */\n    tag_93:\n        /* \"#utility.yul\":246:257   */\n      0x00\n        /* \"#utility.yul\":280:286   */\n      dup3\n        /* \"#utility.yul\":275:278   */\n      dup3\n        /* \"#utility.yul\":268:287   */\n      mstore\n        /* \"#utility.yul\":320:324   */\n      0x20\n        /* \"#utility.yul\":315:318   */\n      dup3\n        /* \"#utility.yul\":311:325   */\n      add\n        /* \"#utility.yul\":296:325   */\n      swap1\n      pop\n        /* \"#utility.yul\":137:331   */\n      swap3\n      swap2\n      pop\n      pop\n      jump\t// out\n        /* \"#utility.yul\":337:479   */\n    tag_94:\n        /* \"#utility.yul\":414:418   */\n      0x00\n        /* \"#utility.yul\":437:440   */\n      dup2\n        /* \"#utility.yul\":429:440   */\n      swap1\n      pop\n        /* \"#utility.yul\":467:471   */\n      0x20\n        /* \"#utility.yul\":462:465   */\n      dup3\n        /* \"#utility.yul\":458:472   */\n      add\n        /* \"#utility.yul\":450:472   */\n      swap1\n      pop\n        /* \"#utility.yul\":337:479   */\n      swap2\n      swap1\n      pop\n      jump\t// out\n        /* \"#utility.yul\":485:584   */\n    tag_95:\n        /* \"#utility.yul\":537:543   */\n      0x00\n        /* \"#utility.yul\":571:576   */\n      dup2\n        /* \"#utility.yul\":565:577   */\n      mload\n        /* \"#utility.yul\":555:577   */\n      swap1\n      pop\n        /* \"#utility.yul\":485:584   */\n      swap2\n      swap1\n      pop\n      jump\t// out\n        /* \"#utility.yul\":590:749   */\n    tag_96:\n        /* \"#utility.yul\":664:675   */\n      0x00\n        /* \"#utility.yul\":698:704   */\n      dup3\n        /* \"#utility.yul\":693:696   */\n      dup3\n        /* \"#utility.yul\":686:705   */\n      mstore\n        /* \"#utility.yul\":738:742   */\n      0x20\n        /* \"#utility.yul\":733:736   */\n      dup3\n        /* \"#utility.yul\":729:743   */\n      add\n        /* \"#utility.yul\":714:743   */\n      swap1\n      pop\n        /* \"#utility.yul\":590:749   */\n      swap3\n      swap2\n      pop\n      pop\n      jump\t// out\n        /* \"#utility.yul\":755:1001   */\n    tag_97:\n        /* \"#utility.yul\":836:837   */\n      0x00\n        /* \"#utility.yul\":846:959   */\n    tag_146:\n        /* \"#utility.yul\":860:866   */\n      dup4\n        /* \"#utility.yul\":857:858   */\n      dup2\n        /* \"#utility.yul\":854:867   */\n      lt\n        /* \"#utility.yul\":846:959   */\n      iszero\n      tag_148\n      jumpi\n        /* \"#utility.yul\":945:946   */\n      dup1\n        /* \"#utility.yul\":940:943   */\n      dup3\n        /* \"#utility.yul\":936:947   */\n      add\n        /* \"#utility.yul\":930:948   */\n      mload\n        /* \"#utility.yul\":926:927   */\n      dup2\n        /* \"#utility.yul\":921:924   */\n      dup5\n        /* \"#utility.yul\":917:928   */\n      add\n        /* \"#utility.yul\":910:949   */\n      mstore\n        /* \"#utility.yul\":882:884   */\n      0x20\n        /* \"#utility.yul\":879:880   */\n      dup2\n        /* \"#utility.yul\":875:885   */\n      add\n        /* \"#utility.yul\":870:885   */\n      swap1\n      pop\n        /* \"#utility.yul\":846:959   */\n      jump(tag_146)\n    tag_148:\n        /* \"#utility.yul\":993:994   */\n      0x00\n        /* \"#utility.yul\":984:990   */\n      dup5\n        /* \"#utility.yul\":979:982   */\n      dup5\n        /* \"#utility.yul\":975:991   */\n      add\n        /* \"#utility.yul\":968:995   */\n      mstore\n        /* \"#utility.yul\":817:1001   */\n      pop\n        /* \"#utility.yul\":755:1001   */\n      pop\n      pop\n      pop\n      jump\t// out\n        /* \"#utility.yul\":1007:1109   */\n    tag_98:\n        /* \"#utility.yul\":1048:1054   */\n      0x00\n        /* \"#utility.yul\":1099:1101   */\n      0x1f\n        /* \"#utility.yul\":1095:1102   */\n      not\n        /* \"#utility.yul\":1090:1092   */\n      0x1f\n        /* \"#utility.yul\":1083:1088   */\n      dup4\n        /* \"#utility.yul\":1079:1093   */\n      add\n        /* \"#utility.yul\":1075:1103   */\n      and\n        /* \"#utility.yul\":1065:1103   */\n      swap1\n      pop\n        /* \"#utility.yul\":1007:1109   */\n      swap2\n      swap1\n      pop\n      jump\t// out\n        /* \"#utility.yul\":1115:1472   */\n    tag_99:\n        /* \"#utility.yul\":1193:1196   */\n      0x00\n        /* \"#utility.yul\":1221:1260   */\n      tag_151\n        /* \"#utility.yul\":1254:1259   */\n      dup3\n        /* \"#utility.yul\":1221:1260   */\n      tag_95\n      jump\t// in\n    tag_151:\n        /* \"#utility.yul\":1276:1337   */\n      tag_152\n        /* \"#utility.yul\":1330:1336   */\n      dup2\n        /* \"#utility.yul\":1325:1328   */\n      dup6\n        /* \"#utility.yul\":1276:1337   */\n      tag_96\n      jump\t// in\n    tag_152:\n        /* \"#utility.yul\":1269:1337   */\n      swap4\n      pop\n        /* \"#utility.yul\":1346:1411   */\n      tag_153\n        /* \"#utility.yul\":1404:1410   */\n      dup2\n        /* \"#utility.yul\":1399:1402   */\n      dup6\n        /* \"#utility.yul\":1392:1396   */\n      0x20\n        /* \"#utility.yul\":1385:1390   */\n      dup7\n        /* \"#utility.yul\":1381:1397   */\n      add\n        /* \"#utility.yul\":1346:1411   */\n      tag_97\n      jump\t// in\n    tag_153:\n        /* \"#utility.yul\":1436:1465   */\n      tag_154\n        /* \"#utility.yul\":1458:1464   */\n      dup2\n        /* \"#utility.yul\":1436:1465   */\n      tag_98\n      jump\t// in\n    tag_154:\n        /* \"#utility.yul\":1431:1434   */\n      dup5\n        /* \"#utility.yul\":1427:1466   */\n      add\n        /* \"#utility.yul\":1420:1466   */\n      swap2\n      pop\n        /* \"#utility.yul\":1197:1472   */\n      pop\n        /* \"#utility.yul\":1115:1472   */\n      swap3\n      swap2\n      pop\n      pop\n      jump\t// out\n        /* \"#utility.yul\":1478:1674   */\n    tag_100:\n        /* \"#utility.yul\":1567:1577   */\n      0x00\n        /* \"#utility.yul\":1602:1668   */\n      tag_156\n        /* \"#utility.yul\":1664:1667   */\n      dup4\n        /* \"#utility.yul\":1656:1662   */\n      dup4\n        /* \"#utility.yul\":1602:1668   */\n      tag_99\n      jump\t// in\n    tag_156:\n        /* \"#utility.yul\":1588:1668   */\n      swap1\n      pop\n        /* \"#utility.yul\":1478:1674   */\n      swap3\n      swap2\n      pop\n      pop\n      jump\t// out\n        /* \"#utility.yul\":1680:1803   */\n    tag_101:\n        /* \"#utility.yul\":1760:1764   */\n      0x00\n        /* \"#utility.yul\":1792:1796   */\n      0x20\n        /* \"#utility.yul\":1787:1790   */\n      dup3\n        /* \"#utility.yul\":1783:1797   */\n      add\n        /* \"#utility.yul\":1775:1797   */\n      swap1\n      pop\n        /* \"#utility.yul\":1680:1803   */\n      swap2\n      swap1\n      pop\n      jump\t// out\n        /* \"#utility.yul\":1837:2828   */\n    tag_102:\n        /* \"#utility.yul\":1976:1979   */\n      0x00\n        /* \"#utility.yul\":2005:2069   */\n      tag_159\n        /* \"#utility.yul\":2063:2068   */\n      dup3\n        /* \"#utility.yul\":2005:2069   */\n      tag_92\n      jump\t// in\n    tag_159:\n        /* \"#utility.yul\":2085:2181   */\n      tag_160\n        /* \"#utility.yul\":2174:2180   */\n      dup2\n        /* \"#utility.yul\":2169:2172   */\n      dup6\n        /* \"#utility.yul\":2085:2181   */\n      tag_93\n      jump\t// in\n    tag_160:\n        /* \"#utility.yul\":2078:2181   */\n      swap4\n      pop\n        /* \"#utility.yul\":2207:2210   */\n      dup4\n        /* \"#utility.yul\":2252:2256   */\n      0x20\n        /* \"#utility.yul\":2244:2250   */\n      dup3\n        /* \"#utility.yul\":2240:2257   */\n      mul\n        /* \"#utility.yul\":2235:2238   */\n      dup6\n        /* \"#utility.yul\":2231:2258   */\n      add\n        /* \"#utility.yul\":2282:2348   */\n      tag_161\n        /* \"#utility.yul\":2342:2347   */\n      dup6\n        /* \"#utility.yul\":2282:2348   */\n      tag_94\n      jump\t// in\n    tag_161:\n        /* \"#utility.yul\":2371:2378   */\n      dup1\n        /* \"#utility.yul\":2402:2403   */\n      0x00\n        /* \"#utility.yul\":2387:2783   */\n    tag_162:\n        /* \"#utility.yul\":2412:2418   */\n      dup6\n        /* \"#utility.yul\":2409:2410   */\n      dup2\n        /* \"#utility.yul\":2406:2419   */\n      lt\n        /* \"#utility.yul\":2387:2783   */\n      iszero\n      tag_164\n      jumpi\n        /* \"#utility.yul\":2483:2492   */\n      dup5\n        /* \"#utility.yul\":2477:2481   */\n      dup5\n        /* \"#utility.yul\":2473:2493   */\n      sub\n        /* \"#utility.yul\":2468:2471   */\n      dup10\n        /* \"#utility.yul\":2461:2494   */\n      mstore\n        /* \"#utility.yul\":2534:2540   */\n      dup2\n        /* \"#utility.yul\":2528:2541   */\n      mload\n        /* \"#utility.yul\":2562:2646   */\n      tag_165\n        /* \"#utility.yul\":2641:2645   */\n      dup6\n        /* \"#utility.yul\":2626:2639   */\n      dup3\n        /* \"#utility.yul\":2562:2646   */\n      tag_100\n      jump\t// in\n    tag_165:\n        /* \"#utility.yul\":2554:2646   */\n      swap5\n      pop\n        /* \"#utility.yul\":2669:2739   */\n      tag_166\n        /* \"#utility.yul\":2732:2738   */\n      dup4\n        /* \"#utility.yul\":2669:2739   */\n      tag_101\n      jump\t// in\n    tag_166:\n        /* \"#utility.yul\":2659:2739   */\n      swap3\n      pop\n        /* \"#utility.yul\":2768:2772   */\n      0x20\n        /* \"#utility.yul\":2763:2766   */\n      dup11\n        /* \"#utility.yul\":2759:2773   */\n      add\n        /* \"#utility.yul\":2752:2773   */\n      swap10\n      pop\n        /* \"#utility.yul\":2447:2783   */\n      pop\n        /* \"#utility.yul\":2434:2435   */\n      0x01\n        /* \"#utility.yul\":2431:2432   */\n      dup2\n        /* \"#utility.yul\":2427:2436   */\n      add\n        /* \"#utility.yul\":2422:2436   */\n      swap1\n      pop\n        /* \"#utility.yul\":2387:2783   */\n      jump(tag_162)\n    tag_164:\n        /* \"#utility.yul\":2391:2405   */\n      pop\n        /* \"#utility.yul\":2799:2803   */\n      dup3\n        /* \"#utility.yul\":2792:2803   */\n      swap8\n      pop\n        /* \"#utility.yul\":2819:2822   */\n      dup8\n        /* \"#utility.yul\":2812:2822   */\n      swap6\n      pop\n        /* \"#utility.yul\":1981:2828   */\n      pop\n      pop\n      pop\n      pop\n      pop\n        /* \"#utility.yul\":1837:2828   */\n      swap3\n      swap2\n      pop\n      pop\n      jump\t// out\n        /* \"#utility.yul\":2834:3247   */\n    tag_11:\n        /* \"#utility.yul\":2997:3001   */\n      0x00\n        /* \"#utility.yul\":3035:3037   */\n      0x20\n        /* \"#utility.yul\":3024:3033   */\n      dup3\n        /* \"#utility.yul\":3020:3038   */\n      add\n        /* \"#utility.yul\":3012:3038   */\n      swap1\n      pop\n        /* \"#utility.yul\":3084:3093   */\n      dup2\n        /* \"#utility.yul\":3078:3082   */\n      dup2\n        /* \"#utility.yul\":3074:3094   */\n      sub\n        /* \"#utility.yul\":3070:3071   */\n      0x00\n        /* \"#utility.yul\":3059:3068   */\n      dup4\n        /* \"#utility.yul\":3055:3072   */\n      add\n        /* \"#utility.yul\":3048:3095   */\n      mstore\n        /* \"#utility.yul\":3112:3240   */\n      tag_168\n        /* \"#utility.yul\":3235:3239   */\n      dup2\n        /* \"#utility.yul\":3226:3232   */\n      dup5\n        /* \"#utility.yul\":3112:3240   */\n      tag_102\n      jump\t// in\n    tag_168:\n        /* \"#utility.yul\":3104:3240   */\n      swap1\n      pop\n        /* \"#utility.yul\":2834:3247   */\n      swap3\n      swap2\n      pop\n      pop\n      jump\t// out\n        /* \"#utility.yul\":3253:3328   */\n    tag_103:\n        /* \"#utility.yul\":3286:3292   */\n      0x00\n        /* \"#utility.yul\":3319:3321   */\n      0x40\n        /* \"#utility.yul\":3313:3322   */\n      mload\n        /* \"#utility.yul\":3303:3322   */\n      swap1\n      pop\n        /* \"#utility.yul\":3253:3328   */\n      swap1\n      jump\t// out\n        /* \"#utility.yul\":3334:3451   */\n    tag_104:\n        /* \"#utility.yul\":3443:3444   */\n      0x00\n        /* \"#utility.yul\":3440:3441   */\n      dup1\n        /* \"#utility.yul\":3433:3445   */\n      revert\n        /* \"#utility.yul\":3457:3574   */\n    tag_105:\n        /* \"#utility.yul\":3566:3567   */\n      0x00\n        /* \"#utility.yul\":3563:3564   */\n      dup1\n        /* \"#utility.yul\":3556:3568   */\n      revert\n        /* \"#utility.yul\":3580:3706   */\n    tag_106:\n        /* \"#utility.yul\":3617:3624   */\n      0x00\n        /* \"#utility.yul\":3657:3699   */\n      0xffffffffffffffffffffffffffffffffffffffff\n        /* \"#utility.yul\":3650:3655   */\n      dup3\n        /* \"#utility.yul\":3646:3700   */\n      and\n        /* \"#utility.yul\":3635:3700   */\n      swap1\n      pop\n        /* \"#utility.yul\":3580:3706   */\n      swap2\n      swap1\n      pop\n      jump\t// out\n        /* \"#utility.yul\":3712:3808   */\n    tag_107:\n        /* \"#utility.yul\":3749:3756   */\n      0x00\n        /* \"#utility.yul\":3778:3802   */\n      tag_174\n        /* \"#utility.yul\":3796:3801   */\n      dup3\n        /* \"#utility.yul\":3778:3802   */\n      tag_106\n      jump\t// in\n    tag_174:\n        /* \"#utility.yul\":3767:3802   */\n      swap1\n      pop\n        /* \"#utility.yul\":3712:3808   */\n      swap2\n      swap1\n      pop\n      jump\t// out\n        /* \"#utility.yul\":3814:3936   */\n    tag_108:\n        /* \"#utility.yul\":3887:3911   */\n      tag_176\n        /* \"#utility.yul\":3905:3910   */\n      dup2\n        /* \"#utility.yul\":3887:3911   */\n      tag_107\n      jump\t// in\n    tag_176:\n        /* \"#utility.yul\":3880:3885   */\n      dup2\n        /* \"#utility.yul\":3877:3912   */\n      eq\n        /* \"#utility.yul\":3867:3930   */\n      tag_177\n      jumpi\n        /* \"#utility.yul\":3926:3927   */\n      0x00\n        /* \"#utility.yul\":3923:3924   */\n      dup1\n        /* \"#utility.yul\":3916:3928   */\n      revert\n        /* \"#utility.yul\":3867:3930   */\n    tag_177:\n        /* \"#utility.yul\":3814:3936   */\n      pop\n      jump\t// out\n        /* \"#utility.yul\":3942:4081   */\n    tag_109:\n        /* \"#utility.yul\":3988:3993   */\n      0x00\n        /* \"#utility.yul\":4026:4032   */\n      dup2\n        /* \"#utility.yul\":4013:4033   */\n      calldataload\n        /* \"#utility.yul\":4004:4033   */\n      swap1\n      pop\n        /* \"#utility.yul\":4042:4075   */\n      tag_179\n        /* \"#utility.yul\":4069:4074   */\n      dup2\n        /* \"#utility.yul\":4042:4075   */\n      tag_108\n      jump\t// in\n    tag_179:\n        /* \"#utility.yul\":3942:4081   */\n      swap3\n      swap2\n      pop\n      pop\n      jump\t// out\n        /* \"#utility.yul\":4087:4164   */\n    tag_110:\n        /* \"#utility.yul\":4124:4131   */\n      0x00\n        /* \"#utility.yul\":4153:4158   */\n      dup2\n        /* \"#utility.yul\":4142:4158   */\n      swap1\n      pop\n        /* \"#utility.yul\":4087:4164   */\n      swap2\n      swap1\n      pop\n      jump\t// out\n        /* \"#utility.yul\":4170:4292   */\n    tag_111:\n        /* \"#utility.yul\":4243:4267   */\n      tag_182\n        /* \"#utility.yul\":4261:4266   */\n      dup2\n        /* \"#utility.yul\":4243:4267   */\n      tag_110\n      jump\t// in\n    tag_182:\n        /* \"#utility.yul\":4236:4241   */\n      dup2\n        /* \"#utility.yul\":4233:4268   */\n      eq\n        /* \"#utility.yul\":4223:4286   */\n      tag_183\n      jumpi\n        /* \"#utility.yul\":4282:4283   */\n      0x00\n        /* \"#utility.yul\":4279:4280   */\n      dup1\n        /* \"#utility.yul\":4272:4284   */\n      revert\n        /* \"#utility.yul\":4223:4286   */\n    tag_183:\n        /* \"#utility.yul\":4170:4292   */\n      pop\n      jump\t// out\n        /* \"#utility.yul\":4298:4437   */\n    tag_112:\n        /* \"#utility.yul\":4344:4349   */\n      0x00\n        /* \"#utility.yul\":4382:4388   */\n      dup2\n        /* \"#utility.yul\":4369:4389   */\n      calldataload\n        /* \"#utility.yul\":4360:4389   */\n      swap1\n      pop\n        /* \"#utility.yul\":4398:4431   */\n      tag_185\n        /* \"#utility.yul\":4425:4430   */\n      dup2\n        /* \"#utility.yul\":4398:4431   */\n      tag_111\n      jump\t// in\n    tag_185:\n        /* \"#utility.yul\":4298:4437   */\n      swap3\n      swap2\n      pop\n      pop\n      jump\t// out\n        /* \"#utility.yul\":4443:4917   */\n    tag_16:\n        /* \"#utility.yul\":4511:4517   */\n      0x00\n        /* \"#utility.yul\":4519:4525   */\n      dup1\n        /* \"#utility.yul\":4568:4570   */\n      0x40\n        /* \"#utility.yul\":4556:4565   */\n      dup4\n        /* \"#utility.yul\":4547:4554   */\n      dup6\n        /* \"#utility.yul\":4543:4566   */\n      sub\n        /* \"#utility.yul\":4539:4571   */\n      slt\n        /* \"#utility.yul\":4536:4655   */\n      iszero\n      tag_187\n      jumpi\n        /* \"#utility.yul\":4574:4653   */\n      tag_188\n      tag_104\n      jump\t// in\n    tag_188:\n        /* \"#utility.yul\":4536:4655   */\n    tag_187:\n        /* \"#utility.yul\":4694:4695   */\n      0x00\n        /* \"#utility.yul\":4719:4772   */\n      tag_189\n        /* \"#utility.yul\":4764:4771   */\n      dup6\n        /* \"#utility.yul\":4755:4761   */\n      dup3\n        /* \"#utility.yul\":4744:4753   */\n      dup7\n        /* \"#utility.yul\":4740:4762   */\n      add\n        /* \"#utility.yul\":4719:4772   */\n      tag_109\n      jump\t// in\n    tag_189:\n        /* \"#utility.yul\":4709:4772   */\n      swap3\n      pop\n        /* \"#utility.yul\":4665:4782   */\n      pop\n        /* \"#utility.yul\":4821:4823   */\n      0x20\n        /* \"#utility.yul\":4847:4900   */\n      tag_190\n        /* \"#utility.yul\":4892:4899   */\n      dup6\n        /* \"#utility.yul\":4883:4889   */\n      dup3\n        /* \"#utility.yul\":4872:4881   */\n      dup7\n        /* \"#utility.yul\":4868:4890   */\n      add\n        /* \"#utility.yul\":4847:4900   */\n      tag_112\n      jump\t// in\n    tag_190:\n        /* \"#utility.yul\":4837:4900   */\n      swap2\n      pop\n        /* \"#utility.yul\":4792:4910   */\n      pop\n        /* \"#utility.yul\":4443:4917   */\n      swap3\n      pop\n      swap3\n      swap1\n      pop\n      jump\t// out\n        /* \"#utility.yul\":4923:5092   */\n    tag_113:\n        /* \"#utility.yul\":5007:5018   */\n      0x00\n        /* \"#utility.yul\":5041:5047   */\n      dup3\n        /* \"#utility.yul\":5036:5039   */\n      dup3\n        /* \"#utility.yul\":5029:5048   */\n      mstore\n        /* \"#utility.yul\":5081:5085   */\n      0x20\n        /* \"#utility.yul\":5076:5079   */\n      dup3\n        /* \"#utility.yul\":5072:5086   */\n      add\n        /* \"#utility.yul\":5057:5086   */\n      swap1\n      pop\n        /* \"#utility.yul\":4923:5092   */\n      swap3\n      swap2\n      pop\n      pop\n      jump\t// out\n        /* \"#utility.yul\":5098:5475   */\n    tag_114:\n        /* \"#utility.yul\":5186:5189   */\n      0x00\n        /* \"#utility.yul\":5214:5253   */\n      tag_193\n        /* \"#utility.yul\":5247:5252   */\n      dup3\n        /* \"#utility.yul\":5214:5253   */\n      tag_95\n      jump\t// in\n    tag_193:\n        /* \"#utility.yul\":5269:5340   */\n      tag_194\n        /* \"#utility.yul\":5333:5339   */\n      dup2\n        /* \"#utility.yul\":5328:5331   */\n      dup6\n        /* \"#utility.yul\":5269:5340   */\n      tag_113\n      jump\t// in\n    tag_194:\n        /* \"#utility.yul\":5262:5340   */\n      swap4\n      pop\n        /* \"#utility.yul\":5349:5414   */\n      tag_195\n        /* \"#utility.yul\":5407:5413   */\n      dup2\n        /* \"#utility.yul\":5402:5405   */\n      dup6\n        /* \"#utility.yul\":5395:5399   */\n      0x20\n        /* \"#utility.yul\":5388:5393   */\n      dup7\n        /* \"#utility.yul\":5384:5400   */\n      add\n        /* \"#utility.yul\":5349:5414   */\n      tag_97\n      jump\t// in\n    tag_195:\n        /* \"#utility.yul\":5439:5468   */\n      tag_196\n        /* \"#utility.yul\":5461:5467   */\n      dup2\n        /* \"#utility.yul\":5439:5468   */\n      tag_98\n      jump\t// in\n    tag_196:\n        /* \"#utility.yul\":5434:5437   */\n      dup5\n        /* \"#utility.yul\":5430:5469   */\n      add\n        /* \"#utility.yul\":5423:5469   */\n      swap2\n      pop\n        /* \"#utility.yul\":5190:5475   */\n      pop\n        /* \"#utility.yul\":5098:5475   */\n      swap3\n      swap2\n      pop\n      pop\n      jump\t// out\n        /* \"#utility.yul\":5481:5794   */\n    tag_19:\n        /* \"#utility.yul\":5594:5598   */\n      0x00\n        /* \"#utility.yul\":5632:5634   */\n      0x20\n        /* \"#utility.yul\":5621:5630   */\n      dup3\n        /* \"#utility.yul\":5617:5635   */\n      add\n        /* \"#utility.yul\":5609:5635   */\n      swap1\n      pop\n        /* \"#utility.yul\":5681:5690   */\n      dup2\n        /* \"#utility.yul\":5675:5679   */\n      dup2\n        /* \"#utility.yul\":5671:5691   */\n      sub\n        /* \"#utility.yul\":5667:5668   */\n      0x00\n        /* \"#utility.yul\":5656:5665   */\n      dup4\n        /* \"#utility.yul\":5652:5669   */\n      add\n        /* \"#utility.yul\":5645:5692   */\n      mstore\n        /* \"#utility.yul\":5709:5787   */\n      tag_198\n        /* \"#utility.yul\":5782:5786   */\n      dup2\n        /* \"#utility.yul\":5773:5779   */\n      dup5\n        /* \"#utility.yul\":5709:5787   */\n      tag_114\n      jump\t// in\n    tag_198:\n        /* \"#utility.yul\":5701:5787   */\n      swap1\n      pop\n        /* \"#utility.yul\":5481:5794   */\n      swap3\n      swap2\n      pop\n      pop\n      jump\t// out\n        /* \"#utility.yul\":5800:6129   */\n    tag_22:\n        /* \"#utility.yul\":5859:5865   */\n      0x00\n        /* \"#utility.yul\":5908:5910   */\n      0x20\n        /* \"#utility.yul\":5896:5905   */\n      dup3\n        /* \"#utility.yul\":5887:5894   */\n      dup5\n        /* \"#utility.yul\":5883:5906   */\n      sub\n        /* \"#utility.yul\":5879:5911   */\n      slt\n        /* \"#utility.yul\":5876:5995   */\n      iszero\n      tag_200\n      jumpi\n        /* \"#utility.yul\":5914:5993   */\n      tag_201\n      tag_104\n      jump\t// in\n    tag_201:\n        /* \"#utility.yul\":5876:5995   */\n    tag_200:\n        /* \"#utility.yul\":6034:6035   */\n      0x00\n        /* \"#utility.yul\":6059:6112   */\n      tag_202\n        /* \"#utility.yul\":6104:6111   */\n      dup5\n        /* \"#utility.yul\":6095:6101   */\n      dup3\n        /* \"#utility.yul\":6084:6093   */\n      dup6\n        /* \"#utility.yul\":6080:6102   */\n      add\n        /* \"#utility.yul\":6059:6112   */\n      tag_109\n      jump\t// in\n    tag_202:\n        /* \"#utility.yul\":6049:6112   */\n      swap2\n      pop\n        /* \"#utility.yul\":6005:6122   */\n      pop\n        /* \"#utility.yul\":5800:6129   */\n      swap3\n      swap2\n      pop\n      pop\n      jump\t// out\n        /* \"#utility.yul\":6135:6252   */\n    tag_115:\n        /* \"#utility.yul\":6244:6245   */\n      0x00\n        /* \"#utility.yul\":6241:6242   */\n      dup1\n        /* \"#utility.yul\":6234:6246   */\n      revert\n        /* \"#utility.yul\":6258:6375   */\n    tag_116:\n        /* \"#utility.yul\":6367:6368   */\n      0x00\n        /* \"#utility.yul\":6364:6365   */\n      dup1\n        /* \"#utility.yul\":6357:6369   */\n      revert\n        /* \"#utility.yul\":6381:6561   */\n    tag_32:\n        /* \"#utility.yul\":6429:6506   */\n      0x4e487b7100000000000000000000000000000000000000000000000000000000\n        /* \"#utility.yul\":6426:6427   */\n      0x00\n        /* \"#utility.yul\":6419:6507   */\n      mstore\n        /* \"#utility.yul\":6526:6530   */\n      0x41\n        /* \"#utility.yul\":6523:6524   */\n      0x04\n        /* \"#utility.yul\":6516:6531   */\n      mstore\n        /* \"#utility.yul\":6550:6554   */\n      0x24\n        /* \"#utility.yul\":6547:6548   */\n      0x00\n        /* \"#utility.yul\":6540:6555   */\n      revert\n        /* \"#utility.yul\":6567:6848   */\n    tag_117:\n        /* \"#utility.yul\":6650:6677   */\n      tag_207\n        /* \"#utility.yul\":6672:6676   */\n      dup3\n        /* \"#utility.yul\":6650:6677   */\n      tag_98\n      jump\t// in\n    tag_207:\n        /* \"#utility.yul\":6642:6648   */\n      dup2\n        /* \"#utility.yul\":6638:6678   */\n      add\n        /* \"#utility.yul\":6780:6786   */\n      dup2\n        /* \"#utility.yul\":6768:6778   */\n      dup2\n        /* \"#utility.yul\":6765:6787   */\n      lt\n        /* \"#utility.yul\":6744:6762   */\n      0xffffffffffffffff\n        /* \"#utility.yul\":6732:6742   */\n      dup3\n        /* \"#utility.yul\":6729:6763   */\n      gt\n        /* \"#utility.yul\":6726:6788   */\n      or\n        /* \"#utility.yul\":6723:6811   */\n      iszero\n      tag_208\n      jumpi\n        /* \"#utility.yul\":6791:6809   */\n      tag_209\n      tag_32\n      jump\t// in\n    tag_209:\n        /* \"#utility.yul\":6723:6811   */\n    tag_208:\n        /* \"#utility.yul\":6831:6841   */\n      dup1\n        /* \"#utility.yul\":6827:6829   */\n      0x40\n        /* \"#utility.yul\":6820:6842   */\n      mstore\n        /* \"#utility.yul\":6610:6848   */\n      pop\n        /* \"#utility.yul\":6567:6848   */\n      pop\n      pop\n      jump\t// out\n        /* \"#utility.yul\":6854:6983   */\n    tag_118:\n        /* \"#utility.yul\":6888:6894   */\n      0x00\n        /* \"#utility.yul\":6915:6935   */\n      tag_211\n      tag_103\n      jump\t// in\n    tag_211:\n        /* \"#utility.yul\":6905:6935   */\n      swap1\n      pop\n        /* \"#utility.yul\":6944:6977   */\n      tag_212\n        /* \"#utility.yul\":6972:6976   */\n      dup3\n        /* \"#utility.yul\":6964:6970   */\n      dup3\n        /* \"#utility.yul\":6944:6977   */\n      tag_117\n      jump\t// in\n    tag_212:\n        /* \"#utility.yul\":6854:6983   */\n      swap2\n      swap1\n      pop\n      jump\t// out\n        /* \"#utility.yul\":6989:7297   */\n    tag_119:\n        /* \"#utility.yul\":7051:7055   */\n      0x00\n        /* \"#utility.yul\":7141:7159   */\n      0xffffffffffffffff\n        /* \"#utility.yul\":7133:7139   */\n      dup3\n        /* \"#utility.yul\":7130:7160   */\n      gt\n        /* \"#utility.yul\":7127:7183   */\n      iszero\n      tag_214\n      jumpi\n        /* \"#utility.yul\":7163:7181   */\n      tag_215\n      tag_32\n      jump\t// in\n    tag_215:\n        /* \"#utility.yul\":7127:7183   */\n    tag_214:\n        /* \"#utility.yul\":7201:7230   */\n      tag_216\n        /* \"#utility.yul\":7223:7229   */\n      dup3\n        /* \"#utility.yul\":7201:7230   */\n      tag_98\n      jump\t// in\n    tag_216:\n        /* \"#utility.yul\":7193:7230   */\n      swap1\n      pop\n        /* \"#utility.yul\":7285:7289   */\n      0x20\n        /* \"#utility.yul\":7279:7283   */\n      dup2\n        /* \"#utility.yul\":7275:7290   */\n      add\n        /* \"#utility.yul\":7267:7290   */\n      swap1\n      pop\n        /* \"#utility.yul\":6989:7297   */\n      swap2\n      swap1\n      pop\n      jump\t// out\n        /* \"#utility.yul\":7303:7449   */\n    tag_120:\n        /* \"#utility.yul\":7400:7406   */\n      dup3\n        /* \"#utility.yul\":7395:7398   */\n      dup2\n        /* \"#utility.yul\":7390:7393   */\n      dup4\n        /* \"#utility.yul\":7377:7407   */\n      calldatacopy\n        /* \"#utility.yul\":7441:7442   */\n      0x00\n        /* \"#utility.yul\":7432:7438   */\n      dup4\n        /* \"#utility.yul\":7427:7430   */\n      dup4\n        /* \"#utility.yul\":7423:7439   */\n      add\n        /* \"#utility.yul\":7416:7443   */\n      mstore\n        /* \"#utility.yul\":7303:7449   */\n      pop\n      pop\n      pop\n      jump\t// out\n        /* \"#utility.yul\":7455:7880   */\n    tag_121:\n        /* \"#utility.yul\":7533:7538   */\n      0x00\n        /* \"#utility.yul\":7558:7624   */\n      tag_219\n        /* \"#utility.yul\":7574:7623   */\n      tag_220\n        /* \"#utility.yul\":7616:7622   */\n      dup5\n        /* \"#utility.yul\":7574:7623   */\n      tag_119\n      jump\t// in\n    tag_220:\n        /* \"#utility.yul\":7558:7624   */\n      tag_118\n      jump\t// in\n    tag_219:\n        /* \"#utility.yul\":7549:7624   */\n      swap1\n      pop\n        /* \"#utility.yul\":7647:7653   */\n      dup3\n        /* \"#utility.yul\":7640:7645   */\n      dup2\n        /* \"#utility.yul\":7633:7654   */\n      mstore\n        /* \"#utility.yul\":7685:7689   */\n      0x20\n        /* \"#utility.yul\":7678:7683   */\n      dup2\n        /* \"#utility.yul\":7674:7690   */\n      add\n        /* \"#utility.yul\":7723:7726   */\n      dup5\n        /* \"#utility.yul\":7714:7720   */\n      dup5\n        /* \"#utility.yul\":7709:7712   */\n      dup5\n        /* \"#utility.yul\":7705:7721   */\n      add\n        /* \"#utility.yul\":7702:7727   */\n      gt\n        /* \"#utility.yul\":7699:7811   */\n      iszero\n      tag_221\n      jumpi\n        /* \"#utility.yul\":7730:7809   */\n      tag_222\n      tag_116\n      jump\t// in\n    tag_222:\n        /* \"#utility.yul\":7699:7811   */\n    tag_221:\n        /* \"#utility.yul\":7820:7874   */\n      tag_223\n        /* \"#utility.yul\":7867:7873   */\n      dup5\n        /* \"#utility.yul\":7862:7865   */\n      dup3\n        /* \"#utility.yul\":7857:7860   */\n      dup6\n        /* \"#utility.yul\":7820:7874   */\n      tag_120\n      jump\t// in\n    tag_223:\n        /* \"#utility.yul\":7539:7880   */\n      pop\n        /* \"#utility.yul\":7455:7880   */\n      swap4\n      swap3\n      pop\n      pop\n      pop\n      jump\t// out\n        /* \"#utility.yul\":7900:8240   */\n    tag_122:\n        /* \"#utility.yul\":7956:7961   */\n      0x00\n        /* \"#utility.yul\":8005:8008   */\n      dup3\n        /* \"#utility.yul\":7998:8002   */\n      0x1f\n        /* \"#utility.yul\":7990:7996   */\n      dup4\n        /* \"#utility.yul\":7986:8003   */\n      add\n        /* \"#utility.yul\":7982:8009   */\n      slt\n        /* \"#utility.yul\":7972:8094   */\n      tag_225\n      jumpi\n        /* \"#utility.yul\":8013:8092   */\n      tag_226\n      tag_115\n      jump\t// in\n    tag_226:\n        /* \"#utility.yul\":7972:8094   */\n    tag_225:\n        /* \"#utility.yul\":8130:8136   */\n      dup2\n        /* \"#utility.yul\":8117:8137   */\n      calldataload\n        /* \"#utility.yul\":8155:8234   */\n      tag_227\n        /* \"#utility.yul\":8230:8233   */\n      dup5\n        /* \"#utility.yul\":8222:8228   */\n      dup3\n        /* \"#utility.yul\":8215:8219   */\n      0x20\n        /* \"#utility.yul\":8207:8213   */\n      dup7\n        /* \"#utility.yul\":8203:8220   */\n      add\n        /* \"#utility.yul\":8155:8234   */\n      tag_121\n      jump\t// in\n    tag_227:\n        /* \"#utility.yul\":8146:8234   */\n      swap2\n      pop\n        /* \"#utility.yul\":7962:8240   */\n      pop\n        /* \"#utility.yul\":7900:8240   */\n      swap3\n      swap2\n      pop\n      pop\n      jump\t// out\n        /* \"#utility.yul\":8246:8755   */\n    tag_27:\n        /* \"#utility.yul\":8315:8321   */\n      0x00\n        /* \"#utility.yul\":8364:8366   */\n      0x20\n        /* \"#utility.yul\":8352:8361   */\n      dup3\n        /* \"#utility.yul\":8343:8350   */\n      dup5\n        /* \"#utility.yul\":8339:8362   */\n      sub\n        /* \"#utility.yul\":8335:8367   */\n      slt\n        /* \"#utility.yul\":8332:8451   */\n      iszero\n      tag_229\n      jumpi\n        /* \"#utility.yul\":8370:8449   */\n      tag_230\n      tag_104\n      jump\t// in\n    tag_230:\n        /* \"#utility.yul\":8332:8451   */\n    tag_229:\n        /* \"#utility.yul\":8518:8519   */\n      0x00\n        /* \"#utility.yul\":8507:8516   */\n      dup3\n        /* \"#utility.yul\":8503:8520   */\n      add\n        /* \"#utility.yul\":8490:8521   */\n      calldataload\n        /* \"#utility.yul\":8548:8566   */\n      0xffffffffffffffff\n        /* \"#utility.yul\":8540:8546   */\n      dup2\n        /* \"#utility.yul\":8537:8567   */\n      gt\n        /* \"#utility.yul\":8534:8651   */\n      iszero\n      tag_231\n      jumpi\n        /* \"#utility.yul\":8570:8649   */\n      tag_232\n      tag_105\n      jump\t// in\n    tag_232:\n        /* \"#utility.yul\":8534:8651   */\n    tag_231:\n        /* \"#utility.yul\":8675:8738   */\n      tag_233\n        /* \"#utility.yul\":8730:8737   */\n      dup5\n        /* \"#utility.yul\":8721:8727   */\n      dup3\n        /* \"#utility.yul\":8710:8719   */\n      dup6\n        /* \"#utility.yul\":8706:8728   */\n      add\n        /* \"#utility.yul\":8675:8738   */\n      tag_122\n      jump\t// in\n    tag_233:\n        /* \"#utility.yul\":8665:8738   */\n      swap2\n      pop\n        /* \"#utility.yul\":8461:8748   */\n      pop\n        /* \"#utility.yul\":8246:8755   */\n      swap3\n      swap2\n      pop\n      pop\n      jump\t// out\n        /* \"#utility.yul\":8761:8941   */\n    tag_37:\n        /* \"#utility.yul\":8809:8886   */\n      0x4e487b7100000000000000000000000000000000000000000000000000000000\n        /* \"#utility.yul\":8806:8807   */\n      0x00\n        /* \"#utility.yul\":8799:8887   */\n      mstore\n        /* \"#utility.yul\":8906:8910   */\n      0x32\n        /* \"#utility.yul\":8903:8904   */\n      0x04\n        /* \"#utility.yul\":8896:8911   */\n      mstore\n        /* \"#utility.yul\":8930:8934   */\n      0x24\n        /* \"#utility.yul\":8927:8928   */\n      0x00\n        /* \"#utility.yul\":8920:8935   */\n      revert\n        /* \"#utility.yul\":8947:9127   */\n    tag_123:\n        /* \"#utility.yul\":8995:9072   */\n      0x4e487b7100000000000000000000000000000000000000000000000000000000\n        /* \"#utility.yul\":8992:8993   */\n      0x00\n        /* \"#utility.yul\":8985:9073   */\n      mstore\n        /* \"#utility.yul\":9092:9096   */\n      0x22\n        /* \"#utility.yul\":9089:9090   */\n      0x04\n        /* \"#utility.yul\":9082:9097   */\n      mstore\n        /* \"#utility.yul\":9116:9120   */\n      0x24\n        /* \"#utility.yul\":9113:9114   */\n      0x00\n        /* \"#utility.yul\":9106:9121   */\n      revert\n        /* \"#utility.yul\":9133:9453   */\n    tag_60:\n        /* \"#utility.yul\":9177:9183   */\n      0x00\n        /* \"#utility.yul\":9214:9215   */\n      0x02\n        /* \"#utility.yul\":9208:9212   */\n      dup3\n        /* \"#utility.yul\":9204:9216   */\n      div\n        /* \"#utility.yul\":9194:9216   */\n      swap1\n      pop\n        /* \"#utility.yul\":9261:9262   */\n      0x01\n        /* \"#utility.yul\":9255:9259   */\n      dup3\n        /* \"#utility.yul\":9251:9263   */\n      and\n        /* \"#utility.yul\":9282:9300   */\n      dup1\n        /* \"#utility.yul\":9272:9353   */\n      tag_237\n      jumpi\n        /* \"#utility.yul\":9338:9342   */\n      0x7f\n        /* \"#utility.yul\":9330:9336   */\n      dup3\n        /* \"#utility.yul\":9326:9343   */\n      and\n        /* \"#utility.yul\":9316:9343   */\n      swap2\n      pop\n        /* \"#utility.yul\":9272:9353   */\n    tag_237:\n        /* \"#utility.yul\":9400:9402   */\n      0x20\n        /* \"#utility.yul\":9392:9398   */\n      dup3\n        /* \"#utility.yul\":9389:9403   */\n      lt\n        /* \"#utility.yul\":9369:9387   */\n      dup2\n        /* \"#utility.yul\":9366:9404   */\n      sub\n        /* \"#utility.yul\":9363:9447   */\n      tag_238\n      jumpi\n        /* \"#utility.yul\":9419:9437   */\n      tag_239\n      tag_123\n      jump\t// in\n    tag_239:\n        /* \"#utility.yul\":9363:9447   */\n    tag_238:\n        /* \"#utility.yul\":9184:9453   */\n      pop\n        /* \"#utility.yul\":9133:9453   */\n      swap2\n      swap1\n      pop\n      jump\t// out\n        /* \"#utility.yul\":9459:9600   */\n    tag_124:\n        /* \"#utility.yul\":9508:9512   */\n      0x00\n        /* \"#utility.yul\":9531:9534   */\n      dup2\n        /* \"#utility.yul\":9523:9534   */\n      swap1\n      pop\n        /* \"#utility.yul\":9554:9557   */\n      dup2\n        /* \"#utility.yul\":9551:9552   */\n      0x00\n        /* \"#utility.yul\":9544:9558   */\n      mstore\n        /* \"#utility.yul\":9588:9592   */\n      0x20\n        /* \"#utility.yul\":9585:9586   */\n      0x00\n        /* \"#utility.yul\":9575:9593   */\n      keccak256\n        /* \"#utility.yul\":9567:9593   */\n      swap1\n      pop\n        /* \"#utility.yul\":9459:9600   */\n      swap2\n      swap1\n      pop\n      jump\t// out\n        /* \"#utility.yul\":9606:9699   */\n    tag_125:\n        /* \"#utility.yul\":9643:9649   */\n      0x00\n        /* \"#utility.yul\":9690:9692   */\n      0x20\n        /* \"#utility.yul\":9685:9687   */\n      0x1f\n        /* \"#utility.yul\":9678:9683   */\n      dup4\n        /* \"#utility.yul\":9674:9688   */\n      add\n        /* \"#utility.yul\":9670:9693   */\n      div\n        /* \"#utility.yul\":9660:9693   */\n      swap1\n      pop\n        /* \"#utility.yul\":9606:9699   */\n      swap2\n      swap1\n      pop\n      jump\t// out\n        /* \"#utility.yul\":9705:9812   */\n    tag_126:\n        /* \"#utility.yul\":9749:9757   */\n      0x00\n        /* \"#utility.yul\":9799:9804   */\n      dup3\n        /* \"#utility.yul\":9793:9797   */\n      dup3\n        /* \"#utility.yul\":9789:9805   */\n      shl\n        /* \"#utility.yul\":9768:9805   */\n      swap1\n      pop\n        /* \"#utility.yul\":9705:9812   */\n      swap3\n      swap2\n      pop\n      pop\n      jump\t// out\n        /* \"#utility.yul\":9818:10211   */\n    tag_127:\n        /* \"#utility.yul\":9887:9893   */\n      0x00\n        /* \"#utility.yul\":9937:9938   */\n      0x08\n        /* \"#utility.yul\":9925:9935   */\n      dup4\n        /* \"#utility.yul\":9921:9939   */\n      mul\n        /* \"#utility.yul\":9960:10057   */\n      tag_244\n        /* \"#utility.yul\":9990:10056   */\n      0xffffffffffffffffffffffffffffffffffffffffffffffffffffffffffffffff\n        /* \"#utility.yul\":9979:9988   */\n      dup3\n        /* \"#utility.yul\":9960:10057   */\n      tag_126\n      jump\t// in\n    tag_244:\n        /* \"#utility.yul\":10078:10117   */\n      tag_245\n        /* \"#utility.yul\":10108:10116   */\n      dup7\n        /* \"#utility.yul\":10097:10106   */\n      dup4\n        /* \"#utility.yul\":10078:10117   */\n      tag_126\n      jump\t// in\n    tag_245:\n        /* \"#utility.yul\":10066:10117   */\n      swap6\n      pop\n        /* \"#utility.yul\":10150:10154   */\n      dup1\n        /* \"#utility.yul\":10146:10155   */\n      not\n        /* \"#utility.yul\":10139:10144   */\n      dup5\n        /* \"#utility.yul\":10135:10156   */\n      and\n        /* \"#utility.yul\":10126:10156   */\n      swap4\n      pop\n        /* \"#utility.yul\":10199:10203   */\n      dup1\n        /* \"#utility.yul\":10189:10197   */\n      dup7\n        /* \"#utility.yul\":10185:10204   */\n      and\n        /* \"#utility.yul\":10178:10183   */\n      dup5\n        /* \"#utility.yul\":10175:10205   */\n      or\n        /* \"#utility.yul\":10165:10205   */\n      swap3\n      pop\n        /* \"#utility.yul\":9894:10211   */\n      pop\n      pop\n        /* \"#utility.yul\":9818:10211   */\n      swap4\n      swap3\n      pop\n      pop\n      pop\n      jump\t// out\n        /* \"#utility.yul\":10217:10277   */\n    tag_128:\n        /* \"#utility.yul\":10245:10248   */\n      0x00\n        /* \"#utility.yul\":10266:10271   */\n      dup2\n        /* \"#utility.yul\":10259:10271   */\n      swap1\n      pop\n        /* \"#utility.yul\":10217:10277   */\n      swap2\n      swap1\n      pop\n      jump\t// out\n        /* \"#utility.yul\":10283:10425   */\n    tag_129:\n        /* \"#utility.yul\":10333:10342   */\n      0x00\n        /* \"#utility.yul\":10366:10419   */\n      tag_248\n        /* \"#utility.yul\":10384:10418   */\n      tag_249\n        /* \"#utility.yul\":10393:10417   */\n      tag_250\n        /* \"#utility.yul\":10411:10416   */\n      dup5\n        /* \"#utility.yul\":10393:10417   */\n      tag_110\n      jump\t// in\n    tag_250:\n        /* \"#utility.yul\":10384:10418   */\n      tag_128\n      jump\t// in\n    tag_249:\n        /* \"#utility.yul\":10366:10419   */\n      tag_110\n      jump\t// in\n    tag_248:\n        /* \"#utility.yul\":10353:10419   */\n      swap1\n      pop\n        /* \"#utility.yul\":10283:10425   */\n      swap2\n      swap1\n      pop\n      jump\t// out\n        /* \"#utility.yul\":10431:10506   */\n    tag_130:\n        /* \"#utility.yul\":10474:10477   */\n      0x00\n        /* \"#utility.yul\":10495:10500   */\n      dup2\n        /* \"#utility.yul\":10488:10500   */\n      swap1\n      pop\n        /* \"#utility.yul\":10431:10506   */\n      swap2\n      swap1\n      pop\n      jump\t// out\n        /* \"#utility.yul\":10512:10781   */\n    tag_131:\n        /* \"#utility.yul\":10622:10661   */\n      tag_253\n        /* \"#utility.yul\":10653:10660   */\n      dup4\n        /* \"#utility.yul\":10622:10661   */\n      tag_129\n      jump\t// in\n    tag_253:\n        /* \"#utility.yul\":10683:10774   */\n      tag_254\n        /* \"#utility.yul\":10732:10773   */\n      tag_255\n        /* \"#utility.yul\":10756:10772   */\n      dup3\n        /* \"#utility.yul\":10732:10773   */\n      tag_130\n      jump\t// in\n    tag_255:\n        /* \"#utility.yul\":10724:10730   */\n      dup5\n        /* \"#utility.yul\":10717:10721   */\n      dup5\n        /* \"#utility.yul\":10711:10722   */\n      sload\n        /* \"#utility.yul\":10683:10774   */\n      tag_127\n      jump\t// in\n    tag_254:\n        /* \"#utility.yul\":10677:10681   */\n      dup3\n        /* \"#utility.yul\":10670:10775   */\n      sstore\n        /* \"#utility.yul\":10588:10781   */\n      pop\n        /* \"#utility.yul\":10512:10781   */\n      pop\n      pop\n      pop\n      jump\t// out\n        /* \"#utility.yul\":10787:10860   */\n    tag_132:\n        /* \"#utility.yul\":10832:10835   */\n      0x00\n        /* \"#utility.yul\":10787:10860   */\n      swap1\n      jump\t// out\n        /* \"#utility.yul\":10866:11055   */\n    tag_133:\n        /* \"#utility.yul\":10943:10975   */\n      tag_258\n      tag_132\n      jump\t// in\n    tag_258:\n        /* \"#utility.yul\":10984:11049   */\n      tag_259\n        /* \"#utility.yul\":11042:11048   */\n      dup2\n        /* \"#utility.yul\":11034:11040   */\n      dup5\n        /* \"#utility.yul\":11028:11032   */\n      dup5\n        /* \"#utility.yul\":10984:11049   */\n      tag_131\n      jump\t// in\n    tag_259:\n        /* \"#utility.yul\":10919:11055   */\n      pop\n        /* \"#utility.yul\":10866:11055   */\n      pop\n      pop\n      jump\t// out\n        /* \"#utility.yul\":11061:11247   */\n    tag_134:\n        /* \"#utility.yul\":11121:11241   */\n    tag_261:\n        /* \"#utility.yul\":11138:11141   */\n      dup2\n        /* \"#utility.yul\":11131:11136   */\n      dup2\n        /* \"#utility.yul\":11128:11142   */\n      lt\n        /* \"#utility.yul\":11121:11241   */\n      iszero\n      tag_263\n      jumpi\n        /* \"#utility.yul\":11192:11231   */\n      tag_264\n        /* \"#utility.yul\":11229:11230   */\n      0x00\n        /* \"#utility.yul\":11222:11227   */\n      dup3\n        /* \"#utility.yul\":11192:11231   */\n      tag_133\n      jump\t// in\n    tag_264:\n        /* \"#utility.yul\":11165:11166   */\n      0x01\n        /* \"#utility.yul\":11158:11163   */\n      dup2\n        /* \"#utility.yul\":11154:11167   */\n      add\n        /* \"#utility.yul\":11145:11167   */\n      swap1\n      pop\n        /* \"#utility.yul\":11121:11241   */\n      jump(tag_261)\n    tag_263:\n        /* \"#utility.yul\":11061:11247   */\n      pop\n      pop\n      jump\t// out\n        /* \"#utility.yul\":11253:11796   */\n    tag_135:\n        /* \"#utility.yul\":11354:11356   */\n      0x1f\n        /* \"#utility.yul\":11349:11352   */\n      dup3\n        /* \"#utility.yul\":11346:11357   */\n      gt\n        /* \"#utility.yul\":11343:11789   */\n      iszero\n      tag_266\n      jumpi\n        /* \"#utility.yul\":11388:11426   */\n      tag_267\n        /* \"#utility.yul\":11420:11425   */\n      dup2\n        /* \"#utility.yul\":11388:11426   */\n      tag_124\n      jump\t// in\n    tag_267:\n        /* \"#utility.yul\":11472:11501   */\n      tag_268\n        /* \"#utility.yul\":11490:11500   */\n      dup5\n        /* \"#utility.yul\":11472:11501   */\n      tag_125\n      jump\t// in\n    tag_268:\n        /* \"#utility.yul\":11462:11470   */\n      dup2\n        /* \"#utility.yul\":11458:11502   */\n      add\n        /* \"#utility.yul\":11655:11657   */\n      0x20\n        /* \"#utility.yul\":11643:11653   */\n      dup6\n        /* \"#utility.yul\":11640:11658   */\n      lt\n        /* \"#utility.yul\":11637:11686   */\n      iszero\n      tag_269\n      jumpi\n        /* \"#utility.yul\":11676:11684   */\n      dup2\n        /* \"#utility.yul\":11661:11684   */\n      swap1\n      pop\n        /* \"#utility.yul\":11637:11686   */\n    tag_269:\n        /* \"#utility.yul\":11699:11779   */\n      tag_270\n        /* \"#utility.yul\":11755:11777   */\n      tag_271\n        /* \"#utility.yul\":11773:11776   */\n      dup6\n        /* \"#utility.yul\":11755:11777   */\n      tag_125\n      jump\t// in\n    tag_271:\n        /* \"#utility.yul\":11745:11753   */\n      dup4\n        /* \"#utility.yul\":11741:11778   */\n      add\n        /* \"#utility.yul\":11728:11739   */\n      dup3\n        /* \"#utility.yul\":11699:11779   */\n      tag_134\n      jump\t// in\n    tag_270:\n        /* \"#utility.yul\":11358:11789   */\n      pop\n      pop\n        /* \"#utility.yul\":11343:11789   */\n    tag_266:\n        /* \"#utility.yul\":11253:11796   */\n      pop\n      pop\n      pop\n      jump\t// out\n        /* \"#utility.yul\":11802:11919   */\n    tag_136:\n        /* \"#utility.yul\":11856:11864   */\n      0x00\n        /* \"#utility.yul\":11906:11911   */\n      dup3\n        /* \"#utility.yul\":11900:11904   */\n      dup3\n        /* \"#utility.yul\":11896:11912   */\n      shr\n        /* \"#utility.yul\":11875:11912   */\n      swap1\n      pop\n        /* \"#utility.yul\":11802:11919   */\n      swap3\n      swap2\n      pop\n      pop\n      jump\t// out\n        /* \"#utility.yul\":11925:12094   */\n    tag_137:\n        /* \"#utility.yul\":11969:11975   */\n      0x00\n        /* \"#utility.yul\":12002:12053   */\n      tag_274\n        /* \"#utility.yul\":12050:12051   */\n      0x00\n        /* \"#utility.yul\":12046:12052   */\n      not\n        /* \"#utility.yul\":12038:12043   */\n      dup5\n        /* \"#utility.yul\":12035:12036   */\n      0x08\n        /* \"#utility.yul\":12031:12044   */\n      mul\n        /* \"#utility.yul\":12002:12053   */\n      tag_136\n      jump\t// in\n    tag_274:\n        /* \"#utility.yul\":11998:12054   */\n      not\n        /* \"#utility.yul\":12083:12087   */\n      dup1\n        /* \"#utility.yul\":12077:12081   */\n      dup4\n        /* \"#utility.yul\":12073:12088   */\n      and\n        /* \"#utility.yul\":12063:12088   */\n      swap2\n      pop\n        /* \"#utility.yul\":11976:12094   */\n      pop\n        /* \"#utility.yul\":11925:12094   */\n      swap3\n      swap2\n      pop\n      pop\n      jump\t// out\n        /* \"#utility.yul\":12099:12394   */\n    tag_138:\n        /* \"#utility.yul\":12175:12179   */\n      0x00\n        /* \"#utility.yul\":12321:12350   */\n      tag_276\n        /* \"#utility.yul\":12346:12349   */\n      dup4\n        /* \"#utility.yul\":12340:12344   */\n      dup4\n        /* \"#utility.yul\":12321:12350   */\n      tag_137\n      jump\t// in\n    tag_276:\n        /* \"#utility.yul\":12313:12350   */\n      swap2\n      pop\n        /* \"#utility.yul\":12383:12386   */\n      dup3\n        /* \"#utility.yul\":12380:12381   */\n      0x02\n        /* \"#utility.yul\":12376:12387   */\n      mul\n        /* \"#utility.yul\":12370:12374   */\n      dup3\n        /* \"#utility.yul\":12367:12388   */\n      or\n        /* \"#utility.yul\":12359:12388   */\n      swap1\n      pop\n        /* \"#utility.yul\":12099:12394   */\n      swap3\n      swap2\n      pop\n      pop\n      jump\t// out\n        /* \"#utility.yul\":12399:13794   */\n    tag_77:\n        /* \"#utility.yul\":12516:12553   */\n      tag_278\n        /* \"#utility.yul\":12549:12552   */\n      dup3\n        /* \"#utility.yul\":12516:12553   */\n      tag_95\n      jump\t// in\n    tag_278:\n        /* \"#utility.yul\":12618:12636   */\n      0xffffffffffffffff\n        /* \"#utility.yul\":12610:12616   */\n      dup2\n        /* \"#utility.yul\":12607:12637   */\n      gt\n        /* \"#utility.yul\":12604:12660   */\n      iszero\n      tag_279\n      jumpi\n        /* \"#utility.yul\":12640:12658   */\n      tag_280\n      tag_32\n      jump\t// in\n    tag_280:\n        /* \"#utility.yul\":12604:12660   */\n    tag_279:\n        /* \"#utility.yul\":12684:12722   */\n      tag_281\n        /* \"#utility.yul\":12716:12720   */\n      dup3\n        /* \"#utility.yul\":12710:12721   */\n      sload\n        /* \"#utility.yul\":12684:12722   */\n      tag_60\n      jump\t// in\n    tag_281:\n        /* \"#utility.yul\":12769:12836   */\n      tag_282\n        /* \"#utility.yul\":12829:12835   */\n      dup3\n        /* \"#utility.yul\":12821:12827   */\n      dup3\n        /* \"#utility.yul\":12815:12819   */\n      dup6\n        /* \"#utility.yul\":12769:12836   */\n      tag_135\n      jump\t// in\n    tag_282:\n        /* \"#utility.yul\":12863:12864   */\n      0x00\n        /* \"#utility.yul\":12887:12891   */\n      0x20\n        /* \"#utility.yul\":12874:12891   */\n      swap1\n      pop\n        /* \"#utility.yul\":12919:12921   */\n      0x1f\n        /* \"#utility.yul\":12911:12917   */\n      dup4\n        /* \"#utility.yul\":12908:12922   */\n      gt\n        /* \"#utility.yul\":12936:12937   */\n      0x01\n        /* \"#utility.yul\":12931:13549   */\n      dup2\n      eq\n      tag_284\n      jumpi\n        /* \"#utility.yul\":13593:13594   */\n      0x00\n        /* \"#utility.yul\":13610:13616   */\n      dup5\n        /* \"#utility.yul\":13607:13684   */\n      iszero\n      tag_285\n      jumpi\n        /* \"#utility.yul\":13659:13668   */\n      dup3\n        /* \"#utility.yul\":13654:13657   */\n      dup8\n        /* \"#utility.yul\":13650:13669   */\n      add\n        /* \"#utility.yul\":13644:13670   */\n      mload\n        /* \"#utility.yul\":13635:13670   */\n      swap1\n      pop\n        /* \"#utility.yul\":13607:13684   */\n    tag_285:\n        /* \"#utility.yul\":13710:13777   */\n      tag_286\n        /* \"#utility.yul\":13770:13776   */\n      dup6\n        /* \"#utility.yul\":13763:13768   */\n      dup3\n        /* \"#utility.yul\":13710:13777   */\n      tag_138\n      jump\t// in\n    tag_286:\n        /* \"#utility.yul\":13704:13708   */\n      dup7\n        /* \"#utility.yul\":13697:13778   */\n      sstore\n        /* \"#utility.yul\":13566:13788   */\n      pop\n        /* \"#utility.yul\":12901:13788   */\n      jump(tag_283)\n        /* \"#utility.yul\":12931:13549   */\n    tag_284:\n        /* \"#utility.yul\":12983:12987   */\n      0x1f\n        /* \"#utility.yul\":12979:12988   */\n      not\n        /* \"#utility.yul\":12971:12977   */\n      dup5\n        /* \"#utility.yul\":12967:12989   */\n      and\n        /* \"#utility.yul\":13017:13054   */\n      tag_287\n        /* \"#utility.yul\":13049:13053   */\n      dup7\n        /* \"#utility.yul\":13017:13054   */\n      tag_124\n      jump\t// in\n    tag_287:\n        /* \"#utility.yul\":13076:13077   */\n      0x00\n        /* \"#utility.yul\":13090:13298   */\n    tag_288:\n        /* \"#utility.yul\":13104:13111   */\n      dup3\n        /* \"#utility.yul\":13101:13102   */\n      dup2\n        /* \"#utility.yul\":13098:13112   */\n      lt\n        /* \"#utility.yul\":13090:13298   */\n      iszero\n      tag_290\n      jumpi\n        /* \"#utility.yul\":13183:13192   */\n      dup5\n        /* \"#utility.yul\":13178:13181   */\n      dup10\n        /* \"#utility.yul\":13174:13193   */\n      add\n        /* \"#utility.yul\":13168:13194   */\n      mload\n        /* \"#utility.yul\":13160:13166   */\n      dup3\n        /* \"#utility.yul\":13153:13195   */\n      sstore\n        /* \"#utility.yul\":13234:13235   */\n      0x01\n        /* \"#utility.yul\":13226:13232   */\n      dup3\n        /* \"#utility.yul\":13222:13236   */\n      add\n        /* \"#utility.yul\":13212:13236   */\n      swap2\n      pop\n        /* \"#utility.yul\":13281:13283   */\n      0x20\n        /* \"#utility.yul\":13270:13279   */\n      dup6\n        /* \"#utility.yul\":13266:13284   */\n      add\n        /* \"#utility.yul\":13253:13284   */\n      swap5\n      pop\n        /* \"#utility.yul\":13127:13131   */\n      0x20\n        /* \"#utility.yul\":13124:13125   */\n      dup2\n        /* \"#utility.yul\":13120:13132   */\n      add\n        /* \"#utility.yul\":13115:13132   */\n      swap1\n      pop\n        /* \"#utility.yul\":13090:13298   */\n      jump(tag_288)\n    tag_290:\n        /* \"#utility.yul\":13326:13332   */\n      dup7\n        /* \"#utility.yul\":13317:13324   */\n      dup4\n        /* \"#utility.yul\":13314:13333   */\n      lt\n        /* \"#utility.yul\":13311:13490   */\n      iszero\n      tag_291\n      jumpi\n        /* \"#utility.yul\":13384:13393   */\n      dup5\n        /* \"#utility.yul\":13379:13382   */\n      dup10\n        /* \"#utility.yul\":13375:13394   */\n      add\n        /* \"#utility.yul\":13369:13395   */\n      mload\n        /* \"#utility.yul\":13427:13475   */\n      tag_292\n        /* \"#utility.yul\":13469:13473   */\n      0x1f\n        /* \"#utility.yul\":13461:13467   */\n      dup10\n        /* \"#utility.yul\":13457:13474   */\n      and\n        /* \"#utility.yul\":13446:13455   */\n      dup3\n        /* \"#utility.yul\":13427:13475   */\n      tag_137\n      jump\t// in\n    tag_292:\n        /* \"#utility.yul\":13419:13425   */\n      dup4\n        /* \"#utility.yul\":13412:13476   */\n      sstore\n        /* \"#utility.yul\":13334:13490   */\n      pop\n        /* \"#utility.yul\":13311:13490   */\n    tag_291:\n        /* \"#utility.yul\":13536:13537   */\n      0x01\n        /* \"#utility.yul\":13532:13533   */\n      0x02\n        /* \"#utility.yul\":13524:13530   */\n      dup9\n        /* \"#utility.yul\":13520:13534   */\n      mul\n        /* \"#utility.yul\":13516:13538   */\n      add\n        /* \"#utility.yul\":13510:13514   */\n      dup9\n        /* \"#utility.yul\":13503:13539   */\n      sstore\n        /* \"#utility.yul\":12938:13549   */\n      pop\n      pop\n      pop\n        /* \"#utility.yul\":12901:13788   */\n    tag_283:\n      pop\n        /* \"#utility.yul\":12491:13794   */\n      pop\n      pop\n      pop\n        /* \"#utility.yul\":12399:13794   */\n      pop\n      pop\n      jump\t// out\n\n    auxdata: 0xa2646970667358221220d405ea02bbcd9519cf5d7179b33620ee630a03e648c28fb1d019856bbb3c697564736f6c63430008170033\n}\n",
				"bytecode": {
					"linkReferences": {},
					"object": "608060405234801561000f575f80fd5b50610ed88061001d5f395ff3fe608060405234801561000f575f80fd5b5060043610610055575f3560e01c80631cf0830b14610059578063837f887814610077578063aa070fb514610081578063c7853148146100b1578063d81aa8c4146100e1575b5f80fd5b6100616100fd565b60405161006e91906108aa565b60405180910390f35b61007f610454565b005b61009b60048036038101906100969190610968565b61049d565b6040516100a891906109ee565b60405180910390f35b6100cb60048036038101906100c69190610a0e565b61054d565b6040516100d891906108aa565b60405180910390f35b6100fb60048036038101906100f69190610b65565b61065d565b005b60605f600967ffffffffffffffff81111561011b5761011a610a41565b5b60405190808252806020026020018201604052801561014e57816020015b60608152602001906001900390816101395790505b5090506040518060400160405280600881526020017f546872696c6c6572000000000000000000000000000000000000000000000000815250815f8151811061019a57610199610bac565b5b60200260200101819052506040518060400160405280600d81526020017f4261636b20696e20426c61636b00000000000000000000000000000000000000815250816001815181106101ef576101ee610bac565b5b60200260200101819052506040518060400160405280600d81526020017f54686520426f64796775617264000000000000000000000000000000000000008152508160028151811061024457610243610bac565b5b60200260200101819052506040518060400160405280601981526020017f546865204461726b2053696465206f6620746865204d6f6f6e000000000000008152508160038151811061029957610298610bac565b5b60200260200101819052506040518060400160405280601f81526020017f546865697220477265617465737420486974732028313937312d313937352900815250816004815181106102ee576102ed610bac565b5b60200260200101819052506040518060400160405280601081526020017f486f74656c2043616c69666f726e6961000000000000000000000000000000008152508160058151811061034357610342610bac565b5b60200260200101819052506040518060400160405280600c81526020017f436f6d65204f6e204f76657200000000000000000000000000000000000000008152508160068151811061039857610397610bac565b5b60200260200101819052506040518060400160405280600781526020017f52756d6f75727300000000000000000000000000000000000000000000000000815250816007815181106103ed576103ec610bac565b5b60200260200101819052506040518060400160405280601481526020017f5361747572646179204e696768742046657665720000000000000000000000008152508160088151811061044257610441610bac565b5b60200260200101819052508091505090565b5f803373ffffffffffffffffffffffffffffffffffffffff1673ffffffffffffffffffffffffffffffffffffffff1681526020019081526020015f205f61049b91906106cc565b565b5f602052815f5260405f2081815481106104b5575f80fd5b905f5260205f20015f915091505080546104ce90610c06565b80601f01602080910402602001604051908101604052809291908181526020018280546104fa90610c06565b80156105455780601f1061051c57610100808354040283529160200191610545565b820191905f5260205f20905b81548152906001019060200180831161052857829003601f168201915b505050505081565b60605f808373ffffffffffffffffffffffffffffffffffffffff1673ffffffffffffffffffffffffffffffffffffffff1681526020019081526020015f20805480602002602001604051908101604052809291908181526020015f905b82821015610652578382905f5260205f200180546105c790610c06565b80601f01602080910402602001604051908101604052809291908181526020018280546105f390610c06565b801561063e5780601f106106155761010080835404028352916020019161063e565b820191905f5260205f20905b81548152906001019060200180831161062157829003601f168201915b5050505050815260200190600101906105aa565b505050509050919050565b5f803373ffffffffffffffffffffffffffffffffffffffff1673ffffffffffffffffffffffffffffffffffffffff1681526020019081526020015f2081908060018154018082558091505060019003905f5260205f20015f9091909190915090816106c89190610dd3565b5050565b5080545f8255905f5260205f20908101906106e791906106ea565b50565b5b80821115610709575f8181610700919061070d565b506001016106eb565b5090565b50805461071990610c06565b5f825580601f1061072a5750610747565b601f0160209004905f5260205f2090810190610746919061074a565b5b50565b5b80821115610761575f815f90555060010161074b565b5090565b5f81519050919050565b5f82825260208201905092915050565b5f819050602082019050919050565b5f81519050919050565b5f82825260208201905092915050565b5f5b838110156107c55780820151818401526020810190506107aa565b5f8484015250505050565b5f601f19601f8301169050919050565b5f6107ea8261078e565b6107f48185610798565b93506108048185602086016107a8565b61080d816107d0565b840191505092915050565b5f61082383836107e0565b905092915050565b5f602082019050919050565b5f61084182610765565b61084b818561076f565b93508360208202850161085d8561077f565b805f5b8581101561089857848403895281516108798582610818565b94506108848361082b565b925060208a01995050600181019050610860565b50829750879550505050505092915050565b5f6020820190508181035f8301526108c28184610837565b905092915050565b5f604051905090565b5f80fd5b5f80fd5b5f73ffffffffffffffffffffffffffffffffffffffff82169050919050565b5f610904826108db565b9050919050565b610914816108fa565b811461091e575f80fd5b50565b5f8135905061092f8161090b565b92915050565b5f819050919050565b61094781610935565b8114610951575f80fd5b50565b5f813590506109628161093e565b92915050565b5f806040838503121561097e5761097d6108d3565b5b5f61098b85828601610921565b925050602061099c85828601610954565b9150509250929050565b5f82825260208201905092915050565b5f6109c08261078e565b6109ca81856109a6565b93506109da8185602086016107a8565b6109e3816107d0565b840191505092915050565b5f6020820190508181035f830152610a0681846109b6565b905092915050565b5f60208284031215610a2357610a226108d3565b5b5f610a3084828501610921565b91505092915050565b5f80fd5b5f80fd5b7f4e487b71000000000000000000000000000000000000000000000000000000005f52604160045260245ffd5b610a77826107d0565b810181811067ffffffffffffffff82111715610a9657610a95610a41565b5b80604052505050565b5f610aa86108ca565b9050610ab48282610a6e565b919050565b5f67ffffffffffffffff821115610ad357610ad2610a41565b5b610adc826107d0565b9050602081019050919050565b828183375f83830152505050565b5f610b09610b0484610ab9565b610a9f565b905082815260208101848484011115610b2557610b24610a3d565b5b610b30848285610ae9565b509392505050565b5f82601f830112610b4c57610b4b610a39565b5b8135610b5c848260208601610af7565b91505092915050565b5f60208284031215610b7a57610b796108d3565b5b5f82013567ffffffffffffffff811115610b9757610b966108d7565b5b610ba384828501610b38565b91505092915050565b7f4e487b71000000000000000000000000000000000000000000000000000000005f52603260045260245ffd5b7f4e487b71000000000000000000000000000000000000000000000000000000005f52602260045260245ffd5b5f6002820490506001821680610c1d57607f821691505b602082108103610c3057610c2f610bd9565b5b50919050565b5f819050815f5260205f209050919050565b5f6020601f8301049050919050565b5f82821b905092915050565b5f60088302610c927fffffffffffffffffffffffffffffffffffffffffffffffffffffffffffffffff82610c57565b610c9c8683610c57565b95508019841693508086168417925050509392505050565b5f819050919050565b5f610cd7610cd2610ccd84610935565b610cb4565b610935565b9050919050565b5f819050919050565b610cf083610cbd565b610d04610cfc82610cde565b848454610c63565b825550505050565b5f90565b610d18610d0c565b610d23818484610ce7565b505050565b5b81811015610d4657610d3b5f82610d10565b600181019050610d29565b5050565b601f821115610d8b57610d5c81610c36565b610d6584610c48565b81016020851015610d74578190505b610d88610d8085610c48565b830182610d28565b50505b505050565b5f82821c905092915050565b5f610dab5f1984600802610d90565b1980831691505092915050565b5f610dc38383610d9c565b9150826002028217905092915050565b610ddc8261078e565b67ffffffffffffffff811115610df557610df4610a41565b5b610dff8254610c06565b610e0a828285610d4a565b5f60209050601f831160018114610e3b575f8415610e29578287015190505b610e338582610db8565b865550610e9a565b601f198416610e4986610c36565b5f5b82811015610e7057848901518255600182019150602085019450602081019050610e4b565b86831015610e8d5784890151610e89601f891682610d9c565b8355505b6001600288020188555050505b50505050505056fea2646970667358221220d405ea02bbcd9519cf5d7179b33620ee630a03e648c28fb1d019856bbb3c697564736f6c63430008170033",
					"opcodes": "PUSH1 0x80 PUSH1 0x40 MSTORE CALLVALUE DUP1 ISZERO PUSH2 0xF JUMPI PUSH0 DUP1 REVERT JUMPDEST POP PUSH2 0xED8 DUP1 PUSH2 0x1D PUSH0 CODECOPY PUSH0 RETURN INVALID PUSH1 0x80 PUSH1 0x40 MSTORE CALLVALUE DUP1 ISZERO PUSH2 0xF JUMPI PUSH0 DUP1 REVERT JUMPDEST POP PUSH1 0x4 CALLDATASIZE LT PUSH2 0x55 JUMPI PUSH0 CALLDATALOAD PUSH1 0xE0 SHR DUP1 PUSH4 0x1CF0830B EQ PUSH2 0x59 JUMPI DUP1 PUSH4 0x837F8878 EQ PUSH2 0x77 JUMPI DUP1 PUSH4 0xAA070FB5 EQ PUSH2 0x81 JUMPI DUP1 PUSH4 0xC7853148 EQ PUSH2 0xB1 JUMPI DUP1 PUSH4 0xD81AA8C4 EQ PUSH2 0xE1 JUMPI JUMPDEST PUSH0 DUP1 REVERT JUMPDEST PUSH2 0x61 PUSH2 0xFD JUMP JUMPDEST PUSH1 0x40 MLOAD PUSH2 0x6E SWAP2 SWAP1 PUSH2 0x8AA JUMP JUMPDEST PUSH1 0x40 MLOAD DUP1 SWAP2 SUB SWAP1 RETURN JUMPDEST PUSH2 0x7F PUSH2 0x454 JUMP JUMPDEST STOP JUMPDEST PUSH2 0x9B PUSH1 0x4 DUP1 CALLDATASIZE SUB DUP2 ADD SWAP1 PUSH2 0x96 SWAP2 SWAP1 PUSH2 0x968 JUMP JUMPDEST PUSH2 0x49D JUMP JUMPDEST PUSH1 0x40 MLOAD PUSH2 0xA8 SWAP2 SWAP1 PUSH2 0x9EE JUMP JUMPDEST PUSH1 0x40 MLOAD DUP1 SWAP2 SUB SWAP1 RETURN JUMPDEST PUSH2 0xCB PUSH1 0x4 DUP1 CALLDATASIZE SUB DUP2 ADD SWAP1 PUSH2 0xC6 SWAP2 SWAP1 PUSH2 0xA0E JUMP JUMPDEST PUSH2 0x54D JUMP JUMPDEST PUSH1 0x40 MLOAD PUSH2 0xD8 SWAP2 SWAP1 PUSH2 0x8AA JUMP JUMPDEST PUSH1 0x40 MLOAD DUP1 SWAP2 SUB SWAP1 RETURN JUMPDEST PUSH2 0xFB PUSH1 0x4 DUP1 CALLDATASIZE SUB DUP2 ADD SWAP1 PUSH2 0xF6 SWAP2 SWAP1 PUSH2 0xB65 JUMP JUMPDEST PUSH2 0x65D JUMP JUMPDEST STOP JUMPDEST PUSH1 0x60 PUSH0 PUSH1 0x9 PUSH8 0xFFFFFFFFFFFFFFFF DUP2 GT ISZERO PUSH2 0x11B JUMPI PUSH2 0x11A PUSH2 0xA41 JUMP JUMPDEST JUMPDEST PUSH1 0x40 MLOAD SWAP1 DUP1 DUP3 MSTORE DUP1 PUSH1 0x20 MUL PUSH1 0x20 ADD DUP3 ADD PUSH1 0x40 MSTORE DUP1 ISZERO PUSH2 0x14E JUMPI DUP2 PUSH1 0x20 ADD JUMPDEST PUSH1 0x60 DUP2 MSTORE PUSH1 0x20 ADD SWAP1 PUSH1 0x1 SWAP1 SUB SWAP1 DUP2 PUSH2 0x139 JUMPI SWAP1 POP JUMPDEST POP SWAP1 POP PUSH1 0x40 MLOAD DUP1 PUSH1 0x40 ADD PUSH1 0x40 MSTORE DUP1 PUSH1 0x8 DUP2 MSTORE PUSH1 0x20 ADD PUSH32 0x546872696C6C6572000000000000000000000000000000000000000000000000 DUP2 MSTORE POP DUP2 PUSH0 DUP2 MLOAD DUP2 LT PUSH2 0x19A JUMPI PUSH2 0x199 PUSH2 0xBAC JUMP JUMPDEST JUMPDEST PUSH1 0x20 MUL PUSH1 0x20 ADD ADD DUP2 SWAP1 MSTORE POP PUSH1 0x40 MLOAD DUP1 PUSH1 0x40 ADD PUSH1 0x40 MSTORE DUP1 PUSH1 0xD DUP2 MSTORE PUSH1 0x20 ADD PUSH32 0x4261636B20696E20426C61636B00000000000000000000000000000000000000 DUP2 MSTORE POP DUP2 PUSH1 0x1 DUP2 MLOAD DUP2 LT PUSH2 0x1EF JUMPI PUSH2 0x1EE PUSH2 0xBAC JUMP JUMPDEST JUMPDEST PUSH1 0x20 MUL PUSH1 0x20 ADD ADD DUP2 SWAP1 MSTORE POP PUSH1 0x40 MLOAD DUP1 PUSH1 0x40 ADD PUSH1 0x40 MSTORE DUP1 PUSH1 0xD DUP2 MSTORE PUSH1 0x20 ADD PUSH32 0x54686520426F6479677561726400000000000000000000000000000000000000 DUP2 MSTORE POP DUP2 PUSH1 0x2 DUP2 MLOAD DUP2 LT PUSH2 0x244 JUMPI PUSH2 0x243 PUSH2 0xBAC JUMP JUMPDEST JUMPDEST PUSH1 0x20 MUL PUSH1 0x20 ADD ADD DUP2 SWAP1 MSTORE POP PUSH1 0x40 MLOAD DUP1 PUSH1 0x40 ADD PUSH1 0x40 MSTORE DUP1 PUSH1 0x19 DUP2 MSTORE PUSH1 0x20 ADD PUSH32 0x546865204461726B2053696465206F6620746865204D6F6F6E00000000000000 DUP2 MSTORE POP DUP2 PUSH1 0x3 DUP2 MLOAD DUP2 LT PUSH2 0x299 JUMPI PUSH2 0x298 PUSH2 0xBAC JUMP JUMPDEST JUMPDEST PUSH1 0x20 MUL PUSH1 0x20 ADD ADD DUP2 SWAP1 MSTORE POP PUSH1 0x40 MLOAD DUP1 PUSH1 0x40 ADD PUSH1 0x40 MSTORE DUP1 PUSH1 0x1F DUP2 MSTORE PUSH1 0x20 ADD PUSH32 0x546865697220477265617465737420486974732028313937312D313937352900 DUP2 MSTORE POP DUP2 PUSH1 0x4 DUP2 MLOAD DUP2 LT PUSH2 0x2EE JUMPI PUSH2 0x2ED PUSH2 0xBAC JUMP JUMPDEST JUMPDEST PUSH1 0x20 MUL PUSH1 0x20 ADD ADD DUP2 SWAP1 MSTORE POP PUSH1 0x40 MLOAD DUP1 PUSH1 0x40 ADD PUSH1 0x40 MSTORE DUP1 PUSH1 0x10 DUP2 MSTORE PUSH1 0x20 ADD PUSH32 0x486F74656C2043616C69666F726E696100000000000000000000000000000000 DUP2 MSTORE POP DUP2 PUSH1 0x5 DUP2 MLOAD DUP2 LT PUSH2 0x343 JUMPI PUSH2 0x342 PUSH2 0xBAC JUMP JUMPDEST JUMPDEST PUSH1 0x20 MUL PUSH1 0x20 ADD ADD DUP2 SWAP1 MSTORE POP PUSH1 0x40 MLOAD DUP1 PUSH1 0x40 ADD PUSH1 0x40 MSTORE DUP1 PUSH1 0xC DUP2 MSTORE PUSH1 0x20 ADD PUSH32 0x436F6D65204F6E204F7665720000000000000000000000000000000000000000 DUP2 MSTORE POP DUP2 PUSH1 0x6 DUP2 MLOAD DUP2 LT PUSH2 0x398 JUMPI PUSH2 0x397 PUSH2 0xBAC JUMP JUMPDEST JUMPDEST PUSH1 0x20 MUL PUSH1 0x20 ADD ADD DUP2 SWAP1 MSTORE POP PUSH1 0x40 MLOAD DUP1 PUSH1 0x40 ADD PUSH1 0x40 MSTORE DUP1 PUSH1 0x7 DUP2 MSTORE PUSH1 0x20 ADD PUSH32 0x52756D6F75727300000000000000000000000000000000000000000000000000 DUP2 MSTORE POP DUP2 PUSH1 0x7 DUP2 MLOAD DUP2 LT PUSH2 0x3ED JUMPI PUSH2 0x3EC PUSH2 0xBAC JUMP JUMPDEST JUMPDEST PUSH1 0x20 MUL PUSH1 0x20 ADD ADD DUP2 SWAP1 MSTORE POP PUSH1 0x40 MLOAD DUP1 PUSH1 0x40 ADD PUSH1 0x40 MSTORE DUP1 PUSH1 0x14 DUP2 MSTORE PUSH1 0x20 ADD PUSH32 0x5361747572646179204E69676874204665766572000000000000000000000000 DUP2 MSTORE POP DUP2 PUSH1 0x8 DUP2 MLOAD DUP2 LT PUSH2 0x442 JUMPI PUSH2 0x441 PUSH2 0xBAC JUMP JUMPDEST JUMPDEST PUSH1 0x20 MUL PUSH1 0x20 ADD ADD DUP2 SWAP1 MSTORE POP DUP1 SWAP2 POP POP SWAP1 JUMP JUMPDEST PUSH0 DUP1 CALLER PUSH20 0xFFFFFFFFFFFFFFFFFFFFFFFFFFFFFFFFFFFFFFFF AND PUSH20 0xFFFFFFFFFFFFFFFFFFFFFFFFFFFFFFFFFFFFFFFF AND DUP2 MSTORE PUSH1 0x20 ADD SWAP1 DUP2 MSTORE PUSH1 0x20 ADD PUSH0 KECCAK256 PUSH0 PUSH2 0x49B SWAP2 SWAP1 PUSH2 0x6CC JUMP JUMPDEST JUMP JUMPDEST PUSH0 PUSH1 0x20 MSTORE DUP2 PUSH0 MSTORE PUSH1 0x40 PUSH0 KECCAK256 DUP2 DUP2 SLOAD DUP2 LT PUSH2 0x4B5 JUMPI PUSH0 DUP1 REVERT JUMPDEST SWAP1 PUSH0 MSTORE PUSH1 0x20 PUSH0 KECCAK256 ADD PUSH0 SWAP2 POP SWAP2 POP POP DUP1 SLOAD PUSH2 0x4CE SWAP1 PUSH2 0xC06 JUMP JUMPDEST DUP1 PUSH1 0x1F ADD PUSH1 0x20 DUP1 SWAP2 DIV MUL PUSH1 0x20 ADD PUSH1 0x40 MLOAD SWAP1 DUP2 ADD PUSH1 0x40 MSTORE DUP1 SWAP3 SWAP2 SWAP1 DUP2 DUP2 MSTORE PUSH1 0x20 ADD DUP3 DUP1 SLOAD PUSH2 0x4FA SWAP1 PUSH2 0xC06 JUMP JUMPDEST DUP1 ISZERO PUSH2 0x545 JUMPI DUP1 PUSH1 0x1F LT PUSH2 0x51C JUMPI PUSH2 0x100 DUP1 DUP4 SLOAD DIV MUL DUP4 MSTORE SWAP2 PUSH1 0x20 ADD SWAP2 PUSH2 0x545 JUMP JUMPDEST DUP3 ADD SWAP2 SWAP1 PUSH0 MSTORE PUSH1 0x20 PUSH0 KECCAK256 SWAP1 JUMPDEST DUP2 SLOAD DUP2 MSTORE SWAP1 PUSH1 0x1 ADD SWAP1 PUSH1 0x20 ADD DUP1 DUP4 GT PUSH2 0x528 JUMPI DUP3 SWAP1 SUB PUSH1 0x1F AND DUP3 ADD SWAP2 JUMPDEST POP POP POP POP POP DUP2 JUMP JUMPDEST PUSH1 0x60 PUSH0 DUP1 DUP4 PUSH20 0xFFFFFFFFFFFFFFFFFFFFFFFFFFFFFFFFFFFFFFFF AND PUSH20 0xFFFFFFFFFFFFFFFFFFFFFFFFFFFFFFFFFFFFFFFF AND DUP2 MSTORE PUSH1 0x20 ADD SWAP1 DUP2 MSTORE PUSH1 0x20 ADD PUSH0 KECCAK256 DUP1 SLOAD DUP1 PUSH1 0x20 MUL PUSH1 0x20 ADD PUSH1 0x40 MLOAD SWAP1 DUP2 ADD PUSH1 0x40 MSTORE DUP1 SWAP3 SWAP2 SWAP1 DUP2 DUP2 MSTORE PUSH1 0x20 ADD PUSH0 SWAP1 JUMPDEST DUP3 DUP3 LT ISZERO PUSH2 0x652 JUMPI DUP4 DUP3 SWAP1 PUSH0 MSTORE PUSH1 0x20 PUSH0 KECCAK256 ADD DUP1 SLOAD PUSH2 0x5C7 SWAP1 PUSH2 0xC06 JUMP JUMPDEST DUP1 PUSH1 0x1F ADD PUSH1 0x20 DUP1 SWAP2 DIV MUL PUSH1 0x20 ADD PUSH1 0x40 MLOAD SWAP1 DUP2 ADD PUSH1 0x40 MSTORE DUP1 SWAP3 SWAP2 SWAP1 DUP2 DUP2 MSTORE PUSH1 0x20 ADD DUP3 DUP1 SLOAD PUSH2 0x5F3 SWAP1 PUSH2 0xC06 JUMP JUMPDEST DUP1 ISZERO PUSH2 0x63E JUMPI DUP1 PUSH1 0x1F LT PUSH2 0x615 JUMPI PUSH2 0x100 DUP1 DUP4 SLOAD DIV MUL DUP4 MSTORE SWAP2 PUSH1 0x20 ADD SWAP2 PUSH2 0x63E JUMP JUMPDEST DUP3 ADD SWAP2 SWAP1 PUSH0 MSTORE PUSH1 0x20 PUSH0 KECCAK256 SWAP1 JUMPDEST DUP2 SLOAD DUP2 MSTORE SWAP1 PUSH1 0x1 ADD SWAP1 PUSH1 0x20 ADD DUP1 DUP4 GT PUSH2 0x621 JUMPI DUP3 SWAP1 SUB PUSH1 0x1F AND DUP3 ADD SWAP2 JUMPDEST POP POP POP POP POP DUP2 MSTORE PUSH1 0x20 ADD SWAP1 PUSH1 0x1 ADD SWAP1 PUSH2 0x5AA JUMP JUMPDEST POP POP POP POP SWAP1 POP SWAP2 SWAP1 POP JUMP JUMPDEST PUSH0 DUP1 CALLER PUSH20 0xFFFFFFFFFFFFFFFFFFFFFFFFFFFFFFFFFFFFFFFF AND PUSH20 0xFFFFFFFFFFFFFFFFFFFFFFFFFFFFFFFFFFFFFFFF AND DUP2 MSTORE PUSH1 0x20 ADD SWAP1 DUP2 MSTORE PUSH1 0x20 ADD PUSH0 KECCAK256 DUP2 SWAP1 DUP1 PUSH1 0x1 DUP2 SLOAD ADD DUP1 DUP3 SSTORE DUP1 SWAP2 POP POP PUSH1 0x1 SWAP1 SUB SWAP1 PUSH0 MSTORE PUSH1 0x20 PUSH0 KECCAK256 ADD PUSH0 SWAP1 SWAP2 SWAP1 SWAP2 SWAP1 SWAP2 POP SWAP1 DUP2 PUSH2 0x6C8 SWAP2 SWAP1 PUSH2 0xDD3 JUMP JUMPDEST POP POP JUMP JUMPDEST POP DUP1 SLOAD PUSH0 DUP3 SSTORE SWAP1 PUSH0 MSTORE PUSH1 0x20 PUSH0 KECCAK256 SWAP1 DUP2 ADD SWAP1 PUSH2 0x6E7 SWAP2 SWAP1 PUSH2 0x6EA JUMP JUMPDEST POP JUMP JUMPDEST JUMPDEST DUP1 DUP3 GT ISZERO PUSH2 0x709 JUMPI PUSH0 DUP2 DUP2 PUSH2 0x700 SWAP2 SWAP1 PUSH2 0x70D JUMP JUMPDEST POP PUSH1 0x1 ADD PUSH2 0x6EB JUMP JUMPDEST POP SWAP1 JUMP JUMPDEST POP DUP1 SLOAD PUSH2 0x719 SWAP1 PUSH2 0xC06 JUMP JUMPDEST PUSH0 DUP3 SSTORE DUP1 PUSH1 0x1F LT PUSH2 0x72A JUMPI POP PUSH2 0x747 JUMP JUMPDEST PUSH1 0x1F ADD PUSH1 0x20 SWAP1 DIV SWAP1 PUSH0 MSTORE PUSH1 0x20 PUSH0 KECCAK256 SWAP1 DUP2 ADD SWAP1 PUSH2 0x746 SWAP2 SWAP1 PUSH2 0x74A JUMP JUMPDEST JUMPDEST POP JUMP JUMPDEST JUMPDEST DUP1 DUP3 GT ISZERO PUSH2 0x761 JUMPI PUSH0 DUP2 PUSH0 SWAP1 SSTORE POP PUSH1 0x1 ADD PUSH2 0x74B JUMP JUMPDEST POP SWAP1 JUMP JUMPDEST PUSH0 DUP2 MLOAD SWAP1 POP SWAP2 SWAP1 POP JUMP JUMPDEST PUSH0 DUP3 DUP3 MSTORE PUSH1 0x20 DUP3 ADD SWAP1 POP SWAP3 SWAP2 POP POP JUMP JUMPDEST PUSH0 DUP2 SWAP1 POP PUSH1 0x20 DUP3 ADD SWAP1 POP SWAP2 SWAP1 POP JUMP JUMPDEST PUSH0 DUP2 MLOAD SWAP1 POP SWAP2 SWAP1 POP JUMP JUMPDEST PUSH0 DUP3 DUP3 MSTORE PUSH1 0x20 DUP3 ADD SWAP1 POP SWAP3 SWAP2 POP POP JUMP JUMPDEST PUSH0 JUMPDEST DUP4 DUP2 LT ISZERO PUSH2 0x7C5 JUMPI DUP1 DUP3 ADD MLOAD DUP2 DUP5 ADD MSTORE PUSH1 0x20 DUP2 ADD SWAP1 POP PUSH2 0x7AA JUMP JUMPDEST PUSH0 DUP5 DUP5 ADD MSTORE POP POP POP POP JUMP JUMPDEST PUSH0 PUSH1 0x1F NOT PUSH1 0x1F DUP4 ADD AND SWAP1 POP SWAP2 SWAP1 POP JUMP JUMPDEST PUSH0 PUSH2 0x7EA DUP3 PUSH2 0x78E JUMP JUMPDEST PUSH2 0x7F4 DUP2 DUP6 PUSH2 0x798 JUMP JUMPDEST SWAP4 POP PUSH2 0x804 DUP2 DUP6 PUSH1 0x20 DUP7 ADD PUSH2 0x7A8 JUMP JUMPDEST PUSH2 0x80D DUP2 PUSH2 0x7D0 JUMP JUMPDEST DUP5 ADD SWAP2 POP POP SWAP3 SWAP2 POP POP JUMP JUMPDEST PUSH0 PUSH2 0x823 DUP4 DUP4 PUSH2 0x7E0 JUMP JUMPDEST SWAP1 POP SWAP3 SWAP2 POP POP JUMP JUMPDEST PUSH0 PUSH1 0x20 DUP3 ADD SWAP1 POP SWAP2 SWAP1 POP JUMP JUMPDEST PUSH0 PUSH2 0x841 DUP3 PUSH2 0x765 JUMP JUMPDEST PUSH2 0x84B DUP2 DUP6 PUSH2 0x76F JUMP JUMPDEST SWAP4 POP DUP4 PUSH1 0x20 DUP3 MUL DUP6 ADD PUSH2 0x85D DUP6 PUSH2 0x77F JUMP JUMPDEST DUP1 PUSH0 JUMPDEST DUP6 DUP2 LT ISZERO PUSH2 0x898 JUMPI DUP5 DUP5 SUB DUP10 MSTORE DUP2 MLOAD PUSH2 0x879 DUP6 DUP3 PUSH2 0x818 JUMP JUMPDEST SWAP5 POP PUSH2 0x884 DUP4 PUSH2 0x82B JUMP JUMPDEST SWAP3 POP PUSH1 0x20 DUP11 ADD SWAP10 POP POP PUSH1 0x1 DUP2 ADD SWAP1 POP PUSH2 0x860 JUMP JUMPDEST POP DUP3 SWAP8 POP DUP8 SWAP6 POP POP POP POP POP POP SWAP3 SWAP2 POP POP JUMP JUMPDEST PUSH0 PUSH1 0x20 DUP3 ADD SWAP1 POP DUP2 DUP2 SUB PUSH0 DUP4 ADD MSTORE PUSH2 0x8C2 DUP2 DUP5 PUSH2 0x837 JUMP JUMPDEST SWAP1 POP SWAP3 SWAP2 POP POP JUMP JUMPDEST PUSH0 PUSH1 0x40 MLOAD SWAP1 POP SWAP1 JUMP JUMPDEST PUSH0 DUP1 REVERT JUMPDEST PUSH0 DUP1 REVERT JUMPDEST PUSH0 PUSH20 0xFFFFFFFFFFFFFFFFFFFFFFFFFFFFFFFFFFFFFFFF DUP3 AND SWAP1 POP SWAP2 SWAP1 POP JUMP JUMPDEST PUSH0 PUSH2 0x904 DUP3 PUSH2 0x8DB JUMP JUMPDEST SWAP1 POP SWAP2 SWAP1 POP JUMP JUMPDEST PUSH2 0x914 DUP2 PUSH2 0x8FA JUMP JUMPDEST DUP2 EQ PUSH2 0x91E JUMPI PUSH0 DUP1 REVERT JUMPDEST POP JUMP JUMPDEST PUSH0 DUP2 CALLDATALOAD SWAP1 POP PUSH2 0x92F DUP2 PUSH2 0x90B JUMP JUMPDEST SWAP3 SWAP2 POP POP JUMP JUMPDEST PUSH0 DUP2 SWAP1 POP SWAP2 SWAP1 POP JUMP JUMPDEST PUSH2 0x947 DUP2 PUSH2 0x935 JUMP JUMPDEST DUP2 EQ PUSH2 0x951 JUMPI PUSH0 DUP1 REVERT JUMPDEST POP JUMP JUMPDEST PUSH0 DUP2 CALLDATALOAD SWAP1 POP PUSH2 0x962 DUP2 PUSH2 0x93E JUMP JUMPDEST SWAP3 SWAP2 POP POP JUMP JUMPDEST PUSH0 DUP1 PUSH1 0x40 DUP4 DUP6 SUB SLT ISZERO PUSH2 0x97E JUMPI PUSH2 0x97D PUSH2 0x8D3 JUMP JUMPDEST JUMPDEST PUSH0 PUSH2 0x98B DUP6 DUP3 DUP7 ADD PUSH2 0x921 JUMP JUMPDEST SWAP3 POP POP PUSH1 0x20 PUSH2 0x99C DUP6 DUP3 DUP7 ADD PUSH2 0x954 JUMP JUMPDEST SWAP2 POP POP SWAP3 POP SWAP3 SWAP1 POP JUMP JUMPDEST PUSH0 DUP3 DUP3 MSTORE PUSH1 0x20 DUP3 ADD SWAP1 POP SWAP3 SWAP2 POP POP JUMP JUMPDEST PUSH0 PUSH2 0x9C0 DUP3 PUSH2 0x78E JUMP JUMPDEST PUSH2 0x9CA DUP2 DUP6 PUSH2 0x9A6 JUMP JUMPDEST SWAP4 POP PUSH2 0x9DA DUP2 DUP6 PUSH1 0x20 DUP7 ADD PUSH2 0x7A8 JUMP JUMPDEST PUSH2 0x9E3 DUP2 PUSH2 0x7D0 JUMP JUMPDEST DUP5 ADD SWAP2 POP POP SWAP3 SWAP2 POP POP JUMP JUMPDEST PUSH0 PUSH1 0x20 DUP3 ADD SWAP1 POP DUP2 DUP2 SUB PUSH0 DUP4 ADD MSTORE PUSH2 0xA06 DUP2 DUP5 PUSH2 0x9B6 JUMP JUMPDEST SWAP1 POP SWAP3 SWAP2 POP POP JUMP JUMPDEST PUSH0 PUSH1 0x20 DUP3 DUP5 SUB SLT ISZERO PUSH2 0xA23 JUMPI PUSH2 0xA22 PUSH2 0x8D3 JUMP JUMPDEST JUMPDEST PUSH0 PUSH2 0xA30 DUP5 DUP3 DUP6 ADD PUSH2 0x921 JUMP JUMPDEST SWAP2 POP POP SWAP3 SWAP2 POP POP JUMP JUMPDEST PUSH0 DUP1 REVERT JUMPDEST PUSH0 DUP1 REVERT JUMPDEST PUSH32 0x4E487B7100000000000000000000000000000000000000000000000000000000 PUSH0 MSTORE PUSH1 0x41 PUSH1 0x4 MSTORE PUSH1 0x24 PUSH0 REVERT JUMPDEST PUSH2 0xA77 DUP3 PUSH2 0x7D0 JUMP JUMPDEST DUP2 ADD DUP2 DUP2 LT PUSH8 0xFFFFFFFFFFFFFFFF DUP3 GT OR ISZERO PUSH2 0xA96 JUMPI PUSH2 0xA95 PUSH2 0xA41 JUMP JUMPDEST JUMPDEST DUP1 PUSH1 0x40 MSTORE POP POP POP JUMP JUMPDEST PUSH0 PUSH2 0xAA8 PUSH2 0x8CA JUMP JUMPDEST SWAP1 POP PUSH2 0xAB4 DUP3 DUP3 PUSH2 0xA6E JUMP JUMPDEST SWAP2 SWAP1 POP JUMP JUMPDEST PUSH0 PUSH8 0xFFFFFFFFFFFFFFFF DUP3 GT ISZERO PUSH2 0xAD3 JUMPI PUSH2 0xAD2 PUSH2 0xA41 JUMP JUMPDEST JUMPDEST PUSH2 0xADC DUP3 PUSH2 0x7D0 JUMP JUMPDEST SWAP1 POP PUSH1 0x20 DUP2 ADD SWAP1 POP SWAP2 SWAP1 POP JUMP JUMPDEST DUP3 DUP2 DUP4 CALLDATACOPY PUSH0 DUP4 DUP4 ADD MSTORE POP POP POP JUMP JUMPDEST PUSH0 PUSH2 0xB09 PUSH2 0xB04 DUP5 PUSH2 0xAB9 JUMP JUMPDEST PUSH2 0xA9F JUMP JUMPDEST SWAP1 POP DUP3 DUP2 MSTORE PUSH1 0x20 DUP2 ADD DUP5 DUP5 DUP5 ADD GT ISZERO PUSH2 0xB25 JUMPI PUSH2 0xB24 PUSH2 0xA3D JUMP JUMPDEST JUMPDEST PUSH2 0xB30 DUP5 DUP3 DUP6 PUSH2 0xAE9 JUMP JUMPDEST POP SWAP4 SWAP3 POP POP POP JUMP JUMPDEST PUSH0 DUP3 PUSH1 0x1F DUP4 ADD SLT PUSH2 0xB4C JUMPI PUSH2 0xB4B PUSH2 0xA39 JUMP JUMPDEST JUMPDEST DUP2 CALLDATALOAD PUSH2 0xB5C DUP5 DUP3 PUSH1 0x20 DUP7 ADD PUSH2 0xAF7 JUMP JUMPDEST SWAP2 POP POP SWAP3 SWAP2 POP POP JUMP JUMPDEST PUSH0 PUSH1 0x20 DUP3 DUP5 SUB SLT ISZERO PUSH2 0xB7A JUMPI PUSH2 0xB79 PUSH2 0x8D3 JUMP JUMPDEST JUMPDEST PUSH0 DUP3 ADD CALLDATALOAD PUSH8 0xFFFFFFFFFFFFFFFF DUP2 GT ISZERO PUSH2 0xB97 JUMPI PUSH2 0xB96 PUSH2 0x8D7 JUMP JUMPDEST JUMPDEST PUSH2 0xBA3 DUP5 DUP3 DUP6 ADD PUSH2 0xB38 JUMP JUMPDEST SWAP2 POP POP SWAP3 SWAP2 POP POP JUMP JUMPDEST PUSH32 0x4E487B7100000000000000000000000000000000000000000000000000000000 PUSH0 MSTORE PUSH1 0x32 PUSH1 0x4 MSTORE PUSH1 0x24 PUSH0 REVERT JUMPDEST PUSH32 0x4E487B7100000000000000000000000000000000000000000000000000000000 PUSH0 MSTORE PUSH1 0x22 PUSH1 0x4 MSTORE PUSH1 0x24 PUSH0 REVERT JUMPDEST PUSH0 PUSH1 0x2 DUP3 DIV SWAP1 POP PUSH1 0x1 DUP3 AND DUP1 PUSH2 0xC1D JUMPI PUSH1 0x7F DUP3 AND SWAP2 POP JUMPDEST PUSH1 0x20 DUP3 LT DUP2 SUB PUSH2 0xC30 JUMPI PUSH2 0xC2F PUSH2 0xBD9 JUMP JUMPDEST JUMPDEST POP SWAP2 SWAP1 POP JUMP JUMPDEST PUSH0 DUP2 SWAP1 POP DUP2 PUSH0 MSTORE PUSH1 0x20 PUSH0 KECCAK256 SWAP1 POP SWAP2 SWAP1 POP JUMP JUMPDEST PUSH0 PUSH1 0x20 PUSH1 0x1F DUP4 ADD DIV SWAP1 POP SWAP2 SWAP1 POP JUMP JUMPDEST PUSH0 DUP3 DUP3 SHL SWAP1 POP SWAP3 SWAP2 POP POP JUMP JUMPDEST PUSH0 PUSH1 0x8 DUP4 MUL PUSH2 0xC92 PUSH32 0xFFFFFFFFFFFFFFFFFFFFFFFFFFFFFFFFFFFFFFFFFFFFFFFFFFFFFFFFFFFFFFFF DUP3 PUSH2 0xC57 JUMP JUMPDEST PUSH2 0xC9C DUP7 DUP4 PUSH2 0xC57 JUMP JUMPDEST SWAP6 POP DUP1 NOT DUP5 AND SWAP4 POP DUP1 DUP7 AND DUP5 OR SWAP3 POP POP POP SWAP4 SWAP3 POP POP POP JUMP JUMPDEST PUSH0 DUP2 SWAP1 POP SWAP2 SWAP1 POP JUMP JUMPDEST PUSH0 PUSH2 0xCD7 PUSH2 0xCD2 PUSH2 0xCCD DUP5 PUSH2 0x935 JUMP JUMPDEST PUSH2 0xCB4 JUMP JUMPDEST PUSH2 0x935 JUMP JUMPDEST SWAP1 POP SWAP2 SWAP1 POP JUMP JUMPDEST PUSH0 DUP2 SWAP1 POP SWAP2 SWAP1 POP JUMP JUMPDEST PUSH2 0xCF0 DUP4 PUSH2 0xCBD JUMP JUMPDEST PUSH2 0xD04 PUSH2 0xCFC DUP3 PUSH2 0xCDE JUMP JUMPDEST DUP5 DUP5 SLOAD PUSH2 0xC63 JUMP JUMPDEST DUP3 SSTORE POP POP POP POP JUMP JUMPDEST PUSH0 SWAP1 JUMP JUMPDEST PUSH2 0xD18 PUSH2 0xD0C JUMP JUMPDEST PUSH2 0xD23 DUP2 DUP5 DUP5 PUSH2 0xCE7 JUMP JUMPDEST POP POP POP JUMP JUMPDEST JUMPDEST DUP2 DUP2 LT ISZERO PUSH2 0xD46 JUMPI PUSH2 0xD3B PUSH0 DUP3 PUSH2 0xD10 JUMP JUMPDEST PUSH1 0x1 DUP2 ADD SWAP1 POP PUSH2 0xD29 JUMP JUMPDEST POP POP JUMP JUMPDEST PUSH1 0x1F DUP3 GT ISZERO PUSH2 0xD8B JUMPI PUSH2 0xD5C DUP2 PUSH2 0xC36 JUMP JUMPDEST PUSH2 0xD65 DUP5 PUSH2 0xC48 JUMP JUMPDEST DUP2 ADD PUSH1 0x20 DUP6 LT ISZERO PUSH2 0xD74 JUMPI DUP2 SWAP1 POP JUMPDEST PUSH2 0xD88 PUSH2 0xD80 DUP6 PUSH2 0xC48 JUMP JUMPDEST DUP4 ADD DUP3 PUSH2 0xD28 JUMP JUMPDEST POP POP JUMPDEST POP POP POP JUMP JUMPDEST PUSH0 DUP3 DUP3 SHR SWAP1 POP SWAP3 SWAP2 POP POP JUMP JUMPDEST PUSH0 PUSH2 0xDAB PUSH0 NOT DUP5 PUSH1 0x8 MUL PUSH2 0xD90 JUMP JUMPDEST NOT DUP1 DUP4 AND SWAP2 POP POP SWAP3 SWAP2 POP POP JUMP JUMPDEST PUSH0 PUSH2 0xDC3 DUP4 DUP4 PUSH2 0xD9C JUMP JUMPDEST SWAP2 POP DUP3 PUSH1 0x2 MUL DUP3 OR SWAP1 POP SWAP3 SWAP2 POP POP JUMP JUMPDEST PUSH2 0xDDC DUP3 PUSH2 0x78E JUMP JUMPDEST PUSH8 0xFFFFFFFFFFFFFFFF DUP2 GT ISZERO PUSH2 0xDF5 JUMPI PUSH2 0xDF4 PUSH2 0xA41 JUMP JUMPDEST JUMPDEST PUSH2 0xDFF DUP3 SLOAD PUSH2 0xC06 JUMP JUMPDEST PUSH2 0xE0A DUP3 DUP3 DUP6 PUSH2 0xD4A JUMP JUMPDEST PUSH0 PUSH1 0x20 SWAP1 POP PUSH1 0x1F DUP4 GT PUSH1 0x1 DUP2 EQ PUSH2 0xE3B JUMPI PUSH0 DUP5 ISZERO PUSH2 0xE29 JUMPI DUP3 DUP8 ADD MLOAD SWAP1 POP JUMPDEST PUSH2 0xE33 DUP6 DUP3 PUSH2 0xDB8 JUMP JUMPDEST DUP7 SSTORE POP PUSH2 0xE9A JUMP JUMPDEST PUSH1 0x1F NOT DUP5 AND PUSH2 0xE49 DUP7 PUSH2 0xC36 JUMP JUMPDEST PUSH0 JUMPDEST DUP3 DUP2 LT ISZERO PUSH2 0xE70 JUMPI DUP5 DUP10 ADD MLOAD DUP3 SSTORE PUSH1 0x1 DUP3 ADD SWAP2 POP PUSH1 0x20 DUP6 ADD SWAP5 POP PUSH1 0x20 DUP2 ADD SWAP1 POP PUSH2 0xE4B JUMP JUMPDEST DUP7 DUP4 LT ISZERO PUSH2 0xE8D JUMPI DUP5 DUP10 ADD MLOAD PUSH2 0xE89 PUSH1 0x1F DUP10 AND DUP3 PUSH2 0xD9C JUMP JUMPDEST DUP4 SSTORE POP JUMPDEST PUSH1 0x1 PUSH1 0x2 DUP9 MUL ADD DUP9 SSTORE POP POP POP JUMPDEST POP POP POP POP POP POP JUMP INVALID LOG2 PUSH5 0x6970667358 0x22 SLT KECCAK256 0xD4 SDIV 0xEA MUL 0xBB 0xCD SWAP6 NOT 0xCF 0x5D PUSH18 0x79B33620EE630A03E648C28FB1D019856BBB EXTCODECOPY PUSH10 0x7564736F6C6343000817 STOP CALLER "
				},
				"gasEstimates": {
					"creation": {
						"codeDepositCost": "760000",
						"executionCost": "790",
						"totalCost": "760790"
					},
					"external": {
						"addRecord(string)": "infinite",
						"getApprovedRecords()": "infinite",
						"getUserFavorites(address)": "infinite",
						"resetUserFavorites()": "infinite",
						"userFavorites(address,uint256)": "infinite"
					}
				},
				"methodIdentifiers": {
					"addRecord(string)": "d81aa8c4",
					"getApprovedRecords()": "1cf0830b",
					"getUserFavorites(address)": "c7853148",
					"resetUserFavorites()": "837f8878",
					"userFavorites(address,uint256)": "aa070fb5"
				}
			},
			"storageLayout": {
				"storage": [
					{
						"astId": 31,
						"contract": "Mapping.sol:Submission",
						"label": "userFavorites",
						"offset": 0,
						"slot": "0",
						"type": "t_mapping(t_address,t_array(t_string_storage)dyn_storage)"
					}
				],
				"types": {
					"t_address": {
						"encoding": "inplace",
						"label": "address",
						"numberOfBytes": "20"
					},
					"t_array(t_string_storage)dyn_storage": {
						"base": "t_string_storage",
						"encoding": "dynamic_array",
						"label": "string[]",
						"numberOfBytes": "32"
					},
					"t_mapping(t_address,t_array(t_string_storage)dyn_storage)": {
						"encoding": "mapping",
						"key": "t_address",
						"label": "mapping(address => string[])",
						"numberOfBytes": "32",
						"value": "t_array(t_string_storage)dyn_storage"
					},
					"t_string_storage": {
						"encoding": "bytes",
						"label": "string",
						"numberOfBytes": "32"
					}
				}
			},
			"userdoc": {
				"kind": "user",
				"methods": {},
				"version": 1
			}
		}
	}
}