{
	"Role1/SafeMathContract.sol": {
		"SafeMathContract": {
			"abi": [
				{
					"inputs": [
						{
							"internalType": "uint256",
							"name": "_a",
							"type": "uint256"
						},
						{
							"internalType": "uint256",
							"name": "_b",
							"type": "uint256"
						}
					],
					"name": "adder",
					"outputs": [
						{
							"internalType": "uint256",
							"name": "result",
							"type": "uint256"
						},
						{
							"internalType": "bool",
							"name": "success",
							"type": "bool"
						}
					],
					"stateMutability": "pure",
					"type": "function"
				},
				{
					"inputs": [
						{
							"internalType": "uint256",
							"name": "_a",
							"type": "uint256"
						},
						{
							"internalType": "uint256",
							"name": "_b",
							"type": "uint256"
						}
					],
					"name": "subtractor",
					"outputs": [
						{
							"internalType": "uint256",
							"name": "result",
							"type": "uint256"
						},
						{
							"internalType": "bool",
							"name": "success",
							"type": "bool"
						}
					],
					"stateMutability": "pure",
					"type": "function"
				}
			],
			"devdoc": {
				"kind": "dev",
				"methods": {},
				"version": 1
			},
			"evm": {
				"assembly": "    /* \"Role1/SafeMathContract.sol\":315:933  contract SafeMathContract is IBasicContractTest {... */\n  mstore(0x40, 0x80)\n  callvalue\n  dup1\n  iszero\n  tag_1\n  jumpi\n  revert(0x00, 0x00)\ntag_1:\n  pop\n  dataSize(sub_0)\n  dup1\n  dataOffset(sub_0)\n  0x00\n  codecopy\n  0x00\n  return\nstop\n\nsub_0: assembly {\n        /* \"Role1/SafeMathContract.sol\":315:933  contract SafeMathContract is IBasicContractTest {... */\n      mstore(0x40, 0x80)\n      callvalue\n      dup1\n      iszero\n      tag_1\n      jumpi\n      revert(0x00, 0x00)\n    tag_1:\n      pop\n      jumpi(tag_2, lt(calldatasize, 0x04))\n      shr(0xe0, calldataload(0x00))\n      dup1\n      0x06b034e9\n      eq\n      tag_3\n      jumpi\n      dup1\n      0x5270312a\n      eq\n      tag_4\n      jumpi\n    tag_2:\n      revert(0x00, 0x00)\n        /* \"Role1/SafeMathContract.sol\":369:653  function adder(... */\n    tag_3:\n      tag_5\n      0x04\n      dup1\n      calldatasize\n      sub\n      dup2\n      add\n      swap1\n      tag_6\n      swap2\n      swap1\n      tag_7\n      jump\t// in\n    tag_6:\n      tag_8\n      jump\t// in\n    tag_5:\n      mload(0x40)\n      tag_9\n      swap3\n      swap2\n      swap1\n      tag_10\n      jump\t// in\n    tag_9:\n      mload(0x40)\n      dup1\n      swap2\n      sub\n      swap1\n      return\n        /* \"Role1/SafeMathContract.sol\":659:931  function subtractor(... */\n    tag_4:\n      tag_11\n      0x04\n      dup1\n      calldatasize\n      sub\n      dup2\n      add\n      swap1\n      tag_12\n      swap2\n      swap1\n      tag_7\n      jump\t// in\n    tag_12:\n      tag_13\n      jump\t// in\n    tag_11:\n      mload(0x40)\n      tag_14\n      swap3\n      swap2\n      swap1\n      tag_10\n      jump\t// in\n    tag_14:\n      mload(0x40)\n      dup1\n      swap2\n      sub\n      swap1\n      return\n        /* \"Role1/SafeMathContract.sol\":369:653  function adder(... */\n    tag_8:\n        /* \"Role1/SafeMathContract.sol\":456:467  uint result */\n      0x00\n        /* \"Role1/SafeMathContract.sol\":469:481  bool success */\n      0x00\n        /* \"Role1/SafeMathContract.sol\":519:521  _b */\n      dup3\n        /* \"Role1/SafeMathContract.sol\":514:516  _a */\n      dup5\n        /* \"Role1/SafeMathContract.sol\":497:511  type(uint).max */\n      0xffffffffffffffffffffffffffffffffffffffffffffffffffffffffffffffff\n        /* \"Role1/SafeMathContract.sol\":497:516  type(uint).max - _a */\n      tag_16\n      swap2\n      swap1\n      tag_17\n      jump\t// in\n    tag_16:\n        /* \"Role1/SafeMathContract.sol\":497:521  type(uint).max - _a < _b */\n      lt\n        /* \"Role1/SafeMathContract.sol\":493:647  if (type(uint).max - _a < _b) {... */\n      iszero\n      tag_18\n      jumpi\n        /* \"Role1/SafeMathContract.sol\":545:546  0 */\n      0x00\n        /* \"Role1/SafeMathContract.sol\":548:552  true */\n      0x01\n        /* \"Role1/SafeMathContract.sol\":537:553  return (0, true) */\n      swap2\n      pop\n      swap2\n      pop\n      jump(tag_15)\n        /* \"Role1/SafeMathContract.sol\":493:647  if (type(uint).max - _a < _b) {... */\n    tag_18:\n        /* \"Role1/SafeMathContract.sol\":598:600  _b */\n      dup3\n        /* \"Role1/SafeMathContract.sol\":593:595  _a */\n      dup5\n        /* \"Role1/SafeMathContract.sol\":593:600  _a + _b */\n      tag_20\n      swap2\n      swap1\n      tag_21\n      jump\t// in\n    tag_20:\n        /* \"Role1/SafeMathContract.sol\":584:600  result = _a + _b */\n      swap2\n      pop\n        /* \"Role1/SafeMathContract.sol\":622:628  result */\n      dup2\n        /* \"Role1/SafeMathContract.sol\":630:635  false */\n      0x00\n        /* \"Role1/SafeMathContract.sol\":614:636  return (result, false) */\n      swap2\n      pop\n      swap2\n      pop\n        /* \"Role1/SafeMathContract.sol\":369:653  function adder(... */\n    tag_15:\n      swap3\n      pop\n      swap3\n      swap1\n      pop\n      jump\t// out\n        /* \"Role1/SafeMathContract.sol\":659:931  function subtractor(... */\n    tag_13:\n        /* \"Role1/SafeMathContract.sol\":751:762  uint result */\n      0x00\n        /* \"Role1/SafeMathContract.sol\":764:776  bool success */\n      0x00\n        /* \"Role1/SafeMathContract.sol\":797:799  _a */\n      dup4\n        /* \"Role1/SafeMathContract.sol\":792:794  _b */\n      dup4\n        /* \"Role1/SafeMathContract.sol\":792:799  _b > _a */\n      gt\n        /* \"Role1/SafeMathContract.sol\":788:925  if (_b > _a) {... */\n      iszero\n      tag_23\n      jumpi\n        /* \"Role1/SafeMathContract.sol\":823:824  0 */\n      0x00\n        /* \"Role1/SafeMathContract.sol\":826:830  true */\n      0x01\n        /* \"Role1/SafeMathContract.sol\":815:831  return (0, true) */\n      swap2\n      pop\n      swap2\n      pop\n      jump(tag_22)\n        /* \"Role1/SafeMathContract.sol\":788:925  if (_b > _a) {... */\n    tag_23:\n        /* \"Role1/SafeMathContract.sol\":876:878  _b */\n      dup3\n        /* \"Role1/SafeMathContract.sol\":871:873  _a */\n      dup5\n        /* \"Role1/SafeMathContract.sol\":871:878  _a - _b */\n      tag_25\n      swap2\n      swap1\n      tag_17\n      jump\t// in\n    tag_25:\n        /* \"Role1/SafeMathContract.sol\":862:878  result = _a - _b */\n      swap2\n      pop\n        /* \"Role1/SafeMathContract.sol\":900:906  result */\n      dup2\n        /* \"Role1/SafeMathContract.sol\":908:913  false */\n      0x00\n        /* \"Role1/SafeMathContract.sol\":892:914  return (result, false) */\n      swap2\n      pop\n      swap2\n      pop\n        /* \"Role1/SafeMathContract.sol\":659:931  function subtractor(... */\n    tag_22:\n      swap3\n      pop\n      swap3\n      swap1\n      pop\n      jump\t// out\n        /* \"#utility.yul\":88:205   */\n    tag_27:\n        /* \"#utility.yul\":197:198   */\n      0x00\n        /* \"#utility.yul\":194:195   */\n      0x00\n        /* \"#utility.yul\":187:199   */\n      revert\n        /* \"#utility.yul\":334:411   */\n    tag_29:\n        /* \"#utility.yul\":371:378   */\n      0x00\n        /* \"#utility.yul\":400:405   */\n      dup2\n        /* \"#utility.yul\":389:405   */\n      swap1\n      pop\n        /* \"#utility.yul\":334:411   */\n      swap2\n      swap1\n      pop\n      jump\t// out\n        /* \"#utility.yul\":417:539   */\n    tag_30:\n        /* \"#utility.yul\":490:514   */\n      tag_42\n        /* \"#utility.yul\":508:513   */\n      dup2\n        /* \"#utility.yul\":490:514   */\n      tag_29\n      jump\t// in\n    tag_42:\n        /* \"#utility.yul\":483:488   */\n      dup2\n        /* \"#utility.yul\":480:515   */\n      eq\n        /* \"#utility.yul\":470:533   */\n      tag_43\n      jumpi\n        /* \"#utility.yul\":529:530   */\n      0x00\n        /* \"#utility.yul\":526:527   */\n      0x00\n        /* \"#utility.yul\":519:531   */\n      revert\n        /* \"#utility.yul\":470:533   */\n    tag_43:\n        /* \"#utility.yul\":417:539   */\n      pop\n      jump\t// out\n        /* \"#utility.yul\":545:684   */\n    tag_31:\n        /* \"#utility.yul\":591:596   */\n      0x00\n        /* \"#utility.yul\":629:635   */\n      dup2\n        /* \"#utility.yul\":616:636   */\n      calldataload\n        /* \"#utility.yul\":607:636   */\n      swap1\n      pop\n        /* \"#utility.yul\":645:678   */\n      tag_45\n        /* \"#utility.yul\":672:677   */\n      dup2\n        /* \"#utility.yul\":645:678   */\n      tag_30\n      jump\t// in\n    tag_45:\n        /* \"#utility.yul\":545:684   */\n      swap3\n      swap2\n      pop\n      pop\n      jump\t// out\n        /* \"#utility.yul\":690:1164   */\n    tag_7:\n        /* \"#utility.yul\":758:764   */\n      0x00\n        /* \"#utility.yul\":766:772   */\n      0x00\n        /* \"#utility.yul\":815:817   */\n      0x40\n        /* \"#utility.yul\":803:812   */\n      dup4\n        /* \"#utility.yul\":794:801   */\n      dup6\n        /* \"#utility.yul\":790:813   */\n      sub\n        /* \"#utility.yul\":786:818   */\n      slt\n        /* \"#utility.yul\":783:902   */\n      iszero\n      tag_47\n      jumpi\n        /* \"#utility.yul\":821:900   */\n      tag_48\n      tag_27\n      jump\t// in\n    tag_48:\n        /* \"#utility.yul\":783:902   */\n    tag_47:\n        /* \"#utility.yul\":941:942   */\n      0x00\n        /* \"#utility.yul\":966:1019   */\n      tag_49\n        /* \"#utility.yul\":1011:1018   */\n      dup6\n        /* \"#utility.yul\":1002:1008   */\n      dup3\n        /* \"#utility.yul\":991:1000   */\n      dup7\n        /* \"#utility.yul\":987:1009   */\n      add\n        /* \"#utility.yul\":966:1019   */\n      tag_31\n      jump\t// in\n    tag_49:\n        /* \"#utility.yul\":956:1019   */\n      swap3\n      pop\n        /* \"#utility.yul\":912:1029   */\n      pop\n        /* \"#utility.yul\":1068:1070   */\n      0x20\n        /* \"#utility.yul\":1094:1147   */\n      tag_50\n        /* \"#utility.yul\":1139:1146   */\n      dup6\n        /* \"#utility.yul\":1130:1136   */\n      dup3\n        /* \"#utility.yul\":1119:1128   */\n      dup7\n        /* \"#utility.yul\":1115:1137   */\n      add\n        /* \"#utility.yul\":1094:1147   */\n      tag_31\n      jump\t// in\n    tag_50:\n        /* \"#utility.yul\":1084:1147   */\n      swap2\n      pop\n        /* \"#utility.yul\":1039:1157   */\n      pop\n        /* \"#utility.yul\":690:1164   */\n      swap3\n      pop\n      swap3\n      swap1\n      pop\n      jump\t// out\n        /* \"#utility.yul\":1170:1288   */\n    tag_32:\n        /* \"#utility.yul\":1257:1281   */\n      tag_52\n        /* \"#utility.yul\":1275:1280   */\n      dup2\n        /* \"#utility.yul\":1257:1281   */\n      tag_29\n      jump\t// in\n    tag_52:\n        /* \"#utility.yul\":1252:1255   */\n      dup3\n        /* \"#utility.yul\":1245:1282   */\n      mstore\n        /* \"#utility.yul\":1170:1288   */\n      pop\n      pop\n      jump\t// out\n        /* \"#utility.yul\":1294:1384   */\n    tag_33:\n        /* \"#utility.yul\":1328:1335   */\n      0x00\n        /* \"#utility.yul\":1371:1376   */\n      dup2\n        /* \"#utility.yul\":1364:1377   */\n      iszero\n        /* \"#utility.yul\":1357:1378   */\n      iszero\n        /* \"#utility.yul\":1346:1378   */\n      swap1\n      pop\n        /* \"#utility.yul\":1294:1384   */\n      swap2\n      swap1\n      pop\n      jump\t// out\n        /* \"#utility.yul\":1390:1499   */\n    tag_34:\n        /* \"#utility.yul\":1471:1492   */\n      tag_55\n        /* \"#utility.yul\":1486:1491   */\n      dup2\n        /* \"#utility.yul\":1471:1492   */\n      tag_33\n      jump\t// in\n    tag_55:\n        /* \"#utility.yul\":1466:1469   */\n      dup3\n        /* \"#utility.yul\":1459:1493   */\n      mstore\n        /* \"#utility.yul\":1390:1499   */\n      pop\n      pop\n      jump\t// out\n        /* \"#utility.yul\":1505:1825   */\n    tag_10:\n        /* \"#utility.yul\":1620:1624   */\n      0x00\n        /* \"#utility.yul\":1658:1660   */\n      0x40\n        /* \"#utility.yul\":1647:1656   */\n      dup3\n        /* \"#utility.yul\":1643:1661   */\n      add\n        /* \"#utility.yul\":1635:1661   */\n      swap1\n      pop\n        /* \"#utility.yul\":1671:1742   */\n      tag_57\n        /* \"#utility.yul\":1739:1740   */\n      0x00\n        /* \"#utility.yul\":1728:1737   */\n      dup4\n        /* \"#utility.yul\":1724:1741   */\n      add\n        /* \"#utility.yul\":1715:1721   */\n      dup6\n        /* \"#utility.yul\":1671:1742   */\n      tag_32\n      jump\t// in\n    tag_57:\n        /* \"#utility.yul\":1752:1818   */\n      tag_58\n        /* \"#utility.yul\":1814:1816   */\n      0x20\n        /* \"#utility.yul\":1803:1812   */\n      dup4\n        /* \"#utility.yul\":1799:1817   */\n      add\n        /* \"#utility.yul\":1790:1796   */\n      dup5\n        /* \"#utility.yul\":1752:1818   */\n      tag_34\n      jump\t// in\n    tag_58:\n        /* \"#utility.yul\":1505:1825   */\n      swap4\n      swap3\n      pop\n      pop\n      pop\n      jump\t// out\n        /* \"#utility.yul\":1831:2011   */\n    tag_35:\n        /* \"#utility.yul\":1879:1956   */\n      0x4e487b7100000000000000000000000000000000000000000000000000000000\n        /* \"#utility.yul\":1876:1877   */\n      0x00\n        /* \"#utility.yul\":1869:1957   */\n      mstore\n        /* \"#utility.yul\":1976:1980   */\n      0x11\n        /* \"#utility.yul\":1973:1974   */\n      0x04\n        /* \"#utility.yul\":1966:1981   */\n      mstore\n        /* \"#utility.yul\":2000:2004   */\n      0x24\n        /* \"#utility.yul\":1997:1998   */\n      0x00\n        /* \"#utility.yul\":1990:2005   */\n      revert\n        /* \"#utility.yul\":2017:2211   */\n    tag_17:\n        /* \"#utility.yul\":2057:2061   */\n      0x00\n        /* \"#utility.yul\":2077:2097   */\n      tag_61\n        /* \"#utility.yul\":2095:2096   */\n      dup3\n        /* \"#utility.yul\":2077:2097   */\n      tag_29\n      jump\t// in\n    tag_61:\n        /* \"#utility.yul\":2072:2097   */\n      swap2\n      pop\n        /* \"#utility.yul\":2111:2131   */\n      tag_62\n        /* \"#utility.yul\":2129:2130   */\n      dup4\n        /* \"#utility.yul\":2111:2131   */\n      tag_29\n      jump\t// in\n    tag_62:\n        /* \"#utility.yul\":2106:2131   */\n      swap3\n      pop\n        /* \"#utility.yul\":2155:2156   */\n      dup3\n        /* \"#utility.yul\":2152:2153   */\n      dup3\n        /* \"#utility.yul\":2148:2157   */\n      sub\n        /* \"#utility.yul\":2140:2157   */\n      swap1\n      pop\n        /* \"#utility.yul\":2179:2180   */\n      dup2\n        /* \"#utility.yul\":2173:2177   */\n      dup2\n        /* \"#utility.yul\":2170:2181   */\n      gt\n        /* \"#utility.yul\":2167:2204   */\n      iszero\n      tag_63\n      jumpi\n        /* \"#utility.yul\":2184:2202   */\n      tag_64\n      tag_35\n      jump\t// in\n    tag_64:\n        /* \"#utility.yul\":2167:2204   */\n    tag_63:\n        /* \"#utility.yul\":2017:2211   */\n      swap3\n      swap2\n      pop\n      pop\n      jump\t// out\n        /* \"#utility.yul\":2217:2408   */\n    tag_21:\n        /* \"#utility.yul\":2257:2260   */\n      0x00\n        /* \"#utility.yul\":2276:2296   */\n      tag_66\n        /* \"#utility.yul\":2294:2295   */\n      dup3\n        /* \"#utility.yul\":2276:2296   */\n      tag_29\n      jump\t// in\n    tag_66:\n        /* \"#utility.yul\":2271:2296   */\n      swap2\n      pop\n        /* \"#utility.yul\":2310:2330   */\n      tag_67\n        /* \"#utility.yul\":2328:2329   */\n      dup4\n        /* \"#utility.yul\":2310:2330   */\n      tag_29\n      jump\t// in\n    tag_67:\n        /* \"#utility.yul\":2305:2330   */\n      swap3\n      pop\n        /* \"#utility.yul\":2353:2354   */\n      dup3\n        /* \"#utility.yul\":2350:2351   */\n      dup3\n        /* \"#utility.yul\":2346:2355   */\n      add\n        /* \"#utility.yul\":2339:2355   */\n      swap1\n      pop\n        /* \"#utility.yul\":2374:2377   */\n      dup1\n        /* \"#utility.yul\":2371:2372   */\n      dup3\n        /* \"#utility.yul\":2368:2378   */\n      gt\n        /* \"#utility.yul\":2365:2401   */\n      iszero\n      tag_68\n      jumpi\n        /* \"#utility.yul\":2381:2399   */\n      tag_69\n      tag_35\n      jump\t// in\n    tag_69:\n        /* \"#utility.yul\":2365:2401   */\n    tag_68:\n        /* \"#utility.yul\":2217:2408   */\n      swap3\n      swap2\n      pop\n      pop\n      jump\t// out\n\n    auxdata: 0xa264697066735822122095fc74daa7edfec01a2cee3177c98cd76ca86faf82960f2dcc5a911ae02b26f964736f6c634300081e0033\n}\n",
				"bytecode": {
					"linkReferences": {},
					"object": "6080604052348015600e575f5ffd5b506102b78061001c5f395ff3fe608060405234801561000f575f5ffd5b5060043610610034575f3560e01c806306b034e9146100385780635270312a14610069575b5f5ffd5b610052600480360381019061004d9190610160565b61009a565b6040516100609291906101c7565b60405180910390f35b610083600480360381019061007e9190610160565b6100f7565b6040516100919291906101c7565b60405180910390f35b5f5f82847fffffffffffffffffffffffffffffffffffffffffffffffffffffffffffffffff6100c9919061021b565b10156100db575f6001915091506100f0565b82846100e7919061024e565b9150815f915091505b9250929050565b5f5f8383111561010d575f600191509150610122565b8284610119919061021b565b9150815f915091505b9250929050565b5f5ffd5b5f819050919050565b61013f8161012d565b8114610149575f5ffd5b50565b5f8135905061015a81610136565b92915050565b5f5f6040838503121561017657610175610129565b5b5f6101838582860161014c565b92505060206101948582860161014c565b9150509250929050565b6101a78161012d565b82525050565b5f8115159050919050565b6101c1816101ad565b82525050565b5f6040820190506101da5f83018561019e565b6101e760208301846101b8565b9392505050565b7f4e487b71000000000000000000000000000000000000000000000000000000005f52601160045260245ffd5b5f6102258261012d565b91506102308361012d565b9250828203905081811115610248576102476101ee565b5b92915050565b5f6102588261012d565b91506102638361012d565b925082820190508082111561027b5761027a6101ee565b5b9291505056fea264697066735822122095fc74daa7edfec01a2cee3177c98cd76ca86faf82960f2dcc5a911ae02b26f964736f6c634300081e0033",
					"opcodes": "PUSH1 0x80 PUSH1 0x40 MSTORE CALLVALUE DUP1 ISZERO PUSH1 0xE JUMPI PUSH0 PUSH0 REVERT JUMPDEST POP PUSH2 0x2B7 DUP1 PUSH2 0x1C PUSH0 CODECOPY PUSH0 RETURN INVALID PUSH1 0x80 PUSH1 0x40 MSTORE CALLVALUE DUP1 ISZERO PUSH2 0xF JUMPI PUSH0 PUSH0 REVERT JUMPDEST POP PUSH1 0x4 CALLDATASIZE LT PUSH2 0x34 JUMPI PUSH0 CALLDATALOAD PUSH1 0xE0 SHR DUP1 PUSH4 0x6B034E9 EQ PUSH2 0x38 JUMPI DUP1 PUSH4 0x5270312A EQ PUSH2 0x69 JUMPI JUMPDEST PUSH0 PUSH0 REVERT JUMPDEST PUSH2 0x52 PUSH1 0x4 DUP1 CALLDATASIZE SUB DUP2 ADD SWAP1 PUSH2 0x4D SWAP2 SWAP1 PUSH2 0x160 JUMP JUMPDEST PUSH2 0x9A JUMP JUMPDEST PUSH1 0x40 MLOAD PUSH2 0x60 SWAP3 SWAP2 SWAP1 PUSH2 0x1C7 JUMP JUMPDEST PUSH1 0x40 MLOAD DUP1 SWAP2 SUB SWAP1 RETURN JUMPDEST PUSH2 0x83 PUSH1 0x4 DUP1 CALLDATASIZE SUB DUP2 ADD SWAP1 PUSH2 0x7E SWAP2 SWAP1 PUSH2 0x160 JUMP JUMPDEST PUSH2 0xF7 JUMP JUMPDEST PUSH1 0x40 MLOAD PUSH2 0x91 SWAP3 SWAP2 SWAP1 PUSH2 0x1C7 JUMP JUMPDEST PUSH1 0x40 MLOAD DUP1 SWAP2 SUB SWAP1 RETURN JUMPDEST PUSH0 PUSH0 DUP3 DUP5 PUSH32 0xFFFFFFFFFFFFFFFFFFFFFFFFFFFFFFFFFFFFFFFFFFFFFFFFFFFFFFFFFFFFFFFF PUSH2 0xC9 SWAP2 SWAP1 PUSH2 0x21B JUMP JUMPDEST LT ISZERO PUSH2 0xDB JUMPI PUSH0 PUSH1 0x1 SWAP2 POP SWAP2 POP PUSH2 0xF0 JUMP JUMPDEST DUP3 DUP5 PUSH2 0xE7 SWAP2 SWAP1 PUSH2 0x24E JUMP JUMPDEST SWAP2 POP DUP2 PUSH0 SWAP2 POP SWAP2 POP JUMPDEST SWAP3 POP SWAP3 SWAP1 POP JUMP JUMPDEST PUSH0 PUSH0 DUP4 DUP4 GT ISZERO PUSH2 0x10D JUMPI PUSH0 PUSH1 0x1 SWAP2 POP SWAP2 POP PUSH2 0x122 JUMP JUMPDEST DUP3 DUP5 PUSH2 0x119 SWAP2 SWAP1 PUSH2 0x21B JUMP JUMPDEST SWAP2 POP DUP2 PUSH0 SWAP2 POP SWAP2 POP JUMPDEST SWAP3 POP SWAP3 SWAP1 POP JUMP JUMPDEST PUSH0 PUSH0 REVERT JUMPDEST PUSH0 DUP2 SWAP1 POP SWAP2 SWAP1 POP JUMP JUMPDEST PUSH2 0x13F DUP2 PUSH2 0x12D JUMP JUMPDEST DUP2 EQ PUSH2 0x149 JUMPI PUSH0 PUSH0 REVERT JUMPDEST POP JUMP JUMPDEST PUSH0 DUP2 CALLDATALOAD SWAP1 POP PUSH2 0x15A DUP2 PUSH2 0x136 JUMP JUMPDEST SWAP3 SWAP2 POP POP JUMP JUMPDEST PUSH0 PUSH0 PUSH1 0x40 DUP4 DUP6 SUB SLT ISZERO PUSH2 0x176 JUMPI PUSH2 0x175 PUSH2 0x129 JUMP JUMPDEST JUMPDEST PUSH0 PUSH2 0x183 DUP6 DUP3 DUP7 ADD PUSH2 0x14C JUMP JUMPDEST SWAP3 POP POP PUSH1 0x20 PUSH2 0x194 DUP6 DUP3 DUP7 ADD PUSH2 0x14C JUMP JUMPDEST SWAP2 POP POP SWAP3 POP SWAP3 SWAP1 POP JUMP JUMPDEST PUSH2 0x1A7 DUP2 PUSH2 0x12D JUMP JUMPDEST DUP3 MSTORE POP POP JUMP JUMPDEST PUSH0 DUP2 ISZERO ISZERO SWAP1 POP SWAP2 SWAP1 POP JUMP JUMPDEST PUSH2 0x1C1 DUP2 PUSH2 0x1AD JUMP JUMPDEST DUP3 MSTORE POP POP JUMP JUMPDEST PUSH0 PUSH1 0x40 DUP3 ADD SWAP1 POP PUSH2 0x1DA PUSH0 DUP4 ADD DUP6 PUSH2 0x19E JUMP JUMPDEST PUSH2 0x1E7 PUSH1 0x20 DUP4 ADD DUP5 PUSH2 0x1B8 JUMP JUMPDEST SWAP4 SWAP3 POP POP POP JUMP JUMPDEST PUSH32 0x4E487B7100000000000000000000000000000000000000000000000000000000 PUSH0 MSTORE PUSH1 0x11 PUSH1 0x4 MSTORE PUSH1 0x24 PUSH0 REVERT JUMPDEST PUSH0 PUSH2 0x225 DUP3 PUSH2 0x12D JUMP JUMPDEST SWAP2 POP PUSH2 0x230 DUP4 PUSH2 0x12D JUMP JUMPDEST SWAP3 POP DUP3 DUP3 SUB SWAP1 POP DUP2 DUP2 GT ISZERO PUSH2 0x248 JUMPI PUSH2 0x247 PUSH2 0x1EE JUMP JUMPDEST JUMPDEST SWAP3 SWAP2 POP POP JUMP JUMPDEST PUSH0 PUSH2 0x258 DUP3 PUSH2 0x12D JUMP JUMPDEST SWAP2 POP PUSH2 0x263 DUP4 PUSH2 0x12D JUMP JUMPDEST SWAP3 POP DUP3 DUP3 ADD SWAP1 POP DUP1 DUP3 GT ISZERO PUSH2 0x27B JUMPI PUSH2 0x27A PUSH2 0x1EE JUMP JUMPDEST JUMPDEST SWAP3 SWAP2 POP POP JUMP INVALID LOG2 PUSH5 0x6970667358 0x22 SLT KECCAK256 SWAP6 0xFC PUSH21 0xDAA7EDFEC01A2CEE3177C98CD76CA86FAF82960F2D 0xCC GAS SWAP2 BYTE RJUMP 0x2B26 EXTDELEGATECALL PUSH5 0x736F6C6343 STOP ADDMOD 0x1E STOP CALLER "
				},
				"gasEstimates": {
					"creation": {
						"codeDepositCost": "139000",
						"executionCost": "181",
						"totalCost": "139181"
					},
					"external": {
						"adder(uint256,uint256)": "infinite",
						"subtractor(uint256,uint256)": "infinite"
					}
				},
				"methodIdentifiers": {
					"adder(uint256,uint256)": "06b034e9",
					"subtractor(uint256,uint256)": "5270312a"
				}
			},
			"storageLayout": {
				"storage": [],
				"types": null
			},
			"userdoc": {
				"kind": "user",
				"methods": {},
				"version": 1
			}
		}
	}
}