{
	"impin.sol": {
		"Submission": {
			"abi": [
				{
					"inputs": [],
					"name": "getHaiku",
					"outputs": [
						{
							"components": [
								{
									"internalType": "string",
									"name": "line1",
									"type": "string"
								},
								{
									"internalType": "string",
									"name": "line2",
									"type": "string"
								},
								{
									"internalType": "string",
									"name": "line3",
									"type": "string"
								}
							],
							"internalType": "struct ISubmission.Haiku",
							"name": "",
							"type": "tuple"
						}
					],
					"stateMutability": "view",
					"type": "function"
				},
				{
					"inputs": [
						{
							"internalType": "string",
							"name": "_line1",
							"type": "string"
						},
						{
							"internalType": "string",
							"name": "_line2",
							"type": "string"
						},
						{
							"internalType": "string",
							"name": "_line3",
							"type": "string"
						}
					],
					"name": "saveHaiku",
					"outputs": [],
					"stateMutability": "nonpayable",
					"type": "function"
				},
				{
					"inputs": [],
					"name": "shruggieHaiku",
					"outputs": [
						{
							"components": [
								{
									"internalType": "string",
									"name": "line1",
									"type": "string"
								},
								{
									"internalType": "string",
									"name": "line2",
									"type": "string"
								},
								{
									"internalType": "string",
									"name": "line3",
									"type": "string"
								}
							],
							"internalType": "struct ISubmission.Haiku",
							"name": "",
							"type": "tuple"
						}
					],
					"stateMutability": "view",
					"type": "function"
				}
			],
			"devdoc": {
				"kind": "dev",
				"methods": {},
				"version": 1
			},
			"evm": {
				"assembly": "    /* \"impin.sol\":444:1193  contract Submission is ISubmission {... */\n  mstore(0x40, 0x80)\n  callvalue\n  dup1\n  iszero\n  tag_1\n  jumpi\n  0x00\n  dup1\n  revert\ntag_1:\n  pop\n  dataSize(sub_0)\n  dup1\n  dataOffset(sub_0)\n  0x00\n  codecopy\n  0x00\n  return\nstop\n\nsub_0: assembly {\n        /* \"impin.sol\":444:1193  contract Submission is ISubmission {... */\n      mstore(0x40, 0x80)\n      callvalue\n      dup1\n      iszero\n      tag_1\n      jumpi\n      0x00\n      dup1\n      revert\n    tag_1:\n      pop\n      jumpi(tag_2, lt(calldatasize, 0x04))\n      shr(0xe0, calldataload(0x00))\n      dup1\n      0x25eb69a9\n      eq\n      tag_3\n      jumpi\n      dup1\n      0x583dc769\n      eq\n      tag_4\n      jumpi\n      dup1\n      0x8346cbef\n      eq\n      tag_5\n      jumpi\n    tag_2:\n      0x00\n      dup1\n      revert\n        /* \"impin.sol\":772:873  function getHaiku() external view override returns (Haiku memory) {... */\n    tag_3:\n      tag_6\n      tag_7\n      jump\t// in\n    tag_6:\n      mload(0x40)\n      tag_8\n      swap2\n      swap1\n      tag_9\n      jump\t// in\n    tag_8:\n      mload(0x40)\n      dup1\n      swap2\n      sub\n      swap1\n      return\n        /* \"impin.sol\":518:766  function saveHaiku(... */\n    tag_4:\n      tag_10\n      0x04\n      dup1\n      calldatasize\n      sub\n      dup2\n      add\n      swap1\n      tag_11\n      swap2\n      swap1\n      tag_12\n      jump\t// in\n    tag_11:\n      tag_13\n      jump\t// in\n    tag_10:\n      stop\n        /* \"impin.sol\":879:1191  function shruggieHaiku() external view override returns (Haiku memory) {... */\n    tag_5:\n      tag_14\n      tag_15\n      jump\t// in\n    tag_14:\n      mload(0x40)\n      tag_16\n      swap2\n      swap1\n      tag_9\n      jump\t// in\n    tag_16:\n      mload(0x40)\n      dup1\n      swap2\n      sub\n      swap1\n      return\n        /* \"impin.sol\":772:873  function getHaiku() external view override returns (Haiku memory) {... */\n    tag_7:\n        /* \"impin.sol\":824:836  Haiku memory */\n      tag_17\n      tag_18\n      jump\t// in\n    tag_17:\n        /* \"impin.sol\":855:866  storedHaiku */\n      0x00\n        /* \"impin.sol\":848:866  return storedHaiku */\n      mload(0x40)\n      dup1\n      0x60\n      add\n      0x40\n      mstore\n      swap1\n      dup2\n      0x00\n      dup3\n      add\n      dup1\n      sload\n      tag_20\n      swap1\n      tag_21\n      jump\t// in\n    tag_20:\n      dup1\n      0x1f\n      add\n      0x20\n      dup1\n      swap2\n      div\n      mul\n      0x20\n      add\n      mload(0x40)\n      swap1\n      dup2\n      add\n      0x40\n      mstore\n      dup1\n      swap3\n      swap2\n      swap1\n      dup2\n      dup2\n      mstore\n      0x20\n      add\n      dup3\n      dup1\n      sload\n      tag_22\n      swap1\n      tag_21\n      jump\t// in\n    tag_22:\n      dup1\n      iszero\n      tag_23\n      jumpi\n      dup1\n      0x1f\n      lt\n      tag_24\n      jumpi\n      0x0100\n      dup1\n      dup4\n      sload\n      div\n      mul\n      dup4\n      mstore\n      swap2\n      0x20\n      add\n      swap2\n      jump(tag_23)\n    tag_24:\n      dup3\n      add\n      swap2\n      swap1\n      0x00\n      mstore\n      keccak256(0x00, 0x20)\n      swap1\n    tag_25:\n      dup2\n      sload\n      dup2\n      mstore\n      swap1\n      0x01\n      add\n      swap1\n      0x20\n      add\n      dup1\n      dup4\n      gt\n      tag_25\n      jumpi\n      dup3\n      swap1\n      sub\n      0x1f\n      and\n      dup3\n      add\n      swap2\n    tag_23:\n      pop\n      pop\n      pop\n      pop\n      pop\n      dup2\n      mstore\n      0x20\n      add\n      0x01\n      dup3\n      add\n      dup1\n      sload\n      tag_26\n      swap1\n      tag_21\n      jump\t// in\n    tag_26:\n      dup1\n      0x1f\n      add\n      0x20\n      dup1\n      swap2\n      div\n      mul\n      0x20\n      add\n      mload(0x40)\n      swap1\n      dup2\n      add\n      0x40\n      mstore\n      dup1\n      swap3\n      swap2\n      swap1\n      dup2\n      dup2\n      mstore\n      0x20\n      add\n      dup3\n      dup1\n      sload\n      tag_27\n      swap1\n      tag_21\n      jump\t// in\n    tag_27:\n      dup1\n      iszero\n      tag_28\n      jumpi\n      dup1\n      0x1f\n      lt\n      tag_29\n      jumpi\n      0x0100\n      dup1\n      dup4\n      sload\n      div\n      mul\n      dup4\n      mstore\n      swap2\n      0x20\n      add\n      swap2\n      jump(tag_28)\n    tag_29:\n      dup3\n      add\n      swap2\n      swap1\n      0x00\n      mstore\n      keccak256(0x00, 0x20)\n      swap1\n    tag_30:\n      dup2\n      sload\n      dup2\n      mstore\n      swap1\n      0x01\n      add\n      swap1\n      0x20\n      add\n      dup1\n      dup4\n      gt\n      tag_30\n      jumpi\n      dup3\n      swap1\n      sub\n      0x1f\n      and\n      dup3\n      add\n      swap2\n    tag_28:\n      pop\n      pop\n      pop\n      pop\n      pop\n      dup2\n      mstore\n      0x20\n      add\n      0x02\n      dup3\n      add\n      dup1\n      sload\n      tag_31\n      swap1\n      tag_21\n      jump\t// in\n    tag_31:\n      dup1\n      0x1f\n      add\n      0x20\n      dup1\n      swap2\n      div\n      mul\n      0x20\n      add\n      mload(0x40)\n      swap1\n      dup2\n      add\n      0x40\n      mstore\n      dup1\n      swap3\n      swap2\n      swap1\n      dup2\n      dup2\n      mstore\n      0x20\n      add\n      dup3\n      dup1\n      sload\n      tag_32\n      swap1\n      tag_21\n      jump\t// in\n    tag_32:\n      dup1\n      iszero\n      tag_33\n      jumpi\n      dup1\n      0x1f\n      lt\n      tag_34\n      jumpi\n      0x0100\n      dup1\n      dup4\n      sload\n      div\n      mul\n      dup4\n      mstore\n      swap2\n      0x20\n      add\n      swap2\n      jump(tag_33)\n    tag_34:\n      dup3\n      add\n      swap2\n      swap1\n      0x00\n      mstore\n      keccak256(0x00, 0x20)\n      swap1\n    tag_35:\n      dup2\n      sload\n      dup2\n      mstore\n      swap1\n      0x01\n      add\n      swap1\n      0x20\n      add\n      dup1\n      dup4\n      gt\n      tag_35\n      jumpi\n      dup3\n      swap1\n      sub\n      0x1f\n      and\n      dup3\n      add\n      swap2\n    tag_33:\n      pop\n      pop\n      pop\n      pop\n      pop\n      dup2\n      mstore\n      pop\n      pop\n      swap1\n      pop\n        /* \"impin.sol\":772:873  function getHaiku() external view override returns (Haiku memory) {... */\n      swap1\n      jump\t// out\n        /* \"impin.sol\":518:766  function saveHaiku(... */\n    tag_13:\n        /* \"impin.sol\":681:687  _line1 */\n      dup3\n        /* \"impin.sol\":661:672  storedHaiku */\n      0x00\n        /* \"impin.sol\":661:678  storedHaiku.line1 */\n      dup1\n      add\n        /* \"impin.sol\":661:687  storedHaiku.line1 = _line1 */\n      swap1\n      dup2\n      tag_37\n      swap2\n      swap1\n      tag_38\n      jump\t// in\n    tag_37:\n      pop\n        /* \"impin.sol\":717:723  _line2 */\n      dup2\n        /* \"impin.sol\":697:708  storedHaiku */\n      0x00\n        /* \"impin.sol\":697:714  storedHaiku.line2 */\n      0x01\n      add\n        /* \"impin.sol\":697:723  storedHaiku.line2 = _line2 */\n      swap1\n      dup2\n      tag_39\n      swap2\n      swap1\n      tag_38\n      jump\t// in\n    tag_39:\n      pop\n        /* \"impin.sol\":753:759  _line3 */\n      dup1\n        /* \"impin.sol\":733:744  storedHaiku */\n      0x00\n        /* \"impin.sol\":733:750  storedHaiku.line3 */\n      0x02\n      add\n        /* \"impin.sol\":733:759  storedHaiku.line3 = _line3 */\n      swap1\n      dup2\n      tag_40\n      swap2\n      swap1\n      tag_38\n      jump\t// in\n    tag_40:\n      pop\n        /* \"impin.sol\":518:766  function saveHaiku(... */\n      pop\n      pop\n      pop\n      jump\t// out\n        /* \"impin.sol\":879:1191  function shruggieHaiku() external view override returns (Haiku memory) {... */\n    tag_15:\n        /* \"impin.sol\":936:948  Haiku memory */\n      tag_41\n      tag_18\n      jump\t// in\n    tag_41:\n        /* \"impin.sol\":960:982  Haiku memory tempHaiku */\n      tag_43\n      tag_18\n      jump\t// in\n    tag_43:\n        /* \"impin.sol\":1019:1030  storedHaiku */\n      0x00\n        /* \"impin.sol\":1019:1036  storedHaiku.line1 */\n      dup1\n      add\n        /* \"impin.sol\":1001:1036  tempHaiku.line1 = storedHaiku.line1 */\n      dup1\n      sload\n      tag_44\n      swap1\n      tag_21\n      jump\t// in\n    tag_44:\n      dup1\n      0x1f\n      add\n      0x20\n      dup1\n      swap2\n      div\n      mul\n      0x20\n      add\n      mload(0x40)\n      swap1\n      dup2\n      add\n      0x40\n      mstore\n      dup1\n      swap3\n      swap2\n      swap1\n      dup2\n      dup2\n      mstore\n      0x20\n      add\n      dup3\n      dup1\n      sload\n      tag_45\n      swap1\n      tag_21\n      jump\t// in\n    tag_45:\n      dup1\n      iszero\n      tag_46\n      jumpi\n      dup1\n      0x1f\n      lt\n      tag_47\n      jumpi\n      0x0100\n      dup1\n      dup4\n      sload\n      div\n      mul\n      dup4\n      mstore\n      swap2\n      0x20\n      add\n      swap2\n      jump(tag_46)\n    tag_47:\n      dup3\n      add\n      swap2\n      swap1\n      0x00\n      mstore\n      keccak256(0x00, 0x20)\n      swap1\n    tag_48:\n      dup2\n      sload\n      dup2\n      mstore\n      swap1\n      0x01\n      add\n      swap1\n      0x20\n      add\n      dup1\n      dup4\n      gt\n      tag_48\n      jumpi\n      dup3\n      swap1\n      sub\n      0x1f\n      and\n      dup3\n      add\n      swap2\n    tag_46:\n      pop\n      pop\n      pop\n      pop\n      pop\n        /* \"impin.sol\":1001:1010  tempHaiku */\n      dup2\n        /* \"impin.sol\":1001:1016  tempHaiku.line1 */\n      0x00\n      add\n        /* \"impin.sol\":1001:1036  tempHaiku.line1 = storedHaiku.line1 */\n      dup2\n      swap1\n      mstore\n      pop\n        /* \"impin.sol\":1064:1075  storedHaiku */\n      0x00\n        /* \"impin.sol\":1064:1081  storedHaiku.line2 */\n      0x01\n      add\n        /* \"impin.sol\":1046:1081  tempHaiku.line2 = storedHaiku.line2 */\n      dup1\n      sload\n      tag_49\n      swap1\n      tag_21\n      jump\t// in\n    tag_49:\n      dup1\n      0x1f\n      add\n      0x20\n      dup1\n      swap2\n      div\n      mul\n      0x20\n      add\n      mload(0x40)\n      swap1\n      dup2\n      add\n      0x40\n      mstore\n      dup1\n      swap3\n      swap2\n      swap1\n      dup2\n      dup2\n      mstore\n      0x20\n      add\n      dup3\n      dup1\n      sload\n      tag_50\n      swap1\n      tag_21\n      jump\t// in\n    tag_50:\n      dup1\n      iszero\n      tag_51\n      jumpi\n      dup1\n      0x1f\n      lt\n      tag_52\n      jumpi\n      0x0100\n      dup1\n      dup4\n      sload\n      div\n      mul\n      dup4\n      mstore\n      swap2\n      0x20\n      add\n      swap2\n      jump(tag_51)\n    tag_52:\n      dup3\n      add\n      swap2\n      swap1\n      0x00\n      mstore\n      keccak256(0x00, 0x20)\n      swap1\n    tag_53:\n      dup2\n      sload\n      dup2\n      mstore\n      swap1\n      0x01\n      add\n      swap1\n      0x20\n      add\n      dup1\n      dup4\n      gt\n      tag_53\n      jumpi\n      dup3\n      swap1\n      sub\n      0x1f\n      and\n      dup3\n      add\n      swap2\n    tag_51:\n      pop\n      pop\n      pop\n      pop\n      pop\n        /* \"impin.sol\":1046:1055  tempHaiku */\n      dup2\n        /* \"impin.sol\":1046:1061  tempHaiku.line2 */\n      0x20\n      add\n        /* \"impin.sol\":1046:1081  tempHaiku.line2 = storedHaiku.line2 */\n      dup2\n      swap1\n      mstore\n      pop\n        /* \"impin.sol\":1123:1134  storedHaiku */\n      0x00\n        /* \"impin.sol\":1123:1140  storedHaiku.line3 */\n      0x02\n      add\n        /* \"impin.sol\":1109:1157  string.concat(storedHaiku.line3, unicode\" 🤷\") */\n      add(0x20, mload(0x40))\n      tag_54\n      swap2\n      swap1\n      tag_55\n      jump\t// in\n    tag_54:\n      mload(0x40)\n      0x20\n      dup2\n      dup4\n      sub\n      sub\n      dup2\n      mstore\n      swap1\n      0x40\n      mstore\n        /* \"impin.sol\":1091:1100  tempHaiku */\n      dup2\n        /* \"impin.sol\":1091:1106  tempHaiku.line3 */\n      0x40\n      add\n        /* \"impin.sol\":1091:1157  tempHaiku.line3 = string.concat(storedHaiku.line3, unicode\" 🤷\") */\n      dup2\n      swap1\n      mstore\n      pop\n        /* \"impin.sol\":1175:1184  tempHaiku */\n      dup1\n        /* \"impin.sol\":1168:1184  return tempHaiku */\n      swap2\n      pop\n      pop\n        /* \"impin.sol\":879:1191  function shruggieHaiku() external view override returns (Haiku memory) {... */\n      swap1\n      jump\t// out\n    tag_18:\n      mload(0x40)\n      dup1\n      0x60\n      add\n      0x40\n      mstore\n      dup1\n      0x60\n      dup2\n      mstore\n      0x20\n      add\n      0x60\n      dup2\n      mstore\n      0x20\n      add\n      0x60\n      dup2\n      mstore\n      pop\n      swap1\n      jump\t// out\n        /* \"#utility.yul\":7:106   */\n    tag_56:\n        /* \"#utility.yul\":59:65   */\n      0x00\n        /* \"#utility.yul\":93:98   */\n      dup2\n        /* \"#utility.yul\":87:99   */\n      mload\n        /* \"#utility.yul\":77:99   */\n      swap1\n      pop\n        /* \"#utility.yul\":7:106   */\n      swap2\n      swap1\n      pop\n      jump\t// out\n        /* \"#utility.yul\":112:271   */\n    tag_57:\n        /* \"#utility.yul\":186:197   */\n      0x00\n        /* \"#utility.yul\":220:226   */\n      dup3\n        /* \"#utility.yul\":215:218   */\n      dup3\n        /* \"#utility.yul\":208:227   */\n      mstore\n        /* \"#utility.yul\":260:264   */\n      0x20\n        /* \"#utility.yul\":255:258   */\n      dup3\n        /* \"#utility.yul\":251:265   */\n      add\n        /* \"#utility.yul\":236:265   */\n      swap1\n      pop\n        /* \"#utility.yul\":112:271   */\n      swap3\n      swap2\n      pop\n      pop\n      jump\t// out\n        /* \"#utility.yul\":277:523   */\n    tag_58:\n        /* \"#utility.yul\":358:359   */\n      0x00\n        /* \"#utility.yul\":368:481   */\n    tag_98:\n        /* \"#utility.yul\":382:388   */\n      dup4\n        /* \"#utility.yul\":379:380   */\n      dup2\n        /* \"#utility.yul\":376:389   */\n      lt\n        /* \"#utility.yul\":368:481   */\n      iszero\n      tag_100\n      jumpi\n        /* \"#utility.yul\":467:468   */\n      dup1\n        /* \"#utility.yul\":462:465   */\n      dup3\n        /* \"#utility.yul\":458:469   */\n      add\n        /* \"#utility.yul\":452:470   */\n      mload\n        /* \"#utility.yul\":448:449   */\n      dup2\n        /* \"#utility.yul\":443:446   */\n      dup5\n        /* \"#utility.yul\":439:450   */\n      add\n        /* \"#utility.yul\":432:471   */\n      mstore\n        /* \"#utility.yul\":404:406   */\n      0x20\n        /* \"#utility.yul\":401:402   */\n      dup2\n        /* \"#utility.yul\":397:407   */\n      add\n        /* \"#utility.yul\":392:407   */\n      swap1\n      pop\n        /* \"#utility.yul\":368:481   */\n      jump(tag_98)\n    tag_100:\n        /* \"#utility.yul\":515:516   */\n      0x00\n        /* \"#utility.yul\":506:512   */\n      dup5\n        /* \"#utility.yul\":501:504   */\n      dup5\n        /* \"#utility.yul\":497:513   */\n      add\n        /* \"#utility.yul\":490:517   */\n      mstore\n        /* \"#utility.yul\":339:523   */\n      pop\n        /* \"#utility.yul\":277:523   */\n      pop\n      pop\n      pop\n      jump\t// out\n        /* \"#utility.yul\":529:631   */\n    tag_59:\n        /* \"#utility.yul\":570:576   */\n      0x00\n        /* \"#utility.yul\":621:623   */\n      0x1f\n        /* \"#utility.yul\":617:624   */\n      not\n        /* \"#utility.yul\":612:614   */\n      0x1f\n        /* \"#utility.yul\":605:610   */\n      dup4\n        /* \"#utility.yul\":601:615   */\n      add\n        /* \"#utility.yul\":597:625   */\n      and\n        /* \"#utility.yul\":587:625   */\n      swap1\n      pop\n        /* \"#utility.yul\":529:631   */\n      swap2\n      swap1\n      pop\n      jump\t// out\n        /* \"#utility.yul\":637:994   */\n    tag_60:\n        /* \"#utility.yul\":715:718   */\n      0x00\n        /* \"#utility.yul\":743:782   */\n      tag_103\n        /* \"#utility.yul\":776:781   */\n      dup3\n        /* \"#utility.yul\":743:782   */\n      tag_56\n      jump\t// in\n    tag_103:\n        /* \"#utility.yul\":798:859   */\n      tag_104\n        /* \"#utility.yul\":852:858   */\n      dup2\n        /* \"#utility.yul\":847:850   */\n      dup6\n        /* \"#utility.yul\":798:859   */\n      tag_57\n      jump\t// in\n    tag_104:\n        /* \"#utility.yul\":791:859   */\n      swap4\n      pop\n        /* \"#utility.yul\":868:933   */\n      tag_105\n        /* \"#utility.yul\":926:932   */\n      dup2\n        /* \"#utility.yul\":921:924   */\n      dup6\n        /* \"#utility.yul\":914:918   */\n      0x20\n        /* \"#utility.yul\":907:912   */\n      dup7\n        /* \"#utility.yul\":903:919   */\n      add\n        /* \"#utility.yul\":868:933   */\n      tag_58\n      jump\t// in\n    tag_105:\n        /* \"#utility.yul\":958:987   */\n      tag_106\n        /* \"#utility.yul\":980:986   */\n      dup2\n        /* \"#utility.yul\":958:987   */\n      tag_59\n      jump\t// in\n    tag_106:\n        /* \"#utility.yul\":953:956   */\n      dup5\n        /* \"#utility.yul\":949:988   */\n      add\n        /* \"#utility.yul\":942:988   */\n      swap2\n      pop\n        /* \"#utility.yul\":719:994   */\n      pop\n        /* \"#utility.yul\":637:994   */\n      swap3\n      swap2\n      pop\n      pop\n      jump\t// out\n        /* \"#utility.yul\":1060:1975   */\n    tag_61:\n        /* \"#utility.yul\":1169:1172   */\n      0x00\n        /* \"#utility.yul\":1205:1209   */\n      0x60\n        /* \"#utility.yul\":1200:1203   */\n      dup4\n        /* \"#utility.yul\":1196:1210   */\n      add\n        /* \"#utility.yul\":1293:1297   */\n      0x00\n        /* \"#utility.yul\":1286:1291   */\n      dup4\n        /* \"#utility.yul\":1282:1298   */\n      add\n        /* \"#utility.yul\":1276:1299   */\n      mload\n        /* \"#utility.yul\":1346:1349   */\n      dup5\n        /* \"#utility.yul\":1340:1344   */\n      dup3\n        /* \"#utility.yul\":1336:1350   */\n      sub\n        /* \"#utility.yul\":1329:1333   */\n      0x00\n        /* \"#utility.yul\":1324:1327   */\n      dup7\n        /* \"#utility.yul\":1320:1334   */\n      add\n        /* \"#utility.yul\":1313:1351   */\n      mstore\n        /* \"#utility.yul\":1372:1445   */\n      tag_108\n        /* \"#utility.yul\":1440:1444   */\n      dup3\n        /* \"#utility.yul\":1426:1438   */\n      dup3\n        /* \"#utility.yul\":1372:1445   */\n      tag_60\n      jump\t// in\n    tag_108:\n        /* \"#utility.yul\":1364:1445   */\n      swap2\n      pop\n        /* \"#utility.yul\":1220:1456   */\n      pop\n        /* \"#utility.yul\":1539:1543   */\n      0x20\n        /* \"#utility.yul\":1532:1537   */\n      dup4\n        /* \"#utility.yul\":1528:1544   */\n      add\n        /* \"#utility.yul\":1522:1545   */\n      mload\n        /* \"#utility.yul\":1592:1595   */\n      dup5\n        /* \"#utility.yul\":1586:1590   */\n      dup3\n        /* \"#utility.yul\":1582:1596   */\n      sub\n        /* \"#utility.yul\":1575:1579   */\n      0x20\n        /* \"#utility.yul\":1570:1573   */\n      dup7\n        /* \"#utility.yul\":1566:1580   */\n      add\n        /* \"#utility.yul\":1559:1597   */\n      mstore\n        /* \"#utility.yul\":1618:1691   */\n      tag_109\n        /* \"#utility.yul\":1686:1690   */\n      dup3\n        /* \"#utility.yul\":1672:1684   */\n      dup3\n        /* \"#utility.yul\":1618:1691   */\n      tag_60\n      jump\t// in\n    tag_109:\n        /* \"#utility.yul\":1610:1691   */\n      swap2\n      pop\n        /* \"#utility.yul\":1466:1702   */\n      pop\n        /* \"#utility.yul\":1785:1789   */\n      0x40\n        /* \"#utility.yul\":1778:1783   */\n      dup4\n        /* \"#utility.yul\":1774:1790   */\n      add\n        /* \"#utility.yul\":1768:1791   */\n      mload\n        /* \"#utility.yul\":1838:1841   */\n      dup5\n        /* \"#utility.yul\":1832:1836   */\n      dup3\n        /* \"#utility.yul\":1828:1842   */\n      sub\n        /* \"#utility.yul\":1821:1825   */\n      0x40\n        /* \"#utility.yul\":1816:1819   */\n      dup7\n        /* \"#utility.yul\":1812:1826   */\n      add\n        /* \"#utility.yul\":1805:1843   */\n      mstore\n        /* \"#utility.yul\":1864:1937   */\n      tag_110\n        /* \"#utility.yul\":1932:1936   */\n      dup3\n        /* \"#utility.yul\":1918:1930   */\n      dup3\n        /* \"#utility.yul\":1864:1937   */\n      tag_60\n      jump\t// in\n    tag_110:\n        /* \"#utility.yul\":1856:1937   */\n      swap2\n      pop\n        /* \"#utility.yul\":1712:1948   */\n      pop\n        /* \"#utility.yul\":1965:1969   */\n      dup1\n        /* \"#utility.yul\":1958:1969   */\n      swap2\n      pop\n        /* \"#utility.yul\":1174:1975   */\n      pop\n        /* \"#utility.yul\":1060:1975   */\n      swap3\n      swap2\n      pop\n      pop\n      jump\t// out\n        /* \"#utility.yul\":1981:2334   */\n    tag_9:\n        /* \"#utility.yul\":2114:2118   */\n      0x00\n        /* \"#utility.yul\":2152:2154   */\n      0x20\n        /* \"#utility.yul\":2141:2150   */\n      dup3\n        /* \"#utility.yul\":2137:2155   */\n      add\n        /* \"#utility.yul\":2129:2155   */\n      swap1\n      pop\n        /* \"#utility.yul\":2201:2210   */\n      dup2\n        /* \"#utility.yul\":2195:2199   */\n      dup2\n        /* \"#utility.yul\":2191:2211   */\n      sub\n        /* \"#utility.yul\":2187:2188   */\n      0x00\n        /* \"#utility.yul\":2176:2185   */\n      dup4\n        /* \"#utility.yul\":2172:2189   */\n      add\n        /* \"#utility.yul\":2165:2212   */\n      mstore\n        /* \"#utility.yul\":2229:2327   */\n      tag_112\n        /* \"#utility.yul\":2322:2326   */\n      dup2\n        /* \"#utility.yul\":2313:2319   */\n      dup5\n        /* \"#utility.yul\":2229:2327   */\n      tag_61\n      jump\t// in\n    tag_112:\n        /* \"#utility.yul\":2221:2327   */\n      swap1\n      pop\n        /* \"#utility.yul\":1981:2334   */\n      swap3\n      swap2\n      pop\n      pop\n      jump\t// out\n        /* \"#utility.yul\":2340:2415   */\n    tag_62:\n        /* \"#utility.yul\":2373:2379   */\n      0x00\n        /* \"#utility.yul\":2406:2408   */\n      0x40\n        /* \"#utility.yul\":2400:2409   */\n      mload\n        /* \"#utility.yul\":2390:2409   */\n      swap1\n      pop\n        /* \"#utility.yul\":2340:2415   */\n      swap1\n      jump\t// out\n        /* \"#utility.yul\":2421:2538   */\n    tag_63:\n        /* \"#utility.yul\":2530:2531   */\n      0x00\n        /* \"#utility.yul\":2527:2528   */\n      dup1\n        /* \"#utility.yul\":2520:2532   */\n      revert\n        /* \"#utility.yul\":2544:2661   */\n    tag_64:\n        /* \"#utility.yul\":2653:2654   */\n      0x00\n        /* \"#utility.yul\":2650:2651   */\n      dup1\n        /* \"#utility.yul\":2643:2655   */\n      revert\n        /* \"#utility.yul\":2667:2784   */\n    tag_65:\n        /* \"#utility.yul\":2776:2777   */\n      0x00\n        /* \"#utility.yul\":2773:2774   */\n      dup1\n        /* \"#utility.yul\":2766:2778   */\n      revert\n        /* \"#utility.yul\":2790:2907   */\n    tag_66:\n        /* \"#utility.yul\":2899:2900   */\n      0x00\n        /* \"#utility.yul\":2896:2897   */\n      dup1\n        /* \"#utility.yul\":2889:2901   */\n      revert\n        /* \"#utility.yul\":2913:3093   */\n    tag_67:\n        /* \"#utility.yul\":2961:3038   */\n      0x4e487b7100000000000000000000000000000000000000000000000000000000\n        /* \"#utility.yul\":2958:2959   */\n      0x00\n        /* \"#utility.yul\":2951:3039   */\n      mstore\n        /* \"#utility.yul\":3058:3062   */\n      0x41\n        /* \"#utility.yul\":3055:3056   */\n      0x04\n        /* \"#utility.yul\":3048:3063   */\n      mstore\n        /* \"#utility.yul\":3082:3086   */\n      0x24\n        /* \"#utility.yul\":3079:3080   */\n      0x00\n        /* \"#utility.yul\":3072:3087   */\n      revert\n        /* \"#utility.yul\":3099:3380   */\n    tag_68:\n        /* \"#utility.yul\":3182:3209   */\n      tag_120\n        /* \"#utility.yul\":3204:3208   */\n      dup3\n        /* \"#utility.yul\":3182:3209   */\n      tag_59\n      jump\t// in\n    tag_120:\n        /* \"#utility.yul\":3174:3180   */\n      dup2\n        /* \"#utility.yul\":3170:3210   */\n      add\n        /* \"#utility.yul\":3312:3318   */\n      dup2\n        /* \"#utility.yul\":3300:3310   */\n      dup2\n        /* \"#utility.yul\":3297:3319   */\n      lt\n        /* \"#utility.yul\":3276:3294   */\n      0xffffffffffffffff\n        /* \"#utility.yul\":3264:3274   */\n      dup3\n        /* \"#utility.yul\":3261:3295   */\n      gt\n        /* \"#utility.yul\":3258:3320   */\n      or\n        /* \"#utility.yul\":3255:3343   */\n      iszero\n      tag_121\n      jumpi\n        /* \"#utility.yul\":3323:3341   */\n      tag_122\n      tag_67\n      jump\t// in\n    tag_122:\n        /* \"#utility.yul\":3255:3343   */\n    tag_121:\n        /* \"#utility.yul\":3363:3373   */\n      dup1\n        /* \"#utility.yul\":3359:3361   */\n      0x40\n        /* \"#utility.yul\":3352:3374   */\n      mstore\n        /* \"#utility.yul\":3142:3380   */\n      pop\n        /* \"#utility.yul\":3099:3380   */\n      pop\n      pop\n      jump\t// out\n        /* \"#utility.yul\":3386:3515   */\n    tag_69:\n        /* \"#utility.yul\":3420:3426   */\n      0x00\n        /* \"#utility.yul\":3447:3467   */\n      tag_124\n      tag_62\n      jump\t// in\n    tag_124:\n        /* \"#utility.yul\":3437:3467   */\n      swap1\n      pop\n        /* \"#utility.yul\":3476:3509   */\n      tag_125\n        /* \"#utility.yul\":3504:3508   */\n      dup3\n        /* \"#utility.yul\":3496:3502   */\n      dup3\n        /* \"#utility.yul\":3476:3509   */\n      tag_68\n      jump\t// in\n    tag_125:\n        /* \"#utility.yul\":3386:3515   */\n      swap2\n      swap1\n      pop\n      jump\t// out\n        /* \"#utility.yul\":3521:3829   */\n    tag_70:\n        /* \"#utility.yul\":3583:3587   */\n      0x00\n        /* \"#utility.yul\":3673:3691   */\n      0xffffffffffffffff\n        /* \"#utility.yul\":3665:3671   */\n      dup3\n        /* \"#utility.yul\":3662:3692   */\n      gt\n        /* \"#utility.yul\":3659:3715   */\n      iszero\n      tag_127\n      jumpi\n        /* \"#utility.yul\":3695:3713   */\n      tag_128\n      tag_67\n      jump\t// in\n    tag_128:\n        /* \"#utility.yul\":3659:3715   */\n    tag_127:\n        /* \"#utility.yul\":3733:3762   */\n      tag_129\n        /* \"#utility.yul\":3755:3761   */\n      dup3\n        /* \"#utility.yul\":3733:3762   */\n      tag_59\n      jump\t// in\n    tag_129:\n        /* \"#utility.yul\":3725:3762   */\n      swap1\n      pop\n        /* \"#utility.yul\":3817:3821   */\n      0x20\n        /* \"#utility.yul\":3811:3815   */\n      dup2\n        /* \"#utility.yul\":3807:3822   */\n      add\n        /* \"#utility.yul\":3799:3822   */\n      swap1\n      pop\n        /* \"#utility.yul\":3521:3829   */\n      swap2\n      swap1\n      pop\n      jump\t// out\n        /* \"#utility.yul\":3835:3981   */\n    tag_71:\n        /* \"#utility.yul\":3932:3938   */\n      dup3\n        /* \"#utility.yul\":3927:3930   */\n      dup2\n        /* \"#utility.yul\":3922:3925   */\n      dup4\n        /* \"#utility.yul\":3909:3939   */\n      calldatacopy\n        /* \"#utility.yul\":3973:3974   */\n      0x00\n        /* \"#utility.yul\":3964:3970   */\n      dup4\n        /* \"#utility.yul\":3959:3962   */\n      dup4\n        /* \"#utility.yul\":3955:3971   */\n      add\n        /* \"#utility.yul\":3948:3975   */\n      mstore\n        /* \"#utility.yul\":3835:3981   */\n      pop\n      pop\n      pop\n      jump\t// out\n        /* \"#utility.yul\":3987:4412   */\n    tag_72:\n        /* \"#utility.yul\":4065:4070   */\n      0x00\n        /* \"#utility.yul\":4090:4156   */\n      tag_132\n        /* \"#utility.yul\":4106:4155   */\n      tag_133\n        /* \"#utility.yul\":4148:4154   */\n      dup5\n        /* \"#utility.yul\":4106:4155   */\n      tag_70\n      jump\t// in\n    tag_133:\n        /* \"#utility.yul\":4090:4156   */\n      tag_69\n      jump\t// in\n    tag_132:\n        /* \"#utility.yul\":4081:4156   */\n      swap1\n      pop\n        /* \"#utility.yul\":4179:4185   */\n      dup3\n        /* \"#utility.yul\":4172:4177   */\n      dup2\n        /* \"#utility.yul\":4165:4186   */\n      mstore\n        /* \"#utility.yul\":4217:4221   */\n      0x20\n        /* \"#utility.yul\":4210:4215   */\n      dup2\n        /* \"#utility.yul\":4206:4222   */\n      add\n        /* \"#utility.yul\":4255:4258   */\n      dup5\n        /* \"#utility.yul\":4246:4252   */\n      dup5\n        /* \"#utility.yul\":4241:4244   */\n      dup5\n        /* \"#utility.yul\":4237:4253   */\n      add\n        /* \"#utility.yul\":4234:4259   */\n      gt\n        /* \"#utility.yul\":4231:4343   */\n      iszero\n      tag_134\n      jumpi\n        /* \"#utility.yul\":4262:4341   */\n      tag_135\n      tag_66\n      jump\t// in\n    tag_135:\n        /* \"#utility.yul\":4231:4343   */\n    tag_134:\n        /* \"#utility.yul\":4352:4406   */\n      tag_136\n        /* \"#utility.yul\":4399:4405   */\n      dup5\n        /* \"#utility.yul\":4394:4397   */\n      dup3\n        /* \"#utility.yul\":4389:4392   */\n      dup6\n        /* \"#utility.yul\":4352:4406   */\n      tag_71\n      jump\t// in\n    tag_136:\n        /* \"#utility.yul\":4071:4412   */\n      pop\n        /* \"#utility.yul\":3987:4412   */\n      swap4\n      swap3\n      pop\n      pop\n      pop\n      jump\t// out\n        /* \"#utility.yul\":4432:4772   */\n    tag_73:\n        /* \"#utility.yul\":4488:4493   */\n      0x00\n        /* \"#utility.yul\":4537:4540   */\n      dup3\n        /* \"#utility.yul\":4530:4534   */\n      0x1f\n        /* \"#utility.yul\":4522:4528   */\n      dup4\n        /* \"#utility.yul\":4518:4535   */\n      add\n        /* \"#utility.yul\":4514:4541   */\n      slt\n        /* \"#utility.yul\":4504:4626   */\n      tag_138\n      jumpi\n        /* \"#utility.yul\":4545:4624   */\n      tag_139\n      tag_65\n      jump\t// in\n    tag_139:\n        /* \"#utility.yul\":4504:4626   */\n    tag_138:\n        /* \"#utility.yul\":4662:4668   */\n      dup2\n        /* \"#utility.yul\":4649:4669   */\n      calldataload\n        /* \"#utility.yul\":4687:4766   */\n      tag_140\n        /* \"#utility.yul\":4762:4765   */\n      dup5\n        /* \"#utility.yul\":4754:4760   */\n      dup3\n        /* \"#utility.yul\":4747:4751   */\n      0x20\n        /* \"#utility.yul\":4739:4745   */\n      dup7\n        /* \"#utility.yul\":4735:4752   */\n      add\n        /* \"#utility.yul\":4687:4766   */\n      tag_72\n      jump\t// in\n    tag_140:\n        /* \"#utility.yul\":4678:4766   */\n      swap2\n      pop\n        /* \"#utility.yul\":4494:4772   */\n      pop\n        /* \"#utility.yul\":4432:4772   */\n      swap3\n      swap2\n      pop\n      pop\n      jump\t// out\n        /* \"#utility.yul\":4778:5937   */\n    tag_12:\n        /* \"#utility.yul\":4885:4891   */\n      0x00\n        /* \"#utility.yul\":4893:4899   */\n      dup1\n        /* \"#utility.yul\":4901:4907   */\n      0x00\n        /* \"#utility.yul\":4950:4952   */\n      0x60\n        /* \"#utility.yul\":4938:4947   */\n      dup5\n        /* \"#utility.yul\":4929:4936   */\n      dup7\n        /* \"#utility.yul\":4925:4948   */\n      sub\n        /* \"#utility.yul\":4921:4953   */\n      slt\n        /* \"#utility.yul\":4918:5037   */\n      iszero\n      tag_142\n      jumpi\n        /* \"#utility.yul\":4956:5035   */\n      tag_143\n      tag_63\n      jump\t// in\n    tag_143:\n        /* \"#utility.yul\":4918:5037   */\n    tag_142:\n        /* \"#utility.yul\":5104:5105   */\n      0x00\n        /* \"#utility.yul\":5093:5102   */\n      dup5\n        /* \"#utility.yul\":5089:5106   */\n      add\n        /* \"#utility.yul\":5076:5107   */\n      calldataload\n        /* \"#utility.yul\":5134:5152   */\n      0xffffffffffffffff\n        /* \"#utility.yul\":5126:5132   */\n      dup2\n        /* \"#utility.yul\":5123:5153   */\n      gt\n        /* \"#utility.yul\":5120:5237   */\n      iszero\n      tag_144\n      jumpi\n        /* \"#utility.yul\":5156:5235   */\n      tag_145\n      tag_64\n      jump\t// in\n    tag_145:\n        /* \"#utility.yul\":5120:5237   */\n    tag_144:\n        /* \"#utility.yul\":5261:5324   */\n      tag_146\n        /* \"#utility.yul\":5316:5323   */\n      dup7\n        /* \"#utility.yul\":5307:5313   */\n      dup3\n        /* \"#utility.yul\":5296:5305   */\n      dup8\n        /* \"#utility.yul\":5292:5314   */\n      add\n        /* \"#utility.yul\":5261:5324   */\n      tag_73\n      jump\t// in\n    tag_146:\n        /* \"#utility.yul\":5251:5324   */\n      swap4\n      pop\n        /* \"#utility.yul\":5047:5334   */\n      pop\n        /* \"#utility.yul\":5401:5403   */\n      0x20\n        /* \"#utility.yul\":5390:5399   */\n      dup5\n        /* \"#utility.yul\":5386:5404   */\n      add\n        /* \"#utility.yul\":5373:5405   */\n      calldataload\n        /* \"#utility.yul\":5432:5450   */\n      0xffffffffffffffff\n        /* \"#utility.yul\":5424:5430   */\n      dup2\n        /* \"#utility.yul\":5421:5451   */\n      gt\n        /* \"#utility.yul\":5418:5535   */\n      iszero\n      tag_147\n      jumpi\n        /* \"#utility.yul\":5454:5533   */\n      tag_148\n      tag_64\n      jump\t// in\n    tag_148:\n        /* \"#utility.yul\":5418:5535   */\n    tag_147:\n        /* \"#utility.yul\":5559:5622   */\n      tag_149\n        /* \"#utility.yul\":5614:5621   */\n      dup7\n        /* \"#utility.yul\":5605:5611   */\n      dup3\n        /* \"#utility.yul\":5594:5603   */\n      dup8\n        /* \"#utility.yul\":5590:5612   */\n      add\n        /* \"#utility.yul\":5559:5622   */\n      tag_73\n      jump\t// in\n    tag_149:\n        /* \"#utility.yul\":5549:5622   */\n      swap3\n      pop\n        /* \"#utility.yul\":5344:5632   */\n      pop\n        /* \"#utility.yul\":5699:5701   */\n      0x40\n        /* \"#utility.yul\":5688:5697   */\n      dup5\n        /* \"#utility.yul\":5684:5702   */\n      add\n        /* \"#utility.yul\":5671:5703   */\n      calldataload\n        /* \"#utility.yul\":5730:5748   */\n      0xffffffffffffffff\n        /* \"#utility.yul\":5722:5728   */\n      dup2\n        /* \"#utility.yul\":5719:5749   */\n      gt\n        /* \"#utility.yul\":5716:5833   */\n      iszero\n      tag_150\n      jumpi\n        /* \"#utility.yul\":5752:5831   */\n      tag_151\n      tag_64\n      jump\t// in\n    tag_151:\n        /* \"#utility.yul\":5716:5833   */\n    tag_150:\n        /* \"#utility.yul\":5857:5920   */\n      tag_152\n        /* \"#utility.yul\":5912:5919   */\n      dup7\n        /* \"#utility.yul\":5903:5909   */\n      dup3\n        /* \"#utility.yul\":5892:5901   */\n      dup8\n        /* \"#utility.yul\":5888:5910   */\n      add\n        /* \"#utility.yul\":5857:5920   */\n      tag_73\n      jump\t// in\n    tag_152:\n        /* \"#utility.yul\":5847:5920   */\n      swap2\n      pop\n        /* \"#utility.yul\":5642:5930   */\n      pop\n        /* \"#utility.yul\":4778:5937   */\n      swap3\n      pop\n      swap3\n      pop\n      swap3\n      jump\t// out\n        /* \"#utility.yul\":5943:6123   */\n    tag_74:\n        /* \"#utility.yul\":5991:6068   */\n      0x4e487b7100000000000000000000000000000000000000000000000000000000\n        /* \"#utility.yul\":5988:5989   */\n      0x00\n        /* \"#utility.yul\":5981:6069   */\n      mstore\n        /* \"#utility.yul\":6088:6092   */\n      0x22\n        /* \"#utility.yul\":6085:6086   */\n      0x04\n        /* \"#utility.yul\":6078:6093   */\n      mstore\n        /* \"#utility.yul\":6112:6116   */\n      0x24\n        /* \"#utility.yul\":6109:6110   */\n      0x00\n        /* \"#utility.yul\":6102:6117   */\n      revert\n        /* \"#utility.yul\":6129:6449   */\n    tag_21:\n        /* \"#utility.yul\":6173:6179   */\n      0x00\n        /* \"#utility.yul\":6210:6211   */\n      0x02\n        /* \"#utility.yul\":6204:6208   */\n      dup3\n        /* \"#utility.yul\":6200:6212   */\n      div\n        /* \"#utility.yul\":6190:6212   */\n      swap1\n      pop\n        /* \"#utility.yul\":6257:6258   */\n      0x01\n        /* \"#utility.yul\":6251:6255   */\n      dup3\n        /* \"#utility.yul\":6247:6259   */\n      and\n        /* \"#utility.yul\":6278:6296   */\n      dup1\n        /* \"#utility.yul\":6268:6349   */\n      tag_155\n      jumpi\n        /* \"#utility.yul\":6334:6338   */\n      0x7f\n        /* \"#utility.yul\":6326:6332   */\n      dup3\n        /* \"#utility.yul\":6322:6339   */\n      and\n        /* \"#utility.yul\":6312:6339   */\n      swap2\n      pop\n        /* \"#utility.yul\":6268:6349   */\n    tag_155:\n        /* \"#utility.yul\":6396:6398   */\n      0x20\n        /* \"#utility.yul\":6388:6394   */\n      dup3\n        /* \"#utility.yul\":6385:6399   */\n      lt\n        /* \"#utility.yul\":6365:6383   */\n      dup2\n        /* \"#utility.yul\":6362:6400   */\n      sub\n        /* \"#utility.yul\":6359:6443   */\n      tag_156\n      jumpi\n        /* \"#utility.yul\":6415:6433   */\n      tag_157\n      tag_74\n      jump\t// in\n    tag_157:\n        /* \"#utility.yul\":6359:6443   */\n    tag_156:\n        /* \"#utility.yul\":6180:6449   */\n      pop\n        /* \"#utility.yul\":6129:6449   */\n      swap2\n      swap1\n      pop\n      jump\t// out\n        /* \"#utility.yul\":6455:6596   */\n    tag_75:\n        /* \"#utility.yul\":6504:6508   */\n      0x00\n        /* \"#utility.yul\":6527:6530   */\n      dup2\n        /* \"#utility.yul\":6519:6530   */\n      swap1\n      pop\n        /* \"#utility.yul\":6550:6553   */\n      dup2\n        /* \"#utility.yul\":6547:6548   */\n      0x00\n        /* \"#utility.yul\":6540:6554   */\n      mstore\n        /* \"#utility.yul\":6584:6588   */\n      0x20\n        /* \"#utility.yul\":6581:6582   */\n      0x00\n        /* \"#utility.yul\":6571:6589   */\n      keccak256\n        /* \"#utility.yul\":6563:6589   */\n      swap1\n      pop\n        /* \"#utility.yul\":6455:6596   */\n      swap2\n      swap1\n      pop\n      jump\t// out\n        /* \"#utility.yul\":6602:6695   */\n    tag_76:\n        /* \"#utility.yul\":6639:6645   */\n      0x00\n        /* \"#utility.yul\":6686:6688   */\n      0x20\n        /* \"#utility.yul\":6681:6683   */\n      0x1f\n        /* \"#utility.yul\":6674:6679   */\n      dup4\n        /* \"#utility.yul\":6670:6684   */\n      add\n        /* \"#utility.yul\":6666:6689   */\n      div\n        /* \"#utility.yul\":6656:6689   */\n      swap1\n      pop\n        /* \"#utility.yul\":6602:6695   */\n      swap2\n      swap1\n      pop\n      jump\t// out\n        /* \"#utility.yul\":6701:6808   */\n    tag_77:\n        /* \"#utility.yul\":6745:6753   */\n      0x00\n        /* \"#utility.yul\":6795:6800   */\n      dup3\n        /* \"#utility.yul\":6789:6793   */\n      dup3\n        /* \"#utility.yul\":6785:6801   */\n      shl\n        /* \"#utility.yul\":6764:6801   */\n      swap1\n      pop\n        /* \"#utility.yul\":6701:6808   */\n      swap3\n      swap2\n      pop\n      pop\n      jump\t// out\n        /* \"#utility.yul\":6814:7207   */\n    tag_78:\n        /* \"#utility.yul\":6883:6889   */\n      0x00\n        /* \"#utility.yul\":6933:6934   */\n      0x08\n        /* \"#utility.yul\":6921:6931   */\n      dup4\n        /* \"#utility.yul\":6917:6935   */\n      mul\n        /* \"#utility.yul\":6956:7053   */\n      tag_162\n        /* \"#utility.yul\":6986:7052   */\n      0xffffffffffffffffffffffffffffffffffffffffffffffffffffffffffffffff\n        /* \"#utility.yul\":6975:6984   */\n      dup3\n        /* \"#utility.yul\":6956:7053   */\n      tag_77\n      jump\t// in\n    tag_162:\n        /* \"#utility.yul\":7074:7113   */\n      tag_163\n        /* \"#utility.yul\":7104:7112   */\n      dup7\n        /* \"#utility.yul\":7093:7102   */\n      dup4\n        /* \"#utility.yul\":7074:7113   */\n      tag_77\n      jump\t// in\n    tag_163:\n        /* \"#utility.yul\":7062:7113   */\n      swap6\n      pop\n        /* \"#utility.yul\":7146:7150   */\n      dup1\n        /* \"#utility.yul\":7142:7151   */\n      not\n        /* \"#utility.yul\":7135:7140   */\n      dup5\n        /* \"#utility.yul\":7131:7152   */\n      and\n        /* \"#utility.yul\":7122:7152   */\n      swap4\n      pop\n        /* \"#utility.yul\":7195:7199   */\n      dup1\n        /* \"#utility.yul\":7185:7193   */\n      dup7\n        /* \"#utility.yul\":7181:7200   */\n      and\n        /* \"#utility.yul\":7174:7179   */\n      dup5\n        /* \"#utility.yul\":7171:7201   */\n      or\n        /* \"#utility.yul\":7161:7201   */\n      swap3\n      pop\n        /* \"#utility.yul\":6890:7207   */\n      pop\n      pop\n        /* \"#utility.yul\":6814:7207   */\n      swap4\n      swap3\n      pop\n      pop\n      pop\n      jump\t// out\n        /* \"#utility.yul\":7213:7290   */\n    tag_79:\n        /* \"#utility.yul\":7250:7257   */\n      0x00\n        /* \"#utility.yul\":7279:7284   */\n      dup2\n        /* \"#utility.yul\":7268:7284   */\n      swap1\n      pop\n        /* \"#utility.yul\":7213:7290   */\n      swap2\n      swap1\n      pop\n      jump\t// out\n        /* \"#utility.yul\":7296:7356   */\n    tag_80:\n        /* \"#utility.yul\":7324:7327   */\n      0x00\n        /* \"#utility.yul\":7345:7350   */\n      dup2\n        /* \"#utility.yul\":7338:7350   */\n      swap1\n      pop\n        /* \"#utility.yul\":7296:7356   */\n      swap2\n      swap1\n      pop\n      jump\t// out\n        /* \"#utility.yul\":7362:7504   */\n    tag_81:\n        /* \"#utility.yul\":7412:7421   */\n      0x00\n        /* \"#utility.yul\":7445:7498   */\n      tag_167\n        /* \"#utility.yul\":7463:7497   */\n      tag_168\n        /* \"#utility.yul\":7472:7496   */\n      tag_169\n        /* \"#utility.yul\":7490:7495   */\n      dup5\n        /* \"#utility.yul\":7472:7496   */\n      tag_79\n      jump\t// in\n    tag_169:\n        /* \"#utility.yul\":7463:7497   */\n      tag_80\n      jump\t// in\n    tag_168:\n        /* \"#utility.yul\":7445:7498   */\n      tag_79\n      jump\t// in\n    tag_167:\n        /* \"#utility.yul\":7432:7498   */\n      swap1\n      pop\n        /* \"#utility.yul\":7362:7504   */\n      swap2\n      swap1\n      pop\n      jump\t// out\n        /* \"#utility.yul\":7510:7585   */\n    tag_82:\n        /* \"#utility.yul\":7553:7556   */\n      0x00\n        /* \"#utility.yul\":7574:7579   */\n      dup2\n        /* \"#utility.yul\":7567:7579   */\n      swap1\n      pop\n        /* \"#utility.yul\":7510:7585   */\n      swap2\n      swap1\n      pop\n      jump\t// out\n        /* \"#utility.yul\":7591:7860   */\n    tag_83:\n        /* \"#utility.yul\":7701:7740   */\n      tag_172\n        /* \"#utility.yul\":7732:7739   */\n      dup4\n        /* \"#utility.yul\":7701:7740   */\n      tag_81\n      jump\t// in\n    tag_172:\n        /* \"#utility.yul\":7762:7853   */\n      tag_173\n        /* \"#utility.yul\":7811:7852   */\n      tag_174\n        /* \"#utility.yul\":7835:7851   */\n      dup3\n        /* \"#utility.yul\":7811:7852   */\n      tag_82\n      jump\t// in\n    tag_174:\n        /* \"#utility.yul\":7803:7809   */\n      dup5\n        /* \"#utility.yul\":7796:7800   */\n      dup5\n        /* \"#utility.yul\":7790:7801   */\n      sload\n        /* \"#utility.yul\":7762:7853   */\n      tag_78\n      jump\t// in\n    tag_173:\n        /* \"#utility.yul\":7756:7760   */\n      dup3\n        /* \"#utility.yul\":7749:7854   */\n      sstore\n        /* \"#utility.yul\":7667:7860   */\n      pop\n        /* \"#utility.yul\":7591:7860   */\n      pop\n      pop\n      pop\n      jump\t// out\n        /* \"#utility.yul\":7866:7939   */\n    tag_84:\n        /* \"#utility.yul\":7911:7914   */\n      0x00\n        /* \"#utility.yul\":7866:7939   */\n      swap1\n      jump\t// out\n        /* \"#utility.yul\":7945:8134   */\n    tag_85:\n        /* \"#utility.yul\":8022:8054   */\n      tag_177\n      tag_84\n      jump\t// in\n    tag_177:\n        /* \"#utility.yul\":8063:8128   */\n      tag_178\n        /* \"#utility.yul\":8121:8127   */\n      dup2\n        /* \"#utility.yul\":8113:8119   */\n      dup5\n        /* \"#utility.yul\":8107:8111   */\n      dup5\n        /* \"#utility.yul\":8063:8128   */\n      tag_83\n      jump\t// in\n    tag_178:\n        /* \"#utility.yul\":7998:8134   */\n      pop\n        /* \"#utility.yul\":7945:8134   */\n      pop\n      pop\n      jump\t// out\n        /* \"#utility.yul\":8140:8326   */\n    tag_86:\n        /* \"#utility.yul\":8200:8320   */\n    tag_180:\n        /* \"#utility.yul\":8217:8220   */\n      dup2\n        /* \"#utility.yul\":8210:8215   */\n      dup2\n        /* \"#utility.yul\":8207:8221   */\n      lt\n        /* \"#utility.yul\":8200:8320   */\n      iszero\n      tag_182\n      jumpi\n        /* \"#utility.yul\":8271:8310   */\n      tag_183\n        /* \"#utility.yul\":8308:8309   */\n      0x00\n        /* \"#utility.yul\":8301:8306   */\n      dup3\n        /* \"#utility.yul\":8271:8310   */\n      tag_85\n      jump\t// in\n    tag_183:\n        /* \"#utility.yul\":8244:8245   */\n      0x01\n        /* \"#utility.yul\":8237:8242   */\n      dup2\n        /* \"#utility.yul\":8233:8246   */\n      add\n        /* \"#utility.yul\":8224:8246   */\n      swap1\n      pop\n        /* \"#utility.yul\":8200:8320   */\n      jump(tag_180)\n    tag_182:\n        /* \"#utility.yul\":8140:8326   */\n      pop\n      pop\n      jump\t// out\n        /* \"#utility.yul\":8332:8875   */\n    tag_87:\n        /* \"#utility.yul\":8433:8435   */\n      0x1f\n        /* \"#utility.yul\":8428:8431   */\n      dup3\n        /* \"#utility.yul\":8425:8436   */\n      gt\n        /* \"#utility.yul\":8422:8868   */\n      iszero\n      tag_185\n      jumpi\n        /* \"#utility.yul\":8467:8505   */\n      tag_186\n        /* \"#utility.yul\":8499:8504   */\n      dup2\n        /* \"#utility.yul\":8467:8505   */\n      tag_75\n      jump\t// in\n    tag_186:\n        /* \"#utility.yul\":8551:8580   */\n      tag_187\n        /* \"#utility.yul\":8569:8579   */\n      dup5\n        /* \"#utility.yul\":8551:8580   */\n      tag_76\n      jump\t// in\n    tag_187:\n        /* \"#utility.yul\":8541:8549   */\n      dup2\n        /* \"#utility.yul\":8537:8581   */\n      add\n        /* \"#utility.yul\":8734:8736   */\n      0x20\n        /* \"#utility.yul\":8722:8732   */\n      dup6\n        /* \"#utility.yul\":8719:8737   */\n      lt\n        /* \"#utility.yul\":8716:8765   */\n      iszero\n      tag_188\n      jumpi\n        /* \"#utility.yul\":8755:8763   */\n      dup2\n        /* \"#utility.yul\":8740:8763   */\n      swap1\n      pop\n        /* \"#utility.yul\":8716:8765   */\n    tag_188:\n        /* \"#utility.yul\":8778:8858   */\n      tag_189\n        /* \"#utility.yul\":8834:8856   */\n      tag_190\n        /* \"#utility.yul\":8852:8855   */\n      dup6\n        /* \"#utility.yul\":8834:8856   */\n      tag_76\n      jump\t// in\n    tag_190:\n        /* \"#utility.yul\":8824:8832   */\n      dup4\n        /* \"#utility.yul\":8820:8857   */\n      add\n        /* \"#utility.yul\":8807:8818   */\n      dup3\n        /* \"#utility.yul\":8778:8858   */\n      tag_86\n      jump\t// in\n    tag_189:\n        /* \"#utility.yul\":8437:8868   */\n      pop\n      pop\n        /* \"#utility.yul\":8422:8868   */\n    tag_185:\n        /* \"#utility.yul\":8332:8875   */\n      pop\n      pop\n      pop\n      jump\t// out\n        /* \"#utility.yul\":8881:8998   */\n    tag_88:\n        /* \"#utility.yul\":8935:8943   */\n      0x00\n        /* \"#utility.yul\":8985:8990   */\n      dup3\n        /* \"#utility.yul\":8979:8983   */\n      dup3\n        /* \"#utility.yul\":8975:8991   */\n      shr\n        /* \"#utility.yul\":8954:8991   */\n      swap1\n      pop\n        /* \"#utility.yul\":8881:8998   */\n      swap3\n      swap2\n      pop\n      pop\n      jump\t// out\n        /* \"#utility.yul\":9004:9173   */\n    tag_89:\n        /* \"#utility.yul\":9048:9054   */\n      0x00\n        /* \"#utility.yul\":9081:9132   */\n      tag_193\n        /* \"#utility.yul\":9129:9130   */\n      0x00\n        /* \"#utility.yul\":9125:9131   */\n      not\n        /* \"#utility.yul\":9117:9122   */\n      dup5\n        /* \"#utility.yul\":9114:9115   */\n      0x08\n        /* \"#utility.yul\":9110:9123   */\n      mul\n        /* \"#utility.yul\":9081:9132   */\n      tag_88\n      jump\t// in\n    tag_193:\n        /* \"#utility.yul\":9077:9133   */\n      not\n        /* \"#utility.yul\":9162:9166   */\n      dup1\n        /* \"#utility.yul\":9156:9160   */\n      dup4\n        /* \"#utility.yul\":9152:9167   */\n      and\n        /* \"#utility.yul\":9142:9167   */\n      swap2\n      pop\n        /* \"#utility.yul\":9055:9173   */\n      pop\n        /* \"#utility.yul\":9004:9173   */\n      swap3\n      swap2\n      pop\n      pop\n      jump\t// out\n        /* \"#utility.yul\":9178:9473   */\n    tag_90:\n        /* \"#utility.yul\":9254:9258   */\n      0x00\n        /* \"#utility.yul\":9400:9429   */\n      tag_195\n        /* \"#utility.yul\":9425:9428   */\n      dup4\n        /* \"#utility.yul\":9419:9423   */\n      dup4\n        /* \"#utility.yul\":9400:9429   */\n      tag_89\n      jump\t// in\n    tag_195:\n        /* \"#utility.yul\":9392:9429   */\n      swap2\n      pop\n        /* \"#utility.yul\":9462:9465   */\n      dup3\n        /* \"#utility.yul\":9459:9460   */\n      0x02\n        /* \"#utility.yul\":9455:9466   */\n      mul\n        /* \"#utility.yul\":9449:9453   */\n      dup3\n        /* \"#utility.yul\":9446:9467   */\n      or\n        /* \"#utility.yul\":9438:9467   */\n      swap1\n      pop\n        /* \"#utility.yul\":9178:9473   */\n      swap3\n      swap2\n      pop\n      pop\n      jump\t// out\n        /* \"#utility.yul\":9478:10873   */\n    tag_38:\n        /* \"#utility.yul\":9595:9632   */\n      tag_197\n        /* \"#utility.yul\":9628:9631   */\n      dup3\n        /* \"#utility.yul\":9595:9632   */\n      tag_56\n      jump\t// in\n    tag_197:\n        /* \"#utility.yul\":9697:9715   */\n      0xffffffffffffffff\n        /* \"#utility.yul\":9689:9695   */\n      dup2\n        /* \"#utility.yul\":9686:9716   */\n      gt\n        /* \"#utility.yul\":9683:9739   */\n      iszero\n      tag_198\n      jumpi\n        /* \"#utility.yul\":9719:9737   */\n      tag_199\n      tag_67\n      jump\t// in\n    tag_199:\n        /* \"#utility.yul\":9683:9739   */\n    tag_198:\n        /* \"#utility.yul\":9763:9801   */\n      tag_200\n        /* \"#utility.yul\":9795:9799   */\n      dup3\n        /* \"#utility.yul\":9789:9800   */\n      sload\n        /* \"#utility.yul\":9763:9801   */\n      tag_21\n      jump\t// in\n    tag_200:\n        /* \"#utility.yul\":9848:9915   */\n      tag_201\n        /* \"#utility.yul\":9908:9914   */\n      dup3\n        /* \"#utility.yul\":9900:9906   */\n      dup3\n        /* \"#utility.yul\":9894:9898   */\n      dup6\n        /* \"#utility.yul\":9848:9915   */\n      tag_87\n      jump\t// in\n    tag_201:\n        /* \"#utility.yul\":9942:9943   */\n      0x00\n        /* \"#utility.yul\":9966:9970   */\n      0x20\n        /* \"#utility.yul\":9953:9970   */\n      swap1\n      pop\n        /* \"#utility.yul\":9998:10000   */\n      0x1f\n        /* \"#utility.yul\":9990:9996   */\n      dup4\n        /* \"#utility.yul\":9987:10001   */\n      gt\n        /* \"#utility.yul\":10015:10016   */\n      0x01\n        /* \"#utility.yul\":10010:10628   */\n      dup2\n      eq\n      tag_203\n      jumpi\n        /* \"#utility.yul\":10672:10673   */\n      0x00\n        /* \"#utility.yul\":10689:10695   */\n      dup5\n        /* \"#utility.yul\":10686:10763   */\n      iszero\n      tag_204\n      jumpi\n        /* \"#utility.yul\":10738:10747   */\n      dup3\n        /* \"#utility.yul\":10733:10736   */\n      dup8\n        /* \"#utility.yul\":10729:10748   */\n      add\n        /* \"#utility.yul\":10723:10749   */\n      mload\n        /* \"#utility.yul\":10714:10749   */\n      swap1\n      pop\n        /* \"#utility.yul\":10686:10763   */\n    tag_204:\n        /* \"#utility.yul\":10789:10856   */\n      tag_205\n        /* \"#utility.yul\":10849:10855   */\n      dup6\n        /* \"#utility.yul\":10842:10847   */\n      dup3\n        /* \"#utility.yul\":10789:10856   */\n      tag_90\n      jump\t// in\n    tag_205:\n        /* \"#utility.yul\":10783:10787   */\n      dup7\n        /* \"#utility.yul\":10776:10857   */\n      sstore\n        /* \"#utility.yul\":10645:10867   */\n      pop\n        /* \"#utility.yul\":9980:10867   */\n      jump(tag_202)\n        /* \"#utility.yul\":10010:10628   */\n    tag_203:\n        /* \"#utility.yul\":10062:10066   */\n      0x1f\n        /* \"#utility.yul\":10058:10067   */\n      not\n        /* \"#utility.yul\":10050:10056   */\n      dup5\n        /* \"#utility.yul\":10046:10068   */\n      and\n        /* \"#utility.yul\":10096:10133   */\n      tag_206\n        /* \"#utility.yul\":10128:10132   */\n      dup7\n        /* \"#utility.yul\":10096:10133   */\n      tag_75\n      jump\t// in\n    tag_206:\n        /* \"#utility.yul\":10155:10156   */\n      0x00\n        /* \"#utility.yul\":10169:10377   */\n    tag_207:\n        /* \"#utility.yul\":10183:10190   */\n      dup3\n        /* \"#utility.yul\":10180:10181   */\n      dup2\n        /* \"#utility.yul\":10177:10191   */\n      lt\n        /* \"#utility.yul\":10169:10377   */\n      iszero\n      tag_209\n      jumpi\n        /* \"#utility.yul\":10262:10271   */\n      dup5\n        /* \"#utility.yul\":10257:10260   */\n      dup10\n        /* \"#utility.yul\":10253:10272   */\n      add\n        /* \"#utility.yul\":10247:10273   */\n      mload\n        /* \"#utility.yul\":10239:10245   */\n      dup3\n        /* \"#utility.yul\":10232:10274   */\n      sstore\n        /* \"#utility.yul\":10313:10314   */\n      0x01\n        /* \"#utility.yul\":10305:10311   */\n      dup3\n        /* \"#utility.yul\":10301:10315   */\n      add\n        /* \"#utility.yul\":10291:10315   */\n      swap2\n      pop\n        /* \"#utility.yul\":10360:10362   */\n      0x20\n        /* \"#utility.yul\":10349:10358   */\n      dup6\n        /* \"#utility.yul\":10345:10363   */\n      add\n        /* \"#utility.yul\":10332:10363   */\n      swap5\n      pop\n        /* \"#utility.yul\":10206:10210   */\n      0x20\n        /* \"#utility.yul\":10203:10204   */\n      dup2\n        /* \"#utility.yul\":10199:10211   */\n      add\n        /* \"#utility.yul\":10194:10211   */\n      swap1\n      pop\n        /* \"#utility.yul\":10169:10377   */\n      jump(tag_207)\n    tag_209:\n        /* \"#utility.yul\":10405:10411   */\n      dup7\n        /* \"#utility.yul\":10396:10403   */\n      dup4\n        /* \"#utility.yul\":10393:10412   */\n      lt\n        /* \"#utility.yul\":10390:10569   */\n      iszero\n      tag_210\n      jumpi\n        /* \"#utility.yul\":10463:10472   */\n      dup5\n        /* \"#utility.yul\":10458:10461   */\n      dup10\n        /* \"#utility.yul\":10454:10473   */\n      add\n        /* \"#utility.yul\":10448:10474   */\n      mload\n        /* \"#utility.yul\":10506:10554   */\n      tag_211\n        /* \"#utility.yul\":10548:10552   */\n      0x1f\n        /* \"#utility.yul\":10540:10546   */\n      dup10\n        /* \"#utility.yul\":10536:10553   */\n      and\n        /* \"#utility.yul\":10525:10534   */\n      dup3\n        /* \"#utility.yul\":10506:10554   */\n      tag_89\n      jump\t// in\n    tag_211:\n        /* \"#utility.yul\":10498:10504   */\n      dup4\n        /* \"#utility.yul\":10491:10555   */\n      sstore\n        /* \"#utility.yul\":10413:10569   */\n      pop\n        /* \"#utility.yul\":10390:10569   */\n    tag_210:\n        /* \"#utility.yul\":10615:10616   */\n      0x01\n        /* \"#utility.yul\":10611:10612   */\n      0x02\n        /* \"#utility.yul\":10603:10609   */\n      dup9\n        /* \"#utility.yul\":10599:10613   */\n      mul\n        /* \"#utility.yul\":10595:10617   */\n      add\n        /* \"#utility.yul\":10589:10593   */\n      dup9\n        /* \"#utility.yul\":10582:10618   */\n      sstore\n        /* \"#utility.yul\":10017:10628   */\n      pop\n      pop\n      pop\n        /* \"#utility.yul\":9980:10867   */\n    tag_202:\n      pop\n        /* \"#utility.yul\":9570:10873   */\n      pop\n      pop\n      pop\n        /* \"#utility.yul\":9478:10873   */\n      pop\n      pop\n      jump\t// out\n        /* \"#utility.yul\":10879:11027   */\n    tag_91:\n        /* \"#utility.yul\":10981:10992   */\n      0x00\n        /* \"#utility.yul\":11018:11021   */\n      dup2\n        /* \"#utility.yul\":11003:11021   */\n      swap1\n      pop\n        /* \"#utility.yul\":10879:11027   */\n      swap3\n      swap2\n      pop\n      pop\n      jump\t// out\n        /* \"#utility.yul\":11057:11931   */\n    tag_92:\n        /* \"#utility.yul\":11160:11163   */\n      0x00\n        /* \"#utility.yul\":11197:11202   */\n      dup2\n        /* \"#utility.yul\":11191:11203   */\n      sload\n        /* \"#utility.yul\":11226:11262   */\n      tag_214\n        /* \"#utility.yul\":11252:11261   */\n      dup2\n        /* \"#utility.yul\":11226:11262   */\n      tag_21\n      jump\t// in\n    tag_214:\n        /* \"#utility.yul\":11278:11367   */\n      tag_215\n        /* \"#utility.yul\":11360:11366   */\n      dup2\n        /* \"#utility.yul\":11355:11358   */\n      dup7\n        /* \"#utility.yul\":11278:11367   */\n      tag_91\n      jump\t// in\n    tag_215:\n        /* \"#utility.yul\":11271:11367   */\n      swap5\n      pop\n        /* \"#utility.yul\":11398:11399   */\n      0x01\n        /* \"#utility.yul\":11387:11396   */\n      dup3\n        /* \"#utility.yul\":11383:11400   */\n      and\n        /* \"#utility.yul\":11414:11415   */\n      0x00\n        /* \"#utility.yul\":11409:11575   */\n      dup2\n      eq\n      tag_217\n      jumpi\n        /* \"#utility.yul\":11589:11590   */\n      0x01\n        /* \"#utility.yul\":11584:11925   */\n      dup2\n      eq\n      tag_218\n      jumpi\n        /* \"#utility.yul\":11376:11925   */\n      jump(tag_216)\n        /* \"#utility.yul\":11409:11575   */\n    tag_217:\n        /* \"#utility.yul\":11493:11497   */\n      0xff\n        /* \"#utility.yul\":11489:11498   */\n      not\n        /* \"#utility.yul\":11478:11487   */\n      dup4\n        /* \"#utility.yul\":11474:11499   */\n      and\n        /* \"#utility.yul\":11469:11472   */\n      dup7\n        /* \"#utility.yul\":11462:11500   */\n      mstore\n        /* \"#utility.yul\":11555:11561   */\n      dup2\n        /* \"#utility.yul\":11548:11562   */\n      iszero\n        /* \"#utility.yul\":11541:11563   */\n      iszero\n        /* \"#utility.yul\":11533:11539   */\n      dup3\n        /* \"#utility.yul\":11529:11564   */\n      mul\n        /* \"#utility.yul\":11524:11527   */\n      dup7\n        /* \"#utility.yul\":11520:11565   */\n      add\n        /* \"#utility.yul\":11513:11565   */\n      swap4\n      pop\n        /* \"#utility.yul\":11409:11575   */\n      jump(tag_216)\n        /* \"#utility.yul\":11584:11925   */\n    tag_218:\n        /* \"#utility.yul\":11651:11689   */\n      tag_219\n        /* \"#utility.yul\":11683:11688   */\n      dup6\n        /* \"#utility.yul\":11651:11689   */\n      tag_75\n      jump\t// in\n    tag_219:\n        /* \"#utility.yul\":11711:11712   */\n      0x00\n        /* \"#utility.yul\":11725:11879   */\n    tag_220:\n        /* \"#utility.yul\":11739:11745   */\n      dup4\n        /* \"#utility.yul\":11736:11737   */\n      dup2\n        /* \"#utility.yul\":11733:11746   */\n      lt\n        /* \"#utility.yul\":11725:11879   */\n      iszero\n      tag_222\n      jumpi\n        /* \"#utility.yul\":11813:11820   */\n      dup2\n        /* \"#utility.yul\":11807:11821   */\n      sload\n        /* \"#utility.yul\":11803:11804   */\n      dup2\n        /* \"#utility.yul\":11798:11801   */\n      dup10\n        /* \"#utility.yul\":11794:11805   */\n      add\n        /* \"#utility.yul\":11787:11822   */\n      mstore\n        /* \"#utility.yul\":11863:11864   */\n      0x01\n        /* \"#utility.yul\":11854:11861   */\n      dup3\n        /* \"#utility.yul\":11850:11865   */\n      add\n        /* \"#utility.yul\":11839:11865   */\n      swap2\n      pop\n        /* \"#utility.yul\":11761:11765   */\n      0x20\n        /* \"#utility.yul\":11758:11759   */\n      dup2\n        /* \"#utility.yul\":11754:11766   */\n      add\n        /* \"#utility.yul\":11749:11766   */\n      swap1\n      pop\n        /* \"#utility.yul\":11725:11879   */\n      jump(tag_220)\n    tag_222:\n        /* \"#utility.yul\":11908:11914   */\n      dup4\n        /* \"#utility.yul\":11903:11906   */\n      dup9\n        /* \"#utility.yul\":11899:11915   */\n      add\n        /* \"#utility.yul\":11892:11915   */\n      swap6\n      pop\n        /* \"#utility.yul\":11591:11925   */\n      pop\n      pop\n        /* \"#utility.yul\":11376:11925   */\n    tag_216:\n      pop\n        /* \"#utility.yul\":11164:11931   */\n      pop\n      pop\n        /* \"#utility.yul\":11057:11931   */\n      swap3\n      swap2\n      pop\n      pop\n      jump\t// out\n        /* \"#utility.yul\":11937:12178   */\n    tag_93:\n        /* \"#utility.yul\":12105:12171   */\n      0x20f09fa4b7000000000000000000000000000000000000000000000000000000\n        /* \"#utility.yul\":12100:12103   */\n      dup2\n        /* \"#utility.yul\":12093:12172   */\n      mstore\n        /* \"#utility.yul\":11937:12178   */\n      pop\n      jump\t// out\n        /* \"#utility.yul\":12184:12717   */\n    tag_55:\n        /* \"#utility.yul\":12403:12406   */\n      0x00\n        /* \"#utility.yul\":12425:12517   */\n      tag_225\n        /* \"#utility.yul\":12513:12516   */\n      dup3\n        /* \"#utility.yul\":12504:12510   */\n      dup5\n        /* \"#utility.yul\":12425:12517   */\n      tag_92\n      jump\t// in\n    tag_225:\n        /* \"#utility.yul\":12418:12517   */\n      swap2\n      pop\n        /* \"#utility.yul\":12527:12664   */\n      tag_226\n        /* \"#utility.yul\":12660:12663   */\n      dup3\n        /* \"#utility.yul\":12527:12664   */\n      tag_93\n      jump\t// in\n    tag_226:\n        /* \"#utility.yul\":12689:12690   */\n      0x05\n        /* \"#utility.yul\":12684:12687   */\n      dup3\n        /* \"#utility.yul\":12680:12691   */\n      add\n        /* \"#utility.yul\":12673:12691   */\n      swap2\n      pop\n        /* \"#utility.yul\":12708:12711   */\n      dup2\n        /* \"#utility.yul\":12701:12711   */\n      swap1\n      pop\n        /* \"#utility.yul\":12184:12717   */\n      swap3\n      swap2\n      pop\n      pop\n      jump\t// out\n\n    auxdata: 0xa26469706673582212205c6d511fc53a6f9cc72b2b39cf431a273596f3a3ccb48733c3d21734a276aec064736f6c63430008170033\n}\n",
				"bytecode": {
					"linkReferences": {},
					"object": "608060405234801561000f575f80fd5b50610ae78061001d5f395ff3fe608060405234801561000f575f80fd5b506004361061003f575f3560e01c806325eb69a914610043578063583dc769146100615780638346cbef1461007d575b5f80fd5b61004b61009b565b6040516100589190610509565b60405180910390f35b61007b60048036038101906100769190610666565b610263565b005b61008561029d565b6040516100929190610509565b60405180910390f35b6100a3610403565b5f6040518060600160405290815f820180546100be90610737565b80601f01602080910402602001604051908101604052809291908181526020018280546100ea90610737565b80156101355780601f1061010c57610100808354040283529160200191610135565b820191905f5260205f20905b81548152906001019060200180831161011857829003601f168201915b5050505050815260200160018201805461014e90610737565b80601f016020809104026020016040519081016040528092919081815260200182805461017a90610737565b80156101c55780601f1061019c576101008083540402835291602001916101c5565b820191905f5260205f20905b8154815290600101906020018083116101a857829003601f168201915b505050505081526020016002820180546101de90610737565b80601f016020809104026020016040519081016040528092919081815260200182805461020a90610737565b80156102555780601f1061022c57610100808354040283529160200191610255565b820191905f5260205f20905b81548152906001019060200180831161023857829003601f168201915b505050505081525050905090565b825f80019081610273919061090d565b50815f6001019081610285919061090d565b50805f6002019081610297919061090d565b50505050565b6102a5610403565b6102ad610403565b5f800180546102bb90610737565b80601f01602080910402602001604051908101604052809291908181526020018280546102e790610737565b80156103325780601f1061030957610100808354040283529160200191610332565b820191905f5260205f20905b81548152906001019060200180831161031557829003601f168201915b5050505050815f01819052505f600101805461034d90610737565b80601f016020809104026020016040519081016040528092919081815260200182805461037990610737565b80156103c45780601f1061039b576101008083540402835291602001916103c4565b820191905f5260205f20905b8154815290600101906020018083116103a757829003601f168201915b505050505081602001819052505f6002016040516020016103e59190610a8c565b60405160208183030381529060405281604001819052508091505090565b60405180606001604052806060815260200160608152602001606081525090565b5f81519050919050565b5f82825260208201905092915050565b5f5b8381101561045b578082015181840152602081019050610440565b5f8484015250505050565b5f601f19601f8301169050919050565b5f61048082610424565b61048a818561042e565b935061049a81856020860161043e565b6104a381610466565b840191505092915050565b5f606083015f8301518482035f8601526104c88282610476565b915050602083015184820360208601526104e28282610476565b915050604083015184820360408601526104fc8282610476565b9150508091505092915050565b5f6020820190508181035f83015261052181846104ae565b905092915050565b5f604051905090565b5f80fd5b5f80fd5b5f80fd5b5f80fd5b7f4e487b71000000000000000000000000000000000000000000000000000000005f52604160045260245ffd5b61057882610466565b810181811067ffffffffffffffff8211171561059757610596610542565b5b80604052505050565b5f6105a9610529565b90506105b5828261056f565b919050565b5f67ffffffffffffffff8211156105d4576105d3610542565b5b6105dd82610466565b9050602081019050919050565b828183375f83830152505050565b5f61060a610605846105ba565b6105a0565b9050828152602081018484840111156106265761062561053e565b5b6106318482856105ea565b509392505050565b5f82601f83011261064d5761064c61053a565b5b813561065d8482602086016105f8565b91505092915050565b5f805f6060848603121561067d5761067c610532565b5b5f84013567ffffffffffffffff81111561069a57610699610536565b5b6106a686828701610639565b935050602084013567ffffffffffffffff8111156106c7576106c6610536565b5b6106d386828701610639565b925050604084013567ffffffffffffffff8111156106f4576106f3610536565b5b61070086828701610639565b9150509250925092565b7f4e487b71000000000000000000000000000000000000000000000000000000005f52602260045260245ffd5b5f600282049050600182168061074e57607f821691505b6020821081036107615761076061070a565b5b50919050565b5f819050815f5260205f209050919050565b5f6020601f8301049050919050565b5f82821b905092915050565b5f600883026107c37fffffffffffffffffffffffffffffffffffffffffffffffffffffffffffffffff82610788565b6107cd8683610788565b95508019841693508086168417925050509392505050565b5f819050919050565b5f819050919050565b5f61081161080c610807846107e5565b6107ee565b6107e5565b9050919050565b5f819050919050565b61082a836107f7565b61083e61083682610818565b848454610794565b825550505050565b5f90565b610852610846565b61085d818484610821565b505050565b5b81811015610880576108755f8261084a565b600181019050610863565b5050565b601f8211156108c55761089681610767565b61089f84610779565b810160208510156108ae578190505b6108c26108ba85610779565b830182610862565b50505b505050565b5f82821c905092915050565b5f6108e55f19846008026108ca565b1980831691505092915050565b5f6108fd83836108d6565b9150826002028217905092915050565b61091682610424565b67ffffffffffffffff81111561092f5761092e610542565b5b6109398254610737565b610944828285610884565b5f60209050601f831160018114610975575f8415610963578287015190505b61096d85826108f2565b8655506109d4565b601f19841661098386610767565b5f5b828110156109aa57848901518255600182019150602085019450602081019050610985565b868310156109c757848901516109c3601f8916826108d6565b8355505b6001600288020188555050505b505050505050565b5f81905092915050565b5f81546109f281610737565b6109fc81866109dc565b9450600182165f8114610a165760018114610a2b57610a5d565b60ff1983168652811515820286019350610a5d565b610a3485610767565b5f5b83811015610a5557815481890152600182019150602081019050610a36565b838801955050505b50505092915050565b7f20f09fa4b7000000000000000000000000000000000000000000000000000000815250565b5f610a9782846109e6565b9150610aa282610a66565b6005820191508190509291505056fea26469706673582212205c6d511fc53a6f9cc72b2b39cf431a273596f3a3ccb48733c3d21734a276aec064736f6c63430008170033",
					"opcodes": "PUSH1 0x80 PUSH1 0x40 MSTORE CALLVALUE DUP1 ISZERO PUSH2 0xF JUMPI PUSH0 DUP1 REVERT JUMPDEST POP PUSH2 0xAE7 DUP1 PUSH2 0x1D PUSH0 CODECOPY PUSH0 RETURN INVALID PUSH1 0x80 PUSH1 0x40 MSTORE CALLVALUE DUP1 ISZERO PUSH2 0xF JUMPI PUSH0 DUP1 REVERT JUMPDEST POP PUSH1 0x4 CALLDATASIZE LT PUSH2 0x3F JUMPI PUSH0 CALLDATALOAD PUSH1 0xE0 SHR DUP1 PUSH4 0x25EB69A9 EQ PUSH2 0x43 JUMPI DUP1 PUSH4 0x583DC769 EQ PUSH2 0x61 JUMPI DUP1 PUSH4 0x8346CBEF EQ PUSH2 0x7D JUMPI JUMPDEST PUSH0 DUP1 REVERT JUMPDEST PUSH2 0x4B PUSH2 0x9B JUMP JUMPDEST PUSH1 0x40 MLOAD PUSH2 0x58 SWAP2 SWAP1 PUSH2 0x509 JUMP JUMPDEST PUSH1 0x40 MLOAD DUP1 SWAP2 SUB SWAP1 RETURN JUMPDEST PUSH2 0x7B PUSH1 0x4 DUP1 CALLDATASIZE SUB DUP2 ADD SWAP1 PUSH2 0x76 SWAP2 SWAP1 PUSH2 0x666 JUMP JUMPDEST PUSH2 0x263 JUMP JUMPDEST STOP JUMPDEST PUSH2 0x85 PUSH2 0x29D JUMP JUMPDEST PUSH1 0x40 MLOAD PUSH2 0x92 SWAP2 SWAP1 PUSH2 0x509 JUMP JUMPDEST PUSH1 0x40 MLOAD DUP1 SWAP2 SUB SWAP1 RETURN JUMPDEST PUSH2 0xA3 PUSH2 0x403 JUMP JUMPDEST PUSH0 PUSH1 0x40 MLOAD DUP1 PUSH1 0x60 ADD PUSH1 0x40 MSTORE SWAP1 DUP2 PUSH0 DUP3 ADD DUP1 SLOAD PUSH2 0xBE SWAP1 PUSH2 0x737 JUMP JUMPDEST DUP1 PUSH1 0x1F ADD PUSH1 0x20 DUP1 SWAP2 DIV MUL PUSH1 0x20 ADD PUSH1 0x40 MLOAD SWAP1 DUP2 ADD PUSH1 0x40 MSTORE DUP1 SWAP3 SWAP2 SWAP1 DUP2 DUP2 MSTORE PUSH1 0x20 ADD DUP3 DUP1 SLOAD PUSH2 0xEA SWAP1 PUSH2 0x737 JUMP JUMPDEST DUP1 ISZERO PUSH2 0x135 JUMPI DUP1 PUSH1 0x1F LT PUSH2 0x10C JUMPI PUSH2 0x100 DUP1 DUP4 SLOAD DIV MUL DUP4 MSTORE SWAP2 PUSH1 0x20 ADD SWAP2 PUSH2 0x135 JUMP JUMPDEST DUP3 ADD SWAP2 SWAP1 PUSH0 MSTORE PUSH1 0x20 PUSH0 KECCAK256 SWAP1 JUMPDEST DUP2 SLOAD DUP2 MSTORE SWAP1 PUSH1 0x1 ADD SWAP1 PUSH1 0x20 ADD DUP1 DUP4 GT PUSH2 0x118 JUMPI DUP3 SWAP1 SUB PUSH1 0x1F AND DUP3 ADD SWAP2 JUMPDEST POP POP POP POP POP DUP2 MSTORE PUSH1 0x20 ADD PUSH1 0x1 DUP3 ADD DUP1 SLOAD PUSH2 0x14E SWAP1 PUSH2 0x737 JUMP JUMPDEST DUP1 PUSH1 0x1F ADD PUSH1 0x20 DUP1 SWAP2 DIV MUL PUSH1 0x20 ADD PUSH1 0x40 MLOAD SWAP1 DUP2 ADD PUSH1 0x40 MSTORE DUP1 SWAP3 SWAP2 SWAP1 DUP2 DUP2 MSTORE PUSH1 0x20 ADD DUP3 DUP1 SLOAD PUSH2 0x17A SWAP1 PUSH2 0x737 JUMP JUMPDEST DUP1 ISZERO PUSH2 0x1C5 JUMPI DUP1 PUSH1 0x1F LT PUSH2 0x19C JUMPI PUSH2 0x100 DUP1 DUP4 SLOAD DIV MUL DUP4 MSTORE SWAP2 PUSH1 0x20 ADD SWAP2 PUSH2 0x1C5 JUMP JUMPDEST DUP3 ADD SWAP2 SWAP1 PUSH0 MSTORE PUSH1 0x20 PUSH0 KECCAK256 SWAP1 JUMPDEST DUP2 SLOAD DUP2 MSTORE SWAP1 PUSH1 0x1 ADD SWAP1 PUSH1 0x20 ADD DUP1 DUP4 GT PUSH2 0x1A8 JUMPI DUP3 SWAP1 SUB PUSH1 0x1F AND DUP3 ADD SWAP2 JUMPDEST POP POP POP POP POP DUP2 MSTORE PUSH1 0x20 ADD PUSH1 0x2 DUP3 ADD DUP1 SLOAD PUSH2 0x1DE SWAP1 PUSH2 0x737 JUMP JUMPDEST DUP1 PUSH1 0x1F ADD PUSH1 0x20 DUP1 SWAP2 DIV MUL PUSH1 0x20 ADD PUSH1 0x40 MLOAD SWAP1 DUP2 ADD PUSH1 0x40 MSTORE DUP1 SWAP3 SWAP2 SWAP1 DUP2 DUP2 MSTORE PUSH1 0x20 ADD DUP3 DUP1 SLOAD PUSH2 0x20A SWAP1 PUSH2 0x737 JUMP JUMPDEST DUP1 ISZERO PUSH2 0x255 JUMPI DUP1 PUSH1 0x1F LT PUSH2 0x22C JUMPI PUSH2 0x100 DUP1 DUP4 SLOAD DIV MUL DUP4 MSTORE SWAP2 PUSH1 0x20 ADD SWAP2 PUSH2 0x255 JUMP JUMPDEST DUP3 ADD SWAP2 SWAP1 PUSH0 MSTORE PUSH1 0x20 PUSH0 KECCAK256 SWAP1 JUMPDEST DUP2 SLOAD DUP2 MSTORE SWAP1 PUSH1 0x1 ADD SWAP1 PUSH1 0x20 ADD DUP1 DUP4 GT PUSH2 0x238 JUMPI DUP3 SWAP1 SUB PUSH1 0x1F AND DUP3 ADD SWAP2 JUMPDEST POP POP POP POP POP DUP2 MSTORE POP POP SWAP1 POP SWAP1 JUMP JUMPDEST DUP3 PUSH0 DUP1 ADD SWAP1 DUP2 PUSH2 0x273 SWAP2 SWAP1 PUSH2 0x90D JUMP JUMPDEST POP DUP2 PUSH0 PUSH1 0x1 ADD SWAP1 DUP2 PUSH2 0x285 SWAP2 SWAP1 PUSH2 0x90D JUMP JUMPDEST POP DUP1 PUSH0 PUSH1 0x2 ADD SWAP1 DUP2 PUSH2 0x297 SWAP2 SWAP1 PUSH2 0x90D JUMP JUMPDEST POP POP POP POP JUMP JUMPDEST PUSH2 0x2A5 PUSH2 0x403 JUMP JUMPDEST PUSH2 0x2AD PUSH2 0x403 JUMP JUMPDEST PUSH0 DUP1 ADD DUP1 SLOAD PUSH2 0x2BB SWAP1 PUSH2 0x737 JUMP JUMPDEST DUP1 PUSH1 0x1F ADD PUSH1 0x20 DUP1 SWAP2 DIV MUL PUSH1 0x20 ADD PUSH1 0x40 MLOAD SWAP1 DUP2 ADD PUSH1 0x40 MSTORE DUP1 SWAP3 SWAP2 SWAP1 DUP2 DUP2 MSTORE PUSH1 0x20 ADD DUP3 DUP1 SLOAD PUSH2 0x2E7 SWAP1 PUSH2 0x737 JUMP JUMPDEST DUP1 ISZERO PUSH2 0x332 JUMPI DUP1 PUSH1 0x1F LT PUSH2 0x309 JUMPI PUSH2 0x100 DUP1 DUP4 SLOAD DIV MUL DUP4 MSTORE SWAP2 PUSH1 0x20 ADD SWAP2 PUSH2 0x332 JUMP JUMPDEST DUP3 ADD SWAP2 SWAP1 PUSH0 MSTORE PUSH1 0x20 PUSH0 KECCAK256 SWAP1 JUMPDEST DUP2 SLOAD DUP2 MSTORE SWAP1 PUSH1 0x1 ADD SWAP1 PUSH1 0x20 ADD DUP1 DUP4 GT PUSH2 0x315 JUMPI DUP3 SWAP1 SUB PUSH1 0x1F AND DUP3 ADD SWAP2 JUMPDEST POP POP POP POP POP DUP2 PUSH0 ADD DUP2 SWAP1 MSTORE POP PUSH0 PUSH1 0x1 ADD DUP1 SLOAD PUSH2 0x34D SWAP1 PUSH2 0x737 JUMP JUMPDEST DUP1 PUSH1 0x1F ADD PUSH1 0x20 DUP1 SWAP2 DIV MUL PUSH1 0x20 ADD PUSH1 0x40 MLOAD SWAP1 DUP2 ADD PUSH1 0x40 MSTORE DUP1 SWAP3 SWAP2 SWAP1 DUP2 DUP2 MSTORE PUSH1 0x20 ADD DUP3 DUP1 SLOAD PUSH2 0x379 SWAP1 PUSH2 0x737 JUMP JUMPDEST DUP1 ISZERO PUSH2 0x3C4 JUMPI DUP1 PUSH1 0x1F LT PUSH2 0x39B JUMPI PUSH2 0x100 DUP1 DUP4 SLOAD DIV MUL DUP4 MSTORE SWAP2 PUSH1 0x20 ADD SWAP2 PUSH2 0x3C4 JUMP JUMPDEST DUP3 ADD SWAP2 SWAP1 PUSH0 MSTORE PUSH1 0x20 PUSH0 KECCAK256 SWAP1 JUMPDEST DUP2 SLOAD DUP2 MSTORE SWAP1 PUSH1 0x1 ADD SWAP1 PUSH1 0x20 ADD DUP1 DUP4 GT PUSH2 0x3A7 JUMPI DUP3 SWAP1 SUB PUSH1 0x1F AND DUP3 ADD SWAP2 JUMPDEST POP POP POP POP POP DUP2 PUSH1 0x20 ADD DUP2 SWAP1 MSTORE POP PUSH0 PUSH1 0x2 ADD PUSH1 0x40 MLOAD PUSH1 0x20 ADD PUSH2 0x3E5 SWAP2 SWAP1 PUSH2 0xA8C JUMP JUMPDEST PUSH1 0x40 MLOAD PUSH1 0x20 DUP2 DUP4 SUB SUB DUP2 MSTORE SWAP1 PUSH1 0x40 MSTORE DUP2 PUSH1 0x40 ADD DUP2 SWAP1 MSTORE POP DUP1 SWAP2 POP POP SWAP1 JUMP JUMPDEST PUSH1 0x40 MLOAD DUP1 PUSH1 0x60 ADD PUSH1 0x40 MSTORE DUP1 PUSH1 0x60 DUP2 MSTORE PUSH1 0x20 ADD PUSH1 0x60 DUP2 MSTORE PUSH1 0x20 ADD PUSH1 0x60 DUP2 MSTORE POP SWAP1 JUMP JUMPDEST PUSH0 DUP2 MLOAD SWAP1 POP SWAP2 SWAP1 POP JUMP JUMPDEST PUSH0 DUP3 DUP3 MSTORE PUSH1 0x20 DUP3 ADD SWAP1 POP SWAP3 SWAP2 POP POP JUMP JUMPDEST PUSH0 JUMPDEST DUP4 DUP2 LT ISZERO PUSH2 0x45B JUMPI DUP1 DUP3 ADD MLOAD DUP2 DUP5 ADD MSTORE PUSH1 0x20 DUP2 ADD SWAP1 POP PUSH2 0x440 JUMP JUMPDEST PUSH0 DUP5 DUP5 ADD MSTORE POP POP POP POP JUMP JUMPDEST PUSH0 PUSH1 0x1F NOT PUSH1 0x1F DUP4 ADD AND SWAP1 POP SWAP2 SWAP1 POP JUMP JUMPDEST PUSH0 PUSH2 0x480 DUP3 PUSH2 0x424 JUMP JUMPDEST PUSH2 0x48A DUP2 DUP6 PUSH2 0x42E JUMP JUMPDEST SWAP4 POP PUSH2 0x49A DUP2 DUP6 PUSH1 0x20 DUP7 ADD PUSH2 0x43E JUMP JUMPDEST PUSH2 0x4A3 DUP2 PUSH2 0x466 JUMP JUMPDEST DUP5 ADD SWAP2 POP POP SWAP3 SWAP2 POP POP JUMP JUMPDEST PUSH0 PUSH1 0x60 DUP4 ADD PUSH0 DUP4 ADD MLOAD DUP5 DUP3 SUB PUSH0 DUP7 ADD MSTORE PUSH2 0x4C8 DUP3 DUP3 PUSH2 0x476 JUMP JUMPDEST SWAP2 POP POP PUSH1 0x20 DUP4 ADD MLOAD DUP5 DUP3 SUB PUSH1 0x20 DUP7 ADD MSTORE PUSH2 0x4E2 DUP3 DUP3 PUSH2 0x476 JUMP JUMPDEST SWAP2 POP POP PUSH1 0x40 DUP4 ADD MLOAD DUP5 DUP3 SUB PUSH1 0x40 DUP7 ADD MSTORE PUSH2 0x4FC DUP3 DUP3 PUSH2 0x476 JUMP JUMPDEST SWAP2 POP POP DUP1 SWAP2 POP POP SWAP3 SWAP2 POP POP JUMP JUMPDEST PUSH0 PUSH1 0x20 DUP3 ADD SWAP1 POP DUP2 DUP2 SUB PUSH0 DUP4 ADD MSTORE PUSH2 0x521 DUP2 DUP5 PUSH2 0x4AE JUMP JUMPDEST SWAP1 POP SWAP3 SWAP2 POP POP JUMP JUMPDEST PUSH0 PUSH1 0x40 MLOAD SWAP1 POP SWAP1 JUMP JUMPDEST PUSH0 DUP1 REVERT JUMPDEST PUSH0 DUP1 REVERT JUMPDEST PUSH0 DUP1 REVERT JUMPDEST PUSH0 DUP1 REVERT JUMPDEST PUSH32 0x4E487B7100000000000000000000000000000000000000000000000000000000 PUSH0 MSTORE PUSH1 0x41 PUSH1 0x4 MSTORE PUSH1 0x24 PUSH0 REVERT JUMPDEST PUSH2 0x578 DUP3 PUSH2 0x466 JUMP JUMPDEST DUP2 ADD DUP2 DUP2 LT PUSH8 0xFFFFFFFFFFFFFFFF DUP3 GT OR ISZERO PUSH2 0x597 JUMPI PUSH2 0x596 PUSH2 0x542 JUMP JUMPDEST JUMPDEST DUP1 PUSH1 0x40 MSTORE POP POP POP JUMP JUMPDEST PUSH0 PUSH2 0x5A9 PUSH2 0x529 JUMP JUMPDEST SWAP1 POP PUSH2 0x5B5 DUP3 DUP3 PUSH2 0x56F JUMP JUMPDEST SWAP2 SWAP1 POP JUMP JUMPDEST PUSH0 PUSH8 0xFFFFFFFFFFFFFFFF DUP3 GT ISZERO PUSH2 0x5D4 JUMPI PUSH2 0x5D3 PUSH2 0x542 JUMP JUMPDEST JUMPDEST PUSH2 0x5DD DUP3 PUSH2 0x466 JUMP JUMPDEST SWAP1 POP PUSH1 0x20 DUP2 ADD SWAP1 POP SWAP2 SWAP1 POP JUMP JUMPDEST DUP3 DUP2 DUP4 CALLDATACOPY PUSH0 DUP4 DUP4 ADD MSTORE POP POP POP JUMP JUMPDEST PUSH0 PUSH2 0x60A PUSH2 0x605 DUP5 PUSH2 0x5BA JUMP JUMPDEST PUSH2 0x5A0 JUMP JUMPDEST SWAP1 POP DUP3 DUP2 MSTORE PUSH1 0x20 DUP2 ADD DUP5 DUP5 DUP5 ADD GT ISZERO PUSH2 0x626 JUMPI PUSH2 0x625 PUSH2 0x53E JUMP JUMPDEST JUMPDEST PUSH2 0x631 DUP5 DUP3 DUP6 PUSH2 0x5EA JUMP JUMPDEST POP SWAP4 SWAP3 POP POP POP JUMP JUMPDEST PUSH0 DUP3 PUSH1 0x1F DUP4 ADD SLT PUSH2 0x64D JUMPI PUSH2 0x64C PUSH2 0x53A JUMP JUMPDEST JUMPDEST DUP2 CALLDATALOAD PUSH2 0x65D DUP5 DUP3 PUSH1 0x20 DUP7 ADD PUSH2 0x5F8 JUMP JUMPDEST SWAP2 POP POP SWAP3 SWAP2 POP POP JUMP JUMPDEST PUSH0 DUP1 PUSH0 PUSH1 0x60 DUP5 DUP7 SUB SLT ISZERO PUSH2 0x67D JUMPI PUSH2 0x67C PUSH2 0x532 JUMP JUMPDEST JUMPDEST PUSH0 DUP5 ADD CALLDATALOAD PUSH8 0xFFFFFFFFFFFFFFFF DUP2 GT ISZERO PUSH2 0x69A JUMPI PUSH2 0x699 PUSH2 0x536 JUMP JUMPDEST JUMPDEST PUSH2 0x6A6 DUP7 DUP3 DUP8 ADD PUSH2 0x639 JUMP JUMPDEST SWAP4 POP POP PUSH1 0x20 DUP5 ADD CALLDATALOAD PUSH8 0xFFFFFFFFFFFFFFFF DUP2 GT ISZERO PUSH2 0x6C7 JUMPI PUSH2 0x6C6 PUSH2 0x536 JUMP JUMPDEST JUMPDEST PUSH2 0x6D3 DUP7 DUP3 DUP8 ADD PUSH2 0x639 JUMP JUMPDEST SWAP3 POP POP PUSH1 0x40 DUP5 ADD CALLDATALOAD PUSH8 0xFFFFFFFFFFFFFFFF DUP2 GT ISZERO PUSH2 0x6F4 JUMPI PUSH2 0x6F3 PUSH2 0x536 JUMP JUMPDEST JUMPDEST PUSH2 0x700 DUP7 DUP3 DUP8 ADD PUSH2 0x639 JUMP JUMPDEST SWAP2 POP POP SWAP3 POP SWAP3 POP SWAP3 JUMP JUMPDEST PUSH32 0x4E487B7100000000000000000000000000000000000000000000000000000000 PUSH0 MSTORE PUSH1 0x22 PUSH1 0x4 MSTORE PUSH1 0x24 PUSH0 REVERT JUMPDEST PUSH0 PUSH1 0x2 DUP3 DIV SWAP1 POP PUSH1 0x1 DUP3 AND DUP1 PUSH2 0x74E JUMPI PUSH1 0x7F DUP3 AND SWAP2 POP JUMPDEST PUSH1 0x20 DUP3 LT DUP2 SUB PUSH2 0x761 JUMPI PUSH2 0x760 PUSH2 0x70A JUMP JUMPDEST JUMPDEST POP SWAP2 SWAP1 POP JUMP JUMPDEST PUSH0 DUP2 SWAP1 POP DUP2 PUSH0 MSTORE PUSH1 0x20 PUSH0 KECCAK256 SWAP1 POP SWAP2 SWAP1 POP JUMP JUMPDEST PUSH0 PUSH1 0x20 PUSH1 0x1F DUP4 ADD DIV SWAP1 POP SWAP2 SWAP1 POP JUMP JUMPDEST PUSH0 DUP3 DUP3 SHL SWAP1 POP SWAP3 SWAP2 POP POP JUMP JUMPDEST PUSH0 PUSH1 0x8 DUP4 MUL PUSH2 0x7C3 PUSH32 0xFFFFFFFFFFFFFFFFFFFFFFFFFFFFFFFFFFFFFFFFFFFFFFFFFFFFFFFFFFFFFFFF DUP3 PUSH2 0x788 JUMP JUMPDEST PUSH2 0x7CD DUP7 DUP4 PUSH2 0x788 JUMP JUMPDEST SWAP6 POP DUP1 NOT DUP5 AND SWAP4 POP DUP1 DUP7 AND DUP5 OR SWAP3 POP POP POP SWAP4 SWAP3 POP POP POP JUMP JUMPDEST PUSH0 DUP2 SWAP1 POP SWAP2 SWAP1 POP JUMP JUMPDEST PUSH0 DUP2 SWAP1 POP SWAP2 SWAP1 POP JUMP JUMPDEST PUSH0 PUSH2 0x811 PUSH2 0x80C PUSH2 0x807 DUP5 PUSH2 0x7E5 JUMP JUMPDEST PUSH2 0x7EE JUMP JUMPDEST PUSH2 0x7E5 JUMP JUMPDEST SWAP1 POP SWAP2 SWAP1 POP JUMP JUMPDEST PUSH0 DUP2 SWAP1 POP SWAP2 SWAP1 POP JUMP JUMPDEST PUSH2 0x82A DUP4 PUSH2 0x7F7 JUMP JUMPDEST PUSH2 0x83E PUSH2 0x836 DUP3 PUSH2 0x818 JUMP JUMPDEST DUP5 DUP5 SLOAD PUSH2 0x794 JUMP JUMPDEST DUP3 SSTORE POP POP POP POP JUMP JUMPDEST PUSH0 SWAP1 JUMP JUMPDEST PUSH2 0x852 PUSH2 0x846 JUMP JUMPDEST PUSH2 0x85D DUP2 DUP5 DUP5 PUSH2 0x821 JUMP JUMPDEST POP POP POP JUMP JUMPDEST JUMPDEST DUP2 DUP2 LT ISZERO PUSH2 0x880 JUMPI PUSH2 0x875 PUSH0 DUP3 PUSH2 0x84A JUMP JUMPDEST PUSH1 0x1 DUP2 ADD SWAP1 POP PUSH2 0x863 JUMP JUMPDEST POP POP JUMP JUMPDEST PUSH1 0x1F DUP3 GT ISZERO PUSH2 0x8C5 JUMPI PUSH2 0x896 DUP2 PUSH2 0x767 JUMP JUMPDEST PUSH2 0x89F DUP5 PUSH2 0x779 JUMP JUMPDEST DUP2 ADD PUSH1 0x20 DUP6 LT ISZERO PUSH2 0x8AE JUMPI DUP2 SWAP1 POP JUMPDEST PUSH2 0x8C2 PUSH2 0x8BA DUP6 PUSH2 0x779 JUMP JUMPDEST DUP4 ADD DUP3 PUSH2 0x862 JUMP JUMPDEST POP POP JUMPDEST POP POP POP JUMP JUMPDEST PUSH0 DUP3 DUP3 SHR SWAP1 POP SWAP3 SWAP2 POP POP JUMP JUMPDEST PUSH0 PUSH2 0x8E5 PUSH0 NOT DUP5 PUSH1 0x8 MUL PUSH2 0x8CA JUMP JUMPDEST NOT DUP1 DUP4 AND SWAP2 POP POP SWAP3 SWAP2 POP POP JUMP JUMPDEST PUSH0 PUSH2 0x8FD DUP4 DUP4 PUSH2 0x8D6 JUMP JUMPDEST SWAP2 POP DUP3 PUSH1 0x2 MUL DUP3 OR SWAP1 POP SWAP3 SWAP2 POP POP JUMP JUMPDEST PUSH2 0x916 DUP3 PUSH2 0x424 JUMP JUMPDEST PUSH8 0xFFFFFFFFFFFFFFFF DUP2 GT ISZERO PUSH2 0x92F JUMPI PUSH2 0x92E PUSH2 0x542 JUMP JUMPDEST JUMPDEST PUSH2 0x939 DUP3 SLOAD PUSH2 0x737 JUMP JUMPDEST PUSH2 0x944 DUP3 DUP3 DUP6 PUSH2 0x884 JUMP JUMPDEST PUSH0 PUSH1 0x20 SWAP1 POP PUSH1 0x1F DUP4 GT PUSH1 0x1 DUP2 EQ PUSH2 0x975 JUMPI PUSH0 DUP5 ISZERO PUSH2 0x963 JUMPI DUP3 DUP8 ADD MLOAD SWAP1 POP JUMPDEST PUSH2 0x96D DUP6 DUP3 PUSH2 0x8F2 JUMP JUMPDEST DUP7 SSTORE POP PUSH2 0x9D4 JUMP JUMPDEST PUSH1 0x1F NOT DUP5 AND PUSH2 0x983 DUP7 PUSH2 0x767 JUMP JUMPDEST PUSH0 JUMPDEST DUP3 DUP2 LT ISZERO PUSH2 0x9AA JUMPI DUP5 DUP10 ADD MLOAD DUP3 SSTORE PUSH1 0x1 DUP3 ADD SWAP2 POP PUSH1 0x20 DUP6 ADD SWAP5 POP PUSH1 0x20 DUP2 ADD SWAP1 POP PUSH2 0x985 JUMP JUMPDEST DUP7 DUP4 LT ISZERO PUSH2 0x9C7 JUMPI DUP5 DUP10 ADD MLOAD PUSH2 0x9C3 PUSH1 0x1F DUP10 AND DUP3 PUSH2 0x8D6 JUMP JUMPDEST DUP4 SSTORE POP JUMPDEST PUSH1 0x1 PUSH1 0x2 DUP9 MUL ADD DUP9 SSTORE POP POP POP JUMPDEST POP POP POP POP POP POP JUMP JUMPDEST PUSH0 DUP2 SWAP1 POP SWAP3 SWAP2 POP POP JUMP JUMPDEST PUSH0 DUP2 SLOAD PUSH2 0x9F2 DUP2 PUSH2 0x737 JUMP JUMPDEST PUSH2 0x9FC DUP2 DUP7 PUSH2 0x9DC JUMP JUMPDEST SWAP5 POP PUSH1 0x1 DUP3 AND PUSH0 DUP2 EQ PUSH2 0xA16 JUMPI PUSH1 0x1 DUP2 EQ PUSH2 0xA2B JUMPI PUSH2 0xA5D JUMP JUMPDEST PUSH1 0xFF NOT DUP4 AND DUP7 MSTORE DUP2 ISZERO ISZERO DUP3 MUL DUP7 ADD SWAP4 POP PUSH2 0xA5D JUMP JUMPDEST PUSH2 0xA34 DUP6 PUSH2 0x767 JUMP JUMPDEST PUSH0 JUMPDEST DUP4 DUP2 LT ISZERO PUSH2 0xA55 JUMPI DUP2 SLOAD DUP2 DUP10 ADD MSTORE PUSH1 0x1 DUP3 ADD SWAP2 POP PUSH1 0x20 DUP2 ADD SWAP1 POP PUSH2 0xA36 JUMP JUMPDEST DUP4 DUP9 ADD SWAP6 POP POP POP JUMPDEST POP POP POP SWAP3 SWAP2 POP POP JUMP JUMPDEST PUSH32 0x20F09FA4B7000000000000000000000000000000000000000000000000000000 DUP2 MSTORE POP JUMP JUMPDEST PUSH0 PUSH2 0xA97 DUP3 DUP5 PUSH2 0x9E6 JUMP JUMPDEST SWAP2 POP PUSH2 0xAA2 DUP3 PUSH2 0xA66 JUMP JUMPDEST PUSH1 0x5 DUP3 ADD SWAP2 POP DUP2 SWAP1 POP SWAP3 SWAP2 POP POP JUMP INVALID LOG2 PUSH5 0x6970667358 0x22 SLT KECCAK256 0x5C PUSH14 0x511FC53A6F9CC72B2B39CF431A27 CALLDATALOAD SWAP7 RETURN LOG3 0xCC 0xB4 DUP8 CALLER 0xC3 0xD2 OR CALLVALUE LOG2 PUSH23 0xAEC064736F6C6343000817003300000000000000000000 "
				},
				"gasEstimates": {
					"creation": {
						"codeDepositCost": "558200",
						"executionCost": "592",
						"totalCost": "558792"
					},
					"external": {
						"getHaiku()": "infinite",
						"saveHaiku(string,string,string)": "infinite",
						"shruggieHaiku()": "infinite"
					}
				},
				"methodIdentifiers": {
					"getHaiku()": "25eb69a9",
					"saveHaiku(string,string,string)": "583dc769",
					"shruggieHaiku()": "8346cbef"
				}
			},
			"storageLayout": {
				"storage": [
					{
						"astId": 35,
						"contract": "impin.sol:Submission",
						"label": "storedHaiku",
						"offset": 0,
						"slot": "0",
						"type": "t_struct(Haiku)8_storage"
					}
				],
				"types": {
					"t_string_storage": {
						"encoding": "bytes",
						"label": "string",
						"numberOfBytes": "32"
					},
					"t_struct(Haiku)8_storage": {
						"encoding": "inplace",
						"label": "struct ISubmission.Haiku",
						"members": [
							{
								"astId": 3,
								"contract": "impin.sol:Submission",
								"label": "line1",
								"offset": 0,
								"slot": "0",
								"type": "t_string_storage"
							},
							{
								"astId": 5,
								"contract": "impin.sol:Submission",
								"label": "line2",
								"offset": 0,
								"slot": "1",
								"type": "t_string_storage"
							},
							{
								"astId": 7,
								"contract": "impin.sol:Submission",
								"label": "line3",
								"offset": 0,
								"slot": "2",
								"type": "t_string_storage"
							}
						],
						"numberOfBytes": "96"
					}
				}
			},
			"userdoc": {
				"kind": "user",
				"methods": {},
				"version": 1
			}
		}
	}
}