{
	"Role3/StrucsPin.sol": {
		"Submission": {
			"abi": [
				{
					"inputs": [
						{
							"internalType": "string",
							"name": "_make",
							"type": "string"
						},
						{
							"internalType": "string",
							"name": "_model",
							"type": "string"
						},
						{
							"internalType": "string",
							"name": "_color",
							"type": "string"
						},
						{
							"internalType": "uint256",
							"name": "_numberOfDoors",
							"type": "uint256"
						}
					],
					"name": "addCar",
					"outputs": [],
					"stateMutability": "nonpayable",
					"type": "function"
				},
				{
					"inputs": [],
					"name": "getMyCars",
					"outputs": [
						{
							"components": [
								{
									"internalType": "string",
									"name": "make",
									"type": "string"
								},
								{
									"internalType": "string",
									"name": "model",
									"type": "string"
								},
								{
									"internalType": "string",
									"name": "color",
									"type": "string"
								},
								{
									"internalType": "uint256",
									"name": "numberOfDoors",
									"type": "uint256"
								}
							],
							"internalType": "struct ISubmission.Car[]",
							"name": "",
							"type": "tuple[]"
						}
					],
					"stateMutability": "view",
					"type": "function"
				},
				{
					"inputs": [
						{
							"internalType": "address",
							"name": "_user",
							"type": "address"
						}
					],
					"name": "getUserCars",
					"outputs": [
						{
							"components": [
								{
									"internalType": "string",
									"name": "make",
									"type": "string"
								},
								{
									"internalType": "string",
									"name": "model",
									"type": "string"
								},
								{
									"internalType": "string",
									"name": "color",
									"type": "string"
								},
								{
									"internalType": "uint256",
									"name": "numberOfDoors",
									"type": "uint256"
								}
							],
							"internalType": "struct ISubmission.Car[]",
							"name": "",
							"type": "tuple[]"
						}
					],
					"stateMutability": "view",
					"type": "function"
				},
				{
					"inputs": [],
					"name": "resetMyGarage",
					"outputs": [],
					"stateMutability": "nonpayable",
					"type": "function"
				},
				{
					"inputs": [
						{
							"internalType": "uint256",
							"name": "_index",
							"type": "uint256"
						},
						{
							"internalType": "string",
							"name": "_make",
							"type": "string"
						},
						{
							"internalType": "string",
							"name": "_model",
							"type": "string"
						},
						{
							"internalType": "string",
							"name": "_color",
							"type": "string"
						},
						{
							"internalType": "uint256",
							"name": "_numberOfDoors",
							"type": "uint256"
						}
					],
					"name": "updateCar",
					"outputs": [],
					"stateMutability": "nonpayable",
					"type": "function"
				}
			],
			"devdoc": {
				"kind": "dev",
				"methods": {},
				"version": 1
			},
			"evm": {
				"assembly": "    /* \"Role3/StrucsPin.sol\":737:1978  contract Submission is ISubmission {... */\n  mstore(0x40, 0x80)\n  callvalue\n  dup1\n  iszero\n  tag_1\n  jumpi\n  revert(0x00, 0x00)\ntag_1:\n  pop\n  dataSize(sub_0)\n  dup1\n  dataOffset(sub_0)\n  0x00\n  codecopy\n  0x00\n  return\nstop\n\nsub_0: assembly {\n        /* \"Role3/StrucsPin.sol\":737:1978  contract Submission is ISubmission {... */\n      mstore(0x40, 0x80)\n      callvalue\n      dup1\n      iszero\n      tag_1\n      jumpi\n      revert(0x00, 0x00)\n    tag_1:\n      pop\n      jumpi(tag_2, lt(calldatasize, 0x04))\n      shr(0xe0, calldataload(0x00))\n      dup1\n      0x2698286c\n      eq\n      tag_3\n      jumpi\n      dup1\n      0x341fa05d\n      eq\n      tag_4\n      jumpi\n      dup1\n      0x4cd1ed3d\n      eq\n      tag_5\n      jumpi\n      dup1\n      0x6dcb7896\n      eq\n      tag_6\n      jumpi\n      dup1\n      0xd2d50bd8\n      eq\n      tag_7\n      jumpi\n    tag_2:\n      revert(0x00, 0x00)\n        /* \"Role3/StrucsPin.sol\":1634:1768  function getUserCars(... */\n    tag_3:\n      tag_8\n      0x04\n      dup1\n      calldatasize\n      sub\n      dup2\n      add\n      swap1\n      tag_9\n      swap2\n      swap1\n      tag_10\n      jump\t// in\n    tag_9:\n      tag_11\n      jump\t// in\n    tag_8:\n      mload(0x40)\n      tag_12\n      swap2\n      swap1\n      tag_13\n      jump\t// in\n    tag_12:\n      mload(0x40)\n      dup1\n      swap2\n      sub\n      swap1\n      return\n        /* \"Role3/StrucsPin.sol\":1774:1884  function getMyCars() external view override returns (Car[] memory) {... */\n    tag_4:\n      tag_14\n      tag_15\n      jump\t// in\n    tag_14:\n      mload(0x40)\n      tag_16\n      swap2\n      swap1\n      tag_13\n      jump\t// in\n    tag_16:\n      mload(0x40)\n      dup1\n      swap2\n      sub\n      swap1\n      return\n        /* \"Role3/StrucsPin.sol\":1212:1628  function updateCar(... */\n    tag_5:\n      tag_17\n      0x04\n      dup1\n      calldatasize\n      sub\n      dup2\n      add\n      swap1\n      tag_18\n      swap2\n      swap1\n      tag_19\n      jump\t// in\n    tag_18:\n      tag_20\n      jump\t// in\n    tag_17:\n      stop\n        /* \"Role3/StrucsPin.sol\":1890:1976  function resetMyGarage() external override {... */\n    tag_6:\n      tag_21\n      tag_22\n      jump\t// in\n    tag_21:\n      stop\n        /* \"Role3/StrucsPin.sol\":826:1206  function addCar(... */\n    tag_7:\n      tag_23\n      0x04\n      dup1\n      calldatasize\n      sub\n      dup2\n      add\n      swap1\n      tag_24\n      swap2\n      swap1\n      tag_25\n      jump\t// in\n    tag_24:\n      tag_26\n      jump\t// in\n    tag_23:\n      stop\n        /* \"Role3/StrucsPin.sol\":1634:1768  function getUserCars(... */\n    tag_11:\n        /* \"Role3/StrucsPin.sol\":1716:1728  Car[] memory */\n      0x60\n        /* \"Role3/StrucsPin.sol\":1747:1754  garages */\n      0x00\n        /* \"Role3/StrucsPin.sol\":1747:1761  garages[_user] */\n      0x00\n        /* \"Role3/StrucsPin.sol\":1755:1760  _user */\n      dup4\n        /* \"Role3/StrucsPin.sol\":1747:1761  garages[_user] */\n      0xffffffffffffffffffffffffffffffffffffffff\n      and\n      0xffffffffffffffffffffffffffffffffffffffff\n      and\n      dup2\n      mstore\n      0x20\n      add\n      swap1\n      dup2\n      mstore\n      0x20\n      add\n      0x00\n      keccak256\n        /* \"Role3/StrucsPin.sol\":1740:1761  return garages[_user] */\n      dup1\n      sload\n      dup1\n      0x20\n      mul\n      0x20\n      add\n      mload(0x40)\n      swap1\n      dup2\n      add\n      0x40\n      mstore\n      dup1\n      swap3\n      swap2\n      swap1\n      dup2\n      dup2\n      mstore\n      0x20\n      add\n      0x00\n      swap1\n    tag_28:\n      dup3\n      dup3\n      lt\n      iszero\n      tag_29\n      jumpi\n      dup4\n      dup3\n      swap1\n      0x00\n      mstore\n      keccak256(0x00, 0x20)\n      swap1\n      0x04\n      mul\n      add\n      mload(0x40)\n      dup1\n      0x80\n      add\n      0x40\n      mstore\n      swap1\n      dup2\n      0x00\n      dup3\n      add\n      dup1\n      sload\n      tag_31\n      swap1\n      tag_32\n      jump\t// in\n    tag_31:\n      dup1\n      0x1f\n      add\n      0x20\n      dup1\n      swap2\n      div\n      mul\n      0x20\n      add\n      mload(0x40)\n      swap1\n      dup2\n      add\n      0x40\n      mstore\n      dup1\n      swap3\n      swap2\n      swap1\n      dup2\n      dup2\n      mstore\n      0x20\n      add\n      dup3\n      dup1\n      sload\n      tag_33\n      swap1\n      tag_32\n      jump\t// in\n    tag_33:\n      dup1\n      iszero\n      tag_34\n      jumpi\n      dup1\n      0x1f\n      lt\n      tag_35\n      jumpi\n      0x0100\n      dup1\n      dup4\n      sload\n      div\n      mul\n      dup4\n      mstore\n      swap2\n      0x20\n      add\n      swap2\n      jump(tag_34)\n    tag_35:\n      dup3\n      add\n      swap2\n      swap1\n      0x00\n      mstore\n      keccak256(0x00, 0x20)\n      swap1\n    tag_36:\n      dup2\n      sload\n      dup2\n      mstore\n      swap1\n      0x01\n      add\n      swap1\n      0x20\n      add\n      dup1\n      dup4\n      gt\n      tag_36\n      jumpi\n      dup3\n      swap1\n      sub\n      0x1f\n      and\n      dup3\n      add\n      swap2\n    tag_34:\n      pop\n      pop\n      pop\n      pop\n      pop\n      dup2\n      mstore\n      0x20\n      add\n      0x01\n      dup3\n      add\n      dup1\n      sload\n      tag_37\n      swap1\n      tag_32\n      jump\t// in\n    tag_37:\n      dup1\n      0x1f\n      add\n      0x20\n      dup1\n      swap2\n      div\n      mul\n      0x20\n      add\n      mload(0x40)\n      swap1\n      dup2\n      add\n      0x40\n      mstore\n      dup1\n      swap3\n      swap2\n      swap1\n      dup2\n      dup2\n      mstore\n      0x20\n      add\n      dup3\n      dup1\n      sload\n      tag_38\n      swap1\n      tag_32\n      jump\t// in\n    tag_38:\n      dup1\n      iszero\n      tag_39\n      jumpi\n      dup1\n      0x1f\n      lt\n      tag_40\n      jumpi\n      0x0100\n      dup1\n      dup4\n      sload\n      div\n      mul\n      dup4\n      mstore\n      swap2\n      0x20\n      add\n      swap2\n      jump(tag_39)\n    tag_40:\n      dup3\n      add\n      swap2\n      swap1\n      0x00\n      mstore\n      keccak256(0x00, 0x20)\n      swap1\n    tag_41:\n      dup2\n      sload\n      dup2\n      mstore\n      swap1\n      0x01\n      add\n      swap1\n      0x20\n      add\n      dup1\n      dup4\n      gt\n      tag_41\n      jumpi\n      dup3\n      swap1\n      sub\n      0x1f\n      and\n      dup3\n      add\n      swap2\n    tag_39:\n      pop\n      pop\n      pop\n      pop\n      pop\n      dup2\n      mstore\n      0x20\n      add\n      0x02\n      dup3\n      add\n      dup1\n      sload\n      tag_42\n      swap1\n      tag_32\n      jump\t// in\n    tag_42:\n      dup1\n      0x1f\n      add\n      0x20\n      dup1\n      swap2\n      div\n      mul\n      0x20\n      add\n      mload(0x40)\n      swap1\n      dup2\n      add\n      0x40\n      mstore\n      dup1\n      swap3\n      swap2\n      swap1\n      dup2\n      dup2\n      mstore\n      0x20\n      add\n      dup3\n      dup1\n      sload\n      tag_43\n      swap1\n      tag_32\n      jump\t// in\n    tag_43:\n      dup1\n      iszero\n      tag_44\n      jumpi\n      dup1\n      0x1f\n      lt\n      tag_45\n      jumpi\n      0x0100\n      dup1\n      dup4\n      sload\n      div\n      mul\n      dup4\n      mstore\n      swap2\n      0x20\n      add\n      swap2\n      jump(tag_44)\n    tag_45:\n      dup3\n      add\n      swap2\n      swap1\n      0x00\n      mstore\n      keccak256(0x00, 0x20)\n      swap1\n    tag_46:\n      dup2\n      sload\n      dup2\n      mstore\n      swap1\n      0x01\n      add\n      swap1\n      0x20\n      add\n      dup1\n      dup4\n      gt\n      tag_46\n      jumpi\n      dup3\n      swap1\n      sub\n      0x1f\n      and\n      dup3\n      add\n      swap2\n    tag_44:\n      pop\n      pop\n      pop\n      pop\n      pop\n      dup2\n      mstore\n      0x20\n      add\n      0x03\n      dup3\n      add\n      sload\n      dup2\n      mstore\n      pop\n      pop\n      dup2\n      mstore\n      0x20\n      add\n      swap1\n      0x01\n      add\n      swap1\n      jump(tag_28)\n    tag_29:\n      pop\n      pop\n      pop\n      pop\n      swap1\n      pop\n        /* \"Role3/StrucsPin.sol\":1634:1768  function getUserCars(... */\n      swap2\n      swap1\n      pop\n      jump\t// out\n        /* \"Role3/StrucsPin.sol\":1774:1884  function getMyCars() external view override returns (Car[] memory) {... */\n    tag_15:\n        /* \"Role3/StrucsPin.sol\":1827:1839  Car[] memory */\n      0x60\n        /* \"Role3/StrucsPin.sol\":1858:1865  garages */\n      0x00\n        /* \"Role3/StrucsPin.sol\":1858:1877  garages[msg.sender] */\n      0x00\n        /* \"Role3/StrucsPin.sol\":1866:1876  msg.sender */\n      caller\n        /* \"Role3/StrucsPin.sol\":1858:1877  garages[msg.sender] */\n      0xffffffffffffffffffffffffffffffffffffffff\n      and\n      0xffffffffffffffffffffffffffffffffffffffff\n      and\n      dup2\n      mstore\n      0x20\n      add\n      swap1\n      dup2\n      mstore\n      0x20\n      add\n      0x00\n      keccak256\n        /* \"Role3/StrucsPin.sol\":1851:1877  return garages[msg.sender] */\n      dup1\n      sload\n      dup1\n      0x20\n      mul\n      0x20\n      add\n      mload(0x40)\n      swap1\n      dup2\n      add\n      0x40\n      mstore\n      dup1\n      swap3\n      swap2\n      swap1\n      dup2\n      dup2\n      mstore\n      0x20\n      add\n      0x00\n      swap1\n    tag_48:\n      dup3\n      dup3\n      lt\n      iszero\n      tag_49\n      jumpi\n      dup4\n      dup3\n      swap1\n      0x00\n      mstore\n      keccak256(0x00, 0x20)\n      swap1\n      0x04\n      mul\n      add\n      mload(0x40)\n      dup1\n      0x80\n      add\n      0x40\n      mstore\n      swap1\n      dup2\n      0x00\n      dup3\n      add\n      dup1\n      sload\n      tag_51\n      swap1\n      tag_32\n      jump\t// in\n    tag_51:\n      dup1\n      0x1f\n      add\n      0x20\n      dup1\n      swap2\n      div\n      mul\n      0x20\n      add\n      mload(0x40)\n      swap1\n      dup2\n      add\n      0x40\n      mstore\n      dup1\n      swap3\n      swap2\n      swap1\n      dup2\n      dup2\n      mstore\n      0x20\n      add\n      dup3\n      dup1\n      sload\n      tag_52\n      swap1\n      tag_32\n      jump\t// in\n    tag_52:\n      dup1\n      iszero\n      tag_53\n      jumpi\n      dup1\n      0x1f\n      lt\n      tag_54\n      jumpi\n      0x0100\n      dup1\n      dup4\n      sload\n      div\n      mul\n      dup4\n      mstore\n      swap2\n      0x20\n      add\n      swap2\n      jump(tag_53)\n    tag_54:\n      dup3\n      add\n      swap2\n      swap1\n      0x00\n      mstore\n      keccak256(0x00, 0x20)\n      swap1\n    tag_55:\n      dup2\n      sload\n      dup2\n      mstore\n      swap1\n      0x01\n      add\n      swap1\n      0x20\n      add\n      dup1\n      dup4\n      gt\n      tag_55\n      jumpi\n      dup3\n      swap1\n      sub\n      0x1f\n      and\n      dup3\n      add\n      swap2\n    tag_53:\n      pop\n      pop\n      pop\n      pop\n      pop\n      dup2\n      mstore\n      0x20\n      add\n      0x01\n      dup3\n      add\n      dup1\n      sload\n      tag_56\n      swap1\n      tag_32\n      jump\t// in\n    tag_56:\n      dup1\n      0x1f\n      add\n      0x20\n      dup1\n      swap2\n      div\n      mul\n      0x20\n      add\n      mload(0x40)\n      swap1\n      dup2\n      add\n      0x40\n      mstore\n      dup1\n      swap3\n      swap2\n      swap1\n      dup2\n      dup2\n      mstore\n      0x20\n      add\n      dup3\n      dup1\n      sload\n      tag_57\n      swap1\n      tag_32\n      jump\t// in\n    tag_57:\n      dup1\n      iszero\n      tag_58\n      jumpi\n      dup1\n      0x1f\n      lt\n      tag_59\n      jumpi\n      0x0100\n      dup1\n      dup4\n      sload\n      div\n      mul\n      dup4\n      mstore\n      swap2\n      0x20\n      add\n      swap2\n      jump(tag_58)\n    tag_59:\n      dup3\n      add\n      swap2\n      swap1\n      0x00\n      mstore\n      keccak256(0x00, 0x20)\n      swap1\n    tag_60:\n      dup2\n      sload\n      dup2\n      mstore\n      swap1\n      0x01\n      add\n      swap1\n      0x20\n      add\n      dup1\n      dup4\n      gt\n      tag_60\n      jumpi\n      dup3\n      swap1\n      sub\n      0x1f\n      and\n      dup3\n      add\n      swap2\n    tag_58:\n      pop\n      pop\n      pop\n      pop\n      pop\n      dup2\n      mstore\n      0x20\n      add\n      0x02\n      dup3\n      add\n      dup1\n      sload\n      tag_61\n      swap1\n      tag_32\n      jump\t// in\n    tag_61:\n      dup1\n      0x1f\n      add\n      0x20\n      dup1\n      swap2\n      div\n      mul\n      0x20\n      add\n      mload(0x40)\n      swap1\n      dup2\n      add\n      0x40\n      mstore\n      dup1\n      swap3\n      swap2\n      swap1\n      dup2\n      dup2\n      mstore\n      0x20\n      add\n      dup3\n      dup1\n      sload\n      tag_62\n      swap1\n      tag_32\n      jump\t// in\n    tag_62:\n      dup1\n      iszero\n      tag_63\n      jumpi\n      dup1\n      0x1f\n      lt\n      tag_64\n      jumpi\n      0x0100\n      dup1\n      dup4\n      sload\n      div\n      mul\n      dup4\n      mstore\n      swap2\n      0x20\n      add\n      swap2\n      jump(tag_63)\n    tag_64:\n      dup3\n      add\n      swap2\n      swap1\n      0x00\n      mstore\n      keccak256(0x00, 0x20)\n      swap1\n    tag_65:\n      dup2\n      sload\n      dup2\n      mstore\n      swap1\n      0x01\n      add\n      swap1\n      0x20\n      add\n      dup1\n      dup4\n      gt\n      tag_65\n      jumpi\n      dup3\n      swap1\n      sub\n      0x1f\n      and\n      dup3\n      add\n      swap2\n    tag_63:\n      pop\n      pop\n      pop\n      pop\n      pop\n      dup2\n      mstore\n      0x20\n      add\n      0x03\n      dup3\n      add\n      sload\n      dup2\n      mstore\n      pop\n      pop\n      dup2\n      mstore\n      0x20\n      add\n      swap1\n      0x01\n      add\n      swap1\n      jump(tag_48)\n    tag_49:\n      pop\n      pop\n      pop\n      pop\n      swap1\n      pop\n        /* \"Role3/StrucsPin.sol\":1774:1884  function getMyCars() external view override returns (Car[] memory) {... */\n      swap1\n      jump\t// out\n        /* \"Role3/StrucsPin.sol\":1212:1628  function updateCar(... */\n    tag_20:\n        /* \"Role3/StrucsPin.sol\":1410:1433  Car storage carToUpdate */\n      0x00\n        /* \"Role3/StrucsPin.sol\":1436:1443  garages */\n      0x00\n        /* \"Role3/StrucsPin.sol\":1436:1455  garages[msg.sender] */\n      0x00\n        /* \"Role3/StrucsPin.sol\":1444:1454  msg.sender */\n      caller\n        /* \"Role3/StrucsPin.sol\":1436:1455  garages[msg.sender] */\n      0xffffffffffffffffffffffffffffffffffffffff\n      and\n      0xffffffffffffffffffffffffffffffffffffffff\n      and\n      dup2\n      mstore\n      0x20\n      add\n      swap1\n      dup2\n      mstore\n      0x20\n      add\n      0x00\n      keccak256\n        /* \"Role3/StrucsPin.sol\":1456:1462  _index */\n      dup10\n        /* \"Role3/StrucsPin.sol\":1436:1463  garages[msg.sender][_index] */\n      dup2\n      sload\n      dup2\n      lt\n      tag_67\n      jumpi\n      tag_68\n      tag_69\n      jump\t// in\n    tag_68:\n    tag_67:\n      swap1\n      0x00\n      mstore\n      keccak256(0x00, 0x20)\n      swap1\n      0x04\n      mul\n      add\n        /* \"Role3/StrucsPin.sol\":1410:1463  Car storage carToUpdate = garages[msg.sender][_index] */\n      swap1\n      pop\n        /* \"Role3/StrucsPin.sol\":1492:1497  _make */\n      dup8\n      dup8\n        /* \"Role3/StrucsPin.sol\":1473:1484  carToUpdate */\n      dup3\n        /* \"Role3/StrucsPin.sol\":1473:1489  carToUpdate.make */\n      0x00\n      add\n        /* \"Role3/StrucsPin.sol\":1473:1497  carToUpdate.make = _make */\n      swap2\n      dup3\n      tag_71\n      swap3\n      swap2\n      swap1\n      tag_72\n      jump\t// in\n    tag_71:\n      pop\n        /* \"Role3/StrucsPin.sol\":1527:1533  _model */\n      dup6\n      dup6\n        /* \"Role3/StrucsPin.sol\":1507:1518  carToUpdate */\n      dup3\n        /* \"Role3/StrucsPin.sol\":1507:1524  carToUpdate.model */\n      0x01\n      add\n        /* \"Role3/StrucsPin.sol\":1507:1533  carToUpdate.model = _model */\n      swap2\n      dup3\n      tag_73\n      swap3\n      swap2\n      swap1\n      tag_72\n      jump\t// in\n    tag_73:\n      pop\n        /* \"Role3/StrucsPin.sol\":1563:1569  _color */\n      dup4\n      dup4\n        /* \"Role3/StrucsPin.sol\":1543:1554  carToUpdate */\n      dup3\n        /* \"Role3/StrucsPin.sol\":1543:1560  carToUpdate.color */\n      0x02\n      add\n        /* \"Role3/StrucsPin.sol\":1543:1569  carToUpdate.color = _color */\n      swap2\n      dup3\n      tag_74\n      swap3\n      swap2\n      swap1\n      tag_72\n      jump\t// in\n    tag_74:\n      pop\n        /* \"Role3/StrucsPin.sol\":1607:1621  _numberOfDoors */\n      dup2\n        /* \"Role3/StrucsPin.sol\":1579:1590  carToUpdate */\n      dup2\n        /* \"Role3/StrucsPin.sol\":1579:1604  carToUpdate.numberOfDoors */\n      0x03\n      add\n        /* \"Role3/StrucsPin.sol\":1579:1621  carToUpdate.numberOfDoors = _numberOfDoors */\n      dup2\n      swap1\n      sstore\n      pop\n        /* \"Role3/StrucsPin.sol\":1400:1628  {... */\n      pop\n        /* \"Role3/StrucsPin.sol\":1212:1628  function updateCar(... */\n      pop\n      pop\n      pop\n      pop\n      pop\n      pop\n      pop\n      pop\n      jump\t// out\n        /* \"Role3/StrucsPin.sol\":1890:1976  function resetMyGarage() external override {... */\n    tag_22:\n        /* \"Role3/StrucsPin.sol\":1950:1957  garages */\n      0x00\n        /* \"Role3/StrucsPin.sol\":1950:1969  garages[msg.sender] */\n      0x00\n        /* \"Role3/StrucsPin.sol\":1958:1968  msg.sender */\n      caller\n        /* \"Role3/StrucsPin.sol\":1950:1969  garages[msg.sender] */\n      0xffffffffffffffffffffffffffffffffffffffff\n      and\n      0xffffffffffffffffffffffffffffffffffffffff\n      and\n      dup2\n      mstore\n      0x20\n      add\n      swap1\n      dup2\n      mstore\n      0x20\n      add\n      0x00\n      keccak256\n      0x00\n        /* \"Role3/StrucsPin.sol\":1943:1969  delete garages[msg.sender] */\n      tag_76\n      swap2\n      swap1\n      tag_77\n      jump\t// in\n    tag_76:\n        /* \"Role3/StrucsPin.sol\":1890:1976  function resetMyGarage() external override {... */\n      jump\t// out\n        /* \"Role3/StrucsPin.sol\":826:1206  function addCar(... */\n    tag_26:\n        /* \"Role3/StrucsPin.sol\":1000:1017  Car memory newCar */\n      0x00\n        /* \"Role3/StrucsPin.sol\":1020:1157  Car({... */\n      mload(0x40)\n      dup1\n      0x80\n      add\n      0x40\n      mstore\n      dup1\n        /* \"Role3/StrucsPin.sol\":1044:1049  _make */\n      dup10\n      dup10\n        /* \"Role3/StrucsPin.sol\":1020:1157  Car({... */\n      dup1\n      dup1\n      0x1f\n      add\n      0x20\n      dup1\n      swap2\n      div\n      mul\n      0x20\n      add\n      mload(0x40)\n      swap1\n      dup2\n      add\n      0x40\n      mstore\n      dup1\n      swap4\n      swap3\n      swap2\n      swap1\n      dup2\n      dup2\n      mstore\n      0x20\n      add\n      dup4\n      dup4\n      dup1\n      dup3\n      dup5\n      calldatacopy\n      0x00\n      dup2\n      dup5\n      add\n      mstore\n      not(0x1f)\n      0x1f\n      dup3\n      add\n      and\n      swap1\n      pop\n      dup1\n      dup4\n      add\n      swap3\n      pop\n      pop\n      pop\n      pop\n      pop\n      pop\n      pop\n      dup2\n      mstore\n      0x20\n      add\n        /* \"Role3/StrucsPin.sol\":1070:1076  _model */\n      dup8\n      dup8\n        /* \"Role3/StrucsPin.sol\":1020:1157  Car({... */\n      dup1\n      dup1\n      0x1f\n      add\n      0x20\n      dup1\n      swap2\n      div\n      mul\n      0x20\n      add\n      mload(0x40)\n      swap1\n      dup2\n      add\n      0x40\n      mstore\n      dup1\n      swap4\n      swap3\n      swap2\n      swap1\n      dup2\n      dup2\n      mstore\n      0x20\n      add\n      dup4\n      dup4\n      dup1\n      dup3\n      dup5\n      calldatacopy\n      0x00\n      dup2\n      dup5\n      add\n      mstore\n      not(0x1f)\n      0x1f\n      dup3\n      add\n      and\n      swap1\n      pop\n      dup1\n      dup4\n      add\n      swap3\n      pop\n      pop\n      pop\n      pop\n      pop\n      pop\n      pop\n      dup2\n      mstore\n      0x20\n      add\n        /* \"Role3/StrucsPin.sol\":1097:1103  _color */\n      dup6\n      dup6\n        /* \"Role3/StrucsPin.sol\":1020:1157  Car({... */\n      dup1\n      dup1\n      0x1f\n      add\n      0x20\n      dup1\n      swap2\n      div\n      mul\n      0x20\n      add\n      mload(0x40)\n      swap1\n      dup2\n      add\n      0x40\n      mstore\n      dup1\n      swap4\n      swap3\n      swap2\n      swap1\n      dup2\n      dup2\n      mstore\n      0x20\n      add\n      dup4\n      dup4\n      dup1\n      dup3\n      dup5\n      calldatacopy\n      0x00\n      dup2\n      dup5\n      add\n      mstore\n      not(0x1f)\n      0x1f\n      dup3\n      add\n      and\n      swap1\n      pop\n      dup1\n      dup4\n      add\n      swap3\n      pop\n      pop\n      pop\n      pop\n      pop\n      pop\n      pop\n      dup2\n      mstore\n      0x20\n      add\n        /* \"Role3/StrucsPin.sol\":1132:1146  _numberOfDoors */\n      dup4\n        /* \"Role3/StrucsPin.sol\":1020:1157  Car({... */\n      dup2\n      mstore\n      pop\n        /* \"Role3/StrucsPin.sol\":1000:1157  Car memory newCar = Car({... */\n      swap1\n      pop\n        /* \"Role3/StrucsPin.sol\":1167:1174  garages */\n      0x00\n        /* \"Role3/StrucsPin.sol\":1167:1186  garages[msg.sender] */\n      0x00\n        /* \"Role3/StrucsPin.sol\":1175:1185  msg.sender */\n      caller\n        /* \"Role3/StrucsPin.sol\":1167:1186  garages[msg.sender] */\n      0xffffffffffffffffffffffffffffffffffffffff\n      and\n      0xffffffffffffffffffffffffffffffffffffffff\n      and\n      dup2\n      mstore\n      0x20\n      add\n      swap1\n      dup2\n      mstore\n      0x20\n      add\n      0x00\n      keccak256\n        /* \"Role3/StrucsPin.sol\":1192:1198  newCar */\n      dup2\n        /* \"Role3/StrucsPin.sol\":1167:1199  garages[msg.sender].push(newCar) */\n      swap1\n      dup1\n      0x01\n      dup2\n      sload\n      add\n      dup1\n      dup3\n      sstore\n      dup1\n      swap2\n      pop\n      pop\n      0x01\n      swap1\n      sub\n      swap1\n      0x00\n      mstore\n      keccak256(0x00, 0x20)\n      swap1\n      0x04\n      mul\n      add\n      0x00\n      swap1\n      swap2\n      swap1\n      swap2\n      swap1\n      swap2\n      pop\n      0x00\n      dup3\n      add\n      mload\n      dup2\n      0x00\n      add\n      swap1\n      dup2\n      tag_80\n      swap2\n      swap1\n      tag_81\n      jump\t// in\n    tag_80:\n      pop\n      0x20\n      dup3\n      add\n      mload\n      dup2\n      0x01\n      add\n      swap1\n      dup2\n      tag_82\n      swap2\n      swap1\n      tag_81\n      jump\t// in\n    tag_82:\n      pop\n      0x40\n      dup3\n      add\n      mload\n      dup2\n      0x02\n      add\n      swap1\n      dup2\n      tag_83\n      swap2\n      swap1\n      tag_81\n      jump\t// in\n    tag_83:\n      pop\n      0x60\n      dup3\n      add\n      mload\n      dup2\n      0x03\n      add\n      sstore\n      pop\n      pop\n        /* \"Role3/StrucsPin.sol\":990:1206  {... */\n      pop\n        /* \"Role3/StrucsPin.sol\":826:1206  function addCar(... */\n      pop\n      pop\n      pop\n      pop\n      pop\n      pop\n      pop\n      jump\t// out\n    tag_77:\n      pop\n      dup1\n      sload\n      0x00\n      dup3\n      sstore\n      0x04\n      mul\n      swap1\n      0x00\n      mstore\n      keccak256(0x00, 0x20)\n      swap1\n      dup2\n      add\n      swap1\n      tag_85\n      swap2\n      swap1\n      tag_86\n      jump\t// in\n    tag_85:\n      pop\n      jump\t// out\n    tag_86:\n    tag_87:\n      dup1\n      dup3\n      gt\n      iszero\n      tag_88\n      jumpi\n      0x00\n      0x00\n      dup3\n      add\n      0x00\n      tag_89\n      swap2\n      swap1\n      tag_90\n      jump\t// in\n    tag_89:\n      0x01\n      dup3\n      add\n      0x00\n      tag_91\n      swap2\n      swap1\n      tag_90\n      jump\t// in\n    tag_91:\n      0x02\n      dup3\n      add\n      0x00\n      tag_92\n      swap2\n      swap1\n      tag_90\n      jump\t// in\n    tag_92:\n      0x03\n      dup3\n      add\n      0x00\n      swap1\n      sstore\n      pop\n      0x04\n      add\n      jump(tag_87)\n    tag_88:\n      pop\n      swap1\n      jump\t// out\n    tag_90:\n      pop\n      dup1\n      sload\n      tag_93\n      swap1\n      tag_32\n      jump\t// in\n    tag_93:\n      0x00\n      dup3\n      sstore\n      dup1\n      0x1f\n      lt\n      tag_95\n      jumpi\n      pop\n      jump(tag_94)\n    tag_95:\n      0x1f\n      add\n      0x20\n      swap1\n      div\n      swap1\n      0x00\n      mstore\n      keccak256(0x00, 0x20)\n      swap1\n      dup2\n      add\n      swap1\n      tag_96\n      swap2\n      swap1\n      tag_97\n      jump\t// in\n    tag_96:\n    tag_94:\n      pop\n      jump\t// out\n    tag_97:\n    tag_98:\n      dup1\n      dup3\n      gt\n      iszero\n      tag_99\n      jumpi\n      0x00\n      dup2\n      0x00\n      swap1\n      sstore\n      pop\n      0x01\n      add\n      jump(tag_98)\n    tag_99:\n      pop\n      swap1\n      jump\t// out\n        /* \"#utility.yul\":88:205   */\n    tag_101:\n        /* \"#utility.yul\":197:198   */\n      0x00\n        /* \"#utility.yul\":194:195   */\n      0x00\n        /* \"#utility.yul\":187:199   */\n      revert\n        /* \"#utility.yul\":211:328   */\n    tag_102:\n        /* \"#utility.yul\":320:321   */\n      0x00\n        /* \"#utility.yul\":317:318   */\n      0x00\n        /* \"#utility.yul\":310:322   */\n      revert\n        /* \"#utility.yul\":334:460   */\n    tag_103:\n        /* \"#utility.yul\":371:378   */\n      0x00\n        /* \"#utility.yul\":411:453   */\n      0xffffffffffffffffffffffffffffffffffffffff\n        /* \"#utility.yul\":404:409   */\n      dup3\n        /* \"#utility.yul\":400:454   */\n      and\n        /* \"#utility.yul\":389:454   */\n      swap1\n      pop\n        /* \"#utility.yul\":334:460   */\n      swap2\n      swap1\n      pop\n      jump\t// out\n        /* \"#utility.yul\":466:562   */\n    tag_104:\n        /* \"#utility.yul\":503:510   */\n      0x00\n        /* \"#utility.yul\":532:556   */\n      tag_151\n        /* \"#utility.yul\":550:555   */\n      dup3\n        /* \"#utility.yul\":532:556   */\n      tag_103\n      jump\t// in\n    tag_151:\n        /* \"#utility.yul\":521:556   */\n      swap1\n      pop\n        /* \"#utility.yul\":466:562   */\n      swap2\n      swap1\n      pop\n      jump\t// out\n        /* \"#utility.yul\":568:690   */\n    tag_105:\n        /* \"#utility.yul\":641:665   */\n      tag_153\n        /* \"#utility.yul\":659:664   */\n      dup2\n        /* \"#utility.yul\":641:665   */\n      tag_104\n      jump\t// in\n    tag_153:\n        /* \"#utility.yul\":634:639   */\n      dup2\n        /* \"#utility.yul\":631:666   */\n      eq\n        /* \"#utility.yul\":621:684   */\n      tag_154\n      jumpi\n        /* \"#utility.yul\":680:681   */\n      0x00\n        /* \"#utility.yul\":677:678   */\n      0x00\n        /* \"#utility.yul\":670:682   */\n      revert\n        /* \"#utility.yul\":621:684   */\n    tag_154:\n        /* \"#utility.yul\":568:690   */\n      pop\n      jump\t// out\n        /* \"#utility.yul\":696:835   */\n    tag_106:\n        /* \"#utility.yul\":742:747   */\n      0x00\n        /* \"#utility.yul\":780:786   */\n      dup2\n        /* \"#utility.yul\":767:787   */\n      calldataload\n        /* \"#utility.yul\":758:787   */\n      swap1\n      pop\n        /* \"#utility.yul\":796:829   */\n      tag_156\n        /* \"#utility.yul\":823:828   */\n      dup2\n        /* \"#utility.yul\":796:829   */\n      tag_105\n      jump\t// in\n    tag_156:\n        /* \"#utility.yul\":696:835   */\n      swap3\n      swap2\n      pop\n      pop\n      jump\t// out\n        /* \"#utility.yul\":841:1170   */\n    tag_10:\n        /* \"#utility.yul\":900:906   */\n      0x00\n        /* \"#utility.yul\":949:951   */\n      0x20\n        /* \"#utility.yul\":937:946   */\n      dup3\n        /* \"#utility.yul\":928:935   */\n      dup5\n        /* \"#utility.yul\":924:947   */\n      sub\n        /* \"#utility.yul\":920:952   */\n      slt\n        /* \"#utility.yul\":917:1036   */\n      iszero\n      tag_158\n      jumpi\n        /* \"#utility.yul\":955:1034   */\n      tag_159\n      tag_101\n      jump\t// in\n    tag_159:\n        /* \"#utility.yul\":917:1036   */\n    tag_158:\n        /* \"#utility.yul\":1075:1076   */\n      0x00\n        /* \"#utility.yul\":1100:1153   */\n      tag_160\n        /* \"#utility.yul\":1145:1152   */\n      dup5\n        /* \"#utility.yul\":1136:1142   */\n      dup3\n        /* \"#utility.yul\":1125:1134   */\n      dup6\n        /* \"#utility.yul\":1121:1143   */\n      add\n        /* \"#utility.yul\":1100:1153   */\n      tag_106\n      jump\t// in\n    tag_160:\n        /* \"#utility.yul\":1090:1153   */\n      swap2\n      pop\n        /* \"#utility.yul\":1046:1163   */\n      pop\n        /* \"#utility.yul\":841:1170   */\n      swap3\n      swap2\n      pop\n      pop\n      jump\t// out\n        /* \"#utility.yul\":1176:1309   */\n    tag_107:\n        /* \"#utility.yul\":1262:1268   */\n      0x00\n        /* \"#utility.yul\":1296:1301   */\n      dup2\n        /* \"#utility.yul\":1290:1302   */\n      mload\n        /* \"#utility.yul\":1280:1302   */\n      swap1\n      pop\n        /* \"#utility.yul\":1176:1309   */\n      swap2\n      swap1\n      pop\n      jump\t// out\n        /* \"#utility.yul\":1315:1518   */\n    tag_108:\n        /* \"#utility.yul\":1433:1444   */\n      0x00\n        /* \"#utility.yul\":1467:1473   */\n      dup3\n        /* \"#utility.yul\":1462:1465   */\n      dup3\n        /* \"#utility.yul\":1455:1474   */\n      mstore\n        /* \"#utility.yul\":1507:1511   */\n      0x20\n        /* \"#utility.yul\":1502:1505   */\n      dup3\n        /* \"#utility.yul\":1498:1512   */\n      add\n        /* \"#utility.yul\":1483:1512   */\n      swap1\n      pop\n        /* \"#utility.yul\":1315:1518   */\n      swap3\n      swap2\n      pop\n      pop\n      jump\t// out\n        /* \"#utility.yul\":1524:1675   */\n    tag_109:\n        /* \"#utility.yul\":1610:1614   */\n      0x00\n        /* \"#utility.yul\":1633:1636   */\n      dup2\n        /* \"#utility.yul\":1625:1636   */\n      swap1\n      pop\n        /* \"#utility.yul\":1663:1667   */\n      0x20\n        /* \"#utility.yul\":1658:1661   */\n      dup3\n        /* \"#utility.yul\":1654:1668   */\n      add\n        /* \"#utility.yul\":1646:1668   */\n      swap1\n      pop\n        /* \"#utility.yul\":1524:1675   */\n      swap2\n      swap1\n      pop\n      jump\t// out\n        /* \"#utility.yul\":1681:1780   */\n    tag_110:\n        /* \"#utility.yul\":1733:1739   */\n      0x00\n        /* \"#utility.yul\":1767:1772   */\n      dup2\n        /* \"#utility.yul\":1761:1773   */\n      mload\n        /* \"#utility.yul\":1751:1773   */\n      swap1\n      pop\n        /* \"#utility.yul\":1681:1780   */\n      swap2\n      swap1\n      pop\n      jump\t// out\n        /* \"#utility.yul\":1786:1945   */\n    tag_111:\n        /* \"#utility.yul\":1860:1871   */\n      0x00\n        /* \"#utility.yul\":1894:1900   */\n      dup3\n        /* \"#utility.yul\":1889:1892   */\n      dup3\n        /* \"#utility.yul\":1882:1901   */\n      mstore\n        /* \"#utility.yul\":1934:1938   */\n      0x20\n        /* \"#utility.yul\":1929:1932   */\n      dup3\n        /* \"#utility.yul\":1925:1939   */\n      add\n        /* \"#utility.yul\":1910:1939   */\n      swap1\n      pop\n        /* \"#utility.yul\":1786:1945   */\n      swap3\n      swap2\n      pop\n      pop\n      jump\t// out\n        /* \"#utility.yul\":1951:2090   */\n    tag_112:\n        /* \"#utility.yul\":2040:2046   */\n      dup3\n        /* \"#utility.yul\":2035:2038   */\n      dup2\n        /* \"#utility.yul\":2030:2033   */\n      dup4\n        /* \"#utility.yul\":2024:2047   */\n      mcopy\n        /* \"#utility.yul\":2081:2082   */\n      0x00\n        /* \"#utility.yul\":2072:2078   */\n      dup4\n        /* \"#utility.yul\":2067:2070   */\n      dup4\n        /* \"#utility.yul\":2063:2079   */\n      add\n        /* \"#utility.yul\":2056:2083   */\n      mstore\n        /* \"#utility.yul\":1951:2090   */\n      pop\n      pop\n      pop\n      jump\t// out\n        /* \"#utility.yul\":2096:2198   */\n    tag_113:\n        /* \"#utility.yul\":2137:2143   */\n      0x00\n        /* \"#utility.yul\":2188:2190   */\n      0x1f\n        /* \"#utility.yul\":2184:2191   */\n      not\n        /* \"#utility.yul\":2179:2181   */\n      0x1f\n        /* \"#utility.yul\":2172:2177   */\n      dup4\n        /* \"#utility.yul\":2168:2182   */\n      add\n        /* \"#utility.yul\":2164:2192   */\n      and\n        /* \"#utility.yul\":2154:2192   */\n      swap1\n      pop\n        /* \"#utility.yul\":2096:2198   */\n      swap2\n      swap1\n      pop\n      jump\t// out\n        /* \"#utility.yul\":2204:2561   */\n    tag_114:\n        /* \"#utility.yul\":2282:2285   */\n      0x00\n        /* \"#utility.yul\":2310:2349   */\n      tag_169\n        /* \"#utility.yul\":2343:2348   */\n      dup3\n        /* \"#utility.yul\":2310:2349   */\n      tag_110\n      jump\t// in\n    tag_169:\n        /* \"#utility.yul\":2365:2426   */\n      tag_170\n        /* \"#utility.yul\":2419:2425   */\n      dup2\n        /* \"#utility.yul\":2414:2417   */\n      dup6\n        /* \"#utility.yul\":2365:2426   */\n      tag_111\n      jump\t// in\n    tag_170:\n        /* \"#utility.yul\":2358:2426   */\n      swap4\n      pop\n        /* \"#utility.yul\":2435:2500   */\n      tag_171\n        /* \"#utility.yul\":2493:2499   */\n      dup2\n        /* \"#utility.yul\":2488:2491   */\n      dup6\n        /* \"#utility.yul\":2481:2485   */\n      0x20\n        /* \"#utility.yul\":2474:2479   */\n      dup7\n        /* \"#utility.yul\":2470:2486   */\n      add\n        /* \"#utility.yul\":2435:2500   */\n      tag_112\n      jump\t// in\n    tag_171:\n        /* \"#utility.yul\":2525:2554   */\n      tag_172\n        /* \"#utility.yul\":2547:2553   */\n      dup2\n        /* \"#utility.yul\":2525:2554   */\n      tag_113\n      jump\t// in\n    tag_172:\n        /* \"#utility.yul\":2520:2523   */\n      dup5\n        /* \"#utility.yul\":2516:2555   */\n      add\n        /* \"#utility.yul\":2509:2555   */\n      swap2\n      pop\n        /* \"#utility.yul\":2286:2561   */\n      pop\n        /* \"#utility.yul\":2204:2561   */\n      swap3\n      swap2\n      pop\n      pop\n      jump\t// out\n        /* \"#utility.yul\":2567:2644   */\n    tag_115:\n        /* \"#utility.yul\":2604:2611   */\n      0x00\n        /* \"#utility.yul\":2633:2638   */\n      dup2\n        /* \"#utility.yul\":2622:2638   */\n      swap1\n      pop\n        /* \"#utility.yul\":2567:2644   */\n      swap2\n      swap1\n      pop\n      jump\t// out\n        /* \"#utility.yul\":2650:2758   */\n    tag_116:\n        /* \"#utility.yul\":2727:2751   */\n      tag_175\n        /* \"#utility.yul\":2745:2750   */\n      dup2\n        /* \"#utility.yul\":2727:2751   */\n      tag_115\n      jump\t// in\n    tag_175:\n        /* \"#utility.yul\":2722:2725   */\n      dup3\n        /* \"#utility.yul\":2715:2752   */\n      mstore\n        /* \"#utility.yul\":2650:2758   */\n      pop\n      pop\n      jump\t// out\n        /* \"#utility.yul\":2820:3905   */\n    tag_117:\n        /* \"#utility.yul\":2917:2920   */\n      0x00\n        /* \"#utility.yul\":2953:2957   */\n      0x80\n        /* \"#utility.yul\":2948:2951   */\n      dup4\n        /* \"#utility.yul\":2944:2958   */\n      add\n        /* \"#utility.yul\":3040:3044   */\n      0x00\n        /* \"#utility.yul\":3033:3038   */\n      dup4\n        /* \"#utility.yul\":3029:3045   */\n      add\n        /* \"#utility.yul\":3023:3046   */\n      mload\n        /* \"#utility.yul\":3093:3096   */\n      dup5\n        /* \"#utility.yul\":3087:3091   */\n      dup3\n        /* \"#utility.yul\":3083:3097   */\n      sub\n        /* \"#utility.yul\":3076:3080   */\n      0x00\n        /* \"#utility.yul\":3071:3074   */\n      dup7\n        /* \"#utility.yul\":3067:3081   */\n      add\n        /* \"#utility.yul\":3060:3098   */\n      mstore\n        /* \"#utility.yul\":3119:3192   */\n      tag_177\n        /* \"#utility.yul\":3187:3191   */\n      dup3\n        /* \"#utility.yul\":3173:3185   */\n      dup3\n        /* \"#utility.yul\":3119:3192   */\n      tag_114\n      jump\t// in\n    tag_177:\n        /* \"#utility.yul\":3111:3192   */\n      swap2\n      pop\n        /* \"#utility.yul\":2968:3203   */\n      pop\n        /* \"#utility.yul\":3286:3290   */\n      0x20\n        /* \"#utility.yul\":3279:3284   */\n      dup4\n        /* \"#utility.yul\":3275:3291   */\n      add\n        /* \"#utility.yul\":3269:3292   */\n      mload\n        /* \"#utility.yul\":3339:3342   */\n      dup5\n        /* \"#utility.yul\":3333:3337   */\n      dup3\n        /* \"#utility.yul\":3329:3343   */\n      sub\n        /* \"#utility.yul\":3322:3326   */\n      0x20\n        /* \"#utility.yul\":3317:3320   */\n      dup7\n        /* \"#utility.yul\":3313:3327   */\n      add\n        /* \"#utility.yul\":3306:3344   */\n      mstore\n        /* \"#utility.yul\":3365:3438   */\n      tag_178\n        /* \"#utility.yul\":3433:3437   */\n      dup3\n        /* \"#utility.yul\":3419:3431   */\n      dup3\n        /* \"#utility.yul\":3365:3438   */\n      tag_114\n      jump\t// in\n    tag_178:\n        /* \"#utility.yul\":3357:3438   */\n      swap2\n      pop\n        /* \"#utility.yul\":3213:3449   */\n      pop\n        /* \"#utility.yul\":3532:3536   */\n      0x40\n        /* \"#utility.yul\":3525:3530   */\n      dup4\n        /* \"#utility.yul\":3521:3537   */\n      add\n        /* \"#utility.yul\":3515:3538   */\n      mload\n        /* \"#utility.yul\":3585:3588   */\n      dup5\n        /* \"#utility.yul\":3579:3583   */\n      dup3\n        /* \"#utility.yul\":3575:3589   */\n      sub\n        /* \"#utility.yul\":3568:3572   */\n      0x40\n        /* \"#utility.yul\":3563:3566   */\n      dup7\n        /* \"#utility.yul\":3559:3573   */\n      add\n        /* \"#utility.yul\":3552:3590   */\n      mstore\n        /* \"#utility.yul\":3611:3684   */\n      tag_179\n        /* \"#utility.yul\":3679:3683   */\n      dup3\n        /* \"#utility.yul\":3665:3677   */\n      dup3\n        /* \"#utility.yul\":3611:3684   */\n      tag_114\n      jump\t// in\n    tag_179:\n        /* \"#utility.yul\":3603:3684   */\n      swap2\n      pop\n        /* \"#utility.yul\":3459:3695   */\n      pop\n        /* \"#utility.yul\":3786:3790   */\n      0x60\n        /* \"#utility.yul\":3779:3784   */\n      dup4\n        /* \"#utility.yul\":3775:3791   */\n      add\n        /* \"#utility.yul\":3769:3792   */\n      mload\n        /* \"#utility.yul\":3805:3868   */\n      tag_180\n        /* \"#utility.yul\":3862:3866   */\n      0x60\n        /* \"#utility.yul\":3857:3860   */\n      dup7\n        /* \"#utility.yul\":3853:3867   */\n      add\n        /* \"#utility.yul\":3839:3851   */\n      dup3\n        /* \"#utility.yul\":3805:3868   */\n      tag_116\n      jump\t// in\n    tag_180:\n        /* \"#utility.yul\":3705:3878   */\n      pop\n        /* \"#utility.yul\":3895:3899   */\n      dup1\n        /* \"#utility.yul\":3888:3899   */\n      swap2\n      pop\n        /* \"#utility.yul\":2922:3905   */\n      pop\n        /* \"#utility.yul\":2820:3905   */\n      swap3\n      swap2\n      pop\n      pop\n      jump\t// out\n        /* \"#utility.yul\":3911:4143   */\n    tag_118:\n        /* \"#utility.yul\":4018:4028   */\n      0x00\n        /* \"#utility.yul\":4053:4137   */\n      tag_182\n        /* \"#utility.yul\":4133:4136   */\n      dup4\n        /* \"#utility.yul\":4125:4131   */\n      dup4\n        /* \"#utility.yul\":4053:4137   */\n      tag_117\n      jump\t// in\n    tag_182:\n        /* \"#utility.yul\":4039:4137   */\n      swap1\n      pop\n        /* \"#utility.yul\":3911:4143   */\n      swap3\n      swap2\n      pop\n      pop\n      jump\t// out\n        /* \"#utility.yul\":4149:4281   */\n    tag_119:\n        /* \"#utility.yul\":4238:4242   */\n      0x00\n        /* \"#utility.yul\":4270:4274   */\n      0x20\n        /* \"#utility.yul\":4265:4268   */\n      dup3\n        /* \"#utility.yul\":4261:4275   */\n      add\n        /* \"#utility.yul\":4253:4275   */\n      swap1\n      pop\n        /* \"#utility.yul\":4149:4281   */\n      swap2\n      swap1\n      pop\n      jump\t// out\n        /* \"#utility.yul\":4347:5410   */\n    tag_120:\n        /* \"#utility.yul\":4504:4507   */\n      0x00\n        /* \"#utility.yul\":4533:4606   */\n      tag_185\n        /* \"#utility.yul\":4600:4605   */\n      dup3\n        /* \"#utility.yul\":4533:4606   */\n      tag_107\n      jump\t// in\n    tag_185:\n        /* \"#utility.yul\":4622:4727   */\n      tag_186\n        /* \"#utility.yul\":4720:4726   */\n      dup2\n        /* \"#utility.yul\":4715:4718   */\n      dup6\n        /* \"#utility.yul\":4622:4727   */\n      tag_108\n      jump\t// in\n    tag_186:\n        /* \"#utility.yul\":4615:4727   */\n      swap4\n      pop\n        /* \"#utility.yul\":4753:4756   */\n      dup4\n        /* \"#utility.yul\":4798:4802   */\n      0x20\n        /* \"#utility.yul\":4790:4796   */\n      dup3\n        /* \"#utility.yul\":4786:4803   */\n      mul\n        /* \"#utility.yul\":4781:4784   */\n      dup6\n        /* \"#utility.yul\":4777:4804   */\n      add\n        /* \"#utility.yul\":4828:4903   */\n      tag_187\n        /* \"#utility.yul\":4897:4902   */\n      dup6\n        /* \"#utility.yul\":4828:4903   */\n      tag_109\n      jump\t// in\n    tag_187:\n        /* \"#utility.yul\":4926:4933   */\n      dup1\n        /* \"#utility.yul\":4957:4958   */\n      0x00\n        /* \"#utility.yul\":4942:5365   */\n    tag_188:\n        /* \"#utility.yul\":4967:4973   */\n      dup6\n        /* \"#utility.yul\":4964:4965   */\n      dup2\n        /* \"#utility.yul\":4961:4974   */\n      lt\n        /* \"#utility.yul\":4942:5365   */\n      iszero\n      tag_190\n      jumpi\n        /* \"#utility.yul\":5038:5047   */\n      dup5\n        /* \"#utility.yul\":5032:5036   */\n      dup5\n        /* \"#utility.yul\":5028:5048   */\n      sub\n        /* \"#utility.yul\":5023:5026   */\n      dup10\n        /* \"#utility.yul\":5016:5049   */\n      mstore\n        /* \"#utility.yul\":5089:5095   */\n      dup2\n        /* \"#utility.yul\":5083:5096   */\n      mload\n        /* \"#utility.yul\":5117:5219   */\n      tag_191\n        /* \"#utility.yul\":5214:5218   */\n      dup6\n        /* \"#utility.yul\":5199:5212   */\n      dup3\n        /* \"#utility.yul\":5117:5219   */\n      tag_118\n      jump\t// in\n    tag_191:\n        /* \"#utility.yul\":5109:5219   */\n      swap5\n      pop\n        /* \"#utility.yul\":5242:5321   */\n      tag_192\n        /* \"#utility.yul\":5314:5320   */\n      dup4\n        /* \"#utility.yul\":5242:5321   */\n      tag_119\n      jump\t// in\n    tag_192:\n        /* \"#utility.yul\":5232:5321   */\n      swap3\n      pop\n        /* \"#utility.yul\":5350:5354   */\n      0x20\n        /* \"#utility.yul\":5345:5348   */\n      dup11\n        /* \"#utility.yul\":5341:5355   */\n      add\n        /* \"#utility.yul\":5334:5355   */\n      swap10\n      pop\n        /* \"#utility.yul\":5002:5365   */\n      pop\n        /* \"#utility.yul\":4989:4990   */\n      0x01\n        /* \"#utility.yul\":4986:4987   */\n      dup2\n        /* \"#utility.yul\":4982:4991   */\n      add\n        /* \"#utility.yul\":4977:4991   */\n      swap1\n      pop\n        /* \"#utility.yul\":4942:5365   */\n      jump(tag_188)\n    tag_190:\n        /* \"#utility.yul\":4946:4960   */\n      pop\n        /* \"#utility.yul\":5381:5385   */\n      dup3\n        /* \"#utility.yul\":5374:5385   */\n      swap8\n      pop\n        /* \"#utility.yul\":5401:5404   */\n      dup8\n        /* \"#utility.yul\":5394:5404   */\n      swap6\n      pop\n        /* \"#utility.yul\":4509:5410   */\n      pop\n      pop\n      pop\n      pop\n      pop\n        /* \"#utility.yul\":4347:5410   */\n      swap3\n      swap2\n      pop\n      pop\n      jump\t// out\n        /* \"#utility.yul\":5416:5865   */\n    tag_13:\n        /* \"#utility.yul\":5597:5601   */\n      0x00\n        /* \"#utility.yul\":5635:5637   */\n      0x20\n        /* \"#utility.yul\":5624:5633   */\n      dup3\n        /* \"#utility.yul\":5620:5638   */\n      add\n        /* \"#utility.yul\":5612:5638   */\n      swap1\n      pop\n        /* \"#utility.yul\":5684:5693   */\n      dup2\n        /* \"#utility.yul\":5678:5682   */\n      dup2\n        /* \"#utility.yul\":5674:5694   */\n      sub\n        /* \"#utility.yul\":5670:5671   */\n      0x00\n        /* \"#utility.yul\":5659:5668   */\n      dup4\n        /* \"#utility.yul\":5655:5672   */\n      add\n        /* \"#utility.yul\":5648:5695   */\n      mstore\n        /* \"#utility.yul\":5712:5858   */\n      tag_194\n        /* \"#utility.yul\":5853:5857   */\n      dup2\n        /* \"#utility.yul\":5844:5850   */\n      dup5\n        /* \"#utility.yul\":5712:5858   */\n      tag_120\n      jump\t// in\n    tag_194:\n        /* \"#utility.yul\":5704:5858   */\n      swap1\n      pop\n        /* \"#utility.yul\":5416:5865   */\n      swap3\n      swap2\n      pop\n      pop\n      jump\t// out\n        /* \"#utility.yul\":5871:5993   */\n    tag_121:\n        /* \"#utility.yul\":5944:5968   */\n      tag_196\n        /* \"#utility.yul\":5962:5967   */\n      dup2\n        /* \"#utility.yul\":5944:5968   */\n      tag_115\n      jump\t// in\n    tag_196:\n        /* \"#utility.yul\":5937:5942   */\n      dup2\n        /* \"#utility.yul\":5934:5969   */\n      eq\n        /* \"#utility.yul\":5924:5987   */\n      tag_197\n      jumpi\n        /* \"#utility.yul\":5983:5984   */\n      0x00\n        /* \"#utility.yul\":5980:5981   */\n      0x00\n        /* \"#utility.yul\":5973:5985   */\n      revert\n        /* \"#utility.yul\":5924:5987   */\n    tag_197:\n        /* \"#utility.yul\":5871:5993   */\n      pop\n      jump\t// out\n        /* \"#utility.yul\":5999:6138   */\n    tag_122:\n        /* \"#utility.yul\":6045:6050   */\n      0x00\n        /* \"#utility.yul\":6083:6089   */\n      dup2\n        /* \"#utility.yul\":6070:6090   */\n      calldataload\n        /* \"#utility.yul\":6061:6090   */\n      swap1\n      pop\n        /* \"#utility.yul\":6099:6132   */\n      tag_199\n        /* \"#utility.yul\":6126:6131   */\n      dup2\n        /* \"#utility.yul\":6099:6132   */\n      tag_121\n      jump\t// in\n    tag_199:\n        /* \"#utility.yul\":5999:6138   */\n      swap3\n      swap2\n      pop\n      pop\n      jump\t// out\n        /* \"#utility.yul\":6144:6261   */\n    tag_123:\n        /* \"#utility.yul\":6253:6254   */\n      0x00\n        /* \"#utility.yul\":6250:6251   */\n      0x00\n        /* \"#utility.yul\":6243:6255   */\n      revert\n        /* \"#utility.yul\":6267:6384   */\n    tag_124:\n        /* \"#utility.yul\":6376:6377   */\n      0x00\n        /* \"#utility.yul\":6373:6374   */\n      0x00\n        /* \"#utility.yul\":6366:6378   */\n      revert\n        /* \"#utility.yul\":6390:6507   */\n    tag_125:\n        /* \"#utility.yul\":6499:6500   */\n      0x00\n        /* \"#utility.yul\":6496:6497   */\n      0x00\n        /* \"#utility.yul\":6489:6501   */\n      revert\n        /* \"#utility.yul\":6527:7080   */\n    tag_126:\n        /* \"#utility.yul\":6585:6593   */\n      0x00\n        /* \"#utility.yul\":6595:6601   */\n      0x00\n        /* \"#utility.yul\":6645:6648   */\n      dup4\n        /* \"#utility.yul\":6638:6642   */\n      0x1f\n        /* \"#utility.yul\":6630:6636   */\n      dup5\n        /* \"#utility.yul\":6626:6643   */\n      add\n        /* \"#utility.yul\":6622:6649   */\n      slt\n        /* \"#utility.yul\":6612:6734   */\n      tag_204\n      jumpi\n        /* \"#utility.yul\":6653:6732   */\n      tag_205\n      tag_123\n      jump\t// in\n    tag_205:\n        /* \"#utility.yul\":6612:6734   */\n    tag_204:\n        /* \"#utility.yul\":6766:6772   */\n      dup3\n        /* \"#utility.yul\":6753:6773   */\n      calldataload\n        /* \"#utility.yul\":6743:6773   */\n      swap1\n      pop\n        /* \"#utility.yul\":6796:6814   */\n      0xffffffffffffffff\n        /* \"#utility.yul\":6788:6794   */\n      dup2\n        /* \"#utility.yul\":6785:6815   */\n      gt\n        /* \"#utility.yul\":6782:6899   */\n      iszero\n      tag_206\n      jumpi\n        /* \"#utility.yul\":6818:6897   */\n      tag_207\n      tag_124\n      jump\t// in\n    tag_207:\n        /* \"#utility.yul\":6782:6899   */\n    tag_206:\n        /* \"#utility.yul\":6932:6936   */\n      0x20\n        /* \"#utility.yul\":6924:6930   */\n      dup4\n        /* \"#utility.yul\":6920:6937   */\n      add\n        /* \"#utility.yul\":6908:6937   */\n      swap2\n      pop\n        /* \"#utility.yul\":6986:6989   */\n      dup4\n        /* \"#utility.yul\":6978:6982   */\n      0x01\n        /* \"#utility.yul\":6970:6976   */\n      dup3\n        /* \"#utility.yul\":6966:6983   */\n      mul\n        /* \"#utility.yul\":6956:6964   */\n      dup4\n        /* \"#utility.yul\":6952:6984   */\n      add\n        /* \"#utility.yul\":6949:6990   */\n      gt\n        /* \"#utility.yul\":6946:7074   */\n      iszero\n      tag_208\n      jumpi\n        /* \"#utility.yul\":6993:7072   */\n      tag_209\n      tag_125\n      jump\t// in\n    tag_209:\n        /* \"#utility.yul\":6946:7074   */\n    tag_208:\n        /* \"#utility.yul\":6527:7080   */\n      swap3\n      pop\n      swap3\n      swap1\n      pop\n      jump\t// out\n        /* \"#utility.yul\":7086:8597   */\n    tag_19:\n        /* \"#utility.yul\":7217:7223   */\n      0x00\n        /* \"#utility.yul\":7225:7231   */\n      0x00\n        /* \"#utility.yul\":7233:7239   */\n      0x00\n        /* \"#utility.yul\":7241:7247   */\n      0x00\n        /* \"#utility.yul\":7249:7255   */\n      0x00\n        /* \"#utility.yul\":7257:7263   */\n      0x00\n        /* \"#utility.yul\":7265:7271   */\n      0x00\n        /* \"#utility.yul\":7273:7279   */\n      0x00\n        /* \"#utility.yul\":7322:7325   */\n      0xa0\n        /* \"#utility.yul\":7310:7319   */\n      dup10\n        /* \"#utility.yul\":7301:7308   */\n      dup12\n        /* \"#utility.yul\":7297:7320   */\n      sub\n        /* \"#utility.yul\":7293:7326   */\n      slt\n        /* \"#utility.yul\":7290:7410   */\n      iszero\n      tag_211\n      jumpi\n        /* \"#utility.yul\":7329:7408   */\n      tag_212\n      tag_101\n      jump\t// in\n    tag_212:\n        /* \"#utility.yul\":7290:7410   */\n    tag_211:\n        /* \"#utility.yul\":7449:7450   */\n      0x00\n        /* \"#utility.yul\":7474:7527   */\n      tag_213\n        /* \"#utility.yul\":7519:7526   */\n      dup12\n        /* \"#utility.yul\":7510:7516   */\n      dup3\n        /* \"#utility.yul\":7499:7508   */\n      dup13\n        /* \"#utility.yul\":7495:7517   */\n      add\n        /* \"#utility.yul\":7474:7527   */\n      tag_122\n      jump\t// in\n    tag_213:\n        /* \"#utility.yul\":7464:7527   */\n      swap9\n      pop\n        /* \"#utility.yul\":7420:7537   */\n      pop\n        /* \"#utility.yul\":7604:7606   */\n      0x20\n        /* \"#utility.yul\":7593:7602   */\n      dup10\n        /* \"#utility.yul\":7589:7607   */\n      add\n        /* \"#utility.yul\":7576:7608   */\n      calldataload\n        /* \"#utility.yul\":7635:7653   */\n      0xffffffffffffffff\n        /* \"#utility.yul\":7627:7633   */\n      dup2\n        /* \"#utility.yul\":7624:7654   */\n      gt\n        /* \"#utility.yul\":7621:7738   */\n      iszero\n      tag_214\n      jumpi\n        /* \"#utility.yul\":7657:7736   */\n      tag_215\n      tag_102\n      jump\t// in\n    tag_215:\n        /* \"#utility.yul\":7621:7738   */\n    tag_214:\n        /* \"#utility.yul\":7770:7835   */\n      tag_216\n        /* \"#utility.yul\":7827:7834   */\n      dup12\n        /* \"#utility.yul\":7818:7824   */\n      dup3\n        /* \"#utility.yul\":7807:7816   */\n      dup13\n        /* \"#utility.yul\":7803:7825   */\n      add\n        /* \"#utility.yul\":7770:7835   */\n      tag_126\n      jump\t// in\n    tag_216:\n        /* \"#utility.yul\":7752:7835   */\n      swap8\n      pop\n      swap8\n      pop\n        /* \"#utility.yul\":7547:7845   */\n      pop\n        /* \"#utility.yul\":7912:7914   */\n      0x40\n        /* \"#utility.yul\":7901:7910   */\n      dup10\n        /* \"#utility.yul\":7897:7915   */\n      add\n        /* \"#utility.yul\":7884:7916   */\n      calldataload\n        /* \"#utility.yul\":7943:7961   */\n      0xffffffffffffffff\n        /* \"#utility.yul\":7935:7941   */\n      dup2\n        /* \"#utility.yul\":7932:7962   */\n      gt\n        /* \"#utility.yul\":7929:8046   */\n      iszero\n      tag_217\n      jumpi\n        /* \"#utility.yul\":7965:8044   */\n      tag_218\n      tag_102\n      jump\t// in\n    tag_218:\n        /* \"#utility.yul\":7929:8046   */\n    tag_217:\n        /* \"#utility.yul\":8078:8143   */\n      tag_219\n        /* \"#utility.yul\":8135:8142   */\n      dup12\n        /* \"#utility.yul\":8126:8132   */\n      dup3\n        /* \"#utility.yul\":8115:8124   */\n      dup13\n        /* \"#utility.yul\":8111:8133   */\n      add\n        /* \"#utility.yul\":8078:8143   */\n      tag_126\n      jump\t// in\n    tag_219:\n        /* \"#utility.yul\":8060:8143   */\n      swap6\n      pop\n      swap6\n      pop\n        /* \"#utility.yul\":7855:8153   */\n      pop\n        /* \"#utility.yul\":8220:8222   */\n      0x60\n        /* \"#utility.yul\":8209:8218   */\n      dup10\n        /* \"#utility.yul\":8205:8223   */\n      add\n        /* \"#utility.yul\":8192:8224   */\n      calldataload\n        /* \"#utility.yul\":8251:8269   */\n      0xffffffffffffffff\n        /* \"#utility.yul\":8243:8249   */\n      dup2\n        /* \"#utility.yul\":8240:8270   */\n      gt\n        /* \"#utility.yul\":8237:8354   */\n      iszero\n      tag_220\n      jumpi\n        /* \"#utility.yul\":8273:8352   */\n      tag_221\n      tag_102\n      jump\t// in\n    tag_221:\n        /* \"#utility.yul\":8237:8354   */\n    tag_220:\n        /* \"#utility.yul\":8386:8451   */\n      tag_222\n        /* \"#utility.yul\":8443:8450   */\n      dup12\n        /* \"#utility.yul\":8434:8440   */\n      dup3\n        /* \"#utility.yul\":8423:8432   */\n      dup13\n        /* \"#utility.yul\":8419:8441   */\n      add\n        /* \"#utility.yul\":8386:8451   */\n      tag_126\n      jump\t// in\n    tag_222:\n        /* \"#utility.yul\":8368:8451   */\n      swap4\n      pop\n      swap4\n      pop\n        /* \"#utility.yul\":8163:8461   */\n      pop\n        /* \"#utility.yul\":8500:8503   */\n      0x80\n        /* \"#utility.yul\":8527:8580   */\n      tag_223\n        /* \"#utility.yul\":8572:8579   */\n      dup12\n        /* \"#utility.yul\":8563:8569   */\n      dup3\n        /* \"#utility.yul\":8552:8561   */\n      dup13\n        /* \"#utility.yul\":8548:8570   */\n      add\n        /* \"#utility.yul\":8527:8580   */\n      tag_122\n      jump\t// in\n    tag_223:\n        /* \"#utility.yul\":8517:8580   */\n      swap2\n      pop\n        /* \"#utility.yul\":8471:8590   */\n      pop\n        /* \"#utility.yul\":7086:8597   */\n      swap3\n      swap6\n      swap9\n      pop\n      swap3\n      swap6\n      swap9\n      swap1\n      swap4\n      swap7\n      pop\n      jump\t// out\n        /* \"#utility.yul\":8603:9968   */\n    tag_25:\n        /* \"#utility.yul\":8725:8731   */\n      0x00\n        /* \"#utility.yul\":8733:8739   */\n      0x00\n        /* \"#utility.yul\":8741:8747   */\n      0x00\n        /* \"#utility.yul\":8749:8755   */\n      0x00\n        /* \"#utility.yul\":8757:8763   */\n      0x00\n        /* \"#utility.yul\":8765:8771   */\n      0x00\n        /* \"#utility.yul\":8773:8779   */\n      0x00\n        /* \"#utility.yul\":8822:8825   */\n      0x80\n        /* \"#utility.yul\":8810:8819   */\n      dup9\n        /* \"#utility.yul\":8801:8808   */\n      dup11\n        /* \"#utility.yul\":8797:8820   */\n      sub\n        /* \"#utility.yul\":8793:8826   */\n      slt\n        /* \"#utility.yul\":8790:8910   */\n      iszero\n      tag_225\n      jumpi\n        /* \"#utility.yul\":8829:8908   */\n      tag_226\n      tag_101\n      jump\t// in\n    tag_226:\n        /* \"#utility.yul\":8790:8910   */\n    tag_225:\n        /* \"#utility.yul\":8977:8978   */\n      0x00\n        /* \"#utility.yul\":8966:8975   */\n      dup9\n        /* \"#utility.yul\":8962:8979   */\n      add\n        /* \"#utility.yul\":8949:8980   */\n      calldataload\n        /* \"#utility.yul\":9007:9025   */\n      0xffffffffffffffff\n        /* \"#utility.yul\":8999:9005   */\n      dup2\n        /* \"#utility.yul\":8996:9026   */\n      gt\n        /* \"#utility.yul\":8993:9110   */\n      iszero\n      tag_227\n      jumpi\n        /* \"#utility.yul\":9029:9108   */\n      tag_228\n      tag_102\n      jump\t// in\n    tag_228:\n        /* \"#utility.yul\":8993:9110   */\n    tag_227:\n        /* \"#utility.yul\":9142:9207   */\n      tag_229\n        /* \"#utility.yul\":9199:9206   */\n      dup11\n        /* \"#utility.yul\":9190:9196   */\n      dup3\n        /* \"#utility.yul\":9179:9188   */\n      dup12\n        /* \"#utility.yul\":9175:9197   */\n      add\n        /* \"#utility.yul\":9142:9207   */\n      tag_126\n      jump\t// in\n    tag_229:\n        /* \"#utility.yul\":9124:9207   */\n      swap8\n      pop\n      swap8\n      pop\n        /* \"#utility.yul\":8920:9217   */\n      pop\n        /* \"#utility.yul\":9284:9286   */\n      0x20\n        /* \"#utility.yul\":9273:9282   */\n      dup9\n        /* \"#utility.yul\":9269:9287   */\n      add\n        /* \"#utility.yul\":9256:9288   */\n      calldataload\n        /* \"#utility.yul\":9315:9333   */\n      0xffffffffffffffff\n        /* \"#utility.yul\":9307:9313   */\n      dup2\n        /* \"#utility.yul\":9304:9334   */\n      gt\n        /* \"#utility.yul\":9301:9418   */\n      iszero\n      tag_230\n      jumpi\n        /* \"#utility.yul\":9337:9416   */\n      tag_231\n      tag_102\n      jump\t// in\n    tag_231:\n        /* \"#utility.yul\":9301:9418   */\n    tag_230:\n        /* \"#utility.yul\":9450:9515   */\n      tag_232\n        /* \"#utility.yul\":9507:9514   */\n      dup11\n        /* \"#utility.yul\":9498:9504   */\n      dup3\n        /* \"#utility.yul\":9487:9496   */\n      dup12\n        /* \"#utility.yul\":9483:9505   */\n      add\n        /* \"#utility.yul\":9450:9515   */\n      tag_126\n      jump\t// in\n    tag_232:\n        /* \"#utility.yul\":9432:9515   */\n      swap6\n      pop\n      swap6\n      pop\n        /* \"#utility.yul\":9227:9525   */\n      pop\n        /* \"#utility.yul\":9592:9594   */\n      0x40\n        /* \"#utility.yul\":9581:9590   */\n      dup9\n        /* \"#utility.yul\":9577:9595   */\n      add\n        /* \"#utility.yul\":9564:9596   */\n      calldataload\n        /* \"#utility.yul\":9623:9641   */\n      0xffffffffffffffff\n        /* \"#utility.yul\":9615:9621   */\n      dup2\n        /* \"#utility.yul\":9612:9642   */\n      gt\n        /* \"#utility.yul\":9609:9726   */\n      iszero\n      tag_233\n      jumpi\n        /* \"#utility.yul\":9645:9724   */\n      tag_234\n      tag_102\n      jump\t// in\n    tag_234:\n        /* \"#utility.yul\":9609:9726   */\n    tag_233:\n        /* \"#utility.yul\":9758:9823   */\n      tag_235\n        /* \"#utility.yul\":9815:9822   */\n      dup11\n        /* \"#utility.yul\":9806:9812   */\n      dup3\n        /* \"#utility.yul\":9795:9804   */\n      dup12\n        /* \"#utility.yul\":9791:9813   */\n      add\n        /* \"#utility.yul\":9758:9823   */\n      tag_126\n      jump\t// in\n    tag_235:\n        /* \"#utility.yul\":9740:9823   */\n      swap4\n      pop\n      swap4\n      pop\n        /* \"#utility.yul\":9535:9833   */\n      pop\n        /* \"#utility.yul\":9872:9874   */\n      0x60\n        /* \"#utility.yul\":9898:9951   */\n      tag_236\n        /* \"#utility.yul\":9943:9950   */\n      dup11\n        /* \"#utility.yul\":9934:9940   */\n      dup3\n        /* \"#utility.yul\":9923:9932   */\n      dup12\n        /* \"#utility.yul\":9919:9941   */\n      add\n        /* \"#utility.yul\":9898:9951   */\n      tag_122\n      jump\t// in\n    tag_236:\n        /* \"#utility.yul\":9888:9951   */\n      swap2\n      pop\n        /* \"#utility.yul\":9843:9961   */\n      pop\n        /* \"#utility.yul\":8603:9968   */\n      swap3\n      swap6\n      swap9\n      swap2\n      swap5\n      swap8\n      pop\n      swap3\n      swap6\n      pop\n      jump\t// out\n        /* \"#utility.yul\":9974:10154   */\n    tag_127:\n        /* \"#utility.yul\":10022:10099   */\n      0x4e487b7100000000000000000000000000000000000000000000000000000000\n        /* \"#utility.yul\":10019:10020   */\n      0x00\n        /* \"#utility.yul\":10012:10100   */\n      mstore\n        /* \"#utility.yul\":10119:10123   */\n      0x22\n        /* \"#utility.yul\":10116:10117   */\n      0x04\n        /* \"#utility.yul\":10109:10124   */\n      mstore\n        /* \"#utility.yul\":10143:10147   */\n      0x24\n        /* \"#utility.yul\":10140:10141   */\n      0x00\n        /* \"#utility.yul\":10133:10148   */\n      revert\n        /* \"#utility.yul\":10160:10480   */\n    tag_32:\n        /* \"#utility.yul\":10204:10210   */\n      0x00\n        /* \"#utility.yul\":10241:10242   */\n      0x02\n        /* \"#utility.yul\":10235:10239   */\n      dup3\n        /* \"#utility.yul\":10231:10243   */\n      div\n        /* \"#utility.yul\":10221:10243   */\n      swap1\n      pop\n        /* \"#utility.yul\":10288:10289   */\n      0x01\n        /* \"#utility.yul\":10282:10286   */\n      dup3\n        /* \"#utility.yul\":10278:10290   */\n      and\n        /* \"#utility.yul\":10309:10327   */\n      dup1\n        /* \"#utility.yul\":10299:10380   */\n      tag_239\n      jumpi\n        /* \"#utility.yul\":10365:10369   */\n      0x7f\n        /* \"#utility.yul\":10357:10363   */\n      dup3\n        /* \"#utility.yul\":10353:10370   */\n      and\n        /* \"#utility.yul\":10343:10370   */\n      swap2\n      pop\n        /* \"#utility.yul\":10299:10380   */\n    tag_239:\n        /* \"#utility.yul\":10427:10429   */\n      0x20\n        /* \"#utility.yul\":10419:10425   */\n      dup3\n        /* \"#utility.yul\":10416:10430   */\n      lt\n        /* \"#utility.yul\":10396:10414   */\n      dup2\n        /* \"#utility.yul\":10393:10431   */\n      sub\n        /* \"#utility.yul\":10390:10474   */\n      tag_240\n      jumpi\n        /* \"#utility.yul\":10446:10464   */\n      tag_241\n      tag_127\n      jump\t// in\n    tag_241:\n        /* \"#utility.yul\":10390:10474   */\n    tag_240:\n        /* \"#utility.yul\":10211:10480   */\n      pop\n        /* \"#utility.yul\":10160:10480   */\n      swap2\n      swap1\n      pop\n      jump\t// out\n        /* \"#utility.yul\":10486:10666   */\n    tag_69:\n        /* \"#utility.yul\":10534:10611   */\n      0x4e487b7100000000000000000000000000000000000000000000000000000000\n        /* \"#utility.yul\":10531:10532   */\n      0x00\n        /* \"#utility.yul\":10524:10612   */\n      mstore\n        /* \"#utility.yul\":10631:10635   */\n      0x32\n        /* \"#utility.yul\":10628:10629   */\n      0x04\n        /* \"#utility.yul\":10621:10636   */\n      mstore\n        /* \"#utility.yul\":10655:10659   */\n      0x24\n        /* \"#utility.yul\":10652:10653   */\n      0x00\n        /* \"#utility.yul\":10645:10660   */\n      revert\n        /* \"#utility.yul\":10672:10769   */\n    tag_128:\n        /* \"#utility.yul\":10731:10737   */\n      0x00\n        /* \"#utility.yul\":10759:10762   */\n      dup3\n        /* \"#utility.yul\":10749:10762   */\n      swap1\n      pop\n        /* \"#utility.yul\":10672:10769   */\n      swap3\n      swap2\n      pop\n      pop\n      jump\t// out\n        /* \"#utility.yul\":10775:10955   */\n    tag_129:\n        /* \"#utility.yul\":10823:10900   */\n      0x4e487b7100000000000000000000000000000000000000000000000000000000\n        /* \"#utility.yul\":10820:10821   */\n      0x00\n        /* \"#utility.yul\":10813:10901   */\n      mstore\n        /* \"#utility.yul\":10920:10924   */\n      0x41\n        /* \"#utility.yul\":10917:10918   */\n      0x04\n        /* \"#utility.yul\":10910:10925   */\n      mstore\n        /* \"#utility.yul\":10944:10948   */\n      0x24\n        /* \"#utility.yul\":10941:10942   */\n      0x00\n        /* \"#utility.yul\":10934:10949   */\n      revert\n        /* \"#utility.yul\":10961:11102   */\n    tag_130:\n        /* \"#utility.yul\":11010:11014   */\n      0x00\n        /* \"#utility.yul\":11033:11036   */\n      dup2\n        /* \"#utility.yul\":11025:11036   */\n      swap1\n      pop\n        /* \"#utility.yul\":11056:11059   */\n      dup2\n        /* \"#utility.yul\":11053:11054   */\n      0x00\n        /* \"#utility.yul\":11046:11060   */\n      mstore\n        /* \"#utility.yul\":11090:11094   */\n      0x20\n        /* \"#utility.yul\":11087:11088   */\n      0x00\n        /* \"#utility.yul\":11077:11095   */\n      keccak256\n        /* \"#utility.yul\":11069:11095   */\n      swap1\n      pop\n        /* \"#utility.yul\":10961:11102   */\n      swap2\n      swap1\n      pop\n      jump\t// out\n        /* \"#utility.yul\":11108:11201   */\n    tag_131:\n        /* \"#utility.yul\":11145:11151   */\n      0x00\n        /* \"#utility.yul\":11192:11194   */\n      0x20\n        /* \"#utility.yul\":11187:11189   */\n      0x1f\n        /* \"#utility.yul\":11180:11185   */\n      dup4\n        /* \"#utility.yul\":11176:11190   */\n      add\n        /* \"#utility.yul\":11172:11195   */\n      div\n        /* \"#utility.yul\":11162:11195   */\n      swap1\n      pop\n        /* \"#utility.yul\":11108:11201   */\n      swap2\n      swap1\n      pop\n      jump\t// out\n        /* \"#utility.yul\":11207:11314   */\n    tag_132:\n        /* \"#utility.yul\":11251:11259   */\n      0x00\n        /* \"#utility.yul\":11301:11306   */\n      dup3\n        /* \"#utility.yul\":11295:11299   */\n      dup3\n        /* \"#utility.yul\":11291:11307   */\n      shl\n        /* \"#utility.yul\":11270:11307   */\n      swap1\n      pop\n        /* \"#utility.yul\":11207:11314   */\n      swap3\n      swap2\n      pop\n      pop\n      jump\t// out\n        /* \"#utility.yul\":11320:11713   */\n    tag_133:\n        /* \"#utility.yul\":11389:11395   */\n      0x00\n        /* \"#utility.yul\":11439:11440   */\n      0x08\n        /* \"#utility.yul\":11427:11437   */\n      dup4\n        /* \"#utility.yul\":11423:11441   */\n      mul\n        /* \"#utility.yul\":11462:11559   */\n      tag_249\n        /* \"#utility.yul\":11492:11558   */\n      0xffffffffffffffffffffffffffffffffffffffffffffffffffffffffffffffff\n        /* \"#utility.yul\":11481:11490   */\n      dup3\n        /* \"#utility.yul\":11462:11559   */\n      tag_132\n      jump\t// in\n    tag_249:\n        /* \"#utility.yul\":11580:11619   */\n      tag_250\n        /* \"#utility.yul\":11610:11618   */\n      dup7\n        /* \"#utility.yul\":11599:11608   */\n      dup4\n        /* \"#utility.yul\":11580:11619   */\n      tag_132\n      jump\t// in\n    tag_250:\n        /* \"#utility.yul\":11568:11619   */\n      swap6\n      pop\n        /* \"#utility.yul\":11652:11656   */\n      dup1\n        /* \"#utility.yul\":11648:11657   */\n      not\n        /* \"#utility.yul\":11641:11646   */\n      dup5\n        /* \"#utility.yul\":11637:11658   */\n      and\n        /* \"#utility.yul\":11628:11658   */\n      swap4\n      pop\n        /* \"#utility.yul\":11701:11705   */\n      dup1\n        /* \"#utility.yul\":11691:11699   */\n      dup7\n        /* \"#utility.yul\":11687:11706   */\n      and\n        /* \"#utility.yul\":11680:11685   */\n      dup5\n        /* \"#utility.yul\":11677:11707   */\n      or\n        /* \"#utility.yul\":11667:11707   */\n      swap3\n      pop\n        /* \"#utility.yul\":11396:11713   */\n      pop\n      pop\n        /* \"#utility.yul\":11320:11713   */\n      swap4\n      swap3\n      pop\n      pop\n      pop\n      jump\t// out\n        /* \"#utility.yul\":11719:11779   */\n    tag_134:\n        /* \"#utility.yul\":11747:11750   */\n      0x00\n        /* \"#utility.yul\":11768:11773   */\n      dup2\n        /* \"#utility.yul\":11761:11773   */\n      swap1\n      pop\n        /* \"#utility.yul\":11719:11779   */\n      swap2\n      swap1\n      pop\n      jump\t// out\n        /* \"#utility.yul\":11785:11927   */\n    tag_135:\n        /* \"#utility.yul\":11835:11844   */\n      0x00\n        /* \"#utility.yul\":11868:11921   */\n      tag_253\n        /* \"#utility.yul\":11886:11920   */\n      tag_254\n        /* \"#utility.yul\":11895:11919   */\n      tag_255\n        /* \"#utility.yul\":11913:11918   */\n      dup5\n        /* \"#utility.yul\":11895:11919   */\n      tag_115\n      jump\t// in\n    tag_255:\n        /* \"#utility.yul\":11886:11920   */\n      tag_134\n      jump\t// in\n    tag_254:\n        /* \"#utility.yul\":11868:11921   */\n      tag_115\n      jump\t// in\n    tag_253:\n        /* \"#utility.yul\":11855:11921   */\n      swap1\n      pop\n        /* \"#utility.yul\":11785:11927   */\n      swap2\n      swap1\n      pop\n      jump\t// out\n        /* \"#utility.yul\":11933:12008   */\n    tag_136:\n        /* \"#utility.yul\":11976:11979   */\n      0x00\n        /* \"#utility.yul\":11997:12002   */\n      dup2\n        /* \"#utility.yul\":11990:12002   */\n      swap1\n      pop\n        /* \"#utility.yul\":11933:12008   */\n      swap2\n      swap1\n      pop\n      jump\t// out\n        /* \"#utility.yul\":12014:12283   */\n    tag_137:\n        /* \"#utility.yul\":12124:12163   */\n      tag_258\n        /* \"#utility.yul\":12155:12162   */\n      dup4\n        /* \"#utility.yul\":12124:12163   */\n      tag_135\n      jump\t// in\n    tag_258:\n        /* \"#utility.yul\":12185:12276   */\n      tag_259\n        /* \"#utility.yul\":12234:12275   */\n      tag_260\n        /* \"#utility.yul\":12258:12274   */\n      dup3\n        /* \"#utility.yul\":12234:12275   */\n      tag_136\n      jump\t// in\n    tag_260:\n        /* \"#utility.yul\":12226:12232   */\n      dup5\n        /* \"#utility.yul\":12219:12223   */\n      dup5\n        /* \"#utility.yul\":12213:12224   */\n      sload\n        /* \"#utility.yul\":12185:12276   */\n      tag_133\n      jump\t// in\n    tag_259:\n        /* \"#utility.yul\":12179:12183   */\n      dup3\n        /* \"#utility.yul\":12172:12277   */\n      sstore\n        /* \"#utility.yul\":12090:12283   */\n      pop\n        /* \"#utility.yul\":12014:12283   */\n      pop\n      pop\n      pop\n      jump\t// out\n        /* \"#utility.yul\":12289:12362   */\n    tag_138:\n        /* \"#utility.yul\":12334:12337   */\n      0x00\n        /* \"#utility.yul\":12355:12356   */\n      0x00\n        /* \"#utility.yul\":12348:12356   */\n      swap1\n      pop\n        /* \"#utility.yul\":12289:12362   */\n      swap1\n      jump\t// out\n        /* \"#utility.yul\":12368:12557   */\n    tag_139:\n        /* \"#utility.yul\":12445:12477   */\n      tag_263\n      tag_138\n      jump\t// in\n    tag_263:\n        /* \"#utility.yul\":12486:12551   */\n      tag_264\n        /* \"#utility.yul\":12544:12550   */\n      dup2\n        /* \"#utility.yul\":12536:12542   */\n      dup5\n        /* \"#utility.yul\":12530:12534   */\n      dup5\n        /* \"#utility.yul\":12486:12551   */\n      tag_137\n      jump\t// in\n    tag_264:\n        /* \"#utility.yul\":12421:12557   */\n      pop\n        /* \"#utility.yul\":12368:12557   */\n      pop\n      pop\n      jump\t// out\n        /* \"#utility.yul\":12563:12749   */\n    tag_140:\n        /* \"#utility.yul\":12623:12743   */\n    tag_266:\n        /* \"#utility.yul\":12640:12643   */\n      dup2\n        /* \"#utility.yul\":12633:12638   */\n      dup2\n        /* \"#utility.yul\":12630:12644   */\n      lt\n        /* \"#utility.yul\":12623:12743   */\n      iszero\n      tag_268\n      jumpi\n        /* \"#utility.yul\":12694:12733   */\n      tag_269\n        /* \"#utility.yul\":12731:12732   */\n      0x00\n        /* \"#utility.yul\":12724:12729   */\n      dup3\n        /* \"#utility.yul\":12694:12733   */\n      tag_139\n      jump\t// in\n    tag_269:\n        /* \"#utility.yul\":12667:12668   */\n      0x01\n        /* \"#utility.yul\":12660:12665   */\n      dup2\n        /* \"#utility.yul\":12656:12669   */\n      add\n        /* \"#utility.yul\":12647:12669   */\n      swap1\n      pop\n        /* \"#utility.yul\":12623:12743   */\n      jump(tag_266)\n    tag_268:\n        /* \"#utility.yul\":12563:12749   */\n      pop\n      pop\n      jump\t// out\n        /* \"#utility.yul\":12755:13298   */\n    tag_141:\n        /* \"#utility.yul\":12856:12858   */\n      0x1f\n        /* \"#utility.yul\":12851:12854   */\n      dup3\n        /* \"#utility.yul\":12848:12859   */\n      gt\n        /* \"#utility.yul\":12845:13291   */\n      iszero\n      tag_271\n      jumpi\n        /* \"#utility.yul\":12890:12928   */\n      tag_272\n        /* \"#utility.yul\":12922:12927   */\n      dup2\n        /* \"#utility.yul\":12890:12928   */\n      tag_130\n      jump\t// in\n    tag_272:\n        /* \"#utility.yul\":12974:13003   */\n      tag_273\n        /* \"#utility.yul\":12992:13002   */\n      dup5\n        /* \"#utility.yul\":12974:13003   */\n      tag_131\n      jump\t// in\n    tag_273:\n        /* \"#utility.yul\":12964:12972   */\n      dup2\n        /* \"#utility.yul\":12960:13004   */\n      add\n        /* \"#utility.yul\":13157:13159   */\n      0x20\n        /* \"#utility.yul\":13145:13155   */\n      dup6\n        /* \"#utility.yul\":13142:13160   */\n      lt\n        /* \"#utility.yul\":13139:13188   */\n      iszero\n      tag_274\n      jumpi\n        /* \"#utility.yul\":13178:13186   */\n      dup2\n        /* \"#utility.yul\":13163:13186   */\n      swap1\n      pop\n        /* \"#utility.yul\":13139:13188   */\n    tag_274:\n        /* \"#utility.yul\":13201:13281   */\n      tag_275\n        /* \"#utility.yul\":13257:13279   */\n      tag_276\n        /* \"#utility.yul\":13275:13278   */\n      dup6\n        /* \"#utility.yul\":13257:13279   */\n      tag_131\n      jump\t// in\n    tag_276:\n        /* \"#utility.yul\":13247:13255   */\n      dup4\n        /* \"#utility.yul\":13243:13280   */\n      add\n        /* \"#utility.yul\":13230:13241   */\n      dup3\n        /* \"#utility.yul\":13201:13281   */\n      tag_140\n      jump\t// in\n    tag_275:\n        /* \"#utility.yul\":12860:13291   */\n      pop\n      pop\n        /* \"#utility.yul\":12845:13291   */\n    tag_271:\n        /* \"#utility.yul\":12755:13298   */\n      pop\n      pop\n      pop\n      jump\t// out\n        /* \"#utility.yul\":13304:13421   */\n    tag_142:\n        /* \"#utility.yul\":13358:13366   */\n      0x00\n        /* \"#utility.yul\":13408:13413   */\n      dup3\n        /* \"#utility.yul\":13402:13406   */\n      dup3\n        /* \"#utility.yul\":13398:13414   */\n      shr\n        /* \"#utility.yul\":13377:13414   */\n      swap1\n      pop\n        /* \"#utility.yul\":13304:13421   */\n      swap3\n      swap2\n      pop\n      pop\n      jump\t// out\n        /* \"#utility.yul\":13427:13596   */\n    tag_143:\n        /* \"#utility.yul\":13471:13477   */\n      0x00\n        /* \"#utility.yul\":13504:13555   */\n      tag_279\n        /* \"#utility.yul\":13552:13553   */\n      0x00\n        /* \"#utility.yul\":13548:13554   */\n      not\n        /* \"#utility.yul\":13540:13545   */\n      dup5\n        /* \"#utility.yul\":13537:13538   */\n      0x08\n        /* \"#utility.yul\":13533:13546   */\n      mul\n        /* \"#utility.yul\":13504:13555   */\n      tag_142\n      jump\t// in\n    tag_279:\n        /* \"#utility.yul\":13500:13556   */\n      not\n        /* \"#utility.yul\":13585:13589   */\n      dup1\n        /* \"#utility.yul\":13579:13583   */\n      dup4\n        /* \"#utility.yul\":13575:13590   */\n      and\n        /* \"#utility.yul\":13565:13590   */\n      swap2\n      pop\n        /* \"#utility.yul\":13478:13596   */\n      pop\n        /* \"#utility.yul\":13427:13596   */\n      swap3\n      swap2\n      pop\n      pop\n      jump\t// out\n        /* \"#utility.yul\":13601:13896   */\n    tag_144:\n        /* \"#utility.yul\":13677:13681   */\n      0x00\n        /* \"#utility.yul\":13823:13852   */\n      tag_281\n        /* \"#utility.yul\":13848:13851   */\n      dup4\n        /* \"#utility.yul\":13842:13846   */\n      dup4\n        /* \"#utility.yul\":13823:13852   */\n      tag_143\n      jump\t// in\n    tag_281:\n        /* \"#utility.yul\":13815:13852   */\n      swap2\n      pop\n        /* \"#utility.yul\":13885:13888   */\n      dup3\n        /* \"#utility.yul\":13882:13883   */\n      0x02\n        /* \"#utility.yul\":13878:13889   */\n      mul\n        /* \"#utility.yul\":13872:13876   */\n      dup3\n        /* \"#utility.yul\":13869:13890   */\n      or\n        /* \"#utility.yul\":13861:13890   */\n      swap1\n      pop\n        /* \"#utility.yul\":13601:13896   */\n      swap3\n      swap2\n      pop\n      pop\n      jump\t// out\n        /* \"#utility.yul\":13901:15304   */\n    tag_72:\n        /* \"#utility.yul\":14025:14069   */\n      tag_283\n        /* \"#utility.yul\":14065:14068   */\n      dup4\n        /* \"#utility.yul\":14060:14063   */\n      dup4\n        /* \"#utility.yul\":14025:14069   */\n      tag_128\n      jump\t// in\n    tag_283:\n        /* \"#utility.yul\":14134:14152   */\n      0xffffffffffffffff\n        /* \"#utility.yul\":14126:14132   */\n      dup2\n        /* \"#utility.yul\":14123:14153   */\n      gt\n        /* \"#utility.yul\":14120:14176   */\n      iszero\n      tag_284\n      jumpi\n        /* \"#utility.yul\":14156:14174   */\n      tag_285\n      tag_129\n      jump\t// in\n    tag_285:\n        /* \"#utility.yul\":14120:14176   */\n    tag_284:\n        /* \"#utility.yul\":14200:14238   */\n      tag_286\n        /* \"#utility.yul\":14232:14236   */\n      dup3\n        /* \"#utility.yul\":14226:14237   */\n      sload\n        /* \"#utility.yul\":14200:14238   */\n      tag_32\n      jump\t// in\n    tag_286:\n        /* \"#utility.yul\":14285:14352   */\n      tag_287\n        /* \"#utility.yul\":14345:14351   */\n      dup3\n        /* \"#utility.yul\":14337:14343   */\n      dup3\n        /* \"#utility.yul\":14331:14335   */\n      dup6\n        /* \"#utility.yul\":14285:14352   */\n      tag_141\n      jump\t// in\n    tag_287:\n        /* \"#utility.yul\":14379:14380   */\n      0x00\n        /* \"#utility.yul\":14408:14410   */\n      0x1f\n        /* \"#utility.yul\":14400:14406   */\n      dup4\n        /* \"#utility.yul\":14397:14411   */\n      gt\n        /* \"#utility.yul\":14425:14426   */\n      0x01\n        /* \"#utility.yul\":14420:15052   */\n      dup2\n      eq\n      tag_289\n      jumpi\n        /* \"#utility.yul\":15096:15097   */\n      0x00\n        /* \"#utility.yul\":15113:15119   */\n      dup5\n        /* \"#utility.yul\":15110:15194   */\n      iszero\n      tag_290\n      jumpi\n        /* \"#utility.yul\":15169:15178   */\n      dup3\n        /* \"#utility.yul\":15164:15167   */\n      dup8\n        /* \"#utility.yul\":15160:15179   */\n      add\n        /* \"#utility.yul\":15147:15180   */\n      calldataload\n        /* \"#utility.yul\":15138:15180   */\n      swap1\n      pop\n        /* \"#utility.yul\":15110:15194   */\n    tag_290:\n        /* \"#utility.yul\":15220:15287   */\n      tag_291\n        /* \"#utility.yul\":15280:15286   */\n      dup6\n        /* \"#utility.yul\":15273:15278   */\n      dup3\n        /* \"#utility.yul\":15220:15287   */\n      tag_144\n      jump\t// in\n    tag_291:\n        /* \"#utility.yul\":15214:15218   */\n      dup7\n        /* \"#utility.yul\":15207:15288   */\n      sstore\n        /* \"#utility.yul\":15069:15298   */\n      pop\n        /* \"#utility.yul\":14390:15298   */\n      jump(tag_288)\n        /* \"#utility.yul\":14420:15052   */\n    tag_289:\n        /* \"#utility.yul\":14472:14476   */\n      0x1f\n        /* \"#utility.yul\":14468:14477   */\n      not\n        /* \"#utility.yul\":14460:14466   */\n      dup5\n        /* \"#utility.yul\":14456:14478   */\n      and\n        /* \"#utility.yul\":14506:14543   */\n      tag_292\n        /* \"#utility.yul\":14538:14542   */\n      dup7\n        /* \"#utility.yul\":14506:14543   */\n      tag_130\n      jump\t// in\n    tag_292:\n        /* \"#utility.yul\":14565:14566   */\n      0x00\n        /* \"#utility.yul\":14579:14794   */\n    tag_293:\n        /* \"#utility.yul\":14593:14600   */\n      dup3\n        /* \"#utility.yul\":14590:14591   */\n      dup2\n        /* \"#utility.yul\":14587:14601   */\n      lt\n        /* \"#utility.yul\":14579:14794   */\n      iszero\n      tag_295\n      jumpi\n        /* \"#utility.yul\":14679:14688   */\n      dup5\n        /* \"#utility.yul\":14674:14677   */\n      dup10\n        /* \"#utility.yul\":14670:14689   */\n      add\n        /* \"#utility.yul\":14657:14690   */\n      calldataload\n        /* \"#utility.yul\":14649:14655   */\n      dup3\n        /* \"#utility.yul\":14642:14691   */\n      sstore\n        /* \"#utility.yul\":14730:14731   */\n      0x01\n        /* \"#utility.yul\":14722:14728   */\n      dup3\n        /* \"#utility.yul\":14718:14732   */\n      add\n        /* \"#utility.yul\":14708:14732   */\n      swap2\n      pop\n        /* \"#utility.yul\":14777:14779   */\n      0x20\n        /* \"#utility.yul\":14766:14775   */\n      dup6\n        /* \"#utility.yul\":14762:14780   */\n      add\n        /* \"#utility.yul\":14749:14780   */\n      swap5\n      pop\n        /* \"#utility.yul\":14616:14620   */\n      0x20\n        /* \"#utility.yul\":14613:14614   */\n      dup2\n        /* \"#utility.yul\":14609:14621   */\n      add\n        /* \"#utility.yul\":14604:14621   */\n      swap1\n      pop\n        /* \"#utility.yul\":14579:14794   */\n      jump(tag_293)\n    tag_295:\n        /* \"#utility.yul\":14822:14828   */\n      dup7\n        /* \"#utility.yul\":14813:14820   */\n      dup4\n        /* \"#utility.yul\":14810:14829   */\n      lt\n        /* \"#utility.yul\":14807:14993   */\n      iszero\n      tag_296\n      jumpi\n        /* \"#utility.yul\":14887:14896   */\n      dup5\n        /* \"#utility.yul\":14882:14885   */\n      dup10\n        /* \"#utility.yul\":14878:14897   */\n      add\n        /* \"#utility.yul\":14865:14898   */\n      calldataload\n        /* \"#utility.yul\":14930:14978   */\n      tag_297\n        /* \"#utility.yul\":14972:14976   */\n      0x1f\n        /* \"#utility.yul\":14964:14970   */\n      dup10\n        /* \"#utility.yul\":14960:14977   */\n      and\n        /* \"#utility.yul\":14949:14958   */\n      dup3\n        /* \"#utility.yul\":14930:14978   */\n      tag_143\n      jump\t// in\n    tag_297:\n        /* \"#utility.yul\":14922:14928   */\n      dup4\n        /* \"#utility.yul\":14915:14979   */\n      sstore\n        /* \"#utility.yul\":14830:14993   */\n      pop\n        /* \"#utility.yul\":14807:14993   */\n    tag_296:\n        /* \"#utility.yul\":15039:15040   */\n      0x01\n        /* \"#utility.yul\":15035:15036   */\n      0x02\n        /* \"#utility.yul\":15027:15033   */\n      dup9\n        /* \"#utility.yul\":15023:15037   */\n      mul\n        /* \"#utility.yul\":15019:15041   */\n      add\n        /* \"#utility.yul\":15013:15017   */\n      dup9\n        /* \"#utility.yul\":15006:15042   */\n      sstore\n        /* \"#utility.yul\":14427:15052   */\n      pop\n      pop\n      pop\n        /* \"#utility.yul\":14390:15298   */\n    tag_288:\n      pop\n        /* \"#utility.yul\":14000:15304   */\n      pop\n      pop\n      pop\n        /* \"#utility.yul\":13901:15304   */\n      pop\n      pop\n      pop\n      jump\t// out\n        /* \"#utility.yul\":15310:16705   */\n    tag_81:\n        /* \"#utility.yul\":15427:15464   */\n      tag_299\n        /* \"#utility.yul\":15460:15463   */\n      dup3\n        /* \"#utility.yul\":15427:15464   */\n      tag_110\n      jump\t// in\n    tag_299:\n        /* \"#utility.yul\":15529:15547   */\n      0xffffffffffffffff\n        /* \"#utility.yul\":15521:15527   */\n      dup2\n        /* \"#utility.yul\":15518:15548   */\n      gt\n        /* \"#utility.yul\":15515:15571   */\n      iszero\n      tag_300\n      jumpi\n        /* \"#utility.yul\":15551:15569   */\n      tag_301\n      tag_129\n      jump\t// in\n    tag_301:\n        /* \"#utility.yul\":15515:15571   */\n    tag_300:\n        /* \"#utility.yul\":15595:15633   */\n      tag_302\n        /* \"#utility.yul\":15627:15631   */\n      dup3\n        /* \"#utility.yul\":15621:15632   */\n      sload\n        /* \"#utility.yul\":15595:15633   */\n      tag_32\n      jump\t// in\n    tag_302:\n        /* \"#utility.yul\":15680:15747   */\n      tag_303\n        /* \"#utility.yul\":15740:15746   */\n      dup3\n        /* \"#utility.yul\":15732:15738   */\n      dup3\n        /* \"#utility.yul\":15726:15730   */\n      dup6\n        /* \"#utility.yul\":15680:15747   */\n      tag_141\n      jump\t// in\n    tag_303:\n        /* \"#utility.yul\":15774:15775   */\n      0x00\n        /* \"#utility.yul\":15798:15802   */\n      0x20\n        /* \"#utility.yul\":15785:15802   */\n      swap1\n      pop\n        /* \"#utility.yul\":15830:15832   */\n      0x1f\n        /* \"#utility.yul\":15822:15828   */\n      dup4\n        /* \"#utility.yul\":15819:15833   */\n      gt\n        /* \"#utility.yul\":15847:15848   */\n      0x01\n        /* \"#utility.yul\":15842:16460   */\n      dup2\n      eq\n      tag_305\n      jumpi\n        /* \"#utility.yul\":16504:16505   */\n      0x00\n        /* \"#utility.yul\":16521:16527   */\n      dup5\n        /* \"#utility.yul\":16518:16595   */\n      iszero\n      tag_306\n      jumpi\n        /* \"#utility.yul\":16570:16579   */\n      dup3\n        /* \"#utility.yul\":16565:16568   */\n      dup8\n        /* \"#utility.yul\":16561:16580   */\n      add\n        /* \"#utility.yul\":16555:16581   */\n      mload\n        /* \"#utility.yul\":16546:16581   */\n      swap1\n      pop\n        /* \"#utility.yul\":16518:16595   */\n    tag_306:\n        /* \"#utility.yul\":16621:16688   */\n      tag_307\n        /* \"#utility.yul\":16681:16687   */\n      dup6\n        /* \"#utility.yul\":16674:16679   */\n      dup3\n        /* \"#utility.yul\":16621:16688   */\n      tag_144\n      jump\t// in\n    tag_307:\n        /* \"#utility.yul\":16615:16619   */\n      dup7\n        /* \"#utility.yul\":16608:16689   */\n      sstore\n        /* \"#utility.yul\":16477:16699   */\n      pop\n        /* \"#utility.yul\":15812:16699   */\n      jump(tag_304)\n        /* \"#utility.yul\":15842:16460   */\n    tag_305:\n        /* \"#utility.yul\":15894:15898   */\n      0x1f\n        /* \"#utility.yul\":15890:15899   */\n      not\n        /* \"#utility.yul\":15882:15888   */\n      dup5\n        /* \"#utility.yul\":15878:15900   */\n      and\n        /* \"#utility.yul\":15928:15965   */\n      tag_308\n        /* \"#utility.yul\":15960:15964   */\n      dup7\n        /* \"#utility.yul\":15928:15965   */\n      tag_130\n      jump\t// in\n    tag_308:\n        /* \"#utility.yul\":15987:15988   */\n      0x00\n        /* \"#utility.yul\":16001:16209   */\n    tag_309:\n        /* \"#utility.yul\":16015:16022   */\n      dup3\n        /* \"#utility.yul\":16012:16013   */\n      dup2\n        /* \"#utility.yul\":16009:16023   */\n      lt\n        /* \"#utility.yul\":16001:16209   */\n      iszero\n      tag_311\n      jumpi\n        /* \"#utility.yul\":16094:16103   */\n      dup5\n        /* \"#utility.yul\":16089:16092   */\n      dup10\n        /* \"#utility.yul\":16085:16104   */\n      add\n        /* \"#utility.yul\":16079:16105   */\n      mload\n        /* \"#utility.yul\":16071:16077   */\n      dup3\n        /* \"#utility.yul\":16064:16106   */\n      sstore\n        /* \"#utility.yul\":16145:16146   */\n      0x01\n        /* \"#utility.yul\":16137:16143   */\n      dup3\n        /* \"#utility.yul\":16133:16147   */\n      add\n        /* \"#utility.yul\":16123:16147   */\n      swap2\n      pop\n        /* \"#utility.yul\":16192:16194   */\n      0x20\n        /* \"#utility.yul\":16181:16190   */\n      dup6\n        /* \"#utility.yul\":16177:16195   */\n      add\n        /* \"#utility.yul\":16164:16195   */\n      swap5\n      pop\n        /* \"#utility.yul\":16038:16042   */\n      0x20\n        /* \"#utility.yul\":16035:16036   */\n      dup2\n        /* \"#utility.yul\":16031:16043   */\n      add\n        /* \"#utility.yul\":16026:16043   */\n      swap1\n      pop\n        /* \"#utility.yul\":16001:16209   */\n      jump(tag_309)\n    tag_311:\n        /* \"#utility.yul\":16237:16243   */\n      dup7\n        /* \"#utility.yul\":16228:16235   */\n      dup4\n        /* \"#utility.yul\":16225:16244   */\n      lt\n        /* \"#utility.yul\":16222:16401   */\n      iszero\n      tag_312\n      jumpi\n        /* \"#utility.yul\":16295:16304   */\n      dup5\n        /* \"#utility.yul\":16290:16293   */\n      dup10\n        /* \"#utility.yul\":16286:16305   */\n      add\n        /* \"#utility.yul\":16280:16306   */\n      mload\n        /* \"#utility.yul\":16338:16386   */\n      tag_313\n        /* \"#utility.yul\":16380:16384   */\n      0x1f\n        /* \"#utility.yul\":16372:16378   */\n      dup10\n        /* \"#utility.yul\":16368:16385   */\n      and\n        /* \"#utility.yul\":16357:16366   */\n      dup3\n        /* \"#utility.yul\":16338:16386   */\n      tag_143\n      jump\t// in\n    tag_313:\n        /* \"#utility.yul\":16330:16336   */\n      dup4\n        /* \"#utility.yul\":16323:16387   */\n      sstore\n        /* \"#utility.yul\":16245:16401   */\n      pop\n        /* \"#utility.yul\":16222:16401   */\n    tag_312:\n        /* \"#utility.yul\":16447:16448   */\n      0x01\n        /* \"#utility.yul\":16443:16444   */\n      0x02\n        /* \"#utility.yul\":16435:16441   */\n      dup9\n        /* \"#utility.yul\":16431:16445   */\n      mul\n        /* \"#utility.yul\":16427:16449   */\n      add\n        /* \"#utility.yul\":16421:16425   */\n      dup9\n        /* \"#utility.yul\":16414:16450   */\n      sstore\n        /* \"#utility.yul\":15849:16460   */\n      pop\n      pop\n      pop\n        /* \"#utility.yul\":15812:16699   */\n    tag_304:\n      pop\n        /* \"#utility.yul\":15402:16705   */\n      pop\n      pop\n      pop\n        /* \"#utility.yul\":15310:16705   */\n      pop\n      pop\n      jump\t// out\n\n    auxdata: 0xa2646970667358221220277621c4ab5f24758ea86ca763328bab5fc6aa96e24c66cb33ded52ae64baafc64736f6c634300081e0033\n}\n",
				"bytecode": {
					"linkReferences": {},
					"object": "6080604052348015600e575f5ffd5b5061119e8061001c5f395ff3fe608060405234801561000f575f5ffd5b5060043610610055575f3560e01c80632698286c14610059578063341fa05d146100895780634cd1ed3d146100a75780636dcb7896146100c3578063d2d50bd8146100cd575b5f5ffd5b610073600480360381019061006e9190610949565b6100e9565b6040516100809190610b25565b60405180910390f35b61009161033a565b60405161009e9190610b25565b60405180910390f35b6100c160048036038101906100bc9190610bd0565b610589565b005b6100cb610635565b005b6100e760048036038101906100e29190610ca7565b61067e565b005b60605f5f8373ffffffffffffffffffffffffffffffffffffffff1673ffffffffffffffffffffffffffffffffffffffff1681526020019081526020015f20805480602002602001604051908101604052809291908181526020015f905b8282101561032f578382905f5260205f2090600402016040518060800160405290815f8201805461017690610d98565b80601f01602080910402602001604051908101604052809291908181526020018280546101a290610d98565b80156101ed5780601f106101c4576101008083540402835291602001916101ed565b820191905f5260205f20905b8154815290600101906020018083116101d057829003601f168201915b5050505050815260200160018201805461020690610d98565b80601f016020809104026020016040519081016040528092919081815260200182805461023290610d98565b801561027d5780601f106102545761010080835404028352916020019161027d565b820191905f5260205f20905b81548152906001019060200180831161026057829003601f168201915b5050505050815260200160028201805461029690610d98565b80601f01602080910402602001604051908101604052809291908181526020018280546102c290610d98565b801561030d5780601f106102e45761010080835404028352916020019161030d565b820191905f5260205f20905b8154815290600101906020018083116102f057829003601f168201915b5050505050815260200160038201548152505081526020019060010190610146565b505050509050919050565b60605f5f3373ffffffffffffffffffffffffffffffffffffffff1673ffffffffffffffffffffffffffffffffffffffff1681526020019081526020015f20805480602002602001604051908101604052809291908181526020015f905b82821015610580578382905f5260205f2090600402016040518060800160405290815f820180546103c790610d98565b80601f01602080910402602001604051908101604052809291908181526020018280546103f390610d98565b801561043e5780601f106104155761010080835404028352916020019161043e565b820191905f5260205f20905b81548152906001019060200180831161042157829003601f168201915b5050505050815260200160018201805461045790610d98565b80601f016020809104026020016040519081016040528092919081815260200182805461048390610d98565b80156104ce5780601f106104a5576101008083540402835291602001916104ce565b820191905f5260205f20905b8154815290600101906020018083116104b157829003601f168201915b505050505081526020016002820180546104e790610d98565b80601f016020809104026020016040519081016040528092919081815260200182805461051390610d98565b801561055e5780601f106105355761010080835404028352916020019161055e565b820191905f5260205f20905b81548152906001019060200180831161054157829003601f168201915b5050505050815260200160038201548152505081526020019060010190610397565b50505050905090565b5f5f5f3373ffffffffffffffffffffffffffffffffffffffff1673ffffffffffffffffffffffffffffffffffffffff1681526020019081526020015f2089815481106105d8576105d7610dc8565b5b905f5260205f20906004020190508787825f0191826105f8929190610fcc565b50858582600101918261060c929190610fcc565b508383826002019182610620929190610fcc565b50818160030181905550505050505050505050565b5f5f3373ffffffffffffffffffffffffffffffffffffffff1673ffffffffffffffffffffffffffffffffffffffff1681526020019081526020015f205f61067c9190610824565b565b5f604051806080016040528089898080601f0160208091040260200160405190810160405280939291908181526020018383808284375f81840152601f19601f82011690508083019250505050505050815260200187878080601f0160208091040260200160405190810160405280939291908181526020018383808284375f81840152601f19601f82011690508083019250505050505050815260200185858080601f0160208091040260200160405190810160405280939291908181526020018383808284375f81840152601f19601f8201169050808301925050505050505081526020018381525090505f5f3373ffffffffffffffffffffffffffffffffffffffff1673ffffffffffffffffffffffffffffffffffffffff1681526020019081526020015f2081908060018154018082558091505060019003905f5260205f2090600402015f909190919091505f820151815f0190816107e19190611099565b5060208201518160010190816107f79190611099565b50604082015181600201908161080d9190611099565b506060820151816003015550505050505050505050565b5080545f8255600402905f5260205f20908101906108429190610845565b50565b5b8082111561088b575f5f82015f61085d919061088f565b600182015f61086c919061088f565b600282015f61087b919061088f565b600382015f905550600401610846565b5090565b50805461089b90610d98565b5f825580601f106108ac57506108c9565b601f0160209004905f5260205f20908101906108c891906108cc565b5b50565b5b808211156108e3575f815f9055506001016108cd565b5090565b5f5ffd5b5f5ffd5b5f73ffffffffffffffffffffffffffffffffffffffff82169050919050565b5f610918826108ef565b9050919050565b6109288161090e565b8114610932575f5ffd5b50565b5f813590506109438161091f565b92915050565b5f6020828403121561095e5761095d6108e7565b5b5f61096b84828501610935565b91505092915050565b5f81519050919050565b5f82825260208201905092915050565b5f819050602082019050919050565b5f81519050919050565b5f82825260208201905092915050565b8281835e5f83830152505050565b5f601f19601f8301169050919050565b5f6109df8261099d565b6109e981856109a7565b93506109f98185602086016109b7565b610a02816109c5565b840191505092915050565b5f819050919050565b610a1f81610a0d565b82525050565b5f608083015f8301518482035f860152610a3f82826109d5565b91505060208301518482036020860152610a5982826109d5565b91505060408301518482036040860152610a7382826109d5565b9150506060830151610a886060860182610a16565b508091505092915050565b5f610a9e8383610a25565b905092915050565b5f602082019050919050565b5f610abc82610974565b610ac6818561097e565b935083602082028501610ad88561098e565b805f5b85811015610b135784840389528151610af48582610a93565b9450610aff83610aa6565b925060208a01995050600181019050610adb565b50829750879550505050505092915050565b5f6020820190508181035f830152610b3d8184610ab2565b905092915050565b610b4e81610a0d565b8114610b58575f5ffd5b50565b5f81359050610b6981610b45565b92915050565b5f5ffd5b5f5ffd5b5f5ffd5b5f5f83601f840112610b9057610b8f610b6f565b5b8235905067ffffffffffffffff811115610bad57610bac610b73565b5b602083019150836001820283011115610bc957610bc8610b77565b5b9250929050565b5f5f5f5f5f5f5f5f60a0898b031215610bec57610beb6108e7565b5b5f610bf98b828c01610b5b565b985050602089013567ffffffffffffffff811115610c1a57610c196108eb565b5b610c268b828c01610b7b565b9750975050604089013567ffffffffffffffff811115610c4957610c486108eb565b5b610c558b828c01610b7b565b9550955050606089013567ffffffffffffffff811115610c7857610c776108eb565b5b610c848b828c01610b7b565b93509350506080610c978b828c01610b5b565b9150509295985092959890939650565b5f5f5f5f5f5f5f6080888a031215610cc257610cc16108e7565b5b5f88013567ffffffffffffffff811115610cdf57610cde6108eb565b5b610ceb8a828b01610b7b565b9750975050602088013567ffffffffffffffff811115610d0e57610d0d6108eb565b5b610d1a8a828b01610b7b565b9550955050604088013567ffffffffffffffff811115610d3d57610d3c6108eb565b5b610d498a828b01610b7b565b93509350506060610d5c8a828b01610b5b565b91505092959891949750929550565b7f4e487b71000000000000000000000000000000000000000000000000000000005f52602260045260245ffd5b5f6002820490506001821680610daf57607f821691505b602082108103610dc257610dc1610d6b565b5b50919050565b7f4e487b71000000000000000000000000000000000000000000000000000000005f52603260045260245ffd5b5f82905092915050565b7f4e487b71000000000000000000000000000000000000000000000000000000005f52604160045260245ffd5b5f819050815f5260205f209050919050565b5f6020601f8301049050919050565b5f82821b905092915050565b5f60088302610e887fffffffffffffffffffffffffffffffffffffffffffffffffffffffffffffffff82610e4d565b610e928683610e4d565b95508019841693508086168417925050509392505050565b5f819050919050565b5f610ecd610ec8610ec384610a0d565b610eaa565b610a0d565b9050919050565b5f819050919050565b610ee683610eb3565b610efa610ef282610ed4565b848454610e59565b825550505050565b5f5f905090565b610f11610f02565b610f1c818484610edd565b505050565b5b81811015610f3f57610f345f82610f09565b600181019050610f22565b5050565b601f821115610f8457610f5581610e2c565b610f5e84610e3e565b81016020851015610f6d578190505b610f81610f7985610e3e565b830182610f21565b50505b505050565b5f82821c905092915050565b5f610fa45f1984600802610f89565b1980831691505092915050565b5f610fbc8383610f95565b9150826002028217905092915050565b610fd68383610df5565b67ffffffffffffffff811115610fef57610fee610dff565b5b610ff98254610d98565b611004828285610f43565b5f601f831160018114611031575f841561101f578287013590505b6110298582610fb1565b865550611090565b601f19841661103f86610e2c565b5f5b8281101561106657848901358255600182019150602085019450602081019050611041565b86831015611083578489013561107f601f891682610f95565b8355505b6001600288020188555050505b50505050505050565b6110a28261099d565b67ffffffffffffffff8111156110bb576110ba610dff565b5b6110c58254610d98565b6110d0828285610f43565b5f60209050601f831160018114611101575f84156110ef578287015190505b6110f98582610fb1565b865550611160565b601f19841661110f86610e2c565b5f5b8281101561113657848901518255600182019150602085019450602081019050611111565b86831015611153578489015161114f601f891682610f95565b8355505b6001600288020188555050505b50505050505056fea2646970667358221220277621c4ab5f24758ea86ca763328bab5fc6aa96e24c66cb33ded52ae64baafc64736f6c634300081e0033",
					"opcodes": "PUSH1 0x80 PUSH1 0x40 MSTORE CALLVALUE DUP1 ISZERO PUSH1 0xE JUMPI PUSH0 PUSH0 REVERT JUMPDEST POP PUSH2 0x119E DUP1 PUSH2 0x1C PUSH0 CODECOPY PUSH0 RETURN INVALID PUSH1 0x80 PUSH1 0x40 MSTORE CALLVALUE DUP1 ISZERO PUSH2 0xF JUMPI PUSH0 PUSH0 REVERT JUMPDEST POP PUSH1 0x4 CALLDATASIZE LT PUSH2 0x55 JUMPI PUSH0 CALLDATALOAD PUSH1 0xE0 SHR DUP1 PUSH4 0x2698286C EQ PUSH2 0x59 JUMPI DUP1 PUSH4 0x341FA05D EQ PUSH2 0x89 JUMPI DUP1 PUSH4 0x4CD1ED3D EQ PUSH2 0xA7 JUMPI DUP1 PUSH4 0x6DCB7896 EQ PUSH2 0xC3 JUMPI DUP1 PUSH4 0xD2D50BD8 EQ PUSH2 0xCD JUMPI JUMPDEST PUSH0 PUSH0 REVERT JUMPDEST PUSH2 0x73 PUSH1 0x4 DUP1 CALLDATASIZE SUB DUP2 ADD SWAP1 PUSH2 0x6E SWAP2 SWAP1 PUSH2 0x949 JUMP JUMPDEST PUSH2 0xE9 JUMP JUMPDEST PUSH1 0x40 MLOAD PUSH2 0x80 SWAP2 SWAP1 PUSH2 0xB25 JUMP JUMPDEST PUSH1 0x40 MLOAD DUP1 SWAP2 SUB SWAP1 RETURN JUMPDEST PUSH2 0x91 PUSH2 0x33A JUMP JUMPDEST PUSH1 0x40 MLOAD PUSH2 0x9E SWAP2 SWAP1 PUSH2 0xB25 JUMP JUMPDEST PUSH1 0x40 MLOAD DUP1 SWAP2 SUB SWAP1 RETURN JUMPDEST PUSH2 0xC1 PUSH1 0x4 DUP1 CALLDATASIZE SUB DUP2 ADD SWAP1 PUSH2 0xBC SWAP2 SWAP1 PUSH2 0xBD0 JUMP JUMPDEST PUSH2 0x589 JUMP JUMPDEST STOP JUMPDEST PUSH2 0xCB PUSH2 0x635 JUMP JUMPDEST STOP JUMPDEST PUSH2 0xE7 PUSH1 0x4 DUP1 CALLDATASIZE SUB DUP2 ADD SWAP1 PUSH2 0xE2 SWAP2 SWAP1 PUSH2 0xCA7 JUMP JUMPDEST PUSH2 0x67E JUMP JUMPDEST STOP JUMPDEST PUSH1 0x60 PUSH0 PUSH0 DUP4 PUSH20 0xFFFFFFFFFFFFFFFFFFFFFFFFFFFFFFFFFFFFFFFF AND PUSH20 0xFFFFFFFFFFFFFFFFFFFFFFFFFFFFFFFFFFFFFFFF AND DUP2 MSTORE PUSH1 0x20 ADD SWAP1 DUP2 MSTORE PUSH1 0x20 ADD PUSH0 KECCAK256 DUP1 SLOAD DUP1 PUSH1 0x20 MUL PUSH1 0x20 ADD PUSH1 0x40 MLOAD SWAP1 DUP2 ADD PUSH1 0x40 MSTORE DUP1 SWAP3 SWAP2 SWAP1 DUP2 DUP2 MSTORE PUSH1 0x20 ADD PUSH0 SWAP1 JUMPDEST DUP3 DUP3 LT ISZERO PUSH2 0x32F JUMPI DUP4 DUP3 SWAP1 PUSH0 MSTORE PUSH1 0x20 PUSH0 KECCAK256 SWAP1 PUSH1 0x4 MUL ADD PUSH1 0x40 MLOAD DUP1 PUSH1 0x80 ADD PUSH1 0x40 MSTORE SWAP1 DUP2 PUSH0 DUP3 ADD DUP1 SLOAD PUSH2 0x176 SWAP1 PUSH2 0xD98 JUMP JUMPDEST DUP1 PUSH1 0x1F ADD PUSH1 0x20 DUP1 SWAP2 DIV MUL PUSH1 0x20 ADD PUSH1 0x40 MLOAD SWAP1 DUP2 ADD PUSH1 0x40 MSTORE DUP1 SWAP3 SWAP2 SWAP1 DUP2 DUP2 MSTORE PUSH1 0x20 ADD DUP3 DUP1 SLOAD PUSH2 0x1A2 SWAP1 PUSH2 0xD98 JUMP JUMPDEST DUP1 ISZERO PUSH2 0x1ED JUMPI DUP1 PUSH1 0x1F LT PUSH2 0x1C4 JUMPI PUSH2 0x100 DUP1 DUP4 SLOAD DIV MUL DUP4 MSTORE SWAP2 PUSH1 0x20 ADD SWAP2 PUSH2 0x1ED JUMP JUMPDEST DUP3 ADD SWAP2 SWAP1 PUSH0 MSTORE PUSH1 0x20 PUSH0 KECCAK256 SWAP1 JUMPDEST DUP2 SLOAD DUP2 MSTORE SWAP1 PUSH1 0x1 ADD SWAP1 PUSH1 0x20 ADD DUP1 DUP4 GT PUSH2 0x1D0 JUMPI DUP3 SWAP1 SUB PUSH1 0x1F AND DUP3 ADD SWAP2 JUMPDEST POP POP POP POP POP DUP2 MSTORE PUSH1 0x20 ADD PUSH1 0x1 DUP3 ADD DUP1 SLOAD PUSH2 0x206 SWAP1 PUSH2 0xD98 JUMP JUMPDEST DUP1 PUSH1 0x1F ADD PUSH1 0x20 DUP1 SWAP2 DIV MUL PUSH1 0x20 ADD PUSH1 0x40 MLOAD SWAP1 DUP2 ADD PUSH1 0x40 MSTORE DUP1 SWAP3 SWAP2 SWAP1 DUP2 DUP2 MSTORE PUSH1 0x20 ADD DUP3 DUP1 SLOAD PUSH2 0x232 SWAP1 PUSH2 0xD98 JUMP JUMPDEST DUP1 ISZERO PUSH2 0x27D JUMPI DUP1 PUSH1 0x1F LT PUSH2 0x254 JUMPI PUSH2 0x100 DUP1 DUP4 SLOAD DIV MUL DUP4 MSTORE SWAP2 PUSH1 0x20 ADD SWAP2 PUSH2 0x27D JUMP JUMPDEST DUP3 ADD SWAP2 SWAP1 PUSH0 MSTORE PUSH1 0x20 PUSH0 KECCAK256 SWAP1 JUMPDEST DUP2 SLOAD DUP2 MSTORE SWAP1 PUSH1 0x1 ADD SWAP1 PUSH1 0x20 ADD DUP1 DUP4 GT PUSH2 0x260 JUMPI DUP3 SWAP1 SUB PUSH1 0x1F AND DUP3 ADD SWAP2 JUMPDEST POP POP POP POP POP DUP2 MSTORE PUSH1 0x20 ADD PUSH1 0x2 DUP3 ADD DUP1 SLOAD PUSH2 0x296 SWAP1 PUSH2 0xD98 JUMP JUMPDEST DUP1 PUSH1 0x1F ADD PUSH1 0x20 DUP1 SWAP2 DIV MUL PUSH1 0x20 ADD PUSH1 0x40 MLOAD SWAP1 DUP2 ADD PUSH1 0x40 MSTORE DUP1 SWAP3 SWAP2 SWAP1 DUP2 DUP2 MSTORE PUSH1 0x20 ADD DUP3 DUP1 SLOAD PUSH2 0x2C2 SWAP1 PUSH2 0xD98 JUMP JUMPDEST DUP1 ISZERO PUSH2 0x30D JUMPI DUP1 PUSH1 0x1F LT PUSH2 0x2E4 JUMPI PUSH2 0x100 DUP1 DUP4 SLOAD DIV MUL DUP4 MSTORE SWAP2 PUSH1 0x20 ADD SWAP2 PUSH2 0x30D JUMP JUMPDEST DUP3 ADD SWAP2 SWAP1 PUSH0 MSTORE PUSH1 0x20 PUSH0 KECCAK256 SWAP1 JUMPDEST DUP2 SLOAD DUP2 MSTORE SWAP1 PUSH1 0x1 ADD SWAP1 PUSH1 0x20 ADD DUP1 DUP4 GT PUSH2 0x2F0 JUMPI DUP3 SWAP1 SUB PUSH1 0x1F AND DUP3 ADD SWAP2 JUMPDEST POP POP POP POP POP DUP2 MSTORE PUSH1 0x20 ADD PUSH1 0x3 DUP3 ADD SLOAD DUP2 MSTORE POP POP DUP2 MSTORE PUSH1 0x20 ADD SWAP1 PUSH1 0x1 ADD SWAP1 PUSH2 0x146 JUMP JUMPDEST POP POP POP POP SWAP1 POP SWAP2 SWAP1 POP JUMP JUMPDEST PUSH1 0x60 PUSH0 PUSH0 CALLER PUSH20 0xFFFFFFFFFFFFFFFFFFFFFFFFFFFFFFFFFFFFFFFF AND PUSH20 0xFFFFFFFFFFFFFFFFFFFFFFFFFFFFFFFFFFFFFFFF AND DUP2 MSTORE PUSH1 0x20 ADD SWAP1 DUP2 MSTORE PUSH1 0x20 ADD PUSH0 KECCAK256 DUP1 SLOAD DUP1 PUSH1 0x20 MUL PUSH1 0x20 ADD PUSH1 0x40 MLOAD SWAP1 DUP2 ADD PUSH1 0x40 MSTORE DUP1 SWAP3 SWAP2 SWAP1 DUP2 DUP2 MSTORE PUSH1 0x20 ADD PUSH0 SWAP1 JUMPDEST DUP3 DUP3 LT ISZERO PUSH2 0x580 JUMPI DUP4 DUP3 SWAP1 PUSH0 MSTORE PUSH1 0x20 PUSH0 KECCAK256 SWAP1 PUSH1 0x4 MUL ADD PUSH1 0x40 MLOAD DUP1 PUSH1 0x80 ADD PUSH1 0x40 MSTORE SWAP1 DUP2 PUSH0 DUP3 ADD DUP1 SLOAD PUSH2 0x3C7 SWAP1 PUSH2 0xD98 JUMP JUMPDEST DUP1 PUSH1 0x1F ADD PUSH1 0x20 DUP1 SWAP2 DIV MUL PUSH1 0x20 ADD PUSH1 0x40 MLOAD SWAP1 DUP2 ADD PUSH1 0x40 MSTORE DUP1 SWAP3 SWAP2 SWAP1 DUP2 DUP2 MSTORE PUSH1 0x20 ADD DUP3 DUP1 SLOAD PUSH2 0x3F3 SWAP1 PUSH2 0xD98 JUMP JUMPDEST DUP1 ISZERO PUSH2 0x43E JUMPI DUP1 PUSH1 0x1F LT PUSH2 0x415 JUMPI PUSH2 0x100 DUP1 DUP4 SLOAD DIV MUL DUP4 MSTORE SWAP2 PUSH1 0x20 ADD SWAP2 PUSH2 0x43E JUMP JUMPDEST DUP3 ADD SWAP2 SWAP1 PUSH0 MSTORE PUSH1 0x20 PUSH0 KECCAK256 SWAP1 JUMPDEST DUP2 SLOAD DUP2 MSTORE SWAP1 PUSH1 0x1 ADD SWAP1 PUSH1 0x20 ADD DUP1 DUP4 GT PUSH2 0x421 JUMPI DUP3 SWAP1 SUB PUSH1 0x1F AND DUP3 ADD SWAP2 JUMPDEST POP POP POP POP POP DUP2 MSTORE PUSH1 0x20 ADD PUSH1 0x1 DUP3 ADD DUP1 SLOAD PUSH2 0x457 SWAP1 PUSH2 0xD98 JUMP JUMPDEST DUP1 PUSH1 0x1F ADD PUSH1 0x20 DUP1 SWAP2 DIV MUL PUSH1 0x20 ADD PUSH1 0x40 MLOAD SWAP1 DUP2 ADD PUSH1 0x40 MSTORE DUP1 SWAP3 SWAP2 SWAP1 DUP2 DUP2 MSTORE PUSH1 0x20 ADD DUP3 DUP1 SLOAD PUSH2 0x483 SWAP1 PUSH2 0xD98 JUMP JUMPDEST DUP1 ISZERO PUSH2 0x4CE JUMPI DUP1 PUSH1 0x1F LT PUSH2 0x4A5 JUMPI PUSH2 0x100 DUP1 DUP4 SLOAD DIV MUL DUP4 MSTORE SWAP2 PUSH1 0x20 ADD SWAP2 PUSH2 0x4CE JUMP JUMPDEST DUP3 ADD SWAP2 SWAP1 PUSH0 MSTORE PUSH1 0x20 PUSH0 KECCAK256 SWAP1 JUMPDEST DUP2 SLOAD DUP2 MSTORE SWAP1 PUSH1 0x1 ADD SWAP1 PUSH1 0x20 ADD DUP1 DUP4 GT PUSH2 0x4B1 JUMPI DUP3 SWAP1 SUB PUSH1 0x1F AND DUP3 ADD SWAP2 JUMPDEST POP POP POP POP POP DUP2 MSTORE PUSH1 0x20 ADD PUSH1 0x2 DUP3 ADD DUP1 SLOAD PUSH2 0x4E7 SWAP1 PUSH2 0xD98 JUMP JUMPDEST DUP1 PUSH1 0x1F ADD PUSH1 0x20 DUP1 SWAP2 DIV MUL PUSH1 0x20 ADD PUSH1 0x40 MLOAD SWAP1 DUP2 ADD PUSH1 0x40 MSTORE DUP1 SWAP3 SWAP2 SWAP1 DUP2 DUP2 MSTORE PUSH1 0x20 ADD DUP3 DUP1 SLOAD PUSH2 0x513 SWAP1 PUSH2 0xD98 JUMP JUMPDEST DUP1 ISZERO PUSH2 0x55E JUMPI DUP1 PUSH1 0x1F LT PUSH2 0x535 JUMPI PUSH2 0x100 DUP1 DUP4 SLOAD DIV MUL DUP4 MSTORE SWAP2 PUSH1 0x20 ADD SWAP2 PUSH2 0x55E JUMP JUMPDEST DUP3 ADD SWAP2 SWAP1 PUSH0 MSTORE PUSH1 0x20 PUSH0 KECCAK256 SWAP1 JUMPDEST DUP2 SLOAD DUP2 MSTORE SWAP1 PUSH1 0x1 ADD SWAP1 PUSH1 0x20 ADD DUP1 DUP4 GT PUSH2 0x541 JUMPI DUP3 SWAP1 SUB PUSH1 0x1F AND DUP3 ADD SWAP2 JUMPDEST POP POP POP POP POP DUP2 MSTORE PUSH1 0x20 ADD PUSH1 0x3 DUP3 ADD SLOAD DUP2 MSTORE POP POP DUP2 MSTORE PUSH1 0x20 ADD SWAP1 PUSH1 0x1 ADD SWAP1 PUSH2 0x397 JUMP JUMPDEST POP POP POP POP SWAP1 POP SWAP1 JUMP JUMPDEST PUSH0 PUSH0 PUSH0 CALLER PUSH20 0xFFFFFFFFFFFFFFFFFFFFFFFFFFFFFFFFFFFFFFFF AND PUSH20 0xFFFFFFFFFFFFFFFFFFFFFFFFFFFFFFFFFFFFFFFF AND DUP2 MSTORE PUSH1 0x20 ADD SWAP1 DUP2 MSTORE PUSH1 0x20 ADD PUSH0 KECCAK256 DUP10 DUP2 SLOAD DUP2 LT PUSH2 0x5D8 JUMPI PUSH2 0x5D7 PUSH2 0xDC8 JUMP JUMPDEST JUMPDEST SWAP1 PUSH0 MSTORE PUSH1 0x20 PUSH0 KECCAK256 SWAP1 PUSH1 0x4 MUL ADD SWAP1 POP DUP8 DUP8 DUP3 PUSH0 ADD SWAP2 DUP3 PUSH2 0x5F8 SWAP3 SWAP2 SWAP1 PUSH2 0xFCC JUMP JUMPDEST POP DUP6 DUP6 DUP3 PUSH1 0x1 ADD SWAP2 DUP3 PUSH2 0x60C SWAP3 SWAP2 SWAP1 PUSH2 0xFCC JUMP JUMPDEST POP DUP4 DUP4 DUP3 PUSH1 0x2 ADD SWAP2 DUP3 PUSH2 0x620 SWAP3 SWAP2 SWAP1 PUSH2 0xFCC JUMP JUMPDEST POP DUP2 DUP2 PUSH1 0x3 ADD DUP2 SWAP1 SSTORE POP POP POP POP POP POP POP POP POP POP JUMP JUMPDEST PUSH0 PUSH0 CALLER PUSH20 0xFFFFFFFFFFFFFFFFFFFFFFFFFFFFFFFFFFFFFFFF AND PUSH20 0xFFFFFFFFFFFFFFFFFFFFFFFFFFFFFFFFFFFFFFFF AND DUP2 MSTORE PUSH1 0x20 ADD SWAP1 DUP2 MSTORE PUSH1 0x20 ADD PUSH0 KECCAK256 PUSH0 PUSH2 0x67C SWAP2 SWAP1 PUSH2 0x824 JUMP JUMPDEST JUMP JUMPDEST PUSH0 PUSH1 0x40 MLOAD DUP1 PUSH1 0x80 ADD PUSH1 0x40 MSTORE DUP1 DUP10 DUP10 DUP1 DUP1 PUSH1 0x1F ADD PUSH1 0x20 DUP1 SWAP2 DIV MUL PUSH1 0x20 ADD PUSH1 0x40 MLOAD SWAP1 DUP2 ADD PUSH1 0x40 MSTORE DUP1 SWAP4 SWAP3 SWAP2 SWAP1 DUP2 DUP2 MSTORE PUSH1 0x20 ADD DUP4 DUP4 DUP1 DUP3 DUP5 CALLDATACOPY PUSH0 DUP2 DUP5 ADD MSTORE PUSH1 0x1F NOT PUSH1 0x1F DUP3 ADD AND SWAP1 POP DUP1 DUP4 ADD SWAP3 POP POP POP POP POP POP POP DUP2 MSTORE PUSH1 0x20 ADD DUP8 DUP8 DUP1 DUP1 PUSH1 0x1F ADD PUSH1 0x20 DUP1 SWAP2 DIV MUL PUSH1 0x20 ADD PUSH1 0x40 MLOAD SWAP1 DUP2 ADD PUSH1 0x40 MSTORE DUP1 SWAP4 SWAP3 SWAP2 SWAP1 DUP2 DUP2 MSTORE PUSH1 0x20 ADD DUP4 DUP4 DUP1 DUP3 DUP5 CALLDATACOPY PUSH0 DUP2 DUP5 ADD MSTORE PUSH1 0x1F NOT PUSH1 0x1F DUP3 ADD AND SWAP1 POP DUP1 DUP4 ADD SWAP3 POP POP POP POP POP POP POP DUP2 MSTORE PUSH1 0x20 ADD DUP6 DUP6 DUP1 DUP1 PUSH1 0x1F ADD PUSH1 0x20 DUP1 SWAP2 DIV MUL PUSH1 0x20 ADD PUSH1 0x40 MLOAD SWAP1 DUP2 ADD PUSH1 0x40 MSTORE DUP1 SWAP4 SWAP3 SWAP2 SWAP1 DUP2 DUP2 MSTORE PUSH1 0x20 ADD DUP4 DUP4 DUP1 DUP3 DUP5 CALLDATACOPY PUSH0 DUP2 DUP5 ADD MSTORE PUSH1 0x1F NOT PUSH1 0x1F DUP3 ADD AND SWAP1 POP DUP1 DUP4 ADD SWAP3 POP POP POP POP POP POP POP DUP2 MSTORE PUSH1 0x20 ADD DUP4 DUP2 MSTORE POP SWAP1 POP PUSH0 PUSH0 CALLER PUSH20 0xFFFFFFFFFFFFFFFFFFFFFFFFFFFFFFFFFFFFFFFF AND PUSH20 0xFFFFFFFFFFFFFFFFFFFFFFFFFFFFFFFFFFFFFFFF AND DUP2 MSTORE PUSH1 0x20 ADD SWAP1 DUP2 MSTORE PUSH1 0x20 ADD PUSH0 KECCAK256 DUP2 SWAP1 DUP1 PUSH1 0x1 DUP2 SLOAD ADD DUP1 DUP3 SSTORE DUP1 SWAP2 POP POP PUSH1 0x1 SWAP1 SUB SWAP1 PUSH0 MSTORE PUSH1 0x20 PUSH0 KECCAK256 SWAP1 PUSH1 0x4 MUL ADD PUSH0 SWAP1 SWAP2 SWAP1 SWAP2 SWAP1 SWAP2 POP PUSH0 DUP3 ADD MLOAD DUP2 PUSH0 ADD SWAP1 DUP2 PUSH2 0x7E1 SWAP2 SWAP1 PUSH2 0x1099 JUMP JUMPDEST POP PUSH1 0x20 DUP3 ADD MLOAD DUP2 PUSH1 0x1 ADD SWAP1 DUP2 PUSH2 0x7F7 SWAP2 SWAP1 PUSH2 0x1099 JUMP JUMPDEST POP PUSH1 0x40 DUP3 ADD MLOAD DUP2 PUSH1 0x2 ADD SWAP1 DUP2 PUSH2 0x80D SWAP2 SWAP1 PUSH2 0x1099 JUMP JUMPDEST POP PUSH1 0x60 DUP3 ADD MLOAD DUP2 PUSH1 0x3 ADD SSTORE POP POP POP POP POP POP POP POP POP POP JUMP JUMPDEST POP DUP1 SLOAD PUSH0 DUP3 SSTORE PUSH1 0x4 MUL SWAP1 PUSH0 MSTORE PUSH1 0x20 PUSH0 KECCAK256 SWAP1 DUP2 ADD SWAP1 PUSH2 0x842 SWAP2 SWAP1 PUSH2 0x845 JUMP JUMPDEST POP JUMP JUMPDEST JUMPDEST DUP1 DUP3 GT ISZERO PUSH2 0x88B JUMPI PUSH0 PUSH0 DUP3 ADD PUSH0 PUSH2 0x85D SWAP2 SWAP1 PUSH2 0x88F JUMP JUMPDEST PUSH1 0x1 DUP3 ADD PUSH0 PUSH2 0x86C SWAP2 SWAP1 PUSH2 0x88F JUMP JUMPDEST PUSH1 0x2 DUP3 ADD PUSH0 PUSH2 0x87B SWAP2 SWAP1 PUSH2 0x88F JUMP JUMPDEST PUSH1 0x3 DUP3 ADD PUSH0 SWAP1 SSTORE POP PUSH1 0x4 ADD PUSH2 0x846 JUMP JUMPDEST POP SWAP1 JUMP JUMPDEST POP DUP1 SLOAD PUSH2 0x89B SWAP1 PUSH2 0xD98 JUMP JUMPDEST PUSH0 DUP3 SSTORE DUP1 PUSH1 0x1F LT PUSH2 0x8AC JUMPI POP PUSH2 0x8C9 JUMP JUMPDEST PUSH1 0x1F ADD PUSH1 0x20 SWAP1 DIV SWAP1 PUSH0 MSTORE PUSH1 0x20 PUSH0 KECCAK256 SWAP1 DUP2 ADD SWAP1 PUSH2 0x8C8 SWAP2 SWAP1 PUSH2 0x8CC JUMP JUMPDEST JUMPDEST POP JUMP JUMPDEST JUMPDEST DUP1 DUP3 GT ISZERO PUSH2 0x8E3 JUMPI PUSH0 DUP2 PUSH0 SWAP1 SSTORE POP PUSH1 0x1 ADD PUSH2 0x8CD JUMP JUMPDEST POP SWAP1 JUMP JUMPDEST PUSH0 PUSH0 REVERT JUMPDEST PUSH0 PUSH0 REVERT JUMPDEST PUSH0 PUSH20 0xFFFFFFFFFFFFFFFFFFFFFFFFFFFFFFFFFFFFFFFF DUP3 AND SWAP1 POP SWAP2 SWAP1 POP JUMP JUMPDEST PUSH0 PUSH2 0x918 DUP3 PUSH2 0x8EF JUMP JUMPDEST SWAP1 POP SWAP2 SWAP1 POP JUMP JUMPDEST PUSH2 0x928 DUP2 PUSH2 0x90E JUMP JUMPDEST DUP2 EQ PUSH2 0x932 JUMPI PUSH0 PUSH0 REVERT JUMPDEST POP JUMP JUMPDEST PUSH0 DUP2 CALLDATALOAD SWAP1 POP PUSH2 0x943 DUP2 PUSH2 0x91F JUMP JUMPDEST SWAP3 SWAP2 POP POP JUMP JUMPDEST PUSH0 PUSH1 0x20 DUP3 DUP5 SUB SLT ISZERO PUSH2 0x95E JUMPI PUSH2 0x95D PUSH2 0x8E7 JUMP JUMPDEST JUMPDEST PUSH0 PUSH2 0x96B DUP5 DUP3 DUP6 ADD PUSH2 0x935 JUMP JUMPDEST SWAP2 POP POP SWAP3 SWAP2 POP POP JUMP JUMPDEST PUSH0 DUP2 MLOAD SWAP1 POP SWAP2 SWAP1 POP JUMP JUMPDEST PUSH0 DUP3 DUP3 MSTORE PUSH1 0x20 DUP3 ADD SWAP1 POP SWAP3 SWAP2 POP POP JUMP JUMPDEST PUSH0 DUP2 SWAP1 POP PUSH1 0x20 DUP3 ADD SWAP1 POP SWAP2 SWAP1 POP JUMP JUMPDEST PUSH0 DUP2 MLOAD SWAP1 POP SWAP2 SWAP1 POP JUMP JUMPDEST PUSH0 DUP3 DUP3 MSTORE PUSH1 0x20 DUP3 ADD SWAP1 POP SWAP3 SWAP2 POP POP JUMP JUMPDEST DUP3 DUP2 DUP4 MCOPY PUSH0 DUP4 DUP4 ADD MSTORE POP POP POP JUMP JUMPDEST PUSH0 PUSH1 0x1F NOT PUSH1 0x1F DUP4 ADD AND SWAP1 POP SWAP2 SWAP1 POP JUMP JUMPDEST PUSH0 PUSH2 0x9DF DUP3 PUSH2 0x99D JUMP JUMPDEST PUSH2 0x9E9 DUP2 DUP6 PUSH2 0x9A7 JUMP JUMPDEST SWAP4 POP PUSH2 0x9F9 DUP2 DUP6 PUSH1 0x20 DUP7 ADD PUSH2 0x9B7 JUMP JUMPDEST PUSH2 0xA02 DUP2 PUSH2 0x9C5 JUMP JUMPDEST DUP5 ADD SWAP2 POP POP SWAP3 SWAP2 POP POP JUMP JUMPDEST PUSH0 DUP2 SWAP1 POP SWAP2 SWAP1 POP JUMP JUMPDEST PUSH2 0xA1F DUP2 PUSH2 0xA0D JUMP JUMPDEST DUP3 MSTORE POP POP JUMP JUMPDEST PUSH0 PUSH1 0x80 DUP4 ADD PUSH0 DUP4 ADD MLOAD DUP5 DUP3 SUB PUSH0 DUP7 ADD MSTORE PUSH2 0xA3F DUP3 DUP3 PUSH2 0x9D5 JUMP JUMPDEST SWAP2 POP POP PUSH1 0x20 DUP4 ADD MLOAD DUP5 DUP3 SUB PUSH1 0x20 DUP7 ADD MSTORE PUSH2 0xA59 DUP3 DUP3 PUSH2 0x9D5 JUMP JUMPDEST SWAP2 POP POP PUSH1 0x40 DUP4 ADD MLOAD DUP5 DUP3 SUB PUSH1 0x40 DUP7 ADD MSTORE PUSH2 0xA73 DUP3 DUP3 PUSH2 0x9D5 JUMP JUMPDEST SWAP2 POP POP PUSH1 0x60 DUP4 ADD MLOAD PUSH2 0xA88 PUSH1 0x60 DUP7 ADD DUP3 PUSH2 0xA16 JUMP JUMPDEST POP DUP1 SWAP2 POP POP SWAP3 SWAP2 POP POP JUMP JUMPDEST PUSH0 PUSH2 0xA9E DUP4 DUP4 PUSH2 0xA25 JUMP JUMPDEST SWAP1 POP SWAP3 SWAP2 POP POP JUMP JUMPDEST PUSH0 PUSH1 0x20 DUP3 ADD SWAP1 POP SWAP2 SWAP1 POP JUMP JUMPDEST PUSH0 PUSH2 0xABC DUP3 PUSH2 0x974 JUMP JUMPDEST PUSH2 0xAC6 DUP2 DUP6 PUSH2 0x97E JUMP JUMPDEST SWAP4 POP DUP4 PUSH1 0x20 DUP3 MUL DUP6 ADD PUSH2 0xAD8 DUP6 PUSH2 0x98E JUMP JUMPDEST DUP1 PUSH0 JUMPDEST DUP6 DUP2 LT ISZERO PUSH2 0xB13 JUMPI DUP5 DUP5 SUB DUP10 MSTORE DUP2 MLOAD PUSH2 0xAF4 DUP6 DUP3 PUSH2 0xA93 JUMP JUMPDEST SWAP5 POP PUSH2 0xAFF DUP4 PUSH2 0xAA6 JUMP JUMPDEST SWAP3 POP PUSH1 0x20 DUP11 ADD SWAP10 POP POP PUSH1 0x1 DUP2 ADD SWAP1 POP PUSH2 0xADB JUMP JUMPDEST POP DUP3 SWAP8 POP DUP8 SWAP6 POP POP POP POP POP POP SWAP3 SWAP2 POP POP JUMP JUMPDEST PUSH0 PUSH1 0x20 DUP3 ADD SWAP1 POP DUP2 DUP2 SUB PUSH0 DUP4 ADD MSTORE PUSH2 0xB3D DUP2 DUP5 PUSH2 0xAB2 JUMP JUMPDEST SWAP1 POP SWAP3 SWAP2 POP POP JUMP JUMPDEST PUSH2 0xB4E DUP2 PUSH2 0xA0D JUMP JUMPDEST DUP2 EQ PUSH2 0xB58 JUMPI PUSH0 PUSH0 REVERT JUMPDEST POP JUMP JUMPDEST PUSH0 DUP2 CALLDATALOAD SWAP1 POP PUSH2 0xB69 DUP2 PUSH2 0xB45 JUMP JUMPDEST SWAP3 SWAP2 POP POP JUMP JUMPDEST PUSH0 PUSH0 REVERT JUMPDEST PUSH0 PUSH0 REVERT JUMPDEST PUSH0 PUSH0 REVERT JUMPDEST PUSH0 PUSH0 DUP4 PUSH1 0x1F DUP5 ADD SLT PUSH2 0xB90 JUMPI PUSH2 0xB8F PUSH2 0xB6F JUMP JUMPDEST JUMPDEST DUP3 CALLDATALOAD SWAP1 POP PUSH8 0xFFFFFFFFFFFFFFFF DUP2 GT ISZERO PUSH2 0xBAD JUMPI PUSH2 0xBAC PUSH2 0xB73 JUMP JUMPDEST JUMPDEST PUSH1 0x20 DUP4 ADD SWAP2 POP DUP4 PUSH1 0x1 DUP3 MUL DUP4 ADD GT ISZERO PUSH2 0xBC9 JUMPI PUSH2 0xBC8 PUSH2 0xB77 JUMP JUMPDEST JUMPDEST SWAP3 POP SWAP3 SWAP1 POP JUMP JUMPDEST PUSH0 PUSH0 PUSH0 PUSH0 PUSH0 PUSH0 PUSH0 PUSH0 PUSH1 0xA0 DUP10 DUP12 SUB SLT ISZERO PUSH2 0xBEC JUMPI PUSH2 0xBEB PUSH2 0x8E7 JUMP JUMPDEST JUMPDEST PUSH0 PUSH2 0xBF9 DUP12 DUP3 DUP13 ADD PUSH2 0xB5B JUMP JUMPDEST SWAP9 POP POP PUSH1 0x20 DUP10 ADD CALLDATALOAD PUSH8 0xFFFFFFFFFFFFFFFF DUP2 GT ISZERO PUSH2 0xC1A JUMPI PUSH2 0xC19 PUSH2 0x8EB JUMP JUMPDEST JUMPDEST PUSH2 0xC26 DUP12 DUP3 DUP13 ADD PUSH2 0xB7B JUMP JUMPDEST SWAP8 POP SWAP8 POP POP PUSH1 0x40 DUP10 ADD CALLDATALOAD PUSH8 0xFFFFFFFFFFFFFFFF DUP2 GT ISZERO PUSH2 0xC49 JUMPI PUSH2 0xC48 PUSH2 0x8EB JUMP JUMPDEST JUMPDEST PUSH2 0xC55 DUP12 DUP3 DUP13 ADD PUSH2 0xB7B JUMP JUMPDEST SWAP6 POP SWAP6 POP POP PUSH1 0x60 DUP10 ADD CALLDATALOAD PUSH8 0xFFFFFFFFFFFFFFFF DUP2 GT ISZERO PUSH2 0xC78 JUMPI PUSH2 0xC77 PUSH2 0x8EB JUMP JUMPDEST JUMPDEST PUSH2 0xC84 DUP12 DUP3 DUP13 ADD PUSH2 0xB7B JUMP JUMPDEST SWAP4 POP SWAP4 POP POP PUSH1 0x80 PUSH2 0xC97 DUP12 DUP3 DUP13 ADD PUSH2 0xB5B JUMP JUMPDEST SWAP2 POP POP SWAP3 SWAP6 SWAP9 POP SWAP3 SWAP6 SWAP9 SWAP1 SWAP4 SWAP7 POP JUMP JUMPDEST PUSH0 PUSH0 PUSH0 PUSH0 PUSH0 PUSH0 PUSH0 PUSH1 0x80 DUP9 DUP11 SUB SLT ISZERO PUSH2 0xCC2 JUMPI PUSH2 0xCC1 PUSH2 0x8E7 JUMP JUMPDEST JUMPDEST PUSH0 DUP9 ADD CALLDATALOAD PUSH8 0xFFFFFFFFFFFFFFFF DUP2 GT ISZERO PUSH2 0xCDF JUMPI PUSH2 0xCDE PUSH2 0x8EB JUMP JUMPDEST JUMPDEST PUSH2 0xCEB DUP11 DUP3 DUP12 ADD PUSH2 0xB7B JUMP JUMPDEST SWAP8 POP SWAP8 POP POP PUSH1 0x20 DUP9 ADD CALLDATALOAD PUSH8 0xFFFFFFFFFFFFFFFF DUP2 GT ISZERO PUSH2 0xD0E JUMPI PUSH2 0xD0D PUSH2 0x8EB JUMP JUMPDEST JUMPDEST PUSH2 0xD1A DUP11 DUP3 DUP12 ADD PUSH2 0xB7B JUMP JUMPDEST SWAP6 POP SWAP6 POP POP PUSH1 0x40 DUP9 ADD CALLDATALOAD PUSH8 0xFFFFFFFFFFFFFFFF DUP2 GT ISZERO PUSH2 0xD3D JUMPI PUSH2 0xD3C PUSH2 0x8EB JUMP JUMPDEST JUMPDEST PUSH2 0xD49 DUP11 DUP3 DUP12 ADD PUSH2 0xB7B JUMP JUMPDEST SWAP4 POP SWAP4 POP POP PUSH1 0x60 PUSH2 0xD5C DUP11 DUP3 DUP12 ADD PUSH2 0xB5B JUMP JUMPDEST SWAP2 POP POP SWAP3 SWAP6 SWAP9 SWAP2 SWAP5 SWAP8 POP SWAP3 SWAP6 POP JUMP JUMPDEST PUSH32 0x4E487B7100000000000000000000000000000000000000000000000000000000 PUSH0 MSTORE PUSH1 0x22 PUSH1 0x4 MSTORE PUSH1 0x24 PUSH0 REVERT JUMPDEST PUSH0 PUSH1 0x2 DUP3 DIV SWAP1 POP PUSH1 0x1 DUP3 AND DUP1 PUSH2 0xDAF JUMPI PUSH1 0x7F DUP3 AND SWAP2 POP JUMPDEST PUSH1 0x20 DUP3 LT DUP2 SUB PUSH2 0xDC2 JUMPI PUSH2 0xDC1 PUSH2 0xD6B JUMP JUMPDEST JUMPDEST POP SWAP2 SWAP1 POP JUMP JUMPDEST PUSH32 0x4E487B7100000000000000000000000000000000000000000000000000000000 PUSH0 MSTORE PUSH1 0x32 PUSH1 0x4 MSTORE PUSH1 0x24 PUSH0 REVERT JUMPDEST PUSH0 DUP3 SWAP1 POP SWAP3 SWAP2 POP POP JUMP JUMPDEST PUSH32 0x4E487B7100000000000000000000000000000000000000000000000000000000 PUSH0 MSTORE PUSH1 0x41 PUSH1 0x4 MSTORE PUSH1 0x24 PUSH0 REVERT JUMPDEST PUSH0 DUP2 SWAP1 POP DUP2 PUSH0 MSTORE PUSH1 0x20 PUSH0 KECCAK256 SWAP1 POP SWAP2 SWAP1 POP JUMP JUMPDEST PUSH0 PUSH1 0x20 PUSH1 0x1F DUP4 ADD DIV SWAP1 POP SWAP2 SWAP1 POP JUMP JUMPDEST PUSH0 DUP3 DUP3 SHL SWAP1 POP SWAP3 SWAP2 POP POP JUMP JUMPDEST PUSH0 PUSH1 0x8 DUP4 MUL PUSH2 0xE88 PUSH32 0xFFFFFFFFFFFFFFFFFFFFFFFFFFFFFFFFFFFFFFFFFFFFFFFFFFFFFFFFFFFFFFFF DUP3 PUSH2 0xE4D JUMP JUMPDEST PUSH2 0xE92 DUP7 DUP4 PUSH2 0xE4D JUMP JUMPDEST SWAP6 POP DUP1 NOT DUP5 AND SWAP4 POP DUP1 DUP7 AND DUP5 OR SWAP3 POP POP POP SWAP4 SWAP3 POP POP POP JUMP JUMPDEST PUSH0 DUP2 SWAP1 POP SWAP2 SWAP1 POP JUMP JUMPDEST PUSH0 PUSH2 0xECD PUSH2 0xEC8 PUSH2 0xEC3 DUP5 PUSH2 0xA0D JUMP JUMPDEST PUSH2 0xEAA JUMP JUMPDEST PUSH2 0xA0D JUMP JUMPDEST SWAP1 POP SWAP2 SWAP1 POP JUMP JUMPDEST PUSH0 DUP2 SWAP1 POP SWAP2 SWAP1 POP JUMP JUMPDEST PUSH2 0xEE6 DUP4 PUSH2 0xEB3 JUMP JUMPDEST PUSH2 0xEFA PUSH2 0xEF2 DUP3 PUSH2 0xED4 JUMP JUMPDEST DUP5 DUP5 SLOAD PUSH2 0xE59 JUMP JUMPDEST DUP3 SSTORE POP POP POP POP JUMP JUMPDEST PUSH0 PUSH0 SWAP1 POP SWAP1 JUMP JUMPDEST PUSH2 0xF11 PUSH2 0xF02 JUMP JUMPDEST PUSH2 0xF1C DUP2 DUP5 DUP5 PUSH2 0xEDD JUMP JUMPDEST POP POP POP JUMP JUMPDEST JUMPDEST DUP2 DUP2 LT ISZERO PUSH2 0xF3F JUMPI PUSH2 0xF34 PUSH0 DUP3 PUSH2 0xF09 JUMP JUMPDEST PUSH1 0x1 DUP2 ADD SWAP1 POP PUSH2 0xF22 JUMP JUMPDEST POP POP JUMP JUMPDEST PUSH1 0x1F DUP3 GT ISZERO PUSH2 0xF84 JUMPI PUSH2 0xF55 DUP2 PUSH2 0xE2C JUMP JUMPDEST PUSH2 0xF5E DUP5 PUSH2 0xE3E JUMP JUMPDEST DUP2 ADD PUSH1 0x20 DUP6 LT ISZERO PUSH2 0xF6D JUMPI DUP2 SWAP1 POP JUMPDEST PUSH2 0xF81 PUSH2 0xF79 DUP6 PUSH2 0xE3E JUMP JUMPDEST DUP4 ADD DUP3 PUSH2 0xF21 JUMP JUMPDEST POP POP JUMPDEST POP POP POP JUMP JUMPDEST PUSH0 DUP3 DUP3 SHR SWAP1 POP SWAP3 SWAP2 POP POP JUMP JUMPDEST PUSH0 PUSH2 0xFA4 PUSH0 NOT DUP5 PUSH1 0x8 MUL PUSH2 0xF89 JUMP JUMPDEST NOT DUP1 DUP4 AND SWAP2 POP POP SWAP3 SWAP2 POP POP JUMP JUMPDEST PUSH0 PUSH2 0xFBC DUP4 DUP4 PUSH2 0xF95 JUMP JUMPDEST SWAP2 POP DUP3 PUSH1 0x2 MUL DUP3 OR SWAP1 POP SWAP3 SWAP2 POP POP JUMP JUMPDEST PUSH2 0xFD6 DUP4 DUP4 PUSH2 0xDF5 JUMP JUMPDEST PUSH8 0xFFFFFFFFFFFFFFFF DUP2 GT ISZERO PUSH2 0xFEF JUMPI PUSH2 0xFEE PUSH2 0xDFF JUMP JUMPDEST JUMPDEST PUSH2 0xFF9 DUP3 SLOAD PUSH2 0xD98 JUMP JUMPDEST PUSH2 0x1004 DUP3 DUP3 DUP6 PUSH2 0xF43 JUMP JUMPDEST PUSH0 PUSH1 0x1F DUP4 GT PUSH1 0x1 DUP2 EQ PUSH2 0x1031 JUMPI PUSH0 DUP5 ISZERO PUSH2 0x101F JUMPI DUP3 DUP8 ADD CALLDATALOAD SWAP1 POP JUMPDEST PUSH2 0x1029 DUP6 DUP3 PUSH2 0xFB1 JUMP JUMPDEST DUP7 SSTORE POP PUSH2 0x1090 JUMP JUMPDEST PUSH1 0x1F NOT DUP5 AND PUSH2 0x103F DUP7 PUSH2 0xE2C JUMP JUMPDEST PUSH0 JUMPDEST DUP3 DUP2 LT ISZERO PUSH2 0x1066 JUMPI DUP5 DUP10 ADD CALLDATALOAD DUP3 SSTORE PUSH1 0x1 DUP3 ADD SWAP2 POP PUSH1 0x20 DUP6 ADD SWAP5 POP PUSH1 0x20 DUP2 ADD SWAP1 POP PUSH2 0x1041 JUMP JUMPDEST DUP7 DUP4 LT ISZERO PUSH2 0x1083 JUMPI DUP5 DUP10 ADD CALLDATALOAD PUSH2 0x107F PUSH1 0x1F DUP10 AND DUP3 PUSH2 0xF95 JUMP JUMPDEST DUP4 SSTORE POP JUMPDEST PUSH1 0x1 PUSH1 0x2 DUP9 MUL ADD DUP9 SSTORE POP POP POP JUMPDEST POP POP POP POP POP POP POP JUMP JUMPDEST PUSH2 0x10A2 DUP3 PUSH2 0x99D JUMP JUMPDEST PUSH8 0xFFFFFFFFFFFFFFFF DUP2 GT ISZERO PUSH2 0x10BB JUMPI PUSH2 0x10BA PUSH2 0xDFF JUMP JUMPDEST JUMPDEST PUSH2 0x10C5 DUP3 SLOAD PUSH2 0xD98 JUMP JUMPDEST PUSH2 0x10D0 DUP3 DUP3 DUP6 PUSH2 0xF43 JUMP JUMPDEST PUSH0 PUSH1 0x20 SWAP1 POP PUSH1 0x1F DUP4 GT PUSH1 0x1 DUP2 EQ PUSH2 0x1101 JUMPI PUSH0 DUP5 ISZERO PUSH2 0x10EF JUMPI DUP3 DUP8 ADD MLOAD SWAP1 POP JUMPDEST PUSH2 0x10F9 DUP6 DUP3 PUSH2 0xFB1 JUMP JUMPDEST DUP7 SSTORE POP PUSH2 0x1160 JUMP JUMPDEST PUSH1 0x1F NOT DUP5 AND PUSH2 0x110F DUP7 PUSH2 0xE2C JUMP JUMPDEST PUSH0 JUMPDEST DUP3 DUP2 LT ISZERO PUSH2 0x1136 JUMPI DUP5 DUP10 ADD MLOAD DUP3 SSTORE PUSH1 0x1 DUP3 ADD SWAP2 POP PUSH1 0x20 DUP6 ADD SWAP5 POP PUSH1 0x20 DUP2 ADD SWAP1 POP PUSH2 0x1111 JUMP JUMPDEST DUP7 DUP4 LT ISZERO PUSH2 0x1153 JUMPI DUP5 DUP10 ADD MLOAD PUSH2 0x114F PUSH1 0x1F DUP10 AND DUP3 PUSH2 0xF95 JUMP JUMPDEST DUP4 SSTORE POP JUMPDEST PUSH1 0x1 PUSH1 0x2 DUP9 MUL ADD DUP9 SSTORE POP POP POP JUMPDEST POP POP POP POP POP POP JUMP INVALID LOG2 PUSH5 0x6970667358 0x22 SLT KECCAK256 0x27 PUSH23 0x21C4AB5F24758EA86CA763328BAB5FC6AA96E24C66CB33 0xDE 0xD5 0x2A DUPN 0x4B 0xAA 0xFC PUSH5 0x736F6C6343 STOP ADDMOD 0x1E STOP CALLER "
				},
				"gasEstimates": {
					"creation": {
						"codeDepositCost": "902000",
						"executionCost": "933",
						"totalCost": "902933"
					},
					"external": {
						"addCar(string,string,string,uint256)": "infinite",
						"getMyCars()": "infinite",
						"getUserCars(address)": "infinite",
						"resetMyGarage()": "infinite",
						"updateCar(uint256,string,string,string,uint256)": "infinite"
					}
				},
				"methodIdentifiers": {
					"addCar(string,string,string,uint256)": "d2d50bd8",
					"getMyCars()": "341fa05d",
					"getUserCars(address)": "2698286c",
					"resetMyGarage()": "6dcb7896",
					"updateCar(uint256,string,string,string,uint256)": "4cd1ed3d"
				}
			},
			"storageLayout": {
				"storage": [
					{
						"astId": 62,
						"contract": "Role3/StrucsPin.sol:Submission",
						"label": "garages",
						"offset": 0,
						"slot": "0",
						"type": "t_mapping(t_address,t_array(t_struct(Car)10_storage)dyn_storage)"
					}
				],
				"types": {
					"t_address": {
						"encoding": "inplace",
						"label": "address",
						"numberOfBytes": "20"
					},
					"t_array(t_struct(Car)10_storage)dyn_storage": {
						"base": "t_struct(Car)10_storage",
						"encoding": "dynamic_array",
						"label": "struct ISubmission.Car[]",
						"numberOfBytes": "32"
					},
					"t_mapping(t_address,t_array(t_struct(Car)10_storage)dyn_storage)": {
						"encoding": "mapping",
						"key": "t_address",
						"label": "mapping(address => struct ISubmission.Car[])",
						"numberOfBytes": "32",
						"value": "t_array(t_struct(Car)10_storage)dyn_storage"
					},
					"t_string_storage": {
						"encoding": "bytes",
						"label": "string",
						"numberOfBytes": "32"
					},
					"t_struct(Car)10_storage": {
						"encoding": "inplace",
						"label": "struct ISubmission.Car",
						"members": [
							{
								"astId": 3,
								"contract": "Role3/StrucsPin.sol:Submission",
								"label": "make",
								"offset": 0,
								"slot": "0",
								"type": "t_string_storage"
							},
							{
								"astId": 5,
								"contract": "Role3/StrucsPin.sol:Submission",
								"label": "model",
								"offset": 0,
								"slot": "1",
								"type": "t_string_storage"
							},
							{
								"astId": 7,
								"contract": "Role3/StrucsPin.sol:Submission",
								"label": "color",
								"offset": 0,
								"slot": "2",
								"type": "t_string_storage"
							},
							{
								"astId": 9,
								"contract": "Role3/StrucsPin.sol:Submission",
								"label": "numberOfDoors",
								"offset": 0,
								"slot": "3",
								"type": "t_uint256"
							}
						],
						"numberOfBytes": "128"
					},
					"t_uint256": {
						"encoding": "inplace",
						"label": "uint256",
						"numberOfBytes": "32"
					}
				}
			},
			"userdoc": {
				"kind": "user",
				"methods": {},
				"version": 1
			}
		}
	}
}