{
	"Role2/ControlStructure.sol": {
		"ControlStructures": {
			"abi": [
				{
					"inputs": [
						{
							"internalType": "uint256",
							"name": "time",
							"type": "uint256"
						}
					],
					"name": "AfterHours",
					"type": "error"
				},
				{
					"inputs": [
						{
							"internalType": "uint256",
							"name": "_time",
							"type": "uint256"
						}
					],
					"name": "doNotDisturb",
					"outputs": [
						{
							"internalType": "string",
							"name": "",
							"type": "string"
						}
					],
					"stateMutability": "pure",
					"type": "function"
				},
				{
					"inputs": [
						{
							"internalType": "uint256",
							"name": "_number",
							"type": "uint256"
						}
					],
					"name": "fizzBuzz",
					"outputs": [
						{
							"internalType": "string",
							"name": "",
							"type": "string"
						}
					],
					"stateMutability": "pure",
					"type": "function"
				}
			],
			"devdoc": {
				"kind": "dev",
				"methods": {},
				"version": 1
			},
			"evm": {
				"assembly": "    /* \"Role2/ControlStructure.sol\":65:899  contract ControlStructures {... */\n  mstore(0x40, 0x80)\n  callvalue\n  dup1\n  iszero\n  tag_1\n  jumpi\n  revert(0x00, 0x00)\ntag_1:\n  pop\n  dataSize(sub_0)\n  dup1\n  dataOffset(sub_0)\n  0x00\n  codecopy\n  0x00\n  return\nstop\n\nsub_0: assembly {\n        /* \"Role2/ControlStructure.sol\":65:899  contract ControlStructures {... */\n      mstore(0x40, 0x80)\n      callvalue\n      dup1\n      iszero\n      tag_1\n      jumpi\n      revert(0x00, 0x00)\n    tag_1:\n      pop\n      jumpi(tag_2, lt(calldatasize, 0x04))\n      shr(0xe0, calldataload(0x00))\n      dup1\n      0x440c93e2\n      eq\n      tag_3\n      jumpi\n      dup1\n      0xe655b7bb\n      eq\n      tag_4\n      jumpi\n    tag_2:\n      revert(0x00, 0x00)\n        /* \"Role2/ControlStructure.sol\":135:466  function fizzBuzz(uint256 _number) external pure returns (string memory) {... */\n    tag_3:\n      tag_5\n      0x04\n      dup1\n      calldatasize\n      sub\n      dup2\n      add\n      swap1\n      tag_6\n      swap2\n      swap1\n      tag_7\n      jump\t// in\n    tag_6:\n      tag_8\n      jump\t// in\n    tag_5:\n      mload(0x40)\n      tag_9\n      swap2\n      swap1\n      tag_10\n      jump\t// in\n    tag_9:\n      mload(0x40)\n      dup1\n      swap2\n      sub\n      swap1\n      return\n        /* \"Role2/ControlStructure.sol\":472:897  function doNotDisturb(uint256 _time) external pure returns (string memory) {... */\n    tag_4:\n      tag_11\n      0x04\n      dup1\n      calldatasize\n      sub\n      dup2\n      add\n      swap1\n      tag_12\n      swap2\n      swap1\n      tag_7\n      jump\t// in\n    tag_12:\n      tag_13\n      jump\t// in\n    tag_11:\n      mload(0x40)\n      tag_14\n      swap2\n      swap1\n      tag_10\n      jump\t// in\n    tag_14:\n      mload(0x40)\n      dup1\n      swap2\n      sub\n      swap1\n      return\n        /* \"Role2/ControlStructure.sol\":135:466  function fizzBuzz(uint256 _number) external pure returns (string memory) {... */\n    tag_8:\n        /* \"Role2/ControlStructure.sol\":193:206  string memory */\n      0x60\n        /* \"Role2/ControlStructure.sol\":238:239  0 */\n      0x00\n        /* \"Role2/ControlStructure.sol\":232:234  15 */\n      0x0f\n        /* \"Role2/ControlStructure.sol\":222:229  _number */\n      dup4\n        /* \"Role2/ControlStructure.sol\":222:234  _number % 15 */\n      tag_16\n      swap2\n      swap1\n      tag_17\n      jump\t// in\n    tag_16:\n        /* \"Role2/ControlStructure.sol\":222:239  _number % 15 == 0 */\n      sub\n        /* \"Role2/ControlStructure.sol\":218:460  if (_number % 15 == 0) {... */\n      tag_18\n      jumpi\n        /* \"Role2/ControlStructure.sol\":255:272  return \"FizzBuzz\" */\n      mload(0x40)\n      dup1\n      0x40\n      add\n      0x40\n      mstore\n      dup1\n      0x08\n      dup2\n      mstore\n      0x20\n      add\n      0x46697a7a42757a7a000000000000000000000000000000000000000000000000\n      dup2\n      mstore\n      pop\n      swap1\n      pop\n      jump(tag_15)\n        /* \"Role2/ControlStructure.sol\":218:460  if (_number % 15 == 0) {... */\n    tag_18:\n        /* \"Role2/ControlStructure.sol\":308:309  0 */\n      0x00\n        /* \"Role2/ControlStructure.sol\":303:304  3 */\n      0x03\n        /* \"Role2/ControlStructure.sol\":293:300  _number */\n      dup4\n        /* \"Role2/ControlStructure.sol\":293:304  _number % 3 */\n      tag_20\n      swap2\n      swap1\n      tag_17\n      jump\t// in\n    tag_20:\n        /* \"Role2/ControlStructure.sol\":293:309  _number % 3 == 0 */\n      sub\n        /* \"Role2/ControlStructure.sol\":289:460  if (_number % 3 == 0) {... */\n      tag_21\n      jumpi\n        /* \"Role2/ControlStructure.sol\":325:338  return \"Fizz\" */\n      mload(0x40)\n      dup1\n      0x40\n      add\n      0x40\n      mstore\n      dup1\n      0x04\n      dup2\n      mstore\n      0x20\n      add\n      0x46697a7a00000000000000000000000000000000000000000000000000000000\n      dup2\n      mstore\n      pop\n      swap1\n      pop\n      jump(tag_15)\n        /* \"Role2/ControlStructure.sol\":289:460  if (_number % 3 == 0) {... */\n    tag_21:\n        /* \"Role2/ControlStructure.sol\":374:375  0 */\n      0x00\n        /* \"Role2/ControlStructure.sol\":369:370  5 */\n      0x05\n        /* \"Role2/ControlStructure.sol\":359:366  _number */\n      dup4\n        /* \"Role2/ControlStructure.sol\":359:370  _number % 5 */\n      tag_23\n      swap2\n      swap1\n      tag_17\n      jump\t// in\n    tag_23:\n        /* \"Role2/ControlStructure.sol\":359:375  _number % 5 == 0 */\n      sub\n        /* \"Role2/ControlStructure.sol\":355:460  if (_number % 5 == 0) {... */\n      tag_24\n      jumpi\n        /* \"Role2/ControlStructure.sol\":391:404  return \"Buzz\" */\n      mload(0x40)\n      dup1\n      0x40\n      add\n      0x40\n      mstore\n      dup1\n      0x04\n      dup2\n      mstore\n      0x20\n      add\n      0x42757a7a00000000000000000000000000000000000000000000000000000000\n      dup2\n      mstore\n      pop\n      swap1\n      pop\n      jump(tag_15)\n        /* \"Role2/ControlStructure.sol\":355:460  if (_number % 5 == 0) {... */\n    tag_24:\n        /* \"Role2/ControlStructure.sol\":435:449  return \"Splat\" */\n      mload(0x40)\n      dup1\n      0x40\n      add\n      0x40\n      mstore\n      dup1\n      0x05\n      dup2\n      mstore\n      0x20\n      add\n      0x53706c6174000000000000000000000000000000000000000000000000000000\n      dup2\n      mstore\n      pop\n      swap1\n      pop\n        /* \"Role2/ControlStructure.sol\":135:466  function fizzBuzz(uint256 _number) external pure returns (string memory) {... */\n    tag_15:\n      swap2\n      swap1\n      pop\n      jump\t// out\n        /* \"Role2/ControlStructure.sol\":472:897  function doNotDisturb(uint256 _time) external pure returns (string memory) {... */\n    tag_13:\n        /* \"Role2/ControlStructure.sol\":532:545  string memory */\n      0x60\n        /* \"Role2/ControlStructure.sol\":573:577  2400 */\n      0x0960\n        /* \"Role2/ControlStructure.sol\":564:569  _time */\n      dup3\n        /* \"Role2/ControlStructure.sol\":564:577  _time <= 2400 */\n      gt\n      iszero\n        /* \"Role2/ControlStructure.sol\":557:578  assert(_time <= 2400) */\n      tag_27\n      jumpi\n      tag_28\n      tag_29\n      jump\t// in\n    tag_28:\n    tag_27:\n        /* \"Role2/ControlStructure.sol\":602:605  800 */\n      0x0320\n        /* \"Role2/ControlStructure.sol\":593:598  _time */\n      dup3\n        /* \"Role2/ControlStructure.sol\":593:605  _time <= 800 */\n      gt\n      iszero\n        /* \"Role2/ControlStructure.sol\":593:621  _time <= 800 || _time > 2200 */\n      dup1\n      tag_30\n      jumpi\n      pop\n        /* \"Role2/ControlStructure.sol\":617:621  2200 */\n      0x0898\n        /* \"Role2/ControlStructure.sol\":609:614  _time */\n      dup3\n        /* \"Role2/ControlStructure.sol\":609:621  _time > 2200 */\n      gt\n        /* \"Role2/ControlStructure.sol\":593:621  _time <= 800 || _time > 2200 */\n    tag_30:\n        /* \"Role2/ControlStructure.sol\":589:672  if (_time <= 800 || _time > 2200) {... */\n      iszero\n      tag_31\n      jumpi\n        /* \"Role2/ControlStructure.sol\":655:660  _time */\n      dup2\n        /* \"Role2/ControlStructure.sol\":644:661  AfterHours(_time) */\n      mload(0x40)\n      0xa4bf701e00000000000000000000000000000000000000000000000000000000\n      dup2\n      mstore\n      0x04\n      add\n      tag_32\n      swap2\n      swap1\n      tag_33\n      jump\t// in\n    tag_32:\n      mload(0x40)\n      dup1\n      swap2\n      sub\n      swap1\n      revert\n        /* \"Role2/ControlStructure.sol\":589:672  if (_time <= 800 || _time > 2200) {... */\n    tag_31:\n        /* \"Role2/ControlStructure.sol\":694:697  800 */\n      0x0320\n        /* \"Role2/ControlStructure.sol\":686:691  _time */\n      dup3\n        /* \"Role2/ControlStructure.sol\":686:697  _time > 800 */\n      gt\n        /* \"Role2/ControlStructure.sol\":686:714  _time > 800 && _time <= 1200 */\n      dup1\n      iszero\n      tag_34\n      jumpi\n      pop\n        /* \"Role2/ControlStructure.sol\":710:714  1200 */\n      0x04b0\n        /* \"Role2/ControlStructure.sol\":701:706  _time */\n      dup3\n        /* \"Role2/ControlStructure.sol\":701:714  _time <= 1200 */\n      gt\n      iszero\n        /* \"Role2/ControlStructure.sol\":686:714  _time > 800 && _time <= 1200 */\n    tag_34:\n        /* \"Role2/ControlStructure.sol\":682:891  if (_time > 800 && _time <= 1200) {... */\n      iszero\n      tag_35\n      jumpi\n        /* \"Role2/ControlStructure.sol\":730:747  return \"Morning!\" */\n      mload(0x40)\n      dup1\n      0x40\n      add\n      0x40\n      mstore\n      dup1\n      0x08\n      dup2\n      mstore\n      0x20\n      add\n      0x4d6f726e696e6721000000000000000000000000000000000000000000000000\n      dup2\n      mstore\n      pop\n      swap1\n      pop\n      jump(tag_26)\n        /* \"Role2/ControlStructure.sol\":682:891  if (_time > 800 && _time <= 1200) {... */\n    tag_35:\n        /* \"Role2/ControlStructure.sol\":776:780  1200 */\n      0x04b0\n        /* \"Role2/ControlStructure.sol\":768:773  _time */\n      dup3\n        /* \"Role2/ControlStructure.sol\":768:780  _time > 1200 */\n      gt\n        /* \"Role2/ControlStructure.sol\":768:797  _time > 1200 && _time <= 1800 */\n      dup1\n      iszero\n      tag_37\n      jumpi\n      pop\n        /* \"Role2/ControlStructure.sol\":793:797  1800 */\n      0x0708\n        /* \"Role2/ControlStructure.sol\":784:789  _time */\n      dup3\n        /* \"Role2/ControlStructure.sol\":784:797  _time <= 1800 */\n      gt\n      iszero\n        /* \"Role2/ControlStructure.sol\":768:797  _time > 1200 && _time <= 1800 */\n    tag_37:\n        /* \"Role2/ControlStructure.sol\":764:891  if (_time > 1200 && _time <= 1800) {... */\n      iszero\n      tag_38\n      jumpi\n        /* \"Role2/ControlStructure.sol\":813:832  return \"Afternoon!\" */\n      mload(0x40)\n      dup1\n      0x40\n      add\n      0x40\n      mstore\n      dup1\n      0x0a\n      dup2\n      mstore\n      0x20\n      add\n      0x41667465726e6f6f6e2100000000000000000000000000000000000000000000\n      dup2\n      mstore\n      pop\n      swap1\n      pop\n      jump(tag_26)\n        /* \"Role2/ControlStructure.sol\":764:891  if (_time > 1200 && _time <= 1800) {... */\n    tag_38:\n        /* \"Role2/ControlStructure.sol\":863:880  return \"Evening!\" */\n      mload(0x40)\n      dup1\n      0x40\n      add\n      0x40\n      mstore\n      dup1\n      0x08\n      dup2\n      mstore\n      0x20\n      add\n      0x4576656e696e6721000000000000000000000000000000000000000000000000\n      dup2\n      mstore\n      pop\n      swap1\n      pop\n        /* \"Role2/ControlStructure.sol\":472:897  function doNotDisturb(uint256 _time) external pure returns (string memory) {... */\n    tag_26:\n      swap2\n      swap1\n      pop\n      jump\t// out\n        /* \"#utility.yul\":88:205   */\n    tag_41:\n        /* \"#utility.yul\":197:198   */\n      0x00\n        /* \"#utility.yul\":194:195   */\n      0x00\n        /* \"#utility.yul\":187:199   */\n      revert\n        /* \"#utility.yul\":334:411   */\n    tag_43:\n        /* \"#utility.yul\":371:378   */\n      0x00\n        /* \"#utility.yul\":400:405   */\n      dup2\n        /* \"#utility.yul\":389:405   */\n      swap1\n      pop\n        /* \"#utility.yul\":334:411   */\n      swap2\n      swap1\n      pop\n      jump\t// out\n        /* \"#utility.yul\":417:539   */\n    tag_44:\n        /* \"#utility.yul\":490:514   */\n      tag_59\n        /* \"#utility.yul\":508:513   */\n      dup2\n        /* \"#utility.yul\":490:514   */\n      tag_43\n      jump\t// in\n    tag_59:\n        /* \"#utility.yul\":483:488   */\n      dup2\n        /* \"#utility.yul\":480:515   */\n      eq\n        /* \"#utility.yul\":470:533   */\n      tag_60\n      jumpi\n        /* \"#utility.yul\":529:530   */\n      0x00\n        /* \"#utility.yul\":526:527   */\n      0x00\n        /* \"#utility.yul\":519:531   */\n      revert\n        /* \"#utility.yul\":470:533   */\n    tag_60:\n        /* \"#utility.yul\":417:539   */\n      pop\n      jump\t// out\n        /* \"#utility.yul\":545:684   */\n    tag_45:\n        /* \"#utility.yul\":591:596   */\n      0x00\n        /* \"#utility.yul\":629:635   */\n      dup2\n        /* \"#utility.yul\":616:636   */\n      calldataload\n        /* \"#utility.yul\":607:636   */\n      swap1\n      pop\n        /* \"#utility.yul\":645:678   */\n      tag_62\n        /* \"#utility.yul\":672:677   */\n      dup2\n        /* \"#utility.yul\":645:678   */\n      tag_44\n      jump\t// in\n    tag_62:\n        /* \"#utility.yul\":545:684   */\n      swap3\n      swap2\n      pop\n      pop\n      jump\t// out\n        /* \"#utility.yul\":690:1019   */\n    tag_7:\n        /* \"#utility.yul\":749:755   */\n      0x00\n        /* \"#utility.yul\":798:800   */\n      0x20\n        /* \"#utility.yul\":786:795   */\n      dup3\n        /* \"#utility.yul\":777:784   */\n      dup5\n        /* \"#utility.yul\":773:796   */\n      sub\n        /* \"#utility.yul\":769:801   */\n      slt\n        /* \"#utility.yul\":766:885   */\n      iszero\n      tag_64\n      jumpi\n        /* \"#utility.yul\":804:883   */\n      tag_65\n      tag_41\n      jump\t// in\n    tag_65:\n        /* \"#utility.yul\":766:885   */\n    tag_64:\n        /* \"#utility.yul\":924:925   */\n      0x00\n        /* \"#utility.yul\":949:1002   */\n      tag_66\n        /* \"#utility.yul\":994:1001   */\n      dup5\n        /* \"#utility.yul\":985:991   */\n      dup3\n        /* \"#utility.yul\":974:983   */\n      dup6\n        /* \"#utility.yul\":970:992   */\n      add\n        /* \"#utility.yul\":949:1002   */\n      tag_45\n      jump\t// in\n    tag_66:\n        /* \"#utility.yul\":939:1002   */\n      swap2\n      pop\n        /* \"#utility.yul\":895:1012   */\n      pop\n        /* \"#utility.yul\":690:1019   */\n      swap3\n      swap2\n      pop\n      pop\n      jump\t// out\n        /* \"#utility.yul\":1025:1124   */\n    tag_46:\n        /* \"#utility.yul\":1077:1083   */\n      0x00\n        /* \"#utility.yul\":1111:1116   */\n      dup2\n        /* \"#utility.yul\":1105:1117   */\n      mload\n        /* \"#utility.yul\":1095:1117   */\n      swap1\n      pop\n        /* \"#utility.yul\":1025:1124   */\n      swap2\n      swap1\n      pop\n      jump\t// out\n        /* \"#utility.yul\":1130:1299   */\n    tag_47:\n        /* \"#utility.yul\":1214:1225   */\n      0x00\n        /* \"#utility.yul\":1248:1254   */\n      dup3\n        /* \"#utility.yul\":1243:1246   */\n      dup3\n        /* \"#utility.yul\":1236:1255   */\n      mstore\n        /* \"#utility.yul\":1288:1292   */\n      0x20\n        /* \"#utility.yul\":1283:1286   */\n      dup3\n        /* \"#utility.yul\":1279:1293   */\n      add\n        /* \"#utility.yul\":1264:1293   */\n      swap1\n      pop\n        /* \"#utility.yul\":1130:1299   */\n      swap3\n      swap2\n      pop\n      pop\n      jump\t// out\n        /* \"#utility.yul\":1305:1444   */\n    tag_48:\n        /* \"#utility.yul\":1394:1400   */\n      dup3\n        /* \"#utility.yul\":1389:1392   */\n      dup2\n        /* \"#utility.yul\":1384:1387   */\n      dup4\n        /* \"#utility.yul\":1378:1401   */\n      mcopy\n        /* \"#utility.yul\":1435:1436   */\n      0x00\n        /* \"#utility.yul\":1426:1432   */\n      dup4\n        /* \"#utility.yul\":1421:1424   */\n      dup4\n        /* \"#utility.yul\":1417:1433   */\n      add\n        /* \"#utility.yul\":1410:1437   */\n      mstore\n        /* \"#utility.yul\":1305:1444   */\n      pop\n      pop\n      pop\n      jump\t// out\n        /* \"#utility.yul\":1450:1552   */\n    tag_49:\n        /* \"#utility.yul\":1491:1497   */\n      0x00\n        /* \"#utility.yul\":1542:1544   */\n      0x1f\n        /* \"#utility.yul\":1538:1545   */\n      not\n        /* \"#utility.yul\":1533:1535   */\n      0x1f\n        /* \"#utility.yul\":1526:1531   */\n      dup4\n        /* \"#utility.yul\":1522:1536   */\n      add\n        /* \"#utility.yul\":1518:1546   */\n      and\n        /* \"#utility.yul\":1508:1546   */\n      swap1\n      pop\n        /* \"#utility.yul\":1450:1552   */\n      swap2\n      swap1\n      pop\n      jump\t// out\n        /* \"#utility.yul\":1558:1935   */\n    tag_50:\n        /* \"#utility.yul\":1646:1649   */\n      0x00\n        /* \"#utility.yul\":1674:1713   */\n      tag_72\n        /* \"#utility.yul\":1707:1712   */\n      dup3\n        /* \"#utility.yul\":1674:1713   */\n      tag_46\n      jump\t// in\n    tag_72:\n        /* \"#utility.yul\":1729:1800   */\n      tag_73\n        /* \"#utility.yul\":1793:1799   */\n      dup2\n        /* \"#utility.yul\":1788:1791   */\n      dup6\n        /* \"#utility.yul\":1729:1800   */\n      tag_47\n      jump\t// in\n    tag_73:\n        /* \"#utility.yul\":1722:1800   */\n      swap4\n      pop\n        /* \"#utility.yul\":1809:1874   */\n      tag_74\n        /* \"#utility.yul\":1867:1873   */\n      dup2\n        /* \"#utility.yul\":1862:1865   */\n      dup6\n        /* \"#utility.yul\":1855:1859   */\n      0x20\n        /* \"#utility.yul\":1848:1853   */\n      dup7\n        /* \"#utility.yul\":1844:1860   */\n      add\n        /* \"#utility.yul\":1809:1874   */\n      tag_48\n      jump\t// in\n    tag_74:\n        /* \"#utility.yul\":1899:1928   */\n      tag_75\n        /* \"#utility.yul\":1921:1927   */\n      dup2\n        /* \"#utility.yul\":1899:1928   */\n      tag_49\n      jump\t// in\n    tag_75:\n        /* \"#utility.yul\":1894:1897   */\n      dup5\n        /* \"#utility.yul\":1890:1929   */\n      add\n        /* \"#utility.yul\":1883:1929   */\n      swap2\n      pop\n        /* \"#utility.yul\":1650:1935   */\n      pop\n        /* \"#utility.yul\":1558:1935   */\n      swap3\n      swap2\n      pop\n      pop\n      jump\t// out\n        /* \"#utility.yul\":1941:2254   */\n    tag_10:\n        /* \"#utility.yul\":2054:2058   */\n      0x00\n        /* \"#utility.yul\":2092:2094   */\n      0x20\n        /* \"#utility.yul\":2081:2090   */\n      dup3\n        /* \"#utility.yul\":2077:2095   */\n      add\n        /* \"#utility.yul\":2069:2095   */\n      swap1\n      pop\n        /* \"#utility.yul\":2141:2150   */\n      dup2\n        /* \"#utility.yul\":2135:2139   */\n      dup2\n        /* \"#utility.yul\":2131:2151   */\n      sub\n        /* \"#utility.yul\":2127:2128   */\n      0x00\n        /* \"#utility.yul\":2116:2125   */\n      dup4\n        /* \"#utility.yul\":2112:2129   */\n      add\n        /* \"#utility.yul\":2105:2152   */\n      mstore\n        /* \"#utility.yul\":2169:2247   */\n      tag_77\n        /* \"#utility.yul\":2242:2246   */\n      dup2\n        /* \"#utility.yul\":2233:2239   */\n      dup5\n        /* \"#utility.yul\":2169:2247   */\n      tag_50\n      jump\t// in\n    tag_77:\n        /* \"#utility.yul\":2161:2247   */\n      swap1\n      pop\n        /* \"#utility.yul\":1941:2254   */\n      swap3\n      swap2\n      pop\n      pop\n      jump\t// out\n        /* \"#utility.yul\":2260:2440   */\n    tag_51:\n        /* \"#utility.yul\":2308:2385   */\n      0x4e487b7100000000000000000000000000000000000000000000000000000000\n        /* \"#utility.yul\":2305:2306   */\n      0x00\n        /* \"#utility.yul\":2298:2386   */\n      mstore\n        /* \"#utility.yul\":2405:2409   */\n      0x12\n        /* \"#utility.yul\":2402:2403   */\n      0x04\n        /* \"#utility.yul\":2395:2410   */\n      mstore\n        /* \"#utility.yul\":2429:2433   */\n      0x24\n        /* \"#utility.yul\":2426:2427   */\n      0x00\n        /* \"#utility.yul\":2419:2434   */\n      revert\n        /* \"#utility.yul\":2446:2622   */\n    tag_17:\n        /* \"#utility.yul\":2478:2479   */\n      0x00\n        /* \"#utility.yul\":2495:2515   */\n      tag_80\n        /* \"#utility.yul\":2513:2514   */\n      dup3\n        /* \"#utility.yul\":2495:2515   */\n      tag_43\n      jump\t// in\n    tag_80:\n        /* \"#utility.yul\":2490:2515   */\n      swap2\n      pop\n        /* \"#utility.yul\":2529:2549   */\n      tag_81\n        /* \"#utility.yul\":2547:2548   */\n      dup4\n        /* \"#utility.yul\":2529:2549   */\n      tag_43\n      jump\t// in\n    tag_81:\n        /* \"#utility.yul\":2524:2549   */\n      swap3\n      pop\n        /* \"#utility.yul\":2568:2569   */\n      dup3\n        /* \"#utility.yul\":2558:2593   */\n      tag_82\n      jumpi\n        /* \"#utility.yul\":2573:2591   */\n      tag_83\n      tag_51\n      jump\t// in\n    tag_83:\n        /* \"#utility.yul\":2558:2593   */\n    tag_82:\n        /* \"#utility.yul\":2614:2615   */\n      dup3\n        /* \"#utility.yul\":2611:2612   */\n      dup3\n        /* \"#utility.yul\":2607:2616   */\n      mod\n        /* \"#utility.yul\":2602:2616   */\n      swap1\n      pop\n        /* \"#utility.yul\":2446:2622   */\n      swap3\n      swap2\n      pop\n      pop\n      jump\t// out\n        /* \"#utility.yul\":2628:2808   */\n    tag_29:\n        /* \"#utility.yul\":2676:2753   */\n      0x4e487b7100000000000000000000000000000000000000000000000000000000\n        /* \"#utility.yul\":2673:2674   */\n      0x00\n        /* \"#utility.yul\":2666:2754   */\n      mstore\n        /* \"#utility.yul\":2773:2777   */\n      0x01\n        /* \"#utility.yul\":2770:2771   */\n      0x04\n        /* \"#utility.yul\":2763:2778   */\n      mstore\n        /* \"#utility.yul\":2797:2801   */\n      0x24\n        /* \"#utility.yul\":2794:2795   */\n      0x00\n        /* \"#utility.yul\":2787:2802   */\n      revert\n        /* \"#utility.yul\":2814:2932   */\n    tag_52:\n        /* \"#utility.yul\":2901:2925   */\n      tag_86\n        /* \"#utility.yul\":2919:2924   */\n      dup2\n        /* \"#utility.yul\":2901:2925   */\n      tag_43\n      jump\t// in\n    tag_86:\n        /* \"#utility.yul\":2896:2899   */\n      dup3\n        /* \"#utility.yul\":2889:2926   */\n      mstore\n        /* \"#utility.yul\":2814:2932   */\n      pop\n      pop\n      jump\t// out\n        /* \"#utility.yul\":2938:3160   */\n    tag_33:\n        /* \"#utility.yul\":3031:3035   */\n      0x00\n        /* \"#utility.yul\":3069:3071   */\n      0x20\n        /* \"#utility.yul\":3058:3067   */\n      dup3\n        /* \"#utility.yul\":3054:3072   */\n      add\n        /* \"#utility.yul\":3046:3072   */\n      swap1\n      pop\n        /* \"#utility.yul\":3082:3153   */\n      tag_88\n        /* \"#utility.yul\":3150:3151   */\n      0x00\n        /* \"#utility.yul\":3139:3148   */\n      dup4\n        /* \"#utility.yul\":3135:3152   */\n      add\n        /* \"#utility.yul\":3126:3132   */\n      dup5\n        /* \"#utility.yul\":3082:3153   */\n      tag_52\n      jump\t// in\n    tag_88:\n        /* \"#utility.yul\":2938:3160   */\n      swap3\n      swap2\n      pop\n      pop\n      jump\t// out\n\n    auxdata: 0xa26469706673582212206f456d8963d6c3ee8b06a47017b95ea46c71c4897c22b60f379910254868950964736f6c634300081e0033\n}\n",
				"bytecode": {
					"linkReferences": {},
					"object": "6080604052348015600e575f5ffd5b506104f38061001c5f395ff3fe608060405234801561000f575f5ffd5b5060043610610034575f3560e01c8063440c93e214610038578063e655b7bb14610068575b5f5ffd5b610052600480360381019061004d9190610350565b610098565b60405161005f91906103eb565b60405180910390f35b610082600480360381019061007d9190610350565b6101c8565b60405161008f91906103eb565b60405180910390f35b60605f600f836100a89190610438565b036100ea576040518060400160405280600881526020017f46697a7a42757a7a00000000000000000000000000000000000000000000000081525090506101c3565b5f6003836100f89190610438565b0361013a576040518060400160405280600481526020017f46697a7a0000000000000000000000000000000000000000000000000000000081525090506101c3565b5f6005836101489190610438565b0361018a576040518060400160405280600481526020017f42757a7a0000000000000000000000000000000000000000000000000000000081525090506101c3565b6040518060400160405280600581526020017f53706c617400000000000000000000000000000000000000000000000000000081525090505b919050565b60606109608211156101dd576101dc610468565b5b610320821115806101ef575061089882115b1561023157816040517fa4bf701e00000000000000000000000000000000000000000000000000000000815260040161022891906104a4565b60405180910390fd5b6103208211801561024457506104b08211155b15610286576040518060400160405280600881526020017f4d6f726e696e67210000000000000000000000000000000000000000000000008152509050610314565b6104b08211801561029957506107088211155b156102db576040518060400160405280600a81526020017f41667465726e6f6f6e21000000000000000000000000000000000000000000008152509050610314565b6040518060400160405280600881526020017f4576656e696e672100000000000000000000000000000000000000000000000081525090505b919050565b5f5ffd5b5f819050919050565b61032f8161031d565b8114610339575f5ffd5b50565b5f8135905061034a81610326565b92915050565b5f6020828403121561036557610364610319565b5b5f6103728482850161033c565b91505092915050565b5f81519050919050565b5f82825260208201905092915050565b8281835e5f83830152505050565b5f601f19601f8301169050919050565b5f6103bd8261037b565b6103c78185610385565b93506103d7818560208601610395565b6103e0816103a3565b840191505092915050565b5f6020820190508181035f83015261040381846103b3565b905092915050565b7f4e487b71000000000000000000000000000000000000000000000000000000005f52601260045260245ffd5b5f6104428261031d565b915061044d8361031d565b92508261045d5761045c61040b565b5b828206905092915050565b7f4e487b71000000000000000000000000000000000000000000000000000000005f52600160045260245ffd5b61049e8161031d565b82525050565b5f6020820190506104b75f830184610495565b9291505056fea26469706673582212206f456d8963d6c3ee8b06a47017b95ea46c71c4897c22b60f379910254868950964736f6c634300081e0033",
					"opcodes": "PUSH1 0x80 PUSH1 0x40 MSTORE CALLVALUE DUP1 ISZERO PUSH1 0xE JUMPI PUSH0 PUSH0 REVERT JUMPDEST POP PUSH2 0x4F3 DUP1 PUSH2 0x1C PUSH0 CODECOPY PUSH0 RETURN INVALID PUSH1 0x80 PUSH1 0x40 MSTORE CALLVALUE DUP1 ISZERO PUSH2 0xF JUMPI PUSH0 PUSH0 REVERT JUMPDEST POP PUSH1 0x4 CALLDATASIZE LT PUSH2 0x34 JUMPI PUSH0 CALLDATALOAD PUSH1 0xE0 SHR DUP1 PUSH4 0x440C93E2 EQ PUSH2 0x38 JUMPI DUP1 PUSH4 0xE655B7BB EQ PUSH2 0x68 JUMPI JUMPDEST PUSH0 PUSH0 REVERT JUMPDEST PUSH2 0x52 PUSH1 0x4 DUP1 CALLDATASIZE SUB DUP2 ADD SWAP1 PUSH2 0x4D SWAP2 SWAP1 PUSH2 0x350 JUMP JUMPDEST PUSH2 0x98 JUMP JUMPDEST PUSH1 0x40 MLOAD PUSH2 0x5F SWAP2 SWAP1 PUSH2 0x3EB JUMP JUMPDEST PUSH1 0x40 MLOAD DUP1 SWAP2 SUB SWAP1 RETURN JUMPDEST PUSH2 0x82 PUSH1 0x4 DUP1 CALLDATASIZE SUB DUP2 ADD SWAP1 PUSH2 0x7D SWAP2 SWAP1 PUSH2 0x350 JUMP JUMPDEST PUSH2 0x1C8 JUMP JUMPDEST PUSH1 0x40 MLOAD PUSH2 0x8F SWAP2 SWAP1 PUSH2 0x3EB JUMP JUMPDEST PUSH1 0x40 MLOAD DUP1 SWAP2 SUB SWAP1 RETURN JUMPDEST PUSH1 0x60 PUSH0 PUSH1 0xF DUP4 PUSH2 0xA8 SWAP2 SWAP1 PUSH2 0x438 JUMP JUMPDEST SUB PUSH2 0xEA JUMPI PUSH1 0x40 MLOAD DUP1 PUSH1 0x40 ADD PUSH1 0x40 MSTORE DUP1 PUSH1 0x8 DUP2 MSTORE PUSH1 0x20 ADD PUSH32 0x46697A7A42757A7A000000000000000000000000000000000000000000000000 DUP2 MSTORE POP SWAP1 POP PUSH2 0x1C3 JUMP JUMPDEST PUSH0 PUSH1 0x3 DUP4 PUSH2 0xF8 SWAP2 SWAP1 PUSH2 0x438 JUMP JUMPDEST SUB PUSH2 0x13A JUMPI PUSH1 0x40 MLOAD DUP1 PUSH1 0x40 ADD PUSH1 0x40 MSTORE DUP1 PUSH1 0x4 DUP2 MSTORE PUSH1 0x20 ADD PUSH32 0x46697A7A00000000000000000000000000000000000000000000000000000000 DUP2 MSTORE POP SWAP1 POP PUSH2 0x1C3 JUMP JUMPDEST PUSH0 PUSH1 0x5 DUP4 PUSH2 0x148 SWAP2 SWAP1 PUSH2 0x438 JUMP JUMPDEST SUB PUSH2 0x18A JUMPI PUSH1 0x40 MLOAD DUP1 PUSH1 0x40 ADD PUSH1 0x40 MSTORE DUP1 PUSH1 0x4 DUP2 MSTORE PUSH1 0x20 ADD PUSH32 0x42757A7A00000000000000000000000000000000000000000000000000000000 DUP2 MSTORE POP SWAP1 POP PUSH2 0x1C3 JUMP JUMPDEST PUSH1 0x40 MLOAD DUP1 PUSH1 0x40 ADD PUSH1 0x40 MSTORE DUP1 PUSH1 0x5 DUP2 MSTORE PUSH1 0x20 ADD PUSH32 0x53706C6174000000000000000000000000000000000000000000000000000000 DUP2 MSTORE POP SWAP1 POP JUMPDEST SWAP2 SWAP1 POP JUMP JUMPDEST PUSH1 0x60 PUSH2 0x960 DUP3 GT ISZERO PUSH2 0x1DD JUMPI PUSH2 0x1DC PUSH2 0x468 JUMP JUMPDEST JUMPDEST PUSH2 0x320 DUP3 GT ISZERO DUP1 PUSH2 0x1EF JUMPI POP PUSH2 0x898 DUP3 GT JUMPDEST ISZERO PUSH2 0x231 JUMPI DUP2 PUSH1 0x40 MLOAD PUSH32 0xA4BF701E00000000000000000000000000000000000000000000000000000000 DUP2 MSTORE PUSH1 0x4 ADD PUSH2 0x228 SWAP2 SWAP1 PUSH2 0x4A4 JUMP JUMPDEST PUSH1 0x40 MLOAD DUP1 SWAP2 SUB SWAP1 REVERT JUMPDEST PUSH2 0x320 DUP3 GT DUP1 ISZERO PUSH2 0x244 JUMPI POP PUSH2 0x4B0 DUP3 GT ISZERO JUMPDEST ISZERO PUSH2 0x286 JUMPI PUSH1 0x40 MLOAD DUP1 PUSH1 0x40 ADD PUSH1 0x40 MSTORE DUP1 PUSH1 0x8 DUP2 MSTORE PUSH1 0x20 ADD PUSH32 0x4D6F726E696E6721000000000000000000000000000000000000000000000000 DUP2 MSTORE POP SWAP1 POP PUSH2 0x314 JUMP JUMPDEST PUSH2 0x4B0 DUP3 GT DUP1 ISZERO PUSH2 0x299 JUMPI POP PUSH2 0x708 DUP3 GT ISZERO JUMPDEST ISZERO PUSH2 0x2DB JUMPI PUSH1 0x40 MLOAD DUP1 PUSH1 0x40 ADD PUSH1 0x40 MSTORE DUP1 PUSH1 0xA DUP2 MSTORE PUSH1 0x20 ADD PUSH32 0x41667465726E6F6F6E2100000000000000000000000000000000000000000000 DUP2 MSTORE POP SWAP1 POP PUSH2 0x314 JUMP JUMPDEST PUSH1 0x40 MLOAD DUP1 PUSH1 0x40 ADD PUSH1 0x40 MSTORE DUP1 PUSH1 0x8 DUP2 MSTORE PUSH1 0x20 ADD PUSH32 0x4576656E696E6721000000000000000000000000000000000000000000000000 DUP2 MSTORE POP SWAP1 POP JUMPDEST SWAP2 SWAP1 POP JUMP JUMPDEST PUSH0 PUSH0 REVERT JUMPDEST PUSH0 DUP2 SWAP1 POP SWAP2 SWAP1 POP JUMP JUMPDEST PUSH2 0x32F DUP2 PUSH2 0x31D JUMP JUMPDEST DUP2 EQ PUSH2 0x339 JUMPI PUSH0 PUSH0 REVERT JUMPDEST POP JUMP JUMPDEST PUSH0 DUP2 CALLDATALOAD SWAP1 POP PUSH2 0x34A DUP2 PUSH2 0x326 JUMP JUMPDEST SWAP3 SWAP2 POP POP JUMP JUMPDEST PUSH0 PUSH1 0x20 DUP3 DUP5 SUB SLT ISZERO PUSH2 0x365 JUMPI PUSH2 0x364 PUSH2 0x319 JUMP JUMPDEST JUMPDEST PUSH0 PUSH2 0x372 DUP5 DUP3 DUP6 ADD PUSH2 0x33C JUMP JUMPDEST SWAP2 POP POP SWAP3 SWAP2 POP POP JUMP JUMPDEST PUSH0 DUP2 MLOAD SWAP1 POP SWAP2 SWAP1 POP JUMP JUMPDEST PUSH0 DUP3 DUP3 MSTORE PUSH1 0x20 DUP3 ADD SWAP1 POP SWAP3 SWAP2 POP POP JUMP JUMPDEST DUP3 DUP2 DUP4 MCOPY PUSH0 DUP4 DUP4 ADD MSTORE POP POP POP JUMP JUMPDEST PUSH0 PUSH1 0x1F NOT PUSH1 0x1F DUP4 ADD AND SWAP1 POP SWAP2 SWAP1 POP JUMP JUMPDEST PUSH0 PUSH2 0x3BD DUP3 PUSH2 0x37B JUMP JUMPDEST PUSH2 0x3C7 DUP2 DUP6 PUSH2 0x385 JUMP JUMPDEST SWAP4 POP PUSH2 0x3D7 DUP2 DUP6 PUSH1 0x20 DUP7 ADD PUSH2 0x395 JUMP JUMPDEST PUSH2 0x3E0 DUP2 PUSH2 0x3A3 JUMP JUMPDEST DUP5 ADD SWAP2 POP POP SWAP3 SWAP2 POP POP JUMP JUMPDEST PUSH0 PUSH1 0x20 DUP3 ADD SWAP1 POP DUP2 DUP2 SUB PUSH0 DUP4 ADD MSTORE PUSH2 0x403 DUP2 DUP5 PUSH2 0x3B3 JUMP JUMPDEST SWAP1 POP SWAP3 SWAP2 POP POP JUMP JUMPDEST PUSH32 0x4E487B7100000000000000000000000000000000000000000000000000000000 PUSH0 MSTORE PUSH1 0x12 PUSH1 0x4 MSTORE PUSH1 0x24 PUSH0 REVERT JUMPDEST PUSH0 PUSH2 0x442 DUP3 PUSH2 0x31D JUMP JUMPDEST SWAP2 POP PUSH2 0x44D DUP4 PUSH2 0x31D JUMP JUMPDEST SWAP3 POP DUP3 PUSH2 0x45D JUMPI PUSH2 0x45C PUSH2 0x40B JUMP JUMPDEST JUMPDEST DUP3 DUP3 MOD SWAP1 POP SWAP3 SWAP2 POP POP JUMP JUMPDEST PUSH32 0x4E487B7100000000000000000000000000000000000000000000000000000000 PUSH0 MSTORE PUSH1 0x1 PUSH1 0x4 MSTORE PUSH1 0x24 PUSH0 REVERT JUMPDEST PUSH2 0x49E DUP2 PUSH2 0x31D JUMP JUMPDEST DUP3 MSTORE POP POP JUMP JUMPDEST PUSH0 PUSH1 0x20 DUP3 ADD SWAP1 POP PUSH2 0x4B7 PUSH0 DUP4 ADD DUP5 PUSH2 0x495 JUMP JUMPDEST SWAP3 SWAP2 POP POP JUMP INVALID LOG2 PUSH5 0x6970667358 0x22 SLT KECCAK256 PUSH16 0x456D8963D6C3EE8B06A47017B95EA46C PUSH18 0xC4897C22B60F379910254868950964736F6C PUSH4 0x4300081E STOP CALLER "
				},
				"gasEstimates": {
					"creation": {
						"codeDepositCost": "253400",
						"executionCost": "292",
						"totalCost": "253692"
					},
					"external": {
						"doNotDisturb(uint256)": "infinite",
						"fizzBuzz(uint256)": "infinite"
					}
				},
				"methodIdentifiers": {
					"doNotDisturb(uint256)": "e655b7bb",
					"fizzBuzz(uint256)": "440c93e2"
				}
			},
			"storageLayout": {
				"storage": [],
				"types": null
			},
			"userdoc": {
				"kind": "user",
				"methods": {},
				"version": 1
			}
		}
	}
}