{
	"Role3/MappingsPin.sol": {
		"Submission": {
			"abi": [
				{
					"inputs": [
						{
							"internalType": "string",
							"name": "_albumName",
							"type": "string"
						}
					],
					"name": "addRecord",
					"outputs": [],
					"stateMutability": "nonpayable",
					"type": "function"
				},
				{
					"inputs": [],
					"name": "getApprovedRecords",
					"outputs": [
						{
							"internalType": "string[]",
							"name": "",
							"type": "string[]"
						}
					],
					"stateMutability": "pure",
					"type": "function"
				},
				{
					"inputs": [
						{
							"internalType": "address",
							"name": "_address",
							"type": "address"
						}
					],
					"name": "getUserFavorites",
					"outputs": [
						{
							"internalType": "string[]",
							"name": "",
							"type": "string[]"
						}
					],
					"stateMutability": "view",
					"type": "function"
				},
				{
					"inputs": [],
					"name": "resetUserFavorites",
					"outputs": [],
					"stateMutability": "nonpayable",
					"type": "function"
				},
				{
					"inputs": [
						{
							"internalType": "address",
							"name": "",
							"type": "address"
						},
						{
							"internalType": "uint256",
							"name": "",
							"type": "uint256"
						}
					],
					"name": "userFavorites",
					"outputs": [
						{
							"internalType": "string",
							"name": "",
							"type": "string"
						}
					],
					"stateMutability": "view",
					"type": "function"
				}
			],
			"devdoc": {
				"kind": "dev",
				"methods": {},
				"version": 1
			},
			"evm": {
				"assembly": "    /* \"Role3/MappingsPin.sol\":376:1444  contract Submission is ISubmission {... */\n  mstore(0x40, 0x80)\n  callvalue\n  dup1\n  iszero\n  tag_1\n  jumpi\n  revert(0x00, 0x00)\ntag_1:\n  pop\n  dataSize(sub_0)\n  dup1\n  dataOffset(sub_0)\n  0x00\n  codecopy\n  0x00\n  return\nstop\n\nsub_0: assembly {\n        /* \"Role3/MappingsPin.sol\":376:1444  contract Submission is ISubmission {... */\n      mstore(0x40, 0x80)\n      callvalue\n      dup1\n      iszero\n      tag_1\n      jumpi\n      revert(0x00, 0x00)\n    tag_1:\n      pop\n      jumpi(tag_2, lt(calldatasize, 0x04))\n      shr(0xe0, calldataload(0x00))\n      dup1\n      0x1cf0830b\n      eq\n      tag_3\n      jumpi\n      dup1\n      0x837f8878\n      eq\n      tag_4\n      jumpi\n      dup1\n      0xaa070fb5\n      eq\n      tag_5\n      jumpi\n      dup1\n      0xc7853148\n      eq\n      tag_6\n      jumpi\n      dup1\n      0xd81aa8c4\n      eq\n      tag_7\n      jumpi\n    tag_2:\n      revert(0x00, 0x00)\n        /* \"Role3/MappingsPin.sol\":473:1051  function getApprovedRecords()... */\n    tag_3:\n      tag_8\n      tag_9\n      jump\t// in\n    tag_8:\n      mload(0x40)\n      tag_10\n      swap2\n      swap1\n      tag_11\n      jump\t// in\n    tag_10:\n      mload(0x40)\n      dup1\n      swap2\n      sub\n      swap1\n      return\n        /* \"Role3/MappingsPin.sol\":1345:1442  function resetUserFavorites() external override {... */\n    tag_4:\n      tag_12\n      tag_13\n      jump\t// in\n    tag_12:\n      stop\n        /* \"Role3/MappingsPin.sol\":417:466  mapping(address => string[]) public userFavorites */\n    tag_5:\n      tag_14\n      0x04\n      dup1\n      calldatasize\n      sub\n      dup2\n      add\n      swap1\n      tag_15\n      swap2\n      swap1\n      tag_16\n      jump\t// in\n    tag_15:\n      tag_17\n      jump\t// in\n    tag_14:\n      mload(0x40)\n      tag_18\n      swap2\n      swap1\n      tag_19\n      jump\t// in\n    tag_18:\n      mload(0x40)\n      dup1\n      swap2\n      sub\n      swap1\n      return\n        /* \"Role3/MappingsPin.sol\":1185:1339  function getUserFavorites(... */\n    tag_6:\n      tag_20\n      0x04\n      dup1\n      calldatasize\n      sub\n      dup2\n      add\n      swap1\n      tag_21\n      swap2\n      swap1\n      tag_22\n      jump\t// in\n    tag_21:\n      tag_23\n      jump\t// in\n    tag_20:\n      mload(0x40)\n      tag_24\n      swap2\n      swap1\n      tag_11\n      jump\t// in\n    tag_24:\n      mload(0x40)\n      dup1\n      swap2\n      sub\n      swap1\n      return\n        /* \"Role3/MappingsPin.sol\":1057:1179  function addRecord(string memory _albumName) external override {... */\n    tag_7:\n      tag_25\n      0x04\n      dup1\n      calldatasize\n      sub\n      dup2\n      add\n      swap1\n      tag_26\n      swap2\n      swap1\n      tag_27\n      jump\t// in\n    tag_26:\n      tag_28\n      jump\t// in\n    tag_25:\n      stop\n        /* \"Role3/MappingsPin.sol\":473:1051  function getApprovedRecords()... */\n    tag_9:\n        /* \"Role3/MappingsPin.sol\":567:582  string[] memory */\n      0x60\n        /* \"Role3/MappingsPin.sol\":598:622  string[] memory approved */\n      0x00\n        /* \"Role3/MappingsPin.sol\":638:639  9 */\n      0x09\n        /* \"Role3/MappingsPin.sol\":625:640  new string[](9) */\n      0xffffffffffffffff\n      dup2\n      gt\n      iszero\n      tag_30\n      jumpi\n      tag_31\n      tag_32\n      jump\t// in\n    tag_31:\n    tag_30:\n      mload(0x40)\n      swap1\n      dup1\n      dup3\n      mstore\n      dup1\n      0x20\n      mul\n      0x20\n      add\n      dup3\n      add\n      0x40\n      mstore\n      dup1\n      iszero\n      tag_33\n      jumpi\n      dup2\n      0x20\n      add\n    tag_34:\n      0x60\n      dup2\n      mstore\n      0x20\n      add\n      swap1\n      0x01\n      swap1\n      sub\n      swap1\n      dup2\n      tag_34\n      jumpi\n      swap1\n      pop\n    tag_33:\n      pop\n        /* \"Role3/MappingsPin.sol\":598:640  string[] memory approved = new string[](9) */\n      swap1\n      pop\n        /* \"Role3/MappingsPin.sol\":650:674  approved[0] = \"Thriller\" */\n      mload(0x40)\n      dup1\n      0x40\n      add\n      0x40\n      mstore\n      dup1\n      0x08\n      dup2\n      mstore\n      0x20\n      add\n      0x546872696c6c6572000000000000000000000000000000000000000000000000\n      dup2\n      mstore\n      pop\n        /* \"Role3/MappingsPin.sol\":650:658  approved */\n      dup2\n        /* \"Role3/MappingsPin.sol\":659:660  0 */\n      0x00\n        /* \"Role3/MappingsPin.sol\":650:661  approved[0] */\n      dup2\n      mload\n      dup2\n      lt\n      tag_35\n      jumpi\n      tag_36\n      tag_37\n      jump\t// in\n    tag_36:\n    tag_35:\n      0x20\n      mul\n      0x20\n      add\n      add\n        /* \"Role3/MappingsPin.sol\":650:674  approved[0] = \"Thriller\" */\n      dup2\n      swap1\n      mstore\n      pop\n        /* \"Role3/MappingsPin.sol\":684:713  approved[1] = \"Back in Black\" */\n      mload(0x40)\n      dup1\n      0x40\n      add\n      0x40\n      mstore\n      dup1\n      0x0d\n      dup2\n      mstore\n      0x20\n      add\n      0x4261636b20696e20426c61636b00000000000000000000000000000000000000\n      dup2\n      mstore\n      pop\n        /* \"Role3/MappingsPin.sol\":684:692  approved */\n      dup2\n        /* \"Role3/MappingsPin.sol\":693:694  1 */\n      0x01\n        /* \"Role3/MappingsPin.sol\":684:695  approved[1] */\n      dup2\n      mload\n      dup2\n      lt\n      tag_38\n      jumpi\n      tag_39\n      tag_37\n      jump\t// in\n    tag_39:\n    tag_38:\n      0x20\n      mul\n      0x20\n      add\n      add\n        /* \"Role3/MappingsPin.sol\":684:713  approved[1] = \"Back in Black\" */\n      dup2\n      swap1\n      mstore\n      pop\n        /* \"Role3/MappingsPin.sol\":723:752  approved[2] = \"The Bodyguard\" */\n      mload(0x40)\n      dup1\n      0x40\n      add\n      0x40\n      mstore\n      dup1\n      0x0d\n      dup2\n      mstore\n      0x20\n      add\n      0x54686520426f6479677561726400000000000000000000000000000000000000\n      dup2\n      mstore\n      pop\n        /* \"Role3/MappingsPin.sol\":723:731  approved */\n      dup2\n        /* \"Role3/MappingsPin.sol\":732:733  2 */\n      0x02\n        /* \"Role3/MappingsPin.sol\":723:734  approved[2] */\n      dup2\n      mload\n      dup2\n      lt\n      tag_40\n      jumpi\n      tag_41\n      tag_37\n      jump\t// in\n    tag_41:\n    tag_40:\n      0x20\n      mul\n      0x20\n      add\n      add\n        /* \"Role3/MappingsPin.sol\":723:752  approved[2] = \"The Bodyguard\" */\n      dup2\n      swap1\n      mstore\n      pop\n        /* \"Role3/MappingsPin.sol\":762:803  approved[3] = \"The Dark Side of the Moon\" */\n      mload(0x40)\n      dup1\n      0x40\n      add\n      0x40\n      mstore\n      dup1\n      0x19\n      dup2\n      mstore\n      0x20\n      add\n      0x546865204461726b2053696465206f6620746865204d6f6f6e00000000000000\n      dup2\n      mstore\n      pop\n        /* \"Role3/MappingsPin.sol\":762:770  approved */\n      dup2\n        /* \"Role3/MappingsPin.sol\":771:772  3 */\n      0x03\n        /* \"Role3/MappingsPin.sol\":762:773  approved[3] */\n      dup2\n      mload\n      dup2\n      lt\n      tag_42\n      jumpi\n      tag_43\n      tag_37\n      jump\t// in\n    tag_43:\n    tag_42:\n      0x20\n      mul\n      0x20\n      add\n      add\n        /* \"Role3/MappingsPin.sol\":762:803  approved[3] = \"The Dark Side of the Moon\" */\n      dup2\n      swap1\n      mstore\n      pop\n        /* \"Role3/MappingsPin.sol\":813:860  approved[4] = \"Their Greatest Hits (1971-1975)\" */\n      mload(0x40)\n      dup1\n      0x40\n      add\n      0x40\n      mstore\n      dup1\n      0x1f\n      dup2\n      mstore\n      0x20\n      add\n      0x546865697220477265617465737420486974732028313937312d313937352900\n      dup2\n      mstore\n      pop\n        /* \"Role3/MappingsPin.sol\":813:821  approved */\n      dup2\n        /* \"Role3/MappingsPin.sol\":822:823  4 */\n      0x04\n        /* \"Role3/MappingsPin.sol\":813:824  approved[4] */\n      dup2\n      mload\n      dup2\n      lt\n      tag_44\n      jumpi\n      tag_45\n      tag_37\n      jump\t// in\n    tag_45:\n    tag_44:\n      0x20\n      mul\n      0x20\n      add\n      add\n        /* \"Role3/MappingsPin.sol\":813:860  approved[4] = \"Their Greatest Hits (1971-1975)\" */\n      dup2\n      swap1\n      mstore\n      pop\n        /* \"Role3/MappingsPin.sol\":870:902  approved[5] = \"Hotel California\" */\n      mload(0x40)\n      dup1\n      0x40\n      add\n      0x40\n      mstore\n      dup1\n      0x10\n      dup2\n      mstore\n      0x20\n      add\n      0x486f74656c2043616c69666f726e696100000000000000000000000000000000\n      dup2\n      mstore\n      pop\n        /* \"Role3/MappingsPin.sol\":870:878  approved */\n      dup2\n        /* \"Role3/MappingsPin.sol\":879:880  5 */\n      0x05\n        /* \"Role3/MappingsPin.sol\":870:881  approved[5] */\n      dup2\n      mload\n      dup2\n      lt\n      tag_46\n      jumpi\n      tag_47\n      tag_37\n      jump\t// in\n    tag_47:\n    tag_46:\n      0x20\n      mul\n      0x20\n      add\n      add\n        /* \"Role3/MappingsPin.sol\":870:902  approved[5] = \"Hotel California\" */\n      dup2\n      swap1\n      mstore\n      pop\n        /* \"Role3/MappingsPin.sol\":912:940  approved[6] = \"Come On Over\" */\n      mload(0x40)\n      dup1\n      0x40\n      add\n      0x40\n      mstore\n      dup1\n      0x0c\n      dup2\n      mstore\n      0x20\n      add\n      0x436f6d65204f6e204f7665720000000000000000000000000000000000000000\n      dup2\n      mstore\n      pop\n        /* \"Role3/MappingsPin.sol\":912:920  approved */\n      dup2\n        /* \"Role3/MappingsPin.sol\":921:922  6 */\n      0x06\n        /* \"Role3/MappingsPin.sol\":912:923  approved[6] */\n      dup2\n      mload\n      dup2\n      lt\n      tag_48\n      jumpi\n      tag_49\n      tag_37\n      jump\t// in\n    tag_49:\n    tag_48:\n      0x20\n      mul\n      0x20\n      add\n      add\n        /* \"Role3/MappingsPin.sol\":912:940  approved[6] = \"Come On Over\" */\n      dup2\n      swap1\n      mstore\n      pop\n        /* \"Role3/MappingsPin.sol\":950:973  approved[7] = \"Rumours\" */\n      mload(0x40)\n      dup1\n      0x40\n      add\n      0x40\n      mstore\n      dup1\n      0x07\n      dup2\n      mstore\n      0x20\n      add\n      0x52756d6f75727300000000000000000000000000000000000000000000000000\n      dup2\n      mstore\n      pop\n        /* \"Role3/MappingsPin.sol\":950:958  approved */\n      dup2\n        /* \"Role3/MappingsPin.sol\":959:960  7 */\n      0x07\n        /* \"Role3/MappingsPin.sol\":950:961  approved[7] */\n      dup2\n      mload\n      dup2\n      lt\n      tag_50\n      jumpi\n      tag_51\n      tag_37\n      jump\t// in\n    tag_51:\n    tag_50:\n      0x20\n      mul\n      0x20\n      add\n      add\n        /* \"Role3/MappingsPin.sol\":950:973  approved[7] = \"Rumours\" */\n      dup2\n      swap1\n      mstore\n      pop\n        /* \"Role3/MappingsPin.sol\":983:1019  approved[8] = \"Saturday Night Fever\" */\n      mload(0x40)\n      dup1\n      0x40\n      add\n      0x40\n      mstore\n      dup1\n      0x14\n      dup2\n      mstore\n      0x20\n      add\n      0x5361747572646179204e69676874204665766572000000000000000000000000\n      dup2\n      mstore\n      pop\n        /* \"Role3/MappingsPin.sol\":983:991  approved */\n      dup2\n        /* \"Role3/MappingsPin.sol\":992:993  8 */\n      0x08\n        /* \"Role3/MappingsPin.sol\":983:994  approved[8] */\n      dup2\n      mload\n      dup2\n      lt\n      tag_52\n      jumpi\n      tag_53\n      tag_37\n      jump\t// in\n    tag_53:\n    tag_52:\n      0x20\n      mul\n      0x20\n      add\n      add\n        /* \"Role3/MappingsPin.sol\":983:1019  approved[8] = \"Saturday Night Fever\" */\n      dup2\n      swap1\n      mstore\n      pop\n        /* \"Role3/MappingsPin.sol\":1036:1044  approved */\n      dup1\n        /* \"Role3/MappingsPin.sol\":1029:1044  return approved */\n      swap2\n      pop\n      pop\n        /* \"Role3/MappingsPin.sol\":473:1051  function getApprovedRecords()... */\n      swap1\n      jump\t// out\n        /* \"Role3/MappingsPin.sol\":1345:1442  function resetUserFavorites() external override {... */\n    tag_13:\n        /* \"Role3/MappingsPin.sol\":1410:1423  userFavorites */\n      0x00\n        /* \"Role3/MappingsPin.sol\":1410:1435  userFavorites[msg.sender] */\n      0x00\n        /* \"Role3/MappingsPin.sol\":1424:1434  msg.sender */\n      caller\n        /* \"Role3/MappingsPin.sol\":1410:1435  userFavorites[msg.sender] */\n      0xffffffffffffffffffffffffffffffffffffffff\n      and\n      0xffffffffffffffffffffffffffffffffffffffff\n      and\n      dup2\n      mstore\n      0x20\n      add\n      swap1\n      dup2\n      mstore\n      0x20\n      add\n      0x00\n      keccak256\n      0x00\n        /* \"Role3/MappingsPin.sol\":1403:1435  delete userFavorites[msg.sender] */\n      tag_55\n      swap2\n      swap1\n      tag_56\n      jump\t// in\n    tag_55:\n        /* \"Role3/MappingsPin.sol\":1345:1442  function resetUserFavorites() external override {... */\n      jump\t// out\n        /* \"Role3/MappingsPin.sol\":417:466  mapping(address => string[]) public userFavorites */\n    tag_17:\n      mstore(0x20, 0x00)\n      dup2\n      0x00\n      mstore\n      keccak256(0x00, 0x40)\n      dup2\n      dup2\n      sload\n      dup2\n      lt\n      tag_57\n      jumpi\n      0x00\n      dup1\n      revert\n    tag_57:\n      swap1\n      0x00\n      mstore\n      keccak256(0x00, 0x20)\n      add\n      0x00\n      swap2\n      pop\n      swap2\n      pop\n      pop\n      dup1\n      sload\n      tag_59\n      swap1\n      tag_60\n      jump\t// in\n    tag_59:\n      dup1\n      0x1f\n      add\n      0x20\n      dup1\n      swap2\n      div\n      mul\n      0x20\n      add\n      mload(0x40)\n      swap1\n      dup2\n      add\n      0x40\n      mstore\n      dup1\n      swap3\n      swap2\n      swap1\n      dup2\n      dup2\n      mstore\n      0x20\n      add\n      dup3\n      dup1\n      sload\n      tag_61\n      swap1\n      tag_60\n      jump\t// in\n    tag_61:\n      dup1\n      iszero\n      tag_62\n      jumpi\n      dup1\n      0x1f\n      lt\n      tag_63\n      jumpi\n      0x0100\n      dup1\n      dup4\n      sload\n      div\n      mul\n      dup4\n      mstore\n      swap2\n      0x20\n      add\n      swap2\n      jump(tag_62)\n    tag_63:\n      dup3\n      add\n      swap2\n      swap1\n      0x00\n      mstore\n      keccak256(0x00, 0x20)\n      swap1\n    tag_64:\n      dup2\n      sload\n      dup2\n      mstore\n      swap1\n      0x01\n      add\n      swap1\n      0x20\n      add\n      dup1\n      dup4\n      gt\n      tag_64\n      jumpi\n      dup3\n      swap1\n      sub\n      0x1f\n      and\n      dup3\n      add\n      swap2\n    tag_62:\n      pop\n      pop\n      pop\n      pop\n      pop\n      dup2\n      jump\t// out\n        /* \"Role3/MappingsPin.sol\":1185:1339  function getUserFavorites(... */\n    tag_23:\n        /* \"Role3/MappingsPin.sol\":1275:1290  string[] memory */\n      0x60\n        /* \"Role3/MappingsPin.sol\":1309:1322  userFavorites */\n      0x00\n        /* \"Role3/MappingsPin.sol\":1309:1332  userFavorites[_address] */\n      0x00\n        /* \"Role3/MappingsPin.sol\":1323:1331  _address */\n      dup4\n        /* \"Role3/MappingsPin.sol\":1309:1332  userFavorites[_address] */\n      0xffffffffffffffffffffffffffffffffffffffff\n      and\n      0xffffffffffffffffffffffffffffffffffffffff\n      and\n      dup2\n      mstore\n      0x20\n      add\n      swap1\n      dup2\n      mstore\n      0x20\n      add\n      0x00\n      keccak256\n        /* \"Role3/MappingsPin.sol\":1302:1332  return userFavorites[_address] */\n      dup1\n      sload\n      dup1\n      0x20\n      mul\n      0x20\n      add\n      mload(0x40)\n      swap1\n      dup2\n      add\n      0x40\n      mstore\n      dup1\n      swap3\n      swap2\n      swap1\n      dup2\n      dup2\n      mstore\n      0x20\n      add\n      0x00\n      swap1\n    tag_66:\n      dup3\n      dup3\n      lt\n      iszero\n      tag_67\n      jumpi\n      dup4\n      dup3\n      swap1\n      0x00\n      mstore\n      keccak256(0x00, 0x20)\n      add\n      dup1\n      sload\n      tag_69\n      swap1\n      tag_60\n      jump\t// in\n    tag_69:\n      dup1\n      0x1f\n      add\n      0x20\n      dup1\n      swap2\n      div\n      mul\n      0x20\n      add\n      mload(0x40)\n      swap1\n      dup2\n      add\n      0x40\n      mstore\n      dup1\n      swap3\n      swap2\n      swap1\n      dup2\n      dup2\n      mstore\n      0x20\n      add\n      dup3\n      dup1\n      sload\n      tag_70\n      swap1\n      tag_60\n      jump\t// in\n    tag_70:\n      dup1\n      iszero\n      tag_71\n      jumpi\n      dup1\n      0x1f\n      lt\n      tag_72\n      jumpi\n      0x0100\n      dup1\n      dup4\n      sload\n      div\n      mul\n      dup4\n      mstore\n      swap2\n      0x20\n      add\n      swap2\n      jump(tag_71)\n    tag_72:\n      dup3\n      add\n      swap2\n      swap1\n      0x00\n      mstore\n      keccak256(0x00, 0x20)\n      swap1\n    tag_73:\n      dup2\n      sload\n      dup2\n      mstore\n      swap1\n      0x01\n      add\n      swap1\n      0x20\n      add\n      dup1\n      dup4\n      gt\n      tag_73\n      jumpi\n      dup3\n      swap1\n      sub\n      0x1f\n      and\n      dup3\n      add\n      swap2\n    tag_71:\n      pop\n      pop\n      pop\n      pop\n      pop\n      dup2\n      mstore\n      0x20\n      add\n      swap1\n      0x01\n      add\n      swap1\n      jump(tag_66)\n    tag_67:\n      pop\n      pop\n      pop\n      pop\n      swap1\n      pop\n        /* \"Role3/MappingsPin.sol\":1185:1339  function getUserFavorites(... */\n      swap2\n      swap1\n      pop\n      jump\t// out\n        /* \"Role3/MappingsPin.sol\":1057:1179  function addRecord(string memory _albumName) external override {... */\n    tag_28:\n        /* \"Role3/MappingsPin.sol\":1130:1143  userFavorites */\n      0x00\n        /* \"Role3/MappingsPin.sol\":1130:1155  userFavorites[msg.sender] */\n      0x00\n        /* \"Role3/MappingsPin.sol\":1144:1154  msg.sender */\n      caller\n        /* \"Role3/MappingsPin.sol\":1130:1155  userFavorites[msg.sender] */\n      0xffffffffffffffffffffffffffffffffffffffff\n      and\n      0xffffffffffffffffffffffffffffffffffffffff\n      and\n      dup2\n      mstore\n      0x20\n      add\n      swap1\n      dup2\n      mstore\n      0x20\n      add\n      0x00\n      keccak256\n        /* \"Role3/MappingsPin.sol\":1161:1171  _albumName */\n      dup2\n        /* \"Role3/MappingsPin.sol\":1130:1172  userFavorites[msg.sender].push(_albumName) */\n      swap1\n      dup1\n      0x01\n      dup2\n      sload\n      add\n      dup1\n      dup3\n      sstore\n      dup1\n      swap2\n      pop\n      pop\n      0x01\n      swap1\n      sub\n      swap1\n      0x00\n      mstore\n      keccak256(0x00, 0x20)\n      add\n      0x00\n      swap1\n      swap2\n      swap1\n      swap2\n      swap1\n      swap2\n      pop\n      swap1\n      dup2\n      tag_76\n      swap2\n      swap1\n      tag_77\n      jump\t// in\n    tag_76:\n      pop\n        /* \"Role3/MappingsPin.sol\":1057:1179  function addRecord(string memory _albumName) external override {... */\n      pop\n      jump\t// out\n    tag_56:\n      pop\n      dup1\n      sload\n      0x00\n      dup3\n      sstore\n      swap1\n      0x00\n      mstore\n      keccak256(0x00, 0x20)\n      swap1\n      dup2\n      add\n      swap1\n      tag_79\n      swap2\n      swap1\n      tag_80\n      jump\t// in\n    tag_79:\n      pop\n      jump\t// out\n    tag_80:\n    tag_81:\n      dup1\n      dup3\n      gt\n      iszero\n      tag_82\n      jumpi\n      0x00\n      dup2\n      dup2\n      tag_83\n      swap2\n      swap1\n      tag_84\n      jump\t// in\n    tag_83:\n      pop\n      0x01\n      add\n      jump(tag_81)\n    tag_82:\n      pop\n      swap1\n      jump\t// out\n    tag_84:\n      pop\n      dup1\n      sload\n      tag_85\n      swap1\n      tag_60\n      jump\t// in\n    tag_85:\n      0x00\n      dup3\n      sstore\n      dup1\n      0x1f\n      lt\n      tag_87\n      jumpi\n      pop\n      jump(tag_86)\n    tag_87:\n      0x1f\n      add\n      0x20\n      swap1\n      div\n      swap1\n      0x00\n      mstore\n      keccak256(0x00, 0x20)\n      swap1\n      dup2\n      add\n      swap1\n      tag_88\n      swap2\n      swap1\n      tag_89\n      jump\t// in\n    tag_88:\n    tag_86:\n      pop\n      jump\t// out\n    tag_89:\n    tag_90:\n      dup1\n      dup3\n      gt\n      iszero\n      tag_91\n      jumpi\n      0x00\n      dup2\n      0x00\n      swap1\n      sstore\n      pop\n      0x01\n      add\n      jump(tag_90)\n    tag_91:\n      pop\n      swap1\n      jump\t// out\n        /* \"#utility.yul\":7:131   */\n    tag_92:\n        /* \"#utility.yul\":84:90   */\n      0x00\n        /* \"#utility.yul\":118:123   */\n      dup2\n        /* \"#utility.yul\":112:124   */\n      mload\n        /* \"#utility.yul\":102:124   */\n      swap1\n      pop\n        /* \"#utility.yul\":7:131   */\n      swap2\n      swap1\n      pop\n      jump\t// out\n        /* \"#utility.yul\":137:331   */\n    tag_93:\n        /* \"#utility.yul\":246:257   */\n      0x00\n        /* \"#utility.yul\":280:286   */\n      dup3\n        /* \"#utility.yul\":275:278   */\n      dup3\n        /* \"#utility.yul\":268:287   */\n      mstore\n        /* \"#utility.yul\":320:324   */\n      0x20\n        /* \"#utility.yul\":315:318   */\n      dup3\n        /* \"#utility.yul\":311:325   */\n      add\n        /* \"#utility.yul\":296:325   */\n      swap1\n      pop\n        /* \"#utility.yul\":137:331   */\n      swap3\n      swap2\n      pop\n      pop\n      jump\t// out\n        /* \"#utility.yul\":337:479   */\n    tag_94:\n        /* \"#utility.yul\":414:418   */\n      0x00\n        /* \"#utility.yul\":437:440   */\n      dup2\n        /* \"#utility.yul\":429:440   */\n      swap1\n      pop\n        /* \"#utility.yul\":467:471   */\n      0x20\n        /* \"#utility.yul\":462:465   */\n      dup3\n        /* \"#utility.yul\":458:472   */\n      add\n        /* \"#utility.yul\":450:472   */\n      swap1\n      pop\n        /* \"#utility.yul\":337:479   */\n      swap2\n      swap1\n      pop\n      jump\t// out\n        /* \"#utility.yul\":485:584   */\n    tag_95:\n        /* \"#utility.yul\":537:543   */\n      0x00\n        /* \"#utility.yul\":571:576   */\n      dup2\n        /* \"#utility.yul\":565:577   */\n      mload\n        /* \"#utility.yul\":555:577   */\n      swap1\n      pop\n        /* \"#utility.yul\":485:584   */\n      swap2\n      swap1\n      pop\n      jump\t// out\n        /* \"#utility.yul\":590:749   */\n    tag_96:\n        /* \"#utility.yul\":664:675   */\n      0x00\n        /* \"#utility.yul\":698:704   */\n      dup3\n        /* \"#utility.yul\":693:696   */\n      dup3\n        /* \"#utility.yul\":686:705   */\n      mstore\n        /* \"#utility.yul\":738:742   */\n      0x20\n        /* \"#utility.yul\":733:736   */\n      dup3\n        /* \"#utility.yul\":729:743   */\n      add\n        /* \"#utility.yul\":714:743   */\n      swap1\n      pop\n        /* \"#utility.yul\":590:749   */\n      swap3\n      swap2\n      pop\n      pop\n      jump\t// out\n        /* \"#utility.yul\":755:894   */\n    tag_97:\n        /* \"#utility.yul\":844:850   */\n      dup3\n        /* \"#utility.yul\":839:842   */\n      dup2\n        /* \"#utility.yul\":834:837   */\n      dup4\n        /* \"#utility.yul\":828:851   */\n      mcopy\n        /* \"#utility.yul\":885:886   */\n      0x00\n        /* \"#utility.yul\":876:882   */\n      dup4\n        /* \"#utility.yul\":871:874   */\n      dup4\n        /* \"#utility.yul\":867:883   */\n      add\n        /* \"#utility.yul\":860:887   */\n      mstore\n        /* \"#utility.yul\":755:894   */\n      pop\n      pop\n      pop\n      jump\t// out\n        /* \"#utility.yul\":900:1002   */\n    tag_98:\n        /* \"#utility.yul\":941:947   */\n      0x00\n        /* \"#utility.yul\":992:994   */\n      0x1f\n        /* \"#utility.yul\":988:995   */\n      not\n        /* \"#utility.yul\":983:985   */\n      0x1f\n        /* \"#utility.yul\":976:981   */\n      dup4\n        /* \"#utility.yul\":972:986   */\n      add\n        /* \"#utility.yul\":968:996   */\n      and\n        /* \"#utility.yul\":958:996   */\n      swap1\n      pop\n        /* \"#utility.yul\":900:1002   */\n      swap2\n      swap1\n      pop\n      jump\t// out\n        /* \"#utility.yul\":1008:1365   */\n    tag_99:\n        /* \"#utility.yul\":1086:1089   */\n      0x00\n        /* \"#utility.yul\":1114:1153   */\n      tag_148\n        /* \"#utility.yul\":1147:1152   */\n      dup3\n        /* \"#utility.yul\":1114:1153   */\n      tag_95\n      jump\t// in\n    tag_148:\n        /* \"#utility.yul\":1169:1230   */\n      tag_149\n        /* \"#utility.yul\":1223:1229   */\n      dup2\n        /* \"#utility.yul\":1218:1221   */\n      dup6\n        /* \"#utility.yul\":1169:1230   */\n      tag_96\n      jump\t// in\n    tag_149:\n        /* \"#utility.yul\":1162:1230   */\n      swap4\n      pop\n        /* \"#utility.yul\":1239:1304   */\n      tag_150\n        /* \"#utility.yul\":1297:1303   */\n      dup2\n        /* \"#utility.yul\":1292:1295   */\n      dup6\n        /* \"#utility.yul\":1285:1289   */\n      0x20\n        /* \"#utility.yul\":1278:1283   */\n      dup7\n        /* \"#utility.yul\":1274:1290   */\n      add\n        /* \"#utility.yul\":1239:1304   */\n      tag_97\n      jump\t// in\n    tag_150:\n        /* \"#utility.yul\":1329:1358   */\n      tag_151\n        /* \"#utility.yul\":1351:1357   */\n      dup2\n        /* \"#utility.yul\":1329:1358   */\n      tag_98\n      jump\t// in\n    tag_151:\n        /* \"#utility.yul\":1324:1327   */\n      dup5\n        /* \"#utility.yul\":1320:1359   */\n      add\n        /* \"#utility.yul\":1313:1359   */\n      swap2\n      pop\n        /* \"#utility.yul\":1090:1365   */\n      pop\n        /* \"#utility.yul\":1008:1365   */\n      swap3\n      swap2\n      pop\n      pop\n      jump\t// out\n        /* \"#utility.yul\":1371:1567   */\n    tag_100:\n        /* \"#utility.yul\":1460:1470   */\n      0x00\n        /* \"#utility.yul\":1495:1561   */\n      tag_153\n        /* \"#utility.yul\":1557:1560   */\n      dup4\n        /* \"#utility.yul\":1549:1555   */\n      dup4\n        /* \"#utility.yul\":1495:1561   */\n      tag_99\n      jump\t// in\n    tag_153:\n        /* \"#utility.yul\":1481:1561   */\n      swap1\n      pop\n        /* \"#utility.yul\":1371:1567   */\n      swap3\n      swap2\n      pop\n      pop\n      jump\t// out\n        /* \"#utility.yul\":1573:1696   */\n    tag_101:\n        /* \"#utility.yul\":1653:1657   */\n      0x00\n        /* \"#utility.yul\":1685:1689   */\n      0x20\n        /* \"#utility.yul\":1680:1683   */\n      dup3\n        /* \"#utility.yul\":1676:1690   */\n      add\n        /* \"#utility.yul\":1668:1690   */\n      swap1\n      pop\n        /* \"#utility.yul\":1573:1696   */\n      swap2\n      swap1\n      pop\n      jump\t// out\n        /* \"#utility.yul\":1730:2721   */\n    tag_102:\n        /* \"#utility.yul\":1869:1872   */\n      0x00\n        /* \"#utility.yul\":1898:1962   */\n      tag_156\n        /* \"#utility.yul\":1956:1961   */\n      dup3\n        /* \"#utility.yul\":1898:1962   */\n      tag_92\n      jump\t// in\n    tag_156:\n        /* \"#utility.yul\":1978:2074   */\n      tag_157\n        /* \"#utility.yul\":2067:2073   */\n      dup2\n        /* \"#utility.yul\":2062:2065   */\n      dup6\n        /* \"#utility.yul\":1978:2074   */\n      tag_93\n      jump\t// in\n    tag_157:\n        /* \"#utility.yul\":1971:2074   */\n      swap4\n      pop\n        /* \"#utility.yul\":2100:2103   */\n      dup4\n        /* \"#utility.yul\":2145:2149   */\n      0x20\n        /* \"#utility.yul\":2137:2143   */\n      dup3\n        /* \"#utility.yul\":2133:2150   */\n      mul\n        /* \"#utility.yul\":2128:2131   */\n      dup6\n        /* \"#utility.yul\":2124:2151   */\n      add\n        /* \"#utility.yul\":2175:2241   */\n      tag_158\n        /* \"#utility.yul\":2235:2240   */\n      dup6\n        /* \"#utility.yul\":2175:2241   */\n      tag_94\n      jump\t// in\n    tag_158:\n        /* \"#utility.yul\":2264:2271   */\n      dup1\n        /* \"#utility.yul\":2295:2296   */\n      0x00\n        /* \"#utility.yul\":2280:2676   */\n    tag_159:\n        /* \"#utility.yul\":2305:2311   */\n      dup6\n        /* \"#utility.yul\":2302:2303   */\n      dup2\n        /* \"#utility.yul\":2299:2312   */\n      lt\n        /* \"#utility.yul\":2280:2676   */\n      iszero\n      tag_161\n      jumpi\n        /* \"#utility.yul\":2376:2385   */\n      dup5\n        /* \"#utility.yul\":2370:2374   */\n      dup5\n        /* \"#utility.yul\":2366:2386   */\n      sub\n        /* \"#utility.yul\":2361:2364   */\n      dup10\n        /* \"#utility.yul\":2354:2387   */\n      mstore\n        /* \"#utility.yul\":2427:2433   */\n      dup2\n        /* \"#utility.yul\":2421:2434   */\n      mload\n        /* \"#utility.yul\":2455:2539   */\n      tag_162\n        /* \"#utility.yul\":2534:2538   */\n      dup6\n        /* \"#utility.yul\":2519:2532   */\n      dup3\n        /* \"#utility.yul\":2455:2539   */\n      tag_100\n      jump\t// in\n    tag_162:\n        /* \"#utility.yul\":2447:2539   */\n      swap5\n      pop\n        /* \"#utility.yul\":2562:2632   */\n      tag_163\n        /* \"#utility.yul\":2625:2631   */\n      dup4\n        /* \"#utility.yul\":2562:2632   */\n      tag_101\n      jump\t// in\n    tag_163:\n        /* \"#utility.yul\":2552:2632   */\n      swap3\n      pop\n        /* \"#utility.yul\":2661:2665   */\n      0x20\n        /* \"#utility.yul\":2656:2659   */\n      dup11\n        /* \"#utility.yul\":2652:2666   */\n      add\n        /* \"#utility.yul\":2645:2666   */\n      swap10\n      pop\n        /* \"#utility.yul\":2340:2676   */\n      pop\n        /* \"#utility.yul\":2327:2328   */\n      0x01\n        /* \"#utility.yul\":2324:2325   */\n      dup2\n        /* \"#utility.yul\":2320:2329   */\n      add\n        /* \"#utility.yul\":2315:2329   */\n      swap1\n      pop\n        /* \"#utility.yul\":2280:2676   */\n      jump(tag_159)\n    tag_161:\n        /* \"#utility.yul\":2284:2298   */\n      pop\n        /* \"#utility.yul\":2692:2696   */\n      dup3\n        /* \"#utility.yul\":2685:2696   */\n      swap8\n      pop\n        /* \"#utility.yul\":2712:2715   */\n      dup8\n        /* \"#utility.yul\":2705:2715   */\n      swap6\n      pop\n        /* \"#utility.yul\":1874:2721   */\n      pop\n      pop\n      pop\n      pop\n      pop\n        /* \"#utility.yul\":1730:2721   */\n      swap3\n      swap2\n      pop\n      pop\n      jump\t// out\n        /* \"#utility.yul\":2727:3140   */\n    tag_11:\n        /* \"#utility.yul\":2890:2894   */\n      0x00\n        /* \"#utility.yul\":2928:2930   */\n      0x20\n        /* \"#utility.yul\":2917:2926   */\n      dup3\n        /* \"#utility.yul\":2913:2931   */\n      add\n        /* \"#utility.yul\":2905:2931   */\n      swap1\n      pop\n        /* \"#utility.yul\":2977:2986   */\n      dup2\n        /* \"#utility.yul\":2971:2975   */\n      dup2\n        /* \"#utility.yul\":2967:2987   */\n      sub\n        /* \"#utility.yul\":2963:2964   */\n      0x00\n        /* \"#utility.yul\":2952:2961   */\n      dup4\n        /* \"#utility.yul\":2948:2965   */\n      add\n        /* \"#utility.yul\":2941:2988   */\n      mstore\n        /* \"#utility.yul\":3005:3133   */\n      tag_165\n        /* \"#utility.yul\":3128:3132   */\n      dup2\n        /* \"#utility.yul\":3119:3125   */\n      dup5\n        /* \"#utility.yul\":3005:3133   */\n      tag_102\n      jump\t// in\n    tag_165:\n        /* \"#utility.yul\":2997:3133   */\n      swap1\n      pop\n        /* \"#utility.yul\":2727:3140   */\n      swap3\n      swap2\n      pop\n      pop\n      jump\t// out\n        /* \"#utility.yul\":3146:3221   */\n    tag_103:\n        /* \"#utility.yul\":3179:3185   */\n      0x00\n        /* \"#utility.yul\":3212:3214   */\n      0x40\n        /* \"#utility.yul\":3206:3215   */\n      mload\n        /* \"#utility.yul\":3196:3215   */\n      swap1\n      pop\n        /* \"#utility.yul\":3146:3221   */\n      swap1\n      jump\t// out\n        /* \"#utility.yul\":3227:3344   */\n    tag_104:\n        /* \"#utility.yul\":3336:3337   */\n      0x00\n        /* \"#utility.yul\":3333:3334   */\n      0x00\n        /* \"#utility.yul\":3326:3338   */\n      revert\n        /* \"#utility.yul\":3350:3467   */\n    tag_105:\n        /* \"#utility.yul\":3459:3460   */\n      0x00\n        /* \"#utility.yul\":3456:3457   */\n      0x00\n        /* \"#utility.yul\":3449:3461   */\n      revert\n        /* \"#utility.yul\":3473:3599   */\n    tag_106:\n        /* \"#utility.yul\":3510:3517   */\n      0x00\n        /* \"#utility.yul\":3550:3592   */\n      0xffffffffffffffffffffffffffffffffffffffff\n        /* \"#utility.yul\":3543:3548   */\n      dup3\n        /* \"#utility.yul\":3539:3593   */\n      and\n        /* \"#utility.yul\":3528:3593   */\n      swap1\n      pop\n        /* \"#utility.yul\":3473:3599   */\n      swap2\n      swap1\n      pop\n      jump\t// out\n        /* \"#utility.yul\":3605:3701   */\n    tag_107:\n        /* \"#utility.yul\":3642:3649   */\n      0x00\n        /* \"#utility.yul\":3671:3695   */\n      tag_171\n        /* \"#utility.yul\":3689:3694   */\n      dup3\n        /* \"#utility.yul\":3671:3695   */\n      tag_106\n      jump\t// in\n    tag_171:\n        /* \"#utility.yul\":3660:3695   */\n      swap1\n      pop\n        /* \"#utility.yul\":3605:3701   */\n      swap2\n      swap1\n      pop\n      jump\t// out\n        /* \"#utility.yul\":3707:3829   */\n    tag_108:\n        /* \"#utility.yul\":3780:3804   */\n      tag_173\n        /* \"#utility.yul\":3798:3803   */\n      dup2\n        /* \"#utility.yul\":3780:3804   */\n      tag_107\n      jump\t// in\n    tag_173:\n        /* \"#utility.yul\":3773:3778   */\n      dup2\n        /* \"#utility.yul\":3770:3805   */\n      eq\n        /* \"#utility.yul\":3760:3823   */\n      tag_174\n      jumpi\n        /* \"#utility.yul\":3819:3820   */\n      0x00\n        /* \"#utility.yul\":3816:3817   */\n      0x00\n        /* \"#utility.yul\":3809:3821   */\n      revert\n        /* \"#utility.yul\":3760:3823   */\n    tag_174:\n        /* \"#utility.yul\":3707:3829   */\n      pop\n      jump\t// out\n        /* \"#utility.yul\":3835:3974   */\n    tag_109:\n        /* \"#utility.yul\":3881:3886   */\n      0x00\n        /* \"#utility.yul\":3919:3925   */\n      dup2\n        /* \"#utility.yul\":3906:3926   */\n      calldataload\n        /* \"#utility.yul\":3897:3926   */\n      swap1\n      pop\n        /* \"#utility.yul\":3935:3968   */\n      tag_176\n        /* \"#utility.yul\":3962:3967   */\n      dup2\n        /* \"#utility.yul\":3935:3968   */\n      tag_108\n      jump\t// in\n    tag_176:\n        /* \"#utility.yul\":3835:3974   */\n      swap3\n      swap2\n      pop\n      pop\n      jump\t// out\n        /* \"#utility.yul\":3980:4057   */\n    tag_110:\n        /* \"#utility.yul\":4017:4024   */\n      0x00\n        /* \"#utility.yul\":4046:4051   */\n      dup2\n        /* \"#utility.yul\":4035:4051   */\n      swap1\n      pop\n        /* \"#utility.yul\":3980:4057   */\n      swap2\n      swap1\n      pop\n      jump\t// out\n        /* \"#utility.yul\":4063:4185   */\n    tag_111:\n        /* \"#utility.yul\":4136:4160   */\n      tag_179\n        /* \"#utility.yul\":4154:4159   */\n      dup2\n        /* \"#utility.yul\":4136:4160   */\n      tag_110\n      jump\t// in\n    tag_179:\n        /* \"#utility.yul\":4129:4134   */\n      dup2\n        /* \"#utility.yul\":4126:4161   */\n      eq\n        /* \"#utility.yul\":4116:4179   */\n      tag_180\n      jumpi\n        /* \"#utility.yul\":4175:4176   */\n      0x00\n        /* \"#utility.yul\":4172:4173   */\n      0x00\n        /* \"#utility.yul\":4165:4177   */\n      revert\n        /* \"#utility.yul\":4116:4179   */\n    tag_180:\n        /* \"#utility.yul\":4063:4185   */\n      pop\n      jump\t// out\n        /* \"#utility.yul\":4191:4330   */\n    tag_112:\n        /* \"#utility.yul\":4237:4242   */\n      0x00\n        /* \"#utility.yul\":4275:4281   */\n      dup2\n        /* \"#utility.yul\":4262:4282   */\n      calldataload\n        /* \"#utility.yul\":4253:4282   */\n      swap1\n      pop\n        /* \"#utility.yul\":4291:4324   */\n      tag_182\n        /* \"#utility.yul\":4318:4323   */\n      dup2\n        /* \"#utility.yul\":4291:4324   */\n      tag_111\n      jump\t// in\n    tag_182:\n        /* \"#utility.yul\":4191:4330   */\n      swap3\n      swap2\n      pop\n      pop\n      jump\t// out\n        /* \"#utility.yul\":4336:4810   */\n    tag_16:\n        /* \"#utility.yul\":4404:4410   */\n      0x00\n        /* \"#utility.yul\":4412:4418   */\n      0x00\n        /* \"#utility.yul\":4461:4463   */\n      0x40\n        /* \"#utility.yul\":4449:4458   */\n      dup4\n        /* \"#utility.yul\":4440:4447   */\n      dup6\n        /* \"#utility.yul\":4436:4459   */\n      sub\n        /* \"#utility.yul\":4432:4464   */\n      slt\n        /* \"#utility.yul\":4429:4548   */\n      iszero\n      tag_184\n      jumpi\n        /* \"#utility.yul\":4467:4546   */\n      tag_185\n      tag_104\n      jump\t// in\n    tag_185:\n        /* \"#utility.yul\":4429:4548   */\n    tag_184:\n        /* \"#utility.yul\":4587:4588   */\n      0x00\n        /* \"#utility.yul\":4612:4665   */\n      tag_186\n        /* \"#utility.yul\":4657:4664   */\n      dup6\n        /* \"#utility.yul\":4648:4654   */\n      dup3\n        /* \"#utility.yul\":4637:4646   */\n      dup7\n        /* \"#utility.yul\":4633:4655   */\n      add\n        /* \"#utility.yul\":4612:4665   */\n      tag_109\n      jump\t// in\n    tag_186:\n        /* \"#utility.yul\":4602:4665   */\n      swap3\n      pop\n        /* \"#utility.yul\":4558:4675   */\n      pop\n        /* \"#utility.yul\":4714:4716   */\n      0x20\n        /* \"#utility.yul\":4740:4793   */\n      tag_187\n        /* \"#utility.yul\":4785:4792   */\n      dup6\n        /* \"#utility.yul\":4776:4782   */\n      dup3\n        /* \"#utility.yul\":4765:4774   */\n      dup7\n        /* \"#utility.yul\":4761:4783   */\n      add\n        /* \"#utility.yul\":4740:4793   */\n      tag_112\n      jump\t// in\n    tag_187:\n        /* \"#utility.yul\":4730:4793   */\n      swap2\n      pop\n        /* \"#utility.yul\":4685:4803   */\n      pop\n        /* \"#utility.yul\":4336:4810   */\n      swap3\n      pop\n      swap3\n      swap1\n      pop\n      jump\t// out\n        /* \"#utility.yul\":4816:4985   */\n    tag_113:\n        /* \"#utility.yul\":4900:4911   */\n      0x00\n        /* \"#utility.yul\":4934:4940   */\n      dup3\n        /* \"#utility.yul\":4929:4932   */\n      dup3\n        /* \"#utility.yul\":4922:4941   */\n      mstore\n        /* \"#utility.yul\":4974:4978   */\n      0x20\n        /* \"#utility.yul\":4969:4972   */\n      dup3\n        /* \"#utility.yul\":4965:4979   */\n      add\n        /* \"#utility.yul\":4950:4979   */\n      swap1\n      pop\n        /* \"#utility.yul\":4816:4985   */\n      swap3\n      swap2\n      pop\n      pop\n      jump\t// out\n        /* \"#utility.yul\":4991:5368   */\n    tag_114:\n        /* \"#utility.yul\":5079:5082   */\n      0x00\n        /* \"#utility.yul\":5107:5146   */\n      tag_190\n        /* \"#utility.yul\":5140:5145   */\n      dup3\n        /* \"#utility.yul\":5107:5146   */\n      tag_95\n      jump\t// in\n    tag_190:\n        /* \"#utility.yul\":5162:5233   */\n      tag_191\n        /* \"#utility.yul\":5226:5232   */\n      dup2\n        /* \"#utility.yul\":5221:5224   */\n      dup6\n        /* \"#utility.yul\":5162:5233   */\n      tag_113\n      jump\t// in\n    tag_191:\n        /* \"#utility.yul\":5155:5233   */\n      swap4\n      pop\n        /* \"#utility.yul\":5242:5307   */\n      tag_192\n        /* \"#utility.yul\":5300:5306   */\n      dup2\n        /* \"#utility.yul\":5295:5298   */\n      dup6\n        /* \"#utility.yul\":5288:5292   */\n      0x20\n        /* \"#utility.yul\":5281:5286   */\n      dup7\n        /* \"#utility.yul\":5277:5293   */\n      add\n        /* \"#utility.yul\":5242:5307   */\n      tag_97\n      jump\t// in\n    tag_192:\n        /* \"#utility.yul\":5332:5361   */\n      tag_193\n        /* \"#utility.yul\":5354:5360   */\n      dup2\n        /* \"#utility.yul\":5332:5361   */\n      tag_98\n      jump\t// in\n    tag_193:\n        /* \"#utility.yul\":5327:5330   */\n      dup5\n        /* \"#utility.yul\":5323:5362   */\n      add\n        /* \"#utility.yul\":5316:5362   */\n      swap2\n      pop\n        /* \"#utility.yul\":5083:5368   */\n      pop\n        /* \"#utility.yul\":4991:5368   */\n      swap3\n      swap2\n      pop\n      pop\n      jump\t// out\n        /* \"#utility.yul\":5374:5687   */\n    tag_19:\n        /* \"#utility.yul\":5487:5491   */\n      0x00\n        /* \"#utility.yul\":5525:5527   */\n      0x20\n        /* \"#utility.yul\":5514:5523   */\n      dup3\n        /* \"#utility.yul\":5510:5528   */\n      add\n        /* \"#utility.yul\":5502:5528   */\n      swap1\n      pop\n        /* \"#utility.yul\":5574:5583   */\n      dup2\n        /* \"#utility.yul\":5568:5572   */\n      dup2\n        /* \"#utility.yul\":5564:5584   */\n      sub\n        /* \"#utility.yul\":5560:5561   */\n      0x00\n        /* \"#utility.yul\":5549:5558   */\n      dup4\n        /* \"#utility.yul\":5545:5562   */\n      add\n        /* \"#utility.yul\":5538:5585   */\n      mstore\n        /* \"#utility.yul\":5602:5680   */\n      tag_195\n        /* \"#utility.yul\":5675:5679   */\n      dup2\n        /* \"#utility.yul\":5666:5672   */\n      dup5\n        /* \"#utility.yul\":5602:5680   */\n      tag_114\n      jump\t// in\n    tag_195:\n        /* \"#utility.yul\":5594:5680   */\n      swap1\n      pop\n        /* \"#utility.yul\":5374:5687   */\n      swap3\n      swap2\n      pop\n      pop\n      jump\t// out\n        /* \"#utility.yul\":5693:6022   */\n    tag_22:\n        /* \"#utility.yul\":5752:5758   */\n      0x00\n        /* \"#utility.yul\":5801:5803   */\n      0x20\n        /* \"#utility.yul\":5789:5798   */\n      dup3\n        /* \"#utility.yul\":5780:5787   */\n      dup5\n        /* \"#utility.yul\":5776:5799   */\n      sub\n        /* \"#utility.yul\":5772:5804   */\n      slt\n        /* \"#utility.yul\":5769:5888   */\n      iszero\n      tag_197\n      jumpi\n        /* \"#utility.yul\":5807:5886   */\n      tag_198\n      tag_104\n      jump\t// in\n    tag_198:\n        /* \"#utility.yul\":5769:5888   */\n    tag_197:\n        /* \"#utility.yul\":5927:5928   */\n      0x00\n        /* \"#utility.yul\":5952:6005   */\n      tag_199\n        /* \"#utility.yul\":5997:6004   */\n      dup5\n        /* \"#utility.yul\":5988:5994   */\n      dup3\n        /* \"#utility.yul\":5977:5986   */\n      dup6\n        /* \"#utility.yul\":5973:5995   */\n      add\n        /* \"#utility.yul\":5952:6005   */\n      tag_109\n      jump\t// in\n    tag_199:\n        /* \"#utility.yul\":5942:6005   */\n      swap2\n      pop\n        /* \"#utility.yul\":5898:6015   */\n      pop\n        /* \"#utility.yul\":5693:6022   */\n      swap3\n      swap2\n      pop\n      pop\n      jump\t// out\n        /* \"#utility.yul\":6028:6145   */\n    tag_115:\n        /* \"#utility.yul\":6137:6138   */\n      0x00\n        /* \"#utility.yul\":6134:6135   */\n      0x00\n        /* \"#utility.yul\":6127:6139   */\n      revert\n        /* \"#utility.yul\":6151:6268   */\n    tag_116:\n        /* \"#utility.yul\":6260:6261   */\n      0x00\n        /* \"#utility.yul\":6257:6258   */\n      0x00\n        /* \"#utility.yul\":6250:6262   */\n      revert\n        /* \"#utility.yul\":6274:6454   */\n    tag_32:\n        /* \"#utility.yul\":6322:6399   */\n      0x4e487b7100000000000000000000000000000000000000000000000000000000\n        /* \"#utility.yul\":6319:6320   */\n      0x00\n        /* \"#utility.yul\":6312:6400   */\n      mstore\n        /* \"#utility.yul\":6419:6423   */\n      0x41\n        /* \"#utility.yul\":6416:6417   */\n      0x04\n        /* \"#utility.yul\":6409:6424   */\n      mstore\n        /* \"#utility.yul\":6443:6447   */\n      0x24\n        /* \"#utility.yul\":6440:6441   */\n      0x00\n        /* \"#utility.yul\":6433:6448   */\n      revert\n        /* \"#utility.yul\":6460:6741   */\n    tag_117:\n        /* \"#utility.yul\":6543:6570   */\n      tag_204\n        /* \"#utility.yul\":6565:6569   */\n      dup3\n        /* \"#utility.yul\":6543:6570   */\n      tag_98\n      jump\t// in\n    tag_204:\n        /* \"#utility.yul\":6535:6541   */\n      dup2\n        /* \"#utility.yul\":6531:6571   */\n      add\n        /* \"#utility.yul\":6673:6679   */\n      dup2\n        /* \"#utility.yul\":6661:6671   */\n      dup2\n        /* \"#utility.yul\":6658:6680   */\n      lt\n        /* \"#utility.yul\":6637:6655   */\n      0xffffffffffffffff\n        /* \"#utility.yul\":6625:6635   */\n      dup3\n        /* \"#utility.yul\":6622:6656   */\n      gt\n        /* \"#utility.yul\":6619:6681   */\n      or\n        /* \"#utility.yul\":6616:6704   */\n      iszero\n      tag_205\n      jumpi\n        /* \"#utility.yul\":6684:6702   */\n      tag_206\n      tag_32\n      jump\t// in\n    tag_206:\n        /* \"#utility.yul\":6616:6704   */\n    tag_205:\n        /* \"#utility.yul\":6724:6734   */\n      dup1\n        /* \"#utility.yul\":6720:6722   */\n      0x40\n        /* \"#utility.yul\":6713:6735   */\n      mstore\n        /* \"#utility.yul\":6503:6741   */\n      pop\n        /* \"#utility.yul\":6460:6741   */\n      pop\n      pop\n      jump\t// out\n        /* \"#utility.yul\":6747:6876   */\n    tag_118:\n        /* \"#utility.yul\":6781:6787   */\n      0x00\n        /* \"#utility.yul\":6808:6828   */\n      tag_208\n      tag_103\n      jump\t// in\n    tag_208:\n        /* \"#utility.yul\":6798:6828   */\n      swap1\n      pop\n        /* \"#utility.yul\":6837:6870   */\n      tag_209\n        /* \"#utility.yul\":6865:6869   */\n      dup3\n        /* \"#utility.yul\":6857:6863   */\n      dup3\n        /* \"#utility.yul\":6837:6870   */\n      tag_117\n      jump\t// in\n    tag_209:\n        /* \"#utility.yul\":6747:6876   */\n      swap2\n      swap1\n      pop\n      jump\t// out\n        /* \"#utility.yul\":6882:7190   */\n    tag_119:\n        /* \"#utility.yul\":6944:6948   */\n      0x00\n        /* \"#utility.yul\":7034:7052   */\n      0xffffffffffffffff\n        /* \"#utility.yul\":7026:7032   */\n      dup3\n        /* \"#utility.yul\":7023:7053   */\n      gt\n        /* \"#utility.yul\":7020:7076   */\n      iszero\n      tag_211\n      jumpi\n        /* \"#utility.yul\":7056:7074   */\n      tag_212\n      tag_32\n      jump\t// in\n    tag_212:\n        /* \"#utility.yul\":7020:7076   */\n    tag_211:\n        /* \"#utility.yul\":7094:7123   */\n      tag_213\n        /* \"#utility.yul\":7116:7122   */\n      dup3\n        /* \"#utility.yul\":7094:7123   */\n      tag_98\n      jump\t// in\n    tag_213:\n        /* \"#utility.yul\":7086:7123   */\n      swap1\n      pop\n        /* \"#utility.yul\":7178:7182   */\n      0x20\n        /* \"#utility.yul\":7172:7176   */\n      dup2\n        /* \"#utility.yul\":7168:7183   */\n      add\n        /* \"#utility.yul\":7160:7183   */\n      swap1\n      pop\n        /* \"#utility.yul\":6882:7190   */\n      swap2\n      swap1\n      pop\n      jump\t// out\n        /* \"#utility.yul\":7196:7344   */\n    tag_120:\n        /* \"#utility.yul\":7294:7300   */\n      dup3\n        /* \"#utility.yul\":7289:7292   */\n      dup2\n        /* \"#utility.yul\":7284:7287   */\n      dup4\n        /* \"#utility.yul\":7271:7301   */\n      calldatacopy\n        /* \"#utility.yul\":7335:7336   */\n      0x00\n        /* \"#utility.yul\":7326:7332   */\n      dup4\n        /* \"#utility.yul\":7321:7324   */\n      dup4\n        /* \"#utility.yul\":7317:7333   */\n      add\n        /* \"#utility.yul\":7310:7337   */\n      mstore\n        /* \"#utility.yul\":7196:7344   */\n      pop\n      pop\n      pop\n      jump\t// out\n        /* \"#utility.yul\":7350:7775   */\n    tag_121:\n        /* \"#utility.yul\":7428:7433   */\n      0x00\n        /* \"#utility.yul\":7453:7519   */\n      tag_216\n        /* \"#utility.yul\":7469:7518   */\n      tag_217\n        /* \"#utility.yul\":7511:7517   */\n      dup5\n        /* \"#utility.yul\":7469:7518   */\n      tag_119\n      jump\t// in\n    tag_217:\n        /* \"#utility.yul\":7453:7519   */\n      tag_118\n      jump\t// in\n    tag_216:\n        /* \"#utility.yul\":7444:7519   */\n      swap1\n      pop\n        /* \"#utility.yul\":7542:7548   */\n      dup3\n        /* \"#utility.yul\":7535:7540   */\n      dup2\n        /* \"#utility.yul\":7528:7549   */\n      mstore\n        /* \"#utility.yul\":7580:7584   */\n      0x20\n        /* \"#utility.yul\":7573:7578   */\n      dup2\n        /* \"#utility.yul\":7569:7585   */\n      add\n        /* \"#utility.yul\":7618:7621   */\n      dup5\n        /* \"#utility.yul\":7609:7615   */\n      dup5\n        /* \"#utility.yul\":7604:7607   */\n      dup5\n        /* \"#utility.yul\":7600:7616   */\n      add\n        /* \"#utility.yul\":7597:7622   */\n      gt\n        /* \"#utility.yul\":7594:7706   */\n      iszero\n      tag_218\n      jumpi\n        /* \"#utility.yul\":7625:7704   */\n      tag_219\n      tag_116\n      jump\t// in\n    tag_219:\n        /* \"#utility.yul\":7594:7706   */\n    tag_218:\n        /* \"#utility.yul\":7715:7769   */\n      tag_220\n        /* \"#utility.yul\":7762:7768   */\n      dup5\n        /* \"#utility.yul\":7757:7760   */\n      dup3\n        /* \"#utility.yul\":7752:7755   */\n      dup6\n        /* \"#utility.yul\":7715:7769   */\n      tag_120\n      jump\t// in\n    tag_220:\n        /* \"#utility.yul\":7434:7775   */\n      pop\n        /* \"#utility.yul\":7350:7775   */\n      swap4\n      swap3\n      pop\n      pop\n      pop\n      jump\t// out\n        /* \"#utility.yul\":7795:8135   */\n    tag_122:\n        /* \"#utility.yul\":7851:7856   */\n      0x00\n        /* \"#utility.yul\":7900:7903   */\n      dup3\n        /* \"#utility.yul\":7893:7897   */\n      0x1f\n        /* \"#utility.yul\":7885:7891   */\n      dup4\n        /* \"#utility.yul\":7881:7898   */\n      add\n        /* \"#utility.yul\":7877:7904   */\n      slt\n        /* \"#utility.yul\":7867:7989   */\n      tag_222\n      jumpi\n        /* \"#utility.yul\":7908:7987   */\n      tag_223\n      tag_115\n      jump\t// in\n    tag_223:\n        /* \"#utility.yul\":7867:7989   */\n    tag_222:\n        /* \"#utility.yul\":8025:8031   */\n      dup2\n        /* \"#utility.yul\":8012:8032   */\n      calldataload\n        /* \"#utility.yul\":8050:8129   */\n      tag_224\n        /* \"#utility.yul\":8125:8128   */\n      dup5\n        /* \"#utility.yul\":8117:8123   */\n      dup3\n        /* \"#utility.yul\":8110:8114   */\n      0x20\n        /* \"#utility.yul\":8102:8108   */\n      dup7\n        /* \"#utility.yul\":8098:8115   */\n      add\n        /* \"#utility.yul\":8050:8129   */\n      tag_121\n      jump\t// in\n    tag_224:\n        /* \"#utility.yul\":8041:8129   */\n      swap2\n      pop\n        /* \"#utility.yul\":7857:8135   */\n      pop\n        /* \"#utility.yul\":7795:8135   */\n      swap3\n      swap2\n      pop\n      pop\n      jump\t// out\n        /* \"#utility.yul\":8141:8650   */\n    tag_27:\n        /* \"#utility.yul\":8210:8216   */\n      0x00\n        /* \"#utility.yul\":8259:8261   */\n      0x20\n        /* \"#utility.yul\":8247:8256   */\n      dup3\n        /* \"#utility.yul\":8238:8245   */\n      dup5\n        /* \"#utility.yul\":8234:8257   */\n      sub\n        /* \"#utility.yul\":8230:8262   */\n      slt\n        /* \"#utility.yul\":8227:8346   */\n      iszero\n      tag_226\n      jumpi\n        /* \"#utility.yul\":8265:8344   */\n      tag_227\n      tag_104\n      jump\t// in\n    tag_227:\n        /* \"#utility.yul\":8227:8346   */\n    tag_226:\n        /* \"#utility.yul\":8413:8414   */\n      0x00\n        /* \"#utility.yul\":8402:8411   */\n      dup3\n        /* \"#utility.yul\":8398:8415   */\n      add\n        /* \"#utility.yul\":8385:8416   */\n      calldataload\n        /* \"#utility.yul\":8443:8461   */\n      0xffffffffffffffff\n        /* \"#utility.yul\":8435:8441   */\n      dup2\n        /* \"#utility.yul\":8432:8462   */\n      gt\n        /* \"#utility.yul\":8429:8546   */\n      iszero\n      tag_228\n      jumpi\n        /* \"#utility.yul\":8465:8544   */\n      tag_229\n      tag_105\n      jump\t// in\n    tag_229:\n        /* \"#utility.yul\":8429:8546   */\n    tag_228:\n        /* \"#utility.yul\":8570:8633   */\n      tag_230\n        /* \"#utility.yul\":8625:8632   */\n      dup5\n        /* \"#utility.yul\":8616:8622   */\n      dup3\n        /* \"#utility.yul\":8605:8614   */\n      dup6\n        /* \"#utility.yul\":8601:8623   */\n      add\n        /* \"#utility.yul\":8570:8633   */\n      tag_122\n      jump\t// in\n    tag_230:\n        /* \"#utility.yul\":8560:8633   */\n      swap2\n      pop\n        /* \"#utility.yul\":8356:8643   */\n      pop\n        /* \"#utility.yul\":8141:8650   */\n      swap3\n      swap2\n      pop\n      pop\n      jump\t// out\n        /* \"#utility.yul\":8656:8836   */\n    tag_37:\n        /* \"#utility.yul\":8704:8781   */\n      0x4e487b7100000000000000000000000000000000000000000000000000000000\n        /* \"#utility.yul\":8701:8702   */\n      0x00\n        /* \"#utility.yul\":8694:8782   */\n      mstore\n        /* \"#utility.yul\":8801:8805   */\n      0x32\n        /* \"#utility.yul\":8798:8799   */\n      0x04\n        /* \"#utility.yul\":8791:8806   */\n      mstore\n        /* \"#utility.yul\":8825:8829   */\n      0x24\n        /* \"#utility.yul\":8822:8823   */\n      0x00\n        /* \"#utility.yul\":8815:8830   */\n      revert\n        /* \"#utility.yul\":8842:9022   */\n    tag_123:\n        /* \"#utility.yul\":8890:8967   */\n      0x4e487b7100000000000000000000000000000000000000000000000000000000\n        /* \"#utility.yul\":8887:8888   */\n      0x00\n        /* \"#utility.yul\":8880:8968   */\n      mstore\n        /* \"#utility.yul\":8987:8991   */\n      0x22\n        /* \"#utility.yul\":8984:8985   */\n      0x04\n        /* \"#utility.yul\":8977:8992   */\n      mstore\n        /* \"#utility.yul\":9011:9015   */\n      0x24\n        /* \"#utility.yul\":9008:9009   */\n      0x00\n        /* \"#utility.yul\":9001:9016   */\n      revert\n        /* \"#utility.yul\":9028:9348   */\n    tag_60:\n        /* \"#utility.yul\":9072:9078   */\n      0x00\n        /* \"#utility.yul\":9109:9110   */\n      0x02\n        /* \"#utility.yul\":9103:9107   */\n      dup3\n        /* \"#utility.yul\":9099:9111   */\n      div\n        /* \"#utility.yul\":9089:9111   */\n      swap1\n      pop\n        /* \"#utility.yul\":9156:9157   */\n      0x01\n        /* \"#utility.yul\":9150:9154   */\n      dup3\n        /* \"#utility.yul\":9146:9158   */\n      and\n        /* \"#utility.yul\":9177:9195   */\n      dup1\n        /* \"#utility.yul\":9167:9248   */\n      tag_234\n      jumpi\n        /* \"#utility.yul\":9233:9237   */\n      0x7f\n        /* \"#utility.yul\":9225:9231   */\n      dup3\n        /* \"#utility.yul\":9221:9238   */\n      and\n        /* \"#utility.yul\":9211:9238   */\n      swap2\n      pop\n        /* \"#utility.yul\":9167:9248   */\n    tag_234:\n        /* \"#utility.yul\":9295:9297   */\n      0x20\n        /* \"#utility.yul\":9287:9293   */\n      dup3\n        /* \"#utility.yul\":9284:9298   */\n      lt\n        /* \"#utility.yul\":9264:9282   */\n      dup2\n        /* \"#utility.yul\":9261:9299   */\n      sub\n        /* \"#utility.yul\":9258:9342   */\n      tag_235\n      jumpi\n        /* \"#utility.yul\":9314:9332   */\n      tag_236\n      tag_123\n      jump\t// in\n    tag_236:\n        /* \"#utility.yul\":9258:9342   */\n    tag_235:\n        /* \"#utility.yul\":9079:9348   */\n      pop\n        /* \"#utility.yul\":9028:9348   */\n      swap2\n      swap1\n      pop\n      jump\t// out\n        /* \"#utility.yul\":9354:9495   */\n    tag_124:\n        /* \"#utility.yul\":9403:9407   */\n      0x00\n        /* \"#utility.yul\":9426:9429   */\n      dup2\n        /* \"#utility.yul\":9418:9429   */\n      swap1\n      pop\n        /* \"#utility.yul\":9449:9452   */\n      dup2\n        /* \"#utility.yul\":9446:9447   */\n      0x00\n        /* \"#utility.yul\":9439:9453   */\n      mstore\n        /* \"#utility.yul\":9483:9487   */\n      0x20\n        /* \"#utility.yul\":9480:9481   */\n      0x00\n        /* \"#utility.yul\":9470:9488   */\n      keccak256\n        /* \"#utility.yul\":9462:9488   */\n      swap1\n      pop\n        /* \"#utility.yul\":9354:9495   */\n      swap2\n      swap1\n      pop\n      jump\t// out\n        /* \"#utility.yul\":9501:9594   */\n    tag_125:\n        /* \"#utility.yul\":9538:9544   */\n      0x00\n        /* \"#utility.yul\":9585:9587   */\n      0x20\n        /* \"#utility.yul\":9580:9582   */\n      0x1f\n        /* \"#utility.yul\":9573:9578   */\n      dup4\n        /* \"#utility.yul\":9569:9583   */\n      add\n        /* \"#utility.yul\":9565:9588   */\n      div\n        /* \"#utility.yul\":9555:9588   */\n      swap1\n      pop\n        /* \"#utility.yul\":9501:9594   */\n      swap2\n      swap1\n      pop\n      jump\t// out\n        /* \"#utility.yul\":9600:9707   */\n    tag_126:\n        /* \"#utility.yul\":9644:9652   */\n      0x00\n        /* \"#utility.yul\":9694:9699   */\n      dup3\n        /* \"#utility.yul\":9688:9692   */\n      dup3\n        /* \"#utility.yul\":9684:9700   */\n      shl\n        /* \"#utility.yul\":9663:9700   */\n      swap1\n      pop\n        /* \"#utility.yul\":9600:9707   */\n      swap3\n      swap2\n      pop\n      pop\n      jump\t// out\n        /* \"#utility.yul\":9713:10106   */\n    tag_127:\n        /* \"#utility.yul\":9782:9788   */\n      0x00\n        /* \"#utility.yul\":9832:9833   */\n      0x08\n        /* \"#utility.yul\":9820:9830   */\n      dup4\n        /* \"#utility.yul\":9816:9834   */\n      mul\n        /* \"#utility.yul\":9855:9952   */\n      tag_241\n        /* \"#utility.yul\":9885:9951   */\n      0xffffffffffffffffffffffffffffffffffffffffffffffffffffffffffffffff\n        /* \"#utility.yul\":9874:9883   */\n      dup3\n        /* \"#utility.yul\":9855:9952   */\n      tag_126\n      jump\t// in\n    tag_241:\n        /* \"#utility.yul\":9973:10012   */\n      tag_242\n        /* \"#utility.yul\":10003:10011   */\n      dup7\n        /* \"#utility.yul\":9992:10001   */\n      dup4\n        /* \"#utility.yul\":9973:10012   */\n      tag_126\n      jump\t// in\n    tag_242:\n        /* \"#utility.yul\":9961:10012   */\n      swap6\n      pop\n        /* \"#utility.yul\":10045:10049   */\n      dup1\n        /* \"#utility.yul\":10041:10050   */\n      not\n        /* \"#utility.yul\":10034:10039   */\n      dup5\n        /* \"#utility.yul\":10030:10051   */\n      and\n        /* \"#utility.yul\":10021:10051   */\n      swap4\n      pop\n        /* \"#utility.yul\":10094:10098   */\n      dup1\n        /* \"#utility.yul\":10084:10092   */\n      dup7\n        /* \"#utility.yul\":10080:10099   */\n      and\n        /* \"#utility.yul\":10073:10078   */\n      dup5\n        /* \"#utility.yul\":10070:10100   */\n      or\n        /* \"#utility.yul\":10060:10100   */\n      swap3\n      pop\n        /* \"#utility.yul\":9789:10106   */\n      pop\n      pop\n        /* \"#utility.yul\":9713:10106   */\n      swap4\n      swap3\n      pop\n      pop\n      pop\n      jump\t// out\n        /* \"#utility.yul\":10112:10172   */\n    tag_128:\n        /* \"#utility.yul\":10140:10143   */\n      0x00\n        /* \"#utility.yul\":10161:10166   */\n      dup2\n        /* \"#utility.yul\":10154:10166   */\n      swap1\n      pop\n        /* \"#utility.yul\":10112:10172   */\n      swap2\n      swap1\n      pop\n      jump\t// out\n        /* \"#utility.yul\":10178:10320   */\n    tag_129:\n        /* \"#utility.yul\":10228:10237   */\n      0x00\n        /* \"#utility.yul\":10261:10314   */\n      tag_245\n        /* \"#utility.yul\":10279:10313   */\n      tag_246\n        /* \"#utility.yul\":10288:10312   */\n      tag_247\n        /* \"#utility.yul\":10306:10311   */\n      dup5\n        /* \"#utility.yul\":10288:10312   */\n      tag_110\n      jump\t// in\n    tag_247:\n        /* \"#utility.yul\":10279:10313   */\n      tag_128\n      jump\t// in\n    tag_246:\n        /* \"#utility.yul\":10261:10314   */\n      tag_110\n      jump\t// in\n    tag_245:\n        /* \"#utility.yul\":10248:10314   */\n      swap1\n      pop\n        /* \"#utility.yul\":10178:10320   */\n      swap2\n      swap1\n      pop\n      jump\t// out\n        /* \"#utility.yul\":10326:10401   */\n    tag_130:\n        /* \"#utility.yul\":10369:10372   */\n      0x00\n        /* \"#utility.yul\":10390:10395   */\n      dup2\n        /* \"#utility.yul\":10383:10395   */\n      swap1\n      pop\n        /* \"#utility.yul\":10326:10401   */\n      swap2\n      swap1\n      pop\n      jump\t// out\n        /* \"#utility.yul\":10407:10676   */\n    tag_131:\n        /* \"#utility.yul\":10517:10556   */\n      tag_250\n        /* \"#utility.yul\":10548:10555   */\n      dup4\n        /* \"#utility.yul\":10517:10556   */\n      tag_129\n      jump\t// in\n    tag_250:\n        /* \"#utility.yul\":10578:10669   */\n      tag_251\n        /* \"#utility.yul\":10627:10668   */\n      tag_252\n        /* \"#utility.yul\":10651:10667   */\n      dup3\n        /* \"#utility.yul\":10627:10668   */\n      tag_130\n      jump\t// in\n    tag_252:\n        /* \"#utility.yul\":10619:10625   */\n      dup5\n        /* \"#utility.yul\":10612:10616   */\n      dup5\n        /* \"#utility.yul\":10606:10617   */\n      sload\n        /* \"#utility.yul\":10578:10669   */\n      tag_127\n      jump\t// in\n    tag_251:\n        /* \"#utility.yul\":10572:10576   */\n      dup3\n        /* \"#utility.yul\":10565:10670   */\n      sstore\n        /* \"#utility.yul\":10483:10676   */\n      pop\n        /* \"#utility.yul\":10407:10676   */\n      pop\n      pop\n      pop\n      jump\t// out\n        /* \"#utility.yul\":10682:10755   */\n    tag_132:\n        /* \"#utility.yul\":10727:10730   */\n      0x00\n        /* \"#utility.yul\":10748:10749   */\n      0x00\n        /* \"#utility.yul\":10741:10749   */\n      swap1\n      pop\n        /* \"#utility.yul\":10682:10755   */\n      swap1\n      jump\t// out\n        /* \"#utility.yul\":10761:10950   */\n    tag_133:\n        /* \"#utility.yul\":10838:10870   */\n      tag_255\n      tag_132\n      jump\t// in\n    tag_255:\n        /* \"#utility.yul\":10879:10944   */\n      tag_256\n        /* \"#utility.yul\":10937:10943   */\n      dup2\n        /* \"#utility.yul\":10929:10935   */\n      dup5\n        /* \"#utility.yul\":10923:10927   */\n      dup5\n        /* \"#utility.yul\":10879:10944   */\n      tag_131\n      jump\t// in\n    tag_256:\n        /* \"#utility.yul\":10814:10950   */\n      pop\n        /* \"#utility.yul\":10761:10950   */\n      pop\n      pop\n      jump\t// out\n        /* \"#utility.yul\":10956:11142   */\n    tag_134:\n        /* \"#utility.yul\":11016:11136   */\n    tag_258:\n        /* \"#utility.yul\":11033:11036   */\n      dup2\n        /* \"#utility.yul\":11026:11031   */\n      dup2\n        /* \"#utility.yul\":11023:11037   */\n      lt\n        /* \"#utility.yul\":11016:11136   */\n      iszero\n      tag_260\n      jumpi\n        /* \"#utility.yul\":11087:11126   */\n      tag_261\n        /* \"#utility.yul\":11124:11125   */\n      0x00\n        /* \"#utility.yul\":11117:11122   */\n      dup3\n        /* \"#utility.yul\":11087:11126   */\n      tag_133\n      jump\t// in\n    tag_261:\n        /* \"#utility.yul\":11060:11061   */\n      0x01\n        /* \"#utility.yul\":11053:11058   */\n      dup2\n        /* \"#utility.yul\":11049:11062   */\n      add\n        /* \"#utility.yul\":11040:11062   */\n      swap1\n      pop\n        /* \"#utility.yul\":11016:11136   */\n      jump(tag_258)\n    tag_260:\n        /* \"#utility.yul\":10956:11142   */\n      pop\n      pop\n      jump\t// out\n        /* \"#utility.yul\":11148:11691   */\n    tag_135:\n        /* \"#utility.yul\":11249:11251   */\n      0x1f\n        /* \"#utility.yul\":11244:11247   */\n      dup3\n        /* \"#utility.yul\":11241:11252   */\n      gt\n        /* \"#utility.yul\":11238:11684   */\n      iszero\n      tag_263\n      jumpi\n        /* \"#utility.yul\":11283:11321   */\n      tag_264\n        /* \"#utility.yul\":11315:11320   */\n      dup2\n        /* \"#utility.yul\":11283:11321   */\n      tag_124\n      jump\t// in\n    tag_264:\n        /* \"#utility.yul\":11367:11396   */\n      tag_265\n        /* \"#utility.yul\":11385:11395   */\n      dup5\n        /* \"#utility.yul\":11367:11396   */\n      tag_125\n      jump\t// in\n    tag_265:\n        /* \"#utility.yul\":11357:11365   */\n      dup2\n        /* \"#utility.yul\":11353:11397   */\n      add\n        /* \"#utility.yul\":11550:11552   */\n      0x20\n        /* \"#utility.yul\":11538:11548   */\n      dup6\n        /* \"#utility.yul\":11535:11553   */\n      lt\n        /* \"#utility.yul\":11532:11581   */\n      iszero\n      tag_266\n      jumpi\n        /* \"#utility.yul\":11571:11579   */\n      dup2\n        /* \"#utility.yul\":11556:11579   */\n      swap1\n      pop\n        /* \"#utility.yul\":11532:11581   */\n    tag_266:\n        /* \"#utility.yul\":11594:11674   */\n      tag_267\n        /* \"#utility.yul\":11650:11672   */\n      tag_268\n        /* \"#utility.yul\":11668:11671   */\n      dup6\n        /* \"#utility.yul\":11650:11672   */\n      tag_125\n      jump\t// in\n    tag_268:\n        /* \"#utility.yul\":11640:11648   */\n      dup4\n        /* \"#utility.yul\":11636:11673   */\n      add\n        /* \"#utility.yul\":11623:11634   */\n      dup3\n        /* \"#utility.yul\":11594:11674   */\n      tag_134\n      jump\t// in\n    tag_267:\n        /* \"#utility.yul\":11253:11684   */\n      pop\n      pop\n        /* \"#utility.yul\":11238:11684   */\n    tag_263:\n        /* \"#utility.yul\":11148:11691   */\n      pop\n      pop\n      pop\n      jump\t// out\n        /* \"#utility.yul\":11697:11814   */\n    tag_136:\n        /* \"#utility.yul\":11751:11759   */\n      0x00\n        /* \"#utility.yul\":11801:11806   */\n      dup3\n        /* \"#utility.yul\":11795:11799   */\n      dup3\n        /* \"#utility.yul\":11791:11807   */\n      shr\n        /* \"#utility.yul\":11770:11807   */\n      swap1\n      pop\n        /* \"#utility.yul\":11697:11814   */\n      swap3\n      swap2\n      pop\n      pop\n      jump\t// out\n        /* \"#utility.yul\":11820:11989   */\n    tag_137:\n        /* \"#utility.yul\":11864:11870   */\n      0x00\n        /* \"#utility.yul\":11897:11948   */\n      tag_271\n        /* \"#utility.yul\":11945:11946   */\n      0x00\n        /* \"#utility.yul\":11941:11947   */\n      not\n        /* \"#utility.yul\":11933:11938   */\n      dup5\n        /* \"#utility.yul\":11930:11931   */\n      0x08\n        /* \"#utility.yul\":11926:11939   */\n      mul\n        /* \"#utility.yul\":11897:11948   */\n      tag_136\n      jump\t// in\n    tag_271:\n        /* \"#utility.yul\":11893:11949   */\n      not\n        /* \"#utility.yul\":11978:11982   */\n      dup1\n        /* \"#utility.yul\":11972:11976   */\n      dup4\n        /* \"#utility.yul\":11968:11983   */\n      and\n        /* \"#utility.yul\":11958:11983   */\n      swap2\n      pop\n        /* \"#utility.yul\":11871:11989   */\n      pop\n        /* \"#utility.yul\":11820:11989   */\n      swap3\n      swap2\n      pop\n      pop\n      jump\t// out\n        /* \"#utility.yul\":11994:12289   */\n    tag_138:\n        /* \"#utility.yul\":12070:12074   */\n      0x00\n        /* \"#utility.yul\":12216:12245   */\n      tag_273\n        /* \"#utility.yul\":12241:12244   */\n      dup4\n        /* \"#utility.yul\":12235:12239   */\n      dup4\n        /* \"#utility.yul\":12216:12245   */\n      tag_137\n      jump\t// in\n    tag_273:\n        /* \"#utility.yul\":12208:12245   */\n      swap2\n      pop\n        /* \"#utility.yul\":12278:12281   */\n      dup3\n        /* \"#utility.yul\":12275:12276   */\n      0x02\n        /* \"#utility.yul\":12271:12282   */\n      mul\n        /* \"#utility.yul\":12265:12269   */\n      dup3\n        /* \"#utility.yul\":12262:12283   */\n      or\n        /* \"#utility.yul\":12254:12283   */\n      swap1\n      pop\n        /* \"#utility.yul\":11994:12289   */\n      swap3\n      swap2\n      pop\n      pop\n      jump\t// out\n        /* \"#utility.yul\":12294:13689   */\n    tag_77:\n        /* \"#utility.yul\":12411:12448   */\n      tag_275\n        /* \"#utility.yul\":12444:12447   */\n      dup3\n        /* \"#utility.yul\":12411:12448   */\n      tag_95\n      jump\t// in\n    tag_275:\n        /* \"#utility.yul\":12513:12531   */\n      0xffffffffffffffff\n        /* \"#utility.yul\":12505:12511   */\n      dup2\n        /* \"#utility.yul\":12502:12532   */\n      gt\n        /* \"#utility.yul\":12499:12555   */\n      iszero\n      tag_276\n      jumpi\n        /* \"#utility.yul\":12535:12553   */\n      tag_277\n      tag_32\n      jump\t// in\n    tag_277:\n        /* \"#utility.yul\":12499:12555   */\n    tag_276:\n        /* \"#utility.yul\":12579:12617   */\n      tag_278\n        /* \"#utility.yul\":12611:12615   */\n      dup3\n        /* \"#utility.yul\":12605:12616   */\n      sload\n        /* \"#utility.yul\":12579:12617   */\n      tag_60\n      jump\t// in\n    tag_278:\n        /* \"#utility.yul\":12664:12731   */\n      tag_279\n        /* \"#utility.yul\":12724:12730   */\n      dup3\n        /* \"#utility.yul\":12716:12722   */\n      dup3\n        /* \"#utility.yul\":12710:12714   */\n      dup6\n        /* \"#utility.yul\":12664:12731   */\n      tag_135\n      jump\t// in\n    tag_279:\n        /* \"#utility.yul\":12758:12759   */\n      0x00\n        /* \"#utility.yul\":12782:12786   */\n      0x20\n        /* \"#utility.yul\":12769:12786   */\n      swap1\n      pop\n        /* \"#utility.yul\":12814:12816   */\n      0x1f\n        /* \"#utility.yul\":12806:12812   */\n      dup4\n        /* \"#utility.yul\":12803:12817   */\n      gt\n        /* \"#utility.yul\":12831:12832   */\n      0x01\n        /* \"#utility.yul\":12826:13444   */\n      dup2\n      eq\n      tag_281\n      jumpi\n        /* \"#utility.yul\":13488:13489   */\n      0x00\n        /* \"#utility.yul\":13505:13511   */\n      dup5\n        /* \"#utility.yul\":13502:13579   */\n      iszero\n      tag_282\n      jumpi\n        /* \"#utility.yul\":13554:13563   */\n      dup3\n        /* \"#utility.yul\":13549:13552   */\n      dup8\n        /* \"#utility.yul\":13545:13564   */\n      add\n        /* \"#utility.yul\":13539:13565   */\n      mload\n        /* \"#utility.yul\":13530:13565   */\n      swap1\n      pop\n        /* \"#utility.yul\":13502:13579   */\n    tag_282:\n        /* \"#utility.yul\":13605:13672   */\n      tag_283\n        /* \"#utility.yul\":13665:13671   */\n      dup6\n        /* \"#utility.yul\":13658:13663   */\n      dup3\n        /* \"#utility.yul\":13605:13672   */\n      tag_138\n      jump\t// in\n    tag_283:\n        /* \"#utility.yul\":13599:13603   */\n      dup7\n        /* \"#utility.yul\":13592:13673   */\n      sstore\n        /* \"#utility.yul\":13461:13683   */\n      pop\n        /* \"#utility.yul\":12796:13683   */\n      jump(tag_280)\n        /* \"#utility.yul\":12826:13444   */\n    tag_281:\n        /* \"#utility.yul\":12878:12882   */\n      0x1f\n        /* \"#utility.yul\":12874:12883   */\n      not\n        /* \"#utility.yul\":12866:12872   */\n      dup5\n        /* \"#utility.yul\":12862:12884   */\n      and\n        /* \"#utility.yul\":12912:12949   */\n      tag_284\n        /* \"#utility.yul\":12944:12948   */\n      dup7\n        /* \"#utility.yul\":12912:12949   */\n      tag_124\n      jump\t// in\n    tag_284:\n        /* \"#utility.yul\":12971:12972   */\n      0x00\n        /* \"#utility.yul\":12985:13193   */\n    tag_285:\n        /* \"#utility.yul\":12999:13006   */\n      dup3\n        /* \"#utility.yul\":12996:12997   */\n      dup2\n        /* \"#utility.yul\":12993:13007   */\n      lt\n        /* \"#utility.yul\":12985:13193   */\n      iszero\n      tag_287\n      jumpi\n        /* \"#utility.yul\":13078:13087   */\n      dup5\n        /* \"#utility.yul\":13073:13076   */\n      dup10\n        /* \"#utility.yul\":13069:13088   */\n      add\n        /* \"#utility.yul\":13063:13089   */\n      mload\n        /* \"#utility.yul\":13055:13061   */\n      dup3\n        /* \"#utility.yul\":13048:13090   */\n      sstore\n        /* \"#utility.yul\":13129:13130   */\n      0x01\n        /* \"#utility.yul\":13121:13127   */\n      dup3\n        /* \"#utility.yul\":13117:13131   */\n      add\n        /* \"#utility.yul\":13107:13131   */\n      swap2\n      pop\n        /* \"#utility.yul\":13176:13178   */\n      0x20\n        /* \"#utility.yul\":13165:13174   */\n      dup6\n        /* \"#utility.yul\":13161:13179   */\n      add\n        /* \"#utility.yul\":13148:13179   */\n      swap5\n      pop\n        /* \"#utility.yul\":13022:13026   */\n      0x20\n        /* \"#utility.yul\":13019:13020   */\n      dup2\n        /* \"#utility.yul\":13015:13027   */\n      add\n        /* \"#utility.yul\":13010:13027   */\n      swap1\n      pop\n        /* \"#utility.yul\":12985:13193   */\n      jump(tag_285)\n    tag_287:\n        /* \"#utility.yul\":13221:13227   */\n      dup7\n        /* \"#utility.yul\":13212:13219   */\n      dup4\n        /* \"#utility.yul\":13209:13228   */\n      lt\n        /* \"#utility.yul\":13206:13385   */\n      iszero\n      tag_288\n      jumpi\n        /* \"#utility.yul\":13279:13288   */\n      dup5\n        /* \"#utility.yul\":13274:13277   */\n      dup10\n        /* \"#utility.yul\":13270:13289   */\n      add\n        /* \"#utility.yul\":13264:13290   */\n      mload\n        /* \"#utility.yul\":13322:13370   */\n      tag_289\n        /* \"#utility.yul\":13364:13368   */\n      0x1f\n        /* \"#utility.yul\":13356:13362   */\n      dup10\n        /* \"#utility.yul\":13352:13369   */\n      and\n        /* \"#utility.yul\":13341:13350   */\n      dup3\n        /* \"#utility.yul\":13322:13370   */\n      tag_137\n      jump\t// in\n    tag_289:\n        /* \"#utility.yul\":13314:13320   */\n      dup4\n        /* \"#utility.yul\":13307:13371   */\n      sstore\n        /* \"#utility.yul\":13229:13385   */\n      pop\n        /* \"#utility.yul\":13206:13385   */\n    tag_288:\n        /* \"#utility.yul\":13431:13432   */\n      0x01\n        /* \"#utility.yul\":13427:13428   */\n      0x02\n        /* \"#utility.yul\":13419:13425   */\n      dup9\n        /* \"#utility.yul\":13415:13429   */\n      mul\n        /* \"#utility.yul\":13411:13433   */\n      add\n        /* \"#utility.yul\":13405:13409   */\n      dup9\n        /* \"#utility.yul\":13398:13434   */\n      sstore\n        /* \"#utility.yul\":12833:13444   */\n      pop\n      pop\n      pop\n        /* \"#utility.yul\":12796:13683   */\n    tag_280:\n      pop\n        /* \"#utility.yul\":12386:13689   */\n      pop\n      pop\n      pop\n        /* \"#utility.yul\":12294:13689   */\n      pop\n      pop\n      jump\t// out\n\n    auxdata: 0xa26469706673582212209caed8b60155db5058037e2f2a8336326aa052121e66dec7c27a1b28f5e4599a64736f6c634300081e0033\n}\n",
				"bytecode": {
					"linkReferences": {},
					"object": "6080604052348015600e575f5ffd5b50610ec18061001c5f395ff3fe608060405234801561000f575f5ffd5b5060043610610055575f3560e01c80631cf0830b14610059578063837f887814610077578063aa070fb514610081578063c7853148146100b1578063d81aa8c4146100e1575b5f5ffd5b6100616100fd565b60405161006e9190610890565b60405180910390f35b61007f610454565b005b61009b6004803603810190610096919061094e565b61049d565b6040516100a891906109d4565b60405180910390f35b6100cb60048036038101906100c691906109f4565b61054d565b6040516100d89190610890565b60405180910390f35b6100fb60048036038101906100f69190610b4b565b61065d565b005b60605f600967ffffffffffffffff81111561011b5761011a610a27565b5b60405190808252806020026020018201604052801561014e57816020015b60608152602001906001900390816101395790505b5090506040518060400160405280600881526020017f546872696c6c6572000000000000000000000000000000000000000000000000815250815f8151811061019a57610199610b92565b5b60200260200101819052506040518060400160405280600d81526020017f4261636b20696e20426c61636b00000000000000000000000000000000000000815250816001815181106101ef576101ee610b92565b5b60200260200101819052506040518060400160405280600d81526020017f54686520426f64796775617264000000000000000000000000000000000000008152508160028151811061024457610243610b92565b5b60200260200101819052506040518060400160405280601981526020017f546865204461726b2053696465206f6620746865204d6f6f6e000000000000008152508160038151811061029957610298610b92565b5b60200260200101819052506040518060400160405280601f81526020017f546865697220477265617465737420486974732028313937312d313937352900815250816004815181106102ee576102ed610b92565b5b60200260200101819052506040518060400160405280601081526020017f486f74656c2043616c69666f726e6961000000000000000000000000000000008152508160058151811061034357610342610b92565b5b60200260200101819052506040518060400160405280600c81526020017f436f6d65204f6e204f76657200000000000000000000000000000000000000008152508160068151811061039857610397610b92565b5b60200260200101819052506040518060400160405280600781526020017f52756d6f75727300000000000000000000000000000000000000000000000000815250816007815181106103ed576103ec610b92565b5b60200260200101819052506040518060400160405280601481526020017f5361747572646179204e696768742046657665720000000000000000000000008152508160088151811061044257610441610b92565b5b60200260200101819052508091505090565b5f5f3373ffffffffffffffffffffffffffffffffffffffff1673ffffffffffffffffffffffffffffffffffffffff1681526020019081526020015f205f61049b91906106cc565b565b5f602052815f5260405f2081815481106104b5575f80fd5b905f5260205f20015f915091505080546104ce90610bec565b80601f01602080910402602001604051908101604052809291908181526020018280546104fa90610bec565b80156105455780601f1061051c57610100808354040283529160200191610545565b820191905f5260205f20905b81548152906001019060200180831161052857829003601f168201915b505050505081565b60605f5f8373ffffffffffffffffffffffffffffffffffffffff1673ffffffffffffffffffffffffffffffffffffffff1681526020019081526020015f20805480602002602001604051908101604052809291908181526020015f905b82821015610652578382905f5260205f200180546105c790610bec565b80601f01602080910402602001604051908101604052809291908181526020018280546105f390610bec565b801561063e5780601f106106155761010080835404028352916020019161063e565b820191905f5260205f20905b81548152906001019060200180831161062157829003601f168201915b5050505050815260200190600101906105aa565b505050509050919050565b5f5f3373ffffffffffffffffffffffffffffffffffffffff1673ffffffffffffffffffffffffffffffffffffffff1681526020019081526020015f2081908060018154018082558091505060019003905f5260205f20015f9091909190915090816106c89190610dbc565b5050565b5080545f8255905f5260205f20908101906106e791906106ea565b50565b5b80821115610709575f8181610700919061070d565b506001016106eb565b5090565b50805461071990610bec565b5f825580601f1061072a5750610747565b601f0160209004905f5260205f2090810190610746919061074a565b5b50565b5b80821115610761575f815f90555060010161074b565b5090565b5f81519050919050565b5f82825260208201905092915050565b5f819050602082019050919050565b5f81519050919050565b5f82825260208201905092915050565b8281835e5f83830152505050565b5f601f19601f8301169050919050565b5f6107d08261078e565b6107da8185610798565b93506107ea8185602086016107a8565b6107f3816107b6565b840191505092915050565b5f61080983836107c6565b905092915050565b5f602082019050919050565b5f61082782610765565b610831818561076f565b9350836020820285016108438561077f565b805f5b8581101561087e578484038952815161085f85826107fe565b945061086a83610811565b925060208a01995050600181019050610846565b50829750879550505050505092915050565b5f6020820190508181035f8301526108a8818461081d565b905092915050565b5f604051905090565b5f5ffd5b5f5ffd5b5f73ffffffffffffffffffffffffffffffffffffffff82169050919050565b5f6108ea826108c1565b9050919050565b6108fa816108e0565b8114610904575f5ffd5b50565b5f81359050610915816108f1565b92915050565b5f819050919050565b61092d8161091b565b8114610937575f5ffd5b50565b5f8135905061094881610924565b92915050565b5f5f60408385031215610964576109636108b9565b5b5f61097185828601610907565b92505060206109828582860161093a565b9150509250929050565b5f82825260208201905092915050565b5f6109a68261078e565b6109b0818561098c565b93506109c08185602086016107a8565b6109c9816107b6565b840191505092915050565b5f6020820190508181035f8301526109ec818461099c565b905092915050565b5f60208284031215610a0957610a086108b9565b5b5f610a1684828501610907565b91505092915050565b5f5ffd5b5f5ffd5b7f4e487b71000000000000000000000000000000000000000000000000000000005f52604160045260245ffd5b610a5d826107b6565b810181811067ffffffffffffffff82111715610a7c57610a7b610a27565b5b80604052505050565b5f610a8e6108b0565b9050610a9a8282610a54565b919050565b5f67ffffffffffffffff821115610ab957610ab8610a27565b5b610ac2826107b6565b9050602081019050919050565b828183375f83830152505050565b5f610aef610aea84610a9f565b610a85565b905082815260208101848484011115610b0b57610b0a610a23565b5b610b16848285610acf565b509392505050565b5f82601f830112610b3257610b31610a1f565b5b8135610b42848260208601610add565b91505092915050565b5f60208284031215610b6057610b5f6108b9565b5b5f82013567ffffffffffffffff811115610b7d57610b7c6108bd565b5b610b8984828501610b1e565b91505092915050565b7f4e487b71000000000000000000000000000000000000000000000000000000005f52603260045260245ffd5b7f4e487b71000000000000000000000000000000000000000000000000000000005f52602260045260245ffd5b5f6002820490506001821680610c0357607f821691505b602082108103610c1657610c15610bbf565b5b50919050565b5f819050815f5260205f209050919050565b5f6020601f8301049050919050565b5f82821b905092915050565b5f60088302610c787fffffffffffffffffffffffffffffffffffffffffffffffffffffffffffffffff82610c3d565b610c828683610c3d565b95508019841693508086168417925050509392505050565b5f819050919050565b5f610cbd610cb8610cb38461091b565b610c9a565b61091b565b9050919050565b5f819050919050565b610cd683610ca3565b610cea610ce282610cc4565b848454610c49565b825550505050565b5f5f905090565b610d01610cf2565b610d0c818484610ccd565b505050565b5b81811015610d2f57610d245f82610cf9565b600181019050610d12565b5050565b601f821115610d7457610d4581610c1c565b610d4e84610c2e565b81016020851015610d5d578190505b610d71610d6985610c2e565b830182610d11565b50505b505050565b5f82821c905092915050565b5f610d945f1984600802610d79565b1980831691505092915050565b5f610dac8383610d85565b9150826002028217905092915050565b610dc58261078e565b67ffffffffffffffff811115610dde57610ddd610a27565b5b610de88254610bec565b610df3828285610d33565b5f60209050601f831160018114610e24575f8415610e12578287015190505b610e1c8582610da1565b865550610e83565b601f198416610e3286610c1c565b5f5b82811015610e5957848901518255600182019150602085019450602081019050610e34565b86831015610e765784890151610e72601f891682610d85565b8355505b6001600288020188555050505b50505050505056fea26469706673582212209caed8b60155db5058037e2f2a8336326aa052121e66dec7c27a1b28f5e4599a64736f6c634300081e0033",
					"opcodes": "PUSH1 0x80 PUSH1 0x40 MSTORE CALLVALUE DUP1 ISZERO PUSH1 0xE JUMPI PUSH0 PUSH0 REVERT JUMPDEST POP PUSH2 0xEC1 DUP1 PUSH2 0x1C PUSH0 CODECOPY PUSH0 RETURN INVALID PUSH1 0x80 PUSH1 0x40 MSTORE CALLVALUE DUP1 ISZERO PUSH2 0xF JUMPI PUSH0 PUSH0 REVERT JUMPDEST POP PUSH1 0x4 CALLDATASIZE LT PUSH2 0x55 JUMPI PUSH0 CALLDATALOAD PUSH1 0xE0 SHR DUP1 PUSH4 0x1CF0830B EQ PUSH2 0x59 JUMPI DUP1 PUSH4 0x837F8878 EQ PUSH2 0x77 JUMPI DUP1 PUSH4 0xAA070FB5 EQ PUSH2 0x81 JUMPI DUP1 PUSH4 0xC7853148 EQ PUSH2 0xB1 JUMPI DUP1 PUSH4 0xD81AA8C4 EQ PUSH2 0xE1 JUMPI JUMPDEST PUSH0 PUSH0 REVERT JUMPDEST PUSH2 0x61 PUSH2 0xFD JUMP JUMPDEST PUSH1 0x40 MLOAD PUSH2 0x6E SWAP2 SWAP1 PUSH2 0x890 JUMP JUMPDEST PUSH1 0x40 MLOAD DUP1 SWAP2 SUB SWAP1 RETURN JUMPDEST PUSH2 0x7F PUSH2 0x454 JUMP JUMPDEST STOP JUMPDEST PUSH2 0x9B PUSH1 0x4 DUP1 CALLDATASIZE SUB DUP2 ADD SWAP1 PUSH2 0x96 SWAP2 SWAP1 PUSH2 0x94E JUMP JUMPDEST PUSH2 0x49D JUMP JUMPDEST PUSH1 0x40 MLOAD PUSH2 0xA8 SWAP2 SWAP1 PUSH2 0x9D4 JUMP JUMPDEST PUSH1 0x40 MLOAD DUP1 SWAP2 SUB SWAP1 RETURN JUMPDEST PUSH2 0xCB PUSH1 0x4 DUP1 CALLDATASIZE SUB DUP2 ADD SWAP1 PUSH2 0xC6 SWAP2 SWAP1 PUSH2 0x9F4 JUMP JUMPDEST PUSH2 0x54D JUMP JUMPDEST PUSH1 0x40 MLOAD PUSH2 0xD8 SWAP2 SWAP1 PUSH2 0x890 JUMP JUMPDEST PUSH1 0x40 MLOAD DUP1 SWAP2 SUB SWAP1 RETURN JUMPDEST PUSH2 0xFB PUSH1 0x4 DUP1 CALLDATASIZE SUB DUP2 ADD SWAP1 PUSH2 0xF6 SWAP2 SWAP1 PUSH2 0xB4B JUMP JUMPDEST PUSH2 0x65D JUMP JUMPDEST STOP JUMPDEST PUSH1 0x60 PUSH0 PUSH1 0x9 PUSH8 0xFFFFFFFFFFFFFFFF DUP2 GT ISZERO PUSH2 0x11B JUMPI PUSH2 0x11A PUSH2 0xA27 JUMP JUMPDEST JUMPDEST PUSH1 0x40 MLOAD SWAP1 DUP1 DUP3 MSTORE DUP1 PUSH1 0x20 MUL PUSH1 0x20 ADD DUP3 ADD PUSH1 0x40 MSTORE DUP1 ISZERO PUSH2 0x14E JUMPI DUP2 PUSH1 0x20 ADD JUMPDEST PUSH1 0x60 DUP2 MSTORE PUSH1 0x20 ADD SWAP1 PUSH1 0x1 SWAP1 SUB SWAP1 DUP2 PUSH2 0x139 JUMPI SWAP1 POP JUMPDEST POP SWAP1 POP PUSH1 0x40 MLOAD DUP1 PUSH1 0x40 ADD PUSH1 0x40 MSTORE DUP1 PUSH1 0x8 DUP2 MSTORE PUSH1 0x20 ADD PUSH32 0x546872696C6C6572000000000000000000000000000000000000000000000000 DUP2 MSTORE POP DUP2 PUSH0 DUP2 MLOAD DUP2 LT PUSH2 0x19A JUMPI PUSH2 0x199 PUSH2 0xB92 JUMP JUMPDEST JUMPDEST PUSH1 0x20 MUL PUSH1 0x20 ADD ADD DUP2 SWAP1 MSTORE POP PUSH1 0x40 MLOAD DUP1 PUSH1 0x40 ADD PUSH1 0x40 MSTORE DUP1 PUSH1 0xD DUP2 MSTORE PUSH1 0x20 ADD PUSH32 0x4261636B20696E20426C61636B00000000000000000000000000000000000000 DUP2 MSTORE POP DUP2 PUSH1 0x1 DUP2 MLOAD DUP2 LT PUSH2 0x1EF JUMPI PUSH2 0x1EE PUSH2 0xB92 JUMP JUMPDEST JUMPDEST PUSH1 0x20 MUL PUSH1 0x20 ADD ADD DUP2 SWAP1 MSTORE POP PUSH1 0x40 MLOAD DUP1 PUSH1 0x40 ADD PUSH1 0x40 MSTORE DUP1 PUSH1 0xD DUP2 MSTORE PUSH1 0x20 ADD PUSH32 0x54686520426F6479677561726400000000000000000000000000000000000000 DUP2 MSTORE POP DUP2 PUSH1 0x2 DUP2 MLOAD DUP2 LT PUSH2 0x244 JUMPI PUSH2 0x243 PUSH2 0xB92 JUMP JUMPDEST JUMPDEST PUSH1 0x20 MUL PUSH1 0x20 ADD ADD DUP2 SWAP1 MSTORE POP PUSH1 0x40 MLOAD DUP1 PUSH1 0x40 ADD PUSH1 0x40 MSTORE DUP1 PUSH1 0x19 DUP2 MSTORE PUSH1 0x20 ADD PUSH32 0x546865204461726B2053696465206F6620746865204D6F6F6E00000000000000 DUP2 MSTORE POP DUP2 PUSH1 0x3 DUP2 MLOAD DUP2 LT PUSH2 0x299 JUMPI PUSH2 0x298 PUSH2 0xB92 JUMP JUMPDEST JUMPDEST PUSH1 0x20 MUL PUSH1 0x20 ADD ADD DUP2 SWAP1 MSTORE POP PUSH1 0x40 MLOAD DUP1 PUSH1 0x40 ADD PUSH1 0x40 MSTORE DUP1 PUSH1 0x1F DUP2 MSTORE PUSH1 0x20 ADD PUSH32 0x546865697220477265617465737420486974732028313937312D313937352900 DUP2 MSTORE POP DUP2 PUSH1 0x4 DUP2 MLOAD DUP2 LT PUSH2 0x2EE JUMPI PUSH2 0x2ED PUSH2 0xB92 JUMP JUMPDEST JUMPDEST PUSH1 0x20 MUL PUSH1 0x20 ADD ADD DUP2 SWAP1 MSTORE POP PUSH1 0x40 MLOAD DUP1 PUSH1 0x40 ADD PUSH1 0x40 MSTORE DUP1 PUSH1 0x10 DUP2 MSTORE PUSH1 0x20 ADD PUSH32 0x486F74656C2043616C69666F726E696100000000000000000000000000000000 DUP2 MSTORE POP DUP2 PUSH1 0x5 DUP2 MLOAD DUP2 LT PUSH2 0x343 JUMPI PUSH2 0x342 PUSH2 0xB92 JUMP JUMPDEST JUMPDEST PUSH1 0x20 MUL PUSH1 0x20 ADD ADD DUP2 SWAP1 MSTORE POP PUSH1 0x40 MLOAD DUP1 PUSH1 0x40 ADD PUSH1 0x40 MSTORE DUP1 PUSH1 0xC DUP2 MSTORE PUSH1 0x20 ADD PUSH32 0x436F6D65204F6E204F7665720000000000000000000000000000000000000000 DUP2 MSTORE POP DUP2 PUSH1 0x6 DUP2 MLOAD DUP2 LT PUSH2 0x398 JUMPI PUSH2 0x397 PUSH2 0xB92 JUMP JUMPDEST JUMPDEST PUSH1 0x20 MUL PUSH1 0x20 ADD ADD DUP2 SWAP1 MSTORE POP PUSH1 0x40 MLOAD DUP1 PUSH1 0x40 ADD PUSH1 0x40 MSTORE DUP1 PUSH1 0x7 DUP2 MSTORE PUSH1 0x20 ADD PUSH32 0x52756D6F75727300000000000000000000000000000000000000000000000000 DUP2 MSTORE POP DUP2 PUSH1 0x7 DUP2 MLOAD DUP2 LT PUSH2 0x3ED JUMPI PUSH2 0x3EC PUSH2 0xB92 JUMP JUMPDEST JUMPDEST PUSH1 0x20 MUL PUSH1 0x20 ADD ADD DUP2 SWAP1 MSTORE POP PUSH1 0x40 MLOAD DUP1 PUSH1 0x40 ADD PUSH1 0x40 MSTORE DUP1 PUSH1 0x14 DUP2 MSTORE PUSH1 0x20 ADD PUSH32 0x5361747572646179204E69676874204665766572000000000000000000000000 DUP2 MSTORE POP DUP2 PUSH1 0x8 DUP2 MLOAD DUP2 LT PUSH2 0x442 JUMPI PUSH2 0x441 PUSH2 0xB92 JUMP JUMPDEST JUMPDEST PUSH1 0x20 MUL PUSH1 0x20 ADD ADD DUP2 SWAP1 MSTORE POP DUP1 SWAP2 POP POP SWAP1 JUMP JUMPDEST PUSH0 PUSH0 CALLER PUSH20 0xFFFFFFFFFFFFFFFFFFFFFFFFFFFFFFFFFFFFFFFF AND PUSH20 0xFFFFFFFFFFFFFFFFFFFFFFFFFFFFFFFFFFFFFFFF AND DUP2 MSTORE PUSH1 0x20 ADD SWAP1 DUP2 MSTORE PUSH1 0x20 ADD PUSH0 KECCAK256 PUSH0 PUSH2 0x49B SWAP2 SWAP1 PUSH2 0x6CC JUMP JUMPDEST JUMP JUMPDEST PUSH0 PUSH1 0x20 MSTORE DUP2 PUSH0 MSTORE PUSH1 0x40 PUSH0 KECCAK256 DUP2 DUP2 SLOAD DUP2 LT PUSH2 0x4B5 JUMPI PUSH0 DUP1 REVERT JUMPDEST SWAP1 PUSH0 MSTORE PUSH1 0x20 PUSH0 KECCAK256 ADD PUSH0 SWAP2 POP SWAP2 POP POP DUP1 SLOAD PUSH2 0x4CE SWAP1 PUSH2 0xBEC JUMP JUMPDEST DUP1 PUSH1 0x1F ADD PUSH1 0x20 DUP1 SWAP2 DIV MUL PUSH1 0x20 ADD PUSH1 0x40 MLOAD SWAP1 DUP2 ADD PUSH1 0x40 MSTORE DUP1 SWAP3 SWAP2 SWAP1 DUP2 DUP2 MSTORE PUSH1 0x20 ADD DUP3 DUP1 SLOAD PUSH2 0x4FA SWAP1 PUSH2 0xBEC JUMP JUMPDEST DUP1 ISZERO PUSH2 0x545 JUMPI DUP1 PUSH1 0x1F LT PUSH2 0x51C JUMPI PUSH2 0x100 DUP1 DUP4 SLOAD DIV MUL DUP4 MSTORE SWAP2 PUSH1 0x20 ADD SWAP2 PUSH2 0x545 JUMP JUMPDEST DUP3 ADD SWAP2 SWAP1 PUSH0 MSTORE PUSH1 0x20 PUSH0 KECCAK256 SWAP1 JUMPDEST DUP2 SLOAD DUP2 MSTORE SWAP1 PUSH1 0x1 ADD SWAP1 PUSH1 0x20 ADD DUP1 DUP4 GT PUSH2 0x528 JUMPI DUP3 SWAP1 SUB PUSH1 0x1F AND DUP3 ADD SWAP2 JUMPDEST POP POP POP POP POP DUP2 JUMP JUMPDEST PUSH1 0x60 PUSH0 PUSH0 DUP4 PUSH20 0xFFFFFFFFFFFFFFFFFFFFFFFFFFFFFFFFFFFFFFFF AND PUSH20 0xFFFFFFFFFFFFFFFFFFFFFFFFFFFFFFFFFFFFFFFF AND DUP2 MSTORE PUSH1 0x20 ADD SWAP1 DUP2 MSTORE PUSH1 0x20 ADD PUSH0 KECCAK256 DUP1 SLOAD DUP1 PUSH1 0x20 MUL PUSH1 0x20 ADD PUSH1 0x40 MLOAD SWAP1 DUP2 ADD PUSH1 0x40 MSTORE DUP1 SWAP3 SWAP2 SWAP1 DUP2 DUP2 MSTORE PUSH1 0x20 ADD PUSH0 SWAP1 JUMPDEST DUP3 DUP3 LT ISZERO PUSH2 0x652 JUMPI DUP4 DUP3 SWAP1 PUSH0 MSTORE PUSH1 0x20 PUSH0 KECCAK256 ADD DUP1 SLOAD PUSH2 0x5C7 SWAP1 PUSH2 0xBEC JUMP JUMPDEST DUP1 PUSH1 0x1F ADD PUSH1 0x20 DUP1 SWAP2 DIV MUL PUSH1 0x20 ADD PUSH1 0x40 MLOAD SWAP1 DUP2 ADD PUSH1 0x40 MSTORE DUP1 SWAP3 SWAP2 SWAP1 DUP2 DUP2 MSTORE PUSH1 0x20 ADD DUP3 DUP1 SLOAD PUSH2 0x5F3 SWAP1 PUSH2 0xBEC JUMP JUMPDEST DUP1 ISZERO PUSH2 0x63E JUMPI DUP1 PUSH1 0x1F LT PUSH2 0x615 JUMPI PUSH2 0x100 DUP1 DUP4 SLOAD DIV MUL DUP4 MSTORE SWAP2 PUSH1 0x20 ADD SWAP2 PUSH2 0x63E JUMP JUMPDEST DUP3 ADD SWAP2 SWAP1 PUSH0 MSTORE PUSH1 0x20 PUSH0 KECCAK256 SWAP1 JUMPDEST DUP2 SLOAD DUP2 MSTORE SWAP1 PUSH1 0x1 ADD SWAP1 PUSH1 0x20 ADD DUP1 DUP4 GT PUSH2 0x621 JUMPI DUP3 SWAP1 SUB PUSH1 0x1F AND DUP3 ADD SWAP2 JUMPDEST POP POP POP POP POP DUP2 MSTORE PUSH1 0x20 ADD SWAP1 PUSH1 0x1 ADD SWAP1 PUSH2 0x5AA JUMP JUMPDEST POP POP POP POP SWAP1 POP SWAP2 SWAP1 POP JUMP JUMPDEST PUSH0 PUSH0 CALLER PUSH20 0xFFFFFFFFFFFFFFFFFFFFFFFFFFFFFFFFFFFFFFFF AND PUSH20 0xFFFFFFFFFFFFFFFFFFFFFFFFFFFFFFFFFFFFFFFF AND DUP2 MSTORE PUSH1 0x20 ADD SWAP1 DUP2 MSTORE PUSH1 0x20 ADD PUSH0 KECCAK256 DUP2 SWAP1 DUP1 PUSH1 0x1 DUP2 SLOAD ADD DUP1 DUP3 SSTORE DUP1 SWAP2 POP POP PUSH1 0x1 SWAP1 SUB SWAP1 PUSH0 MSTORE PUSH1 0x20 PUSH0 KECCAK256 ADD PUSH0 SWAP1 SWAP2 SWAP1 SWAP2 SWAP1 SWAP2 POP SWAP1 DUP2 PUSH2 0x6C8 SWAP2 SWAP1 PUSH2 0xDBC JUMP JUMPDEST POP POP JUMP JUMPDEST POP DUP1 SLOAD PUSH0 DUP3 SSTORE SWAP1 PUSH0 MSTORE PUSH1 0x20 PUSH0 KECCAK256 SWAP1 DUP2 ADD SWAP1 PUSH2 0x6E7 SWAP2 SWAP1 PUSH2 0x6EA JUMP JUMPDEST POP JUMP JUMPDEST JUMPDEST DUP1 DUP3 GT ISZERO PUSH2 0x709 JUMPI PUSH0 DUP2 DUP2 PUSH2 0x700 SWAP2 SWAP1 PUSH2 0x70D JUMP JUMPDEST POP PUSH1 0x1 ADD PUSH2 0x6EB JUMP JUMPDEST POP SWAP1 JUMP JUMPDEST POP DUP1 SLOAD PUSH2 0x719 SWAP1 PUSH2 0xBEC JUMP JUMPDEST PUSH0 DUP3 SSTORE DUP1 PUSH1 0x1F LT PUSH2 0x72A JUMPI POP PUSH2 0x747 JUMP JUMPDEST PUSH1 0x1F ADD PUSH1 0x20 SWAP1 DIV SWAP1 PUSH0 MSTORE PUSH1 0x20 PUSH0 KECCAK256 SWAP1 DUP2 ADD SWAP1 PUSH2 0x746 SWAP2 SWAP1 PUSH2 0x74A JUMP JUMPDEST JUMPDEST POP JUMP JUMPDEST JUMPDEST DUP1 DUP3 GT ISZERO PUSH2 0x761 JUMPI PUSH0 DUP2 PUSH0 SWAP1 SSTORE POP PUSH1 0x1 ADD PUSH2 0x74B JUMP JUMPDEST POP SWAP1 JUMP JUMPDEST PUSH0 DUP2 MLOAD SWAP1 POP SWAP2 SWAP1 POP JUMP JUMPDEST PUSH0 DUP3 DUP3 MSTORE PUSH1 0x20 DUP3 ADD SWAP1 POP SWAP3 SWAP2 POP POP JUMP JUMPDEST PUSH0 DUP2 SWAP1 POP PUSH1 0x20 DUP3 ADD SWAP1 POP SWAP2 SWAP1 POP JUMP JUMPDEST PUSH0 DUP2 MLOAD SWAP1 POP SWAP2 SWAP1 POP JUMP JUMPDEST PUSH0 DUP3 DUP3 MSTORE PUSH1 0x20 DUP3 ADD SWAP1 POP SWAP3 SWAP2 POP POP JUMP JUMPDEST DUP3 DUP2 DUP4 MCOPY PUSH0 DUP4 DUP4 ADD MSTORE POP POP POP JUMP JUMPDEST PUSH0 PUSH1 0x1F NOT PUSH1 0x1F DUP4 ADD AND SWAP1 POP SWAP2 SWAP1 POP JUMP JUMPDEST PUSH0 PUSH2 0x7D0 DUP3 PUSH2 0x78E JUMP JUMPDEST PUSH2 0x7DA DUP2 DUP6 PUSH2 0x798 JUMP JUMPDEST SWAP4 POP PUSH2 0x7EA DUP2 DUP6 PUSH1 0x20 DUP7 ADD PUSH2 0x7A8 JUMP JUMPDEST PUSH2 0x7F3 DUP2 PUSH2 0x7B6 JUMP JUMPDEST DUP5 ADD SWAP2 POP POP SWAP3 SWAP2 POP POP JUMP JUMPDEST PUSH0 PUSH2 0x809 DUP4 DUP4 PUSH2 0x7C6 JUMP JUMPDEST SWAP1 POP SWAP3 SWAP2 POP POP JUMP JUMPDEST PUSH0 PUSH1 0x20 DUP3 ADD SWAP1 POP SWAP2 SWAP1 POP JUMP JUMPDEST PUSH0 PUSH2 0x827 DUP3 PUSH2 0x765 JUMP JUMPDEST PUSH2 0x831 DUP2 DUP6 PUSH2 0x76F JUMP JUMPDEST SWAP4 POP DUP4 PUSH1 0x20 DUP3 MUL DUP6 ADD PUSH2 0x843 DUP6 PUSH2 0x77F JUMP JUMPDEST DUP1 PUSH0 JUMPDEST DUP6 DUP2 LT ISZERO PUSH2 0x87E JUMPI DUP5 DUP5 SUB DUP10 MSTORE DUP2 MLOAD PUSH2 0x85F DUP6 DUP3 PUSH2 0x7FE JUMP JUMPDEST SWAP5 POP PUSH2 0x86A DUP4 PUSH2 0x811 JUMP JUMPDEST SWAP3 POP PUSH1 0x20 DUP11 ADD SWAP10 POP POP PUSH1 0x1 DUP2 ADD SWAP1 POP PUSH2 0x846 JUMP JUMPDEST POP DUP3 SWAP8 POP DUP8 SWAP6 POP POP POP POP POP POP SWAP3 SWAP2 POP POP JUMP JUMPDEST PUSH0 PUSH1 0x20 DUP3 ADD SWAP1 POP DUP2 DUP2 SUB PUSH0 DUP4 ADD MSTORE PUSH2 0x8A8 DUP2 DUP5 PUSH2 0x81D JUMP JUMPDEST SWAP1 POP SWAP3 SWAP2 POP POP JUMP JUMPDEST PUSH0 PUSH1 0x40 MLOAD SWAP1 POP SWAP1 JUMP JUMPDEST PUSH0 PUSH0 REVERT JUMPDEST PUSH0 PUSH0 REVERT JUMPDEST PUSH0 PUSH20 0xFFFFFFFFFFFFFFFFFFFFFFFFFFFFFFFFFFFFFFFF DUP3 AND SWAP1 POP SWAP2 SWAP1 POP JUMP JUMPDEST PUSH0 PUSH2 0x8EA DUP3 PUSH2 0x8C1 JUMP JUMPDEST SWAP1 POP SWAP2 SWAP1 POP JUMP JUMPDEST PUSH2 0x8FA DUP2 PUSH2 0x8E0 JUMP JUMPDEST DUP2 EQ PUSH2 0x904 JUMPI PUSH0 PUSH0 REVERT JUMPDEST POP JUMP JUMPDEST PUSH0 DUP2 CALLDATALOAD SWAP1 POP PUSH2 0x915 DUP2 PUSH2 0x8F1 JUMP JUMPDEST SWAP3 SWAP2 POP POP JUMP JUMPDEST PUSH0 DUP2 SWAP1 POP SWAP2 SWAP1 POP JUMP JUMPDEST PUSH2 0x92D DUP2 PUSH2 0x91B JUMP JUMPDEST DUP2 EQ PUSH2 0x937 JUMPI PUSH0 PUSH0 REVERT JUMPDEST POP JUMP JUMPDEST PUSH0 DUP2 CALLDATALOAD SWAP1 POP PUSH2 0x948 DUP2 PUSH2 0x924 JUMP JUMPDEST SWAP3 SWAP2 POP POP JUMP JUMPDEST PUSH0 PUSH0 PUSH1 0x40 DUP4 DUP6 SUB SLT ISZERO PUSH2 0x964 JUMPI PUSH2 0x963 PUSH2 0x8B9 JUMP JUMPDEST JUMPDEST PUSH0 PUSH2 0x971 DUP6 DUP3 DUP7 ADD PUSH2 0x907 JUMP JUMPDEST SWAP3 POP POP PUSH1 0x20 PUSH2 0x982 DUP6 DUP3 DUP7 ADD PUSH2 0x93A JUMP JUMPDEST SWAP2 POP POP SWAP3 POP SWAP3 SWAP1 POP JUMP JUMPDEST PUSH0 DUP3 DUP3 MSTORE PUSH1 0x20 DUP3 ADD SWAP1 POP SWAP3 SWAP2 POP POP JUMP JUMPDEST PUSH0 PUSH2 0x9A6 DUP3 PUSH2 0x78E JUMP JUMPDEST PUSH2 0x9B0 DUP2 DUP6 PUSH2 0x98C JUMP JUMPDEST SWAP4 POP PUSH2 0x9C0 DUP2 DUP6 PUSH1 0x20 DUP7 ADD PUSH2 0x7A8 JUMP JUMPDEST PUSH2 0x9C9 DUP2 PUSH2 0x7B6 JUMP JUMPDEST DUP5 ADD SWAP2 POP POP SWAP3 SWAP2 POP POP JUMP JUMPDEST PUSH0 PUSH1 0x20 DUP3 ADD SWAP1 POP DUP2 DUP2 SUB PUSH0 DUP4 ADD MSTORE PUSH2 0x9EC DUP2 DUP5 PUSH2 0x99C JUMP JUMPDEST SWAP1 POP SWAP3 SWAP2 POP POP JUMP JUMPDEST PUSH0 PUSH1 0x20 DUP3 DUP5 SUB SLT ISZERO PUSH2 0xA09 JUMPI PUSH2 0xA08 PUSH2 0x8B9 JUMP JUMPDEST JUMPDEST PUSH0 PUSH2 0xA16 DUP5 DUP3 DUP6 ADD PUSH2 0x907 JUMP JUMPDEST SWAP2 POP POP SWAP3 SWAP2 POP POP JUMP JUMPDEST PUSH0 PUSH0 REVERT JUMPDEST PUSH0 PUSH0 REVERT JUMPDEST PUSH32 0x4E487B7100000000000000000000000000000000000000000000000000000000 PUSH0 MSTORE PUSH1 0x41 PUSH1 0x4 MSTORE PUSH1 0x24 PUSH0 REVERT JUMPDEST PUSH2 0xA5D DUP3 PUSH2 0x7B6 JUMP JUMPDEST DUP2 ADD DUP2 DUP2 LT PUSH8 0xFFFFFFFFFFFFFFFF DUP3 GT OR ISZERO PUSH2 0xA7C JUMPI PUSH2 0xA7B PUSH2 0xA27 JUMP JUMPDEST JUMPDEST DUP1 PUSH1 0x40 MSTORE POP POP POP JUMP JUMPDEST PUSH0 PUSH2 0xA8E PUSH2 0x8B0 JUMP JUMPDEST SWAP1 POP PUSH2 0xA9A DUP3 DUP3 PUSH2 0xA54 JUMP JUMPDEST SWAP2 SWAP1 POP JUMP JUMPDEST PUSH0 PUSH8 0xFFFFFFFFFFFFFFFF DUP3 GT ISZERO PUSH2 0xAB9 JUMPI PUSH2 0xAB8 PUSH2 0xA27 JUMP JUMPDEST JUMPDEST PUSH2 0xAC2 DUP3 PUSH2 0x7B6 JUMP JUMPDEST SWAP1 POP PUSH1 0x20 DUP2 ADD SWAP1 POP SWAP2 SWAP1 POP JUMP JUMPDEST DUP3 DUP2 DUP4 CALLDATACOPY PUSH0 DUP4 DUP4 ADD MSTORE POP POP POP JUMP JUMPDEST PUSH0 PUSH2 0xAEF PUSH2 0xAEA DUP5 PUSH2 0xA9F JUMP JUMPDEST PUSH2 0xA85 JUMP JUMPDEST SWAP1 POP DUP3 DUP2 MSTORE PUSH1 0x20 DUP2 ADD DUP5 DUP5 DUP5 ADD GT ISZERO PUSH2 0xB0B JUMPI PUSH2 0xB0A PUSH2 0xA23 JUMP JUMPDEST JUMPDEST PUSH2 0xB16 DUP5 DUP3 DUP6 PUSH2 0xACF JUMP JUMPDEST POP SWAP4 SWAP3 POP POP POP JUMP JUMPDEST PUSH0 DUP3 PUSH1 0x1F DUP4 ADD SLT PUSH2 0xB32 JUMPI PUSH2 0xB31 PUSH2 0xA1F JUMP JUMPDEST JUMPDEST DUP2 CALLDATALOAD PUSH2 0xB42 DUP5 DUP3 PUSH1 0x20 DUP7 ADD PUSH2 0xADD JUMP JUMPDEST SWAP2 POP POP SWAP3 SWAP2 POP POP JUMP JUMPDEST PUSH0 PUSH1 0x20 DUP3 DUP5 SUB SLT ISZERO PUSH2 0xB60 JUMPI PUSH2 0xB5F PUSH2 0x8B9 JUMP JUMPDEST JUMPDEST PUSH0 DUP3 ADD CALLDATALOAD PUSH8 0xFFFFFFFFFFFFFFFF DUP2 GT ISZERO PUSH2 0xB7D JUMPI PUSH2 0xB7C PUSH2 0x8BD JUMP JUMPDEST JUMPDEST PUSH2 0xB89 DUP5 DUP3 DUP6 ADD PUSH2 0xB1E JUMP JUMPDEST SWAP2 POP POP SWAP3 SWAP2 POP POP JUMP JUMPDEST PUSH32 0x4E487B7100000000000000000000000000000000000000000000000000000000 PUSH0 MSTORE PUSH1 0x32 PUSH1 0x4 MSTORE PUSH1 0x24 PUSH0 REVERT JUMPDEST PUSH32 0x4E487B7100000000000000000000000000000000000000000000000000000000 PUSH0 MSTORE PUSH1 0x22 PUSH1 0x4 MSTORE PUSH1 0x24 PUSH0 REVERT JUMPDEST PUSH0 PUSH1 0x2 DUP3 DIV SWAP1 POP PUSH1 0x1 DUP3 AND DUP1 PUSH2 0xC03 JUMPI PUSH1 0x7F DUP3 AND SWAP2 POP JUMPDEST PUSH1 0x20 DUP3 LT DUP2 SUB PUSH2 0xC16 JUMPI PUSH2 0xC15 PUSH2 0xBBF JUMP JUMPDEST JUMPDEST POP SWAP2 SWAP1 POP JUMP JUMPDEST PUSH0 DUP2 SWAP1 POP DUP2 PUSH0 MSTORE PUSH1 0x20 PUSH0 KECCAK256 SWAP1 POP SWAP2 SWAP1 POP JUMP JUMPDEST PUSH0 PUSH1 0x20 PUSH1 0x1F DUP4 ADD DIV SWAP1 POP SWAP2 SWAP1 POP JUMP JUMPDEST PUSH0 DUP3 DUP3 SHL SWAP1 POP SWAP3 SWAP2 POP POP JUMP JUMPDEST PUSH0 PUSH1 0x8 DUP4 MUL PUSH2 0xC78 PUSH32 0xFFFFFFFFFFFFFFFFFFFFFFFFFFFFFFFFFFFFFFFFFFFFFFFFFFFFFFFFFFFFFFFF DUP3 PUSH2 0xC3D JUMP JUMPDEST PUSH2 0xC82 DUP7 DUP4 PUSH2 0xC3D JUMP JUMPDEST SWAP6 POP DUP1 NOT DUP5 AND SWAP4 POP DUP1 DUP7 AND DUP5 OR SWAP3 POP POP POP SWAP4 SWAP3 POP POP POP JUMP JUMPDEST PUSH0 DUP2 SWAP1 POP SWAP2 SWAP1 POP JUMP JUMPDEST PUSH0 PUSH2 0xCBD PUSH2 0xCB8 PUSH2 0xCB3 DUP5 PUSH2 0x91B JUMP JUMPDEST PUSH2 0xC9A JUMP JUMPDEST PUSH2 0x91B JUMP JUMPDEST SWAP1 POP SWAP2 SWAP1 POP JUMP JUMPDEST PUSH0 DUP2 SWAP1 POP SWAP2 SWAP1 POP JUMP JUMPDEST PUSH2 0xCD6 DUP4 PUSH2 0xCA3 JUMP JUMPDEST PUSH2 0xCEA PUSH2 0xCE2 DUP3 PUSH2 0xCC4 JUMP JUMPDEST DUP5 DUP5 SLOAD PUSH2 0xC49 JUMP JUMPDEST DUP3 SSTORE POP POP POP POP JUMP JUMPDEST PUSH0 PUSH0 SWAP1 POP SWAP1 JUMP JUMPDEST PUSH2 0xD01 PUSH2 0xCF2 JUMP JUMPDEST PUSH2 0xD0C DUP2 DUP5 DUP5 PUSH2 0xCCD JUMP JUMPDEST POP POP POP JUMP JUMPDEST JUMPDEST DUP2 DUP2 LT ISZERO PUSH2 0xD2F JUMPI PUSH2 0xD24 PUSH0 DUP3 PUSH2 0xCF9 JUMP JUMPDEST PUSH1 0x1 DUP2 ADD SWAP1 POP PUSH2 0xD12 JUMP JUMPDEST POP POP JUMP JUMPDEST PUSH1 0x1F DUP3 GT ISZERO PUSH2 0xD74 JUMPI PUSH2 0xD45 DUP2 PUSH2 0xC1C JUMP JUMPDEST PUSH2 0xD4E DUP5 PUSH2 0xC2E JUMP JUMPDEST DUP2 ADD PUSH1 0x20 DUP6 LT ISZERO PUSH2 0xD5D JUMPI DUP2 SWAP1 POP JUMPDEST PUSH2 0xD71 PUSH2 0xD69 DUP6 PUSH2 0xC2E JUMP JUMPDEST DUP4 ADD DUP3 PUSH2 0xD11 JUMP JUMPDEST POP POP JUMPDEST POP POP POP JUMP JUMPDEST PUSH0 DUP3 DUP3 SHR SWAP1 POP SWAP3 SWAP2 POP POP JUMP JUMPDEST PUSH0 PUSH2 0xD94 PUSH0 NOT DUP5 PUSH1 0x8 MUL PUSH2 0xD79 JUMP JUMPDEST NOT DUP1 DUP4 AND SWAP2 POP POP SWAP3 SWAP2 POP POP JUMP JUMPDEST PUSH0 PUSH2 0xDAC DUP4 DUP4 PUSH2 0xD85 JUMP JUMPDEST SWAP2 POP DUP3 PUSH1 0x2 MUL DUP3 OR SWAP1 POP SWAP3 SWAP2 POP POP JUMP JUMPDEST PUSH2 0xDC5 DUP3 PUSH2 0x78E JUMP JUMPDEST PUSH8 0xFFFFFFFFFFFFFFFF DUP2 GT ISZERO PUSH2 0xDDE JUMPI PUSH2 0xDDD PUSH2 0xA27 JUMP JUMPDEST JUMPDEST PUSH2 0xDE8 DUP3 SLOAD PUSH2 0xBEC JUMP JUMPDEST PUSH2 0xDF3 DUP3 DUP3 DUP6 PUSH2 0xD33 JUMP JUMPDEST PUSH0 PUSH1 0x20 SWAP1 POP PUSH1 0x1F DUP4 GT PUSH1 0x1 DUP2 EQ PUSH2 0xE24 JUMPI PUSH0 DUP5 ISZERO PUSH2 0xE12 JUMPI DUP3 DUP8 ADD MLOAD SWAP1 POP JUMPDEST PUSH2 0xE1C DUP6 DUP3 PUSH2 0xDA1 JUMP JUMPDEST DUP7 SSTORE POP PUSH2 0xE83 JUMP JUMPDEST PUSH1 0x1F NOT DUP5 AND PUSH2 0xE32 DUP7 PUSH2 0xC1C JUMP JUMPDEST PUSH0 JUMPDEST DUP3 DUP2 LT ISZERO PUSH2 0xE59 JUMPI DUP5 DUP10 ADD MLOAD DUP3 SSTORE PUSH1 0x1 DUP3 ADD SWAP2 POP PUSH1 0x20 DUP6 ADD SWAP5 POP PUSH1 0x20 DUP2 ADD SWAP1 POP PUSH2 0xE34 JUMP JUMPDEST DUP7 DUP4 LT ISZERO PUSH2 0xE76 JUMPI DUP5 DUP10 ADD MLOAD PUSH2 0xE72 PUSH1 0x1F DUP10 AND DUP3 PUSH2 0xD85 JUMP JUMPDEST DUP4 SSTORE POP JUMPDEST PUSH1 0x1 PUSH1 0x2 DUP9 MUL ADD DUP9 SSTORE POP POP POP JUMPDEST POP POP POP POP POP POP JUMP INVALID LOG2 PUSH5 0x6970667358 0x22 SLT KECCAK256 SWAP13 0xAE 0xD8 0xB6 ADD SSTORE 0xDB POP PC SUB PUSH31 0x2F2A8336326AA052121E66DEC7C27A1B28F5E4599A64736F6C634300081E00 CALLER "
				},
				"gasEstimates": {
					"creation": {
						"codeDepositCost": "755400",
						"executionCost": "790",
						"totalCost": "756190"
					},
					"external": {
						"addRecord(string)": "infinite",
						"getApprovedRecords()": "infinite",
						"getUserFavorites(address)": "infinite",
						"resetUserFavorites()": "infinite",
						"userFavorites(address,uint256)": "infinite"
					}
				},
				"methodIdentifiers": {
					"addRecord(string)": "d81aa8c4",
					"getApprovedRecords()": "1cf0830b",
					"getUserFavorites(address)": "c7853148",
					"resetUserFavorites()": "837f8878",
					"userFavorites(address,uint256)": "aa070fb5"
				}
			},
			"storageLayout": {
				"storage": [
					{
						"astId": 31,
						"contract": "Role3/MappingsPin.sol:Submission",
						"label": "userFavorites",
						"offset": 0,
						"slot": "0",
						"type": "t_mapping(t_address,t_array(t_string_storage)dyn_storage)"
					}
				],
				"types": {
					"t_address": {
						"encoding": "inplace",
						"label": "address",
						"numberOfBytes": "20"
					},
					"t_array(t_string_storage)dyn_storage": {
						"base": "t_string_storage",
						"encoding": "dynamic_array",
						"label": "string[]",
						"numberOfBytes": "32"
					},
					"t_mapping(t_address,t_array(t_string_storage)dyn_storage)": {
						"encoding": "mapping",
						"key": "t_address",
						"label": "mapping(address => string[])",
						"numberOfBytes": "32",
						"value": "t_array(t_string_storage)dyn_storage"
					},
					"t_string_storage": {
						"encoding": "bytes",
						"label": "string",
						"numberOfBytes": "32"
					}
				}
			},
			"userdoc": {
				"kind": "user",
				"methods": {},
				"version": 1
			}
		}
	}
}