{
	"data": {
		"bytecode": {
			"linkReferences": {},
			"object": "608060405234801561000f575f80fd5b506102b78061001d5f395ff3fe608060405234801561000f575f80fd5b5060043610610034575f3560e01c806306b034e9146100385780635270312a14610069575b5f80fd5b610052600480360381019061004d9190610160565b61009a565b6040516100609291906101c7565b60405180910390f35b610083600480360381019061007e9190610160565b6100f7565b6040516100919291906101c7565b60405180910390f35b5f8082847fffffffffffffffffffffffffffffffffffffffffffffffffffffffffffffffff6100c9919061021b565b10156100db575f6001915091506100f0565b82846100e7919061024e565b9150815f915091505b9250929050565b5f808383111561010d575f600191509150610122565b8284610119919061021b565b9150815f915091505b9250929050565b5f80fd5b5f819050919050565b61013f8161012d565b8114610149575f80fd5b50565b5f8135905061015a81610136565b92915050565b5f806040838503121561017657610175610129565b5b5f6101838582860161014c565b92505060206101948582860161014c565b9150509250929050565b6101a78161012d565b82525050565b5f8115159050919050565b6101c1816101ad565b82525050565b5f6040820190506101da5f83018561019e565b6101e760208301846101b8565b9392505050565b7f4e487b71000000000000000000000000000000000000000000000000000000005f52601160045260245ffd5b5f6102258261012d565b91506102308361012d565b9250828203905081811115610248576102476101ee565b5b92915050565b5f6102588261012d565b91506102638361012d565b925082820190508082111561027b5761027a6101ee565b5b9291505056fea26469706673582212204e00458d3c8b54fc5182f0cce22f8e12cb95e971a7c6544338403c99e7fb3db564736f6c63430008170033",
			"opcodes": "PUSH1 0x80 PUSH1 0x40 MSTORE CALLVALUE DUP1 ISZERO PUSH2 0xF JUMPI PUSH0 DUP1 REVERT JUMPDEST POP PUSH2 0x2B7 DUP1 PUSH2 0x1D PUSH0 CODECOPY PUSH0 RETURN INVALID PUSH1 0x80 PUSH1 0x40 MSTORE CALLVALUE DUP1 ISZERO PUSH2 0xF JUMPI PUSH0 DUP1 REVERT JUMPDEST POP PUSH1 0x4 CALLDATASIZE LT PUSH2 0x34 JUMPI PUSH0 CALLDATALOAD PUSH1 0xE0 SHR DUP1 PUSH4 0x6B034E9 EQ PUSH2 0x38 JUMPI DUP1 PUSH4 0x5270312A EQ PUSH2 0x69 JUMPI JUMPDEST PUSH0 DUP1 REVERT JUMPDEST PUSH2 0x52 PUSH1 0x4 DUP1 CALLDATASIZE SUB DUP2 ADD SWAP1 PUSH2 0x4D SWAP2 SWAP1 PUSH2 0x160 JUMP JUMPDEST PUSH2 0x9A JUMP JUMPDEST PUSH1 0x40 MLOAD PUSH2 0x60 SWAP3 SWAP2 SWAP1 PUSH2 0x1C7 JUMP JUMPDEST PUSH1 0x40 MLOAD DUP1 SWAP2 SUB SWAP1 RETURN JUMPDEST PUSH2 0x83 PUSH1 0x4 DUP1 CALLDATASIZE SUB DUP2 ADD SWAP1 PUSH2 0x7E SWAP2 SWAP1 PUSH2 0x160 JUMP JUMPDEST PUSH2 0xF7 JUMP JUMPDEST PUSH1 0x40 MLOAD PUSH2 0x91 SWAP3 SWAP2 SWAP1 PUSH2 0x1C7 JUMP JUMPDEST PUSH1 0x40 MLOAD DUP1 SWAP2 SUB SWAP1 RETURN JUMPDEST PUSH0 DUP1 DUP3 DUP5 PUSH32 0xFFFFFFFFFFFFFFFFFFFFFFFFFFFFFFFFFFFFFFFFFFFFFFFFFFFFFFFFFFFFFFFF PUSH2 0xC9 SWAP2 SWAP1 PUSH2 0x21B JUMP JUMPDEST LT ISZERO PUSH2 0xDB JUMPI PUSH0 PUSH1 0x1 SWAP2 POP SWAP2 POP PUSH2 0xF0 JUMP JUMPDEST DUP3 DUP5 PUSH2 0xE7 SWAP2 SWAP1 PUSH2 0x24E JUMP JUMPDEST SWAP2 POP DUP2 PUSH0 SWAP2 POP SWAP2 POP JUMPDEST SWAP3 POP SWAP3 SWAP1 POP JUMP JUMPDEST PUSH0 DUP1 DUP4 DUP4 GT ISZERO PUSH2 0x10D JUMPI PUSH0 PUSH1 0x1 SWAP2 POP SWAP2 POP PUSH2 0x122 JUMP JUMPDEST DUP3 DUP5 PUSH2 0x119 SWAP2 SWAP1 PUSH2 0x21B JUMP JUMPDEST SWAP2 POP DUP2 PUSH0 SWAP2 POP SWAP2 POP JUMPDEST SWAP3 POP SWAP3 SWAP1 POP JUMP JUMPDEST PUSH0 DUP1 REVERT JUMPDEST PUSH0 DUP2 SWAP1 POP SWAP2 SWAP1 POP JUMP JUMPDEST PUSH2 0x13F DUP2 PUSH2 0x12D JUMP JUMPDEST DUP2 EQ PUSH2 0x149 JUMPI PUSH0 DUP1 REVERT JUMPDEST POP JUMP JUMPDEST PUSH0 DUP2 CALLDATALOAD SWAP1 POP PUSH2 0x15A DUP2 PUSH2 0x136 JUMP JUMPDEST SWAP3 SWAP2 POP POP JUMP JUMPDEST PUSH0 DUP1 PUSH1 0x40 DUP4 DUP6 SUB SLT ISZERO PUSH2 0x176 JUMPI PUSH2 0x175 PUSH2 0x129 JUMP JUMPDEST JUMPDEST PUSH0 PUSH2 0x183 DUP6 DUP3 DUP7 ADD PUSH2 0x14C JUMP JUMPDEST SWAP3 POP POP PUSH1 0x20 PUSH2 0x194 DUP6 DUP3 DUP7 ADD PUSH2 0x14C JUMP JUMPDEST SWAP2 POP POP SWAP3 POP SWAP3 SWAP1 POP JUMP JUMPDEST PUSH2 0x1A7 DUP2 PUSH2 0x12D JUMP JUMPDEST DUP3 MSTORE POP POP JUMP JUMPDEST PUSH0 DUP2 ISZERO ISZERO SWAP1 POP SWAP2 SWAP1 POP JUMP JUMPDEST PUSH2 0x1C1 DUP2 PUSH2 0x1AD JUMP JUMPDEST DUP3 MSTORE POP POP JUMP JUMPDEST PUSH0 PUSH1 0x40 DUP3 ADD SWAP1 POP PUSH2 0x1DA PUSH0 DUP4 ADD DUP6 PUSH2 0x19E JUMP JUMPDEST PUSH2 0x1E7 PUSH1 0x20 DUP4 ADD DUP5 PUSH2 0x1B8 JUMP JUMPDEST SWAP4 SWAP3 POP POP POP JUMP JUMPDEST PUSH32 0x4E487B7100000000000000000000000000000000000000000000000000000000 PUSH0 MSTORE PUSH1 0x11 PUSH1 0x4 MSTORE PUSH1 0x24 PUSH0 REVERT JUMPDEST PUSH0 PUSH2 0x225 DUP3 PUSH2 0x12D JUMP JUMPDEST SWAP2 POP PUSH2 0x230 DUP4 PUSH2 0x12D JUMP JUMPDEST SWAP3 POP DUP3 DUP3 SUB SWAP1 POP DUP2 DUP2 GT ISZERO PUSH2 0x248 JUMPI PUSH2 0x247 PUSH2 0x1EE JUMP JUMPDEST JUMPDEST SWAP3 SWAP2 POP POP JUMP JUMPDEST PUSH0 PUSH2 0x258 DUP3 PUSH2 0x12D JUMP JUMPDEST SWAP2 POP PUSH2 0x263 DUP4 PUSH2 0x12D JUMP JUMPDEST SWAP3 POP DUP3 DUP3 ADD SWAP1 POP DUP1 DUP3 GT ISZERO PUSH2 0x27B JUMPI PUSH2 0x27A PUSH2 0x1EE JUMP JUMPDEST JUMPDEST SWAP3 SWAP2 POP POP JUMP INVALID LOG2 PUSH5 0x6970667358 0x22 SLT KECCAK256 0x4E STOP GASLIMIT DUP14 EXTCODECOPY DUP12 SLOAD 0xFC MLOAD DUP3 CREATE 0xCC 0xE2 0x2F DUP15 SLT 0xCB SWAP6 0xE9 PUSH18 0xA7C6544338403C99E7FB3DB564736F6C6343 STOP ADDMOD OR STOP CALLER "
		},
		"gasEstimates": {
			"creation": {
				"codeDepositCost": "139000",
				"executionCost": "181",
				"totalCost": "139181"
			},
			"external": {
				"adder(uint256,uint256)": "infinite",
				"subtractor(uint256,uint256)": "infinite"
			}
		},
		"methodIdentifiers": {
			"adder(uint256,uint256)": "06b034e9",
			"subtractor(uint256,uint256)": "5270312a"
		}
	},
	"abi": [
		{
			"inputs": [
				{
					"internalType": "uint256",
					"name": "_a",
					"type": "uint256"
				},
				{
					"internalType": "uint256",
					"name": "_b",
					"type": "uint256"
				}
			],
			"name": "adder",
			"outputs": [
				{
					"internalType": "uint256",
					"name": "result",
					"type": "uint256"
				},
				{
					"internalType": "bool",
					"name": "success",
					"type": "bool"
				}
			],
			"stateMutability": "pure",
			"type": "function"
		},
		{
			"inputs": [
				{
					"internalType": "uint256",
					"name": "_a",
					"type": "uint256"
				},
				{
					"internalType": "uint256",
					"name": "_b",
					"type": "uint256"
				}
			],
			"name": "subtractor",
			"outputs": [
				{
					"internalType": "uint256",
					"name": "result",
					"type": "uint256"
				},
				{
					"internalType": "bool",
					"name": "success",
					"type": "bool"
				}
			],
			"stateMutability": "pure",
			"type": "function"
		}
	]
}